{
	"src/contracts/Ethernium-eth.sol": {
		"Ethernium": {
			"abi": [
				{
					"inputs": [],
					"stateMutability": "nonpayable",
					"type": "constructor"
				},
				{
					"anonymous": false,
					"inputs": [
						{
							"indexed": true,
							"internalType": "address",
							"name": "testator",
							"type": "address"
						},
						{
							"indexed": false,
							"internalType": "uint256",
							"name": "grossAmount",
							"type": "uint256"
						},
						{
							"indexed": false,
							"internalType": "uint256",
							"name": "feeAmount",
							"type": "uint256"
						},
						{
							"indexed": false,
							"internalType": "uint256",
							"name": "netAmount",
							"type": "uint256"
						}
					],
					"name": "Deposit",
					"type": "event"
				},
				{
					"anonymous": false,
					"inputs": [
						{
							"indexed": true,
							"internalType": "address",
							"name": "testator",
							"type": "address"
						}
					],
					"name": "VaultCreated",
					"type": "event"
				},
				{
					"anonymous": false,
					"inputs": [
						{
							"indexed": true,
							"internalType": "address",
							"name": "testator",
							"type": "address"
						},
						{
							"indexed": false,
							"internalType": "uint256",
							"name": "amount",
							"type": "uint256"
						}
					],
					"name": "Withdraw",
					"type": "event"
				},
				{
					"inputs": [],
					"name": "createVault",
					"outputs": [],
					"stateMutability": "payable",
					"type": "function"
				},
				{
					"inputs": [],
					"name": "depositETH",
					"outputs": [],
					"stateMutability": "payable",
					"type": "function"
				},
				{
					"inputs": [
						{
							"internalType": "address",
							"name": "testator",
							"type": "address"
						}
					],
					"name": "getVaultBalance",
					"outputs": [
						{
							"internalType": "uint256",
							"name": "",
							"type": "uint256"
						}
					],
					"stateMutability": "view",
					"type": "function"
				},
				{
					"inputs": [],
					"name": "myVault",
					"outputs": [
						{
							"components": [
								{
									"internalType": "uint256",
									"name": "balances",
									"type": "uint256"
								}
							],
							"internalType": "struct Ethernium.VaultView",
							"name": "v",
							"type": "tuple"
						}
					],
					"stateMutability": "view",
					"type": "function"
				},
				{
					"inputs": [],
					"name": "owner",
					"outputs": [
						{
							"internalType": "address",
							"name": "",
							"type": "address"
						}
					],
					"stateMutability": "view",
					"type": "function"
				},
				{
					"inputs": [
						{
							"internalType": "uint256",
							"name": "amount",
							"type": "uint256"
						}
					],
					"name": "withdrawETH",
					"outputs": [],
					"stateMutability": "nonpayable",
					"type": "function"
				},
				{
					"stateMutability": "payable",
					"type": "receive"
				}
			],
			"devdoc": {
				"kind": "dev",
				"methods": {},
				"version": 1
			},
			"evm": {
				"assembly": "    /* \"src/contracts/Ethernium-eth.sol\":58:4429  contract Ethernium {... */\n  mstore(0x40, 0x80)\n    /* \"src/contracts/Ethernium-eth.sol\":1241:1290  constructor() {... */\n  callvalue\n  dup1\n  iszero\n  tag_1\n  jumpi\n  revert(0x00, 0x00)\ntag_1:\n  pop\n    /* \"src/contracts/Ethernium-eth.sol\":1273:1283  msg.sender */\n  caller\n    /* \"src/contracts/Ethernium-eth.sol\":1265:1270  owner */\n  0x04\n  0x00\n    /* \"src/contracts/Ethernium-eth.sol\":1265:1283  owner = msg.sender */\n  0x0100\n  exp\n  dup2\n  sload\n  dup2\n  0xffffffffffffffffffffffffffffffffffffffff\n  mul\n  not\n  and\n  swap1\n  dup4\n  0xffffffffffffffffffffffffffffffffffffffff\n  and\n  mul\n  or\n  swap1\n  sstore\n  pop\n    /* \"src/contracts/Ethernium-eth.sol\":58:4429  contract Ethernium {... */\n  dataSize(sub_0)\n  dup1\n  dataOffset(sub_0)\n  0x00\n  codecopy\n  0x00\n  return\nstop\n\nsub_0: assembly {\n        /* \"src/contracts/Ethernium-eth.sol\":58:4429  contract Ethernium {... */\n      mstore(0x40, 0x80)\n      jumpi(tag_1, lt(calldatasize, 0x04))\n      shr(0xe0, calldataload(0x00))\n      dup1\n      0x5d12928b\n      eq\n      tag_3\n      jumpi\n      dup1\n      0x8da5cb5b\n      eq\n      tag_4\n      jumpi\n      dup1\n      0x9f5f0520\n      eq\n      tag_5\n      jumpi\n      dup1\n      0xd3d7c002\n      eq\n      tag_6\n      jumpi\n      dup1\n      0xf14210a6\n      eq\n      tag_7\n      jumpi\n      dup1\n      0xf6326fb3\n      eq\n      tag_8\n      jumpi\n      jump(tag_2)\n    tag_1:\n      jumpi(tag_2, calldatasize)\n        /* \"src/contracts/Ethernium-eth.sol\":1412:1434  revert(\"Don't do it!\") */\n      mload(0x40)\n      0x08c379a000000000000000000000000000000000000000000000000000000000\n      dup2\n      mstore\n      0x04\n      add\n      tag_11\n      swap1\n      tag_12\n      jump\t// in\n    tag_11:\n      mload(0x40)\n      dup1\n      swap2\n      sub\n      swap1\n      revert\n        /* \"src/contracts/Ethernium-eth.sol\":58:4429  contract Ethernium {... */\n    tag_2:\n      revert(0x00, 0x00)\n        /* \"src/contracts/Ethernium-eth.sol\":1509:2020  function createVault() external payable {... */\n    tag_3:\n      tag_13\n      tag_14\n      jump\t// in\n    tag_13:\n      stop\n        /* \"src/contracts/Ethernium-eth.sol\":840:860  address public owner */\n    tag_4:\n      callvalue\n      dup1\n      iszero\n      tag_15\n      jumpi\n      revert(0x00, 0x00)\n    tag_15:\n      pop\n      tag_16\n      tag_17\n      jump\t// in\n    tag_16:\n      mload(0x40)\n      tag_18\n      swap2\n      swap1\n      tag_19\n      jump\t// in\n    tag_18:\n      mload(0x40)\n      dup1\n      swap2\n      sub\n      swap1\n      return\n        /* \"src/contracts/Ethernium-eth.sol\":2837:3021  function myVault() public view returns (VaultView memory v) {... */\n    tag_5:\n      callvalue\n      dup1\n      iszero\n      tag_20\n      jumpi\n      revert(0x00, 0x00)\n    tag_20:\n      pop\n      tag_21\n      tag_22\n      jump\t// in\n    tag_21:\n      mload(0x40)\n      tag_23\n      swap2\n      swap1\n      tag_24\n      jump\t// in\n    tag_23:\n      mload(0x40)\n      dup1\n      swap2\n      sub\n      swap1\n      return\n        /* \"src/contracts/Ethernium-eth.sol\":3107:3272  function getVaultBalance(address testator) external view onlyOwner returns (uint256) {... */\n    tag_6:\n      callvalue\n      dup1\n      iszero\n      tag_25\n      jumpi\n      revert(0x00, 0x00)\n    tag_25:\n      pop\n      tag_26\n      0x04\n      dup1\n      calldatasize\n      sub\n      dup2\n      add\n      swap1\n      tag_27\n      swap2\n      swap1\n      tag_28\n      jump\t// in\n    tag_27:\n      tag_29\n      jump\t// in\n    tag_26:\n      mload(0x40)\n      tag_30\n      swap2\n      swap1\n      tag_31\n      jump\t// in\n    tag_30:\n      mload(0x40)\n      dup1\n      swap2\n      sub\n      swap1\n      return\n        /* \"src/contracts/Ethernium-eth.sol\":3360:3747  function withdrawETH(uint256 amount) external {... */\n    tag_7:\n      callvalue\n      dup1\n      iszero\n      tag_32\n      jumpi\n      revert(0x00, 0x00)\n    tag_32:\n      pop\n      tag_33\n      0x04\n      dup1\n      calldatasize\n      sub\n      dup2\n      add\n      swap1\n      tag_34\n      swap2\n      swap1\n      tag_35\n      jump\t// in\n    tag_34:\n      tag_36\n      jump\t// in\n    tag_33:\n      stop\n        /* \"src/contracts/Ethernium-eth.sol\":2195:2751  function depositETH() external payable {... */\n    tag_8:\n      tag_37\n      tag_38\n      jump\t// in\n    tag_37:\n      stop\n        /* \"src/contracts/Ethernium-eth.sol\":1509:2020  function createVault() external payable {... */\n    tag_14:\n        /* \"src/contracts/Ethernium-eth.sol\":1568:1587  vaultCreatedAndPaid */\n      0x01\n        /* \"src/contracts/Ethernium-eth.sol\":1568:1599  vaultCreatedAndPaid[msg.sender] */\n      0x00\n        /* \"src/contracts/Ethernium-eth.sol\":1588:1598  msg.sender */\n      caller\n        /* \"src/contracts/Ethernium-eth.sol\":1568:1599  vaultCreatedAndPaid[msg.sender] */\n      0xffffffffffffffffffffffffffffffffffffffff\n      and\n      0xffffffffffffffffffffffffffffffffffffffff\n      and\n      dup2\n      mstore\n      0x20\n      add\n      swap1\n      dup2\n      mstore\n      0x20\n      add\n      0x00\n      keccak256\n      0x00\n      swap1\n      sload\n      swap1\n      0x0100\n      exp\n      swap1\n      div\n      0xff\n      and\n        /* \"src/contracts/Ethernium-eth.sol\":1567:1599  !vaultCreatedAndPaid[msg.sender] */\n      iszero\n        /* \"src/contracts/Ethernium-eth.sol\":1559:1625  require(!vaultCreatedAndPaid[msg.sender], \"Vault already created\") */\n      tag_40\n      jumpi\n      mload(0x40)\n      0x08c379a000000000000000000000000000000000000000000000000000000000\n      dup2\n      mstore\n      0x04\n      add\n      tag_41\n      swap1\n      tag_42\n      jump\t// in\n    tag_41:\n      mload(0x40)\n      dup1\n      swap2\n      sub\n      swap1\n      revert\n    tag_40:\n        /* \"src/contracts/Ethernium-eth.sol\":123:132  0.1 ether */\n      0x016345785d8a0000\n        /* \"src/contracts/Ethernium-eth.sol\":1643:1652  msg.value */\n      callvalue\n        /* \"src/contracts/Ethernium-eth.sol\":1643:1668  msg.value == CREATION_FEE */\n      eq\n        /* \"src/contracts/Ethernium-eth.sol\":1635:1695  require(msg.value == CREATION_FEE, \"Exact 0.1 ETH required\") */\n      tag_43\n      jumpi\n      mload(0x40)\n      0x08c379a000000000000000000000000000000000000000000000000000000000\n      dup2\n      mstore\n      0x04\n      add\n      tag_44\n      swap1\n      tag_45\n      jump\t// in\n    tag_44:\n      mload(0x40)\n      dup1\n      swap2\n      sub\n      swap1\n      revert\n    tag_43:\n        /* \"src/contracts/Ethernium-eth.sol\":1739:1743  true */\n      0x01\n        /* \"src/contracts/Ethernium-eth.sol\":1705:1724  vaultCreatedAndPaid */\n      dup1\n        /* \"src/contracts/Ethernium-eth.sol\":1705:1736  vaultCreatedAndPaid[msg.sender] */\n      0x00\n        /* \"src/contracts/Ethernium-eth.sol\":1725:1735  msg.sender */\n      caller\n        /* \"src/contracts/Ethernium-eth.sol\":1705:1736  vaultCreatedAndPaid[msg.sender] */\n      0xffffffffffffffffffffffffffffffffffffffff\n      and\n      0xffffffffffffffffffffffffffffffffffffffff\n      and\n      dup2\n      mstore\n      0x20\n      add\n      swap1\n      dup2\n      mstore\n      0x20\n      add\n      0x00\n      keccak256\n      0x00\n        /* \"src/contracts/Ethernium-eth.sol\":1705:1743  vaultCreatedAndPaid[msg.sender] = true */\n      0x0100\n      exp\n      dup2\n      sload\n      dup2\n      0xff\n      mul\n      not\n      and\n      swap1\n      dup4\n      iszero\n      iszero\n      mul\n      or\n      swap1\n      sstore\n      pop\n        /* \"src/contracts/Ethernium-eth.sol\":1754:1769  Vault storage v */\n      0x00\n        /* \"src/contracts/Ethernium-eth.sol\":1772:1781  testators */\n      0x00\n        /* \"src/contracts/Ethernium-eth.sol\":1772:1793  testators[msg.sender] */\n      0x00\n        /* \"src/contracts/Ethernium-eth.sol\":1782:1792  msg.sender */\n      caller\n        /* \"src/contracts/Ethernium-eth.sol\":1772:1793  testators[msg.sender] */\n      0xffffffffffffffffffffffffffffffffffffffff\n      and\n      0xffffffffffffffffffffffffffffffffffffffff\n      and\n      dup2\n      mstore\n      0x20\n      add\n      swap1\n      dup2\n      mstore\n      0x20\n      add\n      0x00\n      keccak256\n        /* \"src/contracts/Ethernium-eth.sol\":1754:1793  Vault storage v = testators[msg.sender] */\n      swap1\n      pop\n        /* \"src/contracts/Ethernium-eth.sol\":1808:1809  v */\n      dup1\n        /* \"src/contracts/Ethernium-eth.sol\":1808:1815  v.exist */\n      0x00\n      add\n      0x00\n      swap1\n      sload\n      swap1\n      0x0100\n      exp\n      swap1\n      div\n      0xff\n      and\n        /* \"src/contracts/Ethernium-eth.sol\":1803:1947  if (!v.exist) {... */\n      tag_46\n      jumpi\n        /* \"src/contracts/Ethernium-eth.sol\":1831:1865  _creditContractVault(CREATION_FEE) */\n      tag_47\n        /* \"src/contracts/Ethernium-eth.sol\":123:132  0.1 ether */\n      0x016345785d8a0000\n        /* \"src/contracts/Ethernium-eth.sol\":1831:1851  _creditContractVault */\n      tag_48\n        /* \"src/contracts/Ethernium-eth.sol\":1831:1865  _creditContractVault(CREATION_FEE) */\n      jump\t// in\n    tag_47:\n        /* \"src/contracts/Ethernium-eth.sol\":1889:1893  true */\n      0x01\n        /* \"src/contracts/Ethernium-eth.sol\":1879:1880  v */\n      dup2\n        /* \"src/contracts/Ethernium-eth.sol\":1879:1886  v.exist */\n      0x00\n      add\n      0x00\n        /* \"src/contracts/Ethernium-eth.sol\":1879:1893  v.exist = true */\n      0x0100\n      exp\n      dup2\n      sload\n      dup2\n      0xff\n      mul\n      not\n      and\n      swap1\n      dup4\n      iszero\n      iszero\n      mul\n      or\n      swap1\n      sstore\n      pop\n        /* \"src/contracts/Ethernium-eth.sol\":1925:1935  msg.sender */\n      caller\n        /* \"src/contracts/Ethernium-eth.sol\":1912:1936  VaultCreated(msg.sender) */\n      0xffffffffffffffffffffffffffffffffffffffff\n      and\n      0x2e49a5810fda2439a23771848b4acec786b0a64d4de3d124ac57fc8739c38875\n      mload(0x40)\n      mload(0x40)\n      dup1\n      swap2\n      sub\n      swap1\n      log2\n        /* \"src/contracts/Ethernium-eth.sol\":1803:1947  if (!v.exist) {... */\n    tag_46:\n        /* \"src/contracts/Ethernium-eth.sol\":1549:2020  {... */\n      pop\n        /* \"src/contracts/Ethernium-eth.sol\":1509:2020  function createVault() external payable {... */\n      jump\t// out\n        /* \"src/contracts/Ethernium-eth.sol\":840:860  address public owner */\n    tag_17:\n      0x04\n      0x00\n      swap1\n      sload\n      swap1\n      0x0100\n      exp\n      swap1\n      div\n      0xffffffffffffffffffffffffffffffffffffffff\n      and\n      dup2\n      jump\t// out\n        /* \"src/contracts/Ethernium-eth.sol\":2837:3021  function myVault() public view returns (VaultView memory v) {... */\n    tag_22:\n        /* \"src/contracts/Ethernium-eth.sol\":2877:2895  VaultView memory v */\n      tag_49\n      tag_50\n      jump\t// in\n    tag_49:\n        /* \"src/contracts/Ethernium-eth.sol\":2907:2924  Vault storage src */\n      0x00\n        /* \"src/contracts/Ethernium-eth.sol\":2927:2936  testators */\n      0x00\n        /* \"src/contracts/Ethernium-eth.sol\":2927:2948  testators[msg.sender] */\n      0x00\n        /* \"src/contracts/Ethernium-eth.sol\":2937:2947  msg.sender */\n      caller\n        /* \"src/contracts/Ethernium-eth.sol\":2927:2948  testators[msg.sender] */\n      0xffffffffffffffffffffffffffffffffffffffff\n      and\n      0xffffffffffffffffffffffffffffffffffffffff\n      and\n      dup2\n      mstore\n      0x20\n      add\n      swap1\n      dup2\n      mstore\n      0x20\n      add\n      0x00\n      keccak256\n        /* \"src/contracts/Ethernium-eth.sol\":2907:2948  Vault storage src = testators[msg.sender] */\n      swap1\n      pop\n        /* \"src/contracts/Ethernium-eth.sol\":2962:2996  VaultView({balances: src.balance}) */\n      mload(0x40)\n      dup1\n      0x20\n      add\n      0x40\n      mstore\n      dup1\n        /* \"src/contracts/Ethernium-eth.sol\":2983:2986  src */\n      dup3\n        /* \"src/contracts/Ethernium-eth.sol\":2983:2994  src.balance */\n      0x01\n      add\n      sload\n        /* \"src/contracts/Ethernium-eth.sol\":2962:2996  VaultView({balances: src.balance}) */\n      dup2\n      mstore\n      pop\n        /* \"src/contracts/Ethernium-eth.sol\":2958:2996  v = VaultView({balances: src.balance}) */\n      swap2\n      pop\n        /* \"src/contracts/Ethernium-eth.sol\":3006:3014  return v */\n      pop\n        /* \"src/contracts/Ethernium-eth.sol\":2837:3021  function myVault() public view returns (VaultView memory v) {... */\n      swap1\n      jump\t// out\n        /* \"src/contracts/Ethernium-eth.sol\":3107:3272  function getVaultBalance(address testator) external view onlyOwner returns (uint256) {... */\n    tag_29:\n        /* \"src/contracts/Ethernium-eth.sol\":3183:3190  uint256 */\n      0x00\n        /* \"src/contracts/Ethernium-eth.sol\":1197:1202  owner */\n      0x04\n      0x00\n      swap1\n      sload\n      swap1\n      0x0100\n      exp\n      swap1\n      div\n      0xffffffffffffffffffffffffffffffffffffffff\n      and\n        /* \"src/contracts/Ethernium-eth.sol\":1183:1202  msg.sender == owner */\n      0xffffffffffffffffffffffffffffffffffffffff\n      and\n        /* \"src/contracts/Ethernium-eth.sol\":1183:1193  msg.sender */\n      caller\n        /* \"src/contracts/Ethernium-eth.sol\":1183:1202  msg.sender == owner */\n      0xffffffffffffffffffffffffffffffffffffffff\n      and\n      eq\n        /* \"src/contracts/Ethernium-eth.sol\":1175:1217  require(msg.sender == owner, \"Only owner\") */\n      tag_53\n      jumpi\n      mload(0x40)\n      0x08c379a000000000000000000000000000000000000000000000000000000000\n      dup2\n      mstore\n      0x04\n      add\n      tag_54\n      swap1\n      tag_55\n      jump\t// in\n    tag_54:\n      mload(0x40)\n      dup1\n      swap2\n      sub\n      swap1\n      revert\n    tag_53:\n        /* \"src/contracts/Ethernium-eth.sol\":3202:3217  Vault storage v */\n      0x00\n        /* \"src/contracts/Ethernium-eth.sol\":3220:3229  testators */\n      0x00\n        /* \"src/contracts/Ethernium-eth.sol\":3220:3239  testators[testator] */\n      0x00\n        /* \"src/contracts/Ethernium-eth.sol\":3230:3238  testator */\n      dup5\n        /* \"src/contracts/Ethernium-eth.sol\":3220:3239  testators[testator] */\n      0xffffffffffffffffffffffffffffffffffffffff\n      and\n      0xffffffffffffffffffffffffffffffffffffffff\n      and\n      dup2\n      mstore\n      0x20\n      add\n      swap1\n      dup2\n      mstore\n      0x20\n      add\n      0x00\n      keccak256\n        /* \"src/contracts/Ethernium-eth.sol\":3202:3239  Vault storage v = testators[testator] */\n      swap1\n      pop\n        /* \"src/contracts/Ethernium-eth.sol\":3256:3257  v */\n      dup1\n        /* \"src/contracts/Ethernium-eth.sol\":3256:3265  v.balance */\n      0x01\n      add\n      sload\n        /* \"src/contracts/Ethernium-eth.sol\":3249:3265  return v.balance */\n      swap2\n      pop\n      pop\n        /* \"src/contracts/Ethernium-eth.sol\":3107:3272  function getVaultBalance(address testator) external view onlyOwner returns (uint256) {... */\n      swap2\n      swap1\n      pop\n      jump\t// out\n        /* \"src/contracts/Ethernium-eth.sol\":3360:3747  function withdrawETH(uint256 amount) external {... */\n    tag_36:\n        /* \"src/contracts/Ethernium-eth.sol\":3416:3431  Vault storage v */\n      0x00\n        /* \"src/contracts/Ethernium-eth.sol\":3434:3443  testators */\n      0x00\n        /* \"src/contracts/Ethernium-eth.sol\":3434:3455  testators[msg.sender] */\n      0x00\n        /* \"src/contracts/Ethernium-eth.sol\":3444:3454  msg.sender */\n      caller\n        /* \"src/contracts/Ethernium-eth.sol\":3434:3455  testators[msg.sender] */\n      0xffffffffffffffffffffffffffffffffffffffff\n      and\n      0xffffffffffffffffffffffffffffffffffffffff\n      and\n      dup2\n      mstore\n      0x20\n      add\n      swap1\n      dup2\n      mstore\n      0x20\n      add\n      0x00\n      keccak256\n        /* \"src/contracts/Ethernium-eth.sol\":3416:3455  Vault storage v = testators[msg.sender] */\n      swap1\n      pop\n        /* \"src/contracts/Ethernium-eth.sol\":3473:3474  v */\n      dup1\n        /* \"src/contracts/Ethernium-eth.sol\":3473:3480  v.exist */\n      0x00\n      add\n      0x00\n      swap1\n      sload\n      swap1\n      0x0100\n      exp\n      swap1\n      div\n      0xff\n      and\n        /* \"src/contracts/Ethernium-eth.sol\":3465:3505  require(v.exist, \"Vault does not exist\") */\n      tag_58\n      jumpi\n      mload(0x40)\n      0x08c379a000000000000000000000000000000000000000000000000000000000\n      dup2\n      mstore\n      0x04\n      add\n      tag_59\n      swap1\n      tag_60\n      jump\t// in\n    tag_59:\n      mload(0x40)\n      dup1\n      swap2\n      sub\n      swap1\n      revert\n    tag_58:\n        /* \"src/contracts/Ethernium-eth.sol\":3536:3542  amount */\n      dup2\n        /* \"src/contracts/Ethernium-eth.sol\":3523:3524  v */\n      dup2\n        /* \"src/contracts/Ethernium-eth.sol\":3523:3532  v.balance */\n      0x01\n      add\n      sload\n        /* \"src/contracts/Ethernium-eth.sol\":3523:3542  v.balance >= amount */\n      lt\n      iszero\n        /* \"src/contracts/Ethernium-eth.sol\":3515:3563  require(v.balance >= amount, \"Insufficient ETH\") */\n      tag_61\n      jumpi\n      mload(0x40)\n      0x08c379a000000000000000000000000000000000000000000000000000000000\n      dup2\n      mstore\n      0x04\n      add\n      tag_62\n      swap1\n      tag_63\n      jump\t// in\n    tag_62:\n      mload(0x40)\n      dup1\n      swap2\n      sub\n      swap1\n      revert\n    tag_61:\n        /* \"src/contracts/Ethernium-eth.sol\":3587:3593  amount */\n      dup2\n        /* \"src/contracts/Ethernium-eth.sol\":3574:3575  v */\n      dup2\n        /* \"src/contracts/Ethernium-eth.sol\":3574:3583  v.balance */\n      0x01\n      add\n      0x00\n        /* \"src/contracts/Ethernium-eth.sol\":3574:3593  v.balance -= amount */\n      dup3\n      dup3\n      sload\n      tag_64\n      swap2\n      swap1\n      tag_65\n      jump\t// in\n    tag_64:\n      swap3\n      pop\n      pop\n      dup2\n      swap1\n      sstore\n      pop\n        /* \"src/contracts/Ethernium-eth.sol\":3605:3612  bool ok */\n      0x00\n        /* \"src/contracts/Ethernium-eth.sol\":3618:3628  msg.sender */\n      caller\n        /* \"src/contracts/Ethernium-eth.sol\":3618:3633  msg.sender.call */\n      0xffffffffffffffffffffffffffffffffffffffff\n      and\n        /* \"src/contracts/Ethernium-eth.sol\":3641:3647  amount */\n      dup4\n        /* \"src/contracts/Ethernium-eth.sol\":3618:3652  msg.sender.call{value: amount}(\"\") */\n      mload(0x40)\n      tag_66\n      swap1\n      tag_67\n      jump\t// in\n    tag_66:\n      0x00\n      mload(0x40)\n      dup1\n      dup4\n      sub\n      dup2\n      dup6\n      dup8\n      gas\n      call\n      swap3\n      pop\n      pop\n      pop\n      returndatasize\n      dup1\n      0x00\n      dup2\n      eq\n      tag_70\n      jumpi\n      mload(0x40)\n      swap2\n      pop\n      and(add(returndatasize, 0x3f), not(0x1f))\n      dup3\n      add\n      0x40\n      mstore\n      returndatasize\n      dup3\n      mstore\n      returndatasize\n      0x00\n      0x20\n      dup5\n      add\n      returndatacopy\n      jump(tag_69)\n    tag_70:\n      0x60\n      swap2\n      pop\n    tag_69:\n      pop\n        /* \"src/contracts/Ethernium-eth.sol\":3604:3652  (bool ok, ) = msg.sender.call{value: amount}(\"\") */\n      pop\n      swap1\n      pop\n        /* \"src/contracts/Ethernium-eth.sol\":3670:3672  ok */\n      dup1\n        /* \"src/contracts/Ethernium-eth.sol\":3662:3696  require(ok, \"ETH transfer failed\") */\n      tag_71\n      jumpi\n      mload(0x40)\n      0x08c379a000000000000000000000000000000000000000000000000000000000\n      dup2\n      mstore\n      0x04\n      add\n      tag_72\n      swap1\n      tag_73\n      jump\t// in\n    tag_72:\n      mload(0x40)\n      dup1\n      swap2\n      sub\n      swap1\n      revert\n    tag_71:\n        /* \"src/contracts/Ethernium-eth.sol\":3721:3731  msg.sender */\n      caller\n        /* \"src/contracts/Ethernium-eth.sol\":3712:3740  Withdraw(msg.sender, amount) */\n      0xffffffffffffffffffffffffffffffffffffffff\n      and\n      0x884edad9ce6fa2440d8a54cc123490eb96d2768479d49ff9c7366125a9424364\n        /* \"src/contracts/Ethernium-eth.sol\":3733:3739  amount */\n      dup5\n        /* \"src/contracts/Ethernium-eth.sol\":3712:3740  Withdraw(msg.sender, amount) */\n      mload(0x40)\n      tag_74\n      swap2\n      swap1\n      tag_31\n      jump\t// in\n    tag_74:\n      mload(0x40)\n      dup1\n      swap2\n      sub\n      swap1\n      log2\n        /* \"src/contracts/Ethernium-eth.sol\":3406:3747  {... */\n      pop\n      pop\n        /* \"src/contracts/Ethernium-eth.sol\":3360:3747  function withdrawETH(uint256 amount) external {... */\n      pop\n      jump\t// out\n        /* \"src/contracts/Ethernium-eth.sol\":2195:2751  function depositETH() external payable {... */\n    tag_38:\n        /* \"src/contracts/Ethernium-eth.sol\":2252:2271  vaultCreatedAndPaid */\n      0x01\n        /* \"src/contracts/Ethernium-eth.sol\":2252:2283  vaultCreatedAndPaid[msg.sender] */\n      0x00\n        /* \"src/contracts/Ethernium-eth.sol\":2272:2282  msg.sender */\n      caller\n        /* \"src/contracts/Ethernium-eth.sol\":2252:2283  vaultCreatedAndPaid[msg.sender] */\n      0xffffffffffffffffffffffffffffffffffffffff\n      and\n      0xffffffffffffffffffffffffffffffffffffffff\n      and\n      dup2\n      mstore\n      0x20\n      add\n      swap1\n      dup2\n      mstore\n      0x20\n      add\n      0x00\n      keccak256\n      0x00\n      swap1\n      sload\n      swap1\n      0x0100\n      exp\n      swap1\n      div\n      0xff\n      and\n        /* \"src/contracts/Ethernium-eth.sol\":2244:2306  require(vaultCreatedAndPaid[msg.sender], \"Create vault first\") */\n      tag_76\n      jumpi\n      mload(0x40)\n      0x08c379a000000000000000000000000000000000000000000000000000000000\n      dup2\n      mstore\n      0x04\n      add\n      tag_77\n      swap1\n      tag_78\n      jump\t// in\n    tag_77:\n      mload(0x40)\n      dup1\n      swap2\n      sub\n      swap1\n      revert\n    tag_76:\n        /* \"src/contracts/Ethernium-eth.sol\":2336:2337  0 */\n      0x00\n        /* \"src/contracts/Ethernium-eth.sol\":2324:2333  msg.value */\n      callvalue\n        /* \"src/contracts/Ethernium-eth.sol\":2324:2337  msg.value > 0 */\n      gt\n        /* \"src/contracts/Ethernium-eth.sol\":2316:2353  require(msg.value > 0, \"No ETH sent\") */\n      tag_79\n      jumpi\n      mload(0x40)\n      0x08c379a000000000000000000000000000000000000000000000000000000000\n      dup2\n      mstore\n      0x04\n      add\n      tag_80\n      swap1\n      tag_81\n      jump\t// in\n    tag_80:\n      mload(0x40)\n      dup1\n      swap2\n      sub\n      swap1\n      revert\n    tag_79:\n        /* \"src/contracts/Ethernium-eth.sol\":2363:2387  _ensureVault(msg.sender) */\n      tag_82\n        /* \"src/contracts/Ethernium-eth.sol\":2376:2386  msg.sender */\n      caller\n        /* \"src/contracts/Ethernium-eth.sol\":2363:2375  _ensureVault */\n      tag_83\n        /* \"src/contracts/Ethernium-eth.sol\":2363:2387  _ensureVault(msg.sender) */\n      jump\t// in\n    tag_82:\n        /* \"src/contracts/Ethernium-eth.sol\":2398:2409  uint256 fee */\n      0x00\n        /* \"src/contracts/Ethernium-eth.sol\":328:333  10000 */\n      0x2710\n        /* \"src/contracts/Ethernium-eth.sol\":2412:2459  (msg.value * DEPOSIT_FEE_BPS) / BPS_DENOMINATOR */\n      0xffff\n      and\n        /* \"src/contracts/Ethernium-eth.sol\":258:260  50 */\n      0x32\n        /* \"src/contracts/Ethernium-eth.sol\":2413:2440  msg.value * DEPOSIT_FEE_BPS */\n      0xffff\n      and\n        /* \"src/contracts/Ethernium-eth.sol\":2413:2422  msg.value */\n      callvalue\n        /* \"src/contracts/Ethernium-eth.sol\":2413:2440  msg.value * DEPOSIT_FEE_BPS */\n      tag_84\n      swap2\n      swap1\n      tag_85\n      jump\t// in\n    tag_84:\n        /* \"src/contracts/Ethernium-eth.sol\":2412:2459  (msg.value * DEPOSIT_FEE_BPS) / BPS_DENOMINATOR */\n      tag_86\n      swap2\n      swap1\n      tag_87\n      jump\t// in\n    tag_86:\n        /* \"src/contracts/Ethernium-eth.sol\":2398:2459  uint256 fee = (msg.value * DEPOSIT_FEE_BPS) / BPS_DENOMINATOR */\n      swap1\n      pop\n        /* \"src/contracts/Ethernium-eth.sol\":2469:2480  uint256 net */\n      0x00\n        /* \"src/contracts/Ethernium-eth.sol\":2495:2498  fee */\n      dup2\n        /* \"src/contracts/Ethernium-eth.sol\":2483:2492  msg.value */\n      callvalue\n        /* \"src/contracts/Ethernium-eth.sol\":2483:2498  msg.value - fee */\n      tag_88\n      swap2\n      swap1\n      tag_65\n      jump\t// in\n    tag_88:\n        /* \"src/contracts/Ethernium-eth.sol\":2469:2498  uint256 net = msg.value - fee */\n      swap1\n      pop\n        /* \"src/contracts/Ethernium-eth.sol\":2522:2523  0 */\n      0x00\n        /* \"src/contracts/Ethernium-eth.sol\":2516:2519  net */\n      dup2\n        /* \"src/contracts/Ethernium-eth.sol\":2516:2523  net > 0 */\n      gt\n        /* \"src/contracts/Ethernium-eth.sol\":2508:2539  require(net > 0, \"Net is zero\") */\n      tag_89\n      jumpi\n      mload(0x40)\n      0x08c379a000000000000000000000000000000000000000000000000000000000\n      dup2\n      mstore\n      0x04\n      add\n      tag_90\n      swap1\n      tag_91\n      jump\t// in\n    tag_90:\n      mload(0x40)\n      dup1\n      swap2\n      sub\n      swap1\n      revert\n    tag_89:\n        /* \"src/contracts/Ethernium-eth.sol\":2629:2654  _creditContractVault(fee) */\n      tag_92\n        /* \"src/contracts/Ethernium-eth.sol\":2650:2653  fee */\n      dup3\n        /* \"src/contracts/Ethernium-eth.sol\":2629:2649  _creditContractVault */\n      tag_48\n        /* \"src/contracts/Ethernium-eth.sol\":2629:2654  _creditContractVault(fee) */\n      jump\t// in\n    tag_92:\n        /* \"src/contracts/Ethernium-eth.sol\":2665:2689  _credit(msg.sender, net) */\n      tag_93\n        /* \"src/contracts/Ethernium-eth.sol\":2673:2683  msg.sender */\n      caller\n        /* \"src/contracts/Ethernium-eth.sol\":2685:2688  net */\n      dup3\n        /* \"src/contracts/Ethernium-eth.sol\":2665:2672  _credit */\n      tag_94\n        /* \"src/contracts/Ethernium-eth.sol\":2665:2689  _credit(msg.sender, net) */\n      jump\t// in\n    tag_93:\n        /* \"src/contracts/Ethernium-eth.sol\":2712:2722  msg.sender */\n      caller\n        /* \"src/contracts/Ethernium-eth.sol\":2704:2744  Deposit(msg.sender, msg.value, fee, net) */\n      0xffffffffffffffffffffffffffffffffffffffff\n      and\n      0x36af321ec8d3c75236829c5317affd40ddb308863a1236d2d277a4025cccee1e\n        /* \"src/contracts/Ethernium-eth.sol\":2724:2733  msg.value */\n      callvalue\n        /* \"src/contracts/Ethernium-eth.sol\":2735:2738  fee */\n      dup5\n        /* \"src/contracts/Ethernium-eth.sol\":2740:2743  net */\n      dup5\n        /* \"src/contracts/Ethernium-eth.sol\":2704:2744  Deposit(msg.sender, msg.value, fee, net) */\n      mload(0x40)\n      tag_95\n      swap4\n      swap3\n      swap2\n      swap1\n      tag_96\n      jump\t// in\n    tag_95:\n      mload(0x40)\n      dup1\n      swap2\n      sub\n      swap1\n      log2\n        /* \"src/contracts/Ethernium-eth.sol\":2234:2751  {... */\n      pop\n      pop\n        /* \"src/contracts/Ethernium-eth.sol\":2195:2751  function depositETH() external payable {... */\n      jump\t// out\n        /* \"src/contracts/Ethernium-eth.sol\":4251:4427  function _creditContractVault(uint256 amount) internal {... */\n    tag_48:\n        /* \"src/contracts/Ethernium-eth.sol\":4330:4331  0 */\n      0x00\n        /* \"src/contracts/Ethernium-eth.sol\":4320:4326  amount */\n      dup2\n        /* \"src/contracts/Ethernium-eth.sol\":4320:4331  amount == 0 */\n      sub\n        /* \"src/contracts/Ethernium-eth.sol\":4316:4340  if (amount == 0) return; */\n      iszero\n        /* \"src/contracts/Ethernium-eth.sol\":4333:4340  return; */\n      tag_97\n        /* \"src/contracts/Ethernium-eth.sol\":4316:4340  if (amount == 0) return; */\n      jumpi\n        /* \"src/contracts/Ethernium-eth.sol\":4376:4382  amount */\n      dup1\n        /* \"src/contracts/Ethernium-eth.sol\":4349:4364  vaultOfContract */\n      0x02\n        /* \"src/contracts/Ethernium-eth.sol\":4349:4372  vaultOfContract.balance */\n      0x01\n      add\n      0x00\n        /* \"src/contracts/Ethernium-eth.sol\":4349:4382  vaultOfContract.balance += amount */\n      dup3\n      dup3\n      sload\n      tag_99\n      swap2\n      swap1\n      tag_100\n      jump\t// in\n    tag_99:\n      swap3\n      pop\n      pop\n      dup2\n      swap1\n      sstore\n      pop\n        /* \"src/contracts/Ethernium-eth.sol\":4416:4420  true */\n      0x01\n        /* \"src/contracts/Ethernium-eth.sol\":4392:4407  vaultOfContract */\n      0x02\n        /* \"src/contracts/Ethernium-eth.sol\":4392:4413  vaultOfContract.exist */\n      0x00\n      add\n      0x00\n        /* \"src/contracts/Ethernium-eth.sol\":4392:4420  vaultOfContract.exist = true */\n      0x0100\n      exp\n      dup2\n      sload\n      dup2\n      0xff\n      mul\n      not\n      and\n      swap1\n      dup4\n      iszero\n      iszero\n      mul\n      or\n      swap1\n      sstore\n      pop\n        /* \"src/contracts/Ethernium-eth.sol\":4251:4427  function _creditContractVault(uint256 amount) internal {... */\n    tag_97:\n      pop\n      jump\t// out\n        /* \"src/contracts/Ethernium-eth.sol\":3812:4018  function _ensureVault(address testator) internal {... */\n    tag_83:\n        /* \"src/contracts/Ethernium-eth.sol\":3871:3886  Vault storage v */\n      0x00\n        /* \"src/contracts/Ethernium-eth.sol\":3889:3898  testators */\n      0x00\n        /* \"src/contracts/Ethernium-eth.sol\":3889:3908  testators[testator] */\n      0x00\n        /* \"src/contracts/Ethernium-eth.sol\":3899:3907  testator */\n      dup4\n        /* \"src/contracts/Ethernium-eth.sol\":3889:3908  testators[testator] */\n      0xffffffffffffffffffffffffffffffffffffffff\n      and\n      0xffffffffffffffffffffffffffffffffffffffff\n      and\n      dup2\n      mstore\n      0x20\n      add\n      swap1\n      dup2\n      mstore\n      0x20\n      add\n      0x00\n      keccak256\n        /* \"src/contracts/Ethernium-eth.sol\":3871:3908  Vault storage v = testators[testator] */\n      swap1\n      pop\n        /* \"src/contracts/Ethernium-eth.sol\":3923:3924  v */\n      dup1\n        /* \"src/contracts/Ethernium-eth.sol\":3923:3930  v.exist */\n      0x00\n      add\n      0x00\n      swap1\n      sload\n      swap1\n      0x0100\n      exp\n      swap1\n      div\n      0xff\n      and\n        /* \"src/contracts/Ethernium-eth.sol\":3918:4012  if (!v.exist) {... */\n      tag_102\n      jumpi\n        /* \"src/contracts/Ethernium-eth.sol\":3956:3960  true */\n      0x01\n        /* \"src/contracts/Ethernium-eth.sol\":3946:3947  v */\n      dup2\n        /* \"src/contracts/Ethernium-eth.sol\":3946:3953  v.exist */\n      0x00\n      add\n      0x00\n        /* \"src/contracts/Ethernium-eth.sol\":3946:3960  v.exist = true */\n      0x0100\n      exp\n      dup2\n      sload\n      dup2\n      0xff\n      mul\n      not\n      and\n      swap1\n      dup4\n      iszero\n      iszero\n      mul\n      or\n      swap1\n      sstore\n      pop\n        /* \"src/contracts/Ethernium-eth.sol\":3992:4000  testator */\n      dup2\n        /* \"src/contracts/Ethernium-eth.sol\":3979:4001  VaultCreated(testator) */\n      0xffffffffffffffffffffffffffffffffffffffff\n      and\n      0x2e49a5810fda2439a23771848b4acec786b0a64d4de3d124ac57fc8739c38875\n      mload(0x40)\n      mload(0x40)\n      dup1\n      swap2\n      sub\n      swap1\n      log2\n        /* \"src/contracts/Ethernium-eth.sol\":3918:4012  if (!v.exist) {... */\n    tag_102:\n        /* \"src/contracts/Ethernium-eth.sol\":3861:4018  {... */\n      pop\n        /* \"src/contracts/Ethernium-eth.sol\":3812:4018  function _ensureVault(address testator) internal {... */\n      pop\n      jump\t// out\n        /* \"src/contracts/Ethernium-eth.sol\":4079:4245  function _credit(... */\n    tag_94:\n        /* \"src/contracts/Ethernium-eth.sol\":4171:4186  Vault storage v */\n      0x00\n        /* \"src/contracts/Ethernium-eth.sol\":4189:4198  testators */\n      0x00\n        /* \"src/contracts/Ethernium-eth.sol\":4189:4208  testators[testator] */\n      0x00\n        /* \"src/contracts/Ethernium-eth.sol\":4199:4207  testator */\n      dup5\n        /* \"src/contracts/Ethernium-eth.sol\":4189:4208  testators[testator] */\n      0xffffffffffffffffffffffffffffffffffffffff\n      and\n      0xffffffffffffffffffffffffffffffffffffffff\n      and\n      dup2\n      mstore\n      0x20\n      add\n      swap1\n      dup2\n      mstore\n      0x20\n      add\n      0x00\n      keccak256\n        /* \"src/contracts/Ethernium-eth.sol\":4171:4208  Vault storage v = testators[testator] */\n      swap1\n      pop\n        /* \"src/contracts/Ethernium-eth.sol\":4232:4238  amount */\n      dup2\n        /* \"src/contracts/Ethernium-eth.sol\":4219:4220  v */\n      dup2\n        /* \"src/contracts/Ethernium-eth.sol\":4219:4228  v.balance */\n      0x01\n      add\n      0x00\n        /* \"src/contracts/Ethernium-eth.sol\":4219:4238  v.balance += amount */\n      dup3\n      dup3\n      sload\n      tag_104\n      swap2\n      swap1\n      tag_100\n      jump\t// in\n    tag_104:\n      swap3\n      pop\n      pop\n      dup2\n      swap1\n      sstore\n      pop\n        /* \"src/contracts/Ethernium-eth.sol\":4161:4245  {... */\n      pop\n        /* \"src/contracts/Ethernium-eth.sol\":4079:4245  function _credit(... */\n      pop\n      pop\n      jump\t// out\n    tag_50:\n      mload(0x40)\n      dup1\n      0x20\n      add\n      0x40\n      mstore\n      dup1\n      0x00\n      dup2\n      mstore\n      pop\n      swap1\n      jump\t// out\n        /* \"#utility.yul\":7:176   */\n    tag_105:\n        /* \"#utility.yul\":91:102   */\n      0x00\n        /* \"#utility.yul\":125:131   */\n      dup3\n        /* \"#utility.yul\":120:123   */\n      dup3\n        /* \"#utility.yul\":113:132   */\n      mstore\n        /* \"#utility.yul\":165:169   */\n      0x20\n        /* \"#utility.yul\":160:163   */\n      dup3\n        /* \"#utility.yul\":156:170   */\n      add\n        /* \"#utility.yul\":141:170   */\n      swap1\n      pop\n        /* \"#utility.yul\":7:176   */\n      swap3\n      swap2\n      pop\n      pop\n      jump\t// out\n        /* \"#utility.yul\":182:344   */\n    tag_106:\n        /* \"#utility.yul\":322:336   */\n      0x446f6e277420646f206974210000000000000000000000000000000000000000\n        /* \"#utility.yul\":318:319   */\n      0x00\n        /* \"#utility.yul\":310:316   */\n      dup3\n        /* \"#utility.yul\":306:320   */\n      add\n        /* \"#utility.yul\":299:337   */\n      mstore\n        /* \"#utility.yul\":182:344   */\n      pop\n      jump\t// out\n        /* \"#utility.yul\":350:716   */\n    tag_107:\n        /* \"#utility.yul\":492:495   */\n      0x00\n        /* \"#utility.yul\":513:580   */\n      tag_149\n        /* \"#utility.yul\":577:579   */\n      0x0c\n        /* \"#utility.yul\":572:575   */\n      dup4\n        /* \"#utility.yul\":513:580   */\n      tag_105\n      jump\t// in\n    tag_149:\n        /* \"#utility.yul\":506:580   */\n      swap2\n      pop\n        /* \"#utility.yul\":589:682   */\n      tag_150\n        /* \"#utility.yul\":678:681   */\n      dup3\n        /* \"#utility.yul\":589:682   */\n      tag_106\n      jump\t// in\n    tag_150:\n        /* \"#utility.yul\":707:709   */\n      0x20\n        /* \"#utility.yul\":702:705   */\n      dup3\n        /* \"#utility.yul\":698:710   */\n      add\n        /* \"#utility.yul\":691:710   */\n      swap1\n      pop\n        /* \"#utility.yul\":350:716   */\n      swap2\n      swap1\n      pop\n      jump\t// out\n        /* \"#utility.yul\":722:1141   */\n    tag_12:\n        /* \"#utility.yul\":888:892   */\n      0x00\n        /* \"#utility.yul\":926:928   */\n      0x20\n        /* \"#utility.yul\":915:924   */\n      dup3\n        /* \"#utility.yul\":911:929   */\n      add\n        /* \"#utility.yul\":903:929   */\n      swap1\n      pop\n        /* \"#utility.yul\":975:984   */\n      dup2\n        /* \"#utility.yul\":969:973   */\n      dup2\n        /* \"#utility.yul\":965:985   */\n      sub\n        /* \"#utility.yul\":961:962   */\n      0x00\n        /* \"#utility.yul\":950:959   */\n      dup4\n        /* \"#utility.yul\":946:963   */\n      add\n        /* \"#utility.yul\":939:986   */\n      mstore\n        /* \"#utility.yul\":1003:1134   */\n      tag_152\n        /* \"#utility.yul\":1129:1133   */\n      dup2\n        /* \"#utility.yul\":1003:1134   */\n      tag_107\n      jump\t// in\n    tag_152:\n        /* \"#utility.yul\":995:1134   */\n      swap1\n      pop\n        /* \"#utility.yul\":722:1141   */\n      swap2\n      swap1\n      pop\n      jump\t// out\n        /* \"#utility.yul\":1147:1273   */\n    tag_108:\n        /* \"#utility.yul\":1184:1191   */\n      0x00\n        /* \"#utility.yul\":1224:1266   */\n      0xffffffffffffffffffffffffffffffffffffffff\n        /* \"#utility.yul\":1217:1222   */\n      dup3\n        /* \"#utility.yul\":1213:1267   */\n      and\n        /* \"#utility.yul\":1202:1267   */\n      swap1\n      pop\n        /* \"#utility.yul\":1147:1273   */\n      swap2\n      swap1\n      pop\n      jump\t// out\n        /* \"#utility.yul\":1279:1375   */\n    tag_109:\n        /* \"#utility.yul\":1316:1323   */\n      0x00\n        /* \"#utility.yul\":1345:1369   */\n      tag_155\n        /* \"#utility.yul\":1363:1368   */\n      dup3\n        /* \"#utility.yul\":1345:1369   */\n      tag_108\n      jump\t// in\n    tag_155:\n        /* \"#utility.yul\":1334:1369   */\n      swap1\n      pop\n        /* \"#utility.yul\":1279:1375   */\n      swap2\n      swap1\n      pop\n      jump\t// out\n        /* \"#utility.yul\":1381:1499   */\n    tag_110:\n        /* \"#utility.yul\":1468:1492   */\n      tag_157\n        /* \"#utility.yul\":1486:1491   */\n      dup2\n        /* \"#utility.yul\":1468:1492   */\n      tag_109\n      jump\t// in\n    tag_157:\n        /* \"#utility.yul\":1463:1466   */\n      dup3\n        /* \"#utility.yul\":1456:1493   */\n      mstore\n        /* \"#utility.yul\":1381:1499   */\n      pop\n      pop\n      jump\t// out\n        /* \"#utility.yul\":1505:1727   */\n    tag_19:\n        /* \"#utility.yul\":1598:1602   */\n      0x00\n        /* \"#utility.yul\":1636:1638   */\n      0x20\n        /* \"#utility.yul\":1625:1634   */\n      dup3\n        /* \"#utility.yul\":1621:1639   */\n      add\n        /* \"#utility.yul\":1613:1639   */\n      swap1\n      pop\n        /* \"#utility.yul\":1649:1720   */\n      tag_159\n        /* \"#utility.yul\":1717:1718   */\n      0x00\n        /* \"#utility.yul\":1706:1715   */\n      dup4\n        /* \"#utility.yul\":1702:1719   */\n      add\n        /* \"#utility.yul\":1693:1699   */\n      dup5\n        /* \"#utility.yul\":1649:1720   */\n      tag_110\n      jump\t// in\n    tag_159:\n        /* \"#utility.yul\":1505:1727   */\n      swap3\n      swap2\n      pop\n      pop\n      jump\t// out\n        /* \"#utility.yul\":1733:1810   */\n    tag_111:\n        /* \"#utility.yul\":1770:1777   */\n      0x00\n        /* \"#utility.yul\":1799:1804   */\n      dup2\n        /* \"#utility.yul\":1788:1804   */\n      swap1\n      pop\n        /* \"#utility.yul\":1733:1810   */\n      swap2\n      swap1\n      pop\n      jump\t// out\n        /* \"#utility.yul\":1816:1924   */\n    tag_112:\n        /* \"#utility.yul\":1893:1917   */\n      tag_162\n        /* \"#utility.yul\":1911:1916   */\n      dup2\n        /* \"#utility.yul\":1893:1917   */\n      tag_111\n      jump\t// in\n    tag_162:\n        /* \"#utility.yul\":1888:1891   */\n      dup3\n        /* \"#utility.yul\":1881:1918   */\n      mstore\n        /* \"#utility.yul\":1816:1924   */\n      pop\n      pop\n      jump\t// out\n        /* \"#utility.yul\":1994:2331   */\n    tag_113:\n        /* \"#utility.yul\":2141:2145   */\n      0x20\n        /* \"#utility.yul\":2136:2139   */\n      dup3\n        /* \"#utility.yul\":2132:2146   */\n      add\n        /* \"#utility.yul\":2232:2236   */\n      0x00\n        /* \"#utility.yul\":2225:2230   */\n      dup3\n        /* \"#utility.yul\":2221:2237   */\n      add\n        /* \"#utility.yul\":2215:2238   */\n      mload\n        /* \"#utility.yul\":2251:2314   */\n      tag_164\n        /* \"#utility.yul\":2308:2312   */\n      0x00\n        /* \"#utility.yul\":2303:2306   */\n      dup6\n        /* \"#utility.yul\":2299:2313   */\n      add\n        /* \"#utility.yul\":2285:2297   */\n      dup3\n        /* \"#utility.yul\":2251:2314   */\n      tag_112\n      jump\t// in\n    tag_164:\n        /* \"#utility.yul\":2156:2324   */\n      pop\n        /* \"#utility.yul\":2110:2331   */\n      pop\n        /* \"#utility.yul\":1994:2331   */\n      pop\n      pop\n      jump\t// out\n        /* \"#utility.yul\":2337:2659   */\n    tag_24:\n        /* \"#utility.yul\":2480:2484   */\n      0x00\n        /* \"#utility.yul\":2518:2520   */\n      0x20\n        /* \"#utility.yul\":2507:2516   */\n      dup3\n        /* \"#utility.yul\":2503:2521   */\n      add\n        /* \"#utility.yul\":2495:2521   */\n      swap1\n      pop\n        /* \"#utility.yul\":2531:2652   */\n      tag_166\n        /* \"#utility.yul\":2649:2650   */\n      0x00\n        /* \"#utility.yul\":2638:2647   */\n      dup4\n        /* \"#utility.yul\":2634:2651   */\n      add\n        /* \"#utility.yul\":2625:2631   */\n      dup5\n        /* \"#utility.yul\":2531:2652   */\n      tag_113\n      jump\t// in\n    tag_166:\n        /* \"#utility.yul\":2337:2659   */\n      swap3\n      swap2\n      pop\n      pop\n      jump\t// out\n        /* \"#utility.yul\":2746:2863   */\n    tag_115:\n        /* \"#utility.yul\":2855:2856   */\n      0x00\n        /* \"#utility.yul\":2852:2853   */\n      0x00\n        /* \"#utility.yul\":2845:2857   */\n      revert\n        /* \"#utility.yul\":2992:3114   */\n    tag_117:\n        /* \"#utility.yul\":3065:3089   */\n      tag_171\n        /* \"#utility.yul\":3083:3088   */\n      dup2\n        /* \"#utility.yul\":3065:3089   */\n      tag_109\n      jump\t// in\n    tag_171:\n        /* \"#utility.yul\":3058:3063   */\n      dup2\n        /* \"#utility.yul\":3055:3090   */\n      eq\n        /* \"#utility.yul\":3045:3108   */\n      tag_172\n      jumpi\n        /* \"#utility.yul\":3104:3105   */\n      0x00\n        /* \"#utility.yul\":3101:3102   */\n      0x00\n        /* \"#utility.yul\":3094:3106   */\n      revert\n        /* \"#utility.yul\":3045:3108   */\n    tag_172:\n        /* \"#utility.yul\":2992:3114   */\n      pop\n      jump\t// out\n        /* \"#utility.yul\":3120:3259   */\n    tag_118:\n        /* \"#utility.yul\":3166:3171   */\n      0x00\n        /* \"#utility.yul\":3204:3210   */\n      dup2\n        /* \"#utility.yul\":3191:3211   */\n      calldataload\n        /* \"#utility.yul\":3182:3211   */\n      swap1\n      pop\n        /* \"#utility.yul\":3220:3253   */\n      tag_174\n        /* \"#utility.yul\":3247:3252   */\n      dup2\n        /* \"#utility.yul\":3220:3253   */\n      tag_117\n      jump\t// in\n    tag_174:\n        /* \"#utility.yul\":3120:3259   */\n      swap3\n      swap2\n      pop\n      pop\n      jump\t// out\n        /* \"#utility.yul\":3265:3594   */\n    tag_28:\n        /* \"#utility.yul\":3324:3330   */\n      0x00\n        /* \"#utility.yul\":3373:3375   */\n      0x20\n        /* \"#utility.yul\":3361:3370   */\n      dup3\n        /* \"#utility.yul\":3352:3359   */\n      dup5\n        /* \"#utility.yul\":3348:3371   */\n      sub\n        /* \"#utility.yul\":3344:3376   */\n      slt\n        /* \"#utility.yul\":3341:3460   */\n      iszero\n      tag_176\n      jumpi\n        /* \"#utility.yul\":3379:3458   */\n      tag_177\n      tag_115\n      jump\t// in\n    tag_177:\n        /* \"#utility.yul\":3341:3460   */\n    tag_176:\n        /* \"#utility.yul\":3499:3500   */\n      0x00\n        /* \"#utility.yul\":3524:3577   */\n      tag_178\n        /* \"#utility.yul\":3569:3576   */\n      dup5\n        /* \"#utility.yul\":3560:3566   */\n      dup3\n        /* \"#utility.yul\":3549:3558   */\n      dup6\n        /* \"#utility.yul\":3545:3567   */\n      add\n        /* \"#utility.yul\":3524:3577   */\n      tag_118\n      jump\t// in\n    tag_178:\n        /* \"#utility.yul\":3514:3577   */\n      swap2\n      pop\n        /* \"#utility.yul\":3470:3587   */\n      pop\n        /* \"#utility.yul\":3265:3594   */\n      swap3\n      swap2\n      pop\n      pop\n      jump\t// out\n        /* \"#utility.yul\":3600:3718   */\n    tag_119:\n        /* \"#utility.yul\":3687:3711   */\n      tag_180\n        /* \"#utility.yul\":3705:3710   */\n      dup2\n        /* \"#utility.yul\":3687:3711   */\n      tag_111\n      jump\t// in\n    tag_180:\n        /* \"#utility.yul\":3682:3685   */\n      dup3\n        /* \"#utility.yul\":3675:3712   */\n      mstore\n        /* \"#utility.yul\":3600:3718   */\n      pop\n      pop\n      jump\t// out\n        /* \"#utility.yul\":3724:3946   */\n    tag_31:\n        /* \"#utility.yul\":3817:3821   */\n      0x00\n        /* \"#utility.yul\":3855:3857   */\n      0x20\n        /* \"#utility.yul\":3844:3853   */\n      dup3\n        /* \"#utility.yul\":3840:3858   */\n      add\n        /* \"#utility.yul\":3832:3858   */\n      swap1\n      pop\n        /* \"#utility.yul\":3868:3939   */\n      tag_182\n        /* \"#utility.yul\":3936:3937   */\n      0x00\n        /* \"#utility.yul\":3925:3934   */\n      dup4\n        /* \"#utility.yul\":3921:3938   */\n      add\n        /* \"#utility.yul\":3912:3918   */\n      dup5\n        /* \"#utility.yul\":3868:3939   */\n      tag_119\n      jump\t// in\n    tag_182:\n        /* \"#utility.yul\":3724:3946   */\n      swap3\n      swap2\n      pop\n      pop\n      jump\t// out\n        /* \"#utility.yul\":3952:4074   */\n    tag_120:\n        /* \"#utility.yul\":4025:4049   */\n      tag_184\n        /* \"#utility.yul\":4043:4048   */\n      dup2\n        /* \"#utility.yul\":4025:4049   */\n      tag_111\n      jump\t// in\n    tag_184:\n        /* \"#utility.yul\":4018:4023   */\n      dup2\n        /* \"#utility.yul\":4015:4050   */\n      eq\n        /* \"#utility.yul\":4005:4068   */\n      tag_185\n      jumpi\n        /* \"#utility.yul\":4064:4065   */\n      0x00\n        /* \"#utility.yul\":4061:4062   */\n      0x00\n        /* \"#utility.yul\":4054:4066   */\n      revert\n        /* \"#utility.yul\":4005:4068   */\n    tag_185:\n        /* \"#utility.yul\":3952:4074   */\n      pop\n      jump\t// out\n        /* \"#utility.yul\":4080:4219   */\n    tag_121:\n        /* \"#utility.yul\":4126:4131   */\n      0x00\n        /* \"#utility.yul\":4164:4170   */\n      dup2\n        /* \"#utility.yul\":4151:4171   */\n      calldataload\n        /* \"#utility.yul\":4142:4171   */\n      swap1\n      pop\n        /* \"#utility.yul\":4180:4213   */\n      tag_187\n        /* \"#utility.yul\":4207:4212   */\n      dup2\n        /* \"#utility.yul\":4180:4213   */\n      tag_120\n      jump\t// in\n    tag_187:\n        /* \"#utility.yul\":4080:4219   */\n      swap3\n      swap2\n      pop\n      pop\n      jump\t// out\n        /* \"#utility.yul\":4225:4554   */\n    tag_35:\n        /* \"#utility.yul\":4284:4290   */\n      0x00\n        /* \"#utility.yul\":4333:4335   */\n      0x20\n        /* \"#utility.yul\":4321:4330   */\n      dup3\n        /* \"#utility.yul\":4312:4319   */\n      dup5\n        /* \"#utility.yul\":4308:4331   */\n      sub\n        /* \"#utility.yul\":4304:4336   */\n      slt\n        /* \"#utility.yul\":4301:4420   */\n      iszero\n      tag_189\n      jumpi\n        /* \"#utility.yul\":4339:4418   */\n      tag_190\n      tag_115\n      jump\t// in\n    tag_190:\n        /* \"#utility.yul\":4301:4420   */\n    tag_189:\n        /* \"#utility.yul\":4459:4460   */\n      0x00\n        /* \"#utility.yul\":4484:4537   */\n      tag_191\n        /* \"#utility.yul\":4529:4536   */\n      dup5\n        /* \"#utility.yul\":4520:4526   */\n      dup3\n        /* \"#utility.yul\":4509:4518   */\n      dup6\n        /* \"#utility.yul\":4505:4527   */\n      add\n        /* \"#utility.yul\":4484:4537   */\n      tag_121\n      jump\t// in\n    tag_191:\n        /* \"#utility.yul\":4474:4537   */\n      swap2\n      pop\n        /* \"#utility.yul\":4430:4547   */\n      pop\n        /* \"#utility.yul\":4225:4554   */\n      swap3\n      swap2\n      pop\n      pop\n      jump\t// out\n        /* \"#utility.yul\":4560:4731   */\n    tag_122:\n        /* \"#utility.yul\":4700:4723   */\n      0x5661756c7420616c726561647920637265617465640000000000000000000000\n        /* \"#utility.yul\":4696:4697   */\n      0x00\n        /* \"#utility.yul\":4688:4694   */\n      dup3\n        /* \"#utility.yul\":4684:4698   */\n      add\n        /* \"#utility.yul\":4677:4724   */\n      mstore\n        /* \"#utility.yul\":4560:4731   */\n      pop\n      jump\t// out\n        /* \"#utility.yul\":4737:5103   */\n    tag_123:\n        /* \"#utility.yul\":4879:4882   */\n      0x00\n        /* \"#utility.yul\":4900:4967   */\n      tag_194\n        /* \"#utility.yul\":4964:4966   */\n      0x15\n        /* \"#utility.yul\":4959:4962   */\n      dup4\n        /* \"#utility.yul\":4900:4967   */\n      tag_105\n      jump\t// in\n    tag_194:\n        /* \"#utility.yul\":4893:4967   */\n      swap2\n      pop\n        /* \"#utility.yul\":4976:5069   */\n      tag_195\n        /* \"#utility.yul\":5065:5068   */\n      dup3\n        /* \"#utility.yul\":4976:5069   */\n      tag_122\n      jump\t// in\n    tag_195:\n        /* \"#utility.yul\":5094:5096   */\n      0x20\n        /* \"#utility.yul\":5089:5092   */\n      dup3\n        /* \"#utility.yul\":5085:5097   */\n      add\n        /* \"#utility.yul\":5078:5097   */\n      swap1\n      pop\n        /* \"#utility.yul\":4737:5103   */\n      swap2\n      swap1\n      pop\n      jump\t// out\n        /* \"#utility.yul\":5109:5528   */\n    tag_42:\n        /* \"#utility.yul\":5275:5279   */\n      0x00\n        /* \"#utility.yul\":5313:5315   */\n      0x20\n        /* \"#utility.yul\":5302:5311   */\n      dup3\n        /* \"#utility.yul\":5298:5316   */\n      add\n        /* \"#utility.yul\":5290:5316   */\n      swap1\n      pop\n        /* \"#utility.yul\":5362:5371   */\n      dup2\n        /* \"#utility.yul\":5356:5360   */\n      dup2\n        /* \"#utility.yul\":5352:5372   */\n      sub\n        /* \"#utility.yul\":5348:5349   */\n      0x00\n        /* \"#utility.yul\":5337:5346   */\n      dup4\n        /* \"#utility.yul\":5333:5350   */\n      add\n        /* \"#utility.yul\":5326:5373   */\n      mstore\n        /* \"#utility.yul\":5390:5521   */\n      tag_197\n        /* \"#utility.yul\":5516:5520   */\n      dup2\n        /* \"#utility.yul\":5390:5521   */\n      tag_123\n      jump\t// in\n    tag_197:\n        /* \"#utility.yul\":5382:5521   */\n      swap1\n      pop\n        /* \"#utility.yul\":5109:5528   */\n      swap2\n      swap1\n      pop\n      jump\t// out\n        /* \"#utility.yul\":5534:5706   */\n    tag_124:\n        /* \"#utility.yul\":5674:5698   */\n      0x457861637420302e312045544820726571756972656400000000000000000000\n        /* \"#utility.yul\":5670:5671   */\n      0x00\n        /* \"#utility.yul\":5662:5668   */\n      dup3\n        /* \"#utility.yul\":5658:5672   */\n      add\n        /* \"#utility.yul\":5651:5699   */\n      mstore\n        /* \"#utility.yul\":5534:5706   */\n      pop\n      jump\t// out\n        /* \"#utility.yul\":5712:6078   */\n    tag_125:\n        /* \"#utility.yul\":5854:5857   */\n      0x00\n        /* \"#utility.yul\":5875:5942   */\n      tag_200\n        /* \"#utility.yul\":5939:5941   */\n      0x16\n        /* \"#utility.yul\":5934:5937   */\n      dup4\n        /* \"#utility.yul\":5875:5942   */\n      tag_105\n      jump\t// in\n    tag_200:\n        /* \"#utility.yul\":5868:5942   */\n      swap2\n      pop\n        /* \"#utility.yul\":5951:6044   */\n      tag_201\n        /* \"#utility.yul\":6040:6043   */\n      dup3\n        /* \"#utility.yul\":5951:6044   */\n      tag_124\n      jump\t// in\n    tag_201:\n        /* \"#utility.yul\":6069:6071   */\n      0x20\n        /* \"#utility.yul\":6064:6067   */\n      dup3\n        /* \"#utility.yul\":6060:6072   */\n      add\n        /* \"#utility.yul\":6053:6072   */\n      swap1\n      pop\n        /* \"#utility.yul\":5712:6078   */\n      swap2\n      swap1\n      pop\n      jump\t// out\n        /* \"#utility.yul\":6084:6503   */\n    tag_45:\n        /* \"#utility.yul\":6250:6254   */\n      0x00\n        /* \"#utility.yul\":6288:6290   */\n      0x20\n        /* \"#utility.yul\":6277:6286   */\n      dup3\n        /* \"#utility.yul\":6273:6291   */\n      add\n        /* \"#utility.yul\":6265:6291   */\n      swap1\n      pop\n        /* \"#utility.yul\":6337:6346   */\n      dup2\n        /* \"#utility.yul\":6331:6335   */\n      dup2\n        /* \"#utility.yul\":6327:6347   */\n      sub\n        /* \"#utility.yul\":6323:6324   */\n      0x00\n        /* \"#utility.yul\":6312:6321   */\n      dup4\n        /* \"#utility.yul\":6308:6325   */\n      add\n        /* \"#utility.yul\":6301:6348   */\n      mstore\n        /* \"#utility.yul\":6365:6496   */\n      tag_203\n        /* \"#utility.yul\":6491:6495   */\n      dup2\n        /* \"#utility.yul\":6365:6496   */\n      tag_125\n      jump\t// in\n    tag_203:\n        /* \"#utility.yul\":6357:6496   */\n      swap1\n      pop\n        /* \"#utility.yul\":6084:6503   */\n      swap2\n      swap1\n      pop\n      jump\t// out\n        /* \"#utility.yul\":6509:6669   */\n    tag_126:\n        /* \"#utility.yul\":6649:6661   */\n      0x4f6e6c79206f776e657200000000000000000000000000000000000000000000\n        /* \"#utility.yul\":6645:6646   */\n      0x00\n        /* \"#utility.yul\":6637:6643   */\n      dup3\n        /* \"#utility.yul\":6633:6647   */\n      add\n        /* \"#utility.yul\":6626:6662   */\n      mstore\n        /* \"#utility.yul\":6509:6669   */\n      pop\n      jump\t// out\n        /* \"#utility.yul\":6675:7041   */\n    tag_127:\n        /* \"#utility.yul\":6817:6820   */\n      0x00\n        /* \"#utility.yul\":6838:6905   */\n      tag_206\n        /* \"#utility.yul\":6902:6904   */\n      0x0a\n        /* \"#utility.yul\":6897:6900   */\n      dup4\n        /* \"#utility.yul\":6838:6905   */\n      tag_105\n      jump\t// in\n    tag_206:\n        /* \"#utility.yul\":6831:6905   */\n      swap2\n      pop\n        /* \"#utility.yul\":6914:7007   */\n      tag_207\n        /* \"#utility.yul\":7003:7006   */\n      dup3\n        /* \"#utility.yul\":6914:7007   */\n      tag_126\n      jump\t// in\n    tag_207:\n        /* \"#utility.yul\":7032:7034   */\n      0x20\n        /* \"#utility.yul\":7027:7030   */\n      dup3\n        /* \"#utility.yul\":7023:7035   */\n      add\n        /* \"#utility.yul\":7016:7035   */\n      swap1\n      pop\n        /* \"#utility.yul\":6675:7041   */\n      swap2\n      swap1\n      pop\n      jump\t// out\n        /* \"#utility.yul\":7047:7466   */\n    tag_55:\n        /* \"#utility.yul\":7213:7217   */\n      0x00\n        /* \"#utility.yul\":7251:7253   */\n      0x20\n        /* \"#utility.yul\":7240:7249   */\n      dup3\n        /* \"#utility.yul\":7236:7254   */\n      add\n        /* \"#utility.yul\":7228:7254   */\n      swap1\n      pop\n        /* \"#utility.yul\":7300:7309   */\n      dup2\n        /* \"#utility.yul\":7294:7298   */\n      dup2\n        /* \"#utility.yul\":7290:7310   */\n      sub\n        /* \"#utility.yul\":7286:7287   */\n      0x00\n        /* \"#utility.yul\":7275:7284   */\n      dup4\n        /* \"#utility.yul\":7271:7288   */\n      add\n        /* \"#utility.yul\":7264:7311   */\n      mstore\n        /* \"#utility.yul\":7328:7459   */\n      tag_209\n        /* \"#utility.yul\":7454:7458   */\n      dup2\n        /* \"#utility.yul\":7328:7459   */\n      tag_127\n      jump\t// in\n    tag_209:\n        /* \"#utility.yul\":7320:7459   */\n      swap1\n      pop\n        /* \"#utility.yul\":7047:7466   */\n      swap2\n      swap1\n      pop\n      jump\t// out\n        /* \"#utility.yul\":7472:7642   */\n    tag_128:\n        /* \"#utility.yul\":7612:7634   */\n      0x5661756c7420646f6573206e6f74206578697374000000000000000000000000\n        /* \"#utility.yul\":7608:7609   */\n      0x00\n        /* \"#utility.yul\":7600:7606   */\n      dup3\n        /* \"#utility.yul\":7596:7610   */\n      add\n        /* \"#utility.yul\":7589:7635   */\n      mstore\n        /* \"#utility.yul\":7472:7642   */\n      pop\n      jump\t// out\n        /* \"#utility.yul\":7648:8014   */\n    tag_129:\n        /* \"#utility.yul\":7790:7793   */\n      0x00\n        /* \"#utility.yul\":7811:7878   */\n      tag_212\n        /* \"#utility.yul\":7875:7877   */\n      0x14\n        /* \"#utility.yul\":7870:7873   */\n      dup4\n        /* \"#utility.yul\":7811:7878   */\n      tag_105\n      jump\t// in\n    tag_212:\n        /* \"#utility.yul\":7804:7878   */\n      swap2\n      pop\n        /* \"#utility.yul\":7887:7980   */\n      tag_213\n        /* \"#utility.yul\":7976:7979   */\n      dup3\n        /* \"#utility.yul\":7887:7980   */\n      tag_128\n      jump\t// in\n    tag_213:\n        /* \"#utility.yul\":8005:8007   */\n      0x20\n        /* \"#utility.yul\":8000:8003   */\n      dup3\n        /* \"#utility.yul\":7996:8008   */\n      add\n        /* \"#utility.yul\":7989:8008   */\n      swap1\n      pop\n        /* \"#utility.yul\":7648:8014   */\n      swap2\n      swap1\n      pop\n      jump\t// out\n        /* \"#utility.yul\":8020:8439   */\n    tag_60:\n        /* \"#utility.yul\":8186:8190   */\n      0x00\n        /* \"#utility.yul\":8224:8226   */\n      0x20\n        /* \"#utility.yul\":8213:8222   */\n      dup3\n        /* \"#utility.yul\":8209:8227   */\n      add\n        /* \"#utility.yul\":8201:8227   */\n      swap1\n      pop\n        /* \"#utility.yul\":8273:8282   */\n      dup2\n        /* \"#utility.yul\":8267:8271   */\n      dup2\n        /* \"#utility.yul\":8263:8283   */\n      sub\n        /* \"#utility.yul\":8259:8260   */\n      0x00\n        /* \"#utility.yul\":8248:8257   */\n      dup4\n        /* \"#utility.yul\":8244:8261   */\n      add\n        /* \"#utility.yul\":8237:8284   */\n      mstore\n        /* \"#utility.yul\":8301:8432   */\n      tag_215\n        /* \"#utility.yul\":8427:8431   */\n      dup2\n        /* \"#utility.yul\":8301:8432   */\n      tag_129\n      jump\t// in\n    tag_215:\n        /* \"#utility.yul\":8293:8432   */\n      swap1\n      pop\n        /* \"#utility.yul\":8020:8439   */\n      swap2\n      swap1\n      pop\n      jump\t// out\n        /* \"#utility.yul\":8445:8611   */\n    tag_130:\n        /* \"#utility.yul\":8585:8603   */\n      0x496e73756666696369656e742045544800000000000000000000000000000000\n        /* \"#utility.yul\":8581:8582   */\n      0x00\n        /* \"#utility.yul\":8573:8579   */\n      dup3\n        /* \"#utility.yul\":8569:8583   */\n      add\n        /* \"#utility.yul\":8562:8604   */\n      mstore\n        /* \"#utility.yul\":8445:8611   */\n      pop\n      jump\t// out\n        /* \"#utility.yul\":8617:8983   */\n    tag_131:\n        /* \"#utility.yul\":8759:8762   */\n      0x00\n        /* \"#utility.yul\":8780:8847   */\n      tag_218\n        /* \"#utility.yul\":8844:8846   */\n      0x10\n        /* \"#utility.yul\":8839:8842   */\n      dup4\n        /* \"#utility.yul\":8780:8847   */\n      tag_105\n      jump\t// in\n    tag_218:\n        /* \"#utility.yul\":8773:8847   */\n      swap2\n      pop\n        /* \"#utility.yul\":8856:8949   */\n      tag_219\n        /* \"#utility.yul\":8945:8948   */\n      dup3\n        /* \"#utility.yul\":8856:8949   */\n      tag_130\n      jump\t// in\n    tag_219:\n        /* \"#utility.yul\":8974:8976   */\n      0x20\n        /* \"#utility.yul\":8969:8972   */\n      dup3\n        /* \"#utility.yul\":8965:8977   */\n      add\n        /* \"#utility.yul\":8958:8977   */\n      swap1\n      pop\n        /* \"#utility.yul\":8617:8983   */\n      swap2\n      swap1\n      pop\n      jump\t// out\n        /* \"#utility.yul\":8989:9408   */\n    tag_63:\n        /* \"#utility.yul\":9155:9159   */\n      0x00\n        /* \"#utility.yul\":9193:9195   */\n      0x20\n        /* \"#utility.yul\":9182:9191   */\n      dup3\n        /* \"#utility.yul\":9178:9196   */\n      add\n        /* \"#utility.yul\":9170:9196   */\n      swap1\n      pop\n        /* \"#utility.yul\":9242:9251   */\n      dup2\n        /* \"#utility.yul\":9236:9240   */\n      dup2\n        /* \"#utility.yul\":9232:9252   */\n      sub\n        /* \"#utility.yul\":9228:9229   */\n      0x00\n        /* \"#utility.yul\":9217:9226   */\n      dup4\n        /* \"#utility.yul\":9213:9230   */\n      add\n        /* \"#utility.yul\":9206:9253   */\n      mstore\n        /* \"#utility.yul\":9270:9401   */\n      tag_221\n        /* \"#utility.yul\":9396:9400   */\n      dup2\n        /* \"#utility.yul\":9270:9401   */\n      tag_131\n      jump\t// in\n    tag_221:\n        /* \"#utility.yul\":9262:9401   */\n      swap1\n      pop\n        /* \"#utility.yul\":8989:9408   */\n      swap2\n      swap1\n      pop\n      jump\t// out\n        /* \"#utility.yul\":9414:9594   */\n    tag_132:\n        /* \"#utility.yul\":9462:9539   */\n      0x4e487b7100000000000000000000000000000000000000000000000000000000\n        /* \"#utility.yul\":9459:9460   */\n      0x00\n        /* \"#utility.yul\":9452:9540   */\n      mstore\n        /* \"#utility.yul\":9559:9563   */\n      0x11\n        /* \"#utility.yul\":9556:9557   */\n      0x04\n        /* \"#utility.yul\":9549:9564   */\n      mstore\n        /* \"#utility.yul\":9583:9587   */\n      0x24\n        /* \"#utility.yul\":9580:9581   */\n      0x00\n        /* \"#utility.yul\":9573:9588   */\n      revert\n        /* \"#utility.yul\":9600:9794   */\n    tag_65:\n        /* \"#utility.yul\":9640:9644   */\n      0x00\n        /* \"#utility.yul\":9660:9680   */\n      tag_224\n        /* \"#utility.yul\":9678:9679   */\n      dup3\n        /* \"#utility.yul\":9660:9680   */\n      tag_111\n      jump\t// in\n    tag_224:\n        /* \"#utility.yul\":9655:9680   */\n      swap2\n      pop\n        /* \"#utility.yul\":9694:9714   */\n      tag_225\n        /* \"#utility.yul\":9712:9713   */\n      dup4\n        /* \"#utility.yul\":9694:9714   */\n      tag_111\n      jump\t// in\n    tag_225:\n        /* \"#utility.yul\":9689:9714   */\n      swap3\n      pop\n        /* \"#utility.yul\":9738:9739   */\n      dup3\n        /* \"#utility.yul\":9735:9736   */\n      dup3\n        /* \"#utility.yul\":9731:9740   */\n      sub\n        /* \"#utility.yul\":9723:9740   */\n      swap1\n      pop\n        /* \"#utility.yul\":9762:9763   */\n      dup2\n        /* \"#utility.yul\":9756:9760   */\n      dup2\n        /* \"#utility.yul\":9753:9764   */\n      gt\n        /* \"#utility.yul\":9750:9787   */\n      iszero\n      tag_226\n      jumpi\n        /* \"#utility.yul\":9767:9785   */\n      tag_227\n      tag_132\n      jump\t// in\n    tag_227:\n        /* \"#utility.yul\":9750:9787   */\n    tag_226:\n        /* \"#utility.yul\":9600:9794   */\n      swap3\n      swap2\n      pop\n      pop\n      jump\t// out\n        /* \"#utility.yul\":9800:9947   */\n    tag_133:\n        /* \"#utility.yul\":9901:9912   */\n      0x00\n        /* \"#utility.yul\":9938:9941   */\n      dup2\n        /* \"#utility.yul\":9923:9941   */\n      swap1\n      pop\n        /* \"#utility.yul\":9800:9947   */\n      swap3\n      swap2\n      pop\n      pop\n      jump\t// out\n        /* \"#utility.yul\":9953:10067   */\n    tag_134:\n      pop\n      jump\t// out\n        /* \"#utility.yul\":10073:10471   */\n    tag_135:\n        /* \"#utility.yul\":10232:10235   */\n      0x00\n        /* \"#utility.yul\":10253:10336   */\n      tag_231\n        /* \"#utility.yul\":10334:10335   */\n      0x00\n        /* \"#utility.yul\":10329:10332   */\n      dup4\n        /* \"#utility.yul\":10253:10336   */\n      tag_133\n      jump\t// in\n    tag_231:\n        /* \"#utility.yul\":10246:10336   */\n      swap2\n      pop\n        /* \"#utility.yul\":10345:10438   */\n      tag_232\n        /* \"#utility.yul\":10434:10437   */\n      dup3\n        /* \"#utility.yul\":10345:10438   */\n      tag_134\n      jump\t// in\n    tag_232:\n        /* \"#utility.yul\":10463:10464   */\n      0x00\n        /* \"#utility.yul\":10458:10461   */\n      dup3\n        /* \"#utility.yul\":10454:10465   */\n      add\n        /* \"#utility.yul\":10447:10465   */\n      swap1\n      pop\n        /* \"#utility.yul\":10073:10471   */\n      swap2\n      swap1\n      pop\n      jump\t// out\n        /* \"#utility.yul\":10477:10856   */\n    tag_67:\n        /* \"#utility.yul\":10661:10664   */\n      0x00\n        /* \"#utility.yul\":10683:10830   */\n      tag_234\n        /* \"#utility.yul\":10826:10829   */\n      dup3\n        /* \"#utility.yul\":10683:10830   */\n      tag_135\n      jump\t// in\n    tag_234:\n        /* \"#utility.yul\":10676:10830   */\n      swap2\n      pop\n        /* \"#utility.yul\":10847:10850   */\n      dup2\n        /* \"#utility.yul\":10840:10850   */\n      swap1\n      pop\n        /* \"#utility.yul\":10477:10856   */\n      swap2\n      swap1\n      pop\n      jump\t// out\n        /* \"#utility.yul\":10862:11031   */\n    tag_136:\n        /* \"#utility.yul\":11002:11023   */\n      0x455448207472616e73666572206661696c656400000000000000000000000000\n        /* \"#utility.yul\":10998:10999   */\n      0x00\n        /* \"#utility.yul\":10990:10996   */\n      dup3\n        /* \"#utility.yul\":10986:11000   */\n      add\n        /* \"#utility.yul\":10979:11024   */\n      mstore\n        /* \"#utility.yul\":10862:11031   */\n      pop\n      jump\t// out\n        /* \"#utility.yul\":11037:11403   */\n    tag_137:\n        /* \"#utility.yul\":11179:11182   */\n      0x00\n        /* \"#utility.yul\":11200:11267   */\n      tag_237\n        /* \"#utility.yul\":11264:11266   */\n      0x13\n        /* \"#utility.yul\":11259:11262   */\n      dup4\n        /* \"#utility.yul\":11200:11267   */\n      tag_105\n      jump\t// in\n    tag_237:\n        /* \"#utility.yul\":11193:11267   */\n      swap2\n      pop\n        /* \"#utility.yul\":11276:11369   */\n      tag_238\n        /* \"#utility.yul\":11365:11368   */\n      dup3\n        /* \"#utility.yul\":11276:11369   */\n      tag_136\n      jump\t// in\n    tag_238:\n        /* \"#utility.yul\":11394:11396   */\n      0x20\n        /* \"#utility.yul\":11389:11392   */\n      dup3\n        /* \"#utility.yul\":11385:11397   */\n      add\n        /* \"#utility.yul\":11378:11397   */\n      swap1\n      pop\n        /* \"#utility.yul\":11037:11403   */\n      swap2\n      swap1\n      pop\n      jump\t// out\n        /* \"#utility.yul\":11409:11828   */\n    tag_73:\n        /* \"#utility.yul\":11575:11579   */\n      0x00\n        /* \"#utility.yul\":11613:11615   */\n      0x20\n        /* \"#utility.yul\":11602:11611   */\n      dup3\n        /* \"#utility.yul\":11598:11616   */\n      add\n        /* \"#utility.yul\":11590:11616   */\n      swap1\n      pop\n        /* \"#utility.yul\":11662:11671   */\n      dup2\n        /* \"#utility.yul\":11656:11660   */\n      dup2\n        /* \"#utility.yul\":11652:11672   */\n      sub\n        /* \"#utility.yul\":11648:11649   */\n      0x00\n        /* \"#utility.yul\":11637:11646   */\n      dup4\n        /* \"#utility.yul\":11633:11650   */\n      add\n        /* \"#utility.yul\":11626:11673   */\n      mstore\n        /* \"#utility.yul\":11690:11821   */\n      tag_240\n        /* \"#utility.yul\":11816:11820   */\n      dup2\n        /* \"#utility.yul\":11690:11821   */\n      tag_137\n      jump\t// in\n    tag_240:\n        /* \"#utility.yul\":11682:11821   */\n      swap1\n      pop\n        /* \"#utility.yul\":11409:11828   */\n      swap2\n      swap1\n      pop\n      jump\t// out\n        /* \"#utility.yul\":11834:12002   */\n    tag_138:\n        /* \"#utility.yul\":11974:11994   */\n      0x437265617465207661756c742066697273740000000000000000000000000000\n        /* \"#utility.yul\":11970:11971   */\n      0x00\n        /* \"#utility.yul\":11962:11968   */\n      dup3\n        /* \"#utility.yul\":11958:11972   */\n      add\n        /* \"#utility.yul\":11951:11995   */\n      mstore\n        /* \"#utility.yul\":11834:12002   */\n      pop\n      jump\t// out\n        /* \"#utility.yul\":12008:12374   */\n    tag_139:\n        /* \"#utility.yul\":12150:12153   */\n      0x00\n        /* \"#utility.yul\":12171:12238   */\n      tag_243\n        /* \"#utility.yul\":12235:12237   */\n      0x12\n        /* \"#utility.yul\":12230:12233   */\n      dup4\n        /* \"#utility.yul\":12171:12238   */\n      tag_105\n      jump\t// in\n    tag_243:\n        /* \"#utility.yul\":12164:12238   */\n      swap2\n      pop\n        /* \"#utility.yul\":12247:12340   */\n      tag_244\n        /* \"#utility.yul\":12336:12339   */\n      dup3\n        /* \"#utility.yul\":12247:12340   */\n      tag_138\n      jump\t// in\n    tag_244:\n        /* \"#utility.yul\":12365:12367   */\n      0x20\n        /* \"#utility.yul\":12360:12363   */\n      dup3\n        /* \"#utility.yul\":12356:12368   */\n      add\n        /* \"#utility.yul\":12349:12368   */\n      swap1\n      pop\n        /* \"#utility.yul\":12008:12374   */\n      swap2\n      swap1\n      pop\n      jump\t// out\n        /* \"#utility.yul\":12380:12799   */\n    tag_78:\n        /* \"#utility.yul\":12546:12550   */\n      0x00\n        /* \"#utility.yul\":12584:12586   */\n      0x20\n        /* \"#utility.yul\":12573:12582   */\n      dup3\n        /* \"#utility.yul\":12569:12587   */\n      add\n        /* \"#utility.yul\":12561:12587   */\n      swap1\n      pop\n        /* \"#utility.yul\":12633:12642   */\n      dup2\n        /* \"#utility.yul\":12627:12631   */\n      dup2\n        /* \"#utility.yul\":12623:12643   */\n      sub\n        /* \"#utility.yul\":12619:12620   */\n      0x00\n        /* \"#utility.yul\":12608:12617   */\n      dup4\n        /* \"#utility.yul\":12604:12621   */\n      add\n        /* \"#utility.yul\":12597:12644   */\n      mstore\n        /* \"#utility.yul\":12661:12792   */\n      tag_246\n        /* \"#utility.yul\":12787:12791   */\n      dup2\n        /* \"#utility.yul\":12661:12792   */\n      tag_139\n      jump\t// in\n    tag_246:\n        /* \"#utility.yul\":12653:12792   */\n      swap1\n      pop\n        /* \"#utility.yul\":12380:12799   */\n      swap2\n      swap1\n      pop\n      jump\t// out\n        /* \"#utility.yul\":12805:12966   */\n    tag_140:\n        /* \"#utility.yul\":12945:12958   */\n      0x4e6f204554482073656e74000000000000000000000000000000000000000000\n        /* \"#utility.yul\":12941:12942   */\n      0x00\n        /* \"#utility.yul\":12933:12939   */\n      dup3\n        /* \"#utility.yul\":12929:12943   */\n      add\n        /* \"#utility.yul\":12922:12959   */\n      mstore\n        /* \"#utility.yul\":12805:12966   */\n      pop\n      jump\t// out\n        /* \"#utility.yul\":12972:13338   */\n    tag_141:\n        /* \"#utility.yul\":13114:13117   */\n      0x00\n        /* \"#utility.yul\":13135:13202   */\n      tag_249\n        /* \"#utility.yul\":13199:13201   */\n      0x0b\n        /* \"#utility.yul\":13194:13197   */\n      dup4\n        /* \"#utility.yul\":13135:13202   */\n      tag_105\n      jump\t// in\n    tag_249:\n        /* \"#utility.yul\":13128:13202   */\n      swap2\n      pop\n        /* \"#utility.yul\":13211:13304   */\n      tag_250\n        /* \"#utility.yul\":13300:13303   */\n      dup3\n        /* \"#utility.yul\":13211:13304   */\n      tag_140\n      jump\t// in\n    tag_250:\n        /* \"#utility.yul\":13329:13331   */\n      0x20\n        /* \"#utility.yul\":13324:13327   */\n      dup3\n        /* \"#utility.yul\":13320:13332   */\n      add\n        /* \"#utility.yul\":13313:13332   */\n      swap1\n      pop\n        /* \"#utility.yul\":12972:13338   */\n      swap2\n      swap1\n      pop\n      jump\t// out\n        /* \"#utility.yul\":13344:13763   */\n    tag_81:\n        /* \"#utility.yul\":13510:13514   */\n      0x00\n        /* \"#utility.yul\":13548:13550   */\n      0x20\n        /* \"#utility.yul\":13537:13546   */\n      dup3\n        /* \"#utility.yul\":13533:13551   */\n      add\n        /* \"#utility.yul\":13525:13551   */\n      swap1\n      pop\n        /* \"#utility.yul\":13597:13606   */\n      dup2\n        /* \"#utility.yul\":13591:13595   */\n      dup2\n        /* \"#utility.yul\":13587:13607   */\n      sub\n        /* \"#utility.yul\":13583:13584   */\n      0x00\n        /* \"#utility.yul\":13572:13581   */\n      dup4\n        /* \"#utility.yul\":13568:13585   */\n      add\n        /* \"#utility.yul\":13561:13608   */\n      mstore\n        /* \"#utility.yul\":13625:13756   */\n      tag_252\n        /* \"#utility.yul\":13751:13755   */\n      dup2\n        /* \"#utility.yul\":13625:13756   */\n      tag_141\n      jump\t// in\n    tag_252:\n        /* \"#utility.yul\":13617:13756   */\n      swap1\n      pop\n        /* \"#utility.yul\":13344:13763   */\n      swap2\n      swap1\n      pop\n      jump\t// out\n        /* \"#utility.yul\":13769:14179   */\n    tag_85:\n        /* \"#utility.yul\":13809:13816   */\n      0x00\n        /* \"#utility.yul\":13832:13852   */\n      tag_254\n        /* \"#utility.yul\":13850:13851   */\n      dup3\n        /* \"#utility.yul\":13832:13852   */\n      tag_111\n      jump\t// in\n    tag_254:\n        /* \"#utility.yul\":13827:13852   */\n      swap2\n      pop\n        /* \"#utility.yul\":13866:13886   */\n      tag_255\n        /* \"#utility.yul\":13884:13885   */\n      dup4\n        /* \"#utility.yul\":13866:13886   */\n      tag_111\n      jump\t// in\n    tag_255:\n        /* \"#utility.yul\":13861:13886   */\n      swap3\n      pop\n        /* \"#utility.yul\":13921:13922   */\n      dup3\n        /* \"#utility.yul\":13918:13919   */\n      dup3\n        /* \"#utility.yul\":13914:13923   */\n      mul\n        /* \"#utility.yul\":13943:13973   */\n      tag_256\n        /* \"#utility.yul\":13961:13972   */\n      dup2\n        /* \"#utility.yul\":13943:13973   */\n      tag_111\n      jump\t// in\n    tag_256:\n        /* \"#utility.yul\":13932:13973   */\n      swap2\n      pop\n        /* \"#utility.yul\":14122:14123   */\n      dup3\n        /* \"#utility.yul\":14113:14120   */\n      dup3\n        /* \"#utility.yul\":14109:14124   */\n      div\n        /* \"#utility.yul\":14106:14107   */\n      dup5\n        /* \"#utility.yul\":14103:14125   */\n      eq\n        /* \"#utility.yul\":14083:14084   */\n      dup4\n        /* \"#utility.yul\":14076:14085   */\n      iszero\n        /* \"#utility.yul\":14056:14139   */\n      or\n        /* \"#utility.yul\":14033:14172   */\n      tag_257\n      jumpi\n        /* \"#utility.yul\":14152:14170   */\n      tag_258\n      tag_132\n      jump\t// in\n    tag_258:\n        /* \"#utility.yul\":14033:14172   */\n    tag_257:\n        /* \"#utility.yul\":13817:14179   */\n      pop\n        /* \"#utility.yul\":13769:14179   */\n      swap3\n      swap2\n      pop\n      pop\n      jump\t// out\n        /* \"#utility.yul\":14185:14365   */\n    tag_142:\n        /* \"#utility.yul\":14233:14310   */\n      0x4e487b7100000000000000000000000000000000000000000000000000000000\n        /* \"#utility.yul\":14230:14231   */\n      0x00\n        /* \"#utility.yul\":14223:14311   */\n      mstore\n        /* \"#utility.yul\":14330:14334   */\n      0x12\n        /* \"#utility.yul\":14327:14328   */\n      0x04\n        /* \"#utility.yul\":14320:14335   */\n      mstore\n        /* \"#utility.yul\":14354:14358   */\n      0x24\n        /* \"#utility.yul\":14351:14352   */\n      0x00\n        /* \"#utility.yul\":14344:14359   */\n      revert\n        /* \"#utility.yul\":14371:14556   */\n    tag_87:\n        /* \"#utility.yul\":14411:14412   */\n      0x00\n        /* \"#utility.yul\":14428:14448   */\n      tag_261\n        /* \"#utility.yul\":14446:14447   */\n      dup3\n        /* \"#utility.yul\":14428:14448   */\n      tag_111\n      jump\t// in\n    tag_261:\n        /* \"#utility.yul\":14423:14448   */\n      swap2\n      pop\n        /* \"#utility.yul\":14462:14482   */\n      tag_262\n        /* \"#utility.yul\":14480:14481   */\n      dup4\n        /* \"#utility.yul\":14462:14482   */\n      tag_111\n      jump\t// in\n    tag_262:\n        /* \"#utility.yul\":14457:14482   */\n      swap3\n      pop\n        /* \"#utility.yul\":14501:14502   */\n      dup3\n        /* \"#utility.yul\":14491:14526   */\n      tag_263\n      jumpi\n        /* \"#utility.yul\":14506:14524   */\n      tag_264\n      tag_142\n      jump\t// in\n    tag_264:\n        /* \"#utility.yul\":14491:14526   */\n    tag_263:\n        /* \"#utility.yul\":14548:14549   */\n      dup3\n        /* \"#utility.yul\":14545:14546   */\n      dup3\n        /* \"#utility.yul\":14541:14550   */\n      div\n        /* \"#utility.yul\":14536:14550   */\n      swap1\n      pop\n        /* \"#utility.yul\":14371:14556   */\n      swap3\n      swap2\n      pop\n      pop\n      jump\t// out\n        /* \"#utility.yul\":14562:14723   */\n    tag_143:\n        /* \"#utility.yul\":14702:14715   */\n      0x4e6574206973207a65726f000000000000000000000000000000000000000000\n        /* \"#utility.yul\":14698:14699   */\n      0x00\n        /* \"#utility.yul\":14690:14696   */\n      dup3\n        /* \"#utility.yul\":14686:14700   */\n      add\n        /* \"#utility.yul\":14679:14716   */\n      mstore\n        /* \"#utility.yul\":14562:14723   */\n      pop\n      jump\t// out\n        /* \"#utility.yul\":14729:15095   */\n    tag_144:\n        /* \"#utility.yul\":14871:14874   */\n      0x00\n        /* \"#utility.yul\":14892:14959   */\n      tag_267\n        /* \"#utility.yul\":14956:14958   */\n      0x0b\n        /* \"#utility.yul\":14951:14954   */\n      dup4\n        /* \"#utility.yul\":14892:14959   */\n      tag_105\n      jump\t// in\n    tag_267:\n        /* \"#utility.yul\":14885:14959   */\n      swap2\n      pop\n        /* \"#utility.yul\":14968:15061   */\n      tag_268\n        /* \"#utility.yul\":15057:15060   */\n      dup3\n        /* \"#utility.yul\":14968:15061   */\n      tag_143\n      jump\t// in\n    tag_268:\n        /* \"#utility.yul\":15086:15088   */\n      0x20\n        /* \"#utility.yul\":15081:15084   */\n      dup3\n        /* \"#utility.yul\":15077:15089   */\n      add\n        /* \"#utility.yul\":15070:15089   */\n      swap1\n      pop\n        /* \"#utility.yul\":14729:15095   */\n      swap2\n      swap1\n      pop\n      jump\t// out\n        /* \"#utility.yul\":15101:15520   */\n    tag_91:\n        /* \"#utility.yul\":15267:15271   */\n      0x00\n        /* \"#utility.yul\":15305:15307   */\n      0x20\n        /* \"#utility.yul\":15294:15303   */\n      dup3\n        /* \"#utility.yul\":15290:15308   */\n      add\n        /* \"#utility.yul\":15282:15308   */\n      swap1\n      pop\n        /* \"#utility.yul\":15354:15363   */\n      dup2\n        /* \"#utility.yul\":15348:15352   */\n      dup2\n        /* \"#utility.yul\":15344:15364   */\n      sub\n        /* \"#utility.yul\":15340:15341   */\n      0x00\n        /* \"#utility.yul\":15329:15338   */\n      dup4\n        /* \"#utility.yul\":15325:15342   */\n      add\n        /* \"#utility.yul\":15318:15365   */\n      mstore\n        /* \"#utility.yul\":15382:15513   */\n      tag_270\n        /* \"#utility.yul\":15508:15512   */\n      dup2\n        /* \"#utility.yul\":15382:15513   */\n      tag_144\n      jump\t// in\n    tag_270:\n        /* \"#utility.yul\":15374:15513   */\n      swap1\n      pop\n        /* \"#utility.yul\":15101:15520   */\n      swap2\n      swap1\n      pop\n      jump\t// out\n        /* \"#utility.yul\":15526:15968   */\n    tag_96:\n        /* \"#utility.yul\":15675:15679   */\n      0x00\n        /* \"#utility.yul\":15713:15715   */\n      0x60\n        /* \"#utility.yul\":15702:15711   */\n      dup3\n        /* \"#utility.yul\":15698:15716   */\n      add\n        /* \"#utility.yul\":15690:15716   */\n      swap1\n      pop\n        /* \"#utility.yul\":15726:15797   */\n      tag_272\n        /* \"#utility.yul\":15794:15795   */\n      0x00\n        /* \"#utility.yul\":15783:15792   */\n      dup4\n        /* \"#utility.yul\":15779:15796   */\n      add\n        /* \"#utility.yul\":15770:15776   */\n      dup7\n        /* \"#utility.yul\":15726:15797   */\n      tag_119\n      jump\t// in\n    tag_272:\n        /* \"#utility.yul\":15807:15879   */\n      tag_273\n        /* \"#utility.yul\":15875:15877   */\n      0x20\n        /* \"#utility.yul\":15864:15873   */\n      dup4\n        /* \"#utility.yul\":15860:15878   */\n      add\n        /* \"#utility.yul\":15851:15857   */\n      dup6\n        /* \"#utility.yul\":15807:15879   */\n      tag_119\n      jump\t// in\n    tag_273:\n        /* \"#utility.yul\":15889:15961   */\n      tag_274\n        /* \"#utility.yul\":15957:15959   */\n      0x40\n        /* \"#utility.yul\":15946:15955   */\n      dup4\n        /* \"#utility.yul\":15942:15960   */\n      add\n        /* \"#utility.yul\":15933:15939   */\n      dup5\n        /* \"#utility.yul\":15889:15961   */\n      tag_119\n      jump\t// in\n    tag_274:\n        /* \"#utility.yul\":15526:15968   */\n      swap5\n      swap4\n      pop\n      pop\n      pop\n      pop\n      jump\t// out\n        /* \"#utility.yul\":15974:16165   */\n    tag_100:\n        /* \"#utility.yul\":16014:16017   */\n      0x00\n        /* \"#utility.yul\":16033:16053   */\n      tag_276\n        /* \"#utility.yul\":16051:16052   */\n      dup3\n        /* \"#utility.yul\":16033:16053   */\n      tag_111\n      jump\t// in\n    tag_276:\n        /* \"#utility.yul\":16028:16053   */\n      swap2\n      pop\n        /* \"#utility.yul\":16067:16087   */\n      tag_277\n        /* \"#utility.yul\":16085:16086   */\n      dup4\n        /* \"#utility.yul\":16067:16087   */\n      tag_111\n      jump\t// in\n    tag_277:\n        /* \"#utility.yul\":16062:16087   */\n      swap3\n      pop\n        /* \"#utility.yul\":16110:16111   */\n      dup3\n        /* \"#utility.yul\":16107:16108   */\n      dup3\n        /* \"#utility.yul\":16103:16112   */\n      add\n        /* \"#utility.yul\":16096:16112   */\n      swap1\n      pop\n        /* \"#utility.yul\":16131:16134   */\n      dup1\n        /* \"#utility.yul\":16128:16129   */\n      dup3\n        /* \"#utility.yul\":16125:16135   */\n      gt\n        /* \"#utility.yul\":16122:16158   */\n      iszero\n      tag_278\n      jumpi\n        /* \"#utility.yul\":16138:16156   */\n      tag_279\n      tag_132\n      jump\t// in\n    tag_279:\n        /* \"#utility.yul\":16122:16158   */\n    tag_278:\n        /* \"#utility.yul\":15974:16165   */\n      swap3\n      swap2\n      pop\n      pop\n      jump\t// out\n\n    auxdata: 0xa264697066735822122080c4550978eda0b0e190dc4bf2f2eb2c10471236af5b4506518919e1c696682864736f6c634300081e0033\n}\n",
				"bytecode": {
					"linkReferences": {},
					"object": "6080604052348015600e575f5ffd5b503360045f6101000a81548173ffffffffffffffffffffffffffffffffffffffff021916908373ffffffffffffffffffffffffffffffffffffffff1602179055506111338061005c5f395ff3fe608060405260043610610058575f3560e01c80635d12928b1461009c5780638da5cb5b146100a65780639f5f0520146100d0578063d3d7c002146100fa578063f14210a614610136578063f6326fb31461015e57610098565b36610098576040517f08c379a000000000000000000000000000000000000000000000000000000000815260040161008f90610a17565b60405180910390fd5b5f5ffd5b6100a4610168565b005b3480156100b1575f5ffd5b506100ba610356565b6040516100c79190610a74565b60405180910390f35b3480156100db575f5ffd5b506100e461037b565b6040516100f19190610abf565b60405180910390f35b348015610105575f5ffd5b50610120600480360381019061011b9190610b06565b6103db565b60405161012d9190610b40565b60405180910390f35b348015610141575f5ffd5b5061015c60048036038101906101579190610b83565b6104b7565b005b6101666106a1565b005b60015f3373ffffffffffffffffffffffffffffffffffffffff1673ffffffffffffffffffffffffffffffffffffffff1681526020019081526020015f205f9054906101000a900460ff16156101f2576040517f08c379a00000000000000000000000000000000000000000000000000000000081526004016101e990610bf8565b60405180910390fd5b67016345785d8a0000341461023c576040517f08c379a000000000000000000000000000000000000000000000000000000000815260040161023390610c60565b60405180910390fd5b6001805f3373ffffffffffffffffffffffffffffffffffffffff1673ffffffffffffffffffffffffffffffffffffffff1681526020019081526020015f205f6101000a81548160ff0219169083151502179055505f5f5f3373ffffffffffffffffffffffffffffffffffffffff1673ffffffffffffffffffffffffffffffffffffffff1681526020019081526020015f209050805f015f9054906101000a900460ff16610353576102f467016345785d8a0000610854565b6001815f015f6101000a81548160ff0219169083151502179055503373ffffffffffffffffffffffffffffffffffffffff167f2e49a5810fda2439a23771848b4acec786b0a64d4de3d124ac57fc8739c3887560405160405180910390a25b50565b60045f9054906101000a900473ffffffffffffffffffffffffffffffffffffffff1681565b6103836109ab565b5f5f5f3373ffffffffffffffffffffffffffffffffffffffff1673ffffffffffffffffffffffffffffffffffffffff1681526020019081526020015f2090506040518060200160405280826001015481525091505090565b5f60045f9054906101000a900473ffffffffffffffffffffffffffffffffffffffff1673ffffffffffffffffffffffffffffffffffffffff163373ffffffffffffffffffffffffffffffffffffffff161461046b576040517f08c379a000000000000000000000000000000000000000000000000000000000815260040161046290610cc8565b60405180910390fd5b5f5f5f8473ffffffffffffffffffffffffffffffffffffffff1673ffffffffffffffffffffffffffffffffffffffff1681526020019081526020015f2090508060010154915050919050565b5f5f5f3373ffffffffffffffffffffffffffffffffffffffff1673ffffffffffffffffffffffffffffffffffffffff1681526020019081526020015f209050805f015f9054906101000a900460ff16610545576040517f08c379a000000000000000000000000000000000000000000000000000000000815260040161053c90610d30565b60405180910390fd5b818160010154101561058c576040517f08c379a000000000000000000000000000000000000000000000000000000000815260040161058390610d98565b60405180910390fd5b81816001015f82825461059f9190610de3565b925050819055505f3373ffffffffffffffffffffffffffffffffffffffff16836040516105cb90610e43565b5f6040518083038185875af1925050503d805f8114610605576040519150601f19603f3d011682016040523d82523d5f602084013e61060a565b606091505b505090508061064e576040517f08c379a000000000000000000000000000000000000000000000000000000000815260040161064590610ea1565b60405180910390fd5b3373ffffffffffffffffffffffffffffffffffffffff167f884edad9ce6fa2440d8a54cc123490eb96d2768479d49ff9c7366125a9424364846040516106949190610b40565b60405180910390a2505050565b60015f3373ffffffffffffffffffffffffffffffffffffffff1673ffffffffffffffffffffffffffffffffffffffff1681526020019081526020015f205f9054906101000a900460ff1661072a576040517f08c379a000000000000000000000000000000000000000000000000000000000815260040161072190610f09565b60405180910390fd5b5f341161076c576040517f08c379a000000000000000000000000000000000000000000000000000000000815260040161076390610f71565b60405180910390fd5b61077533610897565b5f61271061ffff16603261ffff163461078e9190610f8f565b6107989190610ffd565b90505f81346107a79190610de3565b90505f81116107eb576040517f08c379a00000000000000000000000000000000000000000000000000000000081526004016107e290611077565b60405180910390fd5b6107f482610854565b6107fe338261094d565b3373ffffffffffffffffffffffffffffffffffffffff167f36af321ec8d3c75236829c5317affd40ddb308863a1236d2d277a4025cccee1e34848460405161084893929190611095565b60405180910390a25050565b5f810315610894578060026001015f82825461087091906110ca565b92505081905550600160025f015f6101000a81548160ff0219169083151502179055505b50565b5f5f5f8373ffffffffffffffffffffffffffffffffffffffff1673ffffffffffffffffffffffffffffffffffffffff1681526020019081526020015f209050805f015f9054906101000a900460ff16610949576001815f015f6101000a81548160ff0219169083151502179055508173ffffffffffffffffffffffffffffffffffffffff167f2e49a5810fda2439a23771848b4acec786b0a64d4de3d124ac57fc8739c3887560405160405180910390a25b5050565b5f5f5f8473ffffffffffffffffffffffffffffffffffffffff1673ffffffffffffffffffffffffffffffffffffffff1681526020019081526020015f20905081816001015f82825461099f91906110ca565b92505081905550505050565b60405180602001604052805f81525090565b5f82825260208201905092915050565b7f446f6e277420646f2069742100000000000000000000000000000000000000005f82015250565b5f610a01600c836109bd565b9150610a0c826109cd565b602082019050919050565b5f6020820190508181035f830152610a2e816109f5565b9050919050565b5f73ffffffffffffffffffffffffffffffffffffffff82169050919050565b5f610a5e82610a35565b9050919050565b610a6e81610a54565b82525050565b5f602082019050610a875f830184610a65565b92915050565b5f819050919050565b610a9f81610a8d565b82525050565b602082015f820151610ab95f850182610a96565b50505050565b5f602082019050610ad25f830184610aa5565b92915050565b5f5ffd5b610ae581610a54565b8114610aef575f5ffd5b50565b5f81359050610b0081610adc565b92915050565b5f60208284031215610b1b57610b1a610ad8565b5b5f610b2884828501610af2565b91505092915050565b610b3a81610a8d565b82525050565b5f602082019050610b535f830184610b31565b92915050565b610b6281610a8d565b8114610b6c575f5ffd5b50565b5f81359050610b7d81610b59565b92915050565b5f60208284031215610b9857610b97610ad8565b5b5f610ba584828501610b6f565b91505092915050565b7f5661756c7420616c7265616479206372656174656400000000000000000000005f82015250565b5f610be26015836109bd565b9150610bed82610bae565b602082019050919050565b5f6020820190508181035f830152610c0f81610bd6565b9050919050565b7f457861637420302e3120455448207265717569726564000000000000000000005f82015250565b5f610c4a6016836109bd565b9150610c5582610c16565b602082019050919050565b5f6020820190508181035f830152610c7781610c3e565b9050919050565b7f4f6e6c79206f776e6572000000000000000000000000000000000000000000005f82015250565b5f610cb2600a836109bd565b9150610cbd82610c7e565b602082019050919050565b5f6020820190508181035f830152610cdf81610ca6565b9050919050565b7f5661756c7420646f6573206e6f742065786973740000000000000000000000005f82015250565b5f610d1a6014836109bd565b9150610d2582610ce6565b602082019050919050565b5f6020820190508181035f830152610d4781610d0e565b9050919050565b7f496e73756666696369656e7420455448000000000000000000000000000000005f82015250565b5f610d826010836109bd565b9150610d8d82610d4e565b602082019050919050565b5f6020820190508181035f830152610daf81610d76565b9050919050565b7f4e487b71000000000000000000000000000000000000000000000000000000005f52601160045260245ffd5b5f610ded82610a8d565b9150610df883610a8d565b9250828203905081811115610e1057610e0f610db6565b5b92915050565b5f81905092915050565b50565b5f610e2e5f83610e16565b9150610e3982610e20565b5f82019050919050565b5f610e4d82610e23565b9150819050919050565b7f455448207472616e73666572206661696c6564000000000000000000000000005f82015250565b5f610e8b6013836109bd565b9150610e9682610e57565b602082019050919050565b5f6020820190508181035f830152610eb881610e7f565b9050919050565b7f437265617465207661756c7420666972737400000000000000000000000000005f82015250565b5f610ef36012836109bd565b9150610efe82610ebf565b602082019050919050565b5f6020820190508181035f830152610f2081610ee7565b9050919050565b7f4e6f204554482073656e740000000000000000000000000000000000000000005f82015250565b5f610f5b600b836109bd565b9150610f6682610f27565b602082019050919050565b5f6020820190508181035f830152610f8881610f4f565b9050919050565b5f610f9982610a8d565b9150610fa483610a8d565b9250828202610fb281610a8d565b91508282048414831517610fc957610fc8610db6565b5b5092915050565b7f4e487b71000000000000000000000000000000000000000000000000000000005f52601260045260245ffd5b5f61100782610a8d565b915061101283610a8d565b92508261102257611021610fd0565b5b828204905092915050565b7f4e6574206973207a65726f0000000000000000000000000000000000000000005f82015250565b5f611061600b836109bd565b915061106c8261102d565b602082019050919050565b5f6020820190508181035f83015261108e81611055565b9050919050565b5f6060820190506110a85f830186610b31565b6110b56020830185610b31565b6110c26040830184610b31565b949350505050565b5f6110d482610a8d565b91506110df83610a8d565b92508282019050808211156110f7576110f6610db6565b5b9291505056fea264697066735822122080c4550978eda0b0e190dc4bf2f2eb2c10471236af5b4506518919e1c696682864736f6c634300081e0033",
					"opcodes": "PUSH1 0x80 PUSH1 0x40 MSTORE CALLVALUE DUP1 ISZERO PUSH1 0xE JUMPI PUSH0 PUSH0 REVERT JUMPDEST POP CALLER PUSH1 0x4 PUSH0 PUSH2 0x100 EXP DUP2 SLOAD DUP2 PUSH20 0xFFFFFFFFFFFFFFFFFFFFFFFFFFFFFFFFFFFFFFFF MUL NOT AND SWAP1 DUP4 PUSH20 0xFFFFFFFFFFFFFFFFFFFFFFFFFFFFFFFFFFFFFFFF AND MUL OR SWAP1 SSTORE POP PUSH2 0x1133 DUP1 PUSH2 0x5C PUSH0 CODECOPY PUSH0 RETURN INVALID PUSH1 0x80 PUSH1 0x40 MSTORE PUSH1 0x4 CALLDATASIZE LT PUSH2 0x58 JUMPI PUSH0 CALLDATALOAD PUSH1 0xE0 SHR DUP1 PUSH4 0x5D12928B EQ PUSH2 0x9C JUMPI DUP1 PUSH4 0x8DA5CB5B EQ PUSH2 0xA6 JUMPI DUP1 PUSH4 0x9F5F0520 EQ PUSH2 0xD0 JUMPI DUP1 PUSH4 0xD3D7C002 EQ PUSH2 0xFA JUMPI DUP1 PUSH4 0xF14210A6 EQ PUSH2 0x136 JUMPI DUP1 PUSH4 0xF6326FB3 EQ PUSH2 0x15E JUMPI PUSH2 0x98 JUMP JUMPDEST CALLDATASIZE PUSH2 0x98 JUMPI PUSH1 0x40 MLOAD PUSH32 0x8C379A000000000000000000000000000000000000000000000000000000000 DUP2 MSTORE PUSH1 0x4 ADD PUSH2 0x8F SWAP1 PUSH2 0xA17 JUMP JUMPDEST PUSH1 0x40 MLOAD DUP1 SWAP2 SUB SWAP1 REVERT JUMPDEST PUSH0 PUSH0 REVERT JUMPDEST PUSH2 0xA4 PUSH2 0x168 JUMP JUMPDEST STOP JUMPDEST CALLVALUE DUP1 ISZERO PUSH2 0xB1 JUMPI PUSH0 PUSH0 REVERT JUMPDEST POP PUSH2 0xBA PUSH2 0x356 JUMP JUMPDEST PUSH1 0x40 MLOAD PUSH2 0xC7 SWAP2 SWAP1 PUSH2 0xA74 JUMP JUMPDEST PUSH1 0x40 MLOAD DUP1 SWAP2 SUB SWAP1 RETURN JUMPDEST CALLVALUE DUP1 ISZERO PUSH2 0xDB JUMPI PUSH0 PUSH0 REVERT JUMPDEST POP PUSH2 0xE4 PUSH2 0x37B JUMP JUMPDEST PUSH1 0x40 MLOAD PUSH2 0xF1 SWAP2 SWAP1 PUSH2 0xABF JUMP JUMPDEST PUSH1 0x40 MLOAD DUP1 SWAP2 SUB SWAP1 RETURN JUMPDEST CALLVALUE DUP1 ISZERO PUSH2 0x105 JUMPI PUSH0 PUSH0 REVERT JUMPDEST POP PUSH2 0x120 PUSH1 0x4 DUP1 CALLDATASIZE SUB DUP2 ADD SWAP1 PUSH2 0x11B SWAP2 SWAP1 PUSH2 0xB06 JUMP JUMPDEST PUSH2 0x3DB JUMP JUMPDEST PUSH1 0x40 MLOAD PUSH2 0x12D SWAP2 SWAP1 PUSH2 0xB40 JUMP JUMPDEST PUSH1 0x40 MLOAD DUP1 SWAP2 SUB SWAP1 RETURN JUMPDEST CALLVALUE DUP1 ISZERO PUSH2 0x141 JUMPI PUSH0 PUSH0 REVERT JUMPDEST POP PUSH2 0x15C PUSH1 0x4 DUP1 CALLDATASIZE SUB DUP2 ADD SWAP1 PUSH2 0x157 SWAP2 SWAP1 PUSH2 0xB83 JUMP JUMPDEST PUSH2 0x4B7 JUMP JUMPDEST STOP JUMPDEST PUSH2 0x166 PUSH2 0x6A1 JUMP JUMPDEST STOP JUMPDEST PUSH1 0x1 PUSH0 CALLER PUSH20 0xFFFFFFFFFFFFFFFFFFFFFFFFFFFFFFFFFFFFFFFF AND PUSH20 0xFFFFFFFFFFFFFFFFFFFFFFFFFFFFFFFFFFFFFFFF AND DUP2 MSTORE PUSH1 0x20 ADD SWAP1 DUP2 MSTORE PUSH1 0x20 ADD PUSH0 KECCAK256 PUSH0 SWAP1 SLOAD SWAP1 PUSH2 0x100 EXP SWAP1 DIV PUSH1 0xFF AND ISZERO PUSH2 0x1F2 JUMPI PUSH1 0x40 MLOAD PUSH32 0x8C379A000000000000000000000000000000000000000000000000000000000 DUP2 MSTORE PUSH1 0x4 ADD PUSH2 0x1E9 SWAP1 PUSH2 0xBF8 JUMP JUMPDEST PUSH1 0x40 MLOAD DUP1 SWAP2 SUB SWAP1 REVERT JUMPDEST PUSH8 0x16345785D8A0000 CALLVALUE EQ PUSH2 0x23C JUMPI PUSH1 0x40 MLOAD PUSH32 0x8C379A000000000000000000000000000000000000000000000000000000000 DUP2 MSTORE PUSH1 0x4 ADD PUSH2 0x233 SWAP1 PUSH2 0xC60 JUMP JUMPDEST PUSH1 0x40 MLOAD DUP1 SWAP2 SUB SWAP1 REVERT JUMPDEST PUSH1 0x1 DUP1 PUSH0 CALLER PUSH20 0xFFFFFFFFFFFFFFFFFFFFFFFFFFFFFFFFFFFFFFFF AND PUSH20 0xFFFFFFFFFFFFFFFFFFFFFFFFFFFFFFFFFFFFFFFF AND DUP2 MSTORE PUSH1 0x20 ADD SWAP1 DUP2 MSTORE PUSH1 0x20 ADD PUSH0 KECCAK256 PUSH0 PUSH2 0x100 EXP DUP2 SLOAD DUP2 PUSH1 0xFF MUL NOT AND SWAP1 DUP4 ISZERO ISZERO MUL OR SWAP1 SSTORE POP PUSH0 PUSH0 PUSH0 CALLER PUSH20 0xFFFFFFFFFFFFFFFFFFFFFFFFFFFFFFFFFFFFFFFF AND PUSH20 0xFFFFFFFFFFFFFFFFFFFFFFFFFFFFFFFFFFFFFFFF AND DUP2 MSTORE PUSH1 0x20 ADD SWAP1 DUP2 MSTORE PUSH1 0x20 ADD PUSH0 KECCAK256 SWAP1 POP DUP1 PUSH0 ADD PUSH0 SWAP1 SLOAD SWAP1 PUSH2 0x100 EXP SWAP1 DIV PUSH1 0xFF AND PUSH2 0x353 JUMPI PUSH2 0x2F4 PUSH8 0x16345785D8A0000 PUSH2 0x854 JUMP JUMPDEST PUSH1 0x1 DUP2 PUSH0 ADD PUSH0 PUSH2 0x100 EXP DUP2 SLOAD DUP2 PUSH1 0xFF MUL NOT AND SWAP1 DUP4 ISZERO ISZERO MUL OR SWAP1 SSTORE POP CALLER PUSH20 0xFFFFFFFFFFFFFFFFFFFFFFFFFFFFFFFFFFFFFFFF AND PUSH32 0x2E49A5810FDA2439A23771848B4ACEC786B0A64D4DE3D124AC57FC8739C38875 PUSH1 0x40 MLOAD PUSH1 0x40 MLOAD DUP1 SWAP2 SUB SWAP1 LOG2 JUMPDEST POP JUMP JUMPDEST PUSH1 0x4 PUSH0 SWAP1 SLOAD SWAP1 PUSH2 0x100 EXP SWAP1 DIV PUSH20 0xFFFFFFFFFFFFFFFFFFFFFFFFFFFFFFFFFFFFFFFF AND DUP2 JUMP JUMPDEST PUSH2 0x383 PUSH2 0x9AB JUMP JUMPDEST PUSH0 PUSH0 PUSH0 CALLER PUSH20 0xFFFFFFFFFFFFFFFFFFFFFFFFFFFFFFFFFFFFFFFF AND PUSH20 0xFFFFFFFFFFFFFFFFFFFFFFFFFFFFFFFFFFFFFFFF AND DUP2 MSTORE PUSH1 0x20 ADD SWAP1 DUP2 MSTORE PUSH1 0x20 ADD PUSH0 KECCAK256 SWAP1 POP PUSH1 0x40 MLOAD DUP1 PUSH1 0x20 ADD PUSH1 0x40 MSTORE DUP1 DUP3 PUSH1 0x1 ADD SLOAD DUP2 MSTORE POP SWAP2 POP POP SWAP1 JUMP JUMPDEST PUSH0 PUSH1 0x4 PUSH0 SWAP1 SLOAD SWAP1 PUSH2 0x100 EXP SWAP1 DIV PUSH20 0xFFFFFFFFFFFFFFFFFFFFFFFFFFFFFFFFFFFFFFFF AND PUSH20 0xFFFFFFFFFFFFFFFFFFFFFFFFFFFFFFFFFFFFFFFF AND CALLER PUSH20 0xFFFFFFFFFFFFFFFFFFFFFFFFFFFFFFFFFFFFFFFF AND EQ PUSH2 0x46B JUMPI PUSH1 0x40 MLOAD PUSH32 0x8C379A000000000000000000000000000000000000000000000000000000000 DUP2 MSTORE PUSH1 0x4 ADD PUSH2 0x462 SWAP1 PUSH2 0xCC8 JUMP JUMPDEST PUSH1 0x40 MLOAD DUP1 SWAP2 SUB SWAP1 REVERT JUMPDEST PUSH0 PUSH0 PUSH0 DUP5 PUSH20 0xFFFFFFFFFFFFFFFFFFFFFFFFFFFFFFFFFFFFFFFF AND PUSH20 0xFFFFFFFFFFFFFFFFFFFFFFFFFFFFFFFFFFFFFFFF AND DUP2 MSTORE PUSH1 0x20 ADD SWAP1 DUP2 MSTORE PUSH1 0x20 ADD PUSH0 KECCAK256 SWAP1 POP DUP1 PUSH1 0x1 ADD SLOAD SWAP2 POP POP SWAP2 SWAP1 POP JUMP JUMPDEST PUSH0 PUSH0 PUSH0 CALLER PUSH20 0xFFFFFFFFFFFFFFFFFFFFFFFFFFFFFFFFFFFFFFFF AND PUSH20 0xFFFFFFFFFFFFFFFFFFFFFFFFFFFFFFFFFFFFFFFF AND DUP2 MSTORE PUSH1 0x20 ADD SWAP1 DUP2 MSTORE PUSH1 0x20 ADD PUSH0 KECCAK256 SWAP1 POP DUP1 PUSH0 ADD PUSH0 SWAP1 SLOAD SWAP1 PUSH2 0x100 EXP SWAP1 DIV PUSH1 0xFF AND PUSH2 0x545 JUMPI PUSH1 0x40 MLOAD PUSH32 0x8C379A000000000000000000000000000000000000000000000000000000000 DUP2 MSTORE PUSH1 0x4 ADD PUSH2 0x53C SWAP1 PUSH2 0xD30 JUMP JUMPDEST PUSH1 0x40 MLOAD DUP1 SWAP2 SUB SWAP1 REVERT JUMPDEST DUP2 DUP2 PUSH1 0x1 ADD SLOAD LT ISZERO PUSH2 0x58C JUMPI PUSH1 0x40 MLOAD PUSH32 0x8C379A000000000000000000000000000000000000000000000000000000000 DUP2 MSTORE PUSH1 0x4 ADD PUSH2 0x583 SWAP1 PUSH2 0xD98 JUMP JUMPDEST PUSH1 0x40 MLOAD DUP1 SWAP2 SUB SWAP1 REVERT JUMPDEST DUP2 DUP2 PUSH1 0x1 ADD PUSH0 DUP3 DUP3 SLOAD PUSH2 0x59F SWAP2 SWAP1 PUSH2 0xDE3 JUMP JUMPDEST SWAP3 POP POP DUP2 SWAP1 SSTORE POP PUSH0 CALLER PUSH20 0xFFFFFFFFFFFFFFFFFFFFFFFFFFFFFFFFFFFFFFFF AND DUP4 PUSH1 0x40 MLOAD PUSH2 0x5CB SWAP1 PUSH2 0xE43 JUMP JUMPDEST PUSH0 PUSH1 0x40 MLOAD DUP1 DUP4 SUB DUP2 DUP6 DUP8 GAS CALL SWAP3 POP POP POP RETURNDATASIZE DUP1 PUSH0 DUP2 EQ PUSH2 0x605 JUMPI PUSH1 0x40 MLOAD SWAP2 POP PUSH1 0x1F NOT PUSH1 0x3F RETURNDATASIZE ADD AND DUP3 ADD PUSH1 0x40 MSTORE RETURNDATASIZE DUP3 MSTORE RETURNDATASIZE PUSH0 PUSH1 0x20 DUP5 ADD RETURNDATACOPY PUSH2 0x60A JUMP JUMPDEST PUSH1 0x60 SWAP2 POP JUMPDEST POP POP SWAP1 POP DUP1 PUSH2 0x64E JUMPI PUSH1 0x40 MLOAD PUSH32 0x8C379A000000000000000000000000000000000000000000000000000000000 DUP2 MSTORE PUSH1 0x4 ADD PUSH2 0x645 SWAP1 PUSH2 0xEA1 JUMP JUMPDEST PUSH1 0x40 MLOAD DUP1 SWAP2 SUB SWAP1 REVERT JUMPDEST CALLER PUSH20 0xFFFFFFFFFFFFFFFFFFFFFFFFFFFFFFFFFFFFFFFF AND PUSH32 0x884EDAD9CE6FA2440D8A54CC123490EB96D2768479D49FF9C7366125A9424364 DUP5 PUSH1 0x40 MLOAD PUSH2 0x694 SWAP2 SWAP1 PUSH2 0xB40 JUMP JUMPDEST PUSH1 0x40 MLOAD DUP1 SWAP2 SUB SWAP1 LOG2 POP POP POP JUMP JUMPDEST PUSH1 0x1 PUSH0 CALLER PUSH20 0xFFFFFFFFFFFFFFFFFFFFFFFFFFFFFFFFFFFFFFFF AND PUSH20 0xFFFFFFFFFFFFFFFFFFFFFFFFFFFFFFFFFFFFFFFF AND DUP2 MSTORE PUSH1 0x20 ADD SWAP1 DUP2 MSTORE PUSH1 0x20 ADD PUSH0 KECCAK256 PUSH0 SWAP1 SLOAD SWAP1 PUSH2 0x100 EXP SWAP1 DIV PUSH1 0xFF AND PUSH2 0x72A JUMPI PUSH1 0x40 MLOAD PUSH32 0x8C379A000000000000000000000000000000000000000000000000000000000 DUP2 MSTORE PUSH1 0x4 ADD PUSH2 0x721 SWAP1 PUSH2 0xF09 JUMP JUMPDEST PUSH1 0x40 MLOAD DUP1 SWAP2 SUB SWAP1 REVERT JUMPDEST PUSH0 CALLVALUE GT PUSH2 0x76C JUMPI PUSH1 0x40 MLOAD PUSH32 0x8C379A000000000000000000000000000000000000000000000000000000000 DUP2 MSTORE PUSH1 0x4 ADD PUSH2 0x763 SWAP1 PUSH2 0xF71 JUMP JUMPDEST PUSH1 0x40 MLOAD DUP1 SWAP2 SUB SWAP1 REVERT JUMPDEST PUSH2 0x775 CALLER PUSH2 0x897 JUMP JUMPDEST PUSH0 PUSH2 0x2710 PUSH2 0xFFFF AND PUSH1 0x32 PUSH2 0xFFFF AND CALLVALUE PUSH2 0x78E SWAP2 SWAP1 PUSH2 0xF8F JUMP JUMPDEST PUSH2 0x798 SWAP2 SWAP1 PUSH2 0xFFD JUMP JUMPDEST SWAP1 POP PUSH0 DUP2 CALLVALUE PUSH2 0x7A7 SWAP2 SWAP1 PUSH2 0xDE3 JUMP JUMPDEST SWAP1 POP PUSH0 DUP2 GT PUSH2 0x7EB JUMPI PUSH1 0x40 MLOAD PUSH32 0x8C379A000000000000000000000000000000000000000000000000000000000 DUP2 MSTORE PUSH1 0x4 ADD PUSH2 0x7E2 SWAP1 PUSH2 0x1077 JUMP JUMPDEST PUSH1 0x40 MLOAD DUP1 SWAP2 SUB SWAP1 REVERT JUMPDEST PUSH2 0x7F4 DUP3 PUSH2 0x854 JUMP JUMPDEST PUSH2 0x7FE CALLER DUP3 PUSH2 0x94D JUMP JUMPDEST CALLER PUSH20 0xFFFFFFFFFFFFFFFFFFFFFFFFFFFFFFFFFFFFFFFF AND PUSH32 0x36AF321EC8D3C75236829C5317AFFD40DDB308863A1236D2D277A4025CCCEE1E CALLVALUE DUP5 DUP5 PUSH1 0x40 MLOAD PUSH2 0x848 SWAP4 SWAP3 SWAP2 SWAP1 PUSH2 0x1095 JUMP JUMPDEST PUSH1 0x40 MLOAD DUP1 SWAP2 SUB SWAP1 LOG2 POP POP JUMP JUMPDEST PUSH0 DUP2 SUB ISZERO PUSH2 0x894 JUMPI DUP1 PUSH1 0x2 PUSH1 0x1 ADD PUSH0 DUP3 DUP3 SLOAD PUSH2 0x870 SWAP2 SWAP1 PUSH2 0x10CA JUMP JUMPDEST SWAP3 POP POP DUP2 SWAP1 SSTORE POP PUSH1 0x1 PUSH1 0x2 PUSH0 ADD PUSH0 PUSH2 0x100 EXP DUP2 SLOAD DUP2 PUSH1 0xFF MUL NOT AND SWAP1 DUP4 ISZERO ISZERO MUL OR SWAP1 SSTORE POP JUMPDEST POP JUMP JUMPDEST PUSH0 PUSH0 PUSH0 DUP4 PUSH20 0xFFFFFFFFFFFFFFFFFFFFFFFFFFFFFFFFFFFFFFFF AND PUSH20 0xFFFFFFFFFFFFFFFFFFFFFFFFFFFFFFFFFFFFFFFF AND DUP2 MSTORE PUSH1 0x20 ADD SWAP1 DUP2 MSTORE PUSH1 0x20 ADD PUSH0 KECCAK256 SWAP1 POP DUP1 PUSH0 ADD PUSH0 SWAP1 SLOAD SWAP1 PUSH2 0x100 EXP SWAP1 DIV PUSH1 0xFF AND PUSH2 0x949 JUMPI PUSH1 0x1 DUP2 PUSH0 ADD PUSH0 PUSH2 0x100 EXP DUP2 SLOAD DUP2 PUSH1 0xFF MUL NOT AND SWAP1 DUP4 ISZERO ISZERO MUL OR SWAP1 SSTORE POP DUP2 PUSH20 0xFFFFFFFFFFFFFFFFFFFFFFFFFFFFFFFFFFFFFFFF AND PUSH32 0x2E49A5810FDA2439A23771848B4ACEC786B0A64D4DE3D124AC57FC8739C38875 PUSH1 0x40 MLOAD PUSH1 0x40 MLOAD DUP1 SWAP2 SUB SWAP1 LOG2 JUMPDEST POP POP JUMP JUMPDEST PUSH0 PUSH0 PUSH0 DUP5 PUSH20 0xFFFFFFFFFFFFFFFFFFFFFFFFFFFFFFFFFFFFFFFF AND PUSH20 0xFFFFFFFFFFFFFFFFFFFFFFFFFFFFFFFFFFFFFFFF AND DUP2 MSTORE PUSH1 0x20 ADD SWAP1 DUP2 MSTORE PUSH1 0x20 ADD PUSH0 KECCAK256 SWAP1 POP DUP2 DUP2 PUSH1 0x1 ADD PUSH0 DUP3 DUP3 SLOAD PUSH2 0x99F SWAP2 SWAP1 PUSH2 0x10CA JUMP JUMPDEST SWAP3 POP POP DUP2 SWAP1 SSTORE POP POP POP POP JUMP JUMPDEST PUSH1 0x40 MLOAD DUP1 PUSH1 0x20 ADD PUSH1 0x40 MSTORE DUP1 PUSH0 DUP2 MSTORE POP SWAP1 JUMP JUMPDEST PUSH0 DUP3 DUP3 MSTORE PUSH1 0x20 DUP3 ADD SWAP1 POP SWAP3 SWAP2 POP POP JUMP JUMPDEST PUSH32 0x446F6E277420646F206974210000000000000000000000000000000000000000 PUSH0 DUP3 ADD MSTORE POP JUMP JUMPDEST PUSH0 PUSH2 0xA01 PUSH1 0xC DUP4 PUSH2 0x9BD JUMP JUMPDEST SWAP2 POP PUSH2 0xA0C DUP3 PUSH2 0x9CD JUMP JUMPDEST PUSH1 0x20 DUP3 ADD SWAP1 POP SWAP2 SWAP1 POP JUMP JUMPDEST PUSH0 PUSH1 0x20 DUP3 ADD SWAP1 POP DUP2 DUP2 SUB PUSH0 DUP4 ADD MSTORE PUSH2 0xA2E DUP2 PUSH2 0x9F5 JUMP JUMPDEST SWAP1 POP SWAP2 SWAP1 POP JUMP JUMPDEST PUSH0 PUSH20 0xFFFFFFFFFFFFFFFFFFFFFFFFFFFFFFFFFFFFFFFF DUP3 AND SWAP1 POP SWAP2 SWAP1 POP JUMP JUMPDEST PUSH0 PUSH2 0xA5E DUP3 PUSH2 0xA35 JUMP JUMPDEST SWAP1 POP SWAP2 SWAP1 POP JUMP JUMPDEST PUSH2 0xA6E DUP2 PUSH2 0xA54 JUMP JUMPDEST DUP3 MSTORE POP POP JUMP JUMPDEST PUSH0 PUSH1 0x20 DUP3 ADD SWAP1 POP PUSH2 0xA87 PUSH0 DUP4 ADD DUP5 PUSH2 0xA65 JUMP JUMPDEST SWAP3 SWAP2 POP POP JUMP JUMPDEST PUSH0 DUP2 SWAP1 POP SWAP2 SWAP1 POP JUMP JUMPDEST PUSH2 0xA9F DUP2 PUSH2 0xA8D JUMP JUMPDEST DUP3 MSTORE POP POP JUMP JUMPDEST PUSH1 0x20 DUP3 ADD PUSH0 DUP3 ADD MLOAD PUSH2 0xAB9 PUSH0 DUP6 ADD DUP3 PUSH2 0xA96 JUMP JUMPDEST POP POP POP POP JUMP JUMPDEST PUSH0 PUSH1 0x20 DUP3 ADD SWAP1 POP PUSH2 0xAD2 PUSH0 DUP4 ADD DUP5 PUSH2 0xAA5 JUMP JUMPDEST SWAP3 SWAP2 POP POP JUMP JUMPDEST PUSH0 PUSH0 REVERT JUMPDEST PUSH2 0xAE5 DUP2 PUSH2 0xA54 JUMP JUMPDEST DUP2 EQ PUSH2 0xAEF JUMPI PUSH0 PUSH0 REVERT JUMPDEST POP JUMP JUMPDEST PUSH0 DUP2 CALLDATALOAD SWAP1 POP PUSH2 0xB00 DUP2 PUSH2 0xADC JUMP JUMPDEST SWAP3 SWAP2 POP POP JUMP JUMPDEST PUSH0 PUSH1 0x20 DUP3 DUP5 SUB SLT ISZERO PUSH2 0xB1B JUMPI PUSH2 0xB1A PUSH2 0xAD8 JUMP JUMPDEST JUMPDEST PUSH0 PUSH2 0xB28 DUP5 DUP3 DUP6 ADD PUSH2 0xAF2 JUMP JUMPDEST SWAP2 POP POP SWAP3 SWAP2 POP POP JUMP JUMPDEST PUSH2 0xB3A DUP2 PUSH2 0xA8D JUMP JUMPDEST DUP3 MSTORE POP POP JUMP JUMPDEST PUSH0 PUSH1 0x20 DUP3 ADD SWAP1 POP PUSH2 0xB53 PUSH0 DUP4 ADD DUP5 PUSH2 0xB31 JUMP JUMPDEST SWAP3 SWAP2 POP POP JUMP JUMPDEST PUSH2 0xB62 DUP2 PUSH2 0xA8D JUMP JUMPDEST DUP2 EQ PUSH2 0xB6C JUMPI PUSH0 PUSH0 REVERT JUMPDEST POP JUMP JUMPDEST PUSH0 DUP2 CALLDATALOAD SWAP1 POP PUSH2 0xB7D DUP2 PUSH2 0xB59 JUMP JUMPDEST SWAP3 SWAP2 POP POP JUMP JUMPDEST PUSH0 PUSH1 0x20 DUP3 DUP5 SUB SLT ISZERO PUSH2 0xB98 JUMPI PUSH2 0xB97 PUSH2 0xAD8 JUMP JUMPDEST JUMPDEST PUSH0 PUSH2 0xBA5 DUP5 DUP3 DUP6 ADD PUSH2 0xB6F JUMP JUMPDEST SWAP2 POP POP SWAP3 SWAP2 POP POP JUMP JUMPDEST PUSH32 0x5661756C7420616C726561647920637265617465640000000000000000000000 PUSH0 DUP3 ADD MSTORE POP JUMP JUMPDEST PUSH0 PUSH2 0xBE2 PUSH1 0x15 DUP4 PUSH2 0x9BD JUMP JUMPDEST SWAP2 POP PUSH2 0xBED DUP3 PUSH2 0xBAE JUMP JUMPDEST PUSH1 0x20 DUP3 ADD SWAP1 POP SWAP2 SWAP1 POP JUMP JUMPDEST PUSH0 PUSH1 0x20 DUP3 ADD SWAP1 POP DUP2 DUP2 SUB PUSH0 DUP4 ADD MSTORE PUSH2 0xC0F DUP2 PUSH2 0xBD6 JUMP JUMPDEST SWAP1 POP SWAP2 SWAP1 POP JUMP JUMPDEST PUSH32 0x457861637420302E312045544820726571756972656400000000000000000000 PUSH0 DUP3 ADD MSTORE POP JUMP JUMPDEST PUSH0 PUSH2 0xC4A PUSH1 0x16 DUP4 PUSH2 0x9BD JUMP JUMPDEST SWAP2 POP PUSH2 0xC55 DUP3 PUSH2 0xC16 JUMP JUMPDEST PUSH1 0x20 DUP3 ADD SWAP1 POP SWAP2 SWAP1 POP JUMP JUMPDEST PUSH0 PUSH1 0x20 DUP3 ADD SWAP1 POP DUP2 DUP2 SUB PUSH0 DUP4 ADD MSTORE PUSH2 0xC77 DUP2 PUSH2 0xC3E JUMP JUMPDEST SWAP1 POP SWAP2 SWAP1 POP JUMP JUMPDEST PUSH32 0x4F6E6C79206F776E657200000000000000000000000000000000000000000000 PUSH0 DUP3 ADD MSTORE POP JUMP JUMPDEST PUSH0 PUSH2 0xCB2 PUSH1 0xA DUP4 PUSH2 0x9BD JUMP JUMPDEST SWAP2 POP PUSH2 0xCBD DUP3 PUSH2 0xC7E JUMP JUMPDEST PUSH1 0x20 DUP3 ADD SWAP1 POP SWAP2 SWAP1 POP JUMP JUMPDEST PUSH0 PUSH1 0x20 DUP3 ADD SWAP1 POP DUP2 DUP2 SUB PUSH0 DUP4 ADD MSTORE PUSH2 0xCDF DUP2 PUSH2 0xCA6 JUMP JUMPDEST SWAP1 POP SWAP2 SWAP1 POP JUMP JUMPDEST PUSH32 0x5661756C7420646F6573206E6F74206578697374000000000000000000000000 PUSH0 DUP3 ADD MSTORE POP JUMP JUMPDEST PUSH0 PUSH2 0xD1A PUSH1 0x14 DUP4 PUSH2 0x9BD JUMP JUMPDEST SWAP2 POP PUSH2 0xD25 DUP3 PUSH2 0xCE6 JUMP JUMPDEST PUSH1 0x20 DUP3 ADD SWAP1 POP SWAP2 SWAP1 POP JUMP JUMPDEST PUSH0 PUSH1 0x20 DUP3 ADD SWAP1 POP DUP2 DUP2 SUB PUSH0 DUP4 ADD MSTORE PUSH2 0xD47 DUP2 PUSH2 0xD0E JUMP JUMPDEST SWAP1 POP SWAP2 SWAP1 POP JUMP JUMPDEST PUSH32 0x496E73756666696369656E742045544800000000000000000000000000000000 PUSH0 DUP3 ADD MSTORE POP JUMP JUMPDEST PUSH0 PUSH2 0xD82 PUSH1 0x10 DUP4 PUSH2 0x9BD JUMP JUMPDEST SWAP2 POP PUSH2 0xD8D DUP3 PUSH2 0xD4E JUMP JUMPDEST PUSH1 0x20 DUP3 ADD SWAP1 POP SWAP2 SWAP1 POP JUMP JUMPDEST PUSH0 PUSH1 0x20 DUP3 ADD SWAP1 POP DUP2 DUP2 SUB PUSH0 DUP4 ADD MSTORE PUSH2 0xDAF DUP2 PUSH2 0xD76 JUMP JUMPDEST SWAP1 POP SWAP2 SWAP1 POP JUMP JUMPDEST PUSH32 0x4E487B7100000000000000000000000000000000000000000000000000000000 PUSH0 MSTORE PUSH1 0x11 PUSH1 0x4 MSTORE PUSH1 0x24 PUSH0 REVERT JUMPDEST PUSH0 PUSH2 0xDED DUP3 PUSH2 0xA8D JUMP JUMPDEST SWAP2 POP PUSH2 0xDF8 DUP4 PUSH2 0xA8D JUMP JUMPDEST SWAP3 POP DUP3 DUP3 SUB SWAP1 POP DUP2 DUP2 GT ISZERO PUSH2 0xE10 JUMPI PUSH2 0xE0F PUSH2 0xDB6 JUMP JUMPDEST JUMPDEST SWAP3 SWAP2 POP POP JUMP JUMPDEST PUSH0 DUP2 SWAP1 POP SWAP3 SWAP2 POP POP JUMP JUMPDEST POP JUMP JUMPDEST PUSH0 PUSH2 0xE2E PUSH0 DUP4 PUSH2 0xE16 JUMP JUMPDEST SWAP2 POP PUSH2 0xE39 DUP3 PUSH2 0xE20 JUMP JUMPDEST PUSH0 DUP3 ADD SWAP1 POP SWAP2 SWAP1 POP JUMP JUMPDEST PUSH0 PUSH2 0xE4D DUP3 PUSH2 0xE23 JUMP JUMPDEST SWAP2 POP DUP2 SWAP1 POP SWAP2 SWAP1 POP JUMP JUMPDEST PUSH32 0x455448207472616E73666572206661696C656400000000000000000000000000 PUSH0 DUP3 ADD MSTORE POP JUMP JUMPDEST PUSH0 PUSH2 0xE8B PUSH1 0x13 DUP4 PUSH2 0x9BD JUMP JUMPDEST SWAP2 POP PUSH2 0xE96 DUP3 PUSH2 0xE57 JUMP JUMPDEST PUSH1 0x20 DUP3 ADD SWAP1 POP SWAP2 SWAP1 POP JUMP JUMPDEST PUSH0 PUSH1 0x20 DUP3 ADD SWAP1 POP DUP2 DUP2 SUB PUSH0 DUP4 ADD MSTORE PUSH2 0xEB8 DUP2 PUSH2 0xE7F JUMP JUMPDEST SWAP1 POP SWAP2 SWAP1 POP JUMP JUMPDEST PUSH32 0x437265617465207661756C742066697273740000000000000000000000000000 PUSH0 DUP3 ADD MSTORE POP JUMP JUMPDEST PUSH0 PUSH2 0xEF3 PUSH1 0x12 DUP4 PUSH2 0x9BD JUMP JUMPDEST SWAP2 POP PUSH2 0xEFE DUP3 PUSH2 0xEBF JUMP JUMPDEST PUSH1 0x20 DUP3 ADD SWAP1 POP SWAP2 SWAP1 POP JUMP JUMPDEST PUSH0 PUSH1 0x20 DUP3 ADD SWAP1 POP DUP2 DUP2 SUB PUSH0 DUP4 ADD MSTORE PUSH2 0xF20 DUP2 PUSH2 0xEE7 JUMP JUMPDEST SWAP1 POP SWAP2 SWAP1 POP JUMP JUMPDEST PUSH32 0x4E6F204554482073656E74000000000000000000000000000000000000000000 PUSH0 DUP3 ADD MSTORE POP JUMP JUMPDEST PUSH0 PUSH2 0xF5B PUSH1 0xB DUP4 PUSH2 0x9BD JUMP JUMPDEST SWAP2 POP PUSH2 0xF66 DUP3 PUSH2 0xF27 JUMP JUMPDEST PUSH1 0x20 DUP3 ADD SWAP1 POP SWAP2 SWAP1 POP JUMP JUMPDEST PUSH0 PUSH1 0x20 DUP3 ADD SWAP1 POP DUP2 DUP2 SUB PUSH0 DUP4 ADD MSTORE PUSH2 0xF88 DUP2 PUSH2 0xF4F JUMP JUMPDEST SWAP1 POP SWAP2 SWAP1 POP JUMP JUMPDEST PUSH0 PUSH2 0xF99 DUP3 PUSH2 0xA8D JUMP JUMPDEST SWAP2 POP PUSH2 0xFA4 DUP4 PUSH2 0xA8D JUMP JUMPDEST SWAP3 POP DUP3 DUP3 MUL PUSH2 0xFB2 DUP2 PUSH2 0xA8D JUMP JUMPDEST SWAP2 POP DUP3 DUP3 DIV DUP5 EQ DUP4 ISZERO OR PUSH2 0xFC9 JUMPI PUSH2 0xFC8 PUSH2 0xDB6 JUMP JUMPDEST JUMPDEST POP SWAP3 SWAP2 POP POP JUMP JUMPDEST PUSH32 0x4E487B7100000000000000000000000000000000000000000000000000000000 PUSH0 MSTORE PUSH1 0x12 PUSH1 0x4 MSTORE PUSH1 0x24 PUSH0 REVERT JUMPDEST PUSH0 PUSH2 0x1007 DUP3 PUSH2 0xA8D JUMP JUMPDEST SWAP2 POP PUSH2 0x1012 DUP4 PUSH2 0xA8D JUMP JUMPDEST SWAP3 POP DUP3 PUSH2 0x1022 JUMPI PUSH2 0x1021 PUSH2 0xFD0 JUMP JUMPDEST JUMPDEST DUP3 DUP3 DIV SWAP1 POP SWAP3 SWAP2 POP POP JUMP JUMPDEST PUSH32 0x4E6574206973207A65726F000000000000000000000000000000000000000000 PUSH0 DUP3 ADD MSTORE POP JUMP JUMPDEST PUSH0 PUSH2 0x1061 PUSH1 0xB DUP4 PUSH2 0x9BD JUMP JUMPDEST SWAP2 POP PUSH2 0x106C DUP3 PUSH2 0x102D JUMP JUMPDEST PUSH1 0x20 DUP3 ADD SWAP1 POP SWAP2 SWAP1 POP JUMP JUMPDEST PUSH0 PUSH1 0x20 DUP3 ADD SWAP1 POP DUP2 DUP2 SUB PUSH0 DUP4 ADD MSTORE PUSH2 0x108E DUP2 PUSH2 0x1055 JUMP JUMPDEST SWAP1 POP SWAP2 SWAP1 POP JUMP JUMPDEST PUSH0 PUSH1 0x60 DUP3 ADD SWAP1 POP PUSH2 0x10A8 PUSH0 DUP4 ADD DUP7 PUSH2 0xB31 JUMP JUMPDEST PUSH2 0x10B5 PUSH1 0x20 DUP4 ADD DUP6 PUSH2 0xB31 JUMP JUMPDEST PUSH2 0x10C2 PUSH1 0x40 DUP4 ADD DUP5 PUSH2 0xB31 JUMP JUMPDEST SWAP5 SWAP4 POP POP POP POP JUMP JUMPDEST PUSH0 PUSH2 0x10D4 DUP3 PUSH2 0xA8D JUMP JUMPDEST SWAP2 POP PUSH2 0x10DF DUP4 PUSH2 0xA8D JUMP JUMPDEST SWAP3 POP DUP3 DUP3 ADD SWAP1 POP DUP1 DUP3 GT ISZERO PUSH2 0x10F7 JUMPI PUSH2 0x10F6 PUSH2 0xDB6 JUMP JUMPDEST JUMPDEST SWAP3 SWAP2 POP POP JUMP INVALID LOG2 PUSH5 0x6970667358 0x22 SLT KECCAK256 DUP1 0xC4 SSTORE MULMOD PUSH25 0xEDA0B0E190DC4BF2F2EB2C10471236AF5B4506518919E1C696 PUSH9 0x2864736F6C63430008 0x1E STOP CALLER "
				},
				"gasEstimates": {
					"creation": {
						"codeDepositCost": "880600",
						"executionCost": "25179",
						"totalCost": "905779"
					},
					"external": {
						"createVault()": "infinite",
						"depositETH()": "infinite",
						"getVaultBalance(address)": "5059",
						"myVault()": "2718",
						"owner()": "2508",
						"withdrawETH(uint256)": "infinite"
					},
					"internal": {
						"_credit(address,uint256)": "infinite",
						"_creditContractVault(uint256)": "infinite",
						"_ensureVault(address)": "27708"
					}
				},
				"methodIdentifiers": {
					"createVault()": "5d12928b",
					"depositETH()": "f6326fb3",
					"getVaultBalance(address)": "d3d7c002",
					"myVault()": "9f5f0520",
					"owner()": "8da5cb5b",
					"withdrawETH(uint256)": "f14210a6"
				}
			},
			"storageLayout": {
				"storage": [
					{
						"astId": 23,
						"contract": "src/contracts/Ethernium-eth.sol:Ethernium",
						"label": "testators",
						"offset": 0,
						"slot": "0",
						"type": "t_mapping(t_address,t_struct(Vault)15_storage)"
					},
					{
						"astId": 27,
						"contract": "src/contracts/Ethernium-eth.sol:Ethernium",
						"label": "vaultCreatedAndPaid",
						"offset": 0,
						"slot": "1",
						"type": "t_mapping(t_address,t_bool)"
					},
					{
						"astId": 30,
						"contract": "src/contracts/Ethernium-eth.sol:Ethernium",
						"label": "vaultOfContract",
						"offset": 0,
						"slot": "2",
						"type": "t_struct(Vault)15_storage"
					},
					{
						"astId": 32,
						"contract": "src/contracts/Ethernium-eth.sol:Ethernium",
						"label": "owner",
						"offset": 0,
						"slot": "4",
						"type": "t_address"
					}
				],
				"types": {
					"t_address": {
						"encoding": "inplace",
						"label": "address",
						"numberOfBytes": "20"
					},
					"t_bool": {
						"encoding": "inplace",
						"label": "bool",
						"numberOfBytes": "1"
					},
					"t_mapping(t_address,t_bool)": {
						"encoding": "mapping",
						"key": "t_address",
						"label": "mapping(address => bool)",
						"numberOfBytes": "32",
						"value": "t_bool"
					},
					"t_mapping(t_address,t_struct(Vault)15_storage)": {
						"encoding": "mapping",
						"key": "t_address",
						"label": "mapping(address => struct Ethernium.Vault)",
						"numberOfBytes": "32",
						"value": "t_struct(Vault)15_storage"
					},
					"t_struct(Vault)15_storage": {
						"encoding": "inplace",
						"label": "struct Ethernium.Vault",
						"members": [
							{
								"astId": 12,
								"contract": "src/contracts/Ethernium-eth.sol:Ethernium",
								"label": "exist",
								"offset": 0,
								"slot": "0",
								"type": "t_bool"
							},
							{
								"astId": 14,
								"contract": "src/contracts/Ethernium-eth.sol:Ethernium",
								"label": "balance",
								"offset": 0,
								"slot": "1",
								"type": "t_uint256"
							}
						],
						"numberOfBytes": "64"
					},
					"t_uint256": {
						"encoding": "inplace",
						"label": "uint256",
						"numberOfBytes": "32"
					}
				}
			},
			"userdoc": {
				"kind": "user",
				"methods": {},
				"version": 1
			}
		}
	}
}