{
	"src/contracts/EtherniumTcc.sol": {
		"EthereumTcc": {
			"abi": [
				{
					"inputs": [],
					"stateMutability": "nonpayable",
					"type": "constructor"
				},
				{
					"anonymous": false,
					"inputs": [
						{
							"indexed": true,
							"internalType": "address",
							"name": "testator",
							"type": "address"
						},
						{
							"indexed": false,
							"internalType": "uint256",
							"name": "grossAmount",
							"type": "uint256"
						},
						{
							"indexed": false,
							"internalType": "uint256",
							"name": "feeAmount",
							"type": "uint256"
						},
						{
							"indexed": false,
							"internalType": "uint256",
							"name": "netAmount",
							"type": "uint256"
						}
					],
					"name": "Deposit",
					"type": "event"
				},
				{
					"anonymous": false,
					"inputs": [
						{
							"indexed": true,
							"internalType": "address",
							"name": "testator",
							"type": "address"
						}
					],
					"name": "VaultCreated",
					"type": "event"
				},
				{
					"anonymous": false,
					"inputs": [
						{
							"indexed": true,
							"internalType": "address",
							"name": "testator",
							"type": "address"
						},
						{
							"indexed": false,
							"internalType": "address[]",
							"name": "recipients",
							"type": "address[]"
						},
						{
							"indexed": false,
							"internalType": "uint256[]",
							"name": "amounts",
							"type": "uint256[]"
						}
					],
					"name": "VaultDistributed",
					"type": "event"
				},
				{
					"anonymous": false,
					"inputs": [
						{
							"indexed": true,
							"internalType": "address",
							"name": "testator",
							"type": "address"
						},
						{
							"indexed": false,
							"internalType": "uint256",
							"name": "amount",
							"type": "uint256"
						}
					],
					"name": "Withdraw",
					"type": "event"
				},
				{
					"inputs": [],
					"name": "createVault",
					"outputs": [],
					"stateMutability": "payable",
					"type": "function"
				},
				{
					"inputs": [],
					"name": "depositETH",
					"outputs": [],
					"stateMutability": "payable",
					"type": "function"
				},
				{
					"inputs": [
						{
							"internalType": "address",
							"name": "testator",
							"type": "address"
						},
						{
							"internalType": "address[]",
							"name": "recipients",
							"type": "address[]"
						},
						{
							"internalType": "uint256[]",
							"name": "amounts",
							"type": "uint256[]"
						}
					],
					"name": "distributeVault",
					"outputs": [],
					"stateMutability": "nonpayable",
					"type": "function"
				},
				{
					"inputs": [],
					"name": "iHaveVault",
					"outputs": [
						{
							"internalType": "bool",
							"name": "",
							"type": "bool"
						}
					],
					"stateMutability": "view",
					"type": "function"
				},
				{
					"inputs": [],
					"name": "myVault",
					"outputs": [
						{
							"components": [
								{
									"internalType": "uint256",
									"name": "balances",
									"type": "uint256"
								}
							],
							"internalType": "struct EthereumTcc.VaultView",
							"name": "v",
							"type": "tuple"
						}
					],
					"stateMutability": "view",
					"type": "function"
				},
				{
					"inputs": [],
					"name": "showFees",
					"outputs": [
						{
							"internalType": "uint256",
							"name": "",
							"type": "uint256"
						}
					],
					"stateMutability": "view",
					"type": "function"
				},
				{
					"inputs": [
						{
							"internalType": "address",
							"name": "testator",
							"type": "address"
						}
					],
					"name": "vaultBalance",
					"outputs": [
						{
							"internalType": "uint256",
							"name": "",
							"type": "uint256"
						}
					],
					"stateMutability": "view",
					"type": "function"
				},
				{
					"inputs": [
						{
							"internalType": "uint256",
							"name": "amount",
							"type": "uint256"
						}
					],
					"name": "withdrawETH",
					"outputs": [],
					"stateMutability": "nonpayable",
					"type": "function"
				},
				{
					"inputs": [
						{
							"internalType": "address",
							"name": "beneficiary",
							"type": "address"
						}
					],
					"name": "withdrawFees",
					"outputs": [],
					"stateMutability": "nonpayable",
					"type": "function"
				},
				{
					"stateMutability": "payable",
					"type": "receive"
				}
			],
			"devdoc": {
				"kind": "dev",
				"methods": {},
				"version": 1
			},
			"evm": {
				"assembly": "    /* \"src/contracts/EtherniumTcc.sol\":62:6360  contract EthereumTcc {... */\n  mstore(0x40, 0xa0)\n    /* \"src/contracts/EtherniumTcc.sol\":1291:1381  constructor() {... */\n  callvalue\n  dup1\n  iszero\n  tag_1\n  jumpi\n  revert(0x00, 0x00)\ntag_1:\n  pop\n    /* \"src/contracts/EtherniumTcc.sol\":1326:1336  msg.sender */\n  caller\n    /* \"src/contracts/EtherniumTcc.sol\":1315:1336  deployer = msg.sender */\n  0xffffffffffffffffffffffffffffffffffffffff\n  and\n  0x80\n  dup2\n  0xffffffffffffffffffffffffffffffffffffffff\n  and\n  dup2\n  mstore\n  pop\n  pop\n    /* \"src/contracts/EtherniumTcc.sol\":1370:1374  true */\n  0x01\n    /* \"src/contracts/EtherniumTcc.sol\":1346:1361  vaultOfContract */\n  0x02\n    /* \"src/contracts/EtherniumTcc.sol\":1346:1367  vaultOfContract.exist */\n  0x00\n  add\n  0x00\n    /* \"src/contracts/EtherniumTcc.sol\":1346:1374  vaultOfContract.exist = true */\n  0x0100\n  exp\n  dup2\n  sload\n  dup2\n  0xff\n  mul\n  not\n  and\n  swap1\n  dup4\n  iszero\n  iszero\n  mul\n  or\n  swap1\n  sstore\n  pop\n    /* \"src/contracts/EtherniumTcc.sol\":62:6360  contract EthereumTcc {... */\n  mload(0x80)\n  codecopy(0x00, dataOffset(sub_0), dataSize(sub_0))\n  0x00\n  assignImmutable(\"0x8b953cbb84328003779eb1ef176ef07f7dd0ae3d4a8e408de53d15a36466c86e\")\n  return(0x00, dataSize(sub_0))\nstop\n\nsub_0: assembly {\n        /* \"src/contracts/EtherniumTcc.sol\":62:6360  contract EthereumTcc {... */\n      mstore(0x40, 0x80)\n      jumpi(tag_1, lt(calldatasize, 0x04))\n      shr(0xe0, calldataload(0x00))\n      dup1\n      0xa58b8c3e\n      gt\n      tag_12\n      jumpi\n      dup1\n      0xa58b8c3e\n      eq\n      tag_7\n      jumpi\n      dup1\n      0xbec1391a\n      eq\n      tag_8\n      jumpi\n      dup1\n      0xed0fe416\n      eq\n      tag_9\n      jumpi\n      dup1\n      0xf14210a6\n      eq\n      tag_10\n      jumpi\n      dup1\n      0xf6326fb3\n      eq\n      tag_11\n      jumpi\n      jump(tag_2)\n    tag_12:\n      dup1\n      0x04d8c8e2\n      eq\n      tag_3\n      jumpi\n      dup1\n      0x164e68de\n      eq\n      tag_4\n      jumpi\n      dup1\n      0x5d12928b\n      eq\n      tag_5\n      jumpi\n      dup1\n      0x9f5f0520\n      eq\n      tag_6\n      jumpi\n      jump(tag_2)\n    tag_1:\n      jumpi(tag_2, calldatasize)\n        /* \"src/contracts/EtherniumTcc.sol\":1503:1525  revert(\"Don't do it!\") */\n      mload(0x40)\n      0x08c379a000000000000000000000000000000000000000000000000000000000\n      dup2\n      mstore\n      0x04\n      add\n      tag_15\n      swap1\n      tag_16\n      jump\t// in\n    tag_15:\n      mload(0x40)\n      dup1\n      swap2\n      sub\n      swap1\n      revert\n        /* \"src/contracts/EtherniumTcc.sol\":62:6360  contract EthereumTcc {... */\n    tag_2:\n      revert(0x00, 0x00)\n        /* \"src/contracts/EtherniumTcc.sol\":5497:5594  function showFees() public view returns (uint256) {... */\n    tag_3:\n      callvalue\n      dup1\n      iszero\n      tag_17\n      jumpi\n      revert(0x00, 0x00)\n    tag_17:\n      pop\n      tag_18\n      tag_19\n      jump\t// in\n    tag_18:\n      mload(0x40)\n      tag_20\n      swap2\n      swap1\n      tag_21\n      jump\t// in\n    tag_20:\n      mload(0x40)\n      dup1\n      swap2\n      sub\n      swap1\n      return\n        /* \"src/contracts/EtherniumTcc.sol\":5165:5491  function withdrawFees(address beneficiary) external {... */\n    tag_4:\n      callvalue\n      dup1\n      iszero\n      tag_22\n      jumpi\n      revert(0x00, 0x00)\n    tag_22:\n      pop\n      tag_23\n      0x04\n      dup1\n      calldatasize\n      sub\n      dup2\n      add\n      swap1\n      tag_24\n      swap2\n      swap1\n      tag_25\n      jump\t// in\n    tag_24:\n      tag_26\n      jump\t// in\n    tag_23:\n      stop\n        /* \"src/contracts/EtherniumTcc.sol\":1600:2111  function createVault() external payable {... */\n    tag_5:\n      tag_27\n      tag_28\n      jump\t// in\n    tag_27:\n      stop\n        /* \"src/contracts/EtherniumTcc.sol\":3535:3719  function myVault() public view returns (VaultView memory v) {... */\n    tag_6:\n      callvalue\n      dup1\n      iszero\n      tag_29\n      jumpi\n      revert(0x00, 0x00)\n    tag_29:\n      pop\n      tag_30\n      tag_31\n      jump\t// in\n    tag_30:\n      mload(0x40)\n      tag_32\n      swap2\n      swap1\n      tag_33\n      jump\t// in\n    tag_32:\n      mload(0x40)\n      dup1\n      swap2\n      sub\n      swap1\n      return\n        /* \"src/contracts/EtherniumTcc.sol\":3851:5159  function distributeVault(... */\n    tag_7:\n      callvalue\n      dup1\n      iszero\n      tag_34\n      jumpi\n      revert(0x00, 0x00)\n    tag_34:\n      pop\n      tag_35\n      0x04\n      dup1\n      calldatasize\n      sub\n      dup2\n      add\n      swap1\n      tag_36\n      swap2\n      swap1\n      tag_37\n      jump\t// in\n    tag_36:\n      tag_38\n      jump\t// in\n    tag_35:\n      stop\n        /* \"src/contracts/EtherniumTcc.sol\":5600:5700  function iHaveVault() public view returns (bool) {... */\n    tag_8:\n      callvalue\n      dup1\n      iszero\n      tag_39\n      jumpi\n      revert(0x00, 0x00)\n    tag_39:\n      pop\n      tag_40\n      tag_41\n      jump\t// in\n    tag_40:\n      mload(0x40)\n      tag_42\n      swap2\n      swap1\n      tag_43\n      jump\t// in\n    tag_42:\n      mload(0x40)\n      dup1\n      swap2\n      sub\n      swap1\n      return\n        /* \"src/contracts/EtherniumTcc.sol\":2778:3054  function vaultBalance(address testator) external view returns (uint256) {... */\n    tag_9:\n      callvalue\n      dup1\n      iszero\n      tag_44\n      jumpi\n      revert(0x00, 0x00)\n    tag_44:\n      pop\n      tag_45\n      0x04\n      dup1\n      calldatasize\n      sub\n      dup2\n      add\n      swap1\n      tag_46\n      swap2\n      swap1\n      tag_25\n      jump\t// in\n    tag_46:\n      tag_47\n      jump\t// in\n    tag_45:\n      mload(0x40)\n      tag_48\n      swap2\n      swap1\n      tag_21\n      jump\t// in\n    tag_48:\n      mload(0x40)\n      dup1\n      swap2\n      sub\n      swap1\n      return\n        /* \"src/contracts/EtherniumTcc.sol\":3142:3529  function withdrawETH(uint256 amount) external {... */\n    tag_10:\n      callvalue\n      dup1\n      iszero\n      tag_49\n      jumpi\n      revert(0x00, 0x00)\n    tag_49:\n      pop\n      tag_50\n      0x04\n      dup1\n      calldatasize\n      sub\n      dup2\n      add\n      swap1\n      tag_51\n      swap2\n      swap1\n      tag_52\n      jump\t// in\n    tag_51:\n      tag_53\n      jump\t// in\n    tag_50:\n      stop\n        /* \"src/contracts/EtherniumTcc.sol\":2286:2772  function depositETH() external payable {... */\n    tag_11:\n      tag_54\n      tag_55\n      jump\t// in\n    tag_54:\n      stop\n        /* \"src/contracts/EtherniumTcc.sol\":5497:5594  function showFees() public view returns (uint256) {... */\n    tag_19:\n        /* \"src/contracts/EtherniumTcc.sol\":5538:5545  uint256 */\n      0x00\n        /* \"src/contracts/EtherniumTcc.sol\":5564:5579  vaultOfContract */\n      0x02\n        /* \"src/contracts/EtherniumTcc.sol\":5564:5587  vaultOfContract.balance */\n      0x01\n      add\n      sload\n        /* \"src/contracts/EtherniumTcc.sol\":5557:5587  return vaultOfContract.balance */\n      swap1\n      pop\n        /* \"src/contracts/EtherniumTcc.sol\":5497:5594  function showFees() public view returns (uint256) {... */\n      swap1\n      jump\t// out\n        /* \"src/contracts/EtherniumTcc.sol\":5165:5491  function withdrawFees(address beneficiary) external {... */\n    tag_26:\n        /* \"src/contracts/EtherniumTcc.sol\":5249:5257  deployer */\n      immutable(\"0x8b953cbb84328003779eb1ef176ef07f7dd0ae3d4a8e408de53d15a36466c86e\")\n        /* \"src/contracts/EtherniumTcc.sol\":5235:5257  msg.sender == deployer */\n      0xffffffffffffffffffffffffffffffffffffffff\n      and\n        /* \"src/contracts/EtherniumTcc.sol\":5235:5245  msg.sender */\n      caller\n        /* \"src/contracts/EtherniumTcc.sol\":5235:5257  msg.sender == deployer */\n      0xffffffffffffffffffffffffffffffffffffffff\n      and\n      eq\n        /* \"src/contracts/EtherniumTcc.sol\":5227:5298  require(msg.sender == deployer, \"Only deployer can call this function\") */\n      tag_58\n      jumpi\n      mload(0x40)\n      0x08c379a000000000000000000000000000000000000000000000000000000000\n      dup2\n      mstore\n      0x04\n      add\n      tag_59\n      swap1\n      tag_60\n      jump\t// in\n    tag_59:\n      mload(0x40)\n      dup1\n      swap2\n      sub\n      swap1\n      revert\n    tag_58:\n        /* \"src/contracts/EtherniumTcc.sol\":5308:5320  uint256 fees */\n      0x00\n        /* \"src/contracts/EtherniumTcc.sol\":5323:5338  vaultOfContract */\n      0x02\n        /* \"src/contracts/EtherniumTcc.sol\":5323:5346  vaultOfContract.balance */\n      0x01\n      add\n      sload\n        /* \"src/contracts/EtherniumTcc.sol\":5308:5346  uint256 fees = vaultOfContract.balance */\n      swap1\n      pop\n        /* \"src/contracts/EtherniumTcc.sol\":5382:5383  0 */\n      0x00\n        /* \"src/contracts/EtherniumTcc.sol\":5356:5371  vaultOfContract */\n      0x02\n        /* \"src/contracts/EtherniumTcc.sol\":5356:5379  vaultOfContract.balance */\n      0x01\n      add\n        /* \"src/contracts/EtherniumTcc.sol\":5356:5383  vaultOfContract.balance = 0 */\n      dup2\n      swap1\n      sstore\n      pop\n        /* \"src/contracts/EtherniumTcc.sol\":5394:5401  bool ok */\n      0x00\n        /* \"src/contracts/EtherniumTcc.sol\":5407:5418  beneficiary */\n      dup3\n        /* \"src/contracts/EtherniumTcc.sol\":5407:5423  beneficiary.call */\n      0xffffffffffffffffffffffffffffffffffffffff\n      and\n        /* \"src/contracts/EtherniumTcc.sol\":5431:5435  fees */\n      dup3\n        /* \"src/contracts/EtherniumTcc.sol\":5407:5440  beneficiary.call{value: fees}(\"\") */\n      mload(0x40)\n      tag_61\n      swap1\n      tag_62\n      jump\t// in\n    tag_61:\n      0x00\n      mload(0x40)\n      dup1\n      dup4\n      sub\n      dup2\n      dup6\n      dup8\n      gas\n      call\n      swap3\n      pop\n      pop\n      pop\n      returndatasize\n      dup1\n      0x00\n      dup2\n      eq\n      tag_65\n      jumpi\n      mload(0x40)\n      swap2\n      pop\n      and(add(returndatasize, 0x3f), not(0x1f))\n      dup3\n      add\n      0x40\n      mstore\n      returndatasize\n      dup3\n      mstore\n      returndatasize\n      0x00\n      0x20\n      dup5\n      add\n      returndatacopy\n      jump(tag_64)\n    tag_65:\n      0x60\n      swap2\n      pop\n    tag_64:\n      pop\n        /* \"src/contracts/EtherniumTcc.sol\":5393:5440  (bool ok, ) = beneficiary.call{value: fees}(\"\") */\n      pop\n      swap1\n      pop\n        /* \"src/contracts/EtherniumTcc.sol\":5458:5460  ok */\n      dup1\n        /* \"src/contracts/EtherniumTcc.sol\":5450:5484  require(ok, \"ETH transfer failed\") */\n      tag_66\n      jumpi\n      mload(0x40)\n      0x08c379a000000000000000000000000000000000000000000000000000000000\n      dup2\n      mstore\n      0x04\n      add\n      tag_67\n      swap1\n      tag_68\n      jump\t// in\n    tag_67:\n      mload(0x40)\n      dup1\n      swap2\n      sub\n      swap1\n      revert\n    tag_66:\n        /* \"src/contracts/EtherniumTcc.sol\":5217:5491  {... */\n      pop\n      pop\n        /* \"src/contracts/EtherniumTcc.sol\":5165:5491  function withdrawFees(address beneficiary) external {... */\n      pop\n      jump\t// out\n        /* \"src/contracts/EtherniumTcc.sol\":1600:2111  function createVault() external payable {... */\n    tag_28:\n        /* \"src/contracts/EtherniumTcc.sol\":1659:1678  vaultCreatedAndPaid */\n      0x01\n        /* \"src/contracts/EtherniumTcc.sol\":1659:1690  vaultCreatedAndPaid[msg.sender] */\n      0x00\n        /* \"src/contracts/EtherniumTcc.sol\":1679:1689  msg.sender */\n      caller\n        /* \"src/contracts/EtherniumTcc.sol\":1659:1690  vaultCreatedAndPaid[msg.sender] */\n      0xffffffffffffffffffffffffffffffffffffffff\n      and\n      0xffffffffffffffffffffffffffffffffffffffff\n      and\n      dup2\n      mstore\n      0x20\n      add\n      swap1\n      dup2\n      mstore\n      0x20\n      add\n      0x00\n      keccak256\n      0x00\n      swap1\n      sload\n      swap1\n      0x0100\n      exp\n      swap1\n      div\n      0xff\n      and\n        /* \"src/contracts/EtherniumTcc.sol\":1658:1690  !vaultCreatedAndPaid[msg.sender] */\n      iszero\n        /* \"src/contracts/EtherniumTcc.sol\":1650:1716  require(!vaultCreatedAndPaid[msg.sender], \"Vault already created\") */\n      tag_70\n      jumpi\n      mload(0x40)\n      0x08c379a000000000000000000000000000000000000000000000000000000000\n      dup2\n      mstore\n      0x04\n      add\n      tag_71\n      swap1\n      tag_72\n      jump\t// in\n    tag_71:\n      mload(0x40)\n      dup1\n      swap2\n      sub\n      swap1\n      revert\n    tag_70:\n        /* \"src/contracts/EtherniumTcc.sol\":129:143  10000000000000 */\n      0x09184e72a000\n        /* \"src/contracts/EtherniumTcc.sol\":1734:1743  msg.value */\n      callvalue\n        /* \"src/contracts/EtherniumTcc.sol\":1734:1759  msg.value == CREATION_FEE */\n      eq\n        /* \"src/contracts/EtherniumTcc.sol\":1726:1786  require(msg.value == CREATION_FEE, \"Exact 0.1 ETH required\") */\n      tag_73\n      jumpi\n      mload(0x40)\n      0x08c379a000000000000000000000000000000000000000000000000000000000\n      dup2\n      mstore\n      0x04\n      add\n      tag_74\n      swap1\n      tag_75\n      jump\t// in\n    tag_74:\n      mload(0x40)\n      dup1\n      swap2\n      sub\n      swap1\n      revert\n    tag_73:\n        /* \"src/contracts/EtherniumTcc.sol\":1830:1834  true */\n      0x01\n        /* \"src/contracts/EtherniumTcc.sol\":1796:1815  vaultCreatedAndPaid */\n      dup1\n        /* \"src/contracts/EtherniumTcc.sol\":1796:1827  vaultCreatedAndPaid[msg.sender] */\n      0x00\n        /* \"src/contracts/EtherniumTcc.sol\":1816:1826  msg.sender */\n      caller\n        /* \"src/contracts/EtherniumTcc.sol\":1796:1827  vaultCreatedAndPaid[msg.sender] */\n      0xffffffffffffffffffffffffffffffffffffffff\n      and\n      0xffffffffffffffffffffffffffffffffffffffff\n      and\n      dup2\n      mstore\n      0x20\n      add\n      swap1\n      dup2\n      mstore\n      0x20\n      add\n      0x00\n      keccak256\n      0x00\n        /* \"src/contracts/EtherniumTcc.sol\":1796:1834  vaultCreatedAndPaid[msg.sender] = true */\n      0x0100\n      exp\n      dup2\n      sload\n      dup2\n      0xff\n      mul\n      not\n      and\n      swap1\n      dup4\n      iszero\n      iszero\n      mul\n      or\n      swap1\n      sstore\n      pop\n        /* \"src/contracts/EtherniumTcc.sol\":1845:1860  Vault storage v */\n      0x00\n        /* \"src/contracts/EtherniumTcc.sol\":1863:1872  testators */\n      0x00\n        /* \"src/contracts/EtherniumTcc.sol\":1863:1884  testators[msg.sender] */\n      0x00\n        /* \"src/contracts/EtherniumTcc.sol\":1873:1883  msg.sender */\n      caller\n        /* \"src/contracts/EtherniumTcc.sol\":1863:1884  testators[msg.sender] */\n      0xffffffffffffffffffffffffffffffffffffffff\n      and\n      0xffffffffffffffffffffffffffffffffffffffff\n      and\n      dup2\n      mstore\n      0x20\n      add\n      swap1\n      dup2\n      mstore\n      0x20\n      add\n      0x00\n      keccak256\n        /* \"src/contracts/EtherniumTcc.sol\":1845:1884  Vault storage v = testators[msg.sender] */\n      swap1\n      pop\n        /* \"src/contracts/EtherniumTcc.sol\":1899:1900  v */\n      dup1\n        /* \"src/contracts/EtherniumTcc.sol\":1899:1906  v.exist */\n      0x00\n      add\n      0x00\n      swap1\n      sload\n      swap1\n      0x0100\n      exp\n      swap1\n      div\n      0xff\n      and\n        /* \"src/contracts/EtherniumTcc.sol\":1894:2038  if (!v.exist) {... */\n      tag_76\n      jumpi\n        /* \"src/contracts/EtherniumTcc.sol\":1922:1956  _creditContractVault(CREATION_FEE) */\n      tag_77\n        /* \"src/contracts/EtherniumTcc.sol\":129:143  10000000000000 */\n      0x09184e72a000\n        /* \"src/contracts/EtherniumTcc.sol\":1922:1942  _creditContractVault */\n      tag_78\n        /* \"src/contracts/EtherniumTcc.sol\":1922:1956  _creditContractVault(CREATION_FEE) */\n      jump\t// in\n    tag_77:\n        /* \"src/contracts/EtherniumTcc.sol\":1980:1984  true */\n      0x01\n        /* \"src/contracts/EtherniumTcc.sol\":1970:1971  v */\n      dup2\n        /* \"src/contracts/EtherniumTcc.sol\":1970:1977  v.exist */\n      0x00\n      add\n      0x00\n        /* \"src/contracts/EtherniumTcc.sol\":1970:1984  v.exist = true */\n      0x0100\n      exp\n      dup2\n      sload\n      dup2\n      0xff\n      mul\n      not\n      and\n      swap1\n      dup4\n      iszero\n      iszero\n      mul\n      or\n      swap1\n      sstore\n      pop\n        /* \"src/contracts/EtherniumTcc.sol\":2016:2026  msg.sender */\n      caller\n        /* \"src/contracts/EtherniumTcc.sol\":2003:2027  VaultCreated(msg.sender) */\n      0xffffffffffffffffffffffffffffffffffffffff\n      and\n      0x2e49a5810fda2439a23771848b4acec786b0a64d4de3d124ac57fc8739c38875\n      mload(0x40)\n      mload(0x40)\n      dup1\n      swap2\n      sub\n      swap1\n      log2\n        /* \"src/contracts/EtherniumTcc.sol\":1894:2038  if (!v.exist) {... */\n    tag_76:\n        /* \"src/contracts/EtherniumTcc.sol\":1640:2111  {... */\n      pop\n        /* \"src/contracts/EtherniumTcc.sol\":1600:2111  function createVault() external payable {... */\n      jump\t// out\n        /* \"src/contracts/EtherniumTcc.sol\":3535:3719  function myVault() public view returns (VaultView memory v) {... */\n    tag_31:\n        /* \"src/contracts/EtherniumTcc.sol\":3575:3593  VaultView memory v */\n      tag_79\n      tag_80\n      jump\t// in\n    tag_79:\n        /* \"src/contracts/EtherniumTcc.sol\":3605:3622  Vault storage src */\n      0x00\n        /* \"src/contracts/EtherniumTcc.sol\":3625:3634  testators */\n      0x00\n        /* \"src/contracts/EtherniumTcc.sol\":3625:3646  testators[msg.sender] */\n      0x00\n        /* \"src/contracts/EtherniumTcc.sol\":3635:3645  msg.sender */\n      caller\n        /* \"src/contracts/EtherniumTcc.sol\":3625:3646  testators[msg.sender] */\n      0xffffffffffffffffffffffffffffffffffffffff\n      and\n      0xffffffffffffffffffffffffffffffffffffffff\n      and\n      dup2\n      mstore\n      0x20\n      add\n      swap1\n      dup2\n      mstore\n      0x20\n      add\n      0x00\n      keccak256\n        /* \"src/contracts/EtherniumTcc.sol\":3605:3646  Vault storage src = testators[msg.sender] */\n      swap1\n      pop\n        /* \"src/contracts/EtherniumTcc.sol\":3660:3694  VaultView({balances: src.balance}) */\n      mload(0x40)\n      dup1\n      0x20\n      add\n      0x40\n      mstore\n      dup1\n        /* \"src/contracts/EtherniumTcc.sol\":3681:3684  src */\n      dup3\n        /* \"src/contracts/EtherniumTcc.sol\":3681:3692  src.balance */\n      0x01\n      add\n      sload\n        /* \"src/contracts/EtherniumTcc.sol\":3660:3694  VaultView({balances: src.balance}) */\n      dup2\n      mstore\n      pop\n        /* \"src/contracts/EtherniumTcc.sol\":3656:3694  v = VaultView({balances: src.balance}) */\n      swap2\n      pop\n        /* \"src/contracts/EtherniumTcc.sol\":3704:3712  return v */\n      pop\n        /* \"src/contracts/EtherniumTcc.sol\":3535:3719  function myVault() public view returns (VaultView memory v) {... */\n      swap1\n      jump\t// out\n        /* \"src/contracts/EtherniumTcc.sol\":3851:5159  function distributeVault(... */\n    tag_38:\n        /* \"src/contracts/EtherniumTcc.sol\":4072:4080  deployer */\n      immutable(\"0x8b953cbb84328003779eb1ef176ef07f7dd0ae3d4a8e408de53d15a36466c86e\")\n        /* \"src/contracts/EtherniumTcc.sol\":4058:4080  msg.sender == deployer */\n      0xffffffffffffffffffffffffffffffffffffffff\n      and\n        /* \"src/contracts/EtherniumTcc.sol\":4058:4068  msg.sender */\n      caller\n        /* \"src/contracts/EtherniumTcc.sol\":4058:4080  msg.sender == deployer */\n      0xffffffffffffffffffffffffffffffffffffffff\n      and\n      eq\n        /* \"src/contracts/EtherniumTcc.sol\":4050:4121  require(msg.sender == deployer, \"Only deployer can call this function\") */\n      tag_83\n      jumpi\n      mload(0x40)\n      0x08c379a000000000000000000000000000000000000000000000000000000000\n      dup2\n      mstore\n      0x04\n      add\n      tag_84\n      swap1\n      tag_60\n      jump\t// in\n    tag_84:\n      mload(0x40)\n      dup1\n      swap2\n      sub\n      swap1\n      revert\n    tag_83:\n        /* \"src/contracts/EtherniumTcc.sol\":4170:4185  Vault storage v */\n      0x00\n        /* \"src/contracts/EtherniumTcc.sol\":4188:4197  testators */\n      0x00\n        /* \"src/contracts/EtherniumTcc.sol\":4188:4207  testators[testator] */\n      0x00\n        /* \"src/contracts/EtherniumTcc.sol\":4198:4206  testator */\n      dup8\n        /* \"src/contracts/EtherniumTcc.sol\":4188:4207  testators[testator] */\n      0xffffffffffffffffffffffffffffffffffffffff\n      and\n      0xffffffffffffffffffffffffffffffffffffffff\n      and\n      dup2\n      mstore\n      0x20\n      add\n      swap1\n      dup2\n      mstore\n      0x20\n      add\n      0x00\n      keccak256\n        /* \"src/contracts/EtherniumTcc.sol\":4170:4207  Vault storage v = testators[testator] */\n      swap1\n      pop\n        /* \"src/contracts/EtherniumTcc.sol\":4225:4226  v */\n      dup1\n        /* \"src/contracts/EtherniumTcc.sol\":4225:4232  v.exist */\n      0x00\n      add\n      0x00\n      swap1\n      sload\n      swap1\n      0x0100\n      exp\n      swap1\n      div\n      0xff\n      and\n        /* \"src/contracts/EtherniumTcc.sol\":4217:4257  require(v.exist, \"Vault does not exist\") */\n      tag_85\n      jumpi\n      mload(0x40)\n      0x08c379a000000000000000000000000000000000000000000000000000000000\n      dup2\n      mstore\n      0x04\n      add\n      tag_86\n      swap1\n      tag_87\n      jump\t// in\n    tag_86:\n      mload(0x40)\n      dup1\n      swap2\n      sub\n      swap1\n      revert\n    tag_85:\n        /* \"src/contracts/EtherniumTcc.sol\":4382:4389  amounts */\n      dup3\n      dup3\n        /* \"src/contracts/EtherniumTcc.sol\":4382:4396  amounts.length */\n      swap1\n      pop\n        /* \"src/contracts/EtherniumTcc.sol\":4361:4371  recipients */\n      dup6\n      dup6\n        /* \"src/contracts/EtherniumTcc.sol\":4361:4378  recipients.length */\n      swap1\n      pop\n        /* \"src/contracts/EtherniumTcc.sol\":4361:4396  recipients.length == amounts.length */\n      eq\n        /* \"src/contracts/EtherniumTcc.sol\":4340:4460  require(... */\n      tag_88\n      jumpi\n      mload(0x40)\n      0x08c379a000000000000000000000000000000000000000000000000000000000\n      dup2\n      mstore\n      0x04\n      add\n      tag_89\n      swap1\n      tag_90\n      jump\t// in\n    tag_89:\n      mload(0x40)\n      dup1\n      swap2\n      sub\n      swap1\n      revert\n    tag_88:\n        /* \"src/contracts/EtherniumTcc.sol\":4517:4536  uint256 totalAmount */\n      0x00\n        /* \"src/contracts/EtherniumTcc.sol\":4539:4540  0 */\n      0x00\n        /* \"src/contracts/EtherniumTcc.sol\":4517:4540  uint256 totalAmount = 0 */\n      swap1\n      pop\n        /* \"src/contracts/EtherniumTcc.sol\":4555:4564  uint256 i */\n      0x00\n        /* \"src/contracts/EtherniumTcc.sol\":4567:4568  0 */\n      0x00\n        /* \"src/contracts/EtherniumTcc.sol\":4555:4568  uint256 i = 0 */\n      swap1\n      pop\n        /* \"src/contracts/EtherniumTcc.sol\":4550:4658  for (uint256 i = 0; i < amounts.length; i++) {... */\n    tag_91:\n        /* \"src/contracts/EtherniumTcc.sol\":4574:4581  amounts */\n      dup5\n      dup5\n        /* \"src/contracts/EtherniumTcc.sol\":4574:4588  amounts.length */\n      swap1\n      pop\n        /* \"src/contracts/EtherniumTcc.sol\":4570:4571  i */\n      dup2\n        /* \"src/contracts/EtherniumTcc.sol\":4570:4588  i < amounts.length */\n      lt\n        /* \"src/contracts/EtherniumTcc.sol\":4550:4658  for (uint256 i = 0; i < amounts.length; i++) {... */\n      iszero\n      tag_92\n      jumpi\n        /* \"src/contracts/EtherniumTcc.sol\":4637:4644  amounts */\n      dup5\n      dup5\n        /* \"src/contracts/EtherniumTcc.sol\":4645:4646  i */\n      dup3\n        /* \"src/contracts/EtherniumTcc.sol\":4637:4647  amounts[i] */\n      dup2\n      dup2\n      lt\n      tag_94\n      jumpi\n      tag_95\n      tag_96\n      jump\t// in\n    tag_95:\n    tag_94:\n      swap1\n      pop\n      0x20\n      mul\n      add\n      calldataload\n        /* \"src/contracts/EtherniumTcc.sol\":4623:4634  totalAmount */\n      dup3\n        /* \"src/contracts/EtherniumTcc.sol\":4623:4647  totalAmount + amounts[i] */\n      tag_97\n      swap2\n      swap1\n      tag_98\n      jump\t// in\n    tag_97:\n        /* \"src/contracts/EtherniumTcc.sol\":4609:4647  totalAmount = totalAmount + amounts[i] */\n      swap2\n      pop\n        /* \"src/contracts/EtherniumTcc.sol\":4590:4593  i++ */\n      dup1\n      dup1\n      0x01\n      add\n      swap2\n      pop\n      pop\n        /* \"src/contracts/EtherniumTcc.sol\":4550:4658  for (uint256 i = 0; i < amounts.length; i++) {... */\n      jump(tag_91)\n    tag_92:\n      pop\n        /* \"src/contracts/EtherniumTcc.sol\":4741:4752  totalAmount */\n      dup1\n        /* \"src/contracts/EtherniumTcc.sol\":4728:4729  v */\n      dup3\n        /* \"src/contracts/EtherniumTcc.sol\":4728:4737  v.balance */\n      0x01\n      add\n      sload\n        /* \"src/contracts/EtherniumTcc.sol\":4728:4752  v.balance == totalAmount */\n      eq\n        /* \"src/contracts/EtherniumTcc.sol\":4720:4782  require(v.balance == totalAmount, \"Insufficient ETH in vault\") */\n      tag_99\n      jumpi\n      mload(0x40)\n      0x08c379a000000000000000000000000000000000000000000000000000000000\n      dup2\n      mstore\n      0x04\n      add\n      tag_100\n      swap1\n      tag_101\n      jump\t// in\n    tag_100:\n      mload(0x40)\n      dup1\n      swap2\n      sub\n      swap1\n      revert\n    tag_99:\n        /* \"src/contracts/EtherniumTcc.sol\":4840:4851  totalAmount */\n      dup1\n        /* \"src/contracts/EtherniumTcc.sol\":4827:4828  v */\n      dup3\n        /* \"src/contracts/EtherniumTcc.sol\":4827:4836  v.balance */\n      0x01\n      add\n      0x00\n        /* \"src/contracts/EtherniumTcc.sol\":4827:4851  v.balance -= totalAmount */\n      dup3\n      dup3\n      sload\n      tag_102\n      swap2\n      swap1\n      tag_103\n      jump\t// in\n    tag_102:\n      swap3\n      pop\n      pop\n      dup2\n      swap1\n      sstore\n      pop\n        /* \"src/contracts/EtherniumTcc.sol\":4922:4928  uint i */\n      0x00\n        /* \"src/contracts/EtherniumTcc.sol\":4931:4932  0 */\n      0x00\n        /* \"src/contracts/EtherniumTcc.sol\":4922:4932  uint i = 0 */\n      swap1\n      pop\n        /* \"src/contracts/EtherniumTcc.sol\":4917:5090  for (uint i = 0; i < recipients.length; i++) {... */\n    tag_104:\n        /* \"src/contracts/EtherniumTcc.sol\":4938:4948  recipients */\n      dup7\n      dup7\n        /* \"src/contracts/EtherniumTcc.sol\":4938:4955  recipients.length */\n      swap1\n      pop\n        /* \"src/contracts/EtherniumTcc.sol\":4934:4935  i */\n      dup2\n        /* \"src/contracts/EtherniumTcc.sol\":4934:4955  i < recipients.length */\n      lt\n        /* \"src/contracts/EtherniumTcc.sol\":4917:5090  for (uint i = 0; i < recipients.length; i++) {... */\n      iszero\n      tag_105\n      jumpi\n        /* \"src/contracts/EtherniumTcc.sol\":4977:4984  bool ok */\n      0x00\n        /* \"src/contracts/EtherniumTcc.sol\":4990:5000  recipients */\n      dup8\n      dup8\n        /* \"src/contracts/EtherniumTcc.sol\":5001:5002  i */\n      dup4\n        /* \"src/contracts/EtherniumTcc.sol\":4990:5003  recipients[i] */\n      dup2\n      dup2\n      lt\n      tag_107\n      jumpi\n      tag_108\n      tag_96\n      jump\t// in\n    tag_108:\n    tag_107:\n      swap1\n      pop\n      0x20\n      mul\n      add\n      0x20\n      dup2\n      add\n      swap1\n      tag_109\n      swap2\n      swap1\n      tag_25\n      jump\t// in\n    tag_109:\n        /* \"src/contracts/EtherniumTcc.sol\":4990:5008  recipients[i].call */\n      0xffffffffffffffffffffffffffffffffffffffff\n      and\n        /* \"src/contracts/EtherniumTcc.sol\":5016:5023  amounts */\n      dup7\n      dup7\n        /* \"src/contracts/EtherniumTcc.sol\":5024:5025  i */\n      dup5\n        /* \"src/contracts/EtherniumTcc.sol\":5016:5026  amounts[i] */\n      dup2\n      dup2\n      lt\n      tag_110\n      jumpi\n      tag_111\n      tag_96\n      jump\t// in\n    tag_111:\n    tag_110:\n      swap1\n      pop\n      0x20\n      mul\n      add\n      calldataload\n        /* \"src/contracts/EtherniumTcc.sol\":4990:5031  recipients[i].call{value: amounts[i]}(\"\") */\n      mload(0x40)\n      tag_112\n      swap1\n      tag_62\n      jump\t// in\n    tag_112:\n      0x00\n      mload(0x40)\n      dup1\n      dup4\n      sub\n      dup2\n      dup6\n      dup8\n      gas\n      call\n      swap3\n      pop\n      pop\n      pop\n      returndatasize\n      dup1\n      0x00\n      dup2\n      eq\n      tag_115\n      jumpi\n      mload(0x40)\n      swap2\n      pop\n      and(add(returndatasize, 0x3f), not(0x1f))\n      dup3\n      add\n      0x40\n      mstore\n      returndatasize\n      dup3\n      mstore\n      returndatasize\n      0x00\n      0x20\n      dup5\n      add\n      returndatacopy\n      jump(tag_114)\n    tag_115:\n      0x60\n      swap2\n      pop\n    tag_114:\n      pop\n        /* \"src/contracts/EtherniumTcc.sol\":4976:5031  (bool ok, ) = recipients[i].call{value: amounts[i]}(\"\") */\n      pop\n      swap1\n      pop\n        /* \"src/contracts/EtherniumTcc.sol\":5053:5055  ok */\n      dup1\n        /* \"src/contracts/EtherniumTcc.sol\":5045:5079  require(ok, \"ETH transfer failed\") */\n      tag_116\n      jumpi\n      mload(0x40)\n      0x08c379a000000000000000000000000000000000000000000000000000000000\n      dup2\n      mstore\n      0x04\n      add\n      tag_117\n      swap1\n      tag_68\n      jump\t// in\n    tag_117:\n      mload(0x40)\n      dup1\n      swap2\n      sub\n      swap1\n      revert\n    tag_116:\n        /* \"src/contracts/EtherniumTcc.sol\":4962:5090  {... */\n      pop\n        /* \"src/contracts/EtherniumTcc.sol\":4957:4960  i++ */\n      dup1\n      dup1\n      0x01\n      add\n      swap2\n      pop\n      pop\n        /* \"src/contracts/EtherniumTcc.sol\":4917:5090  for (uint i = 0; i < recipients.length; i++) {... */\n      jump(tag_104)\n    tag_105:\n      pop\n        /* \"src/contracts/EtherniumTcc.sol\":5122:5130  testator */\n      dup7\n        /* \"src/contracts/EtherniumTcc.sol\":5105:5152  VaultDistributed(testator, recipients, amounts) */\n      0xffffffffffffffffffffffffffffffffffffffff\n      and\n      0xce42f76f0cf784c9e92d84110f5600137af202cb073bf235196d5c7e6ce9c15e\n        /* \"src/contracts/EtherniumTcc.sol\":5132:5142  recipients */\n      dup8\n      dup8\n        /* \"src/contracts/EtherniumTcc.sol\":5144:5151  amounts */\n      dup8\n      dup8\n        /* \"src/contracts/EtherniumTcc.sol\":5105:5152  VaultDistributed(testator, recipients, amounts) */\n      mload(0x40)\n      tag_118\n      swap5\n      swap4\n      swap3\n      swap2\n      swap1\n      tag_119\n      jump\t// in\n    tag_118:\n      mload(0x40)\n      dup1\n      swap2\n      sub\n      swap1\n      log2\n        /* \"src/contracts/EtherniumTcc.sol\":3992:5159  {... */\n      pop\n      pop\n        /* \"src/contracts/EtherniumTcc.sol\":3851:5159  function distributeVault(... */\n      pop\n      pop\n      pop\n      pop\n      pop\n      jump\t// out\n        /* \"src/contracts/EtherniumTcc.sol\":5600:5700  function iHaveVault() public view returns (bool) {... */\n    tag_41:\n        /* \"src/contracts/EtherniumTcc.sol\":5643:5647  bool */\n      0x00\n        /* \"src/contracts/EtherniumTcc.sol\":5666:5675  testators */\n      0x00\n        /* \"src/contracts/EtherniumTcc.sol\":5666:5687  testators[msg.sender] */\n      0x00\n        /* \"src/contracts/EtherniumTcc.sol\":5676:5686  msg.sender */\n      caller\n        /* \"src/contracts/EtherniumTcc.sol\":5666:5687  testators[msg.sender] */\n      0xffffffffffffffffffffffffffffffffffffffff\n      and\n      0xffffffffffffffffffffffffffffffffffffffff\n      and\n      dup2\n      mstore\n      0x20\n      add\n      swap1\n      dup2\n      mstore\n      0x20\n      add\n      0x00\n      keccak256\n        /* \"src/contracts/EtherniumTcc.sol\":5666:5693  testators[msg.sender].exist */\n      0x00\n      add\n      0x00\n      swap1\n      sload\n      swap1\n      0x0100\n      exp\n      swap1\n      div\n      0xff\n      and\n        /* \"src/contracts/EtherniumTcc.sol\":5659:5693  return testators[msg.sender].exist */\n      swap1\n      pop\n        /* \"src/contracts/EtherniumTcc.sol\":5600:5700  function iHaveVault() public view returns (bool) {... */\n      swap1\n      jump\t// out\n        /* \"src/contracts/EtherniumTcc.sol\":2778:3054  function vaultBalance(address testator) external view returns (uint256) {... */\n    tag_47:\n        /* \"src/contracts/EtherniumTcc.sol\":2841:2848  uint256 */\n      0x00\n        /* \"src/contracts/EtherniumTcc.sol\":2882:2890  deployer */\n      immutable(\"0x8b953cbb84328003779eb1ef176ef07f7dd0ae3d4a8e408de53d15a36466c86e\")\n        /* \"src/contracts/EtherniumTcc.sol\":2868:2890  msg.sender == deployer */\n      0xffffffffffffffffffffffffffffffffffffffff\n      and\n        /* \"src/contracts/EtherniumTcc.sol\":2868:2878  msg.sender */\n      caller\n        /* \"src/contracts/EtherniumTcc.sol\":2868:2890  msg.sender == deployer */\n      0xffffffffffffffffffffffffffffffffffffffff\n      and\n      eq\n        /* \"src/contracts/EtherniumTcc.sol\":2860:2931  require(msg.sender == deployer, \"Only deployer can call this function\") */\n      tag_122\n      jumpi\n      mload(0x40)\n      0x08c379a000000000000000000000000000000000000000000000000000000000\n      dup2\n      mstore\n      0x04\n      add\n      tag_123\n      swap1\n      tag_60\n      jump\t// in\n    tag_123:\n      mload(0x40)\n      dup1\n      swap2\n      sub\n      swap1\n      revert\n    tag_122:\n        /* \"src/contracts/EtherniumTcc.sol\":2949:2968  vaultCreatedAndPaid */\n      0x01\n        /* \"src/contracts/EtherniumTcc.sol\":2949:2978  vaultCreatedAndPaid[testator] */\n      0x00\n        /* \"src/contracts/EtherniumTcc.sol\":2969:2977  testator */\n      dup4\n        /* \"src/contracts/EtherniumTcc.sol\":2949:2978  vaultCreatedAndPaid[testator] */\n      0xffffffffffffffffffffffffffffffffffffffff\n      and\n      0xffffffffffffffffffffffffffffffffffffffff\n      and\n      dup2\n      mstore\n      0x20\n      add\n      swap1\n      dup2\n      mstore\n      0x20\n      add\n      0x00\n      keccak256\n      0x00\n      swap1\n      sload\n      swap1\n      0x0100\n      exp\n      swap1\n      div\n      0xff\n      and\n        /* \"src/contracts/EtherniumTcc.sol\":2941:3003  require(vaultCreatedAndPaid[testator], \"Vault does not exist\") */\n      tag_124\n      jumpi\n      mload(0x40)\n      0x08c379a000000000000000000000000000000000000000000000000000000000\n      dup2\n      mstore\n      0x04\n      add\n      tag_125\n      swap1\n      tag_87\n      jump\t// in\n    tag_125:\n      mload(0x40)\n      dup1\n      swap2\n      sub\n      swap1\n      revert\n    tag_124:\n        /* \"src/contracts/EtherniumTcc.sol\":3020:3029  testators */\n      0x00\n        /* \"src/contracts/EtherniumTcc.sol\":3020:3039  testators[testator] */\n      0x00\n        /* \"src/contracts/EtherniumTcc.sol\":3030:3038  testator */\n      dup4\n        /* \"src/contracts/EtherniumTcc.sol\":3020:3039  testators[testator] */\n      0xffffffffffffffffffffffffffffffffffffffff\n      and\n      0xffffffffffffffffffffffffffffffffffffffff\n      and\n      dup2\n      mstore\n      0x20\n      add\n      swap1\n      dup2\n      mstore\n      0x20\n      add\n      0x00\n      keccak256\n        /* \"src/contracts/EtherniumTcc.sol\":3020:3047  testators[testator].balance */\n      0x01\n      add\n      sload\n        /* \"src/contracts/EtherniumTcc.sol\":3013:3047  return testators[testator].balance */\n      swap1\n      pop\n        /* \"src/contracts/EtherniumTcc.sol\":2778:3054  function vaultBalance(address testator) external view returns (uint256) {... */\n      swap2\n      swap1\n      pop\n      jump\t// out\n        /* \"src/contracts/EtherniumTcc.sol\":3142:3529  function withdrawETH(uint256 amount) external {... */\n    tag_53:\n        /* \"src/contracts/EtherniumTcc.sol\":3198:3213  Vault storage v */\n      0x00\n        /* \"src/contracts/EtherniumTcc.sol\":3216:3225  testators */\n      0x00\n        /* \"src/contracts/EtherniumTcc.sol\":3216:3237  testators[msg.sender] */\n      0x00\n        /* \"src/contracts/EtherniumTcc.sol\":3226:3236  msg.sender */\n      caller\n        /* \"src/contracts/EtherniumTcc.sol\":3216:3237  testators[msg.sender] */\n      0xffffffffffffffffffffffffffffffffffffffff\n      and\n      0xffffffffffffffffffffffffffffffffffffffff\n      and\n      dup2\n      mstore\n      0x20\n      add\n      swap1\n      dup2\n      mstore\n      0x20\n      add\n      0x00\n      keccak256\n        /* \"src/contracts/EtherniumTcc.sol\":3198:3237  Vault storage v = testators[msg.sender] */\n      swap1\n      pop\n        /* \"src/contracts/EtherniumTcc.sol\":3255:3256  v */\n      dup1\n        /* \"src/contracts/EtherniumTcc.sol\":3255:3262  v.exist */\n      0x00\n      add\n      0x00\n      swap1\n      sload\n      swap1\n      0x0100\n      exp\n      swap1\n      div\n      0xff\n      and\n        /* \"src/contracts/EtherniumTcc.sol\":3247:3287  require(v.exist, \"Vault does not exist\") */\n      tag_127\n      jumpi\n      mload(0x40)\n      0x08c379a000000000000000000000000000000000000000000000000000000000\n      dup2\n      mstore\n      0x04\n      add\n      tag_128\n      swap1\n      tag_87\n      jump\t// in\n    tag_128:\n      mload(0x40)\n      dup1\n      swap2\n      sub\n      swap1\n      revert\n    tag_127:\n        /* \"src/contracts/EtherniumTcc.sol\":3318:3324  amount */\n      dup2\n        /* \"src/contracts/EtherniumTcc.sol\":3305:3306  v */\n      dup2\n        /* \"src/contracts/EtherniumTcc.sol\":3305:3314  v.balance */\n      0x01\n      add\n      sload\n        /* \"src/contracts/EtherniumTcc.sol\":3305:3324  v.balance >= amount */\n      lt\n      iszero\n        /* \"src/contracts/EtherniumTcc.sol\":3297:3345  require(v.balance >= amount, \"Insufficient ETH\") */\n      tag_129\n      jumpi\n      mload(0x40)\n      0x08c379a000000000000000000000000000000000000000000000000000000000\n      dup2\n      mstore\n      0x04\n      add\n      tag_130\n      swap1\n      tag_131\n      jump\t// in\n    tag_130:\n      mload(0x40)\n      dup1\n      swap2\n      sub\n      swap1\n      revert\n    tag_129:\n        /* \"src/contracts/EtherniumTcc.sol\":3369:3375  amount */\n      dup2\n        /* \"src/contracts/EtherniumTcc.sol\":3356:3357  v */\n      dup2\n        /* \"src/contracts/EtherniumTcc.sol\":3356:3365  v.balance */\n      0x01\n      add\n      0x00\n        /* \"src/contracts/EtherniumTcc.sol\":3356:3375  v.balance -= amount */\n      dup3\n      dup3\n      sload\n      tag_132\n      swap2\n      swap1\n      tag_103\n      jump\t// in\n    tag_132:\n      swap3\n      pop\n      pop\n      dup2\n      swap1\n      sstore\n      pop\n        /* \"src/contracts/EtherniumTcc.sol\":3387:3394  bool ok */\n      0x00\n        /* \"src/contracts/EtherniumTcc.sol\":3400:3410  msg.sender */\n      caller\n        /* \"src/contracts/EtherniumTcc.sol\":3400:3415  msg.sender.call */\n      0xffffffffffffffffffffffffffffffffffffffff\n      and\n        /* \"src/contracts/EtherniumTcc.sol\":3423:3429  amount */\n      dup4\n        /* \"src/contracts/EtherniumTcc.sol\":3400:3434  msg.sender.call{value: amount}(\"\") */\n      mload(0x40)\n      tag_133\n      swap1\n      tag_62\n      jump\t// in\n    tag_133:\n      0x00\n      mload(0x40)\n      dup1\n      dup4\n      sub\n      dup2\n      dup6\n      dup8\n      gas\n      call\n      swap3\n      pop\n      pop\n      pop\n      returndatasize\n      dup1\n      0x00\n      dup2\n      eq\n      tag_136\n      jumpi\n      mload(0x40)\n      swap2\n      pop\n      and(add(returndatasize, 0x3f), not(0x1f))\n      dup3\n      add\n      0x40\n      mstore\n      returndatasize\n      dup3\n      mstore\n      returndatasize\n      0x00\n      0x20\n      dup5\n      add\n      returndatacopy\n      jump(tag_135)\n    tag_136:\n      0x60\n      swap2\n      pop\n    tag_135:\n      pop\n        /* \"src/contracts/EtherniumTcc.sol\":3386:3434  (bool ok, ) = msg.sender.call{value: amount}(\"\") */\n      pop\n      swap1\n      pop\n        /* \"src/contracts/EtherniumTcc.sol\":3452:3454  ok */\n      dup1\n        /* \"src/contracts/EtherniumTcc.sol\":3444:3478  require(ok, \"ETH transfer failed\") */\n      tag_137\n      jumpi\n      mload(0x40)\n      0x08c379a000000000000000000000000000000000000000000000000000000000\n      dup2\n      mstore\n      0x04\n      add\n      tag_138\n      swap1\n      tag_68\n      jump\t// in\n    tag_138:\n      mload(0x40)\n      dup1\n      swap2\n      sub\n      swap1\n      revert\n    tag_137:\n        /* \"src/contracts/EtherniumTcc.sol\":3503:3513  msg.sender */\n      caller\n        /* \"src/contracts/EtherniumTcc.sol\":3494:3522  Withdraw(msg.sender, amount) */\n      0xffffffffffffffffffffffffffffffffffffffff\n      and\n      0x884edad9ce6fa2440d8a54cc123490eb96d2768479d49ff9c7366125a9424364\n        /* \"src/contracts/EtherniumTcc.sol\":3515:3521  amount */\n      dup5\n        /* \"src/contracts/EtherniumTcc.sol\":3494:3522  Withdraw(msg.sender, amount) */\n      mload(0x40)\n      tag_139\n      swap2\n      swap1\n      tag_21\n      jump\t// in\n    tag_139:\n      mload(0x40)\n      dup1\n      swap2\n      sub\n      swap1\n      log2\n        /* \"src/contracts/EtherniumTcc.sol\":3188:3529  {... */\n      pop\n      pop\n        /* \"src/contracts/EtherniumTcc.sol\":3142:3529  function withdrawETH(uint256 amount) external {... */\n      pop\n      jump\t// out\n        /* \"src/contracts/EtherniumTcc.sol\":2286:2772  function depositETH() external payable {... */\n    tag_55:\n        /* \"src/contracts/EtherniumTcc.sol\":2343:2362  vaultCreatedAndPaid */\n      0x01\n        /* \"src/contracts/EtherniumTcc.sol\":2343:2374  vaultCreatedAndPaid[msg.sender] */\n      0x00\n        /* \"src/contracts/EtherniumTcc.sol\":2363:2373  msg.sender */\n      caller\n        /* \"src/contracts/EtherniumTcc.sol\":2343:2374  vaultCreatedAndPaid[msg.sender] */\n      0xffffffffffffffffffffffffffffffffffffffff\n      and\n      0xffffffffffffffffffffffffffffffffffffffff\n      and\n      dup2\n      mstore\n      0x20\n      add\n      swap1\n      dup2\n      mstore\n      0x20\n      add\n      0x00\n      keccak256\n      0x00\n      swap1\n      sload\n      swap1\n      0x0100\n      exp\n      swap1\n      div\n      0xff\n      and\n        /* \"src/contracts/EtherniumTcc.sol\":2335:2397  require(vaultCreatedAndPaid[msg.sender], \"Create vault first\") */\n      tag_141\n      jumpi\n      mload(0x40)\n      0x08c379a000000000000000000000000000000000000000000000000000000000\n      dup2\n      mstore\n      0x04\n      add\n      tag_142\n      swap1\n      tag_143\n      jump\t// in\n    tag_142:\n      mload(0x40)\n      dup1\n      swap2\n      sub\n      swap1\n      revert\n    tag_141:\n        /* \"src/contracts/EtherniumTcc.sol\":2427:2428  0 */\n      0x00\n        /* \"src/contracts/EtherniumTcc.sol\":2415:2424  msg.value */\n      callvalue\n        /* \"src/contracts/EtherniumTcc.sol\":2415:2428  msg.value > 0 */\n      gt\n        /* \"src/contracts/EtherniumTcc.sol\":2407:2444  require(msg.value > 0, \"No ETH sent\") */\n      tag_144\n      jumpi\n      mload(0x40)\n      0x08c379a000000000000000000000000000000000000000000000000000000000\n      dup2\n      mstore\n      0x04\n      add\n      tag_145\n      swap1\n      tag_146\n      jump\t// in\n    tag_145:\n      mload(0x40)\n      dup1\n      swap2\n      sub\n      swap1\n      revert\n    tag_144:\n        /* \"src/contracts/EtherniumTcc.sol\":2454:2478  _ensureVault(msg.sender) */\n      tag_147\n        /* \"src/contracts/EtherniumTcc.sol\":2467:2477  msg.sender */\n      caller\n        /* \"src/contracts/EtherniumTcc.sol\":2454:2466  _ensureVault */\n      tag_148\n        /* \"src/contracts/EtherniumTcc.sol\":2454:2478  _ensureVault(msg.sender) */\n      jump\t// in\n    tag_147:\n        /* \"src/contracts/EtherniumTcc.sol\":2489:2500  uint256 fee */\n      0x00\n        /* \"src/contracts/EtherniumTcc.sol\":328:333  10000 */\n      0x2710\n        /* \"src/contracts/EtherniumTcc.sol\":2503:2550  (msg.value * DEPOSIT_FEE_BPS) / BPS_DENOMINATOR */\n      0xffff\n      and\n        /* \"src/contracts/EtherniumTcc.sol\":258:260  50 */\n      0x32\n        /* \"src/contracts/EtherniumTcc.sol\":2504:2531  msg.value * DEPOSIT_FEE_BPS */\n      0xffff\n      and\n        /* \"src/contracts/EtherniumTcc.sol\":2504:2513  msg.value */\n      callvalue\n        /* \"src/contracts/EtherniumTcc.sol\":2504:2531  msg.value * DEPOSIT_FEE_BPS */\n      tag_149\n      swap2\n      swap1\n      tag_150\n      jump\t// in\n    tag_149:\n        /* \"src/contracts/EtherniumTcc.sol\":2503:2550  (msg.value * DEPOSIT_FEE_BPS) / BPS_DENOMINATOR */\n      tag_151\n      swap2\n      swap1\n      tag_152\n      jump\t// in\n    tag_151:\n        /* \"src/contracts/EtherniumTcc.sol\":2489:2550  uint256 fee = (msg.value * DEPOSIT_FEE_BPS) / BPS_DENOMINATOR */\n      swap1\n      pop\n        /* \"src/contracts/EtherniumTcc.sol\":2560:2571  uint256 net */\n      0x00\n        /* \"src/contracts/EtherniumTcc.sol\":2586:2589  fee */\n      dup2\n        /* \"src/contracts/EtherniumTcc.sol\":2574:2583  msg.value */\n      callvalue\n        /* \"src/contracts/EtherniumTcc.sol\":2574:2589  msg.value - fee */\n      tag_153\n      swap2\n      swap1\n      tag_103\n      jump\t// in\n    tag_153:\n        /* \"src/contracts/EtherniumTcc.sol\":2560:2589  uint256 net = msg.value - fee */\n      swap1\n      pop\n        /* \"src/contracts/EtherniumTcc.sol\":2613:2614  0 */\n      0x00\n        /* \"src/contracts/EtherniumTcc.sol\":2607:2610  net */\n      dup2\n        /* \"src/contracts/EtherniumTcc.sol\":2607:2614  net > 0 */\n      gt\n        /* \"src/contracts/EtherniumTcc.sol\":2599:2630  require(net > 0, \"Net is zero\") */\n      tag_154\n      jumpi\n      mload(0x40)\n      0x08c379a000000000000000000000000000000000000000000000000000000000\n      dup2\n      mstore\n      0x04\n      add\n      tag_155\n      swap1\n      tag_156\n      jump\t// in\n    tag_155:\n      mload(0x40)\n      dup1\n      swap2\n      sub\n      swap1\n      revert\n    tag_154:\n        /* \"src/contracts/EtherniumTcc.sol\":2650:2675  _creditContractVault(fee) */\n      tag_157\n        /* \"src/contracts/EtherniumTcc.sol\":2671:2674  fee */\n      dup3\n        /* \"src/contracts/EtherniumTcc.sol\":2650:2670  _creditContractVault */\n      tag_78\n        /* \"src/contracts/EtherniumTcc.sol\":2650:2675  _creditContractVault(fee) */\n      jump\t// in\n    tag_157:\n        /* \"src/contracts/EtherniumTcc.sol\":2686:2710  _credit(msg.sender, net) */\n      tag_158\n        /* \"src/contracts/EtherniumTcc.sol\":2694:2704  msg.sender */\n      caller\n        /* \"src/contracts/EtherniumTcc.sol\":2706:2709  net */\n      dup3\n        /* \"src/contracts/EtherniumTcc.sol\":2686:2693  _credit */\n      tag_159\n        /* \"src/contracts/EtherniumTcc.sol\":2686:2710  _credit(msg.sender, net) */\n      jump\t// in\n    tag_158:\n        /* \"src/contracts/EtherniumTcc.sol\":2733:2743  msg.sender */\n      caller\n        /* \"src/contracts/EtherniumTcc.sol\":2725:2765  Deposit(msg.sender, msg.value, fee, net) */\n      0xffffffffffffffffffffffffffffffffffffffff\n      and\n      0x36af321ec8d3c75236829c5317affd40ddb308863a1236d2d277a4025cccee1e\n        /* \"src/contracts/EtherniumTcc.sol\":2745:2754  msg.value */\n      callvalue\n        /* \"src/contracts/EtherniumTcc.sol\":2756:2759  fee */\n      dup5\n        /* \"src/contracts/EtherniumTcc.sol\":2761:2764  net */\n      dup5\n        /* \"src/contracts/EtherniumTcc.sol\":2725:2765  Deposit(msg.sender, msg.value, fee, net) */\n      mload(0x40)\n      tag_160\n      swap4\n      swap3\n      swap2\n      swap1\n      tag_161\n      jump\t// in\n    tag_160:\n      mload(0x40)\n      dup1\n      swap2\n      sub\n      swap1\n      log2\n        /* \"src/contracts/EtherniumTcc.sol\":2325:2772  {... */\n      pop\n      pop\n        /* \"src/contracts/EtherniumTcc.sol\":2286:2772  function depositETH() external payable {... */\n      jump\t// out\n        /* \"src/contracts/EtherniumTcc.sol\":6182:6358  function _creditContractVault(uint256 amount) internal {... */\n    tag_78:\n        /* \"src/contracts/EtherniumTcc.sol\":6261:6262  0 */\n      0x00\n        /* \"src/contracts/EtherniumTcc.sol\":6251:6257  amount */\n      dup2\n        /* \"src/contracts/EtherniumTcc.sol\":6251:6262  amount == 0 */\n      sub\n        /* \"src/contracts/EtherniumTcc.sol\":6247:6271  if (amount == 0) return; */\n      iszero\n        /* \"src/contracts/EtherniumTcc.sol\":6264:6271  return; */\n      tag_162\n        /* \"src/contracts/EtherniumTcc.sol\":6247:6271  if (amount == 0) return; */\n      jumpi\n        /* \"src/contracts/EtherniumTcc.sol\":6307:6313  amount */\n      dup1\n        /* \"src/contracts/EtherniumTcc.sol\":6280:6295  vaultOfContract */\n      0x02\n        /* \"src/contracts/EtherniumTcc.sol\":6280:6303  vaultOfContract.balance */\n      0x01\n      add\n      0x00\n        /* \"src/contracts/EtherniumTcc.sol\":6280:6313  vaultOfContract.balance += amount */\n      dup3\n      dup3\n      sload\n      tag_164\n      swap2\n      swap1\n      tag_98\n      jump\t// in\n    tag_164:\n      swap3\n      pop\n      pop\n      dup2\n      swap1\n      sstore\n      pop\n        /* \"src/contracts/EtherniumTcc.sol\":6347:6351  true */\n      0x01\n        /* \"src/contracts/EtherniumTcc.sol\":6323:6338  vaultOfContract */\n      0x02\n        /* \"src/contracts/EtherniumTcc.sol\":6323:6344  vaultOfContract.exist */\n      0x00\n      add\n      0x00\n        /* \"src/contracts/EtherniumTcc.sol\":6323:6351  vaultOfContract.exist = true */\n      0x0100\n      exp\n      dup2\n      sload\n      dup2\n      0xff\n      mul\n      not\n      and\n      swap1\n      dup4\n      iszero\n      iszero\n      mul\n      or\n      swap1\n      sstore\n      pop\n        /* \"src/contracts/EtherniumTcc.sol\":6182:6358  function _creditContractVault(uint256 amount) internal {... */\n    tag_162:\n      pop\n      jump\t// out\n        /* \"src/contracts/EtherniumTcc.sol\":5765:5971  function _ensureVault(address testator) internal {... */\n    tag_148:\n        /* \"src/contracts/EtherniumTcc.sol\":5824:5839  Vault storage v */\n      0x00\n        /* \"src/contracts/EtherniumTcc.sol\":5842:5851  testators */\n      0x00\n        /* \"src/contracts/EtherniumTcc.sol\":5842:5861  testators[testator] */\n      0x00\n        /* \"src/contracts/EtherniumTcc.sol\":5852:5860  testator */\n      dup4\n        /* \"src/contracts/EtherniumTcc.sol\":5842:5861  testators[testator] */\n      0xffffffffffffffffffffffffffffffffffffffff\n      and\n      0xffffffffffffffffffffffffffffffffffffffff\n      and\n      dup2\n      mstore\n      0x20\n      add\n      swap1\n      dup2\n      mstore\n      0x20\n      add\n      0x00\n      keccak256\n        /* \"src/contracts/EtherniumTcc.sol\":5824:5861  Vault storage v = testators[testator] */\n      swap1\n      pop\n        /* \"src/contracts/EtherniumTcc.sol\":5876:5877  v */\n      dup1\n        /* \"src/contracts/EtherniumTcc.sol\":5876:5883  v.exist */\n      0x00\n      add\n      0x00\n      swap1\n      sload\n      swap1\n      0x0100\n      exp\n      swap1\n      div\n      0xff\n      and\n        /* \"src/contracts/EtherniumTcc.sol\":5871:5965  if (!v.exist) {... */\n      tag_166\n      jumpi\n        /* \"src/contracts/EtherniumTcc.sol\":5909:5913  true */\n      0x01\n        /* \"src/contracts/EtherniumTcc.sol\":5899:5900  v */\n      dup2\n        /* \"src/contracts/EtherniumTcc.sol\":5899:5906  v.exist */\n      0x00\n      add\n      0x00\n        /* \"src/contracts/EtherniumTcc.sol\":5899:5913  v.exist = true */\n      0x0100\n      exp\n      dup2\n      sload\n      dup2\n      0xff\n      mul\n      not\n      and\n      swap1\n      dup4\n      iszero\n      iszero\n      mul\n      or\n      swap1\n      sstore\n      pop\n        /* \"src/contracts/EtherniumTcc.sol\":5945:5953  testator */\n      dup2\n        /* \"src/contracts/EtherniumTcc.sol\":5932:5954  VaultCreated(testator) */\n      0xffffffffffffffffffffffffffffffffffffffff\n      and\n      0x2e49a5810fda2439a23771848b4acec786b0a64d4de3d124ac57fc8739c38875\n      mload(0x40)\n      mload(0x40)\n      dup1\n      swap2\n      sub\n      swap1\n      log2\n        /* \"src/contracts/EtherniumTcc.sol\":5871:5965  if (!v.exist) {... */\n    tag_166:\n        /* \"src/contracts/EtherniumTcc.sol\":5814:5971  {... */\n      pop\n        /* \"src/contracts/EtherniumTcc.sol\":5765:5971  function _ensureVault(address testator) internal {... */\n      pop\n      jump\t// out\n        /* \"src/contracts/EtherniumTcc.sol\":6032:6176  function _credit(address testator, uint256 amount) internal {... */\n    tag_159:\n        /* \"src/contracts/EtherniumTcc.sol\":6102:6117  Vault storage v */\n      0x00\n        /* \"src/contracts/EtherniumTcc.sol\":6120:6129  testators */\n      0x00\n        /* \"src/contracts/EtherniumTcc.sol\":6120:6139  testators[testator] */\n      0x00\n        /* \"src/contracts/EtherniumTcc.sol\":6130:6138  testator */\n      dup5\n        /* \"src/contracts/EtherniumTcc.sol\":6120:6139  testators[testator] */\n      0xffffffffffffffffffffffffffffffffffffffff\n      and\n      0xffffffffffffffffffffffffffffffffffffffff\n      and\n      dup2\n      mstore\n      0x20\n      add\n      swap1\n      dup2\n      mstore\n      0x20\n      add\n      0x00\n      keccak256\n        /* \"src/contracts/EtherniumTcc.sol\":6102:6139  Vault storage v = testators[testator] */\n      swap1\n      pop\n        /* \"src/contracts/EtherniumTcc.sol\":6163:6169  amount */\n      dup2\n        /* \"src/contracts/EtherniumTcc.sol\":6150:6151  v */\n      dup2\n        /* \"src/contracts/EtherniumTcc.sol\":6150:6159  v.balance */\n      0x01\n      add\n      0x00\n        /* \"src/contracts/EtherniumTcc.sol\":6150:6169  v.balance += amount */\n      dup3\n      dup3\n      sload\n      tag_168\n      swap2\n      swap1\n      tag_98\n      jump\t// in\n    tag_168:\n      swap3\n      pop\n      pop\n      dup2\n      swap1\n      sstore\n      pop\n        /* \"src/contracts/EtherniumTcc.sol\":6092:6176  {... */\n      pop\n        /* \"src/contracts/EtherniumTcc.sol\":6032:6176  function _credit(address testator, uint256 amount) internal {... */\n      pop\n      pop\n      jump\t// out\n    tag_80:\n      mload(0x40)\n      dup1\n      0x20\n      add\n      0x40\n      mstore\n      dup1\n      0x00\n      dup2\n      mstore\n      pop\n      swap1\n      jump\t// out\n        /* \"#utility.yul\":7:176   */\n    tag_169:\n        /* \"#utility.yul\":91:102   */\n      0x00\n        /* \"#utility.yul\":125:131   */\n      dup3\n        /* \"#utility.yul\":120:123   */\n      dup3\n        /* \"#utility.yul\":113:132   */\n      mstore\n        /* \"#utility.yul\":165:169   */\n      0x20\n        /* \"#utility.yul\":160:163   */\n      dup3\n        /* \"#utility.yul\":156:170   */\n      add\n        /* \"#utility.yul\":141:170   */\n      swap1\n      pop\n        /* \"#utility.yul\":7:176   */\n      swap3\n      swap2\n      pop\n      pop\n      jump\t// out\n        /* \"#utility.yul\":182:344   */\n    tag_170:\n        /* \"#utility.yul\":322:336   */\n      0x446f6e277420646f206974210000000000000000000000000000000000000000\n        /* \"#utility.yul\":318:319   */\n      0x00\n        /* \"#utility.yul\":310:316   */\n      dup3\n        /* \"#utility.yul\":306:320   */\n      add\n        /* \"#utility.yul\":299:337   */\n      mstore\n        /* \"#utility.yul\":182:344   */\n      pop\n      jump\t// out\n        /* \"#utility.yul\":350:716   */\n    tag_171:\n        /* \"#utility.yul\":492:495   */\n      0x00\n        /* \"#utility.yul\":513:580   */\n      tag_234\n        /* \"#utility.yul\":577:579   */\n      0x0c\n        /* \"#utility.yul\":572:575   */\n      dup4\n        /* \"#utility.yul\":513:580   */\n      tag_169\n      jump\t// in\n    tag_234:\n        /* \"#utility.yul\":506:580   */\n      swap2\n      pop\n        /* \"#utility.yul\":589:682   */\n      tag_235\n        /* \"#utility.yul\":678:681   */\n      dup3\n        /* \"#utility.yul\":589:682   */\n      tag_170\n      jump\t// in\n    tag_235:\n        /* \"#utility.yul\":707:709   */\n      0x20\n        /* \"#utility.yul\":702:705   */\n      dup3\n        /* \"#utility.yul\":698:710   */\n      add\n        /* \"#utility.yul\":691:710   */\n      swap1\n      pop\n        /* \"#utility.yul\":350:716   */\n      swap2\n      swap1\n      pop\n      jump\t// out\n        /* \"#utility.yul\":722:1141   */\n    tag_16:\n        /* \"#utility.yul\":888:892   */\n      0x00\n        /* \"#utility.yul\":926:928   */\n      0x20\n        /* \"#utility.yul\":915:924   */\n      dup3\n        /* \"#utility.yul\":911:929   */\n      add\n        /* \"#utility.yul\":903:929   */\n      swap1\n      pop\n        /* \"#utility.yul\":975:984   */\n      dup2\n        /* \"#utility.yul\":969:973   */\n      dup2\n        /* \"#utility.yul\":965:985   */\n      sub\n        /* \"#utility.yul\":961:962   */\n      0x00\n        /* \"#utility.yul\":950:959   */\n      dup4\n        /* \"#utility.yul\":946:963   */\n      add\n        /* \"#utility.yul\":939:986   */\n      mstore\n        /* \"#utility.yul\":1003:1134   */\n      tag_237\n        /* \"#utility.yul\":1129:1133   */\n      dup2\n        /* \"#utility.yul\":1003:1134   */\n      tag_171\n      jump\t// in\n    tag_237:\n        /* \"#utility.yul\":995:1134   */\n      swap1\n      pop\n        /* \"#utility.yul\":722:1141   */\n      swap2\n      swap1\n      pop\n      jump\t// out\n        /* \"#utility.yul\":1147:1224   */\n    tag_172:\n        /* \"#utility.yul\":1184:1191   */\n      0x00\n        /* \"#utility.yul\":1213:1218   */\n      dup2\n        /* \"#utility.yul\":1202:1218   */\n      swap1\n      pop\n        /* \"#utility.yul\":1147:1224   */\n      swap2\n      swap1\n      pop\n      jump\t// out\n        /* \"#utility.yul\":1230:1348   */\n    tag_173:\n        /* \"#utility.yul\":1317:1341   */\n      tag_240\n        /* \"#utility.yul\":1335:1340   */\n      dup2\n        /* \"#utility.yul\":1317:1341   */\n      tag_172\n      jump\t// in\n    tag_240:\n        /* \"#utility.yul\":1312:1315   */\n      dup3\n        /* \"#utility.yul\":1305:1342   */\n      mstore\n        /* \"#utility.yul\":1230:1348   */\n      pop\n      pop\n      jump\t// out\n        /* \"#utility.yul\":1354:1576   */\n    tag_21:\n        /* \"#utility.yul\":1447:1451   */\n      0x00\n        /* \"#utility.yul\":1485:1487   */\n      0x20\n        /* \"#utility.yul\":1474:1483   */\n      dup3\n        /* \"#utility.yul\":1470:1488   */\n      add\n        /* \"#utility.yul\":1462:1488   */\n      swap1\n      pop\n        /* \"#utility.yul\":1498:1569   */\n      tag_242\n        /* \"#utility.yul\":1566:1567   */\n      0x00\n        /* \"#utility.yul\":1555:1564   */\n      dup4\n        /* \"#utility.yul\":1551:1568   */\n      add\n        /* \"#utility.yul\":1542:1548   */\n      dup5\n        /* \"#utility.yul\":1498:1569   */\n      tag_173\n      jump\t// in\n    tag_242:\n        /* \"#utility.yul\":1354:1576   */\n      swap3\n      swap2\n      pop\n      pop\n      jump\t// out\n        /* \"#utility.yul\":1663:1780   */\n    tag_175:\n        /* \"#utility.yul\":1772:1773   */\n      0x00\n        /* \"#utility.yul\":1769:1770   */\n      0x00\n        /* \"#utility.yul\":1762:1774   */\n      revert\n        /* \"#utility.yul\":1786:1903   */\n    tag_176:\n        /* \"#utility.yul\":1895:1896   */\n      0x00\n        /* \"#utility.yul\":1892:1893   */\n      0x00\n        /* \"#utility.yul\":1885:1897   */\n      revert\n        /* \"#utility.yul\":1909:2035   */\n    tag_177:\n        /* \"#utility.yul\":1946:1953   */\n      0x00\n        /* \"#utility.yul\":1986:2028   */\n      0xffffffffffffffffffffffffffffffffffffffff\n        /* \"#utility.yul\":1979:1984   */\n      dup3\n        /* \"#utility.yul\":1975:2029   */\n      and\n        /* \"#utility.yul\":1964:2029   */\n      swap1\n      pop\n        /* \"#utility.yul\":1909:2035   */\n      swap2\n      swap1\n      pop\n      jump\t// out\n        /* \"#utility.yul\":2041:2137   */\n    tag_178:\n        /* \"#utility.yul\":2078:2085   */\n      0x00\n        /* \"#utility.yul\":2107:2131   */\n      tag_248\n        /* \"#utility.yul\":2125:2130   */\n      dup3\n        /* \"#utility.yul\":2107:2131   */\n      tag_177\n      jump\t// in\n    tag_248:\n        /* \"#utility.yul\":2096:2131   */\n      swap1\n      pop\n        /* \"#utility.yul\":2041:2137   */\n      swap2\n      swap1\n      pop\n      jump\t// out\n        /* \"#utility.yul\":2143:2265   */\n    tag_179:\n        /* \"#utility.yul\":2216:2240   */\n      tag_250\n        /* \"#utility.yul\":2234:2239   */\n      dup2\n        /* \"#utility.yul\":2216:2240   */\n      tag_178\n      jump\t// in\n    tag_250:\n        /* \"#utility.yul\":2209:2214   */\n      dup2\n        /* \"#utility.yul\":2206:2241   */\n      eq\n        /* \"#utility.yul\":2196:2259   */\n      tag_251\n      jumpi\n        /* \"#utility.yul\":2255:2256   */\n      0x00\n        /* \"#utility.yul\":2252:2253   */\n      0x00\n        /* \"#utility.yul\":2245:2257   */\n      revert\n        /* \"#utility.yul\":2196:2259   */\n    tag_251:\n        /* \"#utility.yul\":2143:2265   */\n      pop\n      jump\t// out\n        /* \"#utility.yul\":2271:2410   */\n    tag_180:\n        /* \"#utility.yul\":2317:2322   */\n      0x00\n        /* \"#utility.yul\":2355:2361   */\n      dup2\n        /* \"#utility.yul\":2342:2362   */\n      calldataload\n        /* \"#utility.yul\":2333:2362   */\n      swap1\n      pop\n        /* \"#utility.yul\":2371:2404   */\n      tag_253\n        /* \"#utility.yul\":2398:2403   */\n      dup2\n        /* \"#utility.yul\":2371:2404   */\n      tag_179\n      jump\t// in\n    tag_253:\n        /* \"#utility.yul\":2271:2410   */\n      swap3\n      swap2\n      pop\n      pop\n      jump\t// out\n        /* \"#utility.yul\":2416:2745   */\n    tag_25:\n        /* \"#utility.yul\":2475:2481   */\n      0x00\n        /* \"#utility.yul\":2524:2526   */\n      0x20\n        /* \"#utility.yul\":2512:2521   */\n      dup3\n        /* \"#utility.yul\":2503:2510   */\n      dup5\n        /* \"#utility.yul\":2499:2522   */\n      sub\n        /* \"#utility.yul\":2495:2527   */\n      slt\n        /* \"#utility.yul\":2492:2611   */\n      iszero\n      tag_255\n      jumpi\n        /* \"#utility.yul\":2530:2609   */\n      tag_256\n      tag_175\n      jump\t// in\n    tag_256:\n        /* \"#utility.yul\":2492:2611   */\n    tag_255:\n        /* \"#utility.yul\":2650:2651   */\n      0x00\n        /* \"#utility.yul\":2675:2728   */\n      tag_257\n        /* \"#utility.yul\":2720:2727   */\n      dup5\n        /* \"#utility.yul\":2711:2717   */\n      dup3\n        /* \"#utility.yul\":2700:2709   */\n      dup6\n        /* \"#utility.yul\":2696:2718   */\n      add\n        /* \"#utility.yul\":2675:2728   */\n      tag_180\n      jump\t// in\n    tag_257:\n        /* \"#utility.yul\":2665:2728   */\n      swap2\n      pop\n        /* \"#utility.yul\":2621:2738   */\n      pop\n        /* \"#utility.yul\":2416:2745   */\n      swap3\n      swap2\n      pop\n      pop\n      jump\t// out\n        /* \"#utility.yul\":2751:2859   */\n    tag_181:\n        /* \"#utility.yul\":2828:2852   */\n      tag_259\n        /* \"#utility.yul\":2846:2851   */\n      dup2\n        /* \"#utility.yul\":2828:2852   */\n      tag_172\n      jump\t// in\n    tag_259:\n        /* \"#utility.yul\":2823:2826   */\n      dup3\n        /* \"#utility.yul\":2816:2853   */\n      mstore\n        /* \"#utility.yul\":2751:2859   */\n      pop\n      pop\n      jump\t// out\n        /* \"#utility.yul\":2933:3270   */\n    tag_182:\n        /* \"#utility.yul\":3080:3084   */\n      0x20\n        /* \"#utility.yul\":3075:3078   */\n      dup3\n        /* \"#utility.yul\":3071:3085   */\n      add\n        /* \"#utility.yul\":3171:3175   */\n      0x00\n        /* \"#utility.yul\":3164:3169   */\n      dup3\n        /* \"#utility.yul\":3160:3176   */\n      add\n        /* \"#utility.yul\":3154:3177   */\n      mload\n        /* \"#utility.yul\":3190:3253   */\n      tag_261\n        /* \"#utility.yul\":3247:3251   */\n      0x00\n        /* \"#utility.yul\":3242:3245   */\n      dup6\n        /* \"#utility.yul\":3238:3252   */\n      add\n        /* \"#utility.yul\":3224:3236   */\n      dup3\n        /* \"#utility.yul\":3190:3253   */\n      tag_181\n      jump\t// in\n    tag_261:\n        /* \"#utility.yul\":3095:3263   */\n      pop\n        /* \"#utility.yul\":3049:3270   */\n      pop\n        /* \"#utility.yul\":2933:3270   */\n      pop\n      pop\n      jump\t// out\n        /* \"#utility.yul\":3276:3598   */\n    tag_33:\n        /* \"#utility.yul\":3419:3423   */\n      0x00\n        /* \"#utility.yul\":3457:3459   */\n      0x20\n        /* \"#utility.yul\":3446:3455   */\n      dup3\n        /* \"#utility.yul\":3442:3460   */\n      add\n        /* \"#utility.yul\":3434:3460   */\n      swap1\n      pop\n        /* \"#utility.yul\":3470:3591   */\n      tag_263\n        /* \"#utility.yul\":3588:3589   */\n      0x00\n        /* \"#utility.yul\":3577:3586   */\n      dup4\n        /* \"#utility.yul\":3573:3590   */\n      add\n        /* \"#utility.yul\":3564:3570   */\n      dup5\n        /* \"#utility.yul\":3470:3591   */\n      tag_182\n      jump\t// in\n    tag_263:\n        /* \"#utility.yul\":3276:3598   */\n      swap3\n      swap2\n      pop\n      pop\n      jump\t// out\n        /* \"#utility.yul\":3604:3721   */\n    tag_183:\n        /* \"#utility.yul\":3713:3714   */\n      0x00\n        /* \"#utility.yul\":3710:3711   */\n      0x00\n        /* \"#utility.yul\":3703:3715   */\n      revert\n        /* \"#utility.yul\":3727:3844   */\n    tag_184:\n        /* \"#utility.yul\":3836:3837   */\n      0x00\n        /* \"#utility.yul\":3833:3834   */\n      0x00\n        /* \"#utility.yul\":3826:3838   */\n      revert\n        /* \"#utility.yul\":3850:3967   */\n    tag_185:\n        /* \"#utility.yul\":3959:3960   */\n      0x00\n        /* \"#utility.yul\":3956:3957   */\n      0x00\n        /* \"#utility.yul\":3949:3961   */\n      revert\n        /* \"#utility.yul\":3990:4558   */\n    tag_186:\n        /* \"#utility.yul\":4063:4071   */\n      0x00\n        /* \"#utility.yul\":4073:4079   */\n      0x00\n        /* \"#utility.yul\":4123:4126   */\n      dup4\n        /* \"#utility.yul\":4116:4120   */\n      0x1f\n        /* \"#utility.yul\":4108:4114   */\n      dup5\n        /* \"#utility.yul\":4104:4121   */\n      add\n        /* \"#utility.yul\":4100:4127   */\n      slt\n        /* \"#utility.yul\":4090:4212   */\n      tag_268\n      jumpi\n        /* \"#utility.yul\":4131:4210   */\n      tag_269\n      tag_183\n      jump\t// in\n    tag_269:\n        /* \"#utility.yul\":4090:4212   */\n    tag_268:\n        /* \"#utility.yul\":4244:4250   */\n      dup3\n        /* \"#utility.yul\":4231:4251   */\n      calldataload\n        /* \"#utility.yul\":4221:4251   */\n      swap1\n      pop\n        /* \"#utility.yul\":4274:4292   */\n      0xffffffffffffffff\n        /* \"#utility.yul\":4266:4272   */\n      dup2\n        /* \"#utility.yul\":4263:4293   */\n      gt\n        /* \"#utility.yul\":4260:4377   */\n      iszero\n      tag_270\n      jumpi\n        /* \"#utility.yul\":4296:4375   */\n      tag_271\n      tag_184\n      jump\t// in\n    tag_271:\n        /* \"#utility.yul\":4260:4377   */\n    tag_270:\n        /* \"#utility.yul\":4410:4414   */\n      0x20\n        /* \"#utility.yul\":4402:4408   */\n      dup4\n        /* \"#utility.yul\":4398:4415   */\n      add\n        /* \"#utility.yul\":4386:4415   */\n      swap2\n      pop\n        /* \"#utility.yul\":4464:4467   */\n      dup4\n        /* \"#utility.yul\":4456:4460   */\n      0x20\n        /* \"#utility.yul\":4448:4454   */\n      dup3\n        /* \"#utility.yul\":4444:4461   */\n      mul\n        /* \"#utility.yul\":4434:4442   */\n      dup4\n        /* \"#utility.yul\":4430:4462   */\n      add\n        /* \"#utility.yul\":4427:4468   */\n      gt\n        /* \"#utility.yul\":4424:4552   */\n      iszero\n      tag_272\n      jumpi\n        /* \"#utility.yul\":4471:4550   */\n      tag_273\n      tag_185\n      jump\t// in\n    tag_273:\n        /* \"#utility.yul\":4424:4552   */\n    tag_272:\n        /* \"#utility.yul\":3990:4558   */\n      swap3\n      pop\n      swap3\n      swap1\n      pop\n      jump\t// out\n        /* \"#utility.yul\":4581:5149   */\n    tag_187:\n        /* \"#utility.yul\":4654:4662   */\n      0x00\n        /* \"#utility.yul\":4664:4670   */\n      0x00\n        /* \"#utility.yul\":4714:4717   */\n      dup4\n        /* \"#utility.yul\":4707:4711   */\n      0x1f\n        /* \"#utility.yul\":4699:4705   */\n      dup5\n        /* \"#utility.yul\":4695:4712   */\n      add\n        /* \"#utility.yul\":4691:4718   */\n      slt\n        /* \"#utility.yul\":4681:4803   */\n      tag_275\n      jumpi\n        /* \"#utility.yul\":4722:4801   */\n      tag_276\n      tag_183\n      jump\t// in\n    tag_276:\n        /* \"#utility.yul\":4681:4803   */\n    tag_275:\n        /* \"#utility.yul\":4835:4841   */\n      dup3\n        /* \"#utility.yul\":4822:4842   */\n      calldataload\n        /* \"#utility.yul\":4812:4842   */\n      swap1\n      pop\n        /* \"#utility.yul\":4865:4883   */\n      0xffffffffffffffff\n        /* \"#utility.yul\":4857:4863   */\n      dup2\n        /* \"#utility.yul\":4854:4884   */\n      gt\n        /* \"#utility.yul\":4851:4968   */\n      iszero\n      tag_277\n      jumpi\n        /* \"#utility.yul\":4887:4966   */\n      tag_278\n      tag_184\n      jump\t// in\n    tag_278:\n        /* \"#utility.yul\":4851:4968   */\n    tag_277:\n        /* \"#utility.yul\":5001:5005   */\n      0x20\n        /* \"#utility.yul\":4993:4999   */\n      dup4\n        /* \"#utility.yul\":4989:5006   */\n      add\n        /* \"#utility.yul\":4977:5006   */\n      swap2\n      pop\n        /* \"#utility.yul\":5055:5058   */\n      dup4\n        /* \"#utility.yul\":5047:5051   */\n      0x20\n        /* \"#utility.yul\":5039:5045   */\n      dup3\n        /* \"#utility.yul\":5035:5052   */\n      mul\n        /* \"#utility.yul\":5025:5033   */\n      dup4\n        /* \"#utility.yul\":5021:5053   */\n      add\n        /* \"#utility.yul\":5018:5059   */\n      gt\n        /* \"#utility.yul\":5015:5143   */\n      iszero\n      tag_279\n      jumpi\n        /* \"#utility.yul\":5062:5141   */\n      tag_280\n      tag_185\n      jump\t// in\n    tag_280:\n        /* \"#utility.yul\":5015:5143   */\n    tag_279:\n        /* \"#utility.yul\":4581:5149   */\n      swap3\n      pop\n      swap3\n      swap1\n      pop\n      jump\t// out\n        /* \"#utility.yul\":5155:6234   */\n    tag_37:\n        /* \"#utility.yul\":5286:5292   */\n      0x00\n        /* \"#utility.yul\":5294:5300   */\n      0x00\n        /* \"#utility.yul\":5302:5308   */\n      0x00\n        /* \"#utility.yul\":5310:5316   */\n      0x00\n        /* \"#utility.yul\":5318:5324   */\n      0x00\n        /* \"#utility.yul\":5367:5369   */\n      0x60\n        /* \"#utility.yul\":5355:5364   */\n      dup7\n        /* \"#utility.yul\":5346:5353   */\n      dup9\n        /* \"#utility.yul\":5342:5365   */\n      sub\n        /* \"#utility.yul\":5338:5370   */\n      slt\n        /* \"#utility.yul\":5335:5454   */\n      iszero\n      tag_282\n      jumpi\n        /* \"#utility.yul\":5373:5452   */\n      tag_283\n      tag_175\n      jump\t// in\n    tag_283:\n        /* \"#utility.yul\":5335:5454   */\n    tag_282:\n        /* \"#utility.yul\":5493:5494   */\n      0x00\n        /* \"#utility.yul\":5518:5571   */\n      tag_284\n        /* \"#utility.yul\":5563:5570   */\n      dup9\n        /* \"#utility.yul\":5554:5560   */\n      dup3\n        /* \"#utility.yul\":5543:5552   */\n      dup10\n        /* \"#utility.yul\":5539:5561   */\n      add\n        /* \"#utility.yul\":5518:5571   */\n      tag_180\n      jump\t// in\n    tag_284:\n        /* \"#utility.yul\":5508:5571   */\n      swap6\n      pop\n        /* \"#utility.yul\":5464:5581   */\n      pop\n        /* \"#utility.yul\":5648:5650   */\n      0x20\n        /* \"#utility.yul\":5637:5646   */\n      dup7\n        /* \"#utility.yul\":5633:5651   */\n      add\n        /* \"#utility.yul\":5620:5652   */\n      calldataload\n        /* \"#utility.yul\":5679:5697   */\n      0xffffffffffffffff\n        /* \"#utility.yul\":5671:5677   */\n      dup2\n        /* \"#utility.yul\":5668:5698   */\n      gt\n        /* \"#utility.yul\":5665:5782   */\n      iszero\n      tag_285\n      jumpi\n        /* \"#utility.yul\":5701:5780   */\n      tag_286\n      tag_176\n      jump\t// in\n    tag_286:\n        /* \"#utility.yul\":5665:5782   */\n    tag_285:\n        /* \"#utility.yul\":5814:5894   */\n      tag_287\n        /* \"#utility.yul\":5886:5893   */\n      dup9\n        /* \"#utility.yul\":5877:5883   */\n      dup3\n        /* \"#utility.yul\":5866:5875   */\n      dup10\n        /* \"#utility.yul\":5862:5884   */\n      add\n        /* \"#utility.yul\":5814:5894   */\n      tag_186\n      jump\t// in\n    tag_287:\n        /* \"#utility.yul\":5796:5894   */\n      swap5\n      pop\n      swap5\n      pop\n        /* \"#utility.yul\":5591:5904   */\n      pop\n        /* \"#utility.yul\":5971:5973   */\n      0x40\n        /* \"#utility.yul\":5960:5969   */\n      dup7\n        /* \"#utility.yul\":5956:5974   */\n      add\n        /* \"#utility.yul\":5943:5975   */\n      calldataload\n        /* \"#utility.yul\":6002:6020   */\n      0xffffffffffffffff\n        /* \"#utility.yul\":5994:6000   */\n      dup2\n        /* \"#utility.yul\":5991:6021   */\n      gt\n        /* \"#utility.yul\":5988:6105   */\n      iszero\n      tag_288\n      jumpi\n        /* \"#utility.yul\":6024:6103   */\n      tag_289\n      tag_176\n      jump\t// in\n    tag_289:\n        /* \"#utility.yul\":5988:6105   */\n    tag_288:\n        /* \"#utility.yul\":6137:6217   */\n      tag_290\n        /* \"#utility.yul\":6209:6216   */\n      dup9\n        /* \"#utility.yul\":6200:6206   */\n      dup3\n        /* \"#utility.yul\":6189:6198   */\n      dup10\n        /* \"#utility.yul\":6185:6207   */\n      add\n        /* \"#utility.yul\":6137:6217   */\n      tag_187\n      jump\t// in\n    tag_290:\n        /* \"#utility.yul\":6119:6217   */\n      swap3\n      pop\n      swap3\n      pop\n        /* \"#utility.yul\":5914:6227   */\n      pop\n        /* \"#utility.yul\":5155:6234   */\n      swap3\n      swap6\n      pop\n      swap3\n      swap6\n      swap1\n      swap4\n      pop\n      jump\t// out\n        /* \"#utility.yul\":6240:6330   */\n    tag_188:\n        /* \"#utility.yul\":6274:6281   */\n      0x00\n        /* \"#utility.yul\":6317:6322   */\n      dup2\n        /* \"#utility.yul\":6310:6323   */\n      iszero\n        /* \"#utility.yul\":6303:6324   */\n      iszero\n        /* \"#utility.yul\":6292:6324   */\n      swap1\n      pop\n        /* \"#utility.yul\":6240:6330   */\n      swap2\n      swap1\n      pop\n      jump\t// out\n        /* \"#utility.yul\":6336:6445   */\n    tag_189:\n        /* \"#utility.yul\":6417:6438   */\n      tag_293\n        /* \"#utility.yul\":6432:6437   */\n      dup2\n        /* \"#utility.yul\":6417:6438   */\n      tag_188\n      jump\t// in\n    tag_293:\n        /* \"#utility.yul\":6412:6415   */\n      dup3\n        /* \"#utility.yul\":6405:6439   */\n      mstore\n        /* \"#utility.yul\":6336:6445   */\n      pop\n      pop\n      jump\t// out\n        /* \"#utility.yul\":6451:6661   */\n    tag_43:\n        /* \"#utility.yul\":6538:6542   */\n      0x00\n        /* \"#utility.yul\":6576:6578   */\n      0x20\n        /* \"#utility.yul\":6565:6574   */\n      dup3\n        /* \"#utility.yul\":6561:6579   */\n      add\n        /* \"#utility.yul\":6553:6579   */\n      swap1\n      pop\n        /* \"#utility.yul\":6589:6654   */\n      tag_295\n        /* \"#utility.yul\":6651:6652   */\n      0x00\n        /* \"#utility.yul\":6640:6649   */\n      dup4\n        /* \"#utility.yul\":6636:6653   */\n      add\n        /* \"#utility.yul\":6627:6633   */\n      dup5\n        /* \"#utility.yul\":6589:6654   */\n      tag_189\n      jump\t// in\n    tag_295:\n        /* \"#utility.yul\":6451:6661   */\n      swap3\n      swap2\n      pop\n      pop\n      jump\t// out\n        /* \"#utility.yul\":6667:6789   */\n    tag_190:\n        /* \"#utility.yul\":6740:6764   */\n      tag_297\n        /* \"#utility.yul\":6758:6763   */\n      dup2\n        /* \"#utility.yul\":6740:6764   */\n      tag_172\n      jump\t// in\n    tag_297:\n        /* \"#utility.yul\":6733:6738   */\n      dup2\n        /* \"#utility.yul\":6730:6765   */\n      eq\n        /* \"#utility.yul\":6720:6783   */\n      tag_298\n      jumpi\n        /* \"#utility.yul\":6779:6780   */\n      0x00\n        /* \"#utility.yul\":6776:6777   */\n      0x00\n        /* \"#utility.yul\":6769:6781   */\n      revert\n        /* \"#utility.yul\":6720:6783   */\n    tag_298:\n        /* \"#utility.yul\":6667:6789   */\n      pop\n      jump\t// out\n        /* \"#utility.yul\":6795:6934   */\n    tag_191:\n        /* \"#utility.yul\":6841:6846   */\n      0x00\n        /* \"#utility.yul\":6879:6885   */\n      dup2\n        /* \"#utility.yul\":6866:6886   */\n      calldataload\n        /* \"#utility.yul\":6857:6886   */\n      swap1\n      pop\n        /* \"#utility.yul\":6895:6928   */\n      tag_300\n        /* \"#utility.yul\":6922:6927   */\n      dup2\n        /* \"#utility.yul\":6895:6928   */\n      tag_190\n      jump\t// in\n    tag_300:\n        /* \"#utility.yul\":6795:6934   */\n      swap3\n      swap2\n      pop\n      pop\n      jump\t// out\n        /* \"#utility.yul\":6940:7269   */\n    tag_52:\n        /* \"#utility.yul\":6999:7005   */\n      0x00\n        /* \"#utility.yul\":7048:7050   */\n      0x20\n        /* \"#utility.yul\":7036:7045   */\n      dup3\n        /* \"#utility.yul\":7027:7034   */\n      dup5\n        /* \"#utility.yul\":7023:7046   */\n      sub\n        /* \"#utility.yul\":7019:7051   */\n      slt\n        /* \"#utility.yul\":7016:7135   */\n      iszero\n      tag_302\n      jumpi\n        /* \"#utility.yul\":7054:7133   */\n      tag_303\n      tag_175\n      jump\t// in\n    tag_303:\n        /* \"#utility.yul\":7016:7135   */\n    tag_302:\n        /* \"#utility.yul\":7174:7175   */\n      0x00\n        /* \"#utility.yul\":7199:7252   */\n      tag_304\n        /* \"#utility.yul\":7244:7251   */\n      dup5\n        /* \"#utility.yul\":7235:7241   */\n      dup3\n        /* \"#utility.yul\":7224:7233   */\n      dup6\n        /* \"#utility.yul\":7220:7242   */\n      add\n        /* \"#utility.yul\":7199:7252   */\n      tag_191\n      jump\t// in\n    tag_304:\n        /* \"#utility.yul\":7189:7252   */\n      swap2\n      pop\n        /* \"#utility.yul\":7145:7262   */\n      pop\n        /* \"#utility.yul\":6940:7269   */\n      swap3\n      swap2\n      pop\n      pop\n      jump\t// out\n        /* \"#utility.yul\":7275:7498   */\n    tag_192:\n        /* \"#utility.yul\":7415:7449   */\n      0x4f6e6c79206465706c6f7965722063616e2063616c6c20746869732066756e63\n        /* \"#utility.yul\":7411:7412   */\n      0x00\n        /* \"#utility.yul\":7403:7409   */\n      dup3\n        /* \"#utility.yul\":7399:7413   */\n      add\n        /* \"#utility.yul\":7392:7450   */\n      mstore\n        /* \"#utility.yul\":7484:7490   */\n      0x74696f6e00000000000000000000000000000000000000000000000000000000\n        /* \"#utility.yul\":7479:7481   */\n      0x20\n        /* \"#utility.yul\":7471:7477   */\n      dup3\n        /* \"#utility.yul\":7467:7482   */\n      add\n        /* \"#utility.yul\":7460:7491   */\n      mstore\n        /* \"#utility.yul\":7275:7498   */\n      pop\n      jump\t// out\n        /* \"#utility.yul\":7504:7870   */\n    tag_193:\n        /* \"#utility.yul\":7646:7649   */\n      0x00\n        /* \"#utility.yul\":7667:7734   */\n      tag_307\n        /* \"#utility.yul\":7731:7733   */\n      0x24\n        /* \"#utility.yul\":7726:7729   */\n      dup4\n        /* \"#utility.yul\":7667:7734   */\n      tag_169\n      jump\t// in\n    tag_307:\n        /* \"#utility.yul\":7660:7734   */\n      swap2\n      pop\n        /* \"#utility.yul\":7743:7836   */\n      tag_308\n        /* \"#utility.yul\":7832:7835   */\n      dup3\n        /* \"#utility.yul\":7743:7836   */\n      tag_192\n      jump\t// in\n    tag_308:\n        /* \"#utility.yul\":7861:7863   */\n      0x40\n        /* \"#utility.yul\":7856:7859   */\n      dup3\n        /* \"#utility.yul\":7852:7864   */\n      add\n        /* \"#utility.yul\":7845:7864   */\n      swap1\n      pop\n        /* \"#utility.yul\":7504:7870   */\n      swap2\n      swap1\n      pop\n      jump\t// out\n        /* \"#utility.yul\":7876:8295   */\n    tag_60:\n        /* \"#utility.yul\":8042:8046   */\n      0x00\n        /* \"#utility.yul\":8080:8082   */\n      0x20\n        /* \"#utility.yul\":8069:8078   */\n      dup3\n        /* \"#utility.yul\":8065:8083   */\n      add\n        /* \"#utility.yul\":8057:8083   */\n      swap1\n      pop\n        /* \"#utility.yul\":8129:8138   */\n      dup2\n        /* \"#utility.yul\":8123:8127   */\n      dup2\n        /* \"#utility.yul\":8119:8139   */\n      sub\n        /* \"#utility.yul\":8115:8116   */\n      0x00\n        /* \"#utility.yul\":8104:8113   */\n      dup4\n        /* \"#utility.yul\":8100:8117   */\n      add\n        /* \"#utility.yul\":8093:8140   */\n      mstore\n        /* \"#utility.yul\":8157:8288   */\n      tag_310\n        /* \"#utility.yul\":8283:8287   */\n      dup2\n        /* \"#utility.yul\":8157:8288   */\n      tag_193\n      jump\t// in\n    tag_310:\n        /* \"#utility.yul\":8149:8288   */\n      swap1\n      pop\n        /* \"#utility.yul\":7876:8295   */\n      swap2\n      swap1\n      pop\n      jump\t// out\n        /* \"#utility.yul\":8301:8448   */\n    tag_194:\n        /* \"#utility.yul\":8402:8413   */\n      0x00\n        /* \"#utility.yul\":8439:8442   */\n      dup2\n        /* \"#utility.yul\":8424:8442   */\n      swap1\n      pop\n        /* \"#utility.yul\":8301:8448   */\n      swap3\n      swap2\n      pop\n      pop\n      jump\t// out\n        /* \"#utility.yul\":8454:8568   */\n    tag_195:\n      pop\n      jump\t// out\n        /* \"#utility.yul\":8574:8972   */\n    tag_196:\n        /* \"#utility.yul\":8733:8736   */\n      0x00\n        /* \"#utility.yul\":8754:8837   */\n      tag_314\n        /* \"#utility.yul\":8835:8836   */\n      0x00\n        /* \"#utility.yul\":8830:8833   */\n      dup4\n        /* \"#utility.yul\":8754:8837   */\n      tag_194\n      jump\t// in\n    tag_314:\n        /* \"#utility.yul\":8747:8837   */\n      swap2\n      pop\n        /* \"#utility.yul\":8846:8939   */\n      tag_315\n        /* \"#utility.yul\":8935:8938   */\n      dup3\n        /* \"#utility.yul\":8846:8939   */\n      tag_195\n      jump\t// in\n    tag_315:\n        /* \"#utility.yul\":8964:8965   */\n      0x00\n        /* \"#utility.yul\":8959:8962   */\n      dup3\n        /* \"#utility.yul\":8955:8966   */\n      add\n        /* \"#utility.yul\":8948:8966   */\n      swap1\n      pop\n        /* \"#utility.yul\":8574:8972   */\n      swap2\n      swap1\n      pop\n      jump\t// out\n        /* \"#utility.yul\":8978:9357   */\n    tag_62:\n        /* \"#utility.yul\":9162:9165   */\n      0x00\n        /* \"#utility.yul\":9184:9331   */\n      tag_317\n        /* \"#utility.yul\":9327:9330   */\n      dup3\n        /* \"#utility.yul\":9184:9331   */\n      tag_196\n      jump\t// in\n    tag_317:\n        /* \"#utility.yul\":9177:9331   */\n      swap2\n      pop\n        /* \"#utility.yul\":9348:9351   */\n      dup2\n        /* \"#utility.yul\":9341:9351   */\n      swap1\n      pop\n        /* \"#utility.yul\":8978:9357   */\n      swap2\n      swap1\n      pop\n      jump\t// out\n        /* \"#utility.yul\":9363:9532   */\n    tag_197:\n        /* \"#utility.yul\":9503:9524   */\n      0x455448207472616e73666572206661696c656400000000000000000000000000\n        /* \"#utility.yul\":9499:9500   */\n      0x00\n        /* \"#utility.yul\":9491:9497   */\n      dup3\n        /* \"#utility.yul\":9487:9501   */\n      add\n        /* \"#utility.yul\":9480:9525   */\n      mstore\n        /* \"#utility.yul\":9363:9532   */\n      pop\n      jump\t// out\n        /* \"#utility.yul\":9538:9904   */\n    tag_198:\n        /* \"#utility.yul\":9680:9683   */\n      0x00\n        /* \"#utility.yul\":9701:9768   */\n      tag_320\n        /* \"#utility.yul\":9765:9767   */\n      0x13\n        /* \"#utility.yul\":9760:9763   */\n      dup4\n        /* \"#utility.yul\":9701:9768   */\n      tag_169\n      jump\t// in\n    tag_320:\n        /* \"#utility.yul\":9694:9768   */\n      swap2\n      pop\n        /* \"#utility.yul\":9777:9870   */\n      tag_321\n        /* \"#utility.yul\":9866:9869   */\n      dup3\n        /* \"#utility.yul\":9777:9870   */\n      tag_197\n      jump\t// in\n    tag_321:\n        /* \"#utility.yul\":9895:9897   */\n      0x20\n        /* \"#utility.yul\":9890:9893   */\n      dup3\n        /* \"#utility.yul\":9886:9898   */\n      add\n        /* \"#utility.yul\":9879:9898   */\n      swap1\n      pop\n        /* \"#utility.yul\":9538:9904   */\n      swap2\n      swap1\n      pop\n      jump\t// out\n        /* \"#utility.yul\":9910:10329   */\n    tag_68:\n        /* \"#utility.yul\":10076:10080   */\n      0x00\n        /* \"#utility.yul\":10114:10116   */\n      0x20\n        /* \"#utility.yul\":10103:10112   */\n      dup3\n        /* \"#utility.yul\":10099:10117   */\n      add\n        /* \"#utility.yul\":10091:10117   */\n      swap1\n      pop\n        /* \"#utility.yul\":10163:10172   */\n      dup2\n        /* \"#utility.yul\":10157:10161   */\n      dup2\n        /* \"#utility.yul\":10153:10173   */\n      sub\n        /* \"#utility.yul\":10149:10150   */\n      0x00\n        /* \"#utility.yul\":10138:10147   */\n      dup4\n        /* \"#utility.yul\":10134:10151   */\n      add\n        /* \"#utility.yul\":10127:10174   */\n      mstore\n        /* \"#utility.yul\":10191:10322   */\n      tag_323\n        /* \"#utility.yul\":10317:10321   */\n      dup2\n        /* \"#utility.yul\":10191:10322   */\n      tag_198\n      jump\t// in\n    tag_323:\n        /* \"#utility.yul\":10183:10322   */\n      swap1\n      pop\n        /* \"#utility.yul\":9910:10329   */\n      swap2\n      swap1\n      pop\n      jump\t// out\n        /* \"#utility.yul\":10335:10506   */\n    tag_199:\n        /* \"#utility.yul\":10475:10498   */\n      0x5661756c7420616c726561647920637265617465640000000000000000000000\n        /* \"#utility.yul\":10471:10472   */\n      0x00\n        /* \"#utility.yul\":10463:10469   */\n      dup3\n        /* \"#utility.yul\":10459:10473   */\n      add\n        /* \"#utility.yul\":10452:10499   */\n      mstore\n        /* \"#utility.yul\":10335:10506   */\n      pop\n      jump\t// out\n        /* \"#utility.yul\":10512:10878   */\n    tag_200:\n        /* \"#utility.yul\":10654:10657   */\n      0x00\n        /* \"#utility.yul\":10675:10742   */\n      tag_326\n        /* \"#utility.yul\":10739:10741   */\n      0x15\n        /* \"#utility.yul\":10734:10737   */\n      dup4\n        /* \"#utility.yul\":10675:10742   */\n      tag_169\n      jump\t// in\n    tag_326:\n        /* \"#utility.yul\":10668:10742   */\n      swap2\n      pop\n        /* \"#utility.yul\":10751:10844   */\n      tag_327\n        /* \"#utility.yul\":10840:10843   */\n      dup3\n        /* \"#utility.yul\":10751:10844   */\n      tag_199\n      jump\t// in\n    tag_327:\n        /* \"#utility.yul\":10869:10871   */\n      0x20\n        /* \"#utility.yul\":10864:10867   */\n      dup3\n        /* \"#utility.yul\":10860:10872   */\n      add\n        /* \"#utility.yul\":10853:10872   */\n      swap1\n      pop\n        /* \"#utility.yul\":10512:10878   */\n      swap2\n      swap1\n      pop\n      jump\t// out\n        /* \"#utility.yul\":10884:11303   */\n    tag_72:\n        /* \"#utility.yul\":11050:11054   */\n      0x00\n        /* \"#utility.yul\":11088:11090   */\n      0x20\n        /* \"#utility.yul\":11077:11086   */\n      dup3\n        /* \"#utility.yul\":11073:11091   */\n      add\n        /* \"#utility.yul\":11065:11091   */\n      swap1\n      pop\n        /* \"#utility.yul\":11137:11146   */\n      dup2\n        /* \"#utility.yul\":11131:11135   */\n      dup2\n        /* \"#utility.yul\":11127:11147   */\n      sub\n        /* \"#utility.yul\":11123:11124   */\n      0x00\n        /* \"#utility.yul\":11112:11121   */\n      dup4\n        /* \"#utility.yul\":11108:11125   */\n      add\n        /* \"#utility.yul\":11101:11148   */\n      mstore\n        /* \"#utility.yul\":11165:11296   */\n      tag_329\n        /* \"#utility.yul\":11291:11295   */\n      dup2\n        /* \"#utility.yul\":11165:11296   */\n      tag_200\n      jump\t// in\n    tag_329:\n        /* \"#utility.yul\":11157:11296   */\n      swap1\n      pop\n        /* \"#utility.yul\":10884:11303   */\n      swap2\n      swap1\n      pop\n      jump\t// out\n        /* \"#utility.yul\":11309:11481   */\n    tag_201:\n        /* \"#utility.yul\":11449:11473   */\n      0x457861637420302e312045544820726571756972656400000000000000000000\n        /* \"#utility.yul\":11445:11446   */\n      0x00\n        /* \"#utility.yul\":11437:11443   */\n      dup3\n        /* \"#utility.yul\":11433:11447   */\n      add\n        /* \"#utility.yul\":11426:11474   */\n      mstore\n        /* \"#utility.yul\":11309:11481   */\n      pop\n      jump\t// out\n        /* \"#utility.yul\":11487:11853   */\n    tag_202:\n        /* \"#utility.yul\":11629:11632   */\n      0x00\n        /* \"#utility.yul\":11650:11717   */\n      tag_332\n        /* \"#utility.yul\":11714:11716   */\n      0x16\n        /* \"#utility.yul\":11709:11712   */\n      dup4\n        /* \"#utility.yul\":11650:11717   */\n      tag_169\n      jump\t// in\n    tag_332:\n        /* \"#utility.yul\":11643:11717   */\n      swap2\n      pop\n        /* \"#utility.yul\":11726:11819   */\n      tag_333\n        /* \"#utility.yul\":11815:11818   */\n      dup3\n        /* \"#utility.yul\":11726:11819   */\n      tag_201\n      jump\t// in\n    tag_333:\n        /* \"#utility.yul\":11844:11846   */\n      0x20\n        /* \"#utility.yul\":11839:11842   */\n      dup3\n        /* \"#utility.yul\":11835:11847   */\n      add\n        /* \"#utility.yul\":11828:11847   */\n      swap1\n      pop\n        /* \"#utility.yul\":11487:11853   */\n      swap2\n      swap1\n      pop\n      jump\t// out\n        /* \"#utility.yul\":11859:12278   */\n    tag_75:\n        /* \"#utility.yul\":12025:12029   */\n      0x00\n        /* \"#utility.yul\":12063:12065   */\n      0x20\n        /* \"#utility.yul\":12052:12061   */\n      dup3\n        /* \"#utility.yul\":12048:12066   */\n      add\n        /* \"#utility.yul\":12040:12066   */\n      swap1\n      pop\n        /* \"#utility.yul\":12112:12121   */\n      dup2\n        /* \"#utility.yul\":12106:12110   */\n      dup2\n        /* \"#utility.yul\":12102:12122   */\n      sub\n        /* \"#utility.yul\":12098:12099   */\n      0x00\n        /* \"#utility.yul\":12087:12096   */\n      dup4\n        /* \"#utility.yul\":12083:12100   */\n      add\n        /* \"#utility.yul\":12076:12123   */\n      mstore\n        /* \"#utility.yul\":12140:12271   */\n      tag_335\n        /* \"#utility.yul\":12266:12270   */\n      dup2\n        /* \"#utility.yul\":12140:12271   */\n      tag_202\n      jump\t// in\n    tag_335:\n        /* \"#utility.yul\":12132:12271   */\n      swap1\n      pop\n        /* \"#utility.yul\":11859:12278   */\n      swap2\n      swap1\n      pop\n      jump\t// out\n        /* \"#utility.yul\":12284:12454   */\n    tag_203:\n        /* \"#utility.yul\":12424:12446   */\n      0x5661756c7420646f6573206e6f74206578697374000000000000000000000000\n        /* \"#utility.yul\":12420:12421   */\n      0x00\n        /* \"#utility.yul\":12412:12418   */\n      dup3\n        /* \"#utility.yul\":12408:12422   */\n      add\n        /* \"#utility.yul\":12401:12447   */\n      mstore\n        /* \"#utility.yul\":12284:12454   */\n      pop\n      jump\t// out\n        /* \"#utility.yul\":12460:12826   */\n    tag_204:\n        /* \"#utility.yul\":12602:12605   */\n      0x00\n        /* \"#utility.yul\":12623:12690   */\n      tag_338\n        /* \"#utility.yul\":12687:12689   */\n      0x14\n        /* \"#utility.yul\":12682:12685   */\n      dup4\n        /* \"#utility.yul\":12623:12690   */\n      tag_169\n      jump\t// in\n    tag_338:\n        /* \"#utility.yul\":12616:12690   */\n      swap2\n      pop\n        /* \"#utility.yul\":12699:12792   */\n      tag_339\n        /* \"#utility.yul\":12788:12791   */\n      dup3\n        /* \"#utility.yul\":12699:12792   */\n      tag_203\n      jump\t// in\n    tag_339:\n        /* \"#utility.yul\":12817:12819   */\n      0x20\n        /* \"#utility.yul\":12812:12815   */\n      dup3\n        /* \"#utility.yul\":12808:12820   */\n      add\n        /* \"#utility.yul\":12801:12820   */\n      swap1\n      pop\n        /* \"#utility.yul\":12460:12826   */\n      swap2\n      swap1\n      pop\n      jump\t// out\n        /* \"#utility.yul\":12832:13251   */\n    tag_87:\n        /* \"#utility.yul\":12998:13002   */\n      0x00\n        /* \"#utility.yul\":13036:13038   */\n      0x20\n        /* \"#utility.yul\":13025:13034   */\n      dup3\n        /* \"#utility.yul\":13021:13039   */\n      add\n        /* \"#utility.yul\":13013:13039   */\n      swap1\n      pop\n        /* \"#utility.yul\":13085:13094   */\n      dup2\n        /* \"#utility.yul\":13079:13083   */\n      dup2\n        /* \"#utility.yul\":13075:13095   */\n      sub\n        /* \"#utility.yul\":13071:13072   */\n      0x00\n        /* \"#utility.yul\":13060:13069   */\n      dup4\n        /* \"#utility.yul\":13056:13073   */\n      add\n        /* \"#utility.yul\":13049:13096   */\n      mstore\n        /* \"#utility.yul\":13113:13244   */\n      tag_341\n        /* \"#utility.yul\":13239:13243   */\n      dup2\n        /* \"#utility.yul\":13113:13244   */\n      tag_204\n      jump\t// in\n    tag_341:\n        /* \"#utility.yul\":13105:13244   */\n      swap1\n      pop\n        /* \"#utility.yul\":12832:13251   */\n      swap2\n      swap1\n      pop\n      jump\t// out\n        /* \"#utility.yul\":13257:13482   */\n    tag_205:\n        /* \"#utility.yul\":13397:13431   */\n      0x526563697069656e747320616e6420616d6f756e7473206c656e677468206d69\n        /* \"#utility.yul\":13393:13394   */\n      0x00\n        /* \"#utility.yul\":13385:13391   */\n      dup3\n        /* \"#utility.yul\":13381:13395   */\n      add\n        /* \"#utility.yul\":13374:13432   */\n      mstore\n        /* \"#utility.yul\":13466:13474   */\n      0x736d617463680000000000000000000000000000000000000000000000000000\n        /* \"#utility.yul\":13461:13463   */\n      0x20\n        /* \"#utility.yul\":13453:13459   */\n      dup3\n        /* \"#utility.yul\":13449:13464   */\n      add\n        /* \"#utility.yul\":13442:13475   */\n      mstore\n        /* \"#utility.yul\":13257:13482   */\n      pop\n      jump\t// out\n        /* \"#utility.yul\":13488:13854   */\n    tag_206:\n        /* \"#utility.yul\":13630:13633   */\n      0x00\n        /* \"#utility.yul\":13651:13718   */\n      tag_344\n        /* \"#utility.yul\":13715:13717   */\n      0x26\n        /* \"#utility.yul\":13710:13713   */\n      dup4\n        /* \"#utility.yul\":13651:13718   */\n      tag_169\n      jump\t// in\n    tag_344:\n        /* \"#utility.yul\":13644:13718   */\n      swap2\n      pop\n        /* \"#utility.yul\":13727:13820   */\n      tag_345\n        /* \"#utility.yul\":13816:13819   */\n      dup3\n        /* \"#utility.yul\":13727:13820   */\n      tag_205\n      jump\t// in\n    tag_345:\n        /* \"#utility.yul\":13845:13847   */\n      0x40\n        /* \"#utility.yul\":13840:13843   */\n      dup3\n        /* \"#utility.yul\":13836:13848   */\n      add\n        /* \"#utility.yul\":13829:13848   */\n      swap1\n      pop\n        /* \"#utility.yul\":13488:13854   */\n      swap2\n      swap1\n      pop\n      jump\t// out\n        /* \"#utility.yul\":13860:14279   */\n    tag_90:\n        /* \"#utility.yul\":14026:14030   */\n      0x00\n        /* \"#utility.yul\":14064:14066   */\n      0x20\n        /* \"#utility.yul\":14053:14062   */\n      dup3\n        /* \"#utility.yul\":14049:14067   */\n      add\n        /* \"#utility.yul\":14041:14067   */\n      swap1\n      pop\n        /* \"#utility.yul\":14113:14122   */\n      dup2\n        /* \"#utility.yul\":14107:14111   */\n      dup2\n        /* \"#utility.yul\":14103:14123   */\n      sub\n        /* \"#utility.yul\":14099:14100   */\n      0x00\n        /* \"#utility.yul\":14088:14097   */\n      dup4\n        /* \"#utility.yul\":14084:14101   */\n      add\n        /* \"#utility.yul\":14077:14124   */\n      mstore\n        /* \"#utility.yul\":14141:14272   */\n      tag_347\n        /* \"#utility.yul\":14267:14271   */\n      dup2\n        /* \"#utility.yul\":14141:14272   */\n      tag_206\n      jump\t// in\n    tag_347:\n        /* \"#utility.yul\":14133:14272   */\n      swap1\n      pop\n        /* \"#utility.yul\":13860:14279   */\n      swap2\n      swap1\n      pop\n      jump\t// out\n        /* \"#utility.yul\":14285:14465   */\n    tag_96:\n        /* \"#utility.yul\":14333:14410   */\n      0x4e487b7100000000000000000000000000000000000000000000000000000000\n        /* \"#utility.yul\":14330:14331   */\n      0x00\n        /* \"#utility.yul\":14323:14411   */\n      mstore\n        /* \"#utility.yul\":14430:14434   */\n      0x32\n        /* \"#utility.yul\":14427:14428   */\n      0x04\n        /* \"#utility.yul\":14420:14435   */\n      mstore\n        /* \"#utility.yul\":14454:14458   */\n      0x24\n        /* \"#utility.yul\":14451:14452   */\n      0x00\n        /* \"#utility.yul\":14444:14459   */\n      revert\n        /* \"#utility.yul\":14471:14651   */\n    tag_207:\n        /* \"#utility.yul\":14519:14596   */\n      0x4e487b7100000000000000000000000000000000000000000000000000000000\n        /* \"#utility.yul\":14516:14517   */\n      0x00\n        /* \"#utility.yul\":14509:14597   */\n      mstore\n        /* \"#utility.yul\":14616:14620   */\n      0x11\n        /* \"#utility.yul\":14613:14614   */\n      0x04\n        /* \"#utility.yul\":14606:14621   */\n      mstore\n        /* \"#utility.yul\":14640:14644   */\n      0x24\n        /* \"#utility.yul\":14637:14638   */\n      0x00\n        /* \"#utility.yul\":14630:14645   */\n      revert\n        /* \"#utility.yul\":14657:14848   */\n    tag_98:\n        /* \"#utility.yul\":14697:14700   */\n      0x00\n        /* \"#utility.yul\":14716:14736   */\n      tag_351\n        /* \"#utility.yul\":14734:14735   */\n      dup3\n        /* \"#utility.yul\":14716:14736   */\n      tag_172\n      jump\t// in\n    tag_351:\n        /* \"#utility.yul\":14711:14736   */\n      swap2\n      pop\n        /* \"#utility.yul\":14750:14770   */\n      tag_352\n        /* \"#utility.yul\":14768:14769   */\n      dup4\n        /* \"#utility.yul\":14750:14770   */\n      tag_172\n      jump\t// in\n    tag_352:\n        /* \"#utility.yul\":14745:14770   */\n      swap3\n      pop\n        /* \"#utility.yul\":14793:14794   */\n      dup3\n        /* \"#utility.yul\":14790:14791   */\n      dup3\n        /* \"#utility.yul\":14786:14795   */\n      add\n        /* \"#utility.yul\":14779:14795   */\n      swap1\n      pop\n        /* \"#utility.yul\":14814:14817   */\n      dup1\n        /* \"#utility.yul\":14811:14812   */\n      dup3\n        /* \"#utility.yul\":14808:14818   */\n      gt\n        /* \"#utility.yul\":14805:14841   */\n      iszero\n      tag_353\n      jumpi\n        /* \"#utility.yul\":14821:14839   */\n      tag_354\n      tag_207\n      jump\t// in\n    tag_354:\n        /* \"#utility.yul\":14805:14841   */\n    tag_353:\n        /* \"#utility.yul\":14657:14848   */\n      swap3\n      swap2\n      pop\n      pop\n      jump\t// out\n        /* \"#utility.yul\":14854:15029   */\n    tag_208:\n        /* \"#utility.yul\":14994:15021   */\n      0x496e73756666696369656e742045544820696e207661756c7400000000000000\n        /* \"#utility.yul\":14990:14991   */\n      0x00\n        /* \"#utility.yul\":14982:14988   */\n      dup3\n        /* \"#utility.yul\":14978:14992   */\n      add\n        /* \"#utility.yul\":14971:15022   */\n      mstore\n        /* \"#utility.yul\":14854:15029   */\n      pop\n      jump\t// out\n        /* \"#utility.yul\":15035:15401   */\n    tag_209:\n        /* \"#utility.yul\":15177:15180   */\n      0x00\n        /* \"#utility.yul\":15198:15265   */\n      tag_357\n        /* \"#utility.yul\":15262:15264   */\n      0x19\n        /* \"#utility.yul\":15257:15260   */\n      dup4\n        /* \"#utility.yul\":15198:15265   */\n      tag_169\n      jump\t// in\n    tag_357:\n        /* \"#utility.yul\":15191:15265   */\n      swap2\n      pop\n        /* \"#utility.yul\":15274:15367   */\n      tag_358\n        /* \"#utility.yul\":15363:15366   */\n      dup3\n        /* \"#utility.yul\":15274:15367   */\n      tag_208\n      jump\t// in\n    tag_358:\n        /* \"#utility.yul\":15392:15394   */\n      0x20\n        /* \"#utility.yul\":15387:15390   */\n      dup3\n        /* \"#utility.yul\":15383:15395   */\n      add\n        /* \"#utility.yul\":15376:15395   */\n      swap1\n      pop\n        /* \"#utility.yul\":15035:15401   */\n      swap2\n      swap1\n      pop\n      jump\t// out\n        /* \"#utility.yul\":15407:15826   */\n    tag_101:\n        /* \"#utility.yul\":15573:15577   */\n      0x00\n        /* \"#utility.yul\":15611:15613   */\n      0x20\n        /* \"#utility.yul\":15600:15609   */\n      dup3\n        /* \"#utility.yul\":15596:15614   */\n      add\n        /* \"#utility.yul\":15588:15614   */\n      swap1\n      pop\n        /* \"#utility.yul\":15660:15669   */\n      dup2\n        /* \"#utility.yul\":15654:15658   */\n      dup2\n        /* \"#utility.yul\":15650:15670   */\n      sub\n        /* \"#utility.yul\":15646:15647   */\n      0x00\n        /* \"#utility.yul\":15635:15644   */\n      dup4\n        /* \"#utility.yul\":15631:15648   */\n      add\n        /* \"#utility.yul\":15624:15671   */\n      mstore\n        /* \"#utility.yul\":15688:15819   */\n      tag_360\n        /* \"#utility.yul\":15814:15818   */\n      dup2\n        /* \"#utility.yul\":15688:15819   */\n      tag_209\n      jump\t// in\n    tag_360:\n        /* \"#utility.yul\":15680:15819   */\n      swap1\n      pop\n        /* \"#utility.yul\":15407:15826   */\n      swap2\n      swap1\n      pop\n      jump\t// out\n        /* \"#utility.yul\":15832:16026   */\n    tag_103:\n        /* \"#utility.yul\":15872:15876   */\n      0x00\n        /* \"#utility.yul\":15892:15912   */\n      tag_362\n        /* \"#utility.yul\":15910:15911   */\n      dup3\n        /* \"#utility.yul\":15892:15912   */\n      tag_172\n      jump\t// in\n    tag_362:\n        /* \"#utility.yul\":15887:15912   */\n      swap2\n      pop\n        /* \"#utility.yul\":15926:15946   */\n      tag_363\n        /* \"#utility.yul\":15944:15945   */\n      dup4\n        /* \"#utility.yul\":15926:15946   */\n      tag_172\n      jump\t// in\n    tag_363:\n        /* \"#utility.yul\":15921:15946   */\n      swap3\n      pop\n        /* \"#utility.yul\":15970:15971   */\n      dup3\n        /* \"#utility.yul\":15967:15968   */\n      dup3\n        /* \"#utility.yul\":15963:15972   */\n      sub\n        /* \"#utility.yul\":15955:15972   */\n      swap1\n      pop\n        /* \"#utility.yul\":15994:15995   */\n      dup2\n        /* \"#utility.yul\":15988:15992   */\n      dup2\n        /* \"#utility.yul\":15985:15996   */\n      gt\n        /* \"#utility.yul\":15982:16019   */\n      iszero\n      tag_364\n      jumpi\n        /* \"#utility.yul\":15999:16017   */\n      tag_365\n      tag_207\n      jump\t// in\n    tag_365:\n        /* \"#utility.yul\":15982:16019   */\n    tag_364:\n        /* \"#utility.yul\":15832:16026   */\n      swap3\n      swap2\n      pop\n      pop\n      jump\t// out\n        /* \"#utility.yul\":16032:16216   */\n    tag_210:\n        /* \"#utility.yul\":16131:16142   */\n      0x00\n        /* \"#utility.yul\":16165:16171   */\n      dup3\n        /* \"#utility.yul\":16160:16163   */\n      dup3\n        /* \"#utility.yul\":16153:16172   */\n      mstore\n        /* \"#utility.yul\":16205:16209   */\n      0x20\n        /* \"#utility.yul\":16200:16203   */\n      dup3\n        /* \"#utility.yul\":16196:16210   */\n      add\n        /* \"#utility.yul\":16181:16210   */\n      swap1\n      pop\n        /* \"#utility.yul\":16032:16216   */\n      swap3\n      swap2\n      pop\n      pop\n      jump\t// out\n        /* \"#utility.yul\":16222:16324   */\n    tag_211:\n        /* \"#utility.yul\":16291:16295   */\n      0x00\n        /* \"#utility.yul\":16314:16317   */\n      dup2\n        /* \"#utility.yul\":16306:16317   */\n      swap1\n      pop\n        /* \"#utility.yul\":16222:16324   */\n      swap2\n      swap1\n      pop\n      jump\t// out\n        /* \"#utility.yul\":16330:16438   */\n    tag_212:\n        /* \"#utility.yul\":16407:16431   */\n      tag_369\n        /* \"#utility.yul\":16425:16430   */\n      dup2\n        /* \"#utility.yul\":16407:16431   */\n      tag_178\n      jump\t// in\n    tag_369:\n        /* \"#utility.yul\":16402:16405   */\n      dup3\n        /* \"#utility.yul\":16395:16432   */\n      mstore\n        /* \"#utility.yul\":16330:16438   */\n      pop\n      pop\n      jump\t// out\n        /* \"#utility.yul\":16444:16623   */\n    tag_213:\n        /* \"#utility.yul\":16513:16523   */\n      0x00\n        /* \"#utility.yul\":16534:16580   */\n      tag_371\n        /* \"#utility.yul\":16576:16579   */\n      dup4\n        /* \"#utility.yul\":16568:16574   */\n      dup4\n        /* \"#utility.yul\":16534:16580   */\n      tag_212\n      jump\t// in\n    tag_371:\n        /* \"#utility.yul\":16612:16616   */\n      0x20\n        /* \"#utility.yul\":16607:16610   */\n      dup4\n        /* \"#utility.yul\":16603:16617   */\n      add\n        /* \"#utility.yul\":16589:16617   */\n      swap1\n      pop\n        /* \"#utility.yul\":16444:16623   */\n      swap3\n      swap2\n      pop\n      pop\n      jump\t// out\n        /* \"#utility.yul\":16629:16751   */\n    tag_214:\n        /* \"#utility.yul\":16681:16686   */\n      0x00\n        /* \"#utility.yul\":16706:16745   */\n      tag_373\n        /* \"#utility.yul\":16741:16743   */\n      0x20\n        /* \"#utility.yul\":16736:16739   */\n      dup5\n        /* \"#utility.yul\":16732:16744   */\n      add\n        /* \"#utility.yul\":16727:16730   */\n      dup5\n        /* \"#utility.yul\":16706:16745   */\n      tag_180\n      jump\t// in\n    tag_373:\n        /* \"#utility.yul\":16697:16745   */\n      swap1\n      pop\n        /* \"#utility.yul\":16629:16751   */\n      swap3\n      swap2\n      pop\n      pop\n      jump\t// out\n        /* \"#utility.yul\":16757:16872   */\n    tag_215:\n        /* \"#utility.yul\":16829:16833   */\n      0x00\n        /* \"#utility.yul\":16861:16865   */\n      0x20\n        /* \"#utility.yul\":16856:16859   */\n      dup3\n        /* \"#utility.yul\":16852:16866   */\n      add\n        /* \"#utility.yul\":16844:16866   */\n      swap1\n      pop\n        /* \"#utility.yul\":16757:16872   */\n      swap2\n      swap1\n      pop\n      jump\t// out\n        /* \"#utility.yul\":16908:17607   */\n    tag_216:\n        /* \"#utility.yul\":17037:17040   */\n      0x00\n        /* \"#utility.yul\":17060:17146   */\n      tag_376\n        /* \"#utility.yul\":17139:17145   */\n      dup4\n        /* \"#utility.yul\":17134:17137   */\n      dup6\n        /* \"#utility.yul\":17060:17146   */\n      tag_210\n      jump\t// in\n    tag_376:\n        /* \"#utility.yul\":17053:17146   */\n      swap4\n      pop\n        /* \"#utility.yul\":17170:17228   */\n      tag_377\n        /* \"#utility.yul\":17222:17227   */\n      dup3\n        /* \"#utility.yul\":17170:17228   */\n      tag_211\n      jump\t// in\n    tag_377:\n        /* \"#utility.yul\":17251:17258   */\n      dup1\n        /* \"#utility.yul\":17282:17283   */\n      0x00\n        /* \"#utility.yul\":17267:17582   */\n    tag_378:\n        /* \"#utility.yul\":17292:17298   */\n      dup6\n        /* \"#utility.yul\":17289:17290   */\n      dup2\n        /* \"#utility.yul\":17286:17299   */\n      lt\n        /* \"#utility.yul\":17267:17582   */\n      iszero\n      tag_380\n      jumpi\n        /* \"#utility.yul\":17362:17404   */\n      tag_381\n        /* \"#utility.yul\":17397:17403   */\n      dup3\n        /* \"#utility.yul\":17388:17395   */\n      dup5\n        /* \"#utility.yul\":17362:17404   */\n      tag_214\n      jump\t// in\n    tag_381:\n        /* \"#utility.yul\":17424:17487   */\n      tag_382\n        /* \"#utility.yul\":17483:17486   */\n      dup9\n        /* \"#utility.yul\":17468:17481   */\n      dup3\n        /* \"#utility.yul\":17424:17487   */\n      tag_213\n      jump\t// in\n    tag_382:\n        /* \"#utility.yul\":17417:17487   */\n      swap8\n      pop\n        /* \"#utility.yul\":17510:17572   */\n      tag_383\n        /* \"#utility.yul\":17565:17571   */\n      dup4\n        /* \"#utility.yul\":17510:17572   */\n      tag_215\n      jump\t// in\n    tag_383:\n        /* \"#utility.yul\":17500:17572   */\n      swap3\n      pop\n        /* \"#utility.yul\":17327:17582   */\n      pop\n        /* \"#utility.yul\":17314:17315   */\n      0x01\n        /* \"#utility.yul\":17311:17312   */\n      dup2\n        /* \"#utility.yul\":17307:17316   */\n      add\n        /* \"#utility.yul\":17302:17316   */\n      swap1\n      pop\n        /* \"#utility.yul\":17267:17582   */\n      jump(tag_378)\n    tag_380:\n        /* \"#utility.yul\":17271:17285   */\n      pop\n        /* \"#utility.yul\":17598:17601   */\n      dup6\n        /* \"#utility.yul\":17591:17601   */\n      swap3\n      pop\n        /* \"#utility.yul\":17042:17607   */\n      pop\n      pop\n        /* \"#utility.yul\":16908:17607   */\n      swap4\n      swap3\n      pop\n      pop\n      pop\n      jump\t// out\n        /* \"#utility.yul\":17613:17797   */\n    tag_217:\n        /* \"#utility.yul\":17712:17723   */\n      0x00\n        /* \"#utility.yul\":17746:17752   */\n      dup3\n        /* \"#utility.yul\":17741:17744   */\n      dup3\n        /* \"#utility.yul\":17734:17753   */\n      mstore\n        /* \"#utility.yul\":17786:17790   */\n      0x20\n        /* \"#utility.yul\":17781:17784   */\n      dup3\n        /* \"#utility.yul\":17777:17791   */\n      add\n        /* \"#utility.yul\":17762:17791   */\n      swap1\n      pop\n        /* \"#utility.yul\":17613:17797   */\n      swap3\n      swap2\n      pop\n      pop\n      jump\t// out\n        /* \"#utility.yul\":17803:17920   */\n    tag_218:\n        /* \"#utility.yul\":17912:17913   */\n      0x00\n        /* \"#utility.yul\":17909:17910   */\n      0x00\n        /* \"#utility.yul\":17902:17914   */\n      revert\n        /* \"#utility.yul\":17926:18025   */\n    tag_219:\n        /* \"#utility.yul\":18011:18017   */\n      dup3\n        /* \"#utility.yul\":18006:18009   */\n      dup2\n        /* \"#utility.yul\":18001:18004   */\n      dup4\n        /* \"#utility.yul\":17988:18018   */\n      calldatacopy\n        /* \"#utility.yul\":17926:18025   */\n      pop\n      pop\n      pop\n      jump\t// out\n        /* \"#utility.yul\":18061:18598   */\n    tag_220:\n        /* \"#utility.yul\":18189:18192   */\n      0x00\n        /* \"#utility.yul\":18210:18296   */\n      tag_388\n        /* \"#utility.yul\":18289:18295   */\n      dup4\n        /* \"#utility.yul\":18284:18287   */\n      dup6\n        /* \"#utility.yul\":18210:18296   */\n      tag_217\n      jump\t// in\n    tag_388:\n        /* \"#utility.yul\":18203:18296   */\n      swap4\n      pop\n        /* \"#utility.yul\":18320:18386   */\n      0x07ffffffffffffffffffffffffffffffffffffffffffffffffffffffffffffff\n        /* \"#utility.yul\":18312:18318   */\n      dup4\n        /* \"#utility.yul\":18309:18387   */\n      gt\n        /* \"#utility.yul\":18306:18471   */\n      iszero\n      tag_389\n      jumpi\n        /* \"#utility.yul\":18390:18469   */\n      tag_390\n      tag_218\n      jump\t// in\n    tag_390:\n        /* \"#utility.yul\":18306:18471   */\n    tag_389:\n        /* \"#utility.yul\":18502:18506   */\n      0x20\n        /* \"#utility.yul\":18494:18500   */\n      dup4\n        /* \"#utility.yul\":18490:18507   */\n      mul\n        /* \"#utility.yul\":18480:18507   */\n      swap3\n      pop\n        /* \"#utility.yul\":18517:18560   */\n      tag_391\n        /* \"#utility.yul\":18553:18559   */\n      dup4\n        /* \"#utility.yul\":18548:18551   */\n      dup6\n        /* \"#utility.yul\":18541:18546   */\n      dup5\n        /* \"#utility.yul\":18517:18560   */\n      tag_219\n      jump\t// in\n    tag_391:\n        /* \"#utility.yul\":18585:18591   */\n      dup3\n        /* \"#utility.yul\":18580:18583   */\n      dup5\n        /* \"#utility.yul\":18576:18592   */\n      add\n        /* \"#utility.yul\":18569:18592   */\n      swap1\n      pop\n        /* \"#utility.yul\":18061:18598   */\n      swap4\n      swap3\n      pop\n      pop\n      pop\n      jump\t// out\n        /* \"#utility.yul\":18604:19278   */\n    tag_119:\n        /* \"#utility.yul\":18845:18849   */\n      0x00\n        /* \"#utility.yul\":18883:18885   */\n      0x40\n        /* \"#utility.yul\":18872:18881   */\n      dup3\n        /* \"#utility.yul\":18868:18886   */\n      add\n        /* \"#utility.yul\":18860:18886   */\n      swap1\n      pop\n        /* \"#utility.yul\":18932:18941   */\n      dup2\n        /* \"#utility.yul\":18926:18930   */\n      dup2\n        /* \"#utility.yul\":18922:18942   */\n      sub\n        /* \"#utility.yul\":18918:18919   */\n      0x00\n        /* \"#utility.yul\":18907:18916   */\n      dup4\n        /* \"#utility.yul\":18903:18920   */\n      add\n        /* \"#utility.yul\":18896:18943   */\n      mstore\n        /* \"#utility.yul\":18960:19078   */\n      tag_393\n        /* \"#utility.yul\":19073:19077   */\n      dup2\n        /* \"#utility.yul\":19064:19070   */\n      dup7\n        /* \"#utility.yul\":19056:19062   */\n      dup9\n        /* \"#utility.yul\":18960:19078   */\n      tag_216\n      jump\t// in\n    tag_393:\n        /* \"#utility.yul\":18952:19078   */\n      swap1\n      pop\n        /* \"#utility.yul\":19125:19134   */\n      dup2\n        /* \"#utility.yul\":19119:19123   */\n      dup2\n        /* \"#utility.yul\":19115:19135   */\n      sub\n        /* \"#utility.yul\":19110:19112   */\n      0x20\n        /* \"#utility.yul\":19099:19108   */\n      dup4\n        /* \"#utility.yul\":19095:19113   */\n      add\n        /* \"#utility.yul\":19088:19136   */\n      mstore\n        /* \"#utility.yul\":19153:19271   */\n      tag_394\n        /* \"#utility.yul\":19266:19270   */\n      dup2\n        /* \"#utility.yul\":19257:19263   */\n      dup5\n        /* \"#utility.yul\":19249:19255   */\n      dup7\n        /* \"#utility.yul\":19153:19271   */\n      tag_220\n      jump\t// in\n    tag_394:\n        /* \"#utility.yul\":19145:19271   */\n      swap1\n      pop\n        /* \"#utility.yul\":18604:19278   */\n      swap6\n      swap5\n      pop\n      pop\n      pop\n      pop\n      pop\n      jump\t// out\n        /* \"#utility.yul\":19284:19450   */\n    tag_221:\n        /* \"#utility.yul\":19424:19442   */\n      0x496e73756666696369656e742045544800000000000000000000000000000000\n        /* \"#utility.yul\":19420:19421   */\n      0x00\n        /* \"#utility.yul\":19412:19418   */\n      dup3\n        /* \"#utility.yul\":19408:19422   */\n      add\n        /* \"#utility.yul\":19401:19443   */\n      mstore\n        /* \"#utility.yul\":19284:19450   */\n      pop\n      jump\t// out\n        /* \"#utility.yul\":19456:19822   */\n    tag_222:\n        /* \"#utility.yul\":19598:19601   */\n      0x00\n        /* \"#utility.yul\":19619:19686   */\n      tag_397\n        /* \"#utility.yul\":19683:19685   */\n      0x10\n        /* \"#utility.yul\":19678:19681   */\n      dup4\n        /* \"#utility.yul\":19619:19686   */\n      tag_169\n      jump\t// in\n    tag_397:\n        /* \"#utility.yul\":19612:19686   */\n      swap2\n      pop\n        /* \"#utility.yul\":19695:19788   */\n      tag_398\n        /* \"#utility.yul\":19784:19787   */\n      dup3\n        /* \"#utility.yul\":19695:19788   */\n      tag_221\n      jump\t// in\n    tag_398:\n        /* \"#utility.yul\":19813:19815   */\n      0x20\n        /* \"#utility.yul\":19808:19811   */\n      dup3\n        /* \"#utility.yul\":19804:19816   */\n      add\n        /* \"#utility.yul\":19797:19816   */\n      swap1\n      pop\n        /* \"#utility.yul\":19456:19822   */\n      swap2\n      swap1\n      pop\n      jump\t// out\n        /* \"#utility.yul\":19828:20247   */\n    tag_131:\n        /* \"#utility.yul\":19994:19998   */\n      0x00\n        /* \"#utility.yul\":20032:20034   */\n      0x20\n        /* \"#utility.yul\":20021:20030   */\n      dup3\n        /* \"#utility.yul\":20017:20035   */\n      add\n        /* \"#utility.yul\":20009:20035   */\n      swap1\n      pop\n        /* \"#utility.yul\":20081:20090   */\n      dup2\n        /* \"#utility.yul\":20075:20079   */\n      dup2\n        /* \"#utility.yul\":20071:20091   */\n      sub\n        /* \"#utility.yul\":20067:20068   */\n      0x00\n        /* \"#utility.yul\":20056:20065   */\n      dup4\n        /* \"#utility.yul\":20052:20069   */\n      add\n        /* \"#utility.yul\":20045:20092   */\n      mstore\n        /* \"#utility.yul\":20109:20240   */\n      tag_400\n        /* \"#utility.yul\":20235:20239   */\n      dup2\n        /* \"#utility.yul\":20109:20240   */\n      tag_222\n      jump\t// in\n    tag_400:\n        /* \"#utility.yul\":20101:20240   */\n      swap1\n      pop\n        /* \"#utility.yul\":19828:20247   */\n      swap2\n      swap1\n      pop\n      jump\t// out\n        /* \"#utility.yul\":20253:20421   */\n    tag_223:\n        /* \"#utility.yul\":20393:20413   */\n      0x437265617465207661756c742066697273740000000000000000000000000000\n        /* \"#utility.yul\":20389:20390   */\n      0x00\n        /* \"#utility.yul\":20381:20387   */\n      dup3\n        /* \"#utility.yul\":20377:20391   */\n      add\n        /* \"#utility.yul\":20370:20414   */\n      mstore\n        /* \"#utility.yul\":20253:20421   */\n      pop\n      jump\t// out\n        /* \"#utility.yul\":20427:20793   */\n    tag_224:\n        /* \"#utility.yul\":20569:20572   */\n      0x00\n        /* \"#utility.yul\":20590:20657   */\n      tag_403\n        /* \"#utility.yul\":20654:20656   */\n      0x12\n        /* \"#utility.yul\":20649:20652   */\n      dup4\n        /* \"#utility.yul\":20590:20657   */\n      tag_169\n      jump\t// in\n    tag_403:\n        /* \"#utility.yul\":20583:20657   */\n      swap2\n      pop\n        /* \"#utility.yul\":20666:20759   */\n      tag_404\n        /* \"#utility.yul\":20755:20758   */\n      dup3\n        /* \"#utility.yul\":20666:20759   */\n      tag_223\n      jump\t// in\n    tag_404:\n        /* \"#utility.yul\":20784:20786   */\n      0x20\n        /* \"#utility.yul\":20779:20782   */\n      dup3\n        /* \"#utility.yul\":20775:20787   */\n      add\n        /* \"#utility.yul\":20768:20787   */\n      swap1\n      pop\n        /* \"#utility.yul\":20427:20793   */\n      swap2\n      swap1\n      pop\n      jump\t// out\n        /* \"#utility.yul\":20799:21218   */\n    tag_143:\n        /* \"#utility.yul\":20965:20969   */\n      0x00\n        /* \"#utility.yul\":21003:21005   */\n      0x20\n        /* \"#utility.yul\":20992:21001   */\n      dup3\n        /* \"#utility.yul\":20988:21006   */\n      add\n        /* \"#utility.yul\":20980:21006   */\n      swap1\n      pop\n        /* \"#utility.yul\":21052:21061   */\n      dup2\n        /* \"#utility.yul\":21046:21050   */\n      dup2\n        /* \"#utility.yul\":21042:21062   */\n      sub\n        /* \"#utility.yul\":21038:21039   */\n      0x00\n        /* \"#utility.yul\":21027:21036   */\n      dup4\n        /* \"#utility.yul\":21023:21040   */\n      add\n        /* \"#utility.yul\":21016:21063   */\n      mstore\n        /* \"#utility.yul\":21080:21211   */\n      tag_406\n        /* \"#utility.yul\":21206:21210   */\n      dup2\n        /* \"#utility.yul\":21080:21211   */\n      tag_224\n      jump\t// in\n    tag_406:\n        /* \"#utility.yul\":21072:21211   */\n      swap1\n      pop\n        /* \"#utility.yul\":20799:21218   */\n      swap2\n      swap1\n      pop\n      jump\t// out\n        /* \"#utility.yul\":21224:21385   */\n    tag_225:\n        /* \"#utility.yul\":21364:21377   */\n      0x4e6f204554482073656e74000000000000000000000000000000000000000000\n        /* \"#utility.yul\":21360:21361   */\n      0x00\n        /* \"#utility.yul\":21352:21358   */\n      dup3\n        /* \"#utility.yul\":21348:21362   */\n      add\n        /* \"#utility.yul\":21341:21378   */\n      mstore\n        /* \"#utility.yul\":21224:21385   */\n      pop\n      jump\t// out\n        /* \"#utility.yul\":21391:21757   */\n    tag_226:\n        /* \"#utility.yul\":21533:21536   */\n      0x00\n        /* \"#utility.yul\":21554:21621   */\n      tag_409\n        /* \"#utility.yul\":21618:21620   */\n      0x0b\n        /* \"#utility.yul\":21613:21616   */\n      dup4\n        /* \"#utility.yul\":21554:21621   */\n      tag_169\n      jump\t// in\n    tag_409:\n        /* \"#utility.yul\":21547:21621   */\n      swap2\n      pop\n        /* \"#utility.yul\":21630:21723   */\n      tag_410\n        /* \"#utility.yul\":21719:21722   */\n      dup3\n        /* \"#utility.yul\":21630:21723   */\n      tag_225\n      jump\t// in\n    tag_410:\n        /* \"#utility.yul\":21748:21750   */\n      0x20\n        /* \"#utility.yul\":21743:21746   */\n      dup3\n        /* \"#utility.yul\":21739:21751   */\n      add\n        /* \"#utility.yul\":21732:21751   */\n      swap1\n      pop\n        /* \"#utility.yul\":21391:21757   */\n      swap2\n      swap1\n      pop\n      jump\t// out\n        /* \"#utility.yul\":21763:22182   */\n    tag_146:\n        /* \"#utility.yul\":21929:21933   */\n      0x00\n        /* \"#utility.yul\":21967:21969   */\n      0x20\n        /* \"#utility.yul\":21956:21965   */\n      dup3\n        /* \"#utility.yul\":21952:21970   */\n      add\n        /* \"#utility.yul\":21944:21970   */\n      swap1\n      pop\n        /* \"#utility.yul\":22016:22025   */\n      dup2\n        /* \"#utility.yul\":22010:22014   */\n      dup2\n        /* \"#utility.yul\":22006:22026   */\n      sub\n        /* \"#utility.yul\":22002:22003   */\n      0x00\n        /* \"#utility.yul\":21991:22000   */\n      dup4\n        /* \"#utility.yul\":21987:22004   */\n      add\n        /* \"#utility.yul\":21980:22027   */\n      mstore\n        /* \"#utility.yul\":22044:22175   */\n      tag_412\n        /* \"#utility.yul\":22170:22174   */\n      dup2\n        /* \"#utility.yul\":22044:22175   */\n      tag_226\n      jump\t// in\n    tag_412:\n        /* \"#utility.yul\":22036:22175   */\n      swap1\n      pop\n        /* \"#utility.yul\":21763:22182   */\n      swap2\n      swap1\n      pop\n      jump\t// out\n        /* \"#utility.yul\":22188:22598   */\n    tag_150:\n        /* \"#utility.yul\":22228:22235   */\n      0x00\n        /* \"#utility.yul\":22251:22271   */\n      tag_414\n        /* \"#utility.yul\":22269:22270   */\n      dup3\n        /* \"#utility.yul\":22251:22271   */\n      tag_172\n      jump\t// in\n    tag_414:\n        /* \"#utility.yul\":22246:22271   */\n      swap2\n      pop\n        /* \"#utility.yul\":22285:22305   */\n      tag_415\n        /* \"#utility.yul\":22303:22304   */\n      dup4\n        /* \"#utility.yul\":22285:22305   */\n      tag_172\n      jump\t// in\n    tag_415:\n        /* \"#utility.yul\":22280:22305   */\n      swap3\n      pop\n        /* \"#utility.yul\":22340:22341   */\n      dup3\n        /* \"#utility.yul\":22337:22338   */\n      dup3\n        /* \"#utility.yul\":22333:22342   */\n      mul\n        /* \"#utility.yul\":22362:22392   */\n      tag_416\n        /* \"#utility.yul\":22380:22391   */\n      dup2\n        /* \"#utility.yul\":22362:22392   */\n      tag_172\n      jump\t// in\n    tag_416:\n        /* \"#utility.yul\":22351:22392   */\n      swap2\n      pop\n        /* \"#utility.yul\":22541:22542   */\n      dup3\n        /* \"#utility.yul\":22532:22539   */\n      dup3\n        /* \"#utility.yul\":22528:22543   */\n      div\n        /* \"#utility.yul\":22525:22526   */\n      dup5\n        /* \"#utility.yul\":22522:22544   */\n      eq\n        /* \"#utility.yul\":22502:22503   */\n      dup4\n        /* \"#utility.yul\":22495:22504   */\n      iszero\n        /* \"#utility.yul\":22475:22558   */\n      or\n        /* \"#utility.yul\":22452:22591   */\n      tag_417\n      jumpi\n        /* \"#utility.yul\":22571:22589   */\n      tag_418\n      tag_207\n      jump\t// in\n    tag_418:\n        /* \"#utility.yul\":22452:22591   */\n    tag_417:\n        /* \"#utility.yul\":22236:22598   */\n      pop\n        /* \"#utility.yul\":22188:22598   */\n      swap3\n      swap2\n      pop\n      pop\n      jump\t// out\n        /* \"#utility.yul\":22604:22784   */\n    tag_227:\n        /* \"#utility.yul\":22652:22729   */\n      0x4e487b7100000000000000000000000000000000000000000000000000000000\n        /* \"#utility.yul\":22649:22650   */\n      0x00\n        /* \"#utility.yul\":22642:22730   */\n      mstore\n        /* \"#utility.yul\":22749:22753   */\n      0x12\n        /* \"#utility.yul\":22746:22747   */\n      0x04\n        /* \"#utility.yul\":22739:22754   */\n      mstore\n        /* \"#utility.yul\":22773:22777   */\n      0x24\n        /* \"#utility.yul\":22770:22771   */\n      0x00\n        /* \"#utility.yul\":22763:22778   */\n      revert\n        /* \"#utility.yul\":22790:22975   */\n    tag_152:\n        /* \"#utility.yul\":22830:22831   */\n      0x00\n        /* \"#utility.yul\":22847:22867   */\n      tag_421\n        /* \"#utility.yul\":22865:22866   */\n      dup3\n        /* \"#utility.yul\":22847:22867   */\n      tag_172\n      jump\t// in\n    tag_421:\n        /* \"#utility.yul\":22842:22867   */\n      swap2\n      pop\n        /* \"#utility.yul\":22881:22901   */\n      tag_422\n        /* \"#utility.yul\":22899:22900   */\n      dup4\n        /* \"#utility.yul\":22881:22901   */\n      tag_172\n      jump\t// in\n    tag_422:\n        /* \"#utility.yul\":22876:22901   */\n      swap3\n      pop\n        /* \"#utility.yul\":22920:22921   */\n      dup3\n        /* \"#utility.yul\":22910:22945   */\n      tag_423\n      jumpi\n        /* \"#utility.yul\":22925:22943   */\n      tag_424\n      tag_227\n      jump\t// in\n    tag_424:\n        /* \"#utility.yul\":22910:22945   */\n    tag_423:\n        /* \"#utility.yul\":22967:22968   */\n      dup3\n        /* \"#utility.yul\":22964:22965   */\n      dup3\n        /* \"#utility.yul\":22960:22969   */\n      div\n        /* \"#utility.yul\":22955:22969   */\n      swap1\n      pop\n        /* \"#utility.yul\":22790:22975   */\n      swap3\n      swap2\n      pop\n      pop\n      jump\t// out\n        /* \"#utility.yul\":22981:23142   */\n    tag_228:\n        /* \"#utility.yul\":23121:23134   */\n      0x4e6574206973207a65726f000000000000000000000000000000000000000000\n        /* \"#utility.yul\":23117:23118   */\n      0x00\n        /* \"#utility.yul\":23109:23115   */\n      dup3\n        /* \"#utility.yul\":23105:23119   */\n      add\n        /* \"#utility.yul\":23098:23135   */\n      mstore\n        /* \"#utility.yul\":22981:23142   */\n      pop\n      jump\t// out\n        /* \"#utility.yul\":23148:23514   */\n    tag_229:\n        /* \"#utility.yul\":23290:23293   */\n      0x00\n        /* \"#utility.yul\":23311:23378   */\n      tag_427\n        /* \"#utility.yul\":23375:23377   */\n      0x0b\n        /* \"#utility.yul\":23370:23373   */\n      dup4\n        /* \"#utility.yul\":23311:23378   */\n      tag_169\n      jump\t// in\n    tag_427:\n        /* \"#utility.yul\":23304:23378   */\n      swap2\n      pop\n        /* \"#utility.yul\":23387:23480   */\n      tag_428\n        /* \"#utility.yul\":23476:23479   */\n      dup3\n        /* \"#utility.yul\":23387:23480   */\n      tag_228\n      jump\t// in\n    tag_428:\n        /* \"#utility.yul\":23505:23507   */\n      0x20\n        /* \"#utility.yul\":23500:23503   */\n      dup3\n        /* \"#utility.yul\":23496:23508   */\n      add\n        /* \"#utility.yul\":23489:23508   */\n      swap1\n      pop\n        /* \"#utility.yul\":23148:23514   */\n      swap2\n      swap1\n      pop\n      jump\t// out\n        /* \"#utility.yul\":23520:23939   */\n    tag_156:\n        /* \"#utility.yul\":23686:23690   */\n      0x00\n        /* \"#utility.yul\":23724:23726   */\n      0x20\n        /* \"#utility.yul\":23713:23722   */\n      dup3\n        /* \"#utility.yul\":23709:23727   */\n      add\n        /* \"#utility.yul\":23701:23727   */\n      swap1\n      pop\n        /* \"#utility.yul\":23773:23782   */\n      dup2\n        /* \"#utility.yul\":23767:23771   */\n      dup2\n        /* \"#utility.yul\":23763:23783   */\n      sub\n        /* \"#utility.yul\":23759:23760   */\n      0x00\n        /* \"#utility.yul\":23748:23757   */\n      dup4\n        /* \"#utility.yul\":23744:23761   */\n      add\n        /* \"#utility.yul\":23737:23784   */\n      mstore\n        /* \"#utility.yul\":23801:23932   */\n      tag_430\n        /* \"#utility.yul\":23927:23931   */\n      dup2\n        /* \"#utility.yul\":23801:23932   */\n      tag_229\n      jump\t// in\n    tag_430:\n        /* \"#utility.yul\":23793:23932   */\n      swap1\n      pop\n        /* \"#utility.yul\":23520:23939   */\n      swap2\n      swap1\n      pop\n      jump\t// out\n        /* \"#utility.yul\":23945:24387   */\n    tag_161:\n        /* \"#utility.yul\":24094:24098   */\n      0x00\n        /* \"#utility.yul\":24132:24134   */\n      0x60\n        /* \"#utility.yul\":24121:24130   */\n      dup3\n        /* \"#utility.yul\":24117:24135   */\n      add\n        /* \"#utility.yul\":24109:24135   */\n      swap1\n      pop\n        /* \"#utility.yul\":24145:24216   */\n      tag_432\n        /* \"#utility.yul\":24213:24214   */\n      0x00\n        /* \"#utility.yul\":24202:24211   */\n      dup4\n        /* \"#utility.yul\":24198:24215   */\n      add\n        /* \"#utility.yul\":24189:24195   */\n      dup7\n        /* \"#utility.yul\":24145:24216   */\n      tag_173\n      jump\t// in\n    tag_432:\n        /* \"#utility.yul\":24226:24298   */\n      tag_433\n        /* \"#utility.yul\":24294:24296   */\n      0x20\n        /* \"#utility.yul\":24283:24292   */\n      dup4\n        /* \"#utility.yul\":24279:24297   */\n      add\n        /* \"#utility.yul\":24270:24276   */\n      dup6\n        /* \"#utility.yul\":24226:24298   */\n      tag_173\n      jump\t// in\n    tag_433:\n        /* \"#utility.yul\":24308:24380   */\n      tag_434\n        /* \"#utility.yul\":24376:24378   */\n      0x40\n        /* \"#utility.yul\":24365:24374   */\n      dup4\n        /* \"#utility.yul\":24361:24379   */\n      add\n        /* \"#utility.yul\":24352:24358   */\n      dup5\n        /* \"#utility.yul\":24308:24380   */\n      tag_173\n      jump\t// in\n    tag_434:\n        /* \"#utility.yul\":23945:24387   */\n      swap5\n      swap4\n      pop\n      pop\n      pop\n      pop\n      jump\t// out\n\n    auxdata: 0xa26469706673582212209053a9a18a4c36ffe8563392cfc5da22394677c4e2865533d987026f14dfc64964736f6c634300081e0033\n}\n",
				"bytecode": {
					"linkReferences": {},
					"object": "60a0604052348015600e575f5ffd5b503373ffffffffffffffffffffffffffffffffffffffff1660808173ffffffffffffffffffffffffffffffffffffffff1681525050600160025f015f6101000a81548160ff021916908315150217905550608051611b606100855f395f8181610221015281816105b9015261097c0152611b605ff3fe608060405260043610610089575f3560e01c8063a58b8c3e11610058578063a58b8c3e14610153578063bec1391a1461017b578063ed0fe416146101a5578063f14210a6146101e1578063f6326fb314610209576100c9565b806304d8c8e2146100cd578063164e68de146100f75780635d12928b1461011f5780639f5f052014610129576100c9565b366100c9576040517f08c379a00000000000000000000000000000000000000000000000000000000081526004016100c090611038565b60405180910390fd5b5f5ffd5b3480156100d8575f5ffd5b506100e1610213565b6040516100ee919061106e565b60405180910390f35b348015610102575f5ffd5b5061011d600480360381019061011891906110e9565b61021f565b005b61012761036d565b005b348015610134575f5ffd5b5061013d610557565b60405161014a919061113d565b60405180910390f35b34801561015e575f5ffd5b506101796004803603810190610174919061120c565b6105b7565b005b348015610186575f5ffd5b5061018f610928565b60405161019c91906112b7565b60405180910390f35b3480156101b0575f5ffd5b506101cb60048036038101906101c691906110e9565b610979565b6040516101d8919061106e565b60405180910390f35b3480156101ec575f5ffd5b50610207600480360381019061020291906112fa565b610ad8565b005b610211610cc2565b005b5f600260010154905090565b7f000000000000000000000000000000000000000000000000000000000000000073ffffffffffffffffffffffffffffffffffffffff163373ffffffffffffffffffffffffffffffffffffffff16146102ad576040517f08c379a00000000000000000000000000000000000000000000000000000000081526004016102a490611395565b60405180910390fd5b5f60026001015490505f6002600101819055505f8273ffffffffffffffffffffffffffffffffffffffff16826040516102e5906113e0565b5f6040518083038185875af1925050503d805f811461031f576040519150601f19603f3d011682016040523d82523d5f602084013e610324565b606091505b5050905080610368576040517f08c379a000000000000000000000000000000000000000000000000000000000815260040161035f9061143e565b60405180910390fd5b505050565b60015f3373ffffffffffffffffffffffffffffffffffffffff1673ffffffffffffffffffffffffffffffffffffffff1681526020019081526020015f205f9054906101000a900460ff16156103f7576040517f08c379a00000000000000000000000000000000000000000000000000000000081526004016103ee906114a6565b60405180910390fd5b6509184e72a000341461043f576040517f08c379a00000000000000000000000000000000000000000000000000000000081526004016104369061150e565b60405180910390fd5b6001805f3373ffffffffffffffffffffffffffffffffffffffff1673ffffffffffffffffffffffffffffffffffffffff1681526020019081526020015f205f6101000a81548160ff0219169083151502179055505f5f5f3373ffffffffffffffffffffffffffffffffffffffff1673ffffffffffffffffffffffffffffffffffffffff1681526020019081526020015f209050805f015f9054906101000a900460ff16610554576104f56509184e72a000610e75565b6001815f015f6101000a81548160ff0219169083151502179055503373ffffffffffffffffffffffffffffffffffffffff167f2e49a5810fda2439a23771848b4acec786b0a64d4de3d124ac57fc8739c3887560405160405180910390a25b50565b61055f610fcc565b5f5f5f3373ffffffffffffffffffffffffffffffffffffffff1673ffffffffffffffffffffffffffffffffffffffff1681526020019081526020015f2090506040518060200160405280826001015481525091505090565b7f000000000000000000000000000000000000000000000000000000000000000073ffffffffffffffffffffffffffffffffffffffff163373ffffffffffffffffffffffffffffffffffffffff1614610645576040517f08c379a000000000000000000000000000000000000000000000000000000000815260040161063c90611395565b60405180910390fd5b5f5f5f8773ffffffffffffffffffffffffffffffffffffffff1673ffffffffffffffffffffffffffffffffffffffff1681526020019081526020015f209050805f015f9054906101000a900460ff166106d3576040517f08c379a00000000000000000000000000000000000000000000000000000000081526004016106ca90611576565b60405180910390fd5b82829050858590501461071b576040517f08c379a000000000000000000000000000000000000000000000000000000000815260040161071290611604565b60405180910390fd5b5f5f90505f5f90505b848490508110156107635784848281811061074257610741611622565b5b9050602002013582610754919061167c565b91508080600101915050610724565b50808260010154146107aa576040517f08c379a00000000000000000000000000000000000000000000000000000000081526004016107a1906116f9565b60405180910390fd5b80826001015f8282546107bd9190611717565b925050819055505f5f90505b868690508110156108ca575f8787838181106107e8576107e7611622565b5b90506020020160208101906107fd91906110e9565b73ffffffffffffffffffffffffffffffffffffffff1686868481811061082657610825611622565b5b90506020020135604051610839906113e0565b5f6040518083038185875af1925050503d805f8114610873576040519150601f19603f3d011682016040523d82523d5f602084013e610878565b606091505b50509050806108bc576040517f08c379a00000000000000000000000000000000000000000000000000000000081526004016108b39061143e565b60405180910390fd5b5080806001019150506107c9565b508673ffffffffffffffffffffffffffffffffffffffff167fce42f76f0cf784c9e92d84110f5600137af202cb073bf235196d5c7e6ce9c15e87878787604051610917949392919061187e565b60405180910390a250505050505050565b5f5f5f3373ffffffffffffffffffffffffffffffffffffffff1673ffffffffffffffffffffffffffffffffffffffff1681526020019081526020015f205f015f9054906101000a900460ff16905090565b5f7f000000000000000000000000000000000000000000000000000000000000000073ffffffffffffffffffffffffffffffffffffffff163373ffffffffffffffffffffffffffffffffffffffff1614610a08576040517f08c379a00000000000000000000000000000000000000000000000000000000081526004016109ff90611395565b60405180910390fd5b60015f8373ffffffffffffffffffffffffffffffffffffffff1673ffffffffffffffffffffffffffffffffffffffff1681526020019081526020015f205f9054906101000a900460ff16610a91576040517f08c379a0000000000000000000000000000000000000000000000000000000008152600401610a8890611576565b60405180910390fd5b5f5f8373ffffffffffffffffffffffffffffffffffffffff1673ffffffffffffffffffffffffffffffffffffffff1681526020019081526020015f20600101549050919050565b5f5f5f3373ffffffffffffffffffffffffffffffffffffffff1673ffffffffffffffffffffffffffffffffffffffff1681526020019081526020015f209050805f015f9054906101000a900460ff16610b66576040517f08c379a0000000000000000000000000000000000000000000000000000000008152600401610b5d90611576565b60405180910390fd5b8181600101541015610bad576040517f08c379a0000000000000000000000000000000000000000000000000000000008152600401610ba490611901565b60405180910390fd5b81816001015f828254610bc09190611717565b925050819055505f3373ffffffffffffffffffffffffffffffffffffffff1683604051610bec906113e0565b5f6040518083038185875af1925050503d805f8114610c26576040519150601f19603f3d011682016040523d82523d5f602084013e610c2b565b606091505b5050905080610c6f576040517f08c379a0000000000000000000000000000000000000000000000000000000008152600401610c669061143e565b60405180910390fd5b3373ffffffffffffffffffffffffffffffffffffffff167f884edad9ce6fa2440d8a54cc123490eb96d2768479d49ff9c7366125a942436484604051610cb5919061106e565b60405180910390a2505050565b60015f3373ffffffffffffffffffffffffffffffffffffffff1673ffffffffffffffffffffffffffffffffffffffff1681526020019081526020015f205f9054906101000a900460ff16610d4b576040517f08c379a0000000000000000000000000000000000000000000000000000000008152600401610d4290611969565b60405180910390fd5b5f3411610d8d576040517f08c379a0000000000000000000000000000000000000000000000000000000008152600401610d84906119d1565b60405180910390fd5b610d9633610eb8565b5f61271061ffff16603261ffff1634610daf91906119ef565b610db99190611a5d565b90505f8134610dc89190611717565b90505f8111610e0c576040517f08c379a0000000000000000000000000000000000000000000000000000000008152600401610e0390611ad7565b60405180910390fd5b610e1582610e75565b610e1f3382610f6e565b3373ffffffffffffffffffffffffffffffffffffffff167f36af321ec8d3c75236829c5317affd40ddb308863a1236d2d277a4025cccee1e348484604051610e6993929190611af5565b60405180910390a25050565b5f810315610eb5578060026001015f828254610e91919061167c565b92505081905550600160025f015f6101000a81548160ff0219169083151502179055505b50565b5f5f5f8373ffffffffffffffffffffffffffffffffffffffff1673ffffffffffffffffffffffffffffffffffffffff1681526020019081526020015f209050805f015f9054906101000a900460ff16610f6a576001815f015f6101000a81548160ff0219169083151502179055508173ffffffffffffffffffffffffffffffffffffffff167f2e49a5810fda2439a23771848b4acec786b0a64d4de3d124ac57fc8739c3887560405160405180910390a25b5050565b5f5f5f8473ffffffffffffffffffffffffffffffffffffffff1673ffffffffffffffffffffffffffffffffffffffff1681526020019081526020015f20905081816001015f828254610fc0919061167c565b92505081905550505050565b60405180602001604052805f81525090565b5f82825260208201905092915050565b7f446f6e277420646f2069742100000000000000000000000000000000000000005f82015250565b5f611022600c83610fde565b915061102d82610fee565b602082019050919050565b5f6020820190508181035f83015261104f81611016565b9050919050565b5f819050919050565b61106881611056565b82525050565b5f6020820190506110815f83018461105f565b92915050565b5f5ffd5b5f5ffd5b5f73ffffffffffffffffffffffffffffffffffffffff82169050919050565b5f6110b88261108f565b9050919050565b6110c8816110ae565b81146110d2575f5ffd5b50565b5f813590506110e3816110bf565b92915050565b5f602082840312156110fe576110fd611087565b5b5f61110b848285016110d5565b91505092915050565b61111d81611056565b82525050565b602082015f8201516111375f850182611114565b50505050565b5f6020820190506111505f830184611123565b92915050565b5f5ffd5b5f5ffd5b5f5ffd5b5f5f83601f84011261117757611176611156565b5b8235905067ffffffffffffffff8111156111945761119361115a565b5b6020830191508360208202830111156111b0576111af61115e565b5b9250929050565b5f5f83601f8401126111cc576111cb611156565b5b8235905067ffffffffffffffff8111156111e9576111e861115a565b5b6020830191508360208202830111156112055761120461115e565b5b9250929050565b5f5f5f5f5f6060868803121561122557611224611087565b5b5f611232888289016110d5565b955050602086013567ffffffffffffffff8111156112535761125261108b565b5b61125f88828901611162565b9450945050604086013567ffffffffffffffff8111156112825761128161108b565b5b61128e888289016111b7565b92509250509295509295909350565b5f8115159050919050565b6112b18161129d565b82525050565b5f6020820190506112ca5f8301846112a8565b92915050565b6112d981611056565b81146112e3575f5ffd5b50565b5f813590506112f4816112d0565b92915050565b5f6020828403121561130f5761130e611087565b5b5f61131c848285016112e6565b91505092915050565b7f4f6e6c79206465706c6f7965722063616e2063616c6c20746869732066756e635f8201527f74696f6e00000000000000000000000000000000000000000000000000000000602082015250565b5f61137f602483610fde565b915061138a82611325565b604082019050919050565b5f6020820190508181035f8301526113ac81611373565b9050919050565b5f81905092915050565b50565b5f6113cb5f836113b3565b91506113d6826113bd565b5f82019050919050565b5f6113ea826113c0565b9150819050919050565b7f455448207472616e73666572206661696c6564000000000000000000000000005f82015250565b5f611428601383610fde565b9150611433826113f4565b602082019050919050565b5f6020820190508181035f8301526114558161141c565b9050919050565b7f5661756c7420616c7265616479206372656174656400000000000000000000005f82015250565b5f611490601583610fde565b915061149b8261145c565b602082019050919050565b5f6020820190508181035f8301526114bd81611484565b9050919050565b7f457861637420302e3120455448207265717569726564000000000000000000005f82015250565b5f6114f8601683610fde565b9150611503826114c4565b602082019050919050565b5f6020820190508181035f830152611525816114ec565b9050919050565b7f5661756c7420646f6573206e6f742065786973740000000000000000000000005f82015250565b5f611560601483610fde565b915061156b8261152c565b602082019050919050565b5f6020820190508181035f83015261158d81611554565b9050919050565b7f526563697069656e747320616e6420616d6f756e7473206c656e677468206d695f8201527f736d617463680000000000000000000000000000000000000000000000000000602082015250565b5f6115ee602683610fde565b91506115f982611594565b604082019050919050565b5f6020820190508181035f83015261161b816115e2565b9050919050565b7f4e487b71000000000000000000000000000000000000000000000000000000005f52603260045260245ffd5b7f4e487b71000000000000000000000000000000000000000000000000000000005f52601160045260245ffd5b5f61168682611056565b915061169183611056565b92508282019050808211156116a9576116a861164f565b5b92915050565b7f496e73756666696369656e742045544820696e207661756c74000000000000005f82015250565b5f6116e3601983610fde565b91506116ee826116af565b602082019050919050565b5f6020820190508181035f830152611710816116d7565b9050919050565b5f61172182611056565b915061172c83611056565b92508282039050818111156117445761174361164f565b5b92915050565b5f82825260208201905092915050565b5f819050919050565b61176c816110ae565b82525050565b5f61177d8383611763565b60208301905092915050565b5f61179760208401846110d5565b905092915050565b5f602082019050919050565b5f6117b6838561174a565b93506117c18261175a565b805f5b858110156117f9576117d68284611789565b6117e08882611772565b97506117eb8361179f565b9250506001810190506117c4565b5085925050509392505050565b5f82825260208201905092915050565b5f5ffd5b82818337505050565b5f61182e8385611806565b93507f07ffffffffffffffffffffffffffffffffffffffffffffffffffffffffffffff83111561186157611860611816565b5b60208302925061187283858461181a565b82840190509392505050565b5f6040820190508181035f8301526118978186886117ab565b905081810360208301526118ac818486611823565b905095945050505050565b7f496e73756666696369656e7420455448000000000000000000000000000000005f82015250565b5f6118eb601083610fde565b91506118f6826118b7565b602082019050919050565b5f6020820190508181035f830152611918816118df565b9050919050565b7f437265617465207661756c7420666972737400000000000000000000000000005f82015250565b5f611953601283610fde565b915061195e8261191f565b602082019050919050565b5f6020820190508181035f83015261198081611947565b9050919050565b7f4e6f204554482073656e740000000000000000000000000000000000000000005f82015250565b5f6119bb600b83610fde565b91506119c682611987565b602082019050919050565b5f6020820190508181035f8301526119e8816119af565b9050919050565b5f6119f982611056565b9150611a0483611056565b9250828202611a1281611056565b91508282048414831517611a2957611a2861164f565b5b5092915050565b7f4e487b71000000000000000000000000000000000000000000000000000000005f52601260045260245ffd5b5f611a6782611056565b9150611a7283611056565b925082611a8257611a81611a30565b5b828204905092915050565b7f4e6574206973207a65726f0000000000000000000000000000000000000000005f82015250565b5f611ac1600b83610fde565b9150611acc82611a8d565b602082019050919050565b5f6020820190508181035f830152611aee81611ab5565b9050919050565b5f606082019050611b085f83018661105f565b611b15602083018561105f565b611b22604083018461105f565b94935050505056fea26469706673582212209053a9a18a4c36ffe8563392cfc5da22394677c4e2865533d987026f14dfc64964736f6c634300081e0033",
					"opcodes": "PUSH1 0xA0 PUSH1 0x40 MSTORE CALLVALUE DUP1 ISZERO PUSH1 0xE JUMPI PUSH0 PUSH0 REVERT JUMPDEST POP CALLER PUSH20 0xFFFFFFFFFFFFFFFFFFFFFFFFFFFFFFFFFFFFFFFF AND PUSH1 0x80 DUP2 PUSH20 0xFFFFFFFFFFFFFFFFFFFFFFFFFFFFFFFFFFFFFFFF AND DUP2 MSTORE POP POP PUSH1 0x1 PUSH1 0x2 PUSH0 ADD PUSH0 PUSH2 0x100 EXP DUP2 SLOAD DUP2 PUSH1 0xFF MUL NOT AND SWAP1 DUP4 ISZERO ISZERO MUL OR SWAP1 SSTORE POP PUSH1 0x80 MLOAD PUSH2 0x1B60 PUSH2 0x85 PUSH0 CODECOPY PUSH0 DUP2 DUP2 PUSH2 0x221 ADD MSTORE DUP2 DUP2 PUSH2 0x5B9 ADD MSTORE PUSH2 0x97C ADD MSTORE PUSH2 0x1B60 PUSH0 RETURN INVALID PUSH1 0x80 PUSH1 0x40 MSTORE PUSH1 0x4 CALLDATASIZE LT PUSH2 0x89 JUMPI PUSH0 CALLDATALOAD PUSH1 0xE0 SHR DUP1 PUSH4 0xA58B8C3E GT PUSH2 0x58 JUMPI DUP1 PUSH4 0xA58B8C3E EQ PUSH2 0x153 JUMPI DUP1 PUSH4 0xBEC1391A EQ PUSH2 0x17B JUMPI DUP1 PUSH4 0xED0FE416 EQ PUSH2 0x1A5 JUMPI DUP1 PUSH4 0xF14210A6 EQ PUSH2 0x1E1 JUMPI DUP1 PUSH4 0xF6326FB3 EQ PUSH2 0x209 JUMPI PUSH2 0xC9 JUMP JUMPDEST DUP1 PUSH4 0x4D8C8E2 EQ PUSH2 0xCD JUMPI DUP1 PUSH4 0x164E68DE EQ PUSH2 0xF7 JUMPI DUP1 PUSH4 0x5D12928B EQ PUSH2 0x11F JUMPI DUP1 PUSH4 0x9F5F0520 EQ PUSH2 0x129 JUMPI PUSH2 0xC9 JUMP JUMPDEST CALLDATASIZE PUSH2 0xC9 JUMPI PUSH1 0x40 MLOAD PUSH32 0x8C379A000000000000000000000000000000000000000000000000000000000 DUP2 MSTORE PUSH1 0x4 ADD PUSH2 0xC0 SWAP1 PUSH2 0x1038 JUMP JUMPDEST PUSH1 0x40 MLOAD DUP1 SWAP2 SUB SWAP1 REVERT JUMPDEST PUSH0 PUSH0 REVERT JUMPDEST CALLVALUE DUP1 ISZERO PUSH2 0xD8 JUMPI PUSH0 PUSH0 REVERT JUMPDEST POP PUSH2 0xE1 PUSH2 0x213 JUMP JUMPDEST PUSH1 0x40 MLOAD PUSH2 0xEE SWAP2 SWAP1 PUSH2 0x106E JUMP JUMPDEST PUSH1 0x40 MLOAD DUP1 SWAP2 SUB SWAP1 RETURN JUMPDEST CALLVALUE DUP1 ISZERO PUSH2 0x102 JUMPI PUSH0 PUSH0 REVERT JUMPDEST POP PUSH2 0x11D PUSH1 0x4 DUP1 CALLDATASIZE SUB DUP2 ADD SWAP1 PUSH2 0x118 SWAP2 SWAP1 PUSH2 0x10E9 JUMP JUMPDEST PUSH2 0x21F JUMP JUMPDEST STOP JUMPDEST PUSH2 0x127 PUSH2 0x36D JUMP JUMPDEST STOP JUMPDEST CALLVALUE DUP1 ISZERO PUSH2 0x134 JUMPI PUSH0 PUSH0 REVERT JUMPDEST POP PUSH2 0x13D PUSH2 0x557 JUMP JUMPDEST PUSH1 0x40 MLOAD PUSH2 0x14A SWAP2 SWAP1 PUSH2 0x113D JUMP JUMPDEST PUSH1 0x40 MLOAD DUP1 SWAP2 SUB SWAP1 RETURN JUMPDEST CALLVALUE DUP1 ISZERO PUSH2 0x15E JUMPI PUSH0 PUSH0 REVERT JUMPDEST POP PUSH2 0x179 PUSH1 0x4 DUP1 CALLDATASIZE SUB DUP2 ADD SWAP1 PUSH2 0x174 SWAP2 SWAP1 PUSH2 0x120C JUMP JUMPDEST PUSH2 0x5B7 JUMP JUMPDEST STOP JUMPDEST CALLVALUE DUP1 ISZERO PUSH2 0x186 JUMPI PUSH0 PUSH0 REVERT JUMPDEST POP PUSH2 0x18F PUSH2 0x928 JUMP JUMPDEST PUSH1 0x40 MLOAD PUSH2 0x19C SWAP2 SWAP1 PUSH2 0x12B7 JUMP JUMPDEST PUSH1 0x40 MLOAD DUP1 SWAP2 SUB SWAP1 RETURN JUMPDEST CALLVALUE DUP1 ISZERO PUSH2 0x1B0 JUMPI PUSH0 PUSH0 REVERT JUMPDEST POP PUSH2 0x1CB PUSH1 0x4 DUP1 CALLDATASIZE SUB DUP2 ADD SWAP1 PUSH2 0x1C6 SWAP2 SWAP1 PUSH2 0x10E9 JUMP JUMPDEST PUSH2 0x979 JUMP JUMPDEST PUSH1 0x40 MLOAD PUSH2 0x1D8 SWAP2 SWAP1 PUSH2 0x106E JUMP JUMPDEST PUSH1 0x40 MLOAD DUP1 SWAP2 SUB SWAP1 RETURN JUMPDEST CALLVALUE DUP1 ISZERO PUSH2 0x1EC JUMPI PUSH0 PUSH0 REVERT JUMPDEST POP PUSH2 0x207 PUSH1 0x4 DUP1 CALLDATASIZE SUB DUP2 ADD SWAP1 PUSH2 0x202 SWAP2 SWAP1 PUSH2 0x12FA JUMP JUMPDEST PUSH2 0xAD8 JUMP JUMPDEST STOP JUMPDEST PUSH2 0x211 PUSH2 0xCC2 JUMP JUMPDEST STOP JUMPDEST PUSH0 PUSH1 0x2 PUSH1 0x1 ADD SLOAD SWAP1 POP SWAP1 JUMP JUMPDEST PUSH32 0x0 PUSH20 0xFFFFFFFFFFFFFFFFFFFFFFFFFFFFFFFFFFFFFFFF AND CALLER PUSH20 0xFFFFFFFFFFFFFFFFFFFFFFFFFFFFFFFFFFFFFFFF AND EQ PUSH2 0x2AD JUMPI PUSH1 0x40 MLOAD PUSH32 0x8C379A000000000000000000000000000000000000000000000000000000000 DUP2 MSTORE PUSH1 0x4 ADD PUSH2 0x2A4 SWAP1 PUSH2 0x1395 JUMP JUMPDEST PUSH1 0x40 MLOAD DUP1 SWAP2 SUB SWAP1 REVERT JUMPDEST PUSH0 PUSH1 0x2 PUSH1 0x1 ADD SLOAD SWAP1 POP PUSH0 PUSH1 0x2 PUSH1 0x1 ADD DUP2 SWAP1 SSTORE POP PUSH0 DUP3 PUSH20 0xFFFFFFFFFFFFFFFFFFFFFFFFFFFFFFFFFFFFFFFF AND DUP3 PUSH1 0x40 MLOAD PUSH2 0x2E5 SWAP1 PUSH2 0x13E0 JUMP JUMPDEST PUSH0 PUSH1 0x40 MLOAD DUP1 DUP4 SUB DUP2 DUP6 DUP8 GAS CALL SWAP3 POP POP POP RETURNDATASIZE DUP1 PUSH0 DUP2 EQ PUSH2 0x31F JUMPI PUSH1 0x40 MLOAD SWAP2 POP PUSH1 0x1F NOT PUSH1 0x3F RETURNDATASIZE ADD AND DUP3 ADD PUSH1 0x40 MSTORE RETURNDATASIZE DUP3 MSTORE RETURNDATASIZE PUSH0 PUSH1 0x20 DUP5 ADD RETURNDATACOPY PUSH2 0x324 JUMP JUMPDEST PUSH1 0x60 SWAP2 POP JUMPDEST POP POP SWAP1 POP DUP1 PUSH2 0x368 JUMPI PUSH1 0x40 MLOAD PUSH32 0x8C379A000000000000000000000000000000000000000000000000000000000 DUP2 MSTORE PUSH1 0x4 ADD PUSH2 0x35F SWAP1 PUSH2 0x143E JUMP JUMPDEST PUSH1 0x40 MLOAD DUP1 SWAP2 SUB SWAP1 REVERT JUMPDEST POP POP POP JUMP JUMPDEST PUSH1 0x1 PUSH0 CALLER PUSH20 0xFFFFFFFFFFFFFFFFFFFFFFFFFFFFFFFFFFFFFFFF AND PUSH20 0xFFFFFFFFFFFFFFFFFFFFFFFFFFFFFFFFFFFFFFFF AND DUP2 MSTORE PUSH1 0x20 ADD SWAP1 DUP2 MSTORE PUSH1 0x20 ADD PUSH0 KECCAK256 PUSH0 SWAP1 SLOAD SWAP1 PUSH2 0x100 EXP SWAP1 DIV PUSH1 0xFF AND ISZERO PUSH2 0x3F7 JUMPI PUSH1 0x40 MLOAD PUSH32 0x8C379A000000000000000000000000000000000000000000000000000000000 DUP2 MSTORE PUSH1 0x4 ADD PUSH2 0x3EE SWAP1 PUSH2 0x14A6 JUMP JUMPDEST PUSH1 0x40 MLOAD DUP1 SWAP2 SUB SWAP1 REVERT JUMPDEST PUSH6 0x9184E72A000 CALLVALUE EQ PUSH2 0x43F JUMPI PUSH1 0x40 MLOAD PUSH32 0x8C379A000000000000000000000000000000000000000000000000000000000 DUP2 MSTORE PUSH1 0x4 ADD PUSH2 0x436 SWAP1 PUSH2 0x150E JUMP JUMPDEST PUSH1 0x40 MLOAD DUP1 SWAP2 SUB SWAP1 REVERT JUMPDEST PUSH1 0x1 DUP1 PUSH0 CALLER PUSH20 0xFFFFFFFFFFFFFFFFFFFFFFFFFFFFFFFFFFFFFFFF AND PUSH20 0xFFFFFFFFFFFFFFFFFFFFFFFFFFFFFFFFFFFFFFFF AND DUP2 MSTORE PUSH1 0x20 ADD SWAP1 DUP2 MSTORE PUSH1 0x20 ADD PUSH0 KECCAK256 PUSH0 PUSH2 0x100 EXP DUP2 SLOAD DUP2 PUSH1 0xFF MUL NOT AND SWAP1 DUP4 ISZERO ISZERO MUL OR SWAP1 SSTORE POP PUSH0 PUSH0 PUSH0 CALLER PUSH20 0xFFFFFFFFFFFFFFFFFFFFFFFFFFFFFFFFFFFFFFFF AND PUSH20 0xFFFFFFFFFFFFFFFFFFFFFFFFFFFFFFFFFFFFFFFF AND DUP2 MSTORE PUSH1 0x20 ADD SWAP1 DUP2 MSTORE PUSH1 0x20 ADD PUSH0 KECCAK256 SWAP1 POP DUP1 PUSH0 ADD PUSH0 SWAP1 SLOAD SWAP1 PUSH2 0x100 EXP SWAP1 DIV PUSH1 0xFF AND PUSH2 0x554 JUMPI PUSH2 0x4F5 PUSH6 0x9184E72A000 PUSH2 0xE75 JUMP JUMPDEST PUSH1 0x1 DUP2 PUSH0 ADD PUSH0 PUSH2 0x100 EXP DUP2 SLOAD DUP2 PUSH1 0xFF MUL NOT AND SWAP1 DUP4 ISZERO ISZERO MUL OR SWAP1 SSTORE POP CALLER PUSH20 0xFFFFFFFFFFFFFFFFFFFFFFFFFFFFFFFFFFFFFFFF AND PUSH32 0x2E49A5810FDA2439A23771848B4ACEC786B0A64D4DE3D124AC57FC8739C38875 PUSH1 0x40 MLOAD PUSH1 0x40 MLOAD DUP1 SWAP2 SUB SWAP1 LOG2 JUMPDEST POP JUMP JUMPDEST PUSH2 0x55F PUSH2 0xFCC JUMP JUMPDEST PUSH0 PUSH0 PUSH0 CALLER PUSH20 0xFFFFFFFFFFFFFFFFFFFFFFFFFFFFFFFFFFFFFFFF AND PUSH20 0xFFFFFFFFFFFFFFFFFFFFFFFFFFFFFFFFFFFFFFFF AND DUP2 MSTORE PUSH1 0x20 ADD SWAP1 DUP2 MSTORE PUSH1 0x20 ADD PUSH0 KECCAK256 SWAP1 POP PUSH1 0x40 MLOAD DUP1 PUSH1 0x20 ADD PUSH1 0x40 MSTORE DUP1 DUP3 PUSH1 0x1 ADD SLOAD DUP2 MSTORE POP SWAP2 POP POP SWAP1 JUMP JUMPDEST PUSH32 0x0 PUSH20 0xFFFFFFFFFFFFFFFFFFFFFFFFFFFFFFFFFFFFFFFF AND CALLER PUSH20 0xFFFFFFFFFFFFFFFFFFFFFFFFFFFFFFFFFFFFFFFF AND EQ PUSH2 0x645 JUMPI PUSH1 0x40 MLOAD PUSH32 0x8C379A000000000000000000000000000000000000000000000000000000000 DUP2 MSTORE PUSH1 0x4 ADD PUSH2 0x63C SWAP1 PUSH2 0x1395 JUMP JUMPDEST PUSH1 0x40 MLOAD DUP1 SWAP2 SUB SWAP1 REVERT JUMPDEST PUSH0 PUSH0 PUSH0 DUP8 PUSH20 0xFFFFFFFFFFFFFFFFFFFFFFFFFFFFFFFFFFFFFFFF AND PUSH20 0xFFFFFFFFFFFFFFFFFFFFFFFFFFFFFFFFFFFFFFFF AND DUP2 MSTORE PUSH1 0x20 ADD SWAP1 DUP2 MSTORE PUSH1 0x20 ADD PUSH0 KECCAK256 SWAP1 POP DUP1 PUSH0 ADD PUSH0 SWAP1 SLOAD SWAP1 PUSH2 0x100 EXP SWAP1 DIV PUSH1 0xFF AND PUSH2 0x6D3 JUMPI PUSH1 0x40 MLOAD PUSH32 0x8C379A000000000000000000000000000000000000000000000000000000000 DUP2 MSTORE PUSH1 0x4 ADD PUSH2 0x6CA SWAP1 PUSH2 0x1576 JUMP JUMPDEST PUSH1 0x40 MLOAD DUP1 SWAP2 SUB SWAP1 REVERT JUMPDEST DUP3 DUP3 SWAP1 POP DUP6 DUP6 SWAP1 POP EQ PUSH2 0x71B JUMPI PUSH1 0x40 MLOAD PUSH32 0x8C379A000000000000000000000000000000000000000000000000000000000 DUP2 MSTORE PUSH1 0x4 ADD PUSH2 0x712 SWAP1 PUSH2 0x1604 JUMP JUMPDEST PUSH1 0x40 MLOAD DUP1 SWAP2 SUB SWAP1 REVERT JUMPDEST PUSH0 PUSH0 SWAP1 POP PUSH0 PUSH0 SWAP1 POP JUMPDEST DUP5 DUP5 SWAP1 POP DUP2 LT ISZERO PUSH2 0x763 JUMPI DUP5 DUP5 DUP3 DUP2 DUP2 LT PUSH2 0x742 JUMPI PUSH2 0x741 PUSH2 0x1622 JUMP JUMPDEST JUMPDEST SWAP1 POP PUSH1 0x20 MUL ADD CALLDATALOAD DUP3 PUSH2 0x754 SWAP2 SWAP1 PUSH2 0x167C JUMP JUMPDEST SWAP2 POP DUP1 DUP1 PUSH1 0x1 ADD SWAP2 POP POP PUSH2 0x724 JUMP JUMPDEST POP DUP1 DUP3 PUSH1 0x1 ADD SLOAD EQ PUSH2 0x7AA JUMPI PUSH1 0x40 MLOAD PUSH32 0x8C379A000000000000000000000000000000000000000000000000000000000 DUP2 MSTORE PUSH1 0x4 ADD PUSH2 0x7A1 SWAP1 PUSH2 0x16F9 JUMP JUMPDEST PUSH1 0x40 MLOAD DUP1 SWAP2 SUB SWAP1 REVERT JUMPDEST DUP1 DUP3 PUSH1 0x1 ADD PUSH0 DUP3 DUP3 SLOAD PUSH2 0x7BD SWAP2 SWAP1 PUSH2 0x1717 JUMP JUMPDEST SWAP3 POP POP DUP2 SWAP1 SSTORE POP PUSH0 PUSH0 SWAP1 POP JUMPDEST DUP7 DUP7 SWAP1 POP DUP2 LT ISZERO PUSH2 0x8CA JUMPI PUSH0 DUP8 DUP8 DUP4 DUP2 DUP2 LT PUSH2 0x7E8 JUMPI PUSH2 0x7E7 PUSH2 0x1622 JUMP JUMPDEST JUMPDEST SWAP1 POP PUSH1 0x20 MUL ADD PUSH1 0x20 DUP2 ADD SWAP1 PUSH2 0x7FD SWAP2 SWAP1 PUSH2 0x10E9 JUMP JUMPDEST PUSH20 0xFFFFFFFFFFFFFFFFFFFFFFFFFFFFFFFFFFFFFFFF AND DUP7 DUP7 DUP5 DUP2 DUP2 LT PUSH2 0x826 JUMPI PUSH2 0x825 PUSH2 0x1622 JUMP JUMPDEST JUMPDEST SWAP1 POP PUSH1 0x20 MUL ADD CALLDATALOAD PUSH1 0x40 MLOAD PUSH2 0x839 SWAP1 PUSH2 0x13E0 JUMP JUMPDEST PUSH0 PUSH1 0x40 MLOAD DUP1 DUP4 SUB DUP2 DUP6 DUP8 GAS CALL SWAP3 POP POP POP RETURNDATASIZE DUP1 PUSH0 DUP2 EQ PUSH2 0x873 JUMPI PUSH1 0x40 MLOAD SWAP2 POP PUSH1 0x1F NOT PUSH1 0x3F RETURNDATASIZE ADD AND DUP3 ADD PUSH1 0x40 MSTORE RETURNDATASIZE DUP3 MSTORE RETURNDATASIZE PUSH0 PUSH1 0x20 DUP5 ADD RETURNDATACOPY PUSH2 0x878 JUMP JUMPDEST PUSH1 0x60 SWAP2 POP JUMPDEST POP POP SWAP1 POP DUP1 PUSH2 0x8BC JUMPI PUSH1 0x40 MLOAD PUSH32 0x8C379A000000000000000000000000000000000000000000000000000000000 DUP2 MSTORE PUSH1 0x4 ADD PUSH2 0x8B3 SWAP1 PUSH2 0x143E JUMP JUMPDEST PUSH1 0x40 MLOAD DUP1 SWAP2 SUB SWAP1 REVERT JUMPDEST POP DUP1 DUP1 PUSH1 0x1 ADD SWAP2 POP POP PUSH2 0x7C9 JUMP JUMPDEST POP DUP7 PUSH20 0xFFFFFFFFFFFFFFFFFFFFFFFFFFFFFFFFFFFFFFFF AND PUSH32 0xCE42F76F0CF784C9E92D84110F5600137AF202CB073BF235196D5C7E6CE9C15E DUP8 DUP8 DUP8 DUP8 PUSH1 0x40 MLOAD PUSH2 0x917 SWAP5 SWAP4 SWAP3 SWAP2 SWAP1 PUSH2 0x187E JUMP JUMPDEST PUSH1 0x40 MLOAD DUP1 SWAP2 SUB SWAP1 LOG2 POP POP POP POP POP POP POP JUMP JUMPDEST PUSH0 PUSH0 PUSH0 CALLER PUSH20 0xFFFFFFFFFFFFFFFFFFFFFFFFFFFFFFFFFFFFFFFF AND PUSH20 0xFFFFFFFFFFFFFFFFFFFFFFFFFFFFFFFFFFFFFFFF AND DUP2 MSTORE PUSH1 0x20 ADD SWAP1 DUP2 MSTORE PUSH1 0x20 ADD PUSH0 KECCAK256 PUSH0 ADD PUSH0 SWAP1 SLOAD SWAP1 PUSH2 0x100 EXP SWAP1 DIV PUSH1 0xFF AND SWAP1 POP SWAP1 JUMP JUMPDEST PUSH0 PUSH32 0x0 PUSH20 0xFFFFFFFFFFFFFFFFFFFFFFFFFFFFFFFFFFFFFFFF AND CALLER PUSH20 0xFFFFFFFFFFFFFFFFFFFFFFFFFFFFFFFFFFFFFFFF AND EQ PUSH2 0xA08 JUMPI PUSH1 0x40 MLOAD PUSH32 0x8C379A000000000000000000000000000000000000000000000000000000000 DUP2 MSTORE PUSH1 0x4 ADD PUSH2 0x9FF SWAP1 PUSH2 0x1395 JUMP JUMPDEST PUSH1 0x40 MLOAD DUP1 SWAP2 SUB SWAP1 REVERT JUMPDEST PUSH1 0x1 PUSH0 DUP4 PUSH20 0xFFFFFFFFFFFFFFFFFFFFFFFFFFFFFFFFFFFFFFFF AND PUSH20 0xFFFFFFFFFFFFFFFFFFFFFFFFFFFFFFFFFFFFFFFF AND DUP2 MSTORE PUSH1 0x20 ADD SWAP1 DUP2 MSTORE PUSH1 0x20 ADD PUSH0 KECCAK256 PUSH0 SWAP1 SLOAD SWAP1 PUSH2 0x100 EXP SWAP1 DIV PUSH1 0xFF AND PUSH2 0xA91 JUMPI PUSH1 0x40 MLOAD PUSH32 0x8C379A000000000000000000000000000000000000000000000000000000000 DUP2 MSTORE PUSH1 0x4 ADD PUSH2 0xA88 SWAP1 PUSH2 0x1576 JUMP JUMPDEST PUSH1 0x40 MLOAD DUP1 SWAP2 SUB SWAP1 REVERT JUMPDEST PUSH0 PUSH0 DUP4 PUSH20 0xFFFFFFFFFFFFFFFFFFFFFFFFFFFFFFFFFFFFFFFF AND PUSH20 0xFFFFFFFFFFFFFFFFFFFFFFFFFFFFFFFFFFFFFFFF AND DUP2 MSTORE PUSH1 0x20 ADD SWAP1 DUP2 MSTORE PUSH1 0x20 ADD PUSH0 KECCAK256 PUSH1 0x1 ADD SLOAD SWAP1 POP SWAP2 SWAP1 POP JUMP JUMPDEST PUSH0 PUSH0 PUSH0 CALLER PUSH20 0xFFFFFFFFFFFFFFFFFFFFFFFFFFFFFFFFFFFFFFFF AND PUSH20 0xFFFFFFFFFFFFFFFFFFFFFFFFFFFFFFFFFFFFFFFF AND DUP2 MSTORE PUSH1 0x20 ADD SWAP1 DUP2 MSTORE PUSH1 0x20 ADD PUSH0 KECCAK256 SWAP1 POP DUP1 PUSH0 ADD PUSH0 SWAP1 SLOAD SWAP1 PUSH2 0x100 EXP SWAP1 DIV PUSH1 0xFF AND PUSH2 0xB66 JUMPI PUSH1 0x40 MLOAD PUSH32 0x8C379A000000000000000000000000000000000000000000000000000000000 DUP2 MSTORE PUSH1 0x4 ADD PUSH2 0xB5D SWAP1 PUSH2 0x1576 JUMP JUMPDEST PUSH1 0x40 MLOAD DUP1 SWAP2 SUB SWAP1 REVERT JUMPDEST DUP2 DUP2 PUSH1 0x1 ADD SLOAD LT ISZERO PUSH2 0xBAD JUMPI PUSH1 0x40 MLOAD PUSH32 0x8C379A000000000000000000000000000000000000000000000000000000000 DUP2 MSTORE PUSH1 0x4 ADD PUSH2 0xBA4 SWAP1 PUSH2 0x1901 JUMP JUMPDEST PUSH1 0x40 MLOAD DUP1 SWAP2 SUB SWAP1 REVERT JUMPDEST DUP2 DUP2 PUSH1 0x1 ADD PUSH0 DUP3 DUP3 SLOAD PUSH2 0xBC0 SWAP2 SWAP1 PUSH2 0x1717 JUMP JUMPDEST SWAP3 POP POP DUP2 SWAP1 SSTORE POP PUSH0 CALLER PUSH20 0xFFFFFFFFFFFFFFFFFFFFFFFFFFFFFFFFFFFFFFFF AND DUP4 PUSH1 0x40 MLOAD PUSH2 0xBEC SWAP1 PUSH2 0x13E0 JUMP JUMPDEST PUSH0 PUSH1 0x40 MLOAD DUP1 DUP4 SUB DUP2 DUP6 DUP8 GAS CALL SWAP3 POP POP POP RETURNDATASIZE DUP1 PUSH0 DUP2 EQ PUSH2 0xC26 JUMPI PUSH1 0x40 MLOAD SWAP2 POP PUSH1 0x1F NOT PUSH1 0x3F RETURNDATASIZE ADD AND DUP3 ADD PUSH1 0x40 MSTORE RETURNDATASIZE DUP3 MSTORE RETURNDATASIZE PUSH0 PUSH1 0x20 DUP5 ADD RETURNDATACOPY PUSH2 0xC2B JUMP JUMPDEST PUSH1 0x60 SWAP2 POP JUMPDEST POP POP SWAP1 POP DUP1 PUSH2 0xC6F JUMPI PUSH1 0x40 MLOAD PUSH32 0x8C379A000000000000000000000000000000000000000000000000000000000 DUP2 MSTORE PUSH1 0x4 ADD PUSH2 0xC66 SWAP1 PUSH2 0x143E JUMP JUMPDEST PUSH1 0x40 MLOAD DUP1 SWAP2 SUB SWAP1 REVERT JUMPDEST CALLER PUSH20 0xFFFFFFFFFFFFFFFFFFFFFFFFFFFFFFFFFFFFFFFF AND PUSH32 0x884EDAD9CE6FA2440D8A54CC123490EB96D2768479D49FF9C7366125A9424364 DUP5 PUSH1 0x40 MLOAD PUSH2 0xCB5 SWAP2 SWAP1 PUSH2 0x106E JUMP JUMPDEST PUSH1 0x40 MLOAD DUP1 SWAP2 SUB SWAP1 LOG2 POP POP POP JUMP JUMPDEST PUSH1 0x1 PUSH0 CALLER PUSH20 0xFFFFFFFFFFFFFFFFFFFFFFFFFFFFFFFFFFFFFFFF AND PUSH20 0xFFFFFFFFFFFFFFFFFFFFFFFFFFFFFFFFFFFFFFFF AND DUP2 MSTORE PUSH1 0x20 ADD SWAP1 DUP2 MSTORE PUSH1 0x20 ADD PUSH0 KECCAK256 PUSH0 SWAP1 SLOAD SWAP1 PUSH2 0x100 EXP SWAP1 DIV PUSH1 0xFF AND PUSH2 0xD4B JUMPI PUSH1 0x40 MLOAD PUSH32 0x8C379A000000000000000000000000000000000000000000000000000000000 DUP2 MSTORE PUSH1 0x4 ADD PUSH2 0xD42 SWAP1 PUSH2 0x1969 JUMP JUMPDEST PUSH1 0x40 MLOAD DUP1 SWAP2 SUB SWAP1 REVERT JUMPDEST PUSH0 CALLVALUE GT PUSH2 0xD8D JUMPI PUSH1 0x40 MLOAD PUSH32 0x8C379A000000000000000000000000000000000000000000000000000000000 DUP2 MSTORE PUSH1 0x4 ADD PUSH2 0xD84 SWAP1 PUSH2 0x19D1 JUMP JUMPDEST PUSH1 0x40 MLOAD DUP1 SWAP2 SUB SWAP1 REVERT JUMPDEST PUSH2 0xD96 CALLER PUSH2 0xEB8 JUMP JUMPDEST PUSH0 PUSH2 0x2710 PUSH2 0xFFFF AND PUSH1 0x32 PUSH2 0xFFFF AND CALLVALUE PUSH2 0xDAF SWAP2 SWAP1 PUSH2 0x19EF JUMP JUMPDEST PUSH2 0xDB9 SWAP2 SWAP1 PUSH2 0x1A5D JUMP JUMPDEST SWAP1 POP PUSH0 DUP2 CALLVALUE PUSH2 0xDC8 SWAP2 SWAP1 PUSH2 0x1717 JUMP JUMPDEST SWAP1 POP PUSH0 DUP2 GT PUSH2 0xE0C JUMPI PUSH1 0x40 MLOAD PUSH32 0x8C379A000000000000000000000000000000000000000000000000000000000 DUP2 MSTORE PUSH1 0x4 ADD PUSH2 0xE03 SWAP1 PUSH2 0x1AD7 JUMP JUMPDEST PUSH1 0x40 MLOAD DUP1 SWAP2 SUB SWAP1 REVERT JUMPDEST PUSH2 0xE15 DUP3 PUSH2 0xE75 JUMP JUMPDEST PUSH2 0xE1F CALLER DUP3 PUSH2 0xF6E JUMP JUMPDEST CALLER PUSH20 0xFFFFFFFFFFFFFFFFFFFFFFFFFFFFFFFFFFFFFFFF AND PUSH32 0x36AF321EC8D3C75236829C5317AFFD40DDB308863A1236D2D277A4025CCCEE1E CALLVALUE DUP5 DUP5 PUSH1 0x40 MLOAD PUSH2 0xE69 SWAP4 SWAP3 SWAP2 SWAP1 PUSH2 0x1AF5 JUMP JUMPDEST PUSH1 0x40 MLOAD DUP1 SWAP2 SUB SWAP1 LOG2 POP POP JUMP JUMPDEST PUSH0 DUP2 SUB ISZERO PUSH2 0xEB5 JUMPI DUP1 PUSH1 0x2 PUSH1 0x1 ADD PUSH0 DUP3 DUP3 SLOAD PUSH2 0xE91 SWAP2 SWAP1 PUSH2 0x167C JUMP JUMPDEST SWAP3 POP POP DUP2 SWAP1 SSTORE POP PUSH1 0x1 PUSH1 0x2 PUSH0 ADD PUSH0 PUSH2 0x100 EXP DUP2 SLOAD DUP2 PUSH1 0xFF MUL NOT AND SWAP1 DUP4 ISZERO ISZERO MUL OR SWAP1 SSTORE POP JUMPDEST POP JUMP JUMPDEST PUSH0 PUSH0 PUSH0 DUP4 PUSH20 0xFFFFFFFFFFFFFFFFFFFFFFFFFFFFFFFFFFFFFFFF AND PUSH20 0xFFFFFFFFFFFFFFFFFFFFFFFFFFFFFFFFFFFFFFFF AND DUP2 MSTORE PUSH1 0x20 ADD SWAP1 DUP2 MSTORE PUSH1 0x20 ADD PUSH0 KECCAK256 SWAP1 POP DUP1 PUSH0 ADD PUSH0 SWAP1 SLOAD SWAP1 PUSH2 0x100 EXP SWAP1 DIV PUSH1 0xFF AND PUSH2 0xF6A JUMPI PUSH1 0x1 DUP2 PUSH0 ADD PUSH0 PUSH2 0x100 EXP DUP2 SLOAD DUP2 PUSH1 0xFF MUL NOT AND SWAP1 DUP4 ISZERO ISZERO MUL OR SWAP1 SSTORE POP DUP2 PUSH20 0xFFFFFFFFFFFFFFFFFFFFFFFFFFFFFFFFFFFFFFFF AND PUSH32 0x2E49A5810FDA2439A23771848B4ACEC786B0A64D4DE3D124AC57FC8739C38875 PUSH1 0x40 MLOAD PUSH1 0x40 MLOAD DUP1 SWAP2 SUB SWAP1 LOG2 JUMPDEST POP POP JUMP JUMPDEST PUSH0 PUSH0 PUSH0 DUP5 PUSH20 0xFFFFFFFFFFFFFFFFFFFFFFFFFFFFFFFFFFFFFFFF AND PUSH20 0xFFFFFFFFFFFFFFFFFFFFFFFFFFFFFFFFFFFFFFFF AND DUP2 MSTORE PUSH1 0x20 ADD SWAP1 DUP2 MSTORE PUSH1 0x20 ADD PUSH0 KECCAK256 SWAP1 POP DUP2 DUP2 PUSH1 0x1 ADD PUSH0 DUP3 DUP3 SLOAD PUSH2 0xFC0 SWAP2 SWAP1 PUSH2 0x167C JUMP JUMPDEST SWAP3 POP POP DUP2 SWAP1 SSTORE POP POP POP POP JUMP JUMPDEST PUSH1 0x40 MLOAD DUP1 PUSH1 0x20 ADD PUSH1 0x40 MSTORE DUP1 PUSH0 DUP2 MSTORE POP SWAP1 JUMP JUMPDEST PUSH0 DUP3 DUP3 MSTORE PUSH1 0x20 DUP3 ADD SWAP1 POP SWAP3 SWAP2 POP POP JUMP JUMPDEST PUSH32 0x446F6E277420646F206974210000000000000000000000000000000000000000 PUSH0 DUP3 ADD MSTORE POP JUMP JUMPDEST PUSH0 PUSH2 0x1022 PUSH1 0xC DUP4 PUSH2 0xFDE JUMP JUMPDEST SWAP2 POP PUSH2 0x102D DUP3 PUSH2 0xFEE JUMP JUMPDEST PUSH1 0x20 DUP3 ADD SWAP1 POP SWAP2 SWAP1 POP JUMP JUMPDEST PUSH0 PUSH1 0x20 DUP3 ADD SWAP1 POP DUP2 DUP2 SUB PUSH0 DUP4 ADD MSTORE PUSH2 0x104F DUP2 PUSH2 0x1016 JUMP JUMPDEST SWAP1 POP SWAP2 SWAP1 POP JUMP JUMPDEST PUSH0 DUP2 SWAP1 POP SWAP2 SWAP1 POP JUMP JUMPDEST PUSH2 0x1068 DUP2 PUSH2 0x1056 JUMP JUMPDEST DUP3 MSTORE POP POP JUMP JUMPDEST PUSH0 PUSH1 0x20 DUP3 ADD SWAP1 POP PUSH2 0x1081 PUSH0 DUP4 ADD DUP5 PUSH2 0x105F JUMP JUMPDEST SWAP3 SWAP2 POP POP JUMP JUMPDEST PUSH0 PUSH0 REVERT JUMPDEST PUSH0 PUSH0 REVERT JUMPDEST PUSH0 PUSH20 0xFFFFFFFFFFFFFFFFFFFFFFFFFFFFFFFFFFFFFFFF DUP3 AND SWAP1 POP SWAP2 SWAP1 POP JUMP JUMPDEST PUSH0 PUSH2 0x10B8 DUP3 PUSH2 0x108F JUMP JUMPDEST SWAP1 POP SWAP2 SWAP1 POP JUMP JUMPDEST PUSH2 0x10C8 DUP2 PUSH2 0x10AE JUMP JUMPDEST DUP2 EQ PUSH2 0x10D2 JUMPI PUSH0 PUSH0 REVERT JUMPDEST POP JUMP JUMPDEST PUSH0 DUP2 CALLDATALOAD SWAP1 POP PUSH2 0x10E3 DUP2 PUSH2 0x10BF JUMP JUMPDEST SWAP3 SWAP2 POP POP JUMP JUMPDEST PUSH0 PUSH1 0x20 DUP3 DUP5 SUB SLT ISZERO PUSH2 0x10FE JUMPI PUSH2 0x10FD PUSH2 0x1087 JUMP JUMPDEST JUMPDEST PUSH0 PUSH2 0x110B DUP5 DUP3 DUP6 ADD PUSH2 0x10D5 JUMP JUMPDEST SWAP2 POP POP SWAP3 SWAP2 POP POP JUMP JUMPDEST PUSH2 0x111D DUP2 PUSH2 0x1056 JUMP JUMPDEST DUP3 MSTORE POP POP JUMP JUMPDEST PUSH1 0x20 DUP3 ADD PUSH0 DUP3 ADD MLOAD PUSH2 0x1137 PUSH0 DUP6 ADD DUP3 PUSH2 0x1114 JUMP JUMPDEST POP POP POP POP JUMP JUMPDEST PUSH0 PUSH1 0x20 DUP3 ADD SWAP1 POP PUSH2 0x1150 PUSH0 DUP4 ADD DUP5 PUSH2 0x1123 JUMP JUMPDEST SWAP3 SWAP2 POP POP JUMP JUMPDEST PUSH0 PUSH0 REVERT JUMPDEST PUSH0 PUSH0 REVERT JUMPDEST PUSH0 PUSH0 REVERT JUMPDEST PUSH0 PUSH0 DUP4 PUSH1 0x1F DUP5 ADD SLT PUSH2 0x1177 JUMPI PUSH2 0x1176 PUSH2 0x1156 JUMP JUMPDEST JUMPDEST DUP3 CALLDATALOAD SWAP1 POP PUSH8 0xFFFFFFFFFFFFFFFF DUP2 GT ISZERO PUSH2 0x1194 JUMPI PUSH2 0x1193 PUSH2 0x115A JUMP JUMPDEST JUMPDEST PUSH1 0x20 DUP4 ADD SWAP2 POP DUP4 PUSH1 0x20 DUP3 MUL DUP4 ADD GT ISZERO PUSH2 0x11B0 JUMPI PUSH2 0x11AF PUSH2 0x115E JUMP JUMPDEST JUMPDEST SWAP3 POP SWAP3 SWAP1 POP JUMP JUMPDEST PUSH0 PUSH0 DUP4 PUSH1 0x1F DUP5 ADD SLT PUSH2 0x11CC JUMPI PUSH2 0x11CB PUSH2 0x1156 JUMP JUMPDEST JUMPDEST DUP3 CALLDATALOAD SWAP1 POP PUSH8 0xFFFFFFFFFFFFFFFF DUP2 GT ISZERO PUSH2 0x11E9 JUMPI PUSH2 0x11E8 PUSH2 0x115A JUMP JUMPDEST JUMPDEST PUSH1 0x20 DUP4 ADD SWAP2 POP DUP4 PUSH1 0x20 DUP3 MUL DUP4 ADD GT ISZERO PUSH2 0x1205 JUMPI PUSH2 0x1204 PUSH2 0x115E JUMP JUMPDEST JUMPDEST SWAP3 POP SWAP3 SWAP1 POP JUMP JUMPDEST PUSH0 PUSH0 PUSH0 PUSH0 PUSH0 PUSH1 0x60 DUP7 DUP9 SUB SLT ISZERO PUSH2 0x1225 JUMPI PUSH2 0x1224 PUSH2 0x1087 JUMP JUMPDEST JUMPDEST PUSH0 PUSH2 0x1232 DUP9 DUP3 DUP10 ADD PUSH2 0x10D5 JUMP JUMPDEST SWAP6 POP POP PUSH1 0x20 DUP7 ADD CALLDATALOAD PUSH8 0xFFFFFFFFFFFFFFFF DUP2 GT ISZERO PUSH2 0x1253 JUMPI PUSH2 0x1252 PUSH2 0x108B JUMP JUMPDEST JUMPDEST PUSH2 0x125F DUP9 DUP3 DUP10 ADD PUSH2 0x1162 JUMP JUMPDEST SWAP5 POP SWAP5 POP POP PUSH1 0x40 DUP7 ADD CALLDATALOAD PUSH8 0xFFFFFFFFFFFFFFFF DUP2 GT ISZERO PUSH2 0x1282 JUMPI PUSH2 0x1281 PUSH2 0x108B JUMP JUMPDEST JUMPDEST PUSH2 0x128E DUP9 DUP3 DUP10 ADD PUSH2 0x11B7 JUMP JUMPDEST SWAP3 POP SWAP3 POP POP SWAP3 SWAP6 POP SWAP3 SWAP6 SWAP1 SWAP4 POP JUMP JUMPDEST PUSH0 DUP2 ISZERO ISZERO SWAP1 POP SWAP2 SWAP1 POP JUMP JUMPDEST PUSH2 0x12B1 DUP2 PUSH2 0x129D JUMP JUMPDEST DUP3 MSTORE POP POP JUMP JUMPDEST PUSH0 PUSH1 0x20 DUP3 ADD SWAP1 POP PUSH2 0x12CA PUSH0 DUP4 ADD DUP5 PUSH2 0x12A8 JUMP JUMPDEST SWAP3 SWAP2 POP POP JUMP JUMPDEST PUSH2 0x12D9 DUP2 PUSH2 0x1056 JUMP JUMPDEST DUP2 EQ PUSH2 0x12E3 JUMPI PUSH0 PUSH0 REVERT JUMPDEST POP JUMP JUMPDEST PUSH0 DUP2 CALLDATALOAD SWAP1 POP PUSH2 0x12F4 DUP2 PUSH2 0x12D0 JUMP JUMPDEST SWAP3 SWAP2 POP POP JUMP JUMPDEST PUSH0 PUSH1 0x20 DUP3 DUP5 SUB SLT ISZERO PUSH2 0x130F JUMPI PUSH2 0x130E PUSH2 0x1087 JUMP JUMPDEST JUMPDEST PUSH0 PUSH2 0x131C DUP5 DUP3 DUP6 ADD PUSH2 0x12E6 JUMP JUMPDEST SWAP2 POP POP SWAP3 SWAP2 POP POP JUMP JUMPDEST PUSH32 0x4F6E6C79206465706C6F7965722063616E2063616C6C20746869732066756E63 PUSH0 DUP3 ADD MSTORE PUSH32 0x74696F6E00000000000000000000000000000000000000000000000000000000 PUSH1 0x20 DUP3 ADD MSTORE POP JUMP JUMPDEST PUSH0 PUSH2 0x137F PUSH1 0x24 DUP4 PUSH2 0xFDE JUMP JUMPDEST SWAP2 POP PUSH2 0x138A DUP3 PUSH2 0x1325 JUMP JUMPDEST PUSH1 0x40 DUP3 ADD SWAP1 POP SWAP2 SWAP1 POP JUMP JUMPDEST PUSH0 PUSH1 0x20 DUP3 ADD SWAP1 POP DUP2 DUP2 SUB PUSH0 DUP4 ADD MSTORE PUSH2 0x13AC DUP2 PUSH2 0x1373 JUMP JUMPDEST SWAP1 POP SWAP2 SWAP1 POP JUMP JUMPDEST PUSH0 DUP2 SWAP1 POP SWAP3 SWAP2 POP POP JUMP JUMPDEST POP JUMP JUMPDEST PUSH0 PUSH2 0x13CB PUSH0 DUP4 PUSH2 0x13B3 JUMP JUMPDEST SWAP2 POP PUSH2 0x13D6 DUP3 PUSH2 0x13BD JUMP JUMPDEST PUSH0 DUP3 ADD SWAP1 POP SWAP2 SWAP1 POP JUMP JUMPDEST PUSH0 PUSH2 0x13EA DUP3 PUSH2 0x13C0 JUMP JUMPDEST SWAP2 POP DUP2 SWAP1 POP SWAP2 SWAP1 POP JUMP JUMPDEST PUSH32 0x455448207472616E73666572206661696C656400000000000000000000000000 PUSH0 DUP3 ADD MSTORE POP JUMP JUMPDEST PUSH0 PUSH2 0x1428 PUSH1 0x13 DUP4 PUSH2 0xFDE JUMP JUMPDEST SWAP2 POP PUSH2 0x1433 DUP3 PUSH2 0x13F4 JUMP JUMPDEST PUSH1 0x20 DUP3 ADD SWAP1 POP SWAP2 SWAP1 POP JUMP JUMPDEST PUSH0 PUSH1 0x20 DUP3 ADD SWAP1 POP DUP2 DUP2 SUB PUSH0 DUP4 ADD MSTORE PUSH2 0x1455 DUP2 PUSH2 0x141C JUMP JUMPDEST SWAP1 POP SWAP2 SWAP1 POP JUMP JUMPDEST PUSH32 0x5661756C7420616C726561647920637265617465640000000000000000000000 PUSH0 DUP3 ADD MSTORE POP JUMP JUMPDEST PUSH0 PUSH2 0x1490 PUSH1 0x15 DUP4 PUSH2 0xFDE JUMP JUMPDEST SWAP2 POP PUSH2 0x149B DUP3 PUSH2 0x145C JUMP JUMPDEST PUSH1 0x20 DUP3 ADD SWAP1 POP SWAP2 SWAP1 POP JUMP JUMPDEST PUSH0 PUSH1 0x20 DUP3 ADD SWAP1 POP DUP2 DUP2 SUB PUSH0 DUP4 ADD MSTORE PUSH2 0x14BD DUP2 PUSH2 0x1484 JUMP JUMPDEST SWAP1 POP SWAP2 SWAP1 POP JUMP JUMPDEST PUSH32 0x457861637420302E312045544820726571756972656400000000000000000000 PUSH0 DUP3 ADD MSTORE POP JUMP JUMPDEST PUSH0 PUSH2 0x14F8 PUSH1 0x16 DUP4 PUSH2 0xFDE JUMP JUMPDEST SWAP2 POP PUSH2 0x1503 DUP3 PUSH2 0x14C4 JUMP JUMPDEST PUSH1 0x20 DUP3 ADD SWAP1 POP SWAP2 SWAP1 POP JUMP JUMPDEST PUSH0 PUSH1 0x20 DUP3 ADD SWAP1 POP DUP2 DUP2 SUB PUSH0 DUP4 ADD MSTORE PUSH2 0x1525 DUP2 PUSH2 0x14EC JUMP JUMPDEST SWAP1 POP SWAP2 SWAP1 POP JUMP JUMPDEST PUSH32 0x5661756C7420646F6573206E6F74206578697374000000000000000000000000 PUSH0 DUP3 ADD MSTORE POP JUMP JUMPDEST PUSH0 PUSH2 0x1560 PUSH1 0x14 DUP4 PUSH2 0xFDE JUMP JUMPDEST SWAP2 POP PUSH2 0x156B DUP3 PUSH2 0x152C JUMP JUMPDEST PUSH1 0x20 DUP3 ADD SWAP1 POP SWAP2 SWAP1 POP JUMP JUMPDEST PUSH0 PUSH1 0x20 DUP3 ADD SWAP1 POP DUP2 DUP2 SUB PUSH0 DUP4 ADD MSTORE PUSH2 0x158D DUP2 PUSH2 0x1554 JUMP JUMPDEST SWAP1 POP SWAP2 SWAP1 POP JUMP JUMPDEST PUSH32 0x526563697069656E747320616E6420616D6F756E7473206C656E677468206D69 PUSH0 DUP3 ADD MSTORE PUSH32 0x736D617463680000000000000000000000000000000000000000000000000000 PUSH1 0x20 DUP3 ADD MSTORE POP JUMP JUMPDEST PUSH0 PUSH2 0x15EE PUSH1 0x26 DUP4 PUSH2 0xFDE JUMP JUMPDEST SWAP2 POP PUSH2 0x15F9 DUP3 PUSH2 0x1594 JUMP JUMPDEST PUSH1 0x40 DUP3 ADD SWAP1 POP SWAP2 SWAP1 POP JUMP JUMPDEST PUSH0 PUSH1 0x20 DUP3 ADD SWAP1 POP DUP2 DUP2 SUB PUSH0 DUP4 ADD MSTORE PUSH2 0x161B DUP2 PUSH2 0x15E2 JUMP JUMPDEST SWAP1 POP SWAP2 SWAP1 POP JUMP JUMPDEST PUSH32 0x4E487B7100000000000000000000000000000000000000000000000000000000 PUSH0 MSTORE PUSH1 0x32 PUSH1 0x4 MSTORE PUSH1 0x24 PUSH0 REVERT JUMPDEST PUSH32 0x4E487B7100000000000000000000000000000000000000000000000000000000 PUSH0 MSTORE PUSH1 0x11 PUSH1 0x4 MSTORE PUSH1 0x24 PUSH0 REVERT JUMPDEST PUSH0 PUSH2 0x1686 DUP3 PUSH2 0x1056 JUMP JUMPDEST SWAP2 POP PUSH2 0x1691 DUP4 PUSH2 0x1056 JUMP JUMPDEST SWAP3 POP DUP3 DUP3 ADD SWAP1 POP DUP1 DUP3 GT ISZERO PUSH2 0x16A9 JUMPI PUSH2 0x16A8 PUSH2 0x164F JUMP JUMPDEST JUMPDEST SWAP3 SWAP2 POP POP JUMP JUMPDEST PUSH32 0x496E73756666696369656E742045544820696E207661756C7400000000000000 PUSH0 DUP3 ADD MSTORE POP JUMP JUMPDEST PUSH0 PUSH2 0x16E3 PUSH1 0x19 DUP4 PUSH2 0xFDE JUMP JUMPDEST SWAP2 POP PUSH2 0x16EE DUP3 PUSH2 0x16AF JUMP JUMPDEST PUSH1 0x20 DUP3 ADD SWAP1 POP SWAP2 SWAP1 POP JUMP JUMPDEST PUSH0 PUSH1 0x20 DUP3 ADD SWAP1 POP DUP2 DUP2 SUB PUSH0 DUP4 ADD MSTORE PUSH2 0x1710 DUP2 PUSH2 0x16D7 JUMP JUMPDEST SWAP1 POP SWAP2 SWAP1 POP JUMP JUMPDEST PUSH0 PUSH2 0x1721 DUP3 PUSH2 0x1056 JUMP JUMPDEST SWAP2 POP PUSH2 0x172C DUP4 PUSH2 0x1056 JUMP JUMPDEST SWAP3 POP DUP3 DUP3 SUB SWAP1 POP DUP2 DUP2 GT ISZERO PUSH2 0x1744 JUMPI PUSH2 0x1743 PUSH2 0x164F JUMP JUMPDEST JUMPDEST SWAP3 SWAP2 POP POP JUMP JUMPDEST PUSH0 DUP3 DUP3 MSTORE PUSH1 0x20 DUP3 ADD SWAP1 POP SWAP3 SWAP2 POP POP JUMP JUMPDEST PUSH0 DUP2 SWAP1 POP SWAP2 SWAP1 POP JUMP JUMPDEST PUSH2 0x176C DUP2 PUSH2 0x10AE JUMP JUMPDEST DUP3 MSTORE POP POP JUMP JUMPDEST PUSH0 PUSH2 0x177D DUP4 DUP4 PUSH2 0x1763 JUMP JUMPDEST PUSH1 0x20 DUP4 ADD SWAP1 POP SWAP3 SWAP2 POP POP JUMP JUMPDEST PUSH0 PUSH2 0x1797 PUSH1 0x20 DUP5 ADD DUP5 PUSH2 0x10D5 JUMP JUMPDEST SWAP1 POP SWAP3 SWAP2 POP POP JUMP JUMPDEST PUSH0 PUSH1 0x20 DUP3 ADD SWAP1 POP SWAP2 SWAP1 POP JUMP JUMPDEST PUSH0 PUSH2 0x17B6 DUP4 DUP6 PUSH2 0x174A JUMP JUMPDEST SWAP4 POP PUSH2 0x17C1 DUP3 PUSH2 0x175A JUMP JUMPDEST DUP1 PUSH0 JUMPDEST DUP6 DUP2 LT ISZERO PUSH2 0x17F9 JUMPI PUSH2 0x17D6 DUP3 DUP5 PUSH2 0x1789 JUMP JUMPDEST PUSH2 0x17E0 DUP9 DUP3 PUSH2 0x1772 JUMP JUMPDEST SWAP8 POP PUSH2 0x17EB DUP4 PUSH2 0x179F JUMP JUMPDEST SWAP3 POP POP PUSH1 0x1 DUP2 ADD SWAP1 POP PUSH2 0x17C4 JUMP JUMPDEST POP DUP6 SWAP3 POP POP POP SWAP4 SWAP3 POP POP POP JUMP JUMPDEST PUSH0 DUP3 DUP3 MSTORE PUSH1 0x20 DUP3 ADD SWAP1 POP SWAP3 SWAP2 POP POP JUMP JUMPDEST PUSH0 PUSH0 REVERT JUMPDEST DUP3 DUP2 DUP4 CALLDATACOPY POP POP POP JUMP JUMPDEST PUSH0 PUSH2 0x182E DUP4 DUP6 PUSH2 0x1806 JUMP JUMPDEST SWAP4 POP PUSH32 0x7FFFFFFFFFFFFFFFFFFFFFFFFFFFFFFFFFFFFFFFFFFFFFFFFFFFFFFFFFFFFFF DUP4 GT ISZERO PUSH2 0x1861 JUMPI PUSH2 0x1860 PUSH2 0x1816 JUMP JUMPDEST JUMPDEST PUSH1 0x20 DUP4 MUL SWAP3 POP PUSH2 0x1872 DUP4 DUP6 DUP5 PUSH2 0x181A JUMP JUMPDEST DUP3 DUP5 ADD SWAP1 POP SWAP4 SWAP3 POP POP POP JUMP JUMPDEST PUSH0 PUSH1 0x40 DUP3 ADD SWAP1 POP DUP2 DUP2 SUB PUSH0 DUP4 ADD MSTORE PUSH2 0x1897 DUP2 DUP7 DUP9 PUSH2 0x17AB JUMP JUMPDEST SWAP1 POP DUP2 DUP2 SUB PUSH1 0x20 DUP4 ADD MSTORE PUSH2 0x18AC DUP2 DUP5 DUP7 PUSH2 0x1823 JUMP JUMPDEST SWAP1 POP SWAP6 SWAP5 POP POP POP POP POP JUMP JUMPDEST PUSH32 0x496E73756666696369656E742045544800000000000000000000000000000000 PUSH0 DUP3 ADD MSTORE POP JUMP JUMPDEST PUSH0 PUSH2 0x18EB PUSH1 0x10 DUP4 PUSH2 0xFDE JUMP JUMPDEST SWAP2 POP PUSH2 0x18F6 DUP3 PUSH2 0x18B7 JUMP JUMPDEST PUSH1 0x20 DUP3 ADD SWAP1 POP SWAP2 SWAP1 POP JUMP JUMPDEST PUSH0 PUSH1 0x20 DUP3 ADD SWAP1 POP DUP2 DUP2 SUB PUSH0 DUP4 ADD MSTORE PUSH2 0x1918 DUP2 PUSH2 0x18DF JUMP JUMPDEST SWAP1 POP SWAP2 SWAP1 POP JUMP JUMPDEST PUSH32 0x437265617465207661756C742066697273740000000000000000000000000000 PUSH0 DUP3 ADD MSTORE POP JUMP JUMPDEST PUSH0 PUSH2 0x1953 PUSH1 0x12 DUP4 PUSH2 0xFDE JUMP JUMPDEST SWAP2 POP PUSH2 0x195E DUP3 PUSH2 0x191F JUMP JUMPDEST PUSH1 0x20 DUP3 ADD SWAP1 POP SWAP2 SWAP1 POP JUMP JUMPDEST PUSH0 PUSH1 0x20 DUP3 ADD SWAP1 POP DUP2 DUP2 SUB PUSH0 DUP4 ADD MSTORE PUSH2 0x1980 DUP2 PUSH2 0x1947 JUMP JUMPDEST SWAP1 POP SWAP2 SWAP1 POP JUMP JUMPDEST PUSH32 0x4E6F204554482073656E74000000000000000000000000000000000000000000 PUSH0 DUP3 ADD MSTORE POP JUMP JUMPDEST PUSH0 PUSH2 0x19BB PUSH1 0xB DUP4 PUSH2 0xFDE JUMP JUMPDEST SWAP2 POP PUSH2 0x19C6 DUP3 PUSH2 0x1987 JUMP JUMPDEST PUSH1 0x20 DUP3 ADD SWAP1 POP SWAP2 SWAP1 POP JUMP JUMPDEST PUSH0 PUSH1 0x20 DUP3 ADD SWAP1 POP DUP2 DUP2 SUB PUSH0 DUP4 ADD MSTORE PUSH2 0x19E8 DUP2 PUSH2 0x19AF JUMP JUMPDEST SWAP1 POP SWAP2 SWAP1 POP JUMP JUMPDEST PUSH0 PUSH2 0x19F9 DUP3 PUSH2 0x1056 JUMP JUMPDEST SWAP2 POP PUSH2 0x1A04 DUP4 PUSH2 0x1056 JUMP JUMPDEST SWAP3 POP DUP3 DUP3 MUL PUSH2 0x1A12 DUP2 PUSH2 0x1056 JUMP JUMPDEST SWAP2 POP DUP3 DUP3 DIV DUP5 EQ DUP4 ISZERO OR PUSH2 0x1A29 JUMPI PUSH2 0x1A28 PUSH2 0x164F JUMP JUMPDEST JUMPDEST POP SWAP3 SWAP2 POP POP JUMP JUMPDEST PUSH32 0x4E487B7100000000000000000000000000000000000000000000000000000000 PUSH0 MSTORE PUSH1 0x12 PUSH1 0x4 MSTORE PUSH1 0x24 PUSH0 REVERT JUMPDEST PUSH0 PUSH2 0x1A67 DUP3 PUSH2 0x1056 JUMP JUMPDEST SWAP2 POP PUSH2 0x1A72 DUP4 PUSH2 0x1056 JUMP JUMPDEST SWAP3 POP DUP3 PUSH2 0x1A82 JUMPI PUSH2 0x1A81 PUSH2 0x1A30 JUMP JUMPDEST JUMPDEST DUP3 DUP3 DIV SWAP1 POP SWAP3 SWAP2 POP POP JUMP JUMPDEST PUSH32 0x4E6574206973207A65726F000000000000000000000000000000000000000000 PUSH0 DUP3 ADD MSTORE POP JUMP JUMPDEST PUSH0 PUSH2 0x1AC1 PUSH1 0xB DUP4 PUSH2 0xFDE JUMP JUMPDEST SWAP2 POP PUSH2 0x1ACC DUP3 PUSH2 0x1A8D JUMP JUMPDEST PUSH1 0x20 DUP3 ADD SWAP1 POP SWAP2 SWAP1 POP JUMP JUMPDEST PUSH0 PUSH1 0x20 DUP3 ADD SWAP1 POP DUP2 DUP2 SUB PUSH0 DUP4 ADD MSTORE PUSH2 0x1AEE DUP2 PUSH2 0x1AB5 JUMP JUMPDEST SWAP1 POP SWAP2 SWAP1 POP JUMP JUMPDEST PUSH0 PUSH1 0x60 DUP3 ADD SWAP1 POP PUSH2 0x1B08 PUSH0 DUP4 ADD DUP7 PUSH2 0x105F JUMP JUMPDEST PUSH2 0x1B15 PUSH1 0x20 DUP4 ADD DUP6 PUSH2 0x105F JUMP JUMPDEST PUSH2 0x1B22 PUSH1 0x40 DUP4 ADD DUP5 PUSH2 0x105F JUMP JUMPDEST SWAP5 SWAP4 POP POP POP POP JUMP INVALID LOG2 PUSH5 0x6970667358 0x22 SLT KECCAK256 SWAP1 MSTORE8 0xA9 LOG1 DUP11 0x4C CALLDATASIZE SELFDESTRUCT 0xE8 JUMP CALLER SWAP3 0xCF 0xC5 0xDA 0x22 CODECOPY CHAINID PUSH24 0xC4E2865533D987026F14DFC64964736F6C634300081E0033 "
				},
				"gasEstimates": {
					"creation": {
						"codeDepositCost": "1401600",
						"executionCost": "infinite",
						"totalCost": "infinite"
					},
					"external": {
						"createVault()": "infinite",
						"depositETH()": "infinite",
						"distributeVault(address,address[],uint256[])": "infinite",
						"iHaveVault()": "2586",
						"myVault()": "2763",
						"showFees()": "2439",
						"vaultBalance(address)": "infinite",
						"withdrawETH(uint256)": "infinite",
						"withdrawFees(address)": "infinite"
					},
					"internal": {
						"_credit(address,uint256)": "infinite",
						"_creditContractVault(uint256)": "infinite",
						"_ensureVault(address)": "27708"
					}
				},
				"methodIdentifiers": {
					"createVault()": "5d12928b",
					"depositETH()": "f6326fb3",
					"distributeVault(address,address[],uint256[])": "a58b8c3e",
					"iHaveVault()": "bec1391a",
					"myVault()": "9f5f0520",
					"showFees()": "04d8c8e2",
					"vaultBalance(address)": "ed0fe416",
					"withdrawETH(uint256)": "f14210a6",
					"withdrawFees(address)": "164e68de"
				}
			},
			"storageLayout": {
				"storage": [
					{
						"astId": 23,
						"contract": "src/contracts/EtherniumTcc.sol:EthereumTcc",
						"label": "testators",
						"offset": 0,
						"slot": "0",
						"type": "t_mapping(t_address,t_struct(Vault)15_storage)"
					},
					{
						"astId": 27,
						"contract": "src/contracts/EtherniumTcc.sol:EthereumTcc",
						"label": "vaultCreatedAndPaid",
						"offset": 0,
						"slot": "1",
						"type": "t_mapping(t_address,t_bool)"
					},
					{
						"astId": 30,
						"contract": "src/contracts/EtherniumTcc.sol:EthereumTcc",
						"label": "vaultOfContract",
						"offset": 0,
						"slot": "2",
						"type": "t_struct(Vault)15_storage"
					}
				],
				"types": {
					"t_address": {
						"encoding": "inplace",
						"label": "address",
						"numberOfBytes": "20"
					},
					"t_bool": {
						"encoding": "inplace",
						"label": "bool",
						"numberOfBytes": "1"
					},
					"t_mapping(t_address,t_bool)": {
						"encoding": "mapping",
						"key": "t_address",
						"label": "mapping(address => bool)",
						"numberOfBytes": "32",
						"value": "t_bool"
					},
					"t_mapping(t_address,t_struct(Vault)15_storage)": {
						"encoding": "mapping",
						"key": "t_address",
						"label": "mapping(address => struct EthereumTcc.Vault)",
						"numberOfBytes": "32",
						"value": "t_struct(Vault)15_storage"
					},
					"t_struct(Vault)15_storage": {
						"encoding": "inplace",
						"label": "struct EthereumTcc.Vault",
						"members": [
							{
								"astId": 12,
								"contract": "src/contracts/EtherniumTcc.sol:EthereumTcc",
								"label": "exist",
								"offset": 0,
								"slot": "0",
								"type": "t_bool"
							},
							{
								"astId": 14,
								"contract": "src/contracts/EtherniumTcc.sol:EthereumTcc",
								"label": "balance",
								"offset": 0,
								"slot": "1",
								"type": "t_uint256"
							}
						],
						"numberOfBytes": "64"
					},
					"t_uint256": {
						"encoding": "inplace",
						"label": "uint256",
						"numberOfBytes": "32"
					}
				}
			},
			"userdoc": {
				"kind": "user",
				"methods": {},
				"version": 1
			}
		}
	}
}