{
	"src/contracts/Ethernium-eth.sol": {
		"Ethernium": {
			"abi": [
				{
					"inputs": [],
					"stateMutability": "nonpayable",
					"type": "constructor"
				},
				{
					"anonymous": false,
					"inputs": [
						{
							"indexed": true,
							"internalType": "address",
							"name": "testator",
							"type": "address"
						},
						{
							"indexed": false,
							"internalType": "uint256",
							"name": "grossAmount",
							"type": "uint256"
						},
						{
							"indexed": false,
							"internalType": "uint256",
							"name": "feeAmount",
							"type": "uint256"
						},
						{
							"indexed": false,
							"internalType": "uint256",
							"name": "netAmount",
							"type": "uint256"
						}
					],
					"name": "Deposit",
					"type": "event"
				},
				{
					"anonymous": false,
					"inputs": [
						{
							"indexed": true,
							"internalType": "address",
							"name": "testator",
							"type": "address"
						}
					],
					"name": "VaultCreated",
					"type": "event"
				},
				{
					"anonymous": false,
					"inputs": [
						{
							"indexed": true,
							"internalType": "address",
							"name": "testator",
							"type": "address"
						},
						{
							"indexed": false,
							"internalType": "address[]",
							"name": "recipients",
							"type": "address[]"
						},
						{
							"indexed": false,
							"internalType": "uint256[]",
							"name": "amounts",
							"type": "uint256[]"
						}
					],
					"name": "VaultDistributed",
					"type": "event"
				},
				{
					"anonymous": false,
					"inputs": [
						{
							"indexed": true,
							"internalType": "address",
							"name": "testator",
							"type": "address"
						},
						{
							"indexed": false,
							"internalType": "uint256",
							"name": "amount",
							"type": "uint256"
						}
					],
					"name": "Withdraw",
					"type": "event"
				},
				{
					"inputs": [],
					"name": "createVault",
					"outputs": [],
					"stateMutability": "payable",
					"type": "function"
				},
				{
					"inputs": [],
					"name": "depositETH",
					"outputs": [],
					"stateMutability": "payable",
					"type": "function"
				},
				{
					"inputs": [
						{
							"internalType": "address",
							"name": "testator",
							"type": "address"
						},
						{
							"internalType": "address[]",
							"name": "recipients",
							"type": "address[]"
						},
						{
							"internalType": "uint256[]",
							"name": "amounts",
							"type": "uint256[]"
						}
					],
					"name": "distributeVault",
					"outputs": [],
					"stateMutability": "nonpayable",
					"type": "function"
				},
				{
					"inputs": [],
					"name": "myVault",
					"outputs": [
						{
							"components": [
								{
									"internalType": "uint256",
									"name": "balances",
									"type": "uint256"
								}
							],
							"internalType": "struct Ethernium.VaultView",
							"name": "v",
							"type": "tuple"
						}
					],
					"stateMutability": "view",
					"type": "function"
				},
				{
					"inputs": [
						{
							"internalType": "uint256",
							"name": "amount",
							"type": "uint256"
						}
					],
					"name": "withdrawETH",
					"outputs": [],
					"stateMutability": "nonpayable",
					"type": "function"
				},
				{
					"stateMutability": "payable",
					"type": "receive"
				}
			],
			"devdoc": {
				"kind": "dev",
				"methods": {},
				"version": 1
			},
			"evm": {
				"assembly": "    /* \"src/contracts/Ethernium-eth.sol\":125:5812  contract Ethernium {... */\n  mstore(0x40, 0xa0)\n    /* \"src/contracts/Ethernium-eth.sol\":1423:1475  constructor() {... */\n  callvalue\n  dup1\n  iszero\n  tag_1\n  jumpi\n  revert(0x00, 0x00)\ntag_1:\n  pop\n    /* \"src/contracts/Ethernium-eth.sol\":1458:1468  msg.sender */\n  caller\n    /* \"src/contracts/Ethernium-eth.sol\":1447:1468  deployer = msg.sender */\n  0xffffffffffffffffffffffffffffffffffffffff\n  and\n  0x80\n  dup2\n  0xffffffffffffffffffffffffffffffffffffffff\n  and\n  dup2\n  mstore\n  pop\n  pop\n    /* \"src/contracts/Ethernium-eth.sol\":125:5812  contract Ethernium {... */\n  mload(0x80)\n  codecopy(0x00, dataOffset(sub_0), dataSize(sub_0))\n  0x00\n  assignImmutable(\"0x2c3da56e833e1428007d8637dd3cd84c748b28d433badee9fb79b2375e44acbf\")\n  return(0x00, dataSize(sub_0))\nstop\n\nsub_0: assembly {\n        /* \"src/contracts/Ethernium-eth.sol\":125:5812  contract Ethernium {... */\n      mstore(0x40, 0x80)\n      jumpi(tag_1, lt(calldatasize, 0x04))\n      shr(0xe0, calldataload(0x00))\n      dup1\n      0x5d12928b\n      eq\n      tag_3\n      jumpi\n      dup1\n      0x9f5f0520\n      eq\n      tag_4\n      jumpi\n      dup1\n      0xa58b8c3e\n      eq\n      tag_5\n      jumpi\n      dup1\n      0xf14210a6\n      eq\n      tag_6\n      jumpi\n      dup1\n      0xf6326fb3\n      eq\n      tag_7\n      jumpi\n      jump(tag_2)\n    tag_1:\n      jumpi(tag_2, calldatasize)\n        /* \"src/contracts/Ethernium-eth.sol\":1597:1619  revert(\"Don't do it!\") */\n      mload(0x40)\n      0x08c379a000000000000000000000000000000000000000000000000000000000\n      dup2\n      mstore\n      0x04\n      add\n      tag_10\n      swap1\n      tag_11\n      jump\t// in\n    tag_10:\n      mload(0x40)\n      dup1\n      swap2\n      sub\n      swap1\n      revert\n        /* \"src/contracts/Ethernium-eth.sol\":125:5812  contract Ethernium {... */\n    tag_2:\n      revert(0x00, 0x00)\n        /* \"src/contracts/Ethernium-eth.sol\":1694:2205  function createVault() external payable {... */\n    tag_3:\n      tag_12\n      tag_13\n      jump\t// in\n    tag_12:\n      stop\n        /* \"src/contracts/Ethernium-eth.sol\":3011:3195  function myVault() public view returns (VaultView memory v) {... */\n    tag_4:\n      callvalue\n      dup1\n      iszero\n      tag_14\n      jumpi\n      revert(0x00, 0x00)\n    tag_14:\n      pop\n      tag_15\n      tag_16\n      jump\t// in\n    tag_15:\n      mload(0x40)\n      tag_17\n      swap2\n      swap1\n      tag_18\n      jump\t// in\n    tag_17:\n      mload(0x40)\n      dup1\n      swap2\n      sub\n      swap1\n      return\n        /* \"src/contracts/Ethernium-eth.sol\":3802:5130  function distributeVault(... */\n    tag_5:\n      callvalue\n      dup1\n      iszero\n      tag_19\n      jumpi\n      revert(0x00, 0x00)\n    tag_19:\n      pop\n      tag_20\n      0x04\n      dup1\n      calldatasize\n      sub\n      dup2\n      add\n      swap1\n      tag_21\n      swap2\n      swap1\n      tag_22\n      jump\t// in\n    tag_21:\n      tag_23\n      jump\t// in\n    tag_20:\n      stop\n        /* \"src/contracts/Ethernium-eth.sol\":3283:3670  function withdrawETH(uint256 amount) external {... */\n    tag_6:\n      callvalue\n      dup1\n      iszero\n      tag_24\n      jumpi\n      revert(0x00, 0x00)\n    tag_24:\n      pop\n      tag_25\n      0x04\n      dup1\n      calldatasize\n      sub\n      dup2\n      add\n      swap1\n      tag_26\n      swap2\n      swap1\n      tag_27\n      jump\t// in\n    tag_26:\n      tag_28\n      jump\t// in\n    tag_25:\n      stop\n        /* \"src/contracts/Ethernium-eth.sol\":2380:2936  function depositETH() external payable {... */\n    tag_7:\n      tag_29\n      tag_30\n      jump\t// in\n    tag_29:\n      stop\n        /* \"src/contracts/Ethernium-eth.sol\":1694:2205  function createVault() external payable {... */\n    tag_13:\n        /* \"src/contracts/Ethernium-eth.sol\":1753:1772  vaultCreatedAndPaid */\n      0x01\n        /* \"src/contracts/Ethernium-eth.sol\":1753:1784  vaultCreatedAndPaid[msg.sender] */\n      0x00\n        /* \"src/contracts/Ethernium-eth.sol\":1773:1783  msg.sender */\n      caller\n        /* \"src/contracts/Ethernium-eth.sol\":1753:1784  vaultCreatedAndPaid[msg.sender] */\n      0xffffffffffffffffffffffffffffffffffffffff\n      and\n      0xffffffffffffffffffffffffffffffffffffffff\n      and\n      dup2\n      mstore\n      0x20\n      add\n      swap1\n      dup2\n      mstore\n      0x20\n      add\n      0x00\n      keccak256\n      0x00\n      swap1\n      sload\n      swap1\n      0x0100\n      exp\n      swap1\n      div\n      0xff\n      and\n        /* \"src/contracts/Ethernium-eth.sol\":1752:1784  !vaultCreatedAndPaid[msg.sender] */\n      iszero\n        /* \"src/contracts/Ethernium-eth.sol\":1744:1810  require(!vaultCreatedAndPaid[msg.sender], \"Vault already created\") */\n      tag_32\n      jumpi\n      mload(0x40)\n      0x08c379a000000000000000000000000000000000000000000000000000000000\n      dup2\n      mstore\n      0x04\n      add\n      tag_33\n      swap1\n      tag_34\n      jump\t// in\n    tag_33:\n      mload(0x40)\n      dup1\n      swap2\n      sub\n      swap1\n      revert\n    tag_32:\n        /* \"src/contracts/Ethernium-eth.sol\":190:204  10000000000000 */\n      0x09184e72a000\n        /* \"src/contracts/Ethernium-eth.sol\":1828:1837  msg.value */\n      callvalue\n        /* \"src/contracts/Ethernium-eth.sol\":1828:1853  msg.value == CREATION_FEE */\n      eq\n        /* \"src/contracts/Ethernium-eth.sol\":1820:1880  require(msg.value == CREATION_FEE, \"Exact 0.1 ETH required\") */\n      tag_35\n      jumpi\n      mload(0x40)\n      0x08c379a000000000000000000000000000000000000000000000000000000000\n      dup2\n      mstore\n      0x04\n      add\n      tag_36\n      swap1\n      tag_37\n      jump\t// in\n    tag_36:\n      mload(0x40)\n      dup1\n      swap2\n      sub\n      swap1\n      revert\n    tag_35:\n        /* \"src/contracts/Ethernium-eth.sol\":1924:1928  true */\n      0x01\n        /* \"src/contracts/Ethernium-eth.sol\":1890:1909  vaultCreatedAndPaid */\n      dup1\n        /* \"src/contracts/Ethernium-eth.sol\":1890:1921  vaultCreatedAndPaid[msg.sender] */\n      0x00\n        /* \"src/contracts/Ethernium-eth.sol\":1910:1920  msg.sender */\n      caller\n        /* \"src/contracts/Ethernium-eth.sol\":1890:1921  vaultCreatedAndPaid[msg.sender] */\n      0xffffffffffffffffffffffffffffffffffffffff\n      and\n      0xffffffffffffffffffffffffffffffffffffffff\n      and\n      dup2\n      mstore\n      0x20\n      add\n      swap1\n      dup2\n      mstore\n      0x20\n      add\n      0x00\n      keccak256\n      0x00\n        /* \"src/contracts/Ethernium-eth.sol\":1890:1928  vaultCreatedAndPaid[msg.sender] = true */\n      0x0100\n      exp\n      dup2\n      sload\n      dup2\n      0xff\n      mul\n      not\n      and\n      swap1\n      dup4\n      iszero\n      iszero\n      mul\n      or\n      swap1\n      sstore\n      pop\n        /* \"src/contracts/Ethernium-eth.sol\":1939:1954  Vault storage v */\n      0x00\n        /* \"src/contracts/Ethernium-eth.sol\":1957:1966  testators */\n      0x00\n        /* \"src/contracts/Ethernium-eth.sol\":1957:1978  testators[msg.sender] */\n      0x00\n        /* \"src/contracts/Ethernium-eth.sol\":1967:1977  msg.sender */\n      caller\n        /* \"src/contracts/Ethernium-eth.sol\":1957:1978  testators[msg.sender] */\n      0xffffffffffffffffffffffffffffffffffffffff\n      and\n      0xffffffffffffffffffffffffffffffffffffffff\n      and\n      dup2\n      mstore\n      0x20\n      add\n      swap1\n      dup2\n      mstore\n      0x20\n      add\n      0x00\n      keccak256\n        /* \"src/contracts/Ethernium-eth.sol\":1939:1978  Vault storage v = testators[msg.sender] */\n      swap1\n      pop\n        /* \"src/contracts/Ethernium-eth.sol\":1993:1994  v */\n      dup1\n        /* \"src/contracts/Ethernium-eth.sol\":1993:2000  v.exist */\n      0x00\n      add\n      0x00\n      swap1\n      sload\n      swap1\n      0x0100\n      exp\n      swap1\n      div\n      0xff\n      and\n        /* \"src/contracts/Ethernium-eth.sol\":1988:2132  if (!v.exist) {... */\n      tag_38\n      jumpi\n        /* \"src/contracts/Ethernium-eth.sol\":2016:2050  _creditContractVault(CREATION_FEE) */\n      tag_39\n        /* \"src/contracts/Ethernium-eth.sol\":190:204  10000000000000 */\n      0x09184e72a000\n        /* \"src/contracts/Ethernium-eth.sol\":2016:2036  _creditContractVault */\n      tag_40\n        /* \"src/contracts/Ethernium-eth.sol\":2016:2050  _creditContractVault(CREATION_FEE) */\n      jump\t// in\n    tag_39:\n        /* \"src/contracts/Ethernium-eth.sol\":2074:2078  true */\n      0x01\n        /* \"src/contracts/Ethernium-eth.sol\":2064:2065  v */\n      dup2\n        /* \"src/contracts/Ethernium-eth.sol\":2064:2071  v.exist */\n      0x00\n      add\n      0x00\n        /* \"src/contracts/Ethernium-eth.sol\":2064:2078  v.exist = true */\n      0x0100\n      exp\n      dup2\n      sload\n      dup2\n      0xff\n      mul\n      not\n      and\n      swap1\n      dup4\n      iszero\n      iszero\n      mul\n      or\n      swap1\n      sstore\n      pop\n        /* \"src/contracts/Ethernium-eth.sol\":2110:2120  msg.sender */\n      caller\n        /* \"src/contracts/Ethernium-eth.sol\":2097:2121  VaultCreated(msg.sender) */\n      0xffffffffffffffffffffffffffffffffffffffff\n      and\n      0x2e49a5810fda2439a23771848b4acec786b0a64d4de3d124ac57fc8739c38875\n      mload(0x40)\n      mload(0x40)\n      dup1\n      swap2\n      sub\n      swap1\n      log2\n        /* \"src/contracts/Ethernium-eth.sol\":1988:2132  if (!v.exist) {... */\n    tag_38:\n        /* \"src/contracts/Ethernium-eth.sol\":1734:2205  {... */\n      pop\n        /* \"src/contracts/Ethernium-eth.sol\":1694:2205  function createVault() external payable {... */\n      jump\t// out\n        /* \"src/contracts/Ethernium-eth.sol\":3011:3195  function myVault() public view returns (VaultView memory v) {... */\n    tag_16:\n        /* \"src/contracts/Ethernium-eth.sol\":3051:3069  VaultView memory v */\n      tag_41\n      tag_42\n      jump\t// in\n    tag_41:\n        /* \"src/contracts/Ethernium-eth.sol\":3081:3098  Vault storage src */\n      0x00\n        /* \"src/contracts/Ethernium-eth.sol\":3101:3110  testators */\n      0x00\n        /* \"src/contracts/Ethernium-eth.sol\":3101:3122  testators[msg.sender] */\n      0x00\n        /* \"src/contracts/Ethernium-eth.sol\":3111:3121  msg.sender */\n      caller\n        /* \"src/contracts/Ethernium-eth.sol\":3101:3122  testators[msg.sender] */\n      0xffffffffffffffffffffffffffffffffffffffff\n      and\n      0xffffffffffffffffffffffffffffffffffffffff\n      and\n      dup2\n      mstore\n      0x20\n      add\n      swap1\n      dup2\n      mstore\n      0x20\n      add\n      0x00\n      keccak256\n        /* \"src/contracts/Ethernium-eth.sol\":3081:3122  Vault storage src = testators[msg.sender] */\n      swap1\n      pop\n        /* \"src/contracts/Ethernium-eth.sol\":3136:3170  VaultView({balances: src.balance}) */\n      mload(0x40)\n      dup1\n      0x20\n      add\n      0x40\n      mstore\n      dup1\n        /* \"src/contracts/Ethernium-eth.sol\":3157:3160  src */\n      dup3\n        /* \"src/contracts/Ethernium-eth.sol\":3157:3168  src.balance */\n      0x01\n      add\n      sload\n        /* \"src/contracts/Ethernium-eth.sol\":3136:3170  VaultView({balances: src.balance}) */\n      dup2\n      mstore\n      pop\n        /* \"src/contracts/Ethernium-eth.sol\":3132:3170  v = VaultView({balances: src.balance}) */\n      swap2\n      pop\n        /* \"src/contracts/Ethernium-eth.sol\":3180:3188  return v */\n      pop\n        /* \"src/contracts/Ethernium-eth.sol\":3011:3195  function myVault() public view returns (VaultView memory v) {... */\n      swap1\n      jump\t// out\n        /* \"src/contracts/Ethernium-eth.sol\":3802:5130  function distributeVault(... */\n    tag_23:\n        /* \"src/contracts/Ethernium-eth.sol\":4023:4031  deployer */\n      immutable(\"0x2c3da56e833e1428007d8637dd3cd84c748b28d433badee9fb79b2375e44acbf\")\n        /* \"src/contracts/Ethernium-eth.sol\":4009:4031  msg.sender == deployer */\n      0xffffffffffffffffffffffffffffffffffffffff\n      and\n        /* \"src/contracts/Ethernium-eth.sol\":4009:4019  msg.sender */\n      caller\n        /* \"src/contracts/Ethernium-eth.sol\":4009:4031  msg.sender == deployer */\n      0xffffffffffffffffffffffffffffffffffffffff\n      and\n      eq\n        /* \"src/contracts/Ethernium-eth.sol\":4001:4072  require(msg.sender == deployer, \"Only deployer can call this function\") */\n      tag_45\n      jumpi\n      mload(0x40)\n      0x08c379a000000000000000000000000000000000000000000000000000000000\n      dup2\n      mstore\n      0x04\n      add\n      tag_46\n      swap1\n      tag_47\n      jump\t// in\n    tag_46:\n      mload(0x40)\n      dup1\n      swap2\n      sub\n      swap1\n      revert\n    tag_45:\n        /* \"src/contracts/Ethernium-eth.sol\":4129:4144  Vault storage v */\n      0x00\n        /* \"src/contracts/Ethernium-eth.sol\":4147:4156  testators */\n      0x00\n        /* \"src/contracts/Ethernium-eth.sol\":4147:4166  testators[testator] */\n      0x00\n        /* \"src/contracts/Ethernium-eth.sol\":4157:4165  testator */\n      dup8\n        /* \"src/contracts/Ethernium-eth.sol\":4147:4166  testators[testator] */\n      0xffffffffffffffffffffffffffffffffffffffff\n      and\n      0xffffffffffffffffffffffffffffffffffffffff\n      and\n      dup2\n      mstore\n      0x20\n      add\n      swap1\n      dup2\n      mstore\n      0x20\n      add\n      0x00\n      keccak256\n        /* \"src/contracts/Ethernium-eth.sol\":4129:4166  Vault storage v = testators[testator] */\n      swap1\n      pop\n        /* \"src/contracts/Ethernium-eth.sol\":4184:4185  v */\n      dup1\n        /* \"src/contracts/Ethernium-eth.sol\":4184:4191  v.exist */\n      0x00\n      add\n      0x00\n      swap1\n      sload\n      swap1\n      0x0100\n      exp\n      swap1\n      div\n      0xff\n      and\n        /* \"src/contracts/Ethernium-eth.sol\":4176:4216  require(v.exist, \"Vault does not exist\") */\n      tag_48\n      jumpi\n      mload(0x40)\n      0x08c379a000000000000000000000000000000000000000000000000000000000\n      dup2\n      mstore\n      0x04\n      add\n      tag_49\n      swap1\n      tag_50\n      jump\t// in\n    tag_49:\n      mload(0x40)\n      dup1\n      swap2\n      sub\n      swap1\n      revert\n    tag_48:\n        /* \"src/contracts/Ethernium-eth.sol\":4336:4343  amounts */\n      dup3\n      dup3\n        /* \"src/contracts/Ethernium-eth.sol\":4336:4350  amounts.length */\n      swap1\n      pop\n        /* \"src/contracts/Ethernium-eth.sol\":4315:4325  recipients */\n      dup6\n      dup6\n        /* \"src/contracts/Ethernium-eth.sol\":4315:4332  recipients.length */\n      swap1\n      pop\n        /* \"src/contracts/Ethernium-eth.sol\":4315:4350  recipients.length == amounts.length */\n      eq\n        /* \"src/contracts/Ethernium-eth.sol\":4307:4393  require(recipients.length == amounts.length, \"Recipients and amounts length mismatch\") */\n      tag_51\n      jumpi\n      mload(0x40)\n      0x08c379a000000000000000000000000000000000000000000000000000000000\n      dup2\n      mstore\n      0x04\n      add\n      tag_52\n      swap1\n      tag_53\n      jump\t// in\n    tag_52:\n      mload(0x40)\n      dup1\n      swap2\n      sub\n      swap1\n      revert\n    tag_51:\n        /* \"src/contracts/Ethernium-eth.sol\":4458:4477  uint256 totalAmount */\n      0x00\n        /* \"src/contracts/Ethernium-eth.sol\":4480:4481  0 */\n      0x00\n        /* \"src/contracts/Ethernium-eth.sol\":4458:4481  uint256 totalAmount = 0 */\n      swap1\n      pop\n        /* \"src/contracts/Ethernium-eth.sol\":4496:4505  uint256 i */\n      0x00\n        /* \"src/contracts/Ethernium-eth.sol\":4508:4509  0 */\n      0x00\n        /* \"src/contracts/Ethernium-eth.sol\":4496:4509  uint256 i = 0 */\n      swap1\n      pop\n        /* \"src/contracts/Ethernium-eth.sol\":4491:4597  for (uint256 i = 0; i<amounts.length; i++) {... */\n    tag_54:\n        /* \"src/contracts/Ethernium-eth.sol\":4513:4520  amounts */\n      dup5\n      dup5\n        /* \"src/contracts/Ethernium-eth.sol\":4513:4527  amounts.length */\n      swap1\n      pop\n        /* \"src/contracts/Ethernium-eth.sol\":4511:4512  i */\n      dup2\n        /* \"src/contracts/Ethernium-eth.sol\":4511:4527  i<amounts.length */\n      lt\n        /* \"src/contracts/Ethernium-eth.sol\":4491:4597  for (uint256 i = 0; i<amounts.length; i++) {... */\n      iszero\n      tag_55\n      jumpi\n        /* \"src/contracts/Ethernium-eth.sol\":4576:4583  amounts */\n      dup5\n      dup5\n        /* \"src/contracts/Ethernium-eth.sol\":4584:4585  i */\n      dup3\n        /* \"src/contracts/Ethernium-eth.sol\":4576:4586  amounts[i] */\n      dup2\n      dup2\n      lt\n      tag_57\n      jumpi\n      tag_58\n      tag_59\n      jump\t// in\n    tag_58:\n    tag_57:\n      swap1\n      pop\n      0x20\n      mul\n      add\n      calldataload\n        /* \"src/contracts/Ethernium-eth.sol\":4562:4573  totalAmount */\n      dup3\n        /* \"src/contracts/Ethernium-eth.sol\":4562:4586  totalAmount + amounts[i] */\n      tag_60\n      swap2\n      swap1\n      tag_61\n      jump\t// in\n    tag_60:\n        /* \"src/contracts/Ethernium-eth.sol\":4548:4586  totalAmount = totalAmount + amounts[i] */\n      swap2\n      pop\n        /* \"src/contracts/Ethernium-eth.sol\":4529:4532  i++ */\n      dup1\n      dup1\n      0x01\n      add\n      swap2\n      pop\n      pop\n        /* \"src/contracts/Ethernium-eth.sol\":4491:4597  for (uint256 i = 0; i<amounts.length; i++) {... */\n      jump(tag_54)\n    tag_55:\n      pop\n        /* \"src/contracts/Ethernium-eth.sol\":4688:4699  totalAmount */\n      dup1\n        /* \"src/contracts/Ethernium-eth.sol\":4675:4676  v */\n      dup3\n        /* \"src/contracts/Ethernium-eth.sol\":4675:4684  v.balance */\n      0x01\n      add\n      sload\n        /* \"src/contracts/Ethernium-eth.sol\":4675:4699  v.balance == totalAmount */\n      eq\n        /* \"src/contracts/Ethernium-eth.sol\":4667:4729  require(v.balance == totalAmount, \"Insufficient ETH in vault\") */\n      tag_62\n      jumpi\n      mload(0x40)\n      0x08c379a000000000000000000000000000000000000000000000000000000000\n      dup2\n      mstore\n      0x04\n      add\n      tag_63\n      swap1\n      tag_64\n      jump\t// in\n    tag_63:\n      mload(0x40)\n      dup1\n      swap2\n      sub\n      swap1\n      revert\n    tag_62:\n        /* \"src/contracts/Ethernium-eth.sol\":4795:4806  totalAmount */\n      dup1\n        /* \"src/contracts/Ethernium-eth.sol\":4782:4783  v */\n      dup3\n        /* \"src/contracts/Ethernium-eth.sol\":4782:4791  v.balance */\n      0x01\n      add\n      0x00\n        /* \"src/contracts/Ethernium-eth.sol\":4782:4806  v.balance -= totalAmount */\n      dup3\n      dup3\n      sload\n      tag_65\n      swap2\n      swap1\n      tag_66\n      jump\t// in\n    tag_65:\n      swap3\n      pop\n      pop\n      dup2\n      swap1\n      sstore\n      pop\n        /* \"src/contracts/Ethernium-eth.sol\":4885:4891  uint i */\n      0x00\n        /* \"src/contracts/Ethernium-eth.sol\":4894:4895  0 */\n      0x00\n        /* \"src/contracts/Ethernium-eth.sol\":4885:4895  uint i = 0 */\n      swap1\n      pop\n        /* \"src/contracts/Ethernium-eth.sol\":4880:5053  for (uint i = 0; i < recipients.length; i++) {... */\n    tag_67:\n        /* \"src/contracts/Ethernium-eth.sol\":4901:4911  recipients */\n      dup7\n      dup7\n        /* \"src/contracts/Ethernium-eth.sol\":4901:4918  recipients.length */\n      swap1\n      pop\n        /* \"src/contracts/Ethernium-eth.sol\":4897:4898  i */\n      dup2\n        /* \"src/contracts/Ethernium-eth.sol\":4897:4918  i < recipients.length */\n      lt\n        /* \"src/contracts/Ethernium-eth.sol\":4880:5053  for (uint i = 0; i < recipients.length; i++) {... */\n      iszero\n      tag_68\n      jumpi\n        /* \"src/contracts/Ethernium-eth.sol\":4940:4947  bool ok */\n      0x00\n        /* \"src/contracts/Ethernium-eth.sol\":4953:4963  recipients */\n      dup8\n      dup8\n        /* \"src/contracts/Ethernium-eth.sol\":4964:4965  i */\n      dup4\n        /* \"src/contracts/Ethernium-eth.sol\":4953:4966  recipients[i] */\n      dup2\n      dup2\n      lt\n      tag_70\n      jumpi\n      tag_71\n      tag_59\n      jump\t// in\n    tag_71:\n    tag_70:\n      swap1\n      pop\n      0x20\n      mul\n      add\n      0x20\n      dup2\n      add\n      swap1\n      tag_72\n      swap2\n      swap1\n      tag_73\n      jump\t// in\n    tag_72:\n        /* \"src/contracts/Ethernium-eth.sol\":4953:4971  recipients[i].call */\n      0xffffffffffffffffffffffffffffffffffffffff\n      and\n        /* \"src/contracts/Ethernium-eth.sol\":4979:4986  amounts */\n      dup7\n      dup7\n        /* \"src/contracts/Ethernium-eth.sol\":4987:4988  i */\n      dup5\n        /* \"src/contracts/Ethernium-eth.sol\":4979:4989  amounts[i] */\n      dup2\n      dup2\n      lt\n      tag_74\n      jumpi\n      tag_75\n      tag_59\n      jump\t// in\n    tag_75:\n    tag_74:\n      swap1\n      pop\n      0x20\n      mul\n      add\n      calldataload\n        /* \"src/contracts/Ethernium-eth.sol\":4953:4994  recipients[i].call{value: amounts[i]}(\"\") */\n      mload(0x40)\n      tag_76\n      swap1\n      tag_77\n      jump\t// in\n    tag_76:\n      0x00\n      mload(0x40)\n      dup1\n      dup4\n      sub\n      dup2\n      dup6\n      dup8\n      gas\n      call\n      swap3\n      pop\n      pop\n      pop\n      returndatasize\n      dup1\n      0x00\n      dup2\n      eq\n      tag_80\n      jumpi\n      mload(0x40)\n      swap2\n      pop\n      and(add(returndatasize, 0x3f), not(0x1f))\n      dup3\n      add\n      0x40\n      mstore\n      returndatasize\n      dup3\n      mstore\n      returndatasize\n      0x00\n      0x20\n      dup5\n      add\n      returndatacopy\n      jump(tag_79)\n    tag_80:\n      0x60\n      swap2\n      pop\n    tag_79:\n      pop\n        /* \"src/contracts/Ethernium-eth.sol\":4939:4994  (bool ok, ) = recipients[i].call{value: amounts[i]}(\"\") */\n      pop\n      swap1\n      pop\n        /* \"src/contracts/Ethernium-eth.sol\":5016:5018  ok */\n      dup1\n        /* \"src/contracts/Ethernium-eth.sol\":5008:5042  require(ok, \"ETH transfer failed\") */\n      tag_81\n      jumpi\n      mload(0x40)\n      0x08c379a000000000000000000000000000000000000000000000000000000000\n      dup2\n      mstore\n      0x04\n      add\n      tag_82\n      swap1\n      tag_83\n      jump\t// in\n    tag_82:\n      mload(0x40)\n      dup1\n      swap2\n      sub\n      swap1\n      revert\n    tag_81:\n        /* \"src/contracts/Ethernium-eth.sol\":4925:5053  {... */\n      pop\n        /* \"src/contracts/Ethernium-eth.sol\":4920:4923  i++ */\n      dup1\n      dup1\n      0x01\n      add\n      swap2\n      pop\n      pop\n        /* \"src/contracts/Ethernium-eth.sol\":4880:5053  for (uint i = 0; i < recipients.length; i++) {... */\n      jump(tag_67)\n    tag_68:\n      pop\n        /* \"src/contracts/Ethernium-eth.sol\":5093:5101  testator */\n      dup7\n        /* \"src/contracts/Ethernium-eth.sol\":5076:5123  VaultDistributed(testator, recipients, amounts) */\n      0xffffffffffffffffffffffffffffffffffffffff\n      and\n      0xce42f76f0cf784c9e92d84110f5600137af202cb073bf235196d5c7e6ce9c15e\n        /* \"src/contracts/Ethernium-eth.sol\":5103:5113  recipients */\n      dup8\n      dup8\n        /* \"src/contracts/Ethernium-eth.sol\":5115:5122  amounts */\n      dup8\n      dup8\n        /* \"src/contracts/Ethernium-eth.sol\":5076:5123  VaultDistributed(testator, recipients, amounts) */\n      mload(0x40)\n      tag_84\n      swap5\n      swap4\n      swap3\n      swap2\n      swap1\n      tag_85\n      jump\t// in\n    tag_84:\n      mload(0x40)\n      dup1\n      swap2\n      sub\n      swap1\n      log2\n        /* \"src/contracts/Ethernium-eth.sol\":3943:5130  {... */\n      pop\n      pop\n        /* \"src/contracts/Ethernium-eth.sol\":3802:5130  function distributeVault(... */\n      pop\n      pop\n      pop\n      pop\n      pop\n      jump\t// out\n        /* \"src/contracts/Ethernium-eth.sol\":3283:3670  function withdrawETH(uint256 amount) external {... */\n    tag_28:\n        /* \"src/contracts/Ethernium-eth.sol\":3339:3354  Vault storage v */\n      0x00\n        /* \"src/contracts/Ethernium-eth.sol\":3357:3366  testators */\n      0x00\n        /* \"src/contracts/Ethernium-eth.sol\":3357:3378  testators[msg.sender] */\n      0x00\n        /* \"src/contracts/Ethernium-eth.sol\":3367:3377  msg.sender */\n      caller\n        /* \"src/contracts/Ethernium-eth.sol\":3357:3378  testators[msg.sender] */\n      0xffffffffffffffffffffffffffffffffffffffff\n      and\n      0xffffffffffffffffffffffffffffffffffffffff\n      and\n      dup2\n      mstore\n      0x20\n      add\n      swap1\n      dup2\n      mstore\n      0x20\n      add\n      0x00\n      keccak256\n        /* \"src/contracts/Ethernium-eth.sol\":3339:3378  Vault storage v = testators[msg.sender] */\n      swap1\n      pop\n        /* \"src/contracts/Ethernium-eth.sol\":3396:3397  v */\n      dup1\n        /* \"src/contracts/Ethernium-eth.sol\":3396:3403  v.exist */\n      0x00\n      add\n      0x00\n      swap1\n      sload\n      swap1\n      0x0100\n      exp\n      swap1\n      div\n      0xff\n      and\n        /* \"src/contracts/Ethernium-eth.sol\":3388:3428  require(v.exist, \"Vault does not exist\") */\n      tag_87\n      jumpi\n      mload(0x40)\n      0x08c379a000000000000000000000000000000000000000000000000000000000\n      dup2\n      mstore\n      0x04\n      add\n      tag_88\n      swap1\n      tag_50\n      jump\t// in\n    tag_88:\n      mload(0x40)\n      dup1\n      swap2\n      sub\n      swap1\n      revert\n    tag_87:\n        /* \"src/contracts/Ethernium-eth.sol\":3459:3465  amount */\n      dup2\n        /* \"src/contracts/Ethernium-eth.sol\":3446:3447  v */\n      dup2\n        /* \"src/contracts/Ethernium-eth.sol\":3446:3455  v.balance */\n      0x01\n      add\n      sload\n        /* \"src/contracts/Ethernium-eth.sol\":3446:3465  v.balance >= amount */\n      lt\n      iszero\n        /* \"src/contracts/Ethernium-eth.sol\":3438:3486  require(v.balance >= amount, \"Insufficient ETH\") */\n      tag_89\n      jumpi\n      mload(0x40)\n      0x08c379a000000000000000000000000000000000000000000000000000000000\n      dup2\n      mstore\n      0x04\n      add\n      tag_90\n      swap1\n      tag_91\n      jump\t// in\n    tag_90:\n      mload(0x40)\n      dup1\n      swap2\n      sub\n      swap1\n      revert\n    tag_89:\n        /* \"src/contracts/Ethernium-eth.sol\":3510:3516  amount */\n      dup2\n        /* \"src/contracts/Ethernium-eth.sol\":3497:3498  v */\n      dup2\n        /* \"src/contracts/Ethernium-eth.sol\":3497:3506  v.balance */\n      0x01\n      add\n      0x00\n        /* \"src/contracts/Ethernium-eth.sol\":3497:3516  v.balance -= amount */\n      dup3\n      dup3\n      sload\n      tag_92\n      swap2\n      swap1\n      tag_66\n      jump\t// in\n    tag_92:\n      swap3\n      pop\n      pop\n      dup2\n      swap1\n      sstore\n      pop\n        /* \"src/contracts/Ethernium-eth.sol\":3528:3535  bool ok */\n      0x00\n        /* \"src/contracts/Ethernium-eth.sol\":3541:3551  msg.sender */\n      caller\n        /* \"src/contracts/Ethernium-eth.sol\":3541:3556  msg.sender.call */\n      0xffffffffffffffffffffffffffffffffffffffff\n      and\n        /* \"src/contracts/Ethernium-eth.sol\":3564:3570  amount */\n      dup4\n        /* \"src/contracts/Ethernium-eth.sol\":3541:3575  msg.sender.call{value: amount}(\"\") */\n      mload(0x40)\n      tag_93\n      swap1\n      tag_77\n      jump\t// in\n    tag_93:\n      0x00\n      mload(0x40)\n      dup1\n      dup4\n      sub\n      dup2\n      dup6\n      dup8\n      gas\n      call\n      swap3\n      pop\n      pop\n      pop\n      returndatasize\n      dup1\n      0x00\n      dup2\n      eq\n      tag_96\n      jumpi\n      mload(0x40)\n      swap2\n      pop\n      and(add(returndatasize, 0x3f), not(0x1f))\n      dup3\n      add\n      0x40\n      mstore\n      returndatasize\n      dup3\n      mstore\n      returndatasize\n      0x00\n      0x20\n      dup5\n      add\n      returndatacopy\n      jump(tag_95)\n    tag_96:\n      0x60\n      swap2\n      pop\n    tag_95:\n      pop\n        /* \"src/contracts/Ethernium-eth.sol\":3527:3575  (bool ok, ) = msg.sender.call{value: amount}(\"\") */\n      pop\n      swap1\n      pop\n        /* \"src/contracts/Ethernium-eth.sol\":3593:3595  ok */\n      dup1\n        /* \"src/contracts/Ethernium-eth.sol\":3585:3619  require(ok, \"ETH transfer failed\") */\n      tag_97\n      jumpi\n      mload(0x40)\n      0x08c379a000000000000000000000000000000000000000000000000000000000\n      dup2\n      mstore\n      0x04\n      add\n      tag_98\n      swap1\n      tag_83\n      jump\t// in\n    tag_98:\n      mload(0x40)\n      dup1\n      swap2\n      sub\n      swap1\n      revert\n    tag_97:\n        /* \"src/contracts/Ethernium-eth.sol\":3644:3654  msg.sender */\n      caller\n        /* \"src/contracts/Ethernium-eth.sol\":3635:3663  Withdraw(msg.sender, amount) */\n      0xffffffffffffffffffffffffffffffffffffffff\n      and\n      0x884edad9ce6fa2440d8a54cc123490eb96d2768479d49ff9c7366125a9424364\n        /* \"src/contracts/Ethernium-eth.sol\":3656:3662  amount */\n      dup5\n        /* \"src/contracts/Ethernium-eth.sol\":3635:3663  Withdraw(msg.sender, amount) */\n      mload(0x40)\n      tag_99\n      swap2\n      swap1\n      tag_100\n      jump\t// in\n    tag_99:\n      mload(0x40)\n      dup1\n      swap2\n      sub\n      swap1\n      log2\n        /* \"src/contracts/Ethernium-eth.sol\":3329:3670  {... */\n      pop\n      pop\n        /* \"src/contracts/Ethernium-eth.sol\":3283:3670  function withdrawETH(uint256 amount) external {... */\n      pop\n      jump\t// out\n        /* \"src/contracts/Ethernium-eth.sol\":2380:2936  function depositETH() external payable {... */\n    tag_30:\n        /* \"src/contracts/Ethernium-eth.sol\":2437:2456  vaultCreatedAndPaid */\n      0x01\n        /* \"src/contracts/Ethernium-eth.sol\":2437:2468  vaultCreatedAndPaid[msg.sender] */\n      0x00\n        /* \"src/contracts/Ethernium-eth.sol\":2457:2467  msg.sender */\n      caller\n        /* \"src/contracts/Ethernium-eth.sol\":2437:2468  vaultCreatedAndPaid[msg.sender] */\n      0xffffffffffffffffffffffffffffffffffffffff\n      and\n      0xffffffffffffffffffffffffffffffffffffffff\n      and\n      dup2\n      mstore\n      0x20\n      add\n      swap1\n      dup2\n      mstore\n      0x20\n      add\n      0x00\n      keccak256\n      0x00\n      swap1\n      sload\n      swap1\n      0x0100\n      exp\n      swap1\n      div\n      0xff\n      and\n        /* \"src/contracts/Ethernium-eth.sol\":2429:2491  require(vaultCreatedAndPaid[msg.sender], \"Create vault first\") */\n      tag_102\n      jumpi\n      mload(0x40)\n      0x08c379a000000000000000000000000000000000000000000000000000000000\n      dup2\n      mstore\n      0x04\n      add\n      tag_103\n      swap1\n      tag_104\n      jump\t// in\n    tag_103:\n      mload(0x40)\n      dup1\n      swap2\n      sub\n      swap1\n      revert\n    tag_102:\n        /* \"src/contracts/Ethernium-eth.sol\":2521:2522  0 */\n      0x00\n        /* \"src/contracts/Ethernium-eth.sol\":2509:2518  msg.value */\n      callvalue\n        /* \"src/contracts/Ethernium-eth.sol\":2509:2522  msg.value > 0 */\n      gt\n        /* \"src/contracts/Ethernium-eth.sol\":2501:2538  require(msg.value > 0, \"No ETH sent\") */\n      tag_105\n      jumpi\n      mload(0x40)\n      0x08c379a000000000000000000000000000000000000000000000000000000000\n      dup2\n      mstore\n      0x04\n      add\n      tag_106\n      swap1\n      tag_107\n      jump\t// in\n    tag_106:\n      mload(0x40)\n      dup1\n      swap2\n      sub\n      swap1\n      revert\n    tag_105:\n        /* \"src/contracts/Ethernium-eth.sol\":2548:2572  _ensureVault(msg.sender) */\n      tag_108\n        /* \"src/contracts/Ethernium-eth.sol\":2561:2571  msg.sender */\n      caller\n        /* \"src/contracts/Ethernium-eth.sol\":2548:2560  _ensureVault */\n      tag_109\n        /* \"src/contracts/Ethernium-eth.sol\":2548:2572  _ensureVault(msg.sender) */\n      jump\t// in\n    tag_108:\n        /* \"src/contracts/Ethernium-eth.sol\":2583:2594  uint256 fee */\n      0x00\n        /* \"src/contracts/Ethernium-eth.sol\":438:443  10000 */\n      0x2710\n        /* \"src/contracts/Ethernium-eth.sol\":2597:2644  (msg.value * DEPOSIT_FEE_BPS) / BPS_DENOMINATOR */\n      0xffff\n      and\n        /* \"src/contracts/Ethernium-eth.sol\":368:370  50 */\n      0x32\n        /* \"src/contracts/Ethernium-eth.sol\":2598:2625  msg.value * DEPOSIT_FEE_BPS */\n      0xffff\n      and\n        /* \"src/contracts/Ethernium-eth.sol\":2598:2607  msg.value */\n      callvalue\n        /* \"src/contracts/Ethernium-eth.sol\":2598:2625  msg.value * DEPOSIT_FEE_BPS */\n      tag_110\n      swap2\n      swap1\n      tag_111\n      jump\t// in\n    tag_110:\n        /* \"src/contracts/Ethernium-eth.sol\":2597:2644  (msg.value * DEPOSIT_FEE_BPS) / BPS_DENOMINATOR */\n      tag_112\n      swap2\n      swap1\n      tag_113\n      jump\t// in\n    tag_112:\n        /* \"src/contracts/Ethernium-eth.sol\":2583:2644  uint256 fee = (msg.value * DEPOSIT_FEE_BPS) / BPS_DENOMINATOR */\n      swap1\n      pop\n        /* \"src/contracts/Ethernium-eth.sol\":2654:2665  uint256 net */\n      0x00\n        /* \"src/contracts/Ethernium-eth.sol\":2680:2683  fee */\n      dup2\n        /* \"src/contracts/Ethernium-eth.sol\":2668:2677  msg.value */\n      callvalue\n        /* \"src/contracts/Ethernium-eth.sol\":2668:2683  msg.value - fee */\n      tag_114\n      swap2\n      swap1\n      tag_66\n      jump\t// in\n    tag_114:\n        /* \"src/contracts/Ethernium-eth.sol\":2654:2683  uint256 net = msg.value - fee */\n      swap1\n      pop\n        /* \"src/contracts/Ethernium-eth.sol\":2707:2708  0 */\n      0x00\n        /* \"src/contracts/Ethernium-eth.sol\":2701:2704  net */\n      dup2\n        /* \"src/contracts/Ethernium-eth.sol\":2701:2708  net > 0 */\n      gt\n        /* \"src/contracts/Ethernium-eth.sol\":2693:2724  require(net > 0, \"Net is zero\") */\n      tag_115\n      jumpi\n      mload(0x40)\n      0x08c379a000000000000000000000000000000000000000000000000000000000\n      dup2\n      mstore\n      0x04\n      add\n      tag_116\n      swap1\n      tag_117\n      jump\t// in\n    tag_116:\n      mload(0x40)\n      dup1\n      swap2\n      sub\n      swap1\n      revert\n    tag_115:\n        /* \"src/contracts/Ethernium-eth.sol\":2814:2839  _creditContractVault(fee) */\n      tag_118\n        /* \"src/contracts/Ethernium-eth.sol\":2835:2838  fee */\n      dup3\n        /* \"src/contracts/Ethernium-eth.sol\":2814:2834  _creditContractVault */\n      tag_40\n        /* \"src/contracts/Ethernium-eth.sol\":2814:2839  _creditContractVault(fee) */\n      jump\t// in\n    tag_118:\n        /* \"src/contracts/Ethernium-eth.sol\":2850:2874  _credit(msg.sender, net) */\n      tag_119\n        /* \"src/contracts/Ethernium-eth.sol\":2858:2868  msg.sender */\n      caller\n        /* \"src/contracts/Ethernium-eth.sol\":2870:2873  net */\n      dup3\n        /* \"src/contracts/Ethernium-eth.sol\":2850:2857  _credit */\n      tag_120\n        /* \"src/contracts/Ethernium-eth.sol\":2850:2874  _credit(msg.sender, net) */\n      jump\t// in\n    tag_119:\n        /* \"src/contracts/Ethernium-eth.sol\":2897:2907  msg.sender */\n      caller\n        /* \"src/contracts/Ethernium-eth.sol\":2889:2929  Deposit(msg.sender, msg.value, fee, net) */\n      0xffffffffffffffffffffffffffffffffffffffff\n      and\n      0x36af321ec8d3c75236829c5317affd40ddb308863a1236d2d277a4025cccee1e\n        /* \"src/contracts/Ethernium-eth.sol\":2909:2918  msg.value */\n      callvalue\n        /* \"src/contracts/Ethernium-eth.sol\":2920:2923  fee */\n      dup5\n        /* \"src/contracts/Ethernium-eth.sol\":2925:2928  net */\n      dup5\n        /* \"src/contracts/Ethernium-eth.sol\":2889:2929  Deposit(msg.sender, msg.value, fee, net) */\n      mload(0x40)\n      tag_121\n      swap4\n      swap3\n      swap2\n      swap1\n      tag_122\n      jump\t// in\n    tag_121:\n      mload(0x40)\n      dup1\n      swap2\n      sub\n      swap1\n      log2\n        /* \"src/contracts/Ethernium-eth.sol\":2419:2936  {... */\n      pop\n      pop\n        /* \"src/contracts/Ethernium-eth.sol\":2380:2936  function depositETH() external payable {... */\n      jump\t// out\n        /* \"src/contracts/Ethernium-eth.sol\":5634:5810  function _creditContractVault(uint256 amount) internal {... */\n    tag_40:\n        /* \"src/contracts/Ethernium-eth.sol\":5713:5714  0 */\n      0x00\n        /* \"src/contracts/Ethernium-eth.sol\":5703:5709  amount */\n      dup2\n        /* \"src/contracts/Ethernium-eth.sol\":5703:5714  amount == 0 */\n      sub\n        /* \"src/contracts/Ethernium-eth.sol\":5699:5723  if (amount == 0) return; */\n      iszero\n        /* \"src/contracts/Ethernium-eth.sol\":5716:5723  return; */\n      tag_123\n        /* \"src/contracts/Ethernium-eth.sol\":5699:5723  if (amount == 0) return; */\n      jumpi\n        /* \"src/contracts/Ethernium-eth.sol\":5759:5765  amount */\n      dup1\n        /* \"src/contracts/Ethernium-eth.sol\":5732:5747  vaultOfContract */\n      0x02\n        /* \"src/contracts/Ethernium-eth.sol\":5732:5755  vaultOfContract.balance */\n      0x01\n      add\n      0x00\n        /* \"src/contracts/Ethernium-eth.sol\":5732:5765  vaultOfContract.balance += amount */\n      dup3\n      dup3\n      sload\n      tag_125\n      swap2\n      swap1\n      tag_61\n      jump\t// in\n    tag_125:\n      swap3\n      pop\n      pop\n      dup2\n      swap1\n      sstore\n      pop\n        /* \"src/contracts/Ethernium-eth.sol\":5799:5803  true */\n      0x01\n        /* \"src/contracts/Ethernium-eth.sol\":5775:5790  vaultOfContract */\n      0x02\n        /* \"src/contracts/Ethernium-eth.sol\":5775:5796  vaultOfContract.exist */\n      0x00\n      add\n      0x00\n        /* \"src/contracts/Ethernium-eth.sol\":5775:5803  vaultOfContract.exist = true */\n      0x0100\n      exp\n      dup2\n      sload\n      dup2\n      0xff\n      mul\n      not\n      and\n      swap1\n      dup4\n      iszero\n      iszero\n      mul\n      or\n      swap1\n      sstore\n      pop\n        /* \"src/contracts/Ethernium-eth.sol\":5634:5810  function _creditContractVault(uint256 amount) internal {... */\n    tag_123:\n      pop\n      jump\t// out\n        /* \"src/contracts/Ethernium-eth.sol\":5195:5401  function _ensureVault(address testator) internal {... */\n    tag_109:\n        /* \"src/contracts/Ethernium-eth.sol\":5254:5269  Vault storage v */\n      0x00\n        /* \"src/contracts/Ethernium-eth.sol\":5272:5281  testators */\n      0x00\n        /* \"src/contracts/Ethernium-eth.sol\":5272:5291  testators[testator] */\n      0x00\n        /* \"src/contracts/Ethernium-eth.sol\":5282:5290  testator */\n      dup4\n        /* \"src/contracts/Ethernium-eth.sol\":5272:5291  testators[testator] */\n      0xffffffffffffffffffffffffffffffffffffffff\n      and\n      0xffffffffffffffffffffffffffffffffffffffff\n      and\n      dup2\n      mstore\n      0x20\n      add\n      swap1\n      dup2\n      mstore\n      0x20\n      add\n      0x00\n      keccak256\n        /* \"src/contracts/Ethernium-eth.sol\":5254:5291  Vault storage v = testators[testator] */\n      swap1\n      pop\n        /* \"src/contracts/Ethernium-eth.sol\":5306:5307  v */\n      dup1\n        /* \"src/contracts/Ethernium-eth.sol\":5306:5313  v.exist */\n      0x00\n      add\n      0x00\n      swap1\n      sload\n      swap1\n      0x0100\n      exp\n      swap1\n      div\n      0xff\n      and\n        /* \"src/contracts/Ethernium-eth.sol\":5301:5395  if (!v.exist) {... */\n      tag_127\n      jumpi\n        /* \"src/contracts/Ethernium-eth.sol\":5339:5343  true */\n      0x01\n        /* \"src/contracts/Ethernium-eth.sol\":5329:5330  v */\n      dup2\n        /* \"src/contracts/Ethernium-eth.sol\":5329:5336  v.exist */\n      0x00\n      add\n      0x00\n        /* \"src/contracts/Ethernium-eth.sol\":5329:5343  v.exist = true */\n      0x0100\n      exp\n      dup2\n      sload\n      dup2\n      0xff\n      mul\n      not\n      and\n      swap1\n      dup4\n      iszero\n      iszero\n      mul\n      or\n      swap1\n      sstore\n      pop\n        /* \"src/contracts/Ethernium-eth.sol\":5375:5383  testator */\n      dup2\n        /* \"src/contracts/Ethernium-eth.sol\":5362:5384  VaultCreated(testator) */\n      0xffffffffffffffffffffffffffffffffffffffff\n      and\n      0x2e49a5810fda2439a23771848b4acec786b0a64d4de3d124ac57fc8739c38875\n      mload(0x40)\n      mload(0x40)\n      dup1\n      swap2\n      sub\n      swap1\n      log2\n        /* \"src/contracts/Ethernium-eth.sol\":5301:5395  if (!v.exist) {... */\n    tag_127:\n        /* \"src/contracts/Ethernium-eth.sol\":5244:5401  {... */\n      pop\n        /* \"src/contracts/Ethernium-eth.sol\":5195:5401  function _ensureVault(address testator) internal {... */\n      pop\n      jump\t// out\n        /* \"src/contracts/Ethernium-eth.sol\":5462:5628  function _credit(... */\n    tag_120:\n        /* \"src/contracts/Ethernium-eth.sol\":5554:5569  Vault storage v */\n      0x00\n        /* \"src/contracts/Ethernium-eth.sol\":5572:5581  testators */\n      0x00\n        /* \"src/contracts/Ethernium-eth.sol\":5572:5591  testators[testator] */\n      0x00\n        /* \"src/contracts/Ethernium-eth.sol\":5582:5590  testator */\n      dup5\n        /* \"src/contracts/Ethernium-eth.sol\":5572:5591  testators[testator] */\n      0xffffffffffffffffffffffffffffffffffffffff\n      and\n      0xffffffffffffffffffffffffffffffffffffffff\n      and\n      dup2\n      mstore\n      0x20\n      add\n      swap1\n      dup2\n      mstore\n      0x20\n      add\n      0x00\n      keccak256\n        /* \"src/contracts/Ethernium-eth.sol\":5554:5591  Vault storage v = testators[testator] */\n      swap1\n      pop\n        /* \"src/contracts/Ethernium-eth.sol\":5615:5621  amount */\n      dup2\n        /* \"src/contracts/Ethernium-eth.sol\":5602:5603  v */\n      dup2\n        /* \"src/contracts/Ethernium-eth.sol\":5602:5611  v.balance */\n      0x01\n      add\n      0x00\n        /* \"src/contracts/Ethernium-eth.sol\":5602:5621  v.balance += amount */\n      dup3\n      dup3\n      sload\n      tag_129\n      swap2\n      swap1\n      tag_61\n      jump\t// in\n    tag_129:\n      swap3\n      pop\n      pop\n      dup2\n      swap1\n      sstore\n      pop\n        /* \"src/contracts/Ethernium-eth.sol\":5544:5628  {... */\n      pop\n        /* \"src/contracts/Ethernium-eth.sol\":5462:5628  function _credit(... */\n      pop\n      pop\n      jump\t// out\n    tag_42:\n      mload(0x40)\n      dup1\n      0x20\n      add\n      0x40\n      mstore\n      dup1\n      0x00\n      dup2\n      mstore\n      pop\n      swap1\n      jump\t// out\n        /* \"#utility.yul\":7:176   */\n    tag_130:\n        /* \"#utility.yul\":91:102   */\n      0x00\n        /* \"#utility.yul\":125:131   */\n      dup3\n        /* \"#utility.yul\":120:123   */\n      dup3\n        /* \"#utility.yul\":113:132   */\n      mstore\n        /* \"#utility.yul\":165:169   */\n      0x20\n        /* \"#utility.yul\":160:163   */\n      dup3\n        /* \"#utility.yul\":156:170   */\n      add\n        /* \"#utility.yul\":141:170   */\n      swap1\n      pop\n        /* \"#utility.yul\":7:176   */\n      swap3\n      swap2\n      pop\n      pop\n      jump\t// out\n        /* \"#utility.yul\":182:344   */\n    tag_131:\n        /* \"#utility.yul\":322:336   */\n      0x446f6e277420646f206974210000000000000000000000000000000000000000\n        /* \"#utility.yul\":318:319   */\n      0x00\n        /* \"#utility.yul\":310:316   */\n      dup3\n        /* \"#utility.yul\":306:320   */\n      add\n        /* \"#utility.yul\":299:337   */\n      mstore\n        /* \"#utility.yul\":182:344   */\n      pop\n      jump\t// out\n        /* \"#utility.yul\":350:716   */\n    tag_132:\n        /* \"#utility.yul\":492:495   */\n      0x00\n        /* \"#utility.yul\":513:580   */\n      tag_193\n        /* \"#utility.yul\":577:579   */\n      0x0c\n        /* \"#utility.yul\":572:575   */\n      dup4\n        /* \"#utility.yul\":513:580   */\n      tag_130\n      jump\t// in\n    tag_193:\n        /* \"#utility.yul\":506:580   */\n      swap2\n      pop\n        /* \"#utility.yul\":589:682   */\n      tag_194\n        /* \"#utility.yul\":678:681   */\n      dup3\n        /* \"#utility.yul\":589:682   */\n      tag_131\n      jump\t// in\n    tag_194:\n        /* \"#utility.yul\":707:709   */\n      0x20\n        /* \"#utility.yul\":702:705   */\n      dup3\n        /* \"#utility.yul\":698:710   */\n      add\n        /* \"#utility.yul\":691:710   */\n      swap1\n      pop\n        /* \"#utility.yul\":350:716   */\n      swap2\n      swap1\n      pop\n      jump\t// out\n        /* \"#utility.yul\":722:1141   */\n    tag_11:\n        /* \"#utility.yul\":888:892   */\n      0x00\n        /* \"#utility.yul\":926:928   */\n      0x20\n        /* \"#utility.yul\":915:924   */\n      dup3\n        /* \"#utility.yul\":911:929   */\n      add\n        /* \"#utility.yul\":903:929   */\n      swap1\n      pop\n        /* \"#utility.yul\":975:984   */\n      dup2\n        /* \"#utility.yul\":969:973   */\n      dup2\n        /* \"#utility.yul\":965:985   */\n      sub\n        /* \"#utility.yul\":961:962   */\n      0x00\n        /* \"#utility.yul\":950:959   */\n      dup4\n        /* \"#utility.yul\":946:963   */\n      add\n        /* \"#utility.yul\":939:986   */\n      mstore\n        /* \"#utility.yul\":1003:1134   */\n      tag_196\n        /* \"#utility.yul\":1129:1133   */\n      dup2\n        /* \"#utility.yul\":1003:1134   */\n      tag_132\n      jump\t// in\n    tag_196:\n        /* \"#utility.yul\":995:1134   */\n      swap1\n      pop\n        /* \"#utility.yul\":722:1141   */\n      swap2\n      swap1\n      pop\n      jump\t// out\n        /* \"#utility.yul\":1147:1224   */\n    tag_133:\n        /* \"#utility.yul\":1184:1191   */\n      0x00\n        /* \"#utility.yul\":1213:1218   */\n      dup2\n        /* \"#utility.yul\":1202:1218   */\n      swap1\n      pop\n        /* \"#utility.yul\":1147:1224   */\n      swap2\n      swap1\n      pop\n      jump\t// out\n        /* \"#utility.yul\":1230:1338   */\n    tag_134:\n        /* \"#utility.yul\":1307:1331   */\n      tag_199\n        /* \"#utility.yul\":1325:1330   */\n      dup2\n        /* \"#utility.yul\":1307:1331   */\n      tag_133\n      jump\t// in\n    tag_199:\n        /* \"#utility.yul\":1302:1305   */\n      dup3\n        /* \"#utility.yul\":1295:1332   */\n      mstore\n        /* \"#utility.yul\":1230:1338   */\n      pop\n      pop\n      jump\t// out\n        /* \"#utility.yul\":1408:1747   */\n    tag_135:\n        /* \"#utility.yul\":1557:1561   */\n      0x20\n        /* \"#utility.yul\":1552:1555   */\n      dup3\n        /* \"#utility.yul\":1548:1562   */\n      add\n        /* \"#utility.yul\":1648:1652   */\n      0x00\n        /* \"#utility.yul\":1641:1646   */\n      dup3\n        /* \"#utility.yul\":1637:1653   */\n      add\n        /* \"#utility.yul\":1631:1654   */\n      mload\n        /* \"#utility.yul\":1667:1730   */\n      tag_201\n        /* \"#utility.yul\":1724:1728   */\n      0x00\n        /* \"#utility.yul\":1719:1722   */\n      dup6\n        /* \"#utility.yul\":1715:1729   */\n      add\n        /* \"#utility.yul\":1701:1713   */\n      dup3\n        /* \"#utility.yul\":1667:1730   */\n      tag_134\n      jump\t// in\n    tag_201:\n        /* \"#utility.yul\":1572:1740   */\n      pop\n        /* \"#utility.yul\":1526:1747   */\n      pop\n        /* \"#utility.yul\":1408:1747   */\n      pop\n      pop\n      jump\t// out\n        /* \"#utility.yul\":1753:2079   */\n    tag_18:\n        /* \"#utility.yul\":1898:1902   */\n      0x00\n        /* \"#utility.yul\":1936:1938   */\n      0x20\n        /* \"#utility.yul\":1925:1934   */\n      dup3\n        /* \"#utility.yul\":1921:1939   */\n      add\n        /* \"#utility.yul\":1913:1939   */\n      swap1\n      pop\n        /* \"#utility.yul\":1949:2072   */\n      tag_203\n        /* \"#utility.yul\":2069:2070   */\n      0x00\n        /* \"#utility.yul\":2058:2067   */\n      dup4\n        /* \"#utility.yul\":2054:2071   */\n      add\n        /* \"#utility.yul\":2045:2051   */\n      dup5\n        /* \"#utility.yul\":1949:2072   */\n      tag_135\n      jump\t// in\n    tag_203:\n        /* \"#utility.yul\":1753:2079   */\n      swap3\n      swap2\n      pop\n      pop\n      jump\t// out\n        /* \"#utility.yul\":2166:2283   */\n    tag_137:\n        /* \"#utility.yul\":2275:2276   */\n      0x00\n        /* \"#utility.yul\":2272:2273   */\n      0x00\n        /* \"#utility.yul\":2265:2277   */\n      revert\n        /* \"#utility.yul\":2289:2406   */\n    tag_138:\n        /* \"#utility.yul\":2398:2399   */\n      0x00\n        /* \"#utility.yul\":2395:2396   */\n      0x00\n        /* \"#utility.yul\":2388:2400   */\n      revert\n        /* \"#utility.yul\":2412:2538   */\n    tag_139:\n        /* \"#utility.yul\":2449:2456   */\n      0x00\n        /* \"#utility.yul\":2489:2531   */\n      0xffffffffffffffffffffffffffffffffffffffff\n        /* \"#utility.yul\":2482:2487   */\n      dup3\n        /* \"#utility.yul\":2478:2532   */\n      and\n        /* \"#utility.yul\":2467:2532   */\n      swap1\n      pop\n        /* \"#utility.yul\":2412:2538   */\n      swap2\n      swap1\n      pop\n      jump\t// out\n        /* \"#utility.yul\":2544:2640   */\n    tag_140:\n        /* \"#utility.yul\":2581:2588   */\n      0x00\n        /* \"#utility.yul\":2610:2634   */\n      tag_209\n        /* \"#utility.yul\":2628:2633   */\n      dup3\n        /* \"#utility.yul\":2610:2634   */\n      tag_139\n      jump\t// in\n    tag_209:\n        /* \"#utility.yul\":2599:2634   */\n      swap1\n      pop\n        /* \"#utility.yul\":2544:2640   */\n      swap2\n      swap1\n      pop\n      jump\t// out\n        /* \"#utility.yul\":2646:2768   */\n    tag_141:\n        /* \"#utility.yul\":2719:2743   */\n      tag_211\n        /* \"#utility.yul\":2737:2742   */\n      dup2\n        /* \"#utility.yul\":2719:2743   */\n      tag_140\n      jump\t// in\n    tag_211:\n        /* \"#utility.yul\":2712:2717   */\n      dup2\n        /* \"#utility.yul\":2709:2744   */\n      eq\n        /* \"#utility.yul\":2699:2762   */\n      tag_212\n      jumpi\n        /* \"#utility.yul\":2758:2759   */\n      0x00\n        /* \"#utility.yul\":2755:2756   */\n      0x00\n        /* \"#utility.yul\":2748:2760   */\n      revert\n        /* \"#utility.yul\":2699:2762   */\n    tag_212:\n        /* \"#utility.yul\":2646:2768   */\n      pop\n      jump\t// out\n        /* \"#utility.yul\":2774:2913   */\n    tag_142:\n        /* \"#utility.yul\":2820:2825   */\n      0x00\n        /* \"#utility.yul\":2858:2864   */\n      dup2\n        /* \"#utility.yul\":2845:2865   */\n      calldataload\n        /* \"#utility.yul\":2836:2865   */\n      swap1\n      pop\n        /* \"#utility.yul\":2874:2907   */\n      tag_214\n        /* \"#utility.yul\":2901:2906   */\n      dup2\n        /* \"#utility.yul\":2874:2907   */\n      tag_141\n      jump\t// in\n    tag_214:\n        /* \"#utility.yul\":2774:2913   */\n      swap3\n      swap2\n      pop\n      pop\n      jump\t// out\n        /* \"#utility.yul\":2919:3036   */\n    tag_143:\n        /* \"#utility.yul\":3028:3029   */\n      0x00\n        /* \"#utility.yul\":3025:3026   */\n      0x00\n        /* \"#utility.yul\":3018:3030   */\n      revert\n        /* \"#utility.yul\":3042:3159   */\n    tag_144:\n        /* \"#utility.yul\":3151:3152   */\n      0x00\n        /* \"#utility.yul\":3148:3149   */\n      0x00\n        /* \"#utility.yul\":3141:3153   */\n      revert\n        /* \"#utility.yul\":3165:3282   */\n    tag_145:\n        /* \"#utility.yul\":3274:3275   */\n      0x00\n        /* \"#utility.yul\":3271:3272   */\n      0x00\n        /* \"#utility.yul\":3264:3276   */\n      revert\n        /* \"#utility.yul\":3305:3873   */\n    tag_146:\n        /* \"#utility.yul\":3378:3386   */\n      0x00\n        /* \"#utility.yul\":3388:3394   */\n      0x00\n        /* \"#utility.yul\":3438:3441   */\n      dup4\n        /* \"#utility.yul\":3431:3435   */\n      0x1f\n        /* \"#utility.yul\":3423:3429   */\n      dup5\n        /* \"#utility.yul\":3419:3436   */\n      add\n        /* \"#utility.yul\":3415:3442   */\n      slt\n        /* \"#utility.yul\":3405:3527   */\n      tag_219\n      jumpi\n        /* \"#utility.yul\":3446:3525   */\n      tag_220\n      tag_143\n      jump\t// in\n    tag_220:\n        /* \"#utility.yul\":3405:3527   */\n    tag_219:\n        /* \"#utility.yul\":3559:3565   */\n      dup3\n        /* \"#utility.yul\":3546:3566   */\n      calldataload\n        /* \"#utility.yul\":3536:3566   */\n      swap1\n      pop\n        /* \"#utility.yul\":3589:3607   */\n      0xffffffffffffffff\n        /* \"#utility.yul\":3581:3587   */\n      dup2\n        /* \"#utility.yul\":3578:3608   */\n      gt\n        /* \"#utility.yul\":3575:3692   */\n      iszero\n      tag_221\n      jumpi\n        /* \"#utility.yul\":3611:3690   */\n      tag_222\n      tag_144\n      jump\t// in\n    tag_222:\n        /* \"#utility.yul\":3575:3692   */\n    tag_221:\n        /* \"#utility.yul\":3725:3729   */\n      0x20\n        /* \"#utility.yul\":3717:3723   */\n      dup4\n        /* \"#utility.yul\":3713:3730   */\n      add\n        /* \"#utility.yul\":3701:3730   */\n      swap2\n      pop\n        /* \"#utility.yul\":3779:3782   */\n      dup4\n        /* \"#utility.yul\":3771:3775   */\n      0x20\n        /* \"#utility.yul\":3763:3769   */\n      dup3\n        /* \"#utility.yul\":3759:3776   */\n      mul\n        /* \"#utility.yul\":3749:3757   */\n      dup4\n        /* \"#utility.yul\":3745:3777   */\n      add\n        /* \"#utility.yul\":3742:3783   */\n      gt\n        /* \"#utility.yul\":3739:3867   */\n      iszero\n      tag_223\n      jumpi\n        /* \"#utility.yul\":3786:3865   */\n      tag_224\n      tag_145\n      jump\t// in\n    tag_224:\n        /* \"#utility.yul\":3739:3867   */\n    tag_223:\n        /* \"#utility.yul\":3305:3873   */\n      swap3\n      pop\n      swap3\n      swap1\n      pop\n      jump\t// out\n        /* \"#utility.yul\":3896:4464   */\n    tag_147:\n        /* \"#utility.yul\":3969:3977   */\n      0x00\n        /* \"#utility.yul\":3979:3985   */\n      0x00\n        /* \"#utility.yul\":4029:4032   */\n      dup4\n        /* \"#utility.yul\":4022:4026   */\n      0x1f\n        /* \"#utility.yul\":4014:4020   */\n      dup5\n        /* \"#utility.yul\":4010:4027   */\n      add\n        /* \"#utility.yul\":4006:4033   */\n      slt\n        /* \"#utility.yul\":3996:4118   */\n      tag_226\n      jumpi\n        /* \"#utility.yul\":4037:4116   */\n      tag_227\n      tag_143\n      jump\t// in\n    tag_227:\n        /* \"#utility.yul\":3996:4118   */\n    tag_226:\n        /* \"#utility.yul\":4150:4156   */\n      dup3\n        /* \"#utility.yul\":4137:4157   */\n      calldataload\n        /* \"#utility.yul\":4127:4157   */\n      swap1\n      pop\n        /* \"#utility.yul\":4180:4198   */\n      0xffffffffffffffff\n        /* \"#utility.yul\":4172:4178   */\n      dup2\n        /* \"#utility.yul\":4169:4199   */\n      gt\n        /* \"#utility.yul\":4166:4283   */\n      iszero\n      tag_228\n      jumpi\n        /* \"#utility.yul\":4202:4281   */\n      tag_229\n      tag_144\n      jump\t// in\n    tag_229:\n        /* \"#utility.yul\":4166:4283   */\n    tag_228:\n        /* \"#utility.yul\":4316:4320   */\n      0x20\n        /* \"#utility.yul\":4308:4314   */\n      dup4\n        /* \"#utility.yul\":4304:4321   */\n      add\n        /* \"#utility.yul\":4292:4321   */\n      swap2\n      pop\n        /* \"#utility.yul\":4370:4373   */\n      dup4\n        /* \"#utility.yul\":4362:4366   */\n      0x20\n        /* \"#utility.yul\":4354:4360   */\n      dup3\n        /* \"#utility.yul\":4350:4367   */\n      mul\n        /* \"#utility.yul\":4340:4348   */\n      dup4\n        /* \"#utility.yul\":4336:4368   */\n      add\n        /* \"#utility.yul\":4333:4374   */\n      gt\n        /* \"#utility.yul\":4330:4458   */\n      iszero\n      tag_230\n      jumpi\n        /* \"#utility.yul\":4377:4456   */\n      tag_231\n      tag_145\n      jump\t// in\n    tag_231:\n        /* \"#utility.yul\":4330:4458   */\n    tag_230:\n        /* \"#utility.yul\":3896:4464   */\n      swap3\n      pop\n      swap3\n      swap1\n      pop\n      jump\t// out\n        /* \"#utility.yul\":4470:5549   */\n    tag_22:\n        /* \"#utility.yul\":4601:4607   */\n      0x00\n        /* \"#utility.yul\":4609:4615   */\n      0x00\n        /* \"#utility.yul\":4617:4623   */\n      0x00\n        /* \"#utility.yul\":4625:4631   */\n      0x00\n        /* \"#utility.yul\":4633:4639   */\n      0x00\n        /* \"#utility.yul\":4682:4684   */\n      0x60\n        /* \"#utility.yul\":4670:4679   */\n      dup7\n        /* \"#utility.yul\":4661:4668   */\n      dup9\n        /* \"#utility.yul\":4657:4680   */\n      sub\n        /* \"#utility.yul\":4653:4685   */\n      slt\n        /* \"#utility.yul\":4650:4769   */\n      iszero\n      tag_233\n      jumpi\n        /* \"#utility.yul\":4688:4767   */\n      tag_234\n      tag_137\n      jump\t// in\n    tag_234:\n        /* \"#utility.yul\":4650:4769   */\n    tag_233:\n        /* \"#utility.yul\":4808:4809   */\n      0x00\n        /* \"#utility.yul\":4833:4886   */\n      tag_235\n        /* \"#utility.yul\":4878:4885   */\n      dup9\n        /* \"#utility.yul\":4869:4875   */\n      dup3\n        /* \"#utility.yul\":4858:4867   */\n      dup10\n        /* \"#utility.yul\":4854:4876   */\n      add\n        /* \"#utility.yul\":4833:4886   */\n      tag_142\n      jump\t// in\n    tag_235:\n        /* \"#utility.yul\":4823:4886   */\n      swap6\n      pop\n        /* \"#utility.yul\":4779:4896   */\n      pop\n        /* \"#utility.yul\":4963:4965   */\n      0x20\n        /* \"#utility.yul\":4952:4961   */\n      dup7\n        /* \"#utility.yul\":4948:4966   */\n      add\n        /* \"#utility.yul\":4935:4967   */\n      calldataload\n        /* \"#utility.yul\":4994:5012   */\n      0xffffffffffffffff\n        /* \"#utility.yul\":4986:4992   */\n      dup2\n        /* \"#utility.yul\":4983:5013   */\n      gt\n        /* \"#utility.yul\":4980:5097   */\n      iszero\n      tag_236\n      jumpi\n        /* \"#utility.yul\":5016:5095   */\n      tag_237\n      tag_138\n      jump\t// in\n    tag_237:\n        /* \"#utility.yul\":4980:5097   */\n    tag_236:\n        /* \"#utility.yul\":5129:5209   */\n      tag_238\n        /* \"#utility.yul\":5201:5208   */\n      dup9\n        /* \"#utility.yul\":5192:5198   */\n      dup3\n        /* \"#utility.yul\":5181:5190   */\n      dup10\n        /* \"#utility.yul\":5177:5199   */\n      add\n        /* \"#utility.yul\":5129:5209   */\n      tag_146\n      jump\t// in\n    tag_238:\n        /* \"#utility.yul\":5111:5209   */\n      swap5\n      pop\n      swap5\n      pop\n        /* \"#utility.yul\":4906:5219   */\n      pop\n        /* \"#utility.yul\":5286:5288   */\n      0x40\n        /* \"#utility.yul\":5275:5284   */\n      dup7\n        /* \"#utility.yul\":5271:5289   */\n      add\n        /* \"#utility.yul\":5258:5290   */\n      calldataload\n        /* \"#utility.yul\":5317:5335   */\n      0xffffffffffffffff\n        /* \"#utility.yul\":5309:5315   */\n      dup2\n        /* \"#utility.yul\":5306:5336   */\n      gt\n        /* \"#utility.yul\":5303:5420   */\n      iszero\n      tag_239\n      jumpi\n        /* \"#utility.yul\":5339:5418   */\n      tag_240\n      tag_138\n      jump\t// in\n    tag_240:\n        /* \"#utility.yul\":5303:5420   */\n    tag_239:\n        /* \"#utility.yul\":5452:5532   */\n      tag_241\n        /* \"#utility.yul\":5524:5531   */\n      dup9\n        /* \"#utility.yul\":5515:5521   */\n      dup3\n        /* \"#utility.yul\":5504:5513   */\n      dup10\n        /* \"#utility.yul\":5500:5522   */\n      add\n        /* \"#utility.yul\":5452:5532   */\n      tag_147\n      jump\t// in\n    tag_241:\n        /* \"#utility.yul\":5434:5532   */\n      swap3\n      pop\n      swap3\n      pop\n        /* \"#utility.yul\":5229:5542   */\n      pop\n        /* \"#utility.yul\":4470:5549   */\n      swap3\n      swap6\n      pop\n      swap3\n      swap6\n      swap1\n      swap4\n      pop\n      jump\t// out\n        /* \"#utility.yul\":5555:5677   */\n    tag_148:\n        /* \"#utility.yul\":5628:5652   */\n      tag_243\n        /* \"#utility.yul\":5646:5651   */\n      dup2\n        /* \"#utility.yul\":5628:5652   */\n      tag_133\n      jump\t// in\n    tag_243:\n        /* \"#utility.yul\":5621:5626   */\n      dup2\n        /* \"#utility.yul\":5618:5653   */\n      eq\n        /* \"#utility.yul\":5608:5671   */\n      tag_244\n      jumpi\n        /* \"#utility.yul\":5667:5668   */\n      0x00\n        /* \"#utility.yul\":5664:5665   */\n      0x00\n        /* \"#utility.yul\":5657:5669   */\n      revert\n        /* \"#utility.yul\":5608:5671   */\n    tag_244:\n        /* \"#utility.yul\":5555:5677   */\n      pop\n      jump\t// out\n        /* \"#utility.yul\":5683:5822   */\n    tag_149:\n        /* \"#utility.yul\":5729:5734   */\n      0x00\n        /* \"#utility.yul\":5767:5773   */\n      dup2\n        /* \"#utility.yul\":5754:5774   */\n      calldataload\n        /* \"#utility.yul\":5745:5774   */\n      swap1\n      pop\n        /* \"#utility.yul\":5783:5816   */\n      tag_246\n        /* \"#utility.yul\":5810:5815   */\n      dup2\n        /* \"#utility.yul\":5783:5816   */\n      tag_148\n      jump\t// in\n    tag_246:\n        /* \"#utility.yul\":5683:5822   */\n      swap3\n      swap2\n      pop\n      pop\n      jump\t// out\n        /* \"#utility.yul\":5828:6157   */\n    tag_27:\n        /* \"#utility.yul\":5887:5893   */\n      0x00\n        /* \"#utility.yul\":5936:5938   */\n      0x20\n        /* \"#utility.yul\":5924:5933   */\n      dup3\n        /* \"#utility.yul\":5915:5922   */\n      dup5\n        /* \"#utility.yul\":5911:5934   */\n      sub\n        /* \"#utility.yul\":5907:5939   */\n      slt\n        /* \"#utility.yul\":5904:6023   */\n      iszero\n      tag_248\n      jumpi\n        /* \"#utility.yul\":5942:6021   */\n      tag_249\n      tag_137\n      jump\t// in\n    tag_249:\n        /* \"#utility.yul\":5904:6023   */\n    tag_248:\n        /* \"#utility.yul\":6062:6063   */\n      0x00\n        /* \"#utility.yul\":6087:6140   */\n      tag_250\n        /* \"#utility.yul\":6132:6139   */\n      dup5\n        /* \"#utility.yul\":6123:6129   */\n      dup3\n        /* \"#utility.yul\":6112:6121   */\n      dup6\n        /* \"#utility.yul\":6108:6130   */\n      add\n        /* \"#utility.yul\":6087:6140   */\n      tag_149\n      jump\t// in\n    tag_250:\n        /* \"#utility.yul\":6077:6140   */\n      swap2\n      pop\n        /* \"#utility.yul\":6033:6150   */\n      pop\n        /* \"#utility.yul\":5828:6157   */\n      swap3\n      swap2\n      pop\n      pop\n      jump\t// out\n        /* \"#utility.yul\":6163:6334   */\n    tag_150:\n        /* \"#utility.yul\":6303:6326   */\n      0x5661756c7420616c726561647920637265617465640000000000000000000000\n        /* \"#utility.yul\":6299:6300   */\n      0x00\n        /* \"#utility.yul\":6291:6297   */\n      dup3\n        /* \"#utility.yul\":6287:6301   */\n      add\n        /* \"#utility.yul\":6280:6327   */\n      mstore\n        /* \"#utility.yul\":6163:6334   */\n      pop\n      jump\t// out\n        /* \"#utility.yul\":6340:6706   */\n    tag_151:\n        /* \"#utility.yul\":6482:6485   */\n      0x00\n        /* \"#utility.yul\":6503:6570   */\n      tag_253\n        /* \"#utility.yul\":6567:6569   */\n      0x15\n        /* \"#utility.yul\":6562:6565   */\n      dup4\n        /* \"#utility.yul\":6503:6570   */\n      tag_130\n      jump\t// in\n    tag_253:\n        /* \"#utility.yul\":6496:6570   */\n      swap2\n      pop\n        /* \"#utility.yul\":6579:6672   */\n      tag_254\n        /* \"#utility.yul\":6668:6671   */\n      dup3\n        /* \"#utility.yul\":6579:6672   */\n      tag_150\n      jump\t// in\n    tag_254:\n        /* \"#utility.yul\":6697:6699   */\n      0x20\n        /* \"#utility.yul\":6692:6695   */\n      dup3\n        /* \"#utility.yul\":6688:6700   */\n      add\n        /* \"#utility.yul\":6681:6700   */\n      swap1\n      pop\n        /* \"#utility.yul\":6340:6706   */\n      swap2\n      swap1\n      pop\n      jump\t// out\n        /* \"#utility.yul\":6712:7131   */\n    tag_34:\n        /* \"#utility.yul\":6878:6882   */\n      0x00\n        /* \"#utility.yul\":6916:6918   */\n      0x20\n        /* \"#utility.yul\":6905:6914   */\n      dup3\n        /* \"#utility.yul\":6901:6919   */\n      add\n        /* \"#utility.yul\":6893:6919   */\n      swap1\n      pop\n        /* \"#utility.yul\":6965:6974   */\n      dup2\n        /* \"#utility.yul\":6959:6963   */\n      dup2\n        /* \"#utility.yul\":6955:6975   */\n      sub\n        /* \"#utility.yul\":6951:6952   */\n      0x00\n        /* \"#utility.yul\":6940:6949   */\n      dup4\n        /* \"#utility.yul\":6936:6953   */\n      add\n        /* \"#utility.yul\":6929:6976   */\n      mstore\n        /* \"#utility.yul\":6993:7124   */\n      tag_256\n        /* \"#utility.yul\":7119:7123   */\n      dup2\n        /* \"#utility.yul\":6993:7124   */\n      tag_151\n      jump\t// in\n    tag_256:\n        /* \"#utility.yul\":6985:7124   */\n      swap1\n      pop\n        /* \"#utility.yul\":6712:7131   */\n      swap2\n      swap1\n      pop\n      jump\t// out\n        /* \"#utility.yul\":7137:7309   */\n    tag_152:\n        /* \"#utility.yul\":7277:7301   */\n      0x457861637420302e312045544820726571756972656400000000000000000000\n        /* \"#utility.yul\":7273:7274   */\n      0x00\n        /* \"#utility.yul\":7265:7271   */\n      dup3\n        /* \"#utility.yul\":7261:7275   */\n      add\n        /* \"#utility.yul\":7254:7302   */\n      mstore\n        /* \"#utility.yul\":7137:7309   */\n      pop\n      jump\t// out\n        /* \"#utility.yul\":7315:7681   */\n    tag_153:\n        /* \"#utility.yul\":7457:7460   */\n      0x00\n        /* \"#utility.yul\":7478:7545   */\n      tag_259\n        /* \"#utility.yul\":7542:7544   */\n      0x16\n        /* \"#utility.yul\":7537:7540   */\n      dup4\n        /* \"#utility.yul\":7478:7545   */\n      tag_130\n      jump\t// in\n    tag_259:\n        /* \"#utility.yul\":7471:7545   */\n      swap2\n      pop\n        /* \"#utility.yul\":7554:7647   */\n      tag_260\n        /* \"#utility.yul\":7643:7646   */\n      dup3\n        /* \"#utility.yul\":7554:7647   */\n      tag_152\n      jump\t// in\n    tag_260:\n        /* \"#utility.yul\":7672:7674   */\n      0x20\n        /* \"#utility.yul\":7667:7670   */\n      dup3\n        /* \"#utility.yul\":7663:7675   */\n      add\n        /* \"#utility.yul\":7656:7675   */\n      swap1\n      pop\n        /* \"#utility.yul\":7315:7681   */\n      swap2\n      swap1\n      pop\n      jump\t// out\n        /* \"#utility.yul\":7687:8106   */\n    tag_37:\n        /* \"#utility.yul\":7853:7857   */\n      0x00\n        /* \"#utility.yul\":7891:7893   */\n      0x20\n        /* \"#utility.yul\":7880:7889   */\n      dup3\n        /* \"#utility.yul\":7876:7894   */\n      add\n        /* \"#utility.yul\":7868:7894   */\n      swap1\n      pop\n        /* \"#utility.yul\":7940:7949   */\n      dup2\n        /* \"#utility.yul\":7934:7938   */\n      dup2\n        /* \"#utility.yul\":7930:7950   */\n      sub\n        /* \"#utility.yul\":7926:7927   */\n      0x00\n        /* \"#utility.yul\":7915:7924   */\n      dup4\n        /* \"#utility.yul\":7911:7928   */\n      add\n        /* \"#utility.yul\":7904:7951   */\n      mstore\n        /* \"#utility.yul\":7968:8099   */\n      tag_262\n        /* \"#utility.yul\":8094:8098   */\n      dup2\n        /* \"#utility.yul\":7968:8099   */\n      tag_153\n      jump\t// in\n    tag_262:\n        /* \"#utility.yul\":7960:8099   */\n      swap1\n      pop\n        /* \"#utility.yul\":7687:8106   */\n      swap2\n      swap1\n      pop\n      jump\t// out\n        /* \"#utility.yul\":8112:8335   */\n    tag_154:\n        /* \"#utility.yul\":8252:8286   */\n      0x4f6e6c79206465706c6f7965722063616e2063616c6c20746869732066756e63\n        /* \"#utility.yul\":8248:8249   */\n      0x00\n        /* \"#utility.yul\":8240:8246   */\n      dup3\n        /* \"#utility.yul\":8236:8250   */\n      add\n        /* \"#utility.yul\":8229:8287   */\n      mstore\n        /* \"#utility.yul\":8321:8327   */\n      0x74696f6e00000000000000000000000000000000000000000000000000000000\n        /* \"#utility.yul\":8316:8318   */\n      0x20\n        /* \"#utility.yul\":8308:8314   */\n      dup3\n        /* \"#utility.yul\":8304:8319   */\n      add\n        /* \"#utility.yul\":8297:8328   */\n      mstore\n        /* \"#utility.yul\":8112:8335   */\n      pop\n      jump\t// out\n        /* \"#utility.yul\":8341:8707   */\n    tag_155:\n        /* \"#utility.yul\":8483:8486   */\n      0x00\n        /* \"#utility.yul\":8504:8571   */\n      tag_265\n        /* \"#utility.yul\":8568:8570   */\n      0x24\n        /* \"#utility.yul\":8563:8566   */\n      dup4\n        /* \"#utility.yul\":8504:8571   */\n      tag_130\n      jump\t// in\n    tag_265:\n        /* \"#utility.yul\":8497:8571   */\n      swap2\n      pop\n        /* \"#utility.yul\":8580:8673   */\n      tag_266\n        /* \"#utility.yul\":8669:8672   */\n      dup3\n        /* \"#utility.yul\":8580:8673   */\n      tag_154\n      jump\t// in\n    tag_266:\n        /* \"#utility.yul\":8698:8700   */\n      0x40\n        /* \"#utility.yul\":8693:8696   */\n      dup3\n        /* \"#utility.yul\":8689:8701   */\n      add\n        /* \"#utility.yul\":8682:8701   */\n      swap1\n      pop\n        /* \"#utility.yul\":8341:8707   */\n      swap2\n      swap1\n      pop\n      jump\t// out\n        /* \"#utility.yul\":8713:9132   */\n    tag_47:\n        /* \"#utility.yul\":8879:8883   */\n      0x00\n        /* \"#utility.yul\":8917:8919   */\n      0x20\n        /* \"#utility.yul\":8906:8915   */\n      dup3\n        /* \"#utility.yul\":8902:8920   */\n      add\n        /* \"#utility.yul\":8894:8920   */\n      swap1\n      pop\n        /* \"#utility.yul\":8966:8975   */\n      dup2\n        /* \"#utility.yul\":8960:8964   */\n      dup2\n        /* \"#utility.yul\":8956:8976   */\n      sub\n        /* \"#utility.yul\":8952:8953   */\n      0x00\n        /* \"#utility.yul\":8941:8950   */\n      dup4\n        /* \"#utility.yul\":8937:8954   */\n      add\n        /* \"#utility.yul\":8930:8977   */\n      mstore\n        /* \"#utility.yul\":8994:9125   */\n      tag_268\n        /* \"#utility.yul\":9120:9124   */\n      dup2\n        /* \"#utility.yul\":8994:9125   */\n      tag_155\n      jump\t// in\n    tag_268:\n        /* \"#utility.yul\":8986:9125   */\n      swap1\n      pop\n        /* \"#utility.yul\":8713:9132   */\n      swap2\n      swap1\n      pop\n      jump\t// out\n        /* \"#utility.yul\":9138:9308   */\n    tag_156:\n        /* \"#utility.yul\":9278:9300   */\n      0x5661756c7420646f6573206e6f74206578697374000000000000000000000000\n        /* \"#utility.yul\":9274:9275   */\n      0x00\n        /* \"#utility.yul\":9266:9272   */\n      dup3\n        /* \"#utility.yul\":9262:9276   */\n      add\n        /* \"#utility.yul\":9255:9301   */\n      mstore\n        /* \"#utility.yul\":9138:9308   */\n      pop\n      jump\t// out\n        /* \"#utility.yul\":9314:9680   */\n    tag_157:\n        /* \"#utility.yul\":9456:9459   */\n      0x00\n        /* \"#utility.yul\":9477:9544   */\n      tag_271\n        /* \"#utility.yul\":9541:9543   */\n      0x14\n        /* \"#utility.yul\":9536:9539   */\n      dup4\n        /* \"#utility.yul\":9477:9544   */\n      tag_130\n      jump\t// in\n    tag_271:\n        /* \"#utility.yul\":9470:9544   */\n      swap2\n      pop\n        /* \"#utility.yul\":9553:9646   */\n      tag_272\n        /* \"#utility.yul\":9642:9645   */\n      dup3\n        /* \"#utility.yul\":9553:9646   */\n      tag_156\n      jump\t// in\n    tag_272:\n        /* \"#utility.yul\":9671:9673   */\n      0x20\n        /* \"#utility.yul\":9666:9669   */\n      dup3\n        /* \"#utility.yul\":9662:9674   */\n      add\n        /* \"#utility.yul\":9655:9674   */\n      swap1\n      pop\n        /* \"#utility.yul\":9314:9680   */\n      swap2\n      swap1\n      pop\n      jump\t// out\n        /* \"#utility.yul\":9686:10105   */\n    tag_50:\n        /* \"#utility.yul\":9852:9856   */\n      0x00\n        /* \"#utility.yul\":9890:9892   */\n      0x20\n        /* \"#utility.yul\":9879:9888   */\n      dup3\n        /* \"#utility.yul\":9875:9893   */\n      add\n        /* \"#utility.yul\":9867:9893   */\n      swap1\n      pop\n        /* \"#utility.yul\":9939:9948   */\n      dup2\n        /* \"#utility.yul\":9933:9937   */\n      dup2\n        /* \"#utility.yul\":9929:9949   */\n      sub\n        /* \"#utility.yul\":9925:9926   */\n      0x00\n        /* \"#utility.yul\":9914:9923   */\n      dup4\n        /* \"#utility.yul\":9910:9927   */\n      add\n        /* \"#utility.yul\":9903:9950   */\n      mstore\n        /* \"#utility.yul\":9967:10098   */\n      tag_274\n        /* \"#utility.yul\":10093:10097   */\n      dup2\n        /* \"#utility.yul\":9967:10098   */\n      tag_157\n      jump\t// in\n    tag_274:\n        /* \"#utility.yul\":9959:10098   */\n      swap1\n      pop\n        /* \"#utility.yul\":9686:10105   */\n      swap2\n      swap1\n      pop\n      jump\t// out\n        /* \"#utility.yul\":10111:10336   */\n    tag_158:\n        /* \"#utility.yul\":10251:10285   */\n      0x526563697069656e747320616e6420616d6f756e7473206c656e677468206d69\n        /* \"#utility.yul\":10247:10248   */\n      0x00\n        /* \"#utility.yul\":10239:10245   */\n      dup3\n        /* \"#utility.yul\":10235:10249   */\n      add\n        /* \"#utility.yul\":10228:10286   */\n      mstore\n        /* \"#utility.yul\":10320:10328   */\n      0x736d617463680000000000000000000000000000000000000000000000000000\n        /* \"#utility.yul\":10315:10317   */\n      0x20\n        /* \"#utility.yul\":10307:10313   */\n      dup3\n        /* \"#utility.yul\":10303:10318   */\n      add\n        /* \"#utility.yul\":10296:10329   */\n      mstore\n        /* \"#utility.yul\":10111:10336   */\n      pop\n      jump\t// out\n        /* \"#utility.yul\":10342:10708   */\n    tag_159:\n        /* \"#utility.yul\":10484:10487   */\n      0x00\n        /* \"#utility.yul\":10505:10572   */\n      tag_277\n        /* \"#utility.yul\":10569:10571   */\n      0x26\n        /* \"#utility.yul\":10564:10567   */\n      dup4\n        /* \"#utility.yul\":10505:10572   */\n      tag_130\n      jump\t// in\n    tag_277:\n        /* \"#utility.yul\":10498:10572   */\n      swap2\n      pop\n        /* \"#utility.yul\":10581:10674   */\n      tag_278\n        /* \"#utility.yul\":10670:10673   */\n      dup3\n        /* \"#utility.yul\":10581:10674   */\n      tag_158\n      jump\t// in\n    tag_278:\n        /* \"#utility.yul\":10699:10701   */\n      0x40\n        /* \"#utility.yul\":10694:10697   */\n      dup3\n        /* \"#utility.yul\":10690:10702   */\n      add\n        /* \"#utility.yul\":10683:10702   */\n      swap1\n      pop\n        /* \"#utility.yul\":10342:10708   */\n      swap2\n      swap1\n      pop\n      jump\t// out\n        /* \"#utility.yul\":10714:11133   */\n    tag_53:\n        /* \"#utility.yul\":10880:10884   */\n      0x00\n        /* \"#utility.yul\":10918:10920   */\n      0x20\n        /* \"#utility.yul\":10907:10916   */\n      dup3\n        /* \"#utility.yul\":10903:10921   */\n      add\n        /* \"#utility.yul\":10895:10921   */\n      swap1\n      pop\n        /* \"#utility.yul\":10967:10976   */\n      dup2\n        /* \"#utility.yul\":10961:10965   */\n      dup2\n        /* \"#utility.yul\":10957:10977   */\n      sub\n        /* \"#utility.yul\":10953:10954   */\n      0x00\n        /* \"#utility.yul\":10942:10951   */\n      dup4\n        /* \"#utility.yul\":10938:10955   */\n      add\n        /* \"#utility.yul\":10931:10978   */\n      mstore\n        /* \"#utility.yul\":10995:11126   */\n      tag_280\n        /* \"#utility.yul\":11121:11125   */\n      dup2\n        /* \"#utility.yul\":10995:11126   */\n      tag_159\n      jump\t// in\n    tag_280:\n        /* \"#utility.yul\":10987:11126   */\n      swap1\n      pop\n        /* \"#utility.yul\":10714:11133   */\n      swap2\n      swap1\n      pop\n      jump\t// out\n        /* \"#utility.yul\":11139:11319   */\n    tag_59:\n        /* \"#utility.yul\":11187:11264   */\n      0x4e487b7100000000000000000000000000000000000000000000000000000000\n        /* \"#utility.yul\":11184:11185   */\n      0x00\n        /* \"#utility.yul\":11177:11265   */\n      mstore\n        /* \"#utility.yul\":11284:11288   */\n      0x32\n        /* \"#utility.yul\":11281:11282   */\n      0x04\n        /* \"#utility.yul\":11274:11289   */\n      mstore\n        /* \"#utility.yul\":11308:11312   */\n      0x24\n        /* \"#utility.yul\":11305:11306   */\n      0x00\n        /* \"#utility.yul\":11298:11313   */\n      revert\n        /* \"#utility.yul\":11325:11505   */\n    tag_160:\n        /* \"#utility.yul\":11373:11450   */\n      0x4e487b7100000000000000000000000000000000000000000000000000000000\n        /* \"#utility.yul\":11370:11371   */\n      0x00\n        /* \"#utility.yul\":11363:11451   */\n      mstore\n        /* \"#utility.yul\":11470:11474   */\n      0x11\n        /* \"#utility.yul\":11467:11468   */\n      0x04\n        /* \"#utility.yul\":11460:11475   */\n      mstore\n        /* \"#utility.yul\":11494:11498   */\n      0x24\n        /* \"#utility.yul\":11491:11492   */\n      0x00\n        /* \"#utility.yul\":11484:11499   */\n      revert\n        /* \"#utility.yul\":11511:11702   */\n    tag_61:\n        /* \"#utility.yul\":11551:11554   */\n      0x00\n        /* \"#utility.yul\":11570:11590   */\n      tag_284\n        /* \"#utility.yul\":11588:11589   */\n      dup3\n        /* \"#utility.yul\":11570:11590   */\n      tag_133\n      jump\t// in\n    tag_284:\n        /* \"#utility.yul\":11565:11590   */\n      swap2\n      pop\n        /* \"#utility.yul\":11604:11624   */\n      tag_285\n        /* \"#utility.yul\":11622:11623   */\n      dup4\n        /* \"#utility.yul\":11604:11624   */\n      tag_133\n      jump\t// in\n    tag_285:\n        /* \"#utility.yul\":11599:11624   */\n      swap3\n      pop\n        /* \"#utility.yul\":11647:11648   */\n      dup3\n        /* \"#utility.yul\":11644:11645   */\n      dup3\n        /* \"#utility.yul\":11640:11649   */\n      add\n        /* \"#utility.yul\":11633:11649   */\n      swap1\n      pop\n        /* \"#utility.yul\":11668:11671   */\n      dup1\n        /* \"#utility.yul\":11665:11666   */\n      dup3\n        /* \"#utility.yul\":11662:11672   */\n      gt\n        /* \"#utility.yul\":11659:11695   */\n      iszero\n      tag_286\n      jumpi\n        /* \"#utility.yul\":11675:11693   */\n      tag_287\n      tag_160\n      jump\t// in\n    tag_287:\n        /* \"#utility.yul\":11659:11695   */\n    tag_286:\n        /* \"#utility.yul\":11511:11702   */\n      swap3\n      swap2\n      pop\n      pop\n      jump\t// out\n        /* \"#utility.yul\":11708:11883   */\n    tag_161:\n        /* \"#utility.yul\":11848:11875   */\n      0x496e73756666696369656e742045544820696e207661756c7400000000000000\n        /* \"#utility.yul\":11844:11845   */\n      0x00\n        /* \"#utility.yul\":11836:11842   */\n      dup3\n        /* \"#utility.yul\":11832:11846   */\n      add\n        /* \"#utility.yul\":11825:11876   */\n      mstore\n        /* \"#utility.yul\":11708:11883   */\n      pop\n      jump\t// out\n        /* \"#utility.yul\":11889:12255   */\n    tag_162:\n        /* \"#utility.yul\":12031:12034   */\n      0x00\n        /* \"#utility.yul\":12052:12119   */\n      tag_290\n        /* \"#utility.yul\":12116:12118   */\n      0x19\n        /* \"#utility.yul\":12111:12114   */\n      dup4\n        /* \"#utility.yul\":12052:12119   */\n      tag_130\n      jump\t// in\n    tag_290:\n        /* \"#utility.yul\":12045:12119   */\n      swap2\n      pop\n        /* \"#utility.yul\":12128:12221   */\n      tag_291\n        /* \"#utility.yul\":12217:12220   */\n      dup3\n        /* \"#utility.yul\":12128:12221   */\n      tag_161\n      jump\t// in\n    tag_291:\n        /* \"#utility.yul\":12246:12248   */\n      0x20\n        /* \"#utility.yul\":12241:12244   */\n      dup3\n        /* \"#utility.yul\":12237:12249   */\n      add\n        /* \"#utility.yul\":12230:12249   */\n      swap1\n      pop\n        /* \"#utility.yul\":11889:12255   */\n      swap2\n      swap1\n      pop\n      jump\t// out\n        /* \"#utility.yul\":12261:12680   */\n    tag_64:\n        /* \"#utility.yul\":12427:12431   */\n      0x00\n        /* \"#utility.yul\":12465:12467   */\n      0x20\n        /* \"#utility.yul\":12454:12463   */\n      dup3\n        /* \"#utility.yul\":12450:12468   */\n      add\n        /* \"#utility.yul\":12442:12468   */\n      swap1\n      pop\n        /* \"#utility.yul\":12514:12523   */\n      dup2\n        /* \"#utility.yul\":12508:12512   */\n      dup2\n        /* \"#utility.yul\":12504:12524   */\n      sub\n        /* \"#utility.yul\":12500:12501   */\n      0x00\n        /* \"#utility.yul\":12489:12498   */\n      dup4\n        /* \"#utility.yul\":12485:12502   */\n      add\n        /* \"#utility.yul\":12478:12525   */\n      mstore\n        /* \"#utility.yul\":12542:12673   */\n      tag_293\n        /* \"#utility.yul\":12668:12672   */\n      dup2\n        /* \"#utility.yul\":12542:12673   */\n      tag_162\n      jump\t// in\n    tag_293:\n        /* \"#utility.yul\":12534:12673   */\n      swap1\n      pop\n        /* \"#utility.yul\":12261:12680   */\n      swap2\n      swap1\n      pop\n      jump\t// out\n        /* \"#utility.yul\":12686:12880   */\n    tag_66:\n        /* \"#utility.yul\":12726:12730   */\n      0x00\n        /* \"#utility.yul\":12746:12766   */\n      tag_295\n        /* \"#utility.yul\":12764:12765   */\n      dup3\n        /* \"#utility.yul\":12746:12766   */\n      tag_133\n      jump\t// in\n    tag_295:\n        /* \"#utility.yul\":12741:12766   */\n      swap2\n      pop\n        /* \"#utility.yul\":12780:12800   */\n      tag_296\n        /* \"#utility.yul\":12798:12799   */\n      dup4\n        /* \"#utility.yul\":12780:12800   */\n      tag_133\n      jump\t// in\n    tag_296:\n        /* \"#utility.yul\":12775:12800   */\n      swap3\n      pop\n        /* \"#utility.yul\":12824:12825   */\n      dup3\n        /* \"#utility.yul\":12821:12822   */\n      dup3\n        /* \"#utility.yul\":12817:12826   */\n      sub\n        /* \"#utility.yul\":12809:12826   */\n      swap1\n      pop\n        /* \"#utility.yul\":12848:12849   */\n      dup2\n        /* \"#utility.yul\":12842:12846   */\n      dup2\n        /* \"#utility.yul\":12839:12850   */\n      gt\n        /* \"#utility.yul\":12836:12873   */\n      iszero\n      tag_297\n      jumpi\n        /* \"#utility.yul\":12853:12871   */\n      tag_298\n      tag_160\n      jump\t// in\n    tag_298:\n        /* \"#utility.yul\":12836:12873   */\n    tag_297:\n        /* \"#utility.yul\":12686:12880   */\n      swap3\n      swap2\n      pop\n      pop\n      jump\t// out\n        /* \"#utility.yul\":12886:13215   */\n    tag_73:\n        /* \"#utility.yul\":12945:12951   */\n      0x00\n        /* \"#utility.yul\":12994:12996   */\n      0x20\n        /* \"#utility.yul\":12982:12991   */\n      dup3\n        /* \"#utility.yul\":12973:12980   */\n      dup5\n        /* \"#utility.yul\":12969:12992   */\n      sub\n        /* \"#utility.yul\":12965:12997   */\n      slt\n        /* \"#utility.yul\":12962:13081   */\n      iszero\n      tag_300\n      jumpi\n        /* \"#utility.yul\":13000:13079   */\n      tag_301\n      tag_137\n      jump\t// in\n    tag_301:\n        /* \"#utility.yul\":12962:13081   */\n    tag_300:\n        /* \"#utility.yul\":13120:13121   */\n      0x00\n        /* \"#utility.yul\":13145:13198   */\n      tag_302\n        /* \"#utility.yul\":13190:13197   */\n      dup5\n        /* \"#utility.yul\":13181:13187   */\n      dup3\n        /* \"#utility.yul\":13170:13179   */\n      dup6\n        /* \"#utility.yul\":13166:13188   */\n      add\n        /* \"#utility.yul\":13145:13198   */\n      tag_142\n      jump\t// in\n    tag_302:\n        /* \"#utility.yul\":13135:13198   */\n      swap2\n      pop\n        /* \"#utility.yul\":13091:13208   */\n      pop\n        /* \"#utility.yul\":12886:13215   */\n      swap3\n      swap2\n      pop\n      pop\n      jump\t// out\n        /* \"#utility.yul\":13221:13368   */\n    tag_163:\n        /* \"#utility.yul\":13322:13333   */\n      0x00\n        /* \"#utility.yul\":13359:13362   */\n      dup2\n        /* \"#utility.yul\":13344:13362   */\n      swap1\n      pop\n        /* \"#utility.yul\":13221:13368   */\n      swap3\n      swap2\n      pop\n      pop\n      jump\t// out\n        /* \"#utility.yul\":13374:13488   */\n    tag_164:\n      pop\n      jump\t// out\n        /* \"#utility.yul\":13494:13892   */\n    tag_165:\n        /* \"#utility.yul\":13653:13656   */\n      0x00\n        /* \"#utility.yul\":13674:13757   */\n      tag_306\n        /* \"#utility.yul\":13755:13756   */\n      0x00\n        /* \"#utility.yul\":13750:13753   */\n      dup4\n        /* \"#utility.yul\":13674:13757   */\n      tag_163\n      jump\t// in\n    tag_306:\n        /* \"#utility.yul\":13667:13757   */\n      swap2\n      pop\n        /* \"#utility.yul\":13766:13859   */\n      tag_307\n        /* \"#utility.yul\":13855:13858   */\n      dup3\n        /* \"#utility.yul\":13766:13859   */\n      tag_164\n      jump\t// in\n    tag_307:\n        /* \"#utility.yul\":13884:13885   */\n      0x00\n        /* \"#utility.yul\":13879:13882   */\n      dup3\n        /* \"#utility.yul\":13875:13886   */\n      add\n        /* \"#utility.yul\":13868:13886   */\n      swap1\n      pop\n        /* \"#utility.yul\":13494:13892   */\n      swap2\n      swap1\n      pop\n      jump\t// out\n        /* \"#utility.yul\":13898:14277   */\n    tag_77:\n        /* \"#utility.yul\":14082:14085   */\n      0x00\n        /* \"#utility.yul\":14104:14251   */\n      tag_309\n        /* \"#utility.yul\":14247:14250   */\n      dup3\n        /* \"#utility.yul\":14104:14251   */\n      tag_165\n      jump\t// in\n    tag_309:\n        /* \"#utility.yul\":14097:14251   */\n      swap2\n      pop\n        /* \"#utility.yul\":14268:14271   */\n      dup2\n        /* \"#utility.yul\":14261:14271   */\n      swap1\n      pop\n        /* \"#utility.yul\":13898:14277   */\n      swap2\n      swap1\n      pop\n      jump\t// out\n        /* \"#utility.yul\":14283:14452   */\n    tag_166:\n        /* \"#utility.yul\":14423:14444   */\n      0x455448207472616e73666572206661696c656400000000000000000000000000\n        /* \"#utility.yul\":14419:14420   */\n      0x00\n        /* \"#utility.yul\":14411:14417   */\n      dup3\n        /* \"#utility.yul\":14407:14421   */\n      add\n        /* \"#utility.yul\":14400:14445   */\n      mstore\n        /* \"#utility.yul\":14283:14452   */\n      pop\n      jump\t// out\n        /* \"#utility.yul\":14458:14824   */\n    tag_167:\n        /* \"#utility.yul\":14600:14603   */\n      0x00\n        /* \"#utility.yul\":14621:14688   */\n      tag_312\n        /* \"#utility.yul\":14685:14687   */\n      0x13\n        /* \"#utility.yul\":14680:14683   */\n      dup4\n        /* \"#utility.yul\":14621:14688   */\n      tag_130\n      jump\t// in\n    tag_312:\n        /* \"#utility.yul\":14614:14688   */\n      swap2\n      pop\n        /* \"#utility.yul\":14697:14790   */\n      tag_313\n        /* \"#utility.yul\":14786:14789   */\n      dup3\n        /* \"#utility.yul\":14697:14790   */\n      tag_166\n      jump\t// in\n    tag_313:\n        /* \"#utility.yul\":14815:14817   */\n      0x20\n        /* \"#utility.yul\":14810:14813   */\n      dup3\n        /* \"#utility.yul\":14806:14818   */\n      add\n        /* \"#utility.yul\":14799:14818   */\n      swap1\n      pop\n        /* \"#utility.yul\":14458:14824   */\n      swap2\n      swap1\n      pop\n      jump\t// out\n        /* \"#utility.yul\":14830:15249   */\n    tag_83:\n        /* \"#utility.yul\":14996:15000   */\n      0x00\n        /* \"#utility.yul\":15034:15036   */\n      0x20\n        /* \"#utility.yul\":15023:15032   */\n      dup3\n        /* \"#utility.yul\":15019:15037   */\n      add\n        /* \"#utility.yul\":15011:15037   */\n      swap1\n      pop\n        /* \"#utility.yul\":15083:15092   */\n      dup2\n        /* \"#utility.yul\":15077:15081   */\n      dup2\n        /* \"#utility.yul\":15073:15093   */\n      sub\n        /* \"#utility.yul\":15069:15070   */\n      0x00\n        /* \"#utility.yul\":15058:15067   */\n      dup4\n        /* \"#utility.yul\":15054:15071   */\n      add\n        /* \"#utility.yul\":15047:15094   */\n      mstore\n        /* \"#utility.yul\":15111:15242   */\n      tag_315\n        /* \"#utility.yul\":15237:15241   */\n      dup2\n        /* \"#utility.yul\":15111:15242   */\n      tag_167\n      jump\t// in\n    tag_315:\n        /* \"#utility.yul\":15103:15242   */\n      swap1\n      pop\n        /* \"#utility.yul\":14830:15249   */\n      swap2\n      swap1\n      pop\n      jump\t// out\n        /* \"#utility.yul\":15255:15439   */\n    tag_168:\n        /* \"#utility.yul\":15354:15365   */\n      0x00\n        /* \"#utility.yul\":15388:15394   */\n      dup3\n        /* \"#utility.yul\":15383:15386   */\n      dup3\n        /* \"#utility.yul\":15376:15395   */\n      mstore\n        /* \"#utility.yul\":15428:15432   */\n      0x20\n        /* \"#utility.yul\":15423:15426   */\n      dup3\n        /* \"#utility.yul\":15419:15433   */\n      add\n        /* \"#utility.yul\":15404:15433   */\n      swap1\n      pop\n        /* \"#utility.yul\":15255:15439   */\n      swap3\n      swap2\n      pop\n      pop\n      jump\t// out\n        /* \"#utility.yul\":15445:15547   */\n    tag_169:\n        /* \"#utility.yul\":15514:15518   */\n      0x00\n        /* \"#utility.yul\":15537:15540   */\n      dup2\n        /* \"#utility.yul\":15529:15540   */\n      swap1\n      pop\n        /* \"#utility.yul\":15445:15547   */\n      swap2\n      swap1\n      pop\n      jump\t// out\n        /* \"#utility.yul\":15553:15661   */\n    tag_170:\n        /* \"#utility.yul\":15630:15654   */\n      tag_319\n        /* \"#utility.yul\":15648:15653   */\n      dup2\n        /* \"#utility.yul\":15630:15654   */\n      tag_140\n      jump\t// in\n    tag_319:\n        /* \"#utility.yul\":15625:15628   */\n      dup3\n        /* \"#utility.yul\":15618:15655   */\n      mstore\n        /* \"#utility.yul\":15553:15661   */\n      pop\n      pop\n      jump\t// out\n        /* \"#utility.yul\":15667:15846   */\n    tag_171:\n        /* \"#utility.yul\":15736:15746   */\n      0x00\n        /* \"#utility.yul\":15757:15803   */\n      tag_321\n        /* \"#utility.yul\":15799:15802   */\n      dup4\n        /* \"#utility.yul\":15791:15797   */\n      dup4\n        /* \"#utility.yul\":15757:15803   */\n      tag_170\n      jump\t// in\n    tag_321:\n        /* \"#utility.yul\":15835:15839   */\n      0x20\n        /* \"#utility.yul\":15830:15833   */\n      dup4\n        /* \"#utility.yul\":15826:15840   */\n      add\n        /* \"#utility.yul\":15812:15840   */\n      swap1\n      pop\n        /* \"#utility.yul\":15667:15846   */\n      swap3\n      swap2\n      pop\n      pop\n      jump\t// out\n        /* \"#utility.yul\":15852:15974   */\n    tag_172:\n        /* \"#utility.yul\":15904:15909   */\n      0x00\n        /* \"#utility.yul\":15929:15968   */\n      tag_323\n        /* \"#utility.yul\":15964:15966   */\n      0x20\n        /* \"#utility.yul\":15959:15962   */\n      dup5\n        /* \"#utility.yul\":15955:15967   */\n      add\n        /* \"#utility.yul\":15950:15953   */\n      dup5\n        /* \"#utility.yul\":15929:15968   */\n      tag_142\n      jump\t// in\n    tag_323:\n        /* \"#utility.yul\":15920:15968   */\n      swap1\n      pop\n        /* \"#utility.yul\":15852:15974   */\n      swap3\n      swap2\n      pop\n      pop\n      jump\t// out\n        /* \"#utility.yul\":15980:16095   */\n    tag_173:\n        /* \"#utility.yul\":16052:16056   */\n      0x00\n        /* \"#utility.yul\":16084:16088   */\n      0x20\n        /* \"#utility.yul\":16079:16082   */\n      dup3\n        /* \"#utility.yul\":16075:16089   */\n      add\n        /* \"#utility.yul\":16067:16089   */\n      swap1\n      pop\n        /* \"#utility.yul\":15980:16095   */\n      swap2\n      swap1\n      pop\n      jump\t// out\n        /* \"#utility.yul\":16131:16830   */\n    tag_174:\n        /* \"#utility.yul\":16260:16263   */\n      0x00\n        /* \"#utility.yul\":16283:16369   */\n      tag_326\n        /* \"#utility.yul\":16362:16368   */\n      dup4\n        /* \"#utility.yul\":16357:16360   */\n      dup6\n        /* \"#utility.yul\":16283:16369   */\n      tag_168\n      jump\t// in\n    tag_326:\n        /* \"#utility.yul\":16276:16369   */\n      swap4\n      pop\n        /* \"#utility.yul\":16393:16451   */\n      tag_327\n        /* \"#utility.yul\":16445:16450   */\n      dup3\n        /* \"#utility.yul\":16393:16451   */\n      tag_169\n      jump\t// in\n    tag_327:\n        /* \"#utility.yul\":16474:16481   */\n      dup1\n        /* \"#utility.yul\":16505:16506   */\n      0x00\n        /* \"#utility.yul\":16490:16805   */\n    tag_328:\n        /* \"#utility.yul\":16515:16521   */\n      dup6\n        /* \"#utility.yul\":16512:16513   */\n      dup2\n        /* \"#utility.yul\":16509:16522   */\n      lt\n        /* \"#utility.yul\":16490:16805   */\n      iszero\n      tag_330\n      jumpi\n        /* \"#utility.yul\":16585:16627   */\n      tag_331\n        /* \"#utility.yul\":16620:16626   */\n      dup3\n        /* \"#utility.yul\":16611:16618   */\n      dup5\n        /* \"#utility.yul\":16585:16627   */\n      tag_172\n      jump\t// in\n    tag_331:\n        /* \"#utility.yul\":16647:16710   */\n      tag_332\n        /* \"#utility.yul\":16706:16709   */\n      dup9\n        /* \"#utility.yul\":16691:16704   */\n      dup3\n        /* \"#utility.yul\":16647:16710   */\n      tag_171\n      jump\t// in\n    tag_332:\n        /* \"#utility.yul\":16640:16710   */\n      swap8\n      pop\n        /* \"#utility.yul\":16733:16795   */\n      tag_333\n        /* \"#utility.yul\":16788:16794   */\n      dup4\n        /* \"#utility.yul\":16733:16795   */\n      tag_173\n      jump\t// in\n    tag_333:\n        /* \"#utility.yul\":16723:16795   */\n      swap3\n      pop\n        /* \"#utility.yul\":16550:16805   */\n      pop\n        /* \"#utility.yul\":16537:16538   */\n      0x01\n        /* \"#utility.yul\":16534:16535   */\n      dup2\n        /* \"#utility.yul\":16530:16539   */\n      add\n        /* \"#utility.yul\":16525:16539   */\n      swap1\n      pop\n        /* \"#utility.yul\":16490:16805   */\n      jump(tag_328)\n    tag_330:\n        /* \"#utility.yul\":16494:16508   */\n      pop\n        /* \"#utility.yul\":16821:16824   */\n      dup6\n        /* \"#utility.yul\":16814:16824   */\n      swap3\n      pop\n        /* \"#utility.yul\":16265:16830   */\n      pop\n      pop\n        /* \"#utility.yul\":16131:16830   */\n      swap4\n      swap3\n      pop\n      pop\n      pop\n      jump\t// out\n        /* \"#utility.yul\":16836:17020   */\n    tag_175:\n        /* \"#utility.yul\":16935:16946   */\n      0x00\n        /* \"#utility.yul\":16969:16975   */\n      dup3\n        /* \"#utility.yul\":16964:16967   */\n      dup3\n        /* \"#utility.yul\":16957:16976   */\n      mstore\n        /* \"#utility.yul\":17009:17013   */\n      0x20\n        /* \"#utility.yul\":17004:17007   */\n      dup3\n        /* \"#utility.yul\":17000:17014   */\n      add\n        /* \"#utility.yul\":16985:17014   */\n      swap1\n      pop\n        /* \"#utility.yul\":16836:17020   */\n      swap3\n      swap2\n      pop\n      pop\n      jump\t// out\n        /* \"#utility.yul\":17026:17143   */\n    tag_176:\n        /* \"#utility.yul\":17135:17136   */\n      0x00\n        /* \"#utility.yul\":17132:17133   */\n      0x00\n        /* \"#utility.yul\":17125:17137   */\n      revert\n        /* \"#utility.yul\":17149:17248   */\n    tag_177:\n        /* \"#utility.yul\":17234:17240   */\n      dup3\n        /* \"#utility.yul\":17229:17232   */\n      dup2\n        /* \"#utility.yul\":17224:17227   */\n      dup4\n        /* \"#utility.yul\":17211:17241   */\n      calldatacopy\n        /* \"#utility.yul\":17149:17248   */\n      pop\n      pop\n      pop\n      jump\t// out\n        /* \"#utility.yul\":17284:17821   */\n    tag_178:\n        /* \"#utility.yul\":17412:17415   */\n      0x00\n        /* \"#utility.yul\":17433:17519   */\n      tag_338\n        /* \"#utility.yul\":17512:17518   */\n      dup4\n        /* \"#utility.yul\":17507:17510   */\n      dup6\n        /* \"#utility.yul\":17433:17519   */\n      tag_175\n      jump\t// in\n    tag_338:\n        /* \"#utility.yul\":17426:17519   */\n      swap4\n      pop\n        /* \"#utility.yul\":17543:17609   */\n      0x07ffffffffffffffffffffffffffffffffffffffffffffffffffffffffffffff\n        /* \"#utility.yul\":17535:17541   */\n      dup4\n        /* \"#utility.yul\":17532:17610   */\n      gt\n        /* \"#utility.yul\":17529:17694   */\n      iszero\n      tag_339\n      jumpi\n        /* \"#utility.yul\":17613:17692   */\n      tag_340\n      tag_176\n      jump\t// in\n    tag_340:\n        /* \"#utility.yul\":17529:17694   */\n    tag_339:\n        /* \"#utility.yul\":17725:17729   */\n      0x20\n        /* \"#utility.yul\":17717:17723   */\n      dup4\n        /* \"#utility.yul\":17713:17730   */\n      mul\n        /* \"#utility.yul\":17703:17730   */\n      swap3\n      pop\n        /* \"#utility.yul\":17740:17783   */\n      tag_341\n        /* \"#utility.yul\":17776:17782   */\n      dup4\n        /* \"#utility.yul\":17771:17774   */\n      dup6\n        /* \"#utility.yul\":17764:17769   */\n      dup5\n        /* \"#utility.yul\":17740:17783   */\n      tag_177\n      jump\t// in\n    tag_341:\n        /* \"#utility.yul\":17808:17814   */\n      dup3\n        /* \"#utility.yul\":17803:17806   */\n      dup5\n        /* \"#utility.yul\":17799:17815   */\n      add\n        /* \"#utility.yul\":17792:17815   */\n      swap1\n      pop\n        /* \"#utility.yul\":17284:17821   */\n      swap4\n      swap3\n      pop\n      pop\n      pop\n      jump\t// out\n        /* \"#utility.yul\":17827:18501   */\n    tag_85:\n        /* \"#utility.yul\":18068:18072   */\n      0x00\n        /* \"#utility.yul\":18106:18108   */\n      0x40\n        /* \"#utility.yul\":18095:18104   */\n      dup3\n        /* \"#utility.yul\":18091:18109   */\n      add\n        /* \"#utility.yul\":18083:18109   */\n      swap1\n      pop\n        /* \"#utility.yul\":18155:18164   */\n      dup2\n        /* \"#utility.yul\":18149:18153   */\n      dup2\n        /* \"#utility.yul\":18145:18165   */\n      sub\n        /* \"#utility.yul\":18141:18142   */\n      0x00\n        /* \"#utility.yul\":18130:18139   */\n      dup4\n        /* \"#utility.yul\":18126:18143   */\n      add\n        /* \"#utility.yul\":18119:18166   */\n      mstore\n        /* \"#utility.yul\":18183:18301   */\n      tag_343\n        /* \"#utility.yul\":18296:18300   */\n      dup2\n        /* \"#utility.yul\":18287:18293   */\n      dup7\n        /* \"#utility.yul\":18279:18285   */\n      dup9\n        /* \"#utility.yul\":18183:18301   */\n      tag_174\n      jump\t// in\n    tag_343:\n        /* \"#utility.yul\":18175:18301   */\n      swap1\n      pop\n        /* \"#utility.yul\":18348:18357   */\n      dup2\n        /* \"#utility.yul\":18342:18346   */\n      dup2\n        /* \"#utility.yul\":18338:18358   */\n      sub\n        /* \"#utility.yul\":18333:18335   */\n      0x20\n        /* \"#utility.yul\":18322:18331   */\n      dup4\n        /* \"#utility.yul\":18318:18336   */\n      add\n        /* \"#utility.yul\":18311:18359   */\n      mstore\n        /* \"#utility.yul\":18376:18494   */\n      tag_344\n        /* \"#utility.yul\":18489:18493   */\n      dup2\n        /* \"#utility.yul\":18480:18486   */\n      dup5\n        /* \"#utility.yul\":18472:18478   */\n      dup7\n        /* \"#utility.yul\":18376:18494   */\n      tag_178\n      jump\t// in\n    tag_344:\n        /* \"#utility.yul\":18368:18494   */\n      swap1\n      pop\n        /* \"#utility.yul\":17827:18501   */\n      swap6\n      swap5\n      pop\n      pop\n      pop\n      pop\n      pop\n      jump\t// out\n        /* \"#utility.yul\":18507:18673   */\n    tag_179:\n        /* \"#utility.yul\":18647:18665   */\n      0x496e73756666696369656e742045544800000000000000000000000000000000\n        /* \"#utility.yul\":18643:18644   */\n      0x00\n        /* \"#utility.yul\":18635:18641   */\n      dup3\n        /* \"#utility.yul\":18631:18645   */\n      add\n        /* \"#utility.yul\":18624:18666   */\n      mstore\n        /* \"#utility.yul\":18507:18673   */\n      pop\n      jump\t// out\n        /* \"#utility.yul\":18679:19045   */\n    tag_180:\n        /* \"#utility.yul\":18821:18824   */\n      0x00\n        /* \"#utility.yul\":18842:18909   */\n      tag_347\n        /* \"#utility.yul\":18906:18908   */\n      0x10\n        /* \"#utility.yul\":18901:18904   */\n      dup4\n        /* \"#utility.yul\":18842:18909   */\n      tag_130\n      jump\t// in\n    tag_347:\n        /* \"#utility.yul\":18835:18909   */\n      swap2\n      pop\n        /* \"#utility.yul\":18918:19011   */\n      tag_348\n        /* \"#utility.yul\":19007:19010   */\n      dup3\n        /* \"#utility.yul\":18918:19011   */\n      tag_179\n      jump\t// in\n    tag_348:\n        /* \"#utility.yul\":19036:19038   */\n      0x20\n        /* \"#utility.yul\":19031:19034   */\n      dup3\n        /* \"#utility.yul\":19027:19039   */\n      add\n        /* \"#utility.yul\":19020:19039   */\n      swap1\n      pop\n        /* \"#utility.yul\":18679:19045   */\n      swap2\n      swap1\n      pop\n      jump\t// out\n        /* \"#utility.yul\":19051:19470   */\n    tag_91:\n        /* \"#utility.yul\":19217:19221   */\n      0x00\n        /* \"#utility.yul\":19255:19257   */\n      0x20\n        /* \"#utility.yul\":19244:19253   */\n      dup3\n        /* \"#utility.yul\":19240:19258   */\n      add\n        /* \"#utility.yul\":19232:19258   */\n      swap1\n      pop\n        /* \"#utility.yul\":19304:19313   */\n      dup2\n        /* \"#utility.yul\":19298:19302   */\n      dup2\n        /* \"#utility.yul\":19294:19314   */\n      sub\n        /* \"#utility.yul\":19290:19291   */\n      0x00\n        /* \"#utility.yul\":19279:19288   */\n      dup4\n        /* \"#utility.yul\":19275:19292   */\n      add\n        /* \"#utility.yul\":19268:19315   */\n      mstore\n        /* \"#utility.yul\":19332:19463   */\n      tag_350\n        /* \"#utility.yul\":19458:19462   */\n      dup2\n        /* \"#utility.yul\":19332:19463   */\n      tag_180\n      jump\t// in\n    tag_350:\n        /* \"#utility.yul\":19324:19463   */\n      swap1\n      pop\n        /* \"#utility.yul\":19051:19470   */\n      swap2\n      swap1\n      pop\n      jump\t// out\n        /* \"#utility.yul\":19476:19594   */\n    tag_181:\n        /* \"#utility.yul\":19563:19587   */\n      tag_352\n        /* \"#utility.yul\":19581:19586   */\n      dup2\n        /* \"#utility.yul\":19563:19587   */\n      tag_133\n      jump\t// in\n    tag_352:\n        /* \"#utility.yul\":19558:19561   */\n      dup3\n        /* \"#utility.yul\":19551:19588   */\n      mstore\n        /* \"#utility.yul\":19476:19594   */\n      pop\n      pop\n      jump\t// out\n        /* \"#utility.yul\":19600:19822   */\n    tag_100:\n        /* \"#utility.yul\":19693:19697   */\n      0x00\n        /* \"#utility.yul\":19731:19733   */\n      0x20\n        /* \"#utility.yul\":19720:19729   */\n      dup3\n        /* \"#utility.yul\":19716:19734   */\n      add\n        /* \"#utility.yul\":19708:19734   */\n      swap1\n      pop\n        /* \"#utility.yul\":19744:19815   */\n      tag_354\n        /* \"#utility.yul\":19812:19813   */\n      0x00\n        /* \"#utility.yul\":19801:19810   */\n      dup4\n        /* \"#utility.yul\":19797:19814   */\n      add\n        /* \"#utility.yul\":19788:19794   */\n      dup5\n        /* \"#utility.yul\":19744:19815   */\n      tag_181\n      jump\t// in\n    tag_354:\n        /* \"#utility.yul\":19600:19822   */\n      swap3\n      swap2\n      pop\n      pop\n      jump\t// out\n        /* \"#utility.yul\":19828:19996   */\n    tag_182:\n        /* \"#utility.yul\":19968:19988   */\n      0x437265617465207661756c742066697273740000000000000000000000000000\n        /* \"#utility.yul\":19964:19965   */\n      0x00\n        /* \"#utility.yul\":19956:19962   */\n      dup3\n        /* \"#utility.yul\":19952:19966   */\n      add\n        /* \"#utility.yul\":19945:19989   */\n      mstore\n        /* \"#utility.yul\":19828:19996   */\n      pop\n      jump\t// out\n        /* \"#utility.yul\":20002:20368   */\n    tag_183:\n        /* \"#utility.yul\":20144:20147   */\n      0x00\n        /* \"#utility.yul\":20165:20232   */\n      tag_357\n        /* \"#utility.yul\":20229:20231   */\n      0x12\n        /* \"#utility.yul\":20224:20227   */\n      dup4\n        /* \"#utility.yul\":20165:20232   */\n      tag_130\n      jump\t// in\n    tag_357:\n        /* \"#utility.yul\":20158:20232   */\n      swap2\n      pop\n        /* \"#utility.yul\":20241:20334   */\n      tag_358\n        /* \"#utility.yul\":20330:20333   */\n      dup3\n        /* \"#utility.yul\":20241:20334   */\n      tag_182\n      jump\t// in\n    tag_358:\n        /* \"#utility.yul\":20359:20361   */\n      0x20\n        /* \"#utility.yul\":20354:20357   */\n      dup3\n        /* \"#utility.yul\":20350:20362   */\n      add\n        /* \"#utility.yul\":20343:20362   */\n      swap1\n      pop\n        /* \"#utility.yul\":20002:20368   */\n      swap2\n      swap1\n      pop\n      jump\t// out\n        /* \"#utility.yul\":20374:20793   */\n    tag_104:\n        /* \"#utility.yul\":20540:20544   */\n      0x00\n        /* \"#utility.yul\":20578:20580   */\n      0x20\n        /* \"#utility.yul\":20567:20576   */\n      dup3\n        /* \"#utility.yul\":20563:20581   */\n      add\n        /* \"#utility.yul\":20555:20581   */\n      swap1\n      pop\n        /* \"#utility.yul\":20627:20636   */\n      dup2\n        /* \"#utility.yul\":20621:20625   */\n      dup2\n        /* \"#utility.yul\":20617:20637   */\n      sub\n        /* \"#utility.yul\":20613:20614   */\n      0x00\n        /* \"#utility.yul\":20602:20611   */\n      dup4\n        /* \"#utility.yul\":20598:20615   */\n      add\n        /* \"#utility.yul\":20591:20638   */\n      mstore\n        /* \"#utility.yul\":20655:20786   */\n      tag_360\n        /* \"#utility.yul\":20781:20785   */\n      dup2\n        /* \"#utility.yul\":20655:20786   */\n      tag_183\n      jump\t// in\n    tag_360:\n        /* \"#utility.yul\":20647:20786   */\n      swap1\n      pop\n        /* \"#utility.yul\":20374:20793   */\n      swap2\n      swap1\n      pop\n      jump\t// out\n        /* \"#utility.yul\":20799:20960   */\n    tag_184:\n        /* \"#utility.yul\":20939:20952   */\n      0x4e6f204554482073656e74000000000000000000000000000000000000000000\n        /* \"#utility.yul\":20935:20936   */\n      0x00\n        /* \"#utility.yul\":20927:20933   */\n      dup3\n        /* \"#utility.yul\":20923:20937   */\n      add\n        /* \"#utility.yul\":20916:20953   */\n      mstore\n        /* \"#utility.yul\":20799:20960   */\n      pop\n      jump\t// out\n        /* \"#utility.yul\":20966:21332   */\n    tag_185:\n        /* \"#utility.yul\":21108:21111   */\n      0x00\n        /* \"#utility.yul\":21129:21196   */\n      tag_363\n        /* \"#utility.yul\":21193:21195   */\n      0x0b\n        /* \"#utility.yul\":21188:21191   */\n      dup4\n        /* \"#utility.yul\":21129:21196   */\n      tag_130\n      jump\t// in\n    tag_363:\n        /* \"#utility.yul\":21122:21196   */\n      swap2\n      pop\n        /* \"#utility.yul\":21205:21298   */\n      tag_364\n        /* \"#utility.yul\":21294:21297   */\n      dup3\n        /* \"#utility.yul\":21205:21298   */\n      tag_184\n      jump\t// in\n    tag_364:\n        /* \"#utility.yul\":21323:21325   */\n      0x20\n        /* \"#utility.yul\":21318:21321   */\n      dup3\n        /* \"#utility.yul\":21314:21326   */\n      add\n        /* \"#utility.yul\":21307:21326   */\n      swap1\n      pop\n        /* \"#utility.yul\":20966:21332   */\n      swap2\n      swap1\n      pop\n      jump\t// out\n        /* \"#utility.yul\":21338:21757   */\n    tag_107:\n        /* \"#utility.yul\":21504:21508   */\n      0x00\n        /* \"#utility.yul\":21542:21544   */\n      0x20\n        /* \"#utility.yul\":21531:21540   */\n      dup3\n        /* \"#utility.yul\":21527:21545   */\n      add\n        /* \"#utility.yul\":21519:21545   */\n      swap1\n      pop\n        /* \"#utility.yul\":21591:21600   */\n      dup2\n        /* \"#utility.yul\":21585:21589   */\n      dup2\n        /* \"#utility.yul\":21581:21601   */\n      sub\n        /* \"#utility.yul\":21577:21578   */\n      0x00\n        /* \"#utility.yul\":21566:21575   */\n      dup4\n        /* \"#utility.yul\":21562:21579   */\n      add\n        /* \"#utility.yul\":21555:21602   */\n      mstore\n        /* \"#utility.yul\":21619:21750   */\n      tag_366\n        /* \"#utility.yul\":21745:21749   */\n      dup2\n        /* \"#utility.yul\":21619:21750   */\n      tag_185\n      jump\t// in\n    tag_366:\n        /* \"#utility.yul\":21611:21750   */\n      swap1\n      pop\n        /* \"#utility.yul\":21338:21757   */\n      swap2\n      swap1\n      pop\n      jump\t// out\n        /* \"#utility.yul\":21763:22173   */\n    tag_111:\n        /* \"#utility.yul\":21803:21810   */\n      0x00\n        /* \"#utility.yul\":21826:21846   */\n      tag_368\n        /* \"#utility.yul\":21844:21845   */\n      dup3\n        /* \"#utility.yul\":21826:21846   */\n      tag_133\n      jump\t// in\n    tag_368:\n        /* \"#utility.yul\":21821:21846   */\n      swap2\n      pop\n        /* \"#utility.yul\":21860:21880   */\n      tag_369\n        /* \"#utility.yul\":21878:21879   */\n      dup4\n        /* \"#utility.yul\":21860:21880   */\n      tag_133\n      jump\t// in\n    tag_369:\n        /* \"#utility.yul\":21855:21880   */\n      swap3\n      pop\n        /* \"#utility.yul\":21915:21916   */\n      dup3\n        /* \"#utility.yul\":21912:21913   */\n      dup3\n        /* \"#utility.yul\":21908:21917   */\n      mul\n        /* \"#utility.yul\":21937:21967   */\n      tag_370\n        /* \"#utility.yul\":21955:21966   */\n      dup2\n        /* \"#utility.yul\":21937:21967   */\n      tag_133\n      jump\t// in\n    tag_370:\n        /* \"#utility.yul\":21926:21967   */\n      swap2\n      pop\n        /* \"#utility.yul\":22116:22117   */\n      dup3\n        /* \"#utility.yul\":22107:22114   */\n      dup3\n        /* \"#utility.yul\":22103:22118   */\n      div\n        /* \"#utility.yul\":22100:22101   */\n      dup5\n        /* \"#utility.yul\":22097:22119   */\n      eq\n        /* \"#utility.yul\":22077:22078   */\n      dup4\n        /* \"#utility.yul\":22070:22079   */\n      iszero\n        /* \"#utility.yul\":22050:22133   */\n      or\n        /* \"#utility.yul\":22027:22166   */\n      tag_371\n      jumpi\n        /* \"#utility.yul\":22146:22164   */\n      tag_372\n      tag_160\n      jump\t// in\n    tag_372:\n        /* \"#utility.yul\":22027:22166   */\n    tag_371:\n        /* \"#utility.yul\":21811:22173   */\n      pop\n        /* \"#utility.yul\":21763:22173   */\n      swap3\n      swap2\n      pop\n      pop\n      jump\t// out\n        /* \"#utility.yul\":22179:22359   */\n    tag_186:\n        /* \"#utility.yul\":22227:22304   */\n      0x4e487b7100000000000000000000000000000000000000000000000000000000\n        /* \"#utility.yul\":22224:22225   */\n      0x00\n        /* \"#utility.yul\":22217:22305   */\n      mstore\n        /* \"#utility.yul\":22324:22328   */\n      0x12\n        /* \"#utility.yul\":22321:22322   */\n      0x04\n        /* \"#utility.yul\":22314:22329   */\n      mstore\n        /* \"#utility.yul\":22348:22352   */\n      0x24\n        /* \"#utility.yul\":22345:22346   */\n      0x00\n        /* \"#utility.yul\":22338:22353   */\n      revert\n        /* \"#utility.yul\":22365:22550   */\n    tag_113:\n        /* \"#utility.yul\":22405:22406   */\n      0x00\n        /* \"#utility.yul\":22422:22442   */\n      tag_375\n        /* \"#utility.yul\":22440:22441   */\n      dup3\n        /* \"#utility.yul\":22422:22442   */\n      tag_133\n      jump\t// in\n    tag_375:\n        /* \"#utility.yul\":22417:22442   */\n      swap2\n      pop\n        /* \"#utility.yul\":22456:22476   */\n      tag_376\n        /* \"#utility.yul\":22474:22475   */\n      dup4\n        /* \"#utility.yul\":22456:22476   */\n      tag_133\n      jump\t// in\n    tag_376:\n        /* \"#utility.yul\":22451:22476   */\n      swap3\n      pop\n        /* \"#utility.yul\":22495:22496   */\n      dup3\n        /* \"#utility.yul\":22485:22520   */\n      tag_377\n      jumpi\n        /* \"#utility.yul\":22500:22518   */\n      tag_378\n      tag_186\n      jump\t// in\n    tag_378:\n        /* \"#utility.yul\":22485:22520   */\n    tag_377:\n        /* \"#utility.yul\":22542:22543   */\n      dup3\n        /* \"#utility.yul\":22539:22540   */\n      dup3\n        /* \"#utility.yul\":22535:22544   */\n      div\n        /* \"#utility.yul\":22530:22544   */\n      swap1\n      pop\n        /* \"#utility.yul\":22365:22550   */\n      swap3\n      swap2\n      pop\n      pop\n      jump\t// out\n        /* \"#utility.yul\":22556:22717   */\n    tag_187:\n        /* \"#utility.yul\":22696:22709   */\n      0x4e6574206973207a65726f000000000000000000000000000000000000000000\n        /* \"#utility.yul\":22692:22693   */\n      0x00\n        /* \"#utility.yul\":22684:22690   */\n      dup3\n        /* \"#utility.yul\":22680:22694   */\n      add\n        /* \"#utility.yul\":22673:22710   */\n      mstore\n        /* \"#utility.yul\":22556:22717   */\n      pop\n      jump\t// out\n        /* \"#utility.yul\":22723:23089   */\n    tag_188:\n        /* \"#utility.yul\":22865:22868   */\n      0x00\n        /* \"#utility.yul\":22886:22953   */\n      tag_381\n        /* \"#utility.yul\":22950:22952   */\n      0x0b\n        /* \"#utility.yul\":22945:22948   */\n      dup4\n        /* \"#utility.yul\":22886:22953   */\n      tag_130\n      jump\t// in\n    tag_381:\n        /* \"#utility.yul\":22879:22953   */\n      swap2\n      pop\n        /* \"#utility.yul\":22962:23055   */\n      tag_382\n        /* \"#utility.yul\":23051:23054   */\n      dup3\n        /* \"#utility.yul\":22962:23055   */\n      tag_187\n      jump\t// in\n    tag_382:\n        /* \"#utility.yul\":23080:23082   */\n      0x20\n        /* \"#utility.yul\":23075:23078   */\n      dup3\n        /* \"#utility.yul\":23071:23083   */\n      add\n        /* \"#utility.yul\":23064:23083   */\n      swap1\n      pop\n        /* \"#utility.yul\":22723:23089   */\n      swap2\n      swap1\n      pop\n      jump\t// out\n        /* \"#utility.yul\":23095:23514   */\n    tag_117:\n        /* \"#utility.yul\":23261:23265   */\n      0x00\n        /* \"#utility.yul\":23299:23301   */\n      0x20\n        /* \"#utility.yul\":23288:23297   */\n      dup3\n        /* \"#utility.yul\":23284:23302   */\n      add\n        /* \"#utility.yul\":23276:23302   */\n      swap1\n      pop\n        /* \"#utility.yul\":23348:23357   */\n      dup2\n        /* \"#utility.yul\":23342:23346   */\n      dup2\n        /* \"#utility.yul\":23338:23358   */\n      sub\n        /* \"#utility.yul\":23334:23335   */\n      0x00\n        /* \"#utility.yul\":23323:23332   */\n      dup4\n        /* \"#utility.yul\":23319:23336   */\n      add\n        /* \"#utility.yul\":23312:23359   */\n      mstore\n        /* \"#utility.yul\":23376:23507   */\n      tag_384\n        /* \"#utility.yul\":23502:23506   */\n      dup2\n        /* \"#utility.yul\":23376:23507   */\n      tag_188\n      jump\t// in\n    tag_384:\n        /* \"#utility.yul\":23368:23507   */\n      swap1\n      pop\n        /* \"#utility.yul\":23095:23514   */\n      swap2\n      swap1\n      pop\n      jump\t// out\n        /* \"#utility.yul\":23520:23962   */\n    tag_122:\n        /* \"#utility.yul\":23669:23673   */\n      0x00\n        /* \"#utility.yul\":23707:23709   */\n      0x60\n        /* \"#utility.yul\":23696:23705   */\n      dup3\n        /* \"#utility.yul\":23692:23710   */\n      add\n        /* \"#utility.yul\":23684:23710   */\n      swap1\n      pop\n        /* \"#utility.yul\":23720:23791   */\n      tag_386\n        /* \"#utility.yul\":23788:23789   */\n      0x00\n        /* \"#utility.yul\":23777:23786   */\n      dup4\n        /* \"#utility.yul\":23773:23790   */\n      add\n        /* \"#utility.yul\":23764:23770   */\n      dup7\n        /* \"#utility.yul\":23720:23791   */\n      tag_181\n      jump\t// in\n    tag_386:\n        /* \"#utility.yul\":23801:23873   */\n      tag_387\n        /* \"#utility.yul\":23869:23871   */\n      0x20\n        /* \"#utility.yul\":23858:23867   */\n      dup4\n        /* \"#utility.yul\":23854:23872   */\n      add\n        /* \"#utility.yul\":23845:23851   */\n      dup6\n        /* \"#utility.yul\":23801:23873   */\n      tag_181\n      jump\t// in\n    tag_387:\n        /* \"#utility.yul\":23883:23955   */\n      tag_388\n        /* \"#utility.yul\":23951:23953   */\n      0x40\n        /* \"#utility.yul\":23940:23949   */\n      dup4\n        /* \"#utility.yul\":23936:23954   */\n      add\n        /* \"#utility.yul\":23927:23933   */\n      dup5\n        /* \"#utility.yul\":23883:23955   */\n      tag_181\n      jump\t// in\n    tag_388:\n        /* \"#utility.yul\":23520:23962   */\n      swap5\n      swap4\n      pop\n      pop\n      pop\n      pop\n      jump\t// out\n\n    auxdata: 0xa26469706673582212209b11d268658855fc7443afb0f2e79775501b47c314ecb99bb349714411daed9c64736f6c634300081e0033\n}\n",
				"bytecode": {
					"linkReferences": {},
					"object": "60a0604052348015600e575f5ffd5b503373ffffffffffffffffffffffffffffffffffffffff1660808173ffffffffffffffffffffffffffffffffffffffff168152505060805161172f61005b5f395f61036b015261172f5ff3fe60806040526004361061004d575f3560e01c80635d12928b146100915780639f5f05201461009b578063a58b8c3e146100c5578063f14210a6146100ed578063f6326fb3146101155761008d565b3661008d576040517f08c379a000000000000000000000000000000000000000000000000000000000815260040161008490610c3a565b60405180910390fd5b5f5ffd5b61009961011f565b005b3480156100a6575f5ffd5b506100af610309565b6040516100bc9190610c8a565b60405180910390f35b3480156100d0575f5ffd5b506100eb60048036038101906100e69190610dbb565b610369565b005b3480156100f8575f5ffd5b50610113600480360381019061010e9190610e76565b6106da565b005b61011d6108c4565b005b60015f3373ffffffffffffffffffffffffffffffffffffffff1673ffffffffffffffffffffffffffffffffffffffff1681526020019081526020015f205f9054906101000a900460ff16156101a9576040517f08c379a00000000000000000000000000000000000000000000000000000000081526004016101a090610eeb565b60405180910390fd5b6509184e72a00034146101f1576040517f08c379a00000000000000000000000000000000000000000000000000000000081526004016101e890610f53565b60405180910390fd5b6001805f3373ffffffffffffffffffffffffffffffffffffffff1673ffffffffffffffffffffffffffffffffffffffff1681526020019081526020015f205f6101000a81548160ff0219169083151502179055505f5f5f3373ffffffffffffffffffffffffffffffffffffffff1673ffffffffffffffffffffffffffffffffffffffff1681526020019081526020015f209050805f015f9054906101000a900460ff16610306576102a76509184e72a000610a77565b6001815f015f6101000a81548160ff0219169083151502179055503373ffffffffffffffffffffffffffffffffffffffff167f2e49a5810fda2439a23771848b4acec786b0a64d4de3d124ac57fc8739c3887560405160405180910390a25b50565b610311610bce565b5f5f5f3373ffffffffffffffffffffffffffffffffffffffff1673ffffffffffffffffffffffffffffffffffffffff1681526020019081526020015f2090506040518060200160405280826001015481525091505090565b7f000000000000000000000000000000000000000000000000000000000000000073ffffffffffffffffffffffffffffffffffffffff163373ffffffffffffffffffffffffffffffffffffffff16146103f7576040517f08c379a00000000000000000000000000000000000000000000000000000000081526004016103ee90610fe1565b60405180910390fd5b5f5f5f8773ffffffffffffffffffffffffffffffffffffffff1673ffffffffffffffffffffffffffffffffffffffff1681526020019081526020015f209050805f015f9054906101000a900460ff16610485576040517f08c379a000000000000000000000000000000000000000000000000000000000815260040161047c90611049565b60405180910390fd5b8282905085859050146104cd576040517f08c379a00000000000000000000000000000000000000000000000000000000081526004016104c4906110d7565b60405180910390fd5b5f5f90505f5f90505b84849050811015610515578484828181106104f4576104f36110f5565b5b9050602002013582610506919061114f565b915080806001019150506104d6565b508082600101541461055c576040517f08c379a0000000000000000000000000000000000000000000000000000000008152600401610553906111cc565b60405180910390fd5b80826001015f82825461056f91906111ea565b925050819055505f5f90505b8686905081101561067c575f87878381811061059a576105996110f5565b5b90506020020160208101906105af919061121d565b73ffffffffffffffffffffffffffffffffffffffff168686848181106105d8576105d76110f5565b5b905060200201356040516105eb90611275565b5f6040518083038185875af1925050503d805f8114610625576040519150601f19603f3d011682016040523d82523d5f602084013e61062a565b606091505b505090508061066e576040517f08c379a0000000000000000000000000000000000000000000000000000000008152600401610665906112d3565b60405180910390fd5b50808060010191505061057b565b508673ffffffffffffffffffffffffffffffffffffffff167fce42f76f0cf784c9e92d84110f5600137af202cb073bf235196d5c7e6ce9c15e878787876040516106c99493929190611425565b60405180910390a250505050505050565b5f5f5f3373ffffffffffffffffffffffffffffffffffffffff1673ffffffffffffffffffffffffffffffffffffffff1681526020019081526020015f209050805f015f9054906101000a900460ff16610768576040517f08c379a000000000000000000000000000000000000000000000000000000000815260040161075f90611049565b60405180910390fd5b81816001015410156107af576040517f08c379a00000000000000000000000000000000000000000000000000000000081526004016107a6906114a8565b60405180910390fd5b81816001015f8282546107c291906111ea565b925050819055505f3373ffffffffffffffffffffffffffffffffffffffff16836040516107ee90611275565b5f6040518083038185875af1925050503d805f8114610828576040519150601f19603f3d011682016040523d82523d5f602084013e61082d565b606091505b5050905080610871576040517f08c379a0000000000000000000000000000000000000000000000000000000008152600401610868906112d3565b60405180910390fd5b3373ffffffffffffffffffffffffffffffffffffffff167f884edad9ce6fa2440d8a54cc123490eb96d2768479d49ff9c7366125a9424364846040516108b791906114d5565b60405180910390a2505050565b60015f3373ffffffffffffffffffffffffffffffffffffffff1673ffffffffffffffffffffffffffffffffffffffff1681526020019081526020015f205f9054906101000a900460ff1661094d576040517f08c379a000000000000000000000000000000000000000000000000000000000815260040161094490611538565b60405180910390fd5b5f341161098f576040517f08c379a0000000000000000000000000000000000000000000000000000000008152600401610986906115a0565b60405180910390fd5b61099833610aba565b5f61271061ffff16603261ffff16346109b191906115be565b6109bb919061162c565b90505f81346109ca91906111ea565b90505f8111610a0e576040517f08c379a0000000000000000000000000000000000000000000000000000000008152600401610a05906116a6565b60405180910390fd5b610a1782610a77565b610a213382610b70565b3373ffffffffffffffffffffffffffffffffffffffff167f36af321ec8d3c75236829c5317affd40ddb308863a1236d2d277a4025cccee1e348484604051610a6b939291906116c4565b60405180910390a25050565b5f810315610ab7578060026001015f828254610a93919061114f565b92505081905550600160025f015f6101000a81548160ff0219169083151502179055505b50565b5f5f5f8373ffffffffffffffffffffffffffffffffffffffff1673ffffffffffffffffffffffffffffffffffffffff1681526020019081526020015f209050805f015f9054906101000a900460ff16610b6c576001815f015f6101000a81548160ff0219169083151502179055508173ffffffffffffffffffffffffffffffffffffffff167f2e49a5810fda2439a23771848b4acec786b0a64d4de3d124ac57fc8739c3887560405160405180910390a25b5050565b5f5f5f8473ffffffffffffffffffffffffffffffffffffffff1673ffffffffffffffffffffffffffffffffffffffff1681526020019081526020015f20905081816001015f828254610bc2919061114f565b92505081905550505050565b60405180602001604052805f81525090565b5f82825260208201905092915050565b7f446f6e277420646f2069742100000000000000000000000000000000000000005f82015250565b5f610c24600c83610be0565b9150610c2f82610bf0565b602082019050919050565b5f6020820190508181035f830152610c5181610c18565b9050919050565b5f819050919050565b610c6a81610c58565b82525050565b602082015f820151610c845f850182610c61565b50505050565b5f602082019050610c9d5f830184610c70565b92915050565b5f5ffd5b5f5ffd5b5f73ffffffffffffffffffffffffffffffffffffffff82169050919050565b5f610cd482610cab565b9050919050565b610ce481610cca565b8114610cee575f5ffd5b50565b5f81359050610cff81610cdb565b92915050565b5f5ffd5b5f5ffd5b5f5ffd5b5f5f83601f840112610d2657610d25610d05565b5b8235905067ffffffffffffffff811115610d4357610d42610d09565b5b602083019150836020820283011115610d5f57610d5e610d0d565b5b9250929050565b5f5f83601f840112610d7b57610d7a610d05565b5b8235905067ffffffffffffffff811115610d9857610d97610d09565b5b602083019150836020820283011115610db457610db3610d0d565b5b9250929050565b5f5f5f5f5f60608688031215610dd457610dd3610ca3565b5b5f610de188828901610cf1565b955050602086013567ffffffffffffffff811115610e0257610e01610ca7565b5b610e0e88828901610d11565b9450945050604086013567ffffffffffffffff811115610e3157610e30610ca7565b5b610e3d88828901610d66565b92509250509295509295909350565b610e5581610c58565b8114610e5f575f5ffd5b50565b5f81359050610e7081610e4c565b92915050565b5f60208284031215610e8b57610e8a610ca3565b5b5f610e9884828501610e62565b91505092915050565b7f5661756c7420616c7265616479206372656174656400000000000000000000005f82015250565b5f610ed5601583610be0565b9150610ee082610ea1565b602082019050919050565b5f6020820190508181035f830152610f0281610ec9565b9050919050565b7f457861637420302e3120455448207265717569726564000000000000000000005f82015250565b5f610f3d601683610be0565b9150610f4882610f09565b602082019050919050565b5f6020820190508181035f830152610f6a81610f31565b9050919050565b7f4f6e6c79206465706c6f7965722063616e2063616c6c20746869732066756e635f8201527f74696f6e00000000000000000000000000000000000000000000000000000000602082015250565b5f610fcb602483610be0565b9150610fd682610f71565b604082019050919050565b5f6020820190508181035f830152610ff881610fbf565b9050919050565b7f5661756c7420646f6573206e6f742065786973740000000000000000000000005f82015250565b5f611033601483610be0565b915061103e82610fff565b602082019050919050565b5f6020820190508181035f83015261106081611027565b9050919050565b7f526563697069656e747320616e6420616d6f756e7473206c656e677468206d695f8201527f736d617463680000000000000000000000000000000000000000000000000000602082015250565b5f6110c1602683610be0565b91506110cc82611067565b604082019050919050565b5f6020820190508181035f8301526110ee816110b5565b9050919050565b7f4e487b71000000000000000000000000000000000000000000000000000000005f52603260045260245ffd5b7f4e487b71000000000000000000000000000000000000000000000000000000005f52601160045260245ffd5b5f61115982610c58565b915061116483610c58565b925082820190508082111561117c5761117b611122565b5b92915050565b7f496e73756666696369656e742045544820696e207661756c74000000000000005f82015250565b5f6111b6601983610be0565b91506111c182611182565b602082019050919050565b5f6020820190508181035f8301526111e3816111aa565b9050919050565b5f6111f482610c58565b91506111ff83610c58565b925082820390508181111561121757611216611122565b5b92915050565b5f6020828403121561123257611231610ca3565b5b5f61123f84828501610cf1565b91505092915050565b5f81905092915050565b50565b5f6112605f83611248565b915061126b82611252565b5f82019050919050565b5f61127f82611255565b9150819050919050565b7f455448207472616e73666572206661696c6564000000000000000000000000005f82015250565b5f6112bd601383610be0565b91506112c882611289565b602082019050919050565b5f6020820190508181035f8301526112ea816112b1565b9050919050565b5f82825260208201905092915050565b5f819050919050565b61131381610cca565b82525050565b5f611324838361130a565b60208301905092915050565b5f61133e6020840184610cf1565b905092915050565b5f602082019050919050565b5f61135d83856112f1565b935061136882611301565b805f5b858110156113a05761137d8284611330565b6113878882611319565b975061139283611346565b92505060018101905061136b565b5085925050509392505050565b5f82825260208201905092915050565b5f5ffd5b82818337505050565b5f6113d583856113ad565b93507f07ffffffffffffffffffffffffffffffffffffffffffffffffffffffffffffff831115611408576114076113bd565b5b6020830292506114198385846113c1565b82840190509392505050565b5f6040820190508181035f83015261143e818688611352565b905081810360208301526114538184866113ca565b905095945050505050565b7f496e73756666696369656e7420455448000000000000000000000000000000005f82015250565b5f611492601083610be0565b915061149d8261145e565b602082019050919050565b5f6020820190508181035f8301526114bf81611486565b9050919050565b6114cf81610c58565b82525050565b5f6020820190506114e85f8301846114c6565b92915050565b7f437265617465207661756c7420666972737400000000000000000000000000005f82015250565b5f611522601283610be0565b915061152d826114ee565b602082019050919050565b5f6020820190508181035f83015261154f81611516565b9050919050565b7f4e6f204554482073656e740000000000000000000000000000000000000000005f82015250565b5f61158a600b83610be0565b915061159582611556565b602082019050919050565b5f6020820190508181035f8301526115b78161157e565b9050919050565b5f6115c882610c58565b91506115d383610c58565b92508282026115e181610c58565b915082820484148315176115f8576115f7611122565b5b5092915050565b7f4e487b71000000000000000000000000000000000000000000000000000000005f52601260045260245ffd5b5f61163682610c58565b915061164183610c58565b925082611651576116506115ff565b5b828204905092915050565b7f4e6574206973207a65726f0000000000000000000000000000000000000000005f82015250565b5f611690600b83610be0565b915061169b8261165c565b602082019050919050565b5f6020820190508181035f8301526116bd81611684565b9050919050565b5f6060820190506116d75f8301866114c6565b6116e460208301856114c6565b6116f160408301846114c6565b94935050505056fea26469706673582212209b11d268658855fc7443afb0f2e79775501b47c314ecb99bb349714411daed9c64736f6c634300081e0033",
					"opcodes": "PUSH1 0xA0 PUSH1 0x40 MSTORE CALLVALUE DUP1 ISZERO PUSH1 0xE JUMPI PUSH0 PUSH0 REVERT JUMPDEST POP CALLER PUSH20 0xFFFFFFFFFFFFFFFFFFFFFFFFFFFFFFFFFFFFFFFF AND PUSH1 0x80 DUP2 PUSH20 0xFFFFFFFFFFFFFFFFFFFFFFFFFFFFFFFFFFFFFFFF AND DUP2 MSTORE POP POP PUSH1 0x80 MLOAD PUSH2 0x172F PUSH2 0x5B PUSH0 CODECOPY PUSH0 PUSH2 0x36B ADD MSTORE PUSH2 0x172F PUSH0 RETURN INVALID PUSH1 0x80 PUSH1 0x40 MSTORE PUSH1 0x4 CALLDATASIZE LT PUSH2 0x4D JUMPI PUSH0 CALLDATALOAD PUSH1 0xE0 SHR DUP1 PUSH4 0x5D12928B EQ PUSH2 0x91 JUMPI DUP1 PUSH4 0x9F5F0520 EQ PUSH2 0x9B JUMPI DUP1 PUSH4 0xA58B8C3E EQ PUSH2 0xC5 JUMPI DUP1 PUSH4 0xF14210A6 EQ PUSH2 0xED JUMPI DUP1 PUSH4 0xF6326FB3 EQ PUSH2 0x115 JUMPI PUSH2 0x8D JUMP JUMPDEST CALLDATASIZE PUSH2 0x8D JUMPI PUSH1 0x40 MLOAD PUSH32 0x8C379A000000000000000000000000000000000000000000000000000000000 DUP2 MSTORE PUSH1 0x4 ADD PUSH2 0x84 SWAP1 PUSH2 0xC3A JUMP JUMPDEST PUSH1 0x40 MLOAD DUP1 SWAP2 SUB SWAP1 REVERT JUMPDEST PUSH0 PUSH0 REVERT JUMPDEST PUSH2 0x99 PUSH2 0x11F JUMP JUMPDEST STOP JUMPDEST CALLVALUE DUP1 ISZERO PUSH2 0xA6 JUMPI PUSH0 PUSH0 REVERT JUMPDEST POP PUSH2 0xAF PUSH2 0x309 JUMP JUMPDEST PUSH1 0x40 MLOAD PUSH2 0xBC SWAP2 SWAP1 PUSH2 0xC8A JUMP JUMPDEST PUSH1 0x40 MLOAD DUP1 SWAP2 SUB SWAP1 RETURN JUMPDEST CALLVALUE DUP1 ISZERO PUSH2 0xD0 JUMPI PUSH0 PUSH0 REVERT JUMPDEST POP PUSH2 0xEB PUSH1 0x4 DUP1 CALLDATASIZE SUB DUP2 ADD SWAP1 PUSH2 0xE6 SWAP2 SWAP1 PUSH2 0xDBB JUMP JUMPDEST PUSH2 0x369 JUMP JUMPDEST STOP JUMPDEST CALLVALUE DUP1 ISZERO PUSH2 0xF8 JUMPI PUSH0 PUSH0 REVERT JUMPDEST POP PUSH2 0x113 PUSH1 0x4 DUP1 CALLDATASIZE SUB DUP2 ADD SWAP1 PUSH2 0x10E SWAP2 SWAP1 PUSH2 0xE76 JUMP JUMPDEST PUSH2 0x6DA JUMP JUMPDEST STOP JUMPDEST PUSH2 0x11D PUSH2 0x8C4 JUMP JUMPDEST STOP JUMPDEST PUSH1 0x1 PUSH0 CALLER PUSH20 0xFFFFFFFFFFFFFFFFFFFFFFFFFFFFFFFFFFFFFFFF AND PUSH20 0xFFFFFFFFFFFFFFFFFFFFFFFFFFFFFFFFFFFFFFFF AND DUP2 MSTORE PUSH1 0x20 ADD SWAP1 DUP2 MSTORE PUSH1 0x20 ADD PUSH0 KECCAK256 PUSH0 SWAP1 SLOAD SWAP1 PUSH2 0x100 EXP SWAP1 DIV PUSH1 0xFF AND ISZERO PUSH2 0x1A9 JUMPI PUSH1 0x40 MLOAD PUSH32 0x8C379A000000000000000000000000000000000000000000000000000000000 DUP2 MSTORE PUSH1 0x4 ADD PUSH2 0x1A0 SWAP1 PUSH2 0xEEB JUMP JUMPDEST PUSH1 0x40 MLOAD DUP1 SWAP2 SUB SWAP1 REVERT JUMPDEST PUSH6 0x9184E72A000 CALLVALUE EQ PUSH2 0x1F1 JUMPI PUSH1 0x40 MLOAD PUSH32 0x8C379A000000000000000000000000000000000000000000000000000000000 DUP2 MSTORE PUSH1 0x4 ADD PUSH2 0x1E8 SWAP1 PUSH2 0xF53 JUMP JUMPDEST PUSH1 0x40 MLOAD DUP1 SWAP2 SUB SWAP1 REVERT JUMPDEST PUSH1 0x1 DUP1 PUSH0 CALLER PUSH20 0xFFFFFFFFFFFFFFFFFFFFFFFFFFFFFFFFFFFFFFFF AND PUSH20 0xFFFFFFFFFFFFFFFFFFFFFFFFFFFFFFFFFFFFFFFF AND DUP2 MSTORE PUSH1 0x20 ADD SWAP1 DUP2 MSTORE PUSH1 0x20 ADD PUSH0 KECCAK256 PUSH0 PUSH2 0x100 EXP DUP2 SLOAD DUP2 PUSH1 0xFF MUL NOT AND SWAP1 DUP4 ISZERO ISZERO MUL OR SWAP1 SSTORE POP PUSH0 PUSH0 PUSH0 CALLER PUSH20 0xFFFFFFFFFFFFFFFFFFFFFFFFFFFFFFFFFFFFFFFF AND PUSH20 0xFFFFFFFFFFFFFFFFFFFFFFFFFFFFFFFFFFFFFFFF AND DUP2 MSTORE PUSH1 0x20 ADD SWAP1 DUP2 MSTORE PUSH1 0x20 ADD PUSH0 KECCAK256 SWAP1 POP DUP1 PUSH0 ADD PUSH0 SWAP1 SLOAD SWAP1 PUSH2 0x100 EXP SWAP1 DIV PUSH1 0xFF AND PUSH2 0x306 JUMPI PUSH2 0x2A7 PUSH6 0x9184E72A000 PUSH2 0xA77 JUMP JUMPDEST PUSH1 0x1 DUP2 PUSH0 ADD PUSH0 PUSH2 0x100 EXP DUP2 SLOAD DUP2 PUSH1 0xFF MUL NOT AND SWAP1 DUP4 ISZERO ISZERO MUL OR SWAP1 SSTORE POP CALLER PUSH20 0xFFFFFFFFFFFFFFFFFFFFFFFFFFFFFFFFFFFFFFFF AND PUSH32 0x2E49A5810FDA2439A23771848B4ACEC786B0A64D4DE3D124AC57FC8739C38875 PUSH1 0x40 MLOAD PUSH1 0x40 MLOAD DUP1 SWAP2 SUB SWAP1 LOG2 JUMPDEST POP JUMP JUMPDEST PUSH2 0x311 PUSH2 0xBCE JUMP JUMPDEST PUSH0 PUSH0 PUSH0 CALLER PUSH20 0xFFFFFFFFFFFFFFFFFFFFFFFFFFFFFFFFFFFFFFFF AND PUSH20 0xFFFFFFFFFFFFFFFFFFFFFFFFFFFFFFFFFFFFFFFF AND DUP2 MSTORE PUSH1 0x20 ADD SWAP1 DUP2 MSTORE PUSH1 0x20 ADD PUSH0 KECCAK256 SWAP1 POP PUSH1 0x40 MLOAD DUP1 PUSH1 0x20 ADD PUSH1 0x40 MSTORE DUP1 DUP3 PUSH1 0x1 ADD SLOAD DUP2 MSTORE POP SWAP2 POP POP SWAP1 JUMP JUMPDEST PUSH32 0x0 PUSH20 0xFFFFFFFFFFFFFFFFFFFFFFFFFFFFFFFFFFFFFFFF AND CALLER PUSH20 0xFFFFFFFFFFFFFFFFFFFFFFFFFFFFFFFFFFFFFFFF AND EQ PUSH2 0x3F7 JUMPI PUSH1 0x40 MLOAD PUSH32 0x8C379A000000000000000000000000000000000000000000000000000000000 DUP2 MSTORE PUSH1 0x4 ADD PUSH2 0x3EE SWAP1 PUSH2 0xFE1 JUMP JUMPDEST PUSH1 0x40 MLOAD DUP1 SWAP2 SUB SWAP1 REVERT JUMPDEST PUSH0 PUSH0 PUSH0 DUP8 PUSH20 0xFFFFFFFFFFFFFFFFFFFFFFFFFFFFFFFFFFFFFFFF AND PUSH20 0xFFFFFFFFFFFFFFFFFFFFFFFFFFFFFFFFFFFFFFFF AND DUP2 MSTORE PUSH1 0x20 ADD SWAP1 DUP2 MSTORE PUSH1 0x20 ADD PUSH0 KECCAK256 SWAP1 POP DUP1 PUSH0 ADD PUSH0 SWAP1 SLOAD SWAP1 PUSH2 0x100 EXP SWAP1 DIV PUSH1 0xFF AND PUSH2 0x485 JUMPI PUSH1 0x40 MLOAD PUSH32 0x8C379A000000000000000000000000000000000000000000000000000000000 DUP2 MSTORE PUSH1 0x4 ADD PUSH2 0x47C SWAP1 PUSH2 0x1049 JUMP JUMPDEST PUSH1 0x40 MLOAD DUP1 SWAP2 SUB SWAP1 REVERT JUMPDEST DUP3 DUP3 SWAP1 POP DUP6 DUP6 SWAP1 POP EQ PUSH2 0x4CD JUMPI PUSH1 0x40 MLOAD PUSH32 0x8C379A000000000000000000000000000000000000000000000000000000000 DUP2 MSTORE PUSH1 0x4 ADD PUSH2 0x4C4 SWAP1 PUSH2 0x10D7 JUMP JUMPDEST PUSH1 0x40 MLOAD DUP1 SWAP2 SUB SWAP1 REVERT JUMPDEST PUSH0 PUSH0 SWAP1 POP PUSH0 PUSH0 SWAP1 POP JUMPDEST DUP5 DUP5 SWAP1 POP DUP2 LT ISZERO PUSH2 0x515 JUMPI DUP5 DUP5 DUP3 DUP2 DUP2 LT PUSH2 0x4F4 JUMPI PUSH2 0x4F3 PUSH2 0x10F5 JUMP JUMPDEST JUMPDEST SWAP1 POP PUSH1 0x20 MUL ADD CALLDATALOAD DUP3 PUSH2 0x506 SWAP2 SWAP1 PUSH2 0x114F JUMP JUMPDEST SWAP2 POP DUP1 DUP1 PUSH1 0x1 ADD SWAP2 POP POP PUSH2 0x4D6 JUMP JUMPDEST POP DUP1 DUP3 PUSH1 0x1 ADD SLOAD EQ PUSH2 0x55C JUMPI PUSH1 0x40 MLOAD PUSH32 0x8C379A000000000000000000000000000000000000000000000000000000000 DUP2 MSTORE PUSH1 0x4 ADD PUSH2 0x553 SWAP1 PUSH2 0x11CC JUMP JUMPDEST PUSH1 0x40 MLOAD DUP1 SWAP2 SUB SWAP1 REVERT JUMPDEST DUP1 DUP3 PUSH1 0x1 ADD PUSH0 DUP3 DUP3 SLOAD PUSH2 0x56F SWAP2 SWAP1 PUSH2 0x11EA JUMP JUMPDEST SWAP3 POP POP DUP2 SWAP1 SSTORE POP PUSH0 PUSH0 SWAP1 POP JUMPDEST DUP7 DUP7 SWAP1 POP DUP2 LT ISZERO PUSH2 0x67C JUMPI PUSH0 DUP8 DUP8 DUP4 DUP2 DUP2 LT PUSH2 0x59A JUMPI PUSH2 0x599 PUSH2 0x10F5 JUMP JUMPDEST JUMPDEST SWAP1 POP PUSH1 0x20 MUL ADD PUSH1 0x20 DUP2 ADD SWAP1 PUSH2 0x5AF SWAP2 SWAP1 PUSH2 0x121D JUMP JUMPDEST PUSH20 0xFFFFFFFFFFFFFFFFFFFFFFFFFFFFFFFFFFFFFFFF AND DUP7 DUP7 DUP5 DUP2 DUP2 LT PUSH2 0x5D8 JUMPI PUSH2 0x5D7 PUSH2 0x10F5 JUMP JUMPDEST JUMPDEST SWAP1 POP PUSH1 0x20 MUL ADD CALLDATALOAD PUSH1 0x40 MLOAD PUSH2 0x5EB SWAP1 PUSH2 0x1275 JUMP JUMPDEST PUSH0 PUSH1 0x40 MLOAD DUP1 DUP4 SUB DUP2 DUP6 DUP8 GAS CALL SWAP3 POP POP POP RETURNDATASIZE DUP1 PUSH0 DUP2 EQ PUSH2 0x625 JUMPI PUSH1 0x40 MLOAD SWAP2 POP PUSH1 0x1F NOT PUSH1 0x3F RETURNDATASIZE ADD AND DUP3 ADD PUSH1 0x40 MSTORE RETURNDATASIZE DUP3 MSTORE RETURNDATASIZE PUSH0 PUSH1 0x20 DUP5 ADD RETURNDATACOPY PUSH2 0x62A JUMP JUMPDEST PUSH1 0x60 SWAP2 POP JUMPDEST POP POP SWAP1 POP DUP1 PUSH2 0x66E JUMPI PUSH1 0x40 MLOAD PUSH32 0x8C379A000000000000000000000000000000000000000000000000000000000 DUP2 MSTORE PUSH1 0x4 ADD PUSH2 0x665 SWAP1 PUSH2 0x12D3 JUMP JUMPDEST PUSH1 0x40 MLOAD DUP1 SWAP2 SUB SWAP1 REVERT JUMPDEST POP DUP1 DUP1 PUSH1 0x1 ADD SWAP2 POP POP PUSH2 0x57B JUMP JUMPDEST POP DUP7 PUSH20 0xFFFFFFFFFFFFFFFFFFFFFFFFFFFFFFFFFFFFFFFF AND PUSH32 0xCE42F76F0CF784C9E92D84110F5600137AF202CB073BF235196D5C7E6CE9C15E DUP8 DUP8 DUP8 DUP8 PUSH1 0x40 MLOAD PUSH2 0x6C9 SWAP5 SWAP4 SWAP3 SWAP2 SWAP1 PUSH2 0x1425 JUMP JUMPDEST PUSH1 0x40 MLOAD DUP1 SWAP2 SUB SWAP1 LOG2 POP POP POP POP POP POP POP JUMP JUMPDEST PUSH0 PUSH0 PUSH0 CALLER PUSH20 0xFFFFFFFFFFFFFFFFFFFFFFFFFFFFFFFFFFFFFFFF AND PUSH20 0xFFFFFFFFFFFFFFFFFFFFFFFFFFFFFFFFFFFFFFFF AND DUP2 MSTORE PUSH1 0x20 ADD SWAP1 DUP2 MSTORE PUSH1 0x20 ADD PUSH0 KECCAK256 SWAP1 POP DUP1 PUSH0 ADD PUSH0 SWAP1 SLOAD SWAP1 PUSH2 0x100 EXP SWAP1 DIV PUSH1 0xFF AND PUSH2 0x768 JUMPI PUSH1 0x40 MLOAD PUSH32 0x8C379A000000000000000000000000000000000000000000000000000000000 DUP2 MSTORE PUSH1 0x4 ADD PUSH2 0x75F SWAP1 PUSH2 0x1049 JUMP JUMPDEST PUSH1 0x40 MLOAD DUP1 SWAP2 SUB SWAP1 REVERT JUMPDEST DUP2 DUP2 PUSH1 0x1 ADD SLOAD LT ISZERO PUSH2 0x7AF JUMPI PUSH1 0x40 MLOAD PUSH32 0x8C379A000000000000000000000000000000000000000000000000000000000 DUP2 MSTORE PUSH1 0x4 ADD PUSH2 0x7A6 SWAP1 PUSH2 0x14A8 JUMP JUMPDEST PUSH1 0x40 MLOAD DUP1 SWAP2 SUB SWAP1 REVERT JUMPDEST DUP2 DUP2 PUSH1 0x1 ADD PUSH0 DUP3 DUP3 SLOAD PUSH2 0x7C2 SWAP2 SWAP1 PUSH2 0x11EA JUMP JUMPDEST SWAP3 POP POP DUP2 SWAP1 SSTORE POP PUSH0 CALLER PUSH20 0xFFFFFFFFFFFFFFFFFFFFFFFFFFFFFFFFFFFFFFFF AND DUP4 PUSH1 0x40 MLOAD PUSH2 0x7EE SWAP1 PUSH2 0x1275 JUMP JUMPDEST PUSH0 PUSH1 0x40 MLOAD DUP1 DUP4 SUB DUP2 DUP6 DUP8 GAS CALL SWAP3 POP POP POP RETURNDATASIZE DUP1 PUSH0 DUP2 EQ PUSH2 0x828 JUMPI PUSH1 0x40 MLOAD SWAP2 POP PUSH1 0x1F NOT PUSH1 0x3F RETURNDATASIZE ADD AND DUP3 ADD PUSH1 0x40 MSTORE RETURNDATASIZE DUP3 MSTORE RETURNDATASIZE PUSH0 PUSH1 0x20 DUP5 ADD RETURNDATACOPY PUSH2 0x82D JUMP JUMPDEST PUSH1 0x60 SWAP2 POP JUMPDEST POP POP SWAP1 POP DUP1 PUSH2 0x871 JUMPI PUSH1 0x40 MLOAD PUSH32 0x8C379A000000000000000000000000000000000000000000000000000000000 DUP2 MSTORE PUSH1 0x4 ADD PUSH2 0x868 SWAP1 PUSH2 0x12D3 JUMP JUMPDEST PUSH1 0x40 MLOAD DUP1 SWAP2 SUB SWAP1 REVERT JUMPDEST CALLER PUSH20 0xFFFFFFFFFFFFFFFFFFFFFFFFFFFFFFFFFFFFFFFF AND PUSH32 0x884EDAD9CE6FA2440D8A54CC123490EB96D2768479D49FF9C7366125A9424364 DUP5 PUSH1 0x40 MLOAD PUSH2 0x8B7 SWAP2 SWAP1 PUSH2 0x14D5 JUMP JUMPDEST PUSH1 0x40 MLOAD DUP1 SWAP2 SUB SWAP1 LOG2 POP POP POP JUMP JUMPDEST PUSH1 0x1 PUSH0 CALLER PUSH20 0xFFFFFFFFFFFFFFFFFFFFFFFFFFFFFFFFFFFFFFFF AND PUSH20 0xFFFFFFFFFFFFFFFFFFFFFFFFFFFFFFFFFFFFFFFF AND DUP2 MSTORE PUSH1 0x20 ADD SWAP1 DUP2 MSTORE PUSH1 0x20 ADD PUSH0 KECCAK256 PUSH0 SWAP1 SLOAD SWAP1 PUSH2 0x100 EXP SWAP1 DIV PUSH1 0xFF AND PUSH2 0x94D JUMPI PUSH1 0x40 MLOAD PUSH32 0x8C379A000000000000000000000000000000000000000000000000000000000 DUP2 MSTORE PUSH1 0x4 ADD PUSH2 0x944 SWAP1 PUSH2 0x1538 JUMP JUMPDEST PUSH1 0x40 MLOAD DUP1 SWAP2 SUB SWAP1 REVERT JUMPDEST PUSH0 CALLVALUE GT PUSH2 0x98F JUMPI PUSH1 0x40 MLOAD PUSH32 0x8C379A000000000000000000000000000000000000000000000000000000000 DUP2 MSTORE PUSH1 0x4 ADD PUSH2 0x986 SWAP1 PUSH2 0x15A0 JUMP JUMPDEST PUSH1 0x40 MLOAD DUP1 SWAP2 SUB SWAP1 REVERT JUMPDEST PUSH2 0x998 CALLER PUSH2 0xABA JUMP JUMPDEST PUSH0 PUSH2 0x2710 PUSH2 0xFFFF AND PUSH1 0x32 PUSH2 0xFFFF AND CALLVALUE PUSH2 0x9B1 SWAP2 SWAP1 PUSH2 0x15BE JUMP JUMPDEST PUSH2 0x9BB SWAP2 SWAP1 PUSH2 0x162C JUMP JUMPDEST SWAP1 POP PUSH0 DUP2 CALLVALUE PUSH2 0x9CA SWAP2 SWAP1 PUSH2 0x11EA JUMP JUMPDEST SWAP1 POP PUSH0 DUP2 GT PUSH2 0xA0E JUMPI PUSH1 0x40 MLOAD PUSH32 0x8C379A000000000000000000000000000000000000000000000000000000000 DUP2 MSTORE PUSH1 0x4 ADD PUSH2 0xA05 SWAP1 PUSH2 0x16A6 JUMP JUMPDEST PUSH1 0x40 MLOAD DUP1 SWAP2 SUB SWAP1 REVERT JUMPDEST PUSH2 0xA17 DUP3 PUSH2 0xA77 JUMP JUMPDEST PUSH2 0xA21 CALLER DUP3 PUSH2 0xB70 JUMP JUMPDEST CALLER PUSH20 0xFFFFFFFFFFFFFFFFFFFFFFFFFFFFFFFFFFFFFFFF AND PUSH32 0x36AF321EC8D3C75236829C5317AFFD40DDB308863A1236D2D277A4025CCCEE1E CALLVALUE DUP5 DUP5 PUSH1 0x40 MLOAD PUSH2 0xA6B SWAP4 SWAP3 SWAP2 SWAP1 PUSH2 0x16C4 JUMP JUMPDEST PUSH1 0x40 MLOAD DUP1 SWAP2 SUB SWAP1 LOG2 POP POP JUMP JUMPDEST PUSH0 DUP2 SUB ISZERO PUSH2 0xAB7 JUMPI DUP1 PUSH1 0x2 PUSH1 0x1 ADD PUSH0 DUP3 DUP3 SLOAD PUSH2 0xA93 SWAP2 SWAP1 PUSH2 0x114F JUMP JUMPDEST SWAP3 POP POP DUP2 SWAP1 SSTORE POP PUSH1 0x1 PUSH1 0x2 PUSH0 ADD PUSH0 PUSH2 0x100 EXP DUP2 SLOAD DUP2 PUSH1 0xFF MUL NOT AND SWAP1 DUP4 ISZERO ISZERO MUL OR SWAP1 SSTORE POP JUMPDEST POP JUMP JUMPDEST PUSH0 PUSH0 PUSH0 DUP4 PUSH20 0xFFFFFFFFFFFFFFFFFFFFFFFFFFFFFFFFFFFFFFFF AND PUSH20 0xFFFFFFFFFFFFFFFFFFFFFFFFFFFFFFFFFFFFFFFF AND DUP2 MSTORE PUSH1 0x20 ADD SWAP1 DUP2 MSTORE PUSH1 0x20 ADD PUSH0 KECCAK256 SWAP1 POP DUP1 PUSH0 ADD PUSH0 SWAP1 SLOAD SWAP1 PUSH2 0x100 EXP SWAP1 DIV PUSH1 0xFF AND PUSH2 0xB6C JUMPI PUSH1 0x1 DUP2 PUSH0 ADD PUSH0 PUSH2 0x100 EXP DUP2 SLOAD DUP2 PUSH1 0xFF MUL NOT AND SWAP1 DUP4 ISZERO ISZERO MUL OR SWAP1 SSTORE POP DUP2 PUSH20 0xFFFFFFFFFFFFFFFFFFFFFFFFFFFFFFFFFFFFFFFF AND PUSH32 0x2E49A5810FDA2439A23771848B4ACEC786B0A64D4DE3D124AC57FC8739C38875 PUSH1 0x40 MLOAD PUSH1 0x40 MLOAD DUP1 SWAP2 SUB SWAP1 LOG2 JUMPDEST POP POP JUMP JUMPDEST PUSH0 PUSH0 PUSH0 DUP5 PUSH20 0xFFFFFFFFFFFFFFFFFFFFFFFFFFFFFFFFFFFFFFFF AND PUSH20 0xFFFFFFFFFFFFFFFFFFFFFFFFFFFFFFFFFFFFFFFF AND DUP2 MSTORE PUSH1 0x20 ADD SWAP1 DUP2 MSTORE PUSH1 0x20 ADD PUSH0 KECCAK256 SWAP1 POP DUP2 DUP2 PUSH1 0x1 ADD PUSH0 DUP3 DUP3 SLOAD PUSH2 0xBC2 SWAP2 SWAP1 PUSH2 0x114F JUMP JUMPDEST SWAP3 POP POP DUP2 SWAP1 SSTORE POP POP POP POP JUMP JUMPDEST PUSH1 0x40 MLOAD DUP1 PUSH1 0x20 ADD PUSH1 0x40 MSTORE DUP1 PUSH0 DUP2 MSTORE POP SWAP1 JUMP JUMPDEST PUSH0 DUP3 DUP3 MSTORE PUSH1 0x20 DUP3 ADD SWAP1 POP SWAP3 SWAP2 POP POP JUMP JUMPDEST PUSH32 0x446F6E277420646F206974210000000000000000000000000000000000000000 PUSH0 DUP3 ADD MSTORE POP JUMP JUMPDEST PUSH0 PUSH2 0xC24 PUSH1 0xC DUP4 PUSH2 0xBE0 JUMP JUMPDEST SWAP2 POP PUSH2 0xC2F DUP3 PUSH2 0xBF0 JUMP JUMPDEST PUSH1 0x20 DUP3 ADD SWAP1 POP SWAP2 SWAP1 POP JUMP JUMPDEST PUSH0 PUSH1 0x20 DUP3 ADD SWAP1 POP DUP2 DUP2 SUB PUSH0 DUP4 ADD MSTORE PUSH2 0xC51 DUP2 PUSH2 0xC18 JUMP JUMPDEST SWAP1 POP SWAP2 SWAP1 POP JUMP JUMPDEST PUSH0 DUP2 SWAP1 POP SWAP2 SWAP1 POP JUMP JUMPDEST PUSH2 0xC6A DUP2 PUSH2 0xC58 JUMP JUMPDEST DUP3 MSTORE POP POP JUMP JUMPDEST PUSH1 0x20 DUP3 ADD PUSH0 DUP3 ADD MLOAD PUSH2 0xC84 PUSH0 DUP6 ADD DUP3 PUSH2 0xC61 JUMP JUMPDEST POP POP POP POP JUMP JUMPDEST PUSH0 PUSH1 0x20 DUP3 ADD SWAP1 POP PUSH2 0xC9D PUSH0 DUP4 ADD DUP5 PUSH2 0xC70 JUMP JUMPDEST SWAP3 SWAP2 POP POP JUMP JUMPDEST PUSH0 PUSH0 REVERT JUMPDEST PUSH0 PUSH0 REVERT JUMPDEST PUSH0 PUSH20 0xFFFFFFFFFFFFFFFFFFFFFFFFFFFFFFFFFFFFFFFF DUP3 AND SWAP1 POP SWAP2 SWAP1 POP JUMP JUMPDEST PUSH0 PUSH2 0xCD4 DUP3 PUSH2 0xCAB JUMP JUMPDEST SWAP1 POP SWAP2 SWAP1 POP JUMP JUMPDEST PUSH2 0xCE4 DUP2 PUSH2 0xCCA JUMP JUMPDEST DUP2 EQ PUSH2 0xCEE JUMPI PUSH0 PUSH0 REVERT JUMPDEST POP JUMP JUMPDEST PUSH0 DUP2 CALLDATALOAD SWAP1 POP PUSH2 0xCFF DUP2 PUSH2 0xCDB JUMP JUMPDEST SWAP3 SWAP2 POP POP JUMP JUMPDEST PUSH0 PUSH0 REVERT JUMPDEST PUSH0 PUSH0 REVERT JUMPDEST PUSH0 PUSH0 REVERT JUMPDEST PUSH0 PUSH0 DUP4 PUSH1 0x1F DUP5 ADD SLT PUSH2 0xD26 JUMPI PUSH2 0xD25 PUSH2 0xD05 JUMP JUMPDEST JUMPDEST DUP3 CALLDATALOAD SWAP1 POP PUSH8 0xFFFFFFFFFFFFFFFF DUP2 GT ISZERO PUSH2 0xD43 JUMPI PUSH2 0xD42 PUSH2 0xD09 JUMP JUMPDEST JUMPDEST PUSH1 0x20 DUP4 ADD SWAP2 POP DUP4 PUSH1 0x20 DUP3 MUL DUP4 ADD GT ISZERO PUSH2 0xD5F JUMPI PUSH2 0xD5E PUSH2 0xD0D JUMP JUMPDEST JUMPDEST SWAP3 POP SWAP3 SWAP1 POP JUMP JUMPDEST PUSH0 PUSH0 DUP4 PUSH1 0x1F DUP5 ADD SLT PUSH2 0xD7B JUMPI PUSH2 0xD7A PUSH2 0xD05 JUMP JUMPDEST JUMPDEST DUP3 CALLDATALOAD SWAP1 POP PUSH8 0xFFFFFFFFFFFFFFFF DUP2 GT ISZERO PUSH2 0xD98 JUMPI PUSH2 0xD97 PUSH2 0xD09 JUMP JUMPDEST JUMPDEST PUSH1 0x20 DUP4 ADD SWAP2 POP DUP4 PUSH1 0x20 DUP3 MUL DUP4 ADD GT ISZERO PUSH2 0xDB4 JUMPI PUSH2 0xDB3 PUSH2 0xD0D JUMP JUMPDEST JUMPDEST SWAP3 POP SWAP3 SWAP1 POP JUMP JUMPDEST PUSH0 PUSH0 PUSH0 PUSH0 PUSH0 PUSH1 0x60 DUP7 DUP9 SUB SLT ISZERO PUSH2 0xDD4 JUMPI PUSH2 0xDD3 PUSH2 0xCA3 JUMP JUMPDEST JUMPDEST PUSH0 PUSH2 0xDE1 DUP9 DUP3 DUP10 ADD PUSH2 0xCF1 JUMP JUMPDEST SWAP6 POP POP PUSH1 0x20 DUP7 ADD CALLDATALOAD PUSH8 0xFFFFFFFFFFFFFFFF DUP2 GT ISZERO PUSH2 0xE02 JUMPI PUSH2 0xE01 PUSH2 0xCA7 JUMP JUMPDEST JUMPDEST PUSH2 0xE0E DUP9 DUP3 DUP10 ADD PUSH2 0xD11 JUMP JUMPDEST SWAP5 POP SWAP5 POP POP PUSH1 0x40 DUP7 ADD CALLDATALOAD PUSH8 0xFFFFFFFFFFFFFFFF DUP2 GT ISZERO PUSH2 0xE31 JUMPI PUSH2 0xE30 PUSH2 0xCA7 JUMP JUMPDEST JUMPDEST PUSH2 0xE3D DUP9 DUP3 DUP10 ADD PUSH2 0xD66 JUMP JUMPDEST SWAP3 POP SWAP3 POP POP SWAP3 SWAP6 POP SWAP3 SWAP6 SWAP1 SWAP4 POP JUMP JUMPDEST PUSH2 0xE55 DUP2 PUSH2 0xC58 JUMP JUMPDEST DUP2 EQ PUSH2 0xE5F JUMPI PUSH0 PUSH0 REVERT JUMPDEST POP JUMP JUMPDEST PUSH0 DUP2 CALLDATALOAD SWAP1 POP PUSH2 0xE70 DUP2 PUSH2 0xE4C JUMP JUMPDEST SWAP3 SWAP2 POP POP JUMP JUMPDEST PUSH0 PUSH1 0x20 DUP3 DUP5 SUB SLT ISZERO PUSH2 0xE8B JUMPI PUSH2 0xE8A PUSH2 0xCA3 JUMP JUMPDEST JUMPDEST PUSH0 PUSH2 0xE98 DUP5 DUP3 DUP6 ADD PUSH2 0xE62 JUMP JUMPDEST SWAP2 POP POP SWAP3 SWAP2 POP POP JUMP JUMPDEST PUSH32 0x5661756C7420616C726561647920637265617465640000000000000000000000 PUSH0 DUP3 ADD MSTORE POP JUMP JUMPDEST PUSH0 PUSH2 0xED5 PUSH1 0x15 DUP4 PUSH2 0xBE0 JUMP JUMPDEST SWAP2 POP PUSH2 0xEE0 DUP3 PUSH2 0xEA1 JUMP JUMPDEST PUSH1 0x20 DUP3 ADD SWAP1 POP SWAP2 SWAP1 POP JUMP JUMPDEST PUSH0 PUSH1 0x20 DUP3 ADD SWAP1 POP DUP2 DUP2 SUB PUSH0 DUP4 ADD MSTORE PUSH2 0xF02 DUP2 PUSH2 0xEC9 JUMP JUMPDEST SWAP1 POP SWAP2 SWAP1 POP JUMP JUMPDEST PUSH32 0x457861637420302E312045544820726571756972656400000000000000000000 PUSH0 DUP3 ADD MSTORE POP JUMP JUMPDEST PUSH0 PUSH2 0xF3D PUSH1 0x16 DUP4 PUSH2 0xBE0 JUMP JUMPDEST SWAP2 POP PUSH2 0xF48 DUP3 PUSH2 0xF09 JUMP JUMPDEST PUSH1 0x20 DUP3 ADD SWAP1 POP SWAP2 SWAP1 POP JUMP JUMPDEST PUSH0 PUSH1 0x20 DUP3 ADD SWAP1 POP DUP2 DUP2 SUB PUSH0 DUP4 ADD MSTORE PUSH2 0xF6A DUP2 PUSH2 0xF31 JUMP JUMPDEST SWAP1 POP SWAP2 SWAP1 POP JUMP JUMPDEST PUSH32 0x4F6E6C79206465706C6F7965722063616E2063616C6C20746869732066756E63 PUSH0 DUP3 ADD MSTORE PUSH32 0x74696F6E00000000000000000000000000000000000000000000000000000000 PUSH1 0x20 DUP3 ADD MSTORE POP JUMP JUMPDEST PUSH0 PUSH2 0xFCB PUSH1 0x24 DUP4 PUSH2 0xBE0 JUMP JUMPDEST SWAP2 POP PUSH2 0xFD6 DUP3 PUSH2 0xF71 JUMP JUMPDEST PUSH1 0x40 DUP3 ADD SWAP1 POP SWAP2 SWAP1 POP JUMP JUMPDEST PUSH0 PUSH1 0x20 DUP3 ADD SWAP1 POP DUP2 DUP2 SUB PUSH0 DUP4 ADD MSTORE PUSH2 0xFF8 DUP2 PUSH2 0xFBF JUMP JUMPDEST SWAP1 POP SWAP2 SWAP1 POP JUMP JUMPDEST PUSH32 0x5661756C7420646F6573206E6F74206578697374000000000000000000000000 PUSH0 DUP3 ADD MSTORE POP JUMP JUMPDEST PUSH0 PUSH2 0x1033 PUSH1 0x14 DUP4 PUSH2 0xBE0 JUMP JUMPDEST SWAP2 POP PUSH2 0x103E DUP3 PUSH2 0xFFF JUMP JUMPDEST PUSH1 0x20 DUP3 ADD SWAP1 POP SWAP2 SWAP1 POP JUMP JUMPDEST PUSH0 PUSH1 0x20 DUP3 ADD SWAP1 POP DUP2 DUP2 SUB PUSH0 DUP4 ADD MSTORE PUSH2 0x1060 DUP2 PUSH2 0x1027 JUMP JUMPDEST SWAP1 POP SWAP2 SWAP1 POP JUMP JUMPDEST PUSH32 0x526563697069656E747320616E6420616D6F756E7473206C656E677468206D69 PUSH0 DUP3 ADD MSTORE PUSH32 0x736D617463680000000000000000000000000000000000000000000000000000 PUSH1 0x20 DUP3 ADD MSTORE POP JUMP JUMPDEST PUSH0 PUSH2 0x10C1 PUSH1 0x26 DUP4 PUSH2 0xBE0 JUMP JUMPDEST SWAP2 POP PUSH2 0x10CC DUP3 PUSH2 0x1067 JUMP JUMPDEST PUSH1 0x40 DUP3 ADD SWAP1 POP SWAP2 SWAP1 POP JUMP JUMPDEST PUSH0 PUSH1 0x20 DUP3 ADD SWAP1 POP DUP2 DUP2 SUB PUSH0 DUP4 ADD MSTORE PUSH2 0x10EE DUP2 PUSH2 0x10B5 JUMP JUMPDEST SWAP1 POP SWAP2 SWAP1 POP JUMP JUMPDEST PUSH32 0x4E487B7100000000000000000000000000000000000000000000000000000000 PUSH0 MSTORE PUSH1 0x32 PUSH1 0x4 MSTORE PUSH1 0x24 PUSH0 REVERT JUMPDEST PUSH32 0x4E487B7100000000000000000000000000000000000000000000000000000000 PUSH0 MSTORE PUSH1 0x11 PUSH1 0x4 MSTORE PUSH1 0x24 PUSH0 REVERT JUMPDEST PUSH0 PUSH2 0x1159 DUP3 PUSH2 0xC58 JUMP JUMPDEST SWAP2 POP PUSH2 0x1164 DUP4 PUSH2 0xC58 JUMP JUMPDEST SWAP3 POP DUP3 DUP3 ADD SWAP1 POP DUP1 DUP3 GT ISZERO PUSH2 0x117C JUMPI PUSH2 0x117B PUSH2 0x1122 JUMP JUMPDEST JUMPDEST SWAP3 SWAP2 POP POP JUMP JUMPDEST PUSH32 0x496E73756666696369656E742045544820696E207661756C7400000000000000 PUSH0 DUP3 ADD MSTORE POP JUMP JUMPDEST PUSH0 PUSH2 0x11B6 PUSH1 0x19 DUP4 PUSH2 0xBE0 JUMP JUMPDEST SWAP2 POP PUSH2 0x11C1 DUP3 PUSH2 0x1182 JUMP JUMPDEST PUSH1 0x20 DUP3 ADD SWAP1 POP SWAP2 SWAP1 POP JUMP JUMPDEST PUSH0 PUSH1 0x20 DUP3 ADD SWAP1 POP DUP2 DUP2 SUB PUSH0 DUP4 ADD MSTORE PUSH2 0x11E3 DUP2 PUSH2 0x11AA JUMP JUMPDEST SWAP1 POP SWAP2 SWAP1 POP JUMP JUMPDEST PUSH0 PUSH2 0x11F4 DUP3 PUSH2 0xC58 JUMP JUMPDEST SWAP2 POP PUSH2 0x11FF DUP4 PUSH2 0xC58 JUMP JUMPDEST SWAP3 POP DUP3 DUP3 SUB SWAP1 POP DUP2 DUP2 GT ISZERO PUSH2 0x1217 JUMPI PUSH2 0x1216 PUSH2 0x1122 JUMP JUMPDEST JUMPDEST SWAP3 SWAP2 POP POP JUMP JUMPDEST PUSH0 PUSH1 0x20 DUP3 DUP5 SUB SLT ISZERO PUSH2 0x1232 JUMPI PUSH2 0x1231 PUSH2 0xCA3 JUMP JUMPDEST JUMPDEST PUSH0 PUSH2 0x123F DUP5 DUP3 DUP6 ADD PUSH2 0xCF1 JUMP JUMPDEST SWAP2 POP POP SWAP3 SWAP2 POP POP JUMP JUMPDEST PUSH0 DUP2 SWAP1 POP SWAP3 SWAP2 POP POP JUMP JUMPDEST POP JUMP JUMPDEST PUSH0 PUSH2 0x1260 PUSH0 DUP4 PUSH2 0x1248 JUMP JUMPDEST SWAP2 POP PUSH2 0x126B DUP3 PUSH2 0x1252 JUMP JUMPDEST PUSH0 DUP3 ADD SWAP1 POP SWAP2 SWAP1 POP JUMP JUMPDEST PUSH0 PUSH2 0x127F DUP3 PUSH2 0x1255 JUMP JUMPDEST SWAP2 POP DUP2 SWAP1 POP SWAP2 SWAP1 POP JUMP JUMPDEST PUSH32 0x455448207472616E73666572206661696C656400000000000000000000000000 PUSH0 DUP3 ADD MSTORE POP JUMP JUMPDEST PUSH0 PUSH2 0x12BD PUSH1 0x13 DUP4 PUSH2 0xBE0 JUMP JUMPDEST SWAP2 POP PUSH2 0x12C8 DUP3 PUSH2 0x1289 JUMP JUMPDEST PUSH1 0x20 DUP3 ADD SWAP1 POP SWAP2 SWAP1 POP JUMP JUMPDEST PUSH0 PUSH1 0x20 DUP3 ADD SWAP1 POP DUP2 DUP2 SUB PUSH0 DUP4 ADD MSTORE PUSH2 0x12EA DUP2 PUSH2 0x12B1 JUMP JUMPDEST SWAP1 POP SWAP2 SWAP1 POP JUMP JUMPDEST PUSH0 DUP3 DUP3 MSTORE PUSH1 0x20 DUP3 ADD SWAP1 POP SWAP3 SWAP2 POP POP JUMP JUMPDEST PUSH0 DUP2 SWAP1 POP SWAP2 SWAP1 POP JUMP JUMPDEST PUSH2 0x1313 DUP2 PUSH2 0xCCA JUMP JUMPDEST DUP3 MSTORE POP POP JUMP JUMPDEST PUSH0 PUSH2 0x1324 DUP4 DUP4 PUSH2 0x130A JUMP JUMPDEST PUSH1 0x20 DUP4 ADD SWAP1 POP SWAP3 SWAP2 POP POP JUMP JUMPDEST PUSH0 PUSH2 0x133E PUSH1 0x20 DUP5 ADD DUP5 PUSH2 0xCF1 JUMP JUMPDEST SWAP1 POP SWAP3 SWAP2 POP POP JUMP JUMPDEST PUSH0 PUSH1 0x20 DUP3 ADD SWAP1 POP SWAP2 SWAP1 POP JUMP JUMPDEST PUSH0 PUSH2 0x135D DUP4 DUP6 PUSH2 0x12F1 JUMP JUMPDEST SWAP4 POP PUSH2 0x1368 DUP3 PUSH2 0x1301 JUMP JUMPDEST DUP1 PUSH0 JUMPDEST DUP6 DUP2 LT ISZERO PUSH2 0x13A0 JUMPI PUSH2 0x137D DUP3 DUP5 PUSH2 0x1330 JUMP JUMPDEST PUSH2 0x1387 DUP9 DUP3 PUSH2 0x1319 JUMP JUMPDEST SWAP8 POP PUSH2 0x1392 DUP4 PUSH2 0x1346 JUMP JUMPDEST SWAP3 POP POP PUSH1 0x1 DUP2 ADD SWAP1 POP PUSH2 0x136B JUMP JUMPDEST POP DUP6 SWAP3 POP POP POP SWAP4 SWAP3 POP POP POP JUMP JUMPDEST PUSH0 DUP3 DUP3 MSTORE PUSH1 0x20 DUP3 ADD SWAP1 POP SWAP3 SWAP2 POP POP JUMP JUMPDEST PUSH0 PUSH0 REVERT JUMPDEST DUP3 DUP2 DUP4 CALLDATACOPY POP POP POP JUMP JUMPDEST PUSH0 PUSH2 0x13D5 DUP4 DUP6 PUSH2 0x13AD JUMP JUMPDEST SWAP4 POP PUSH32 0x7FFFFFFFFFFFFFFFFFFFFFFFFFFFFFFFFFFFFFFFFFFFFFFFFFFFFFFFFFFFFFF DUP4 GT ISZERO PUSH2 0x1408 JUMPI PUSH2 0x1407 PUSH2 0x13BD JUMP JUMPDEST JUMPDEST PUSH1 0x20 DUP4 MUL SWAP3 POP PUSH2 0x1419 DUP4 DUP6 DUP5 PUSH2 0x13C1 JUMP JUMPDEST DUP3 DUP5 ADD SWAP1 POP SWAP4 SWAP3 POP POP POP JUMP JUMPDEST PUSH0 PUSH1 0x40 DUP3 ADD SWAP1 POP DUP2 DUP2 SUB PUSH0 DUP4 ADD MSTORE PUSH2 0x143E DUP2 DUP7 DUP9 PUSH2 0x1352 JUMP JUMPDEST SWAP1 POP DUP2 DUP2 SUB PUSH1 0x20 DUP4 ADD MSTORE PUSH2 0x1453 DUP2 DUP5 DUP7 PUSH2 0x13CA JUMP JUMPDEST SWAP1 POP SWAP6 SWAP5 POP POP POP POP POP JUMP JUMPDEST PUSH32 0x496E73756666696369656E742045544800000000000000000000000000000000 PUSH0 DUP3 ADD MSTORE POP JUMP JUMPDEST PUSH0 PUSH2 0x1492 PUSH1 0x10 DUP4 PUSH2 0xBE0 JUMP JUMPDEST SWAP2 POP PUSH2 0x149D DUP3 PUSH2 0x145E JUMP JUMPDEST PUSH1 0x20 DUP3 ADD SWAP1 POP SWAP2 SWAP1 POP JUMP JUMPDEST PUSH0 PUSH1 0x20 DUP3 ADD SWAP1 POP DUP2 DUP2 SUB PUSH0 DUP4 ADD MSTORE PUSH2 0x14BF DUP2 PUSH2 0x1486 JUMP JUMPDEST SWAP1 POP SWAP2 SWAP1 POP JUMP JUMPDEST PUSH2 0x14CF DUP2 PUSH2 0xC58 JUMP JUMPDEST DUP3 MSTORE POP POP JUMP JUMPDEST PUSH0 PUSH1 0x20 DUP3 ADD SWAP1 POP PUSH2 0x14E8 PUSH0 DUP4 ADD DUP5 PUSH2 0x14C6 JUMP JUMPDEST SWAP3 SWAP2 POP POP JUMP JUMPDEST PUSH32 0x437265617465207661756C742066697273740000000000000000000000000000 PUSH0 DUP3 ADD MSTORE POP JUMP JUMPDEST PUSH0 PUSH2 0x1522 PUSH1 0x12 DUP4 PUSH2 0xBE0 JUMP JUMPDEST SWAP2 POP PUSH2 0x152D DUP3 PUSH2 0x14EE JUMP JUMPDEST PUSH1 0x20 DUP3 ADD SWAP1 POP SWAP2 SWAP1 POP JUMP JUMPDEST PUSH0 PUSH1 0x20 DUP3 ADD SWAP1 POP DUP2 DUP2 SUB PUSH0 DUP4 ADD MSTORE PUSH2 0x154F DUP2 PUSH2 0x1516 JUMP JUMPDEST SWAP1 POP SWAP2 SWAP1 POP JUMP JUMPDEST PUSH32 0x4E6F204554482073656E74000000000000000000000000000000000000000000 PUSH0 DUP3 ADD MSTORE POP JUMP JUMPDEST PUSH0 PUSH2 0x158A PUSH1 0xB DUP4 PUSH2 0xBE0 JUMP JUMPDEST SWAP2 POP PUSH2 0x1595 DUP3 PUSH2 0x1556 JUMP JUMPDEST PUSH1 0x20 DUP3 ADD SWAP1 POP SWAP2 SWAP1 POP JUMP JUMPDEST PUSH0 PUSH1 0x20 DUP3 ADD SWAP1 POP DUP2 DUP2 SUB PUSH0 DUP4 ADD MSTORE PUSH2 0x15B7 DUP2 PUSH2 0x157E JUMP JUMPDEST SWAP1 POP SWAP2 SWAP1 POP JUMP JUMPDEST PUSH0 PUSH2 0x15C8 DUP3 PUSH2 0xC58 JUMP JUMPDEST SWAP2 POP PUSH2 0x15D3 DUP4 PUSH2 0xC58 JUMP JUMPDEST SWAP3 POP DUP3 DUP3 MUL PUSH2 0x15E1 DUP2 PUSH2 0xC58 JUMP JUMPDEST SWAP2 POP DUP3 DUP3 DIV DUP5 EQ DUP4 ISZERO OR PUSH2 0x15F8 JUMPI PUSH2 0x15F7 PUSH2 0x1122 JUMP JUMPDEST JUMPDEST POP SWAP3 SWAP2 POP POP JUMP JUMPDEST PUSH32 0x4E487B7100000000000000000000000000000000000000000000000000000000 PUSH0 MSTORE PUSH1 0x12 PUSH1 0x4 MSTORE PUSH1 0x24 PUSH0 REVERT JUMPDEST PUSH0 PUSH2 0x1636 DUP3 PUSH2 0xC58 JUMP JUMPDEST SWAP2 POP PUSH2 0x1641 DUP4 PUSH2 0xC58 JUMP JUMPDEST SWAP3 POP DUP3 PUSH2 0x1651 JUMPI PUSH2 0x1650 PUSH2 0x15FF JUMP JUMPDEST JUMPDEST DUP3 DUP3 DIV SWAP1 POP SWAP3 SWAP2 POP POP JUMP JUMPDEST PUSH32 0x4E6574206973207A65726F000000000000000000000000000000000000000000 PUSH0 DUP3 ADD MSTORE POP JUMP JUMPDEST PUSH0 PUSH2 0x1690 PUSH1 0xB DUP4 PUSH2 0xBE0 JUMP JUMPDEST SWAP2 POP PUSH2 0x169B DUP3 PUSH2 0x165C JUMP JUMPDEST PUSH1 0x20 DUP3 ADD SWAP1 POP SWAP2 SWAP1 POP JUMP JUMPDEST PUSH0 PUSH1 0x20 DUP3 ADD SWAP1 POP DUP2 DUP2 SUB PUSH0 DUP4 ADD MSTORE PUSH2 0x16BD DUP2 PUSH2 0x1684 JUMP JUMPDEST SWAP1 POP SWAP2 SWAP1 POP JUMP JUMPDEST PUSH0 PUSH1 0x60 DUP3 ADD SWAP1 POP PUSH2 0x16D7 PUSH0 DUP4 ADD DUP7 PUSH2 0x14C6 JUMP JUMPDEST PUSH2 0x16E4 PUSH1 0x20 DUP4 ADD DUP6 PUSH2 0x14C6 JUMP JUMPDEST PUSH2 0x16F1 PUSH1 0x40 DUP4 ADD DUP5 PUSH2 0x14C6 JUMP JUMPDEST SWAP5 SWAP4 POP POP POP POP JUMP INVALID LOG2 PUSH5 0x6970667358 0x22 SLT KECCAK256 SWAP12 GT 0xD2 PUSH9 0x658855FC7443AFB0F2 SWAPN 0x97 PUSH22 0x501B47C314ECB99BB349714411DAED9C64736F6C6343 STOP ADDMOD 0x1E STOP CALLER "
				},
				"gasEstimates": {
					"creation": {
						"codeDepositCost": "1187000",
						"executionCost": "infinite",
						"totalCost": "infinite"
					},
					"external": {
						"createVault()": "infinite",
						"depositETH()": "infinite",
						"distributeVault(address,address[],uint256[])": "infinite",
						"myVault()": "2696",
						"withdrawETH(uint256)": "infinite"
					},
					"internal": {
						"_credit(address,uint256)": "infinite",
						"_creditContractVault(uint256)": "infinite",
						"_ensureVault(address)": "27708"
					}
				},
				"methodIdentifiers": {
					"createVault()": "5d12928b",
					"depositETH()": "f6326fb3",
					"distributeVault(address,address[],uint256[])": "a58b8c3e",
					"myVault()": "9f5f0520",
					"withdrawETH(uint256)": "f14210a6"
				}
			},
			"storageLayout": {
				"storage": [
					{
						"astId": 668,
						"contract": "src/contracts/Ethernium-eth.sol:Ethernium",
						"label": "testators",
						"offset": 0,
						"slot": "0",
						"type": "t_mapping(t_address,t_struct(Vault)660_storage)"
					},
					{
						"astId": 672,
						"contract": "src/contracts/Ethernium-eth.sol:Ethernium",
						"label": "vaultCreatedAndPaid",
						"offset": 0,
						"slot": "1",
						"type": "t_mapping(t_address,t_bool)"
					},
					{
						"astId": 675,
						"contract": "src/contracts/Ethernium-eth.sol:Ethernium",
						"label": "vaultOfContract",
						"offset": 0,
						"slot": "2",
						"type": "t_struct(Vault)660_storage"
					}
				],
				"types": {
					"t_address": {
						"encoding": "inplace",
						"label": "address",
						"numberOfBytes": "20"
					},
					"t_bool": {
						"encoding": "inplace",
						"label": "bool",
						"numberOfBytes": "1"
					},
					"t_mapping(t_address,t_bool)": {
						"encoding": "mapping",
						"key": "t_address",
						"label": "mapping(address => bool)",
						"numberOfBytes": "32",
						"value": "t_bool"
					},
					"t_mapping(t_address,t_struct(Vault)660_storage)": {
						"encoding": "mapping",
						"key": "t_address",
						"label": "mapping(address => struct Ethernium.Vault)",
						"numberOfBytes": "32",
						"value": "t_struct(Vault)660_storage"
					},
					"t_struct(Vault)660_storage": {
						"encoding": "inplace",
						"label": "struct Ethernium.Vault",
						"members": [
							{
								"astId": 657,
								"contract": "src/contracts/Ethernium-eth.sol:Ethernium",
								"label": "exist",
								"offset": 0,
								"slot": "0",
								"type": "t_bool"
							},
							{
								"astId": 659,
								"contract": "src/contracts/Ethernium-eth.sol:Ethernium",
								"label": "balance",
								"offset": 0,
								"slot": "1",
								"type": "t_uint256"
							}
						],
						"numberOfBytes": "64"
					},
					"t_uint256": {
						"encoding": "inplace",
						"label": "uint256",
						"numberOfBytes": "32"
					}
				}
			},
			"userdoc": {
				"kind": "user",
				"methods": {},
				"version": 1
			}
		}
	}
}