{
	"src/contracts/EtherniumTcc.sol": {
		"EthereumTcc": {
			"abi": [
				{
					"inputs": [],
					"stateMutability": "nonpayable",
					"type": "constructor"
				},
				{
					"anonymous": false,
					"inputs": [
						{
							"indexed": true,
							"internalType": "address",
							"name": "testator",
							"type": "address"
						},
						{
							"indexed": false,
							"internalType": "uint256",
							"name": "grossAmount",
							"type": "uint256"
						},
						{
							"indexed": false,
							"internalType": "uint256",
							"name": "feeAmount",
							"type": "uint256"
						},
						{
							"indexed": false,
							"internalType": "uint256",
							"name": "netAmount",
							"type": "uint256"
						}
					],
					"name": "Deposit",
					"type": "event"
				},
				{
					"anonymous": false,
					"inputs": [
						{
							"indexed": true,
							"internalType": "address",
							"name": "testator",
							"type": "address"
						}
					],
					"name": "VaultCreated",
					"type": "event"
				},
				{
					"anonymous": false,
					"inputs": [
						{
							"indexed": true,
							"internalType": "address",
							"name": "testator",
							"type": "address"
						},
						{
							"indexed": false,
							"internalType": "address[]",
							"name": "recipients",
							"type": "address[]"
						},
						{
							"indexed": false,
							"internalType": "uint256[]",
							"name": "amounts",
							"type": "uint256[]"
						}
					],
					"name": "VaultDistributed",
					"type": "event"
				},
				{
					"anonymous": false,
					"inputs": [
						{
							"indexed": true,
							"internalType": "address",
							"name": "testator",
							"type": "address"
						},
						{
							"indexed": false,
							"internalType": "uint256",
							"name": "amount",
							"type": "uint256"
						}
					],
					"name": "Withdraw",
					"type": "event"
				},
				{
					"inputs": [],
					"name": "createVault",
					"outputs": [],
					"stateMutability": "payable",
					"type": "function"
				},
				{
					"inputs": [],
					"name": "depositETH",
					"outputs": [],
					"stateMutability": "payable",
					"type": "function"
				},
				{
					"inputs": [
						{
							"internalType": "address",
							"name": "testator",
							"type": "address"
						},
						{
							"internalType": "address[]",
							"name": "recipients",
							"type": "address[]"
						},
						{
							"internalType": "uint256[]",
							"name": "amounts",
							"type": "uint256[]"
						}
					],
					"name": "distributeVault",
					"outputs": [],
					"stateMutability": "nonpayable",
					"type": "function"
				},
				{
					"inputs": [],
					"name": "myVault",
					"outputs": [
						{
							"components": [
								{
									"internalType": "uint256",
									"name": "balances",
									"type": "uint256"
								}
							],
							"internalType": "struct EthereumTcc.VaultView",
							"name": "v",
							"type": "tuple"
						}
					],
					"stateMutability": "view",
					"type": "function"
				},
				{
					"inputs": [],
					"name": "showFees",
					"outputs": [
						{
							"internalType": "uint256",
							"name": "",
							"type": "uint256"
						}
					],
					"stateMutability": "view",
					"type": "function"
				},
				{
					"inputs": [
						{
							"internalType": "address",
							"name": "testator",
							"type": "address"
						}
					],
					"name": "vaultBalance",
					"outputs": [
						{
							"internalType": "uint256",
							"name": "",
							"type": "uint256"
						}
					],
					"stateMutability": "view",
					"type": "function"
				},
				{
					"inputs": [
						{
							"internalType": "uint256",
							"name": "amount",
							"type": "uint256"
						}
					],
					"name": "withdrawETH",
					"outputs": [],
					"stateMutability": "nonpayable",
					"type": "function"
				},
				{
					"inputs": [
						{
							"internalType": "address",
							"name": "beneficiary",
							"type": "address"
						}
					],
					"name": "withdrawFees",
					"outputs": [],
					"stateMutability": "nonpayable",
					"type": "function"
				},
				{
					"stateMutability": "payable",
					"type": "receive"
				}
			],
			"devdoc": {
				"kind": "dev",
				"methods": {},
				"version": 1
			},
			"evm": {
				"assembly": "    /* \"src/contracts/EtherniumTcc.sol\":62:6303  contract EthereumTcc {... */\n  mstore(0x40, 0xa0)\n    /* \"src/contracts/EtherniumTcc.sol\":1340:1430  constructor() {... */\n  callvalue\n  dup1\n  iszero\n  tag_1\n  jumpi\n  revert(0x00, 0x00)\ntag_1:\n  pop\n    /* \"src/contracts/EtherniumTcc.sol\":1375:1385  msg.sender */\n  caller\n    /* \"src/contracts/EtherniumTcc.sol\":1364:1385  deployer = msg.sender */\n  0xffffffffffffffffffffffffffffffffffffffff\n  and\n  0x80\n  dup2\n  0xffffffffffffffffffffffffffffffffffffffff\n  and\n  dup2\n  mstore\n  pop\n  pop\n    /* \"src/contracts/EtherniumTcc.sol\":1419:1423  true */\n  0x01\n    /* \"src/contracts/EtherniumTcc.sol\":1395:1410  vaultOfContract */\n  0x02\n    /* \"src/contracts/EtherniumTcc.sol\":1395:1416  vaultOfContract.exist */\n  0x00\n  add\n  0x00\n    /* \"src/contracts/EtherniumTcc.sol\":1395:1423  vaultOfContract.exist = true */\n  0x0100\n  exp\n  dup2\n  sload\n  dup2\n  0xff\n  mul\n  not\n  and\n  swap1\n  dup4\n  iszero\n  iszero\n  mul\n  or\n  swap1\n  sstore\n  pop\n    /* \"src/contracts/EtherniumTcc.sol\":62:6303  contract EthereumTcc {... */\n  mload(0x80)\n  codecopy(0x00, dataOffset(sub_0), dataSize(sub_0))\n  0x00\n  assignImmutable(\"0x8b953cbb84328003779eb1ef176ef07f7dd0ae3d4a8e408de53d15a36466c86e\")\n  return(0x00, dataSize(sub_0))\nstop\n\nsub_0: assembly {\n        /* \"src/contracts/EtherniumTcc.sol\":62:6303  contract EthereumTcc {... */\n      mstore(0x40, 0x80)\n      jumpi(tag_1, lt(calldatasize, 0x04))\n      shr(0xe0, calldataload(0x00))\n      dup1\n      0xa58b8c3e\n      gt\n      tag_11\n      jumpi\n      dup1\n      0xa58b8c3e\n      eq\n      tag_7\n      jumpi\n      dup1\n      0xed0fe416\n      eq\n      tag_8\n      jumpi\n      dup1\n      0xf14210a6\n      eq\n      tag_9\n      jumpi\n      dup1\n      0xf6326fb3\n      eq\n      tag_10\n      jumpi\n      jump(tag_2)\n    tag_11:\n      dup1\n      0x04d8c8e2\n      eq\n      tag_3\n      jumpi\n      dup1\n      0x164e68de\n      eq\n      tag_4\n      jumpi\n      dup1\n      0x5d12928b\n      eq\n      tag_5\n      jumpi\n      dup1\n      0x9f5f0520\n      eq\n      tag_6\n      jumpi\n      jump(tag_2)\n    tag_1:\n      jumpi(tag_2, calldatasize)\n        /* \"src/contracts/EtherniumTcc.sol\":1552:1574  revert(\"Don't do it!\") */\n      mload(0x40)\n      0x08c379a000000000000000000000000000000000000000000000000000000000\n      dup2\n      mstore\n      0x04\n      add\n      tag_14\n      swap1\n      tag_15\n      jump\t// in\n    tag_14:\n      mload(0x40)\n      dup1\n      swap2\n      sub\n      swap1\n      revert\n        /* \"src/contracts/EtherniumTcc.sol\":62:6303  contract EthereumTcc {... */\n    tag_2:\n      revert(0x00, 0x00)\n        /* \"src/contracts/EtherniumTcc.sol\":5546:5643  function showFees() public view returns (uint256) {... */\n    tag_3:\n      callvalue\n      dup1\n      iszero\n      tag_16\n      jumpi\n      revert(0x00, 0x00)\n    tag_16:\n      pop\n      tag_17\n      tag_18\n      jump\t// in\n    tag_17:\n      mload(0x40)\n      tag_19\n      swap2\n      swap1\n      tag_20\n      jump\t// in\n    tag_19:\n      mload(0x40)\n      dup1\n      swap2\n      sub\n      swap1\n      return\n        /* \"src/contracts/EtherniumTcc.sol\":5214:5540  function withdrawFees(address beneficiary) external {... */\n    tag_4:\n      callvalue\n      dup1\n      iszero\n      tag_21\n      jumpi\n      revert(0x00, 0x00)\n    tag_21:\n      pop\n      tag_22\n      0x04\n      dup1\n      calldatasize\n      sub\n      dup2\n      add\n      swap1\n      tag_23\n      swap2\n      swap1\n      tag_24\n      jump\t// in\n    tag_23:\n      tag_25\n      jump\t// in\n    tag_22:\n      stop\n        /* \"src/contracts/EtherniumTcc.sol\":1649:2160  function createVault() external payable {... */\n    tag_5:\n      tag_26\n      tag_27\n      jump\t// in\n    tag_26:\n      stop\n        /* \"src/contracts/EtherniumTcc.sol\":3584:3768  function myVault() public view returns (VaultView memory v) {... */\n    tag_6:\n      callvalue\n      dup1\n      iszero\n      tag_28\n      jumpi\n      revert(0x00, 0x00)\n    tag_28:\n      pop\n      tag_29\n      tag_30\n      jump\t// in\n    tag_29:\n      mload(0x40)\n      tag_31\n      swap2\n      swap1\n      tag_32\n      jump\t// in\n    tag_31:\n      mload(0x40)\n      dup1\n      swap2\n      sub\n      swap1\n      return\n        /* \"src/contracts/EtherniumTcc.sol\":3900:5208  function distributeVault(... */\n    tag_7:\n      callvalue\n      dup1\n      iszero\n      tag_33\n      jumpi\n      revert(0x00, 0x00)\n    tag_33:\n      pop\n      tag_34\n      0x04\n      dup1\n      calldatasize\n      sub\n      dup2\n      add\n      swap1\n      tag_35\n      swap2\n      swap1\n      tag_36\n      jump\t// in\n    tag_35:\n      tag_37\n      jump\t// in\n    tag_34:\n      stop\n        /* \"src/contracts/EtherniumTcc.sol\":2827:3103  function vaultBalance(address testator) external view returns (uint256) {... */\n    tag_8:\n      callvalue\n      dup1\n      iszero\n      tag_38\n      jumpi\n      revert(0x00, 0x00)\n    tag_38:\n      pop\n      tag_39\n      0x04\n      dup1\n      calldatasize\n      sub\n      dup2\n      add\n      swap1\n      tag_40\n      swap2\n      swap1\n      tag_24\n      jump\t// in\n    tag_40:\n      tag_41\n      jump\t// in\n    tag_39:\n      mload(0x40)\n      tag_42\n      swap2\n      swap1\n      tag_20\n      jump\t// in\n    tag_42:\n      mload(0x40)\n      dup1\n      swap2\n      sub\n      swap1\n      return\n        /* \"src/contracts/EtherniumTcc.sol\":3191:3578  function withdrawETH(uint256 amount) external {... */\n    tag_9:\n      callvalue\n      dup1\n      iszero\n      tag_43\n      jumpi\n      revert(0x00, 0x00)\n    tag_43:\n      pop\n      tag_44\n      0x04\n      dup1\n      calldatasize\n      sub\n      dup2\n      add\n      swap1\n      tag_45\n      swap2\n      swap1\n      tag_46\n      jump\t// in\n    tag_45:\n      tag_47\n      jump\t// in\n    tag_44:\n      stop\n        /* \"src/contracts/EtherniumTcc.sol\":2335:2821  function depositETH() external payable {... */\n    tag_10:\n      tag_48\n      tag_49\n      jump\t// in\n    tag_48:\n      stop\n        /* \"src/contracts/EtherniumTcc.sol\":5546:5643  function showFees() public view returns (uint256) {... */\n    tag_18:\n        /* \"src/contracts/EtherniumTcc.sol\":5587:5594  uint256 */\n      0x00\n        /* \"src/contracts/EtherniumTcc.sol\":5613:5628  vaultOfContract */\n      0x02\n        /* \"src/contracts/EtherniumTcc.sol\":5613:5636  vaultOfContract.balance */\n      0x01\n      add\n      sload\n        /* \"src/contracts/EtherniumTcc.sol\":5606:5636  return vaultOfContract.balance */\n      swap1\n      pop\n        /* \"src/contracts/EtherniumTcc.sol\":5546:5643  function showFees() public view returns (uint256) {... */\n      swap1\n      jump\t// out\n        /* \"src/contracts/EtherniumTcc.sol\":5214:5540  function withdrawFees(address beneficiary) external {... */\n    tag_25:\n        /* \"src/contracts/EtherniumTcc.sol\":5298:5306  deployer */\n      immutable(\"0x8b953cbb84328003779eb1ef176ef07f7dd0ae3d4a8e408de53d15a36466c86e\")\n        /* \"src/contracts/EtherniumTcc.sol\":5284:5306  msg.sender == deployer */\n      0xffffffffffffffffffffffffffffffffffffffff\n      and\n        /* \"src/contracts/EtherniumTcc.sol\":5284:5294  msg.sender */\n      caller\n        /* \"src/contracts/EtherniumTcc.sol\":5284:5306  msg.sender == deployer */\n      0xffffffffffffffffffffffffffffffffffffffff\n      and\n      eq\n        /* \"src/contracts/EtherniumTcc.sol\":5276:5347  require(msg.sender == deployer, \"Only deployer can call this function\") */\n      tag_52\n      jumpi\n      mload(0x40)\n      0x08c379a000000000000000000000000000000000000000000000000000000000\n      dup2\n      mstore\n      0x04\n      add\n      tag_53\n      swap1\n      tag_54\n      jump\t// in\n    tag_53:\n      mload(0x40)\n      dup1\n      swap2\n      sub\n      swap1\n      revert\n    tag_52:\n        /* \"src/contracts/EtherniumTcc.sol\":5357:5369  uint256 fees */\n      0x00\n        /* \"src/contracts/EtherniumTcc.sol\":5372:5387  vaultOfContract */\n      0x02\n        /* \"src/contracts/EtherniumTcc.sol\":5372:5395  vaultOfContract.balance */\n      0x01\n      add\n      sload\n        /* \"src/contracts/EtherniumTcc.sol\":5357:5395  uint256 fees = vaultOfContract.balance */\n      swap1\n      pop\n        /* \"src/contracts/EtherniumTcc.sol\":5431:5432  0 */\n      0x00\n        /* \"src/contracts/EtherniumTcc.sol\":5405:5420  vaultOfContract */\n      0x02\n        /* \"src/contracts/EtherniumTcc.sol\":5405:5428  vaultOfContract.balance */\n      0x01\n      add\n        /* \"src/contracts/EtherniumTcc.sol\":5405:5432  vaultOfContract.balance = 0 */\n      dup2\n      swap1\n      sstore\n      pop\n        /* \"src/contracts/EtherniumTcc.sol\":5443:5450  bool ok */\n      0x00\n        /* \"src/contracts/EtherniumTcc.sol\":5456:5467  beneficiary */\n      dup3\n        /* \"src/contracts/EtherniumTcc.sol\":5456:5472  beneficiary.call */\n      0xffffffffffffffffffffffffffffffffffffffff\n      and\n        /* \"src/contracts/EtherniumTcc.sol\":5480:5484  fees */\n      dup3\n        /* \"src/contracts/EtherniumTcc.sol\":5456:5489  beneficiary.call{value: fees}(\"\") */\n      mload(0x40)\n      tag_55\n      swap1\n      tag_56\n      jump\t// in\n    tag_55:\n      0x00\n      mload(0x40)\n      dup1\n      dup4\n      sub\n      dup2\n      dup6\n      dup8\n      gas\n      call\n      swap3\n      pop\n      pop\n      pop\n      returndatasize\n      dup1\n      0x00\n      dup2\n      eq\n      tag_59\n      jumpi\n      mload(0x40)\n      swap2\n      pop\n      and(add(returndatasize, 0x3f), not(0x1f))\n      dup3\n      add\n      0x40\n      mstore\n      returndatasize\n      dup3\n      mstore\n      returndatasize\n      0x00\n      0x20\n      dup5\n      add\n      returndatacopy\n      jump(tag_58)\n    tag_59:\n      0x60\n      swap2\n      pop\n    tag_58:\n      pop\n        /* \"src/contracts/EtherniumTcc.sol\":5442:5489  (bool ok, ) = beneficiary.call{value: fees}(\"\") */\n      pop\n      swap1\n      pop\n        /* \"src/contracts/EtherniumTcc.sol\":5507:5509  ok */\n      dup1\n        /* \"src/contracts/EtherniumTcc.sol\":5499:5533  require(ok, \"ETH transfer failed\") */\n      tag_60\n      jumpi\n      mload(0x40)\n      0x08c379a000000000000000000000000000000000000000000000000000000000\n      dup2\n      mstore\n      0x04\n      add\n      tag_61\n      swap1\n      tag_62\n      jump\t// in\n    tag_61:\n      mload(0x40)\n      dup1\n      swap2\n      sub\n      swap1\n      revert\n    tag_60:\n        /* \"src/contracts/EtherniumTcc.sol\":5266:5540  {... */\n      pop\n      pop\n        /* \"src/contracts/EtherniumTcc.sol\":5214:5540  function withdrawFees(address beneficiary) external {... */\n      pop\n      jump\t// out\n        /* \"src/contracts/EtherniumTcc.sol\":1649:2160  function createVault() external payable {... */\n    tag_27:\n        /* \"src/contracts/EtherniumTcc.sol\":1708:1727  vaultCreatedAndPaid */\n      0x01\n        /* \"src/contracts/EtherniumTcc.sol\":1708:1739  vaultCreatedAndPaid[msg.sender] */\n      0x00\n        /* \"src/contracts/EtherniumTcc.sol\":1728:1738  msg.sender */\n      caller\n        /* \"src/contracts/EtherniumTcc.sol\":1708:1739  vaultCreatedAndPaid[msg.sender] */\n      0xffffffffffffffffffffffffffffffffffffffff\n      and\n      0xffffffffffffffffffffffffffffffffffffffff\n      and\n      dup2\n      mstore\n      0x20\n      add\n      swap1\n      dup2\n      mstore\n      0x20\n      add\n      0x00\n      keccak256\n      0x00\n      swap1\n      sload\n      swap1\n      0x0100\n      exp\n      swap1\n      div\n      0xff\n      and\n        /* \"src/contracts/EtherniumTcc.sol\":1707:1739  !vaultCreatedAndPaid[msg.sender] */\n      iszero\n        /* \"src/contracts/EtherniumTcc.sol\":1699:1765  require(!vaultCreatedAndPaid[msg.sender], \"Vault already created\") */\n      tag_64\n      jumpi\n      mload(0x40)\n      0x08c379a000000000000000000000000000000000000000000000000000000000\n      dup2\n      mstore\n      0x04\n      add\n      tag_65\n      swap1\n      tag_66\n      jump\t// in\n    tag_65:\n      mload(0x40)\n      dup1\n      swap2\n      sub\n      swap1\n      revert\n    tag_64:\n        /* \"src/contracts/EtherniumTcc.sol\":129:143  10000000000000 */\n      0x09184e72a000\n        /* \"src/contracts/EtherniumTcc.sol\":1783:1792  msg.value */\n      callvalue\n        /* \"src/contracts/EtherniumTcc.sol\":1783:1808  msg.value == CREATION_FEE */\n      eq\n        /* \"src/contracts/EtherniumTcc.sol\":1775:1835  require(msg.value == CREATION_FEE, \"Exact 0.1 ETH required\") */\n      tag_67\n      jumpi\n      mload(0x40)\n      0x08c379a000000000000000000000000000000000000000000000000000000000\n      dup2\n      mstore\n      0x04\n      add\n      tag_68\n      swap1\n      tag_69\n      jump\t// in\n    tag_68:\n      mload(0x40)\n      dup1\n      swap2\n      sub\n      swap1\n      revert\n    tag_67:\n        /* \"src/contracts/EtherniumTcc.sol\":1879:1883  true */\n      0x01\n        /* \"src/contracts/EtherniumTcc.sol\":1845:1864  vaultCreatedAndPaid */\n      dup1\n        /* \"src/contracts/EtherniumTcc.sol\":1845:1876  vaultCreatedAndPaid[msg.sender] */\n      0x00\n        /* \"src/contracts/EtherniumTcc.sol\":1865:1875  msg.sender */\n      caller\n        /* \"src/contracts/EtherniumTcc.sol\":1845:1876  vaultCreatedAndPaid[msg.sender] */\n      0xffffffffffffffffffffffffffffffffffffffff\n      and\n      0xffffffffffffffffffffffffffffffffffffffff\n      and\n      dup2\n      mstore\n      0x20\n      add\n      swap1\n      dup2\n      mstore\n      0x20\n      add\n      0x00\n      keccak256\n      0x00\n        /* \"src/contracts/EtherniumTcc.sol\":1845:1883  vaultCreatedAndPaid[msg.sender] = true */\n      0x0100\n      exp\n      dup2\n      sload\n      dup2\n      0xff\n      mul\n      not\n      and\n      swap1\n      dup4\n      iszero\n      iszero\n      mul\n      or\n      swap1\n      sstore\n      pop\n        /* \"src/contracts/EtherniumTcc.sol\":1894:1909  Vault storage v */\n      0x00\n        /* \"src/contracts/EtherniumTcc.sol\":1912:1921  testators */\n      0x00\n        /* \"src/contracts/EtherniumTcc.sol\":1912:1933  testators[msg.sender] */\n      0x00\n        /* \"src/contracts/EtherniumTcc.sol\":1922:1932  msg.sender */\n      caller\n        /* \"src/contracts/EtherniumTcc.sol\":1912:1933  testators[msg.sender] */\n      0xffffffffffffffffffffffffffffffffffffffff\n      and\n      0xffffffffffffffffffffffffffffffffffffffff\n      and\n      dup2\n      mstore\n      0x20\n      add\n      swap1\n      dup2\n      mstore\n      0x20\n      add\n      0x00\n      keccak256\n        /* \"src/contracts/EtherniumTcc.sol\":1894:1933  Vault storage v = testators[msg.sender] */\n      swap1\n      pop\n        /* \"src/contracts/EtherniumTcc.sol\":1948:1949  v */\n      dup1\n        /* \"src/contracts/EtherniumTcc.sol\":1948:1955  v.exist */\n      0x00\n      add\n      0x00\n      swap1\n      sload\n      swap1\n      0x0100\n      exp\n      swap1\n      div\n      0xff\n      and\n        /* \"src/contracts/EtherniumTcc.sol\":1943:2087  if (!v.exist) {... */\n      tag_70\n      jumpi\n        /* \"src/contracts/EtherniumTcc.sol\":1971:2005  _creditContractVault(CREATION_FEE) */\n      tag_71\n        /* \"src/contracts/EtherniumTcc.sol\":129:143  10000000000000 */\n      0x09184e72a000\n        /* \"src/contracts/EtherniumTcc.sol\":1971:1991  _creditContractVault */\n      tag_72\n        /* \"src/contracts/EtherniumTcc.sol\":1971:2005  _creditContractVault(CREATION_FEE) */\n      jump\t// in\n    tag_71:\n        /* \"src/contracts/EtherniumTcc.sol\":2029:2033  true */\n      0x01\n        /* \"src/contracts/EtherniumTcc.sol\":2019:2020  v */\n      dup2\n        /* \"src/contracts/EtherniumTcc.sol\":2019:2026  v.exist */\n      0x00\n      add\n      0x00\n        /* \"src/contracts/EtherniumTcc.sol\":2019:2033  v.exist = true */\n      0x0100\n      exp\n      dup2\n      sload\n      dup2\n      0xff\n      mul\n      not\n      and\n      swap1\n      dup4\n      iszero\n      iszero\n      mul\n      or\n      swap1\n      sstore\n      pop\n        /* \"src/contracts/EtherniumTcc.sol\":2065:2075  msg.sender */\n      caller\n        /* \"src/contracts/EtherniumTcc.sol\":2052:2076  VaultCreated(msg.sender) */\n      0xffffffffffffffffffffffffffffffffffffffff\n      and\n      0x2e49a5810fda2439a23771848b4acec786b0a64d4de3d124ac57fc8739c38875\n      mload(0x40)\n      mload(0x40)\n      dup1\n      swap2\n      sub\n      swap1\n      log2\n        /* \"src/contracts/EtherniumTcc.sol\":1943:2087  if (!v.exist) {... */\n    tag_70:\n        /* \"src/contracts/EtherniumTcc.sol\":1689:2160  {... */\n      pop\n        /* \"src/contracts/EtherniumTcc.sol\":1649:2160  function createVault() external payable {... */\n      jump\t// out\n        /* \"src/contracts/EtherniumTcc.sol\":3584:3768  function myVault() public view returns (VaultView memory v) {... */\n    tag_30:\n        /* \"src/contracts/EtherniumTcc.sol\":3624:3642  VaultView memory v */\n      tag_73\n      tag_74\n      jump\t// in\n    tag_73:\n        /* \"src/contracts/EtherniumTcc.sol\":3654:3671  Vault storage src */\n      0x00\n        /* \"src/contracts/EtherniumTcc.sol\":3674:3683  testators */\n      0x00\n        /* \"src/contracts/EtherniumTcc.sol\":3674:3695  testators[msg.sender] */\n      0x00\n        /* \"src/contracts/EtherniumTcc.sol\":3684:3694  msg.sender */\n      caller\n        /* \"src/contracts/EtherniumTcc.sol\":3674:3695  testators[msg.sender] */\n      0xffffffffffffffffffffffffffffffffffffffff\n      and\n      0xffffffffffffffffffffffffffffffffffffffff\n      and\n      dup2\n      mstore\n      0x20\n      add\n      swap1\n      dup2\n      mstore\n      0x20\n      add\n      0x00\n      keccak256\n        /* \"src/contracts/EtherniumTcc.sol\":3654:3695  Vault storage src = testators[msg.sender] */\n      swap1\n      pop\n        /* \"src/contracts/EtherniumTcc.sol\":3709:3743  VaultView({balances: src.balance}) */\n      mload(0x40)\n      dup1\n      0x20\n      add\n      0x40\n      mstore\n      dup1\n        /* \"src/contracts/EtherniumTcc.sol\":3730:3733  src */\n      dup3\n        /* \"src/contracts/EtherniumTcc.sol\":3730:3741  src.balance */\n      0x01\n      add\n      sload\n        /* \"src/contracts/EtherniumTcc.sol\":3709:3743  VaultView({balances: src.balance}) */\n      dup2\n      mstore\n      pop\n        /* \"src/contracts/EtherniumTcc.sol\":3705:3743  v = VaultView({balances: src.balance}) */\n      swap2\n      pop\n        /* \"src/contracts/EtherniumTcc.sol\":3753:3761  return v */\n      pop\n        /* \"src/contracts/EtherniumTcc.sol\":3584:3768  function myVault() public view returns (VaultView memory v) {... */\n      swap1\n      jump\t// out\n        /* \"src/contracts/EtherniumTcc.sol\":3900:5208  function distributeVault(... */\n    tag_37:\n        /* \"src/contracts/EtherniumTcc.sol\":4121:4129  deployer */\n      immutable(\"0x8b953cbb84328003779eb1ef176ef07f7dd0ae3d4a8e408de53d15a36466c86e\")\n        /* \"src/contracts/EtherniumTcc.sol\":4107:4129  msg.sender == deployer */\n      0xffffffffffffffffffffffffffffffffffffffff\n      and\n        /* \"src/contracts/EtherniumTcc.sol\":4107:4117  msg.sender */\n      caller\n        /* \"src/contracts/EtherniumTcc.sol\":4107:4129  msg.sender == deployer */\n      0xffffffffffffffffffffffffffffffffffffffff\n      and\n      eq\n        /* \"src/contracts/EtherniumTcc.sol\":4099:4170  require(msg.sender == deployer, \"Only deployer can call this function\") */\n      tag_77\n      jumpi\n      mload(0x40)\n      0x08c379a000000000000000000000000000000000000000000000000000000000\n      dup2\n      mstore\n      0x04\n      add\n      tag_78\n      swap1\n      tag_54\n      jump\t// in\n    tag_78:\n      mload(0x40)\n      dup1\n      swap2\n      sub\n      swap1\n      revert\n    tag_77:\n        /* \"src/contracts/EtherniumTcc.sol\":4219:4234  Vault storage v */\n      0x00\n        /* \"src/contracts/EtherniumTcc.sol\":4237:4246  testators */\n      0x00\n        /* \"src/contracts/EtherniumTcc.sol\":4237:4256  testators[testator] */\n      0x00\n        /* \"src/contracts/EtherniumTcc.sol\":4247:4255  testator */\n      dup8\n        /* \"src/contracts/EtherniumTcc.sol\":4237:4256  testators[testator] */\n      0xffffffffffffffffffffffffffffffffffffffff\n      and\n      0xffffffffffffffffffffffffffffffffffffffff\n      and\n      dup2\n      mstore\n      0x20\n      add\n      swap1\n      dup2\n      mstore\n      0x20\n      add\n      0x00\n      keccak256\n        /* \"src/contracts/EtherniumTcc.sol\":4219:4256  Vault storage v = testators[testator] */\n      swap1\n      pop\n        /* \"src/contracts/EtherniumTcc.sol\":4274:4275  v */\n      dup1\n        /* \"src/contracts/EtherniumTcc.sol\":4274:4281  v.exist */\n      0x00\n      add\n      0x00\n      swap1\n      sload\n      swap1\n      0x0100\n      exp\n      swap1\n      div\n      0xff\n      and\n        /* \"src/contracts/EtherniumTcc.sol\":4266:4306  require(v.exist, \"Vault does not exist\") */\n      tag_79\n      jumpi\n      mload(0x40)\n      0x08c379a000000000000000000000000000000000000000000000000000000000\n      dup2\n      mstore\n      0x04\n      add\n      tag_80\n      swap1\n      tag_81\n      jump\t// in\n    tag_80:\n      mload(0x40)\n      dup1\n      swap2\n      sub\n      swap1\n      revert\n    tag_79:\n        /* \"src/contracts/EtherniumTcc.sol\":4431:4438  amounts */\n      dup3\n      dup3\n        /* \"src/contracts/EtherniumTcc.sol\":4431:4445  amounts.length */\n      swap1\n      pop\n        /* \"src/contracts/EtherniumTcc.sol\":4410:4420  recipients */\n      dup6\n      dup6\n        /* \"src/contracts/EtherniumTcc.sol\":4410:4427  recipients.length */\n      swap1\n      pop\n        /* \"src/contracts/EtherniumTcc.sol\":4410:4445  recipients.length == amounts.length */\n      eq\n        /* \"src/contracts/EtherniumTcc.sol\":4389:4509  require(... */\n      tag_82\n      jumpi\n      mload(0x40)\n      0x08c379a000000000000000000000000000000000000000000000000000000000\n      dup2\n      mstore\n      0x04\n      add\n      tag_83\n      swap1\n      tag_84\n      jump\t// in\n    tag_83:\n      mload(0x40)\n      dup1\n      swap2\n      sub\n      swap1\n      revert\n    tag_82:\n        /* \"src/contracts/EtherniumTcc.sol\":4566:4585  uint256 totalAmount */\n      0x00\n        /* \"src/contracts/EtherniumTcc.sol\":4588:4589  0 */\n      0x00\n        /* \"src/contracts/EtherniumTcc.sol\":4566:4589  uint256 totalAmount = 0 */\n      swap1\n      pop\n        /* \"src/contracts/EtherniumTcc.sol\":4604:4613  uint256 i */\n      0x00\n        /* \"src/contracts/EtherniumTcc.sol\":4616:4617  0 */\n      0x00\n        /* \"src/contracts/EtherniumTcc.sol\":4604:4617  uint256 i = 0 */\n      swap1\n      pop\n        /* \"src/contracts/EtherniumTcc.sol\":4599:4707  for (uint256 i = 0; i < amounts.length; i++) {... */\n    tag_85:\n        /* \"src/contracts/EtherniumTcc.sol\":4623:4630  amounts */\n      dup5\n      dup5\n        /* \"src/contracts/EtherniumTcc.sol\":4623:4637  amounts.length */\n      swap1\n      pop\n        /* \"src/contracts/EtherniumTcc.sol\":4619:4620  i */\n      dup2\n        /* \"src/contracts/EtherniumTcc.sol\":4619:4637  i < amounts.length */\n      lt\n        /* \"src/contracts/EtherniumTcc.sol\":4599:4707  for (uint256 i = 0; i < amounts.length; i++) {... */\n      iszero\n      tag_86\n      jumpi\n        /* \"src/contracts/EtherniumTcc.sol\":4686:4693  amounts */\n      dup5\n      dup5\n        /* \"src/contracts/EtherniumTcc.sol\":4694:4695  i */\n      dup3\n        /* \"src/contracts/EtherniumTcc.sol\":4686:4696  amounts[i] */\n      dup2\n      dup2\n      lt\n      tag_88\n      jumpi\n      tag_89\n      tag_90\n      jump\t// in\n    tag_89:\n    tag_88:\n      swap1\n      pop\n      0x20\n      mul\n      add\n      calldataload\n        /* \"src/contracts/EtherniumTcc.sol\":4672:4683  totalAmount */\n      dup3\n        /* \"src/contracts/EtherniumTcc.sol\":4672:4696  totalAmount + amounts[i] */\n      tag_91\n      swap2\n      swap1\n      tag_92\n      jump\t// in\n    tag_91:\n        /* \"src/contracts/EtherniumTcc.sol\":4658:4696  totalAmount = totalAmount + amounts[i] */\n      swap2\n      pop\n        /* \"src/contracts/EtherniumTcc.sol\":4639:4642  i++ */\n      dup1\n      dup1\n      0x01\n      add\n      swap2\n      pop\n      pop\n        /* \"src/contracts/EtherniumTcc.sol\":4599:4707  for (uint256 i = 0; i < amounts.length; i++) {... */\n      jump(tag_85)\n    tag_86:\n      pop\n        /* \"src/contracts/EtherniumTcc.sol\":4790:4801  totalAmount */\n      dup1\n        /* \"src/contracts/EtherniumTcc.sol\":4777:4778  v */\n      dup3\n        /* \"src/contracts/EtherniumTcc.sol\":4777:4786  v.balance */\n      0x01\n      add\n      sload\n        /* \"src/contracts/EtherniumTcc.sol\":4777:4801  v.balance == totalAmount */\n      eq\n        /* \"src/contracts/EtherniumTcc.sol\":4769:4831  require(v.balance == totalAmount, \"Insufficient ETH in vault\") */\n      tag_93\n      jumpi\n      mload(0x40)\n      0x08c379a000000000000000000000000000000000000000000000000000000000\n      dup2\n      mstore\n      0x04\n      add\n      tag_94\n      swap1\n      tag_95\n      jump\t// in\n    tag_94:\n      mload(0x40)\n      dup1\n      swap2\n      sub\n      swap1\n      revert\n    tag_93:\n        /* \"src/contracts/EtherniumTcc.sol\":4889:4900  totalAmount */\n      dup1\n        /* \"src/contracts/EtherniumTcc.sol\":4876:4877  v */\n      dup3\n        /* \"src/contracts/EtherniumTcc.sol\":4876:4885  v.balance */\n      0x01\n      add\n      0x00\n        /* \"src/contracts/EtherniumTcc.sol\":4876:4900  v.balance -= totalAmount */\n      dup3\n      dup3\n      sload\n      tag_96\n      swap2\n      swap1\n      tag_97\n      jump\t// in\n    tag_96:\n      swap3\n      pop\n      pop\n      dup2\n      swap1\n      sstore\n      pop\n        /* \"src/contracts/EtherniumTcc.sol\":4971:4977  uint i */\n      0x00\n        /* \"src/contracts/EtherniumTcc.sol\":4980:4981  0 */\n      0x00\n        /* \"src/contracts/EtherniumTcc.sol\":4971:4981  uint i = 0 */\n      swap1\n      pop\n        /* \"src/contracts/EtherniumTcc.sol\":4966:5139  for (uint i = 0; i < recipients.length; i++) {... */\n    tag_98:\n        /* \"src/contracts/EtherniumTcc.sol\":4987:4997  recipients */\n      dup7\n      dup7\n        /* \"src/contracts/EtherniumTcc.sol\":4987:5004  recipients.length */\n      swap1\n      pop\n        /* \"src/contracts/EtherniumTcc.sol\":4983:4984  i */\n      dup2\n        /* \"src/contracts/EtherniumTcc.sol\":4983:5004  i < recipients.length */\n      lt\n        /* \"src/contracts/EtherniumTcc.sol\":4966:5139  for (uint i = 0; i < recipients.length; i++) {... */\n      iszero\n      tag_99\n      jumpi\n        /* \"src/contracts/EtherniumTcc.sol\":5026:5033  bool ok */\n      0x00\n        /* \"src/contracts/EtherniumTcc.sol\":5039:5049  recipients */\n      dup8\n      dup8\n        /* \"src/contracts/EtherniumTcc.sol\":5050:5051  i */\n      dup4\n        /* \"src/contracts/EtherniumTcc.sol\":5039:5052  recipients[i] */\n      dup2\n      dup2\n      lt\n      tag_101\n      jumpi\n      tag_102\n      tag_90\n      jump\t// in\n    tag_102:\n    tag_101:\n      swap1\n      pop\n      0x20\n      mul\n      add\n      0x20\n      dup2\n      add\n      swap1\n      tag_103\n      swap2\n      swap1\n      tag_24\n      jump\t// in\n    tag_103:\n        /* \"src/contracts/EtherniumTcc.sol\":5039:5057  recipients[i].call */\n      0xffffffffffffffffffffffffffffffffffffffff\n      and\n        /* \"src/contracts/EtherniumTcc.sol\":5065:5072  amounts */\n      dup7\n      dup7\n        /* \"src/contracts/EtherniumTcc.sol\":5073:5074  i */\n      dup5\n        /* \"src/contracts/EtherniumTcc.sol\":5065:5075  amounts[i] */\n      dup2\n      dup2\n      lt\n      tag_104\n      jumpi\n      tag_105\n      tag_90\n      jump\t// in\n    tag_105:\n    tag_104:\n      swap1\n      pop\n      0x20\n      mul\n      add\n      calldataload\n        /* \"src/contracts/EtherniumTcc.sol\":5039:5080  recipients[i].call{value: amounts[i]}(\"\") */\n      mload(0x40)\n      tag_106\n      swap1\n      tag_56\n      jump\t// in\n    tag_106:\n      0x00\n      mload(0x40)\n      dup1\n      dup4\n      sub\n      dup2\n      dup6\n      dup8\n      gas\n      call\n      swap3\n      pop\n      pop\n      pop\n      returndatasize\n      dup1\n      0x00\n      dup2\n      eq\n      tag_109\n      jumpi\n      mload(0x40)\n      swap2\n      pop\n      and(add(returndatasize, 0x3f), not(0x1f))\n      dup3\n      add\n      0x40\n      mstore\n      returndatasize\n      dup3\n      mstore\n      returndatasize\n      0x00\n      0x20\n      dup5\n      add\n      returndatacopy\n      jump(tag_108)\n    tag_109:\n      0x60\n      swap2\n      pop\n    tag_108:\n      pop\n        /* \"src/contracts/EtherniumTcc.sol\":5025:5080  (bool ok, ) = recipients[i].call{value: amounts[i]}(\"\") */\n      pop\n      swap1\n      pop\n        /* \"src/contracts/EtherniumTcc.sol\":5102:5104  ok */\n      dup1\n        /* \"src/contracts/EtherniumTcc.sol\":5094:5128  require(ok, \"ETH transfer failed\") */\n      tag_110\n      jumpi\n      mload(0x40)\n      0x08c379a000000000000000000000000000000000000000000000000000000000\n      dup2\n      mstore\n      0x04\n      add\n      tag_111\n      swap1\n      tag_62\n      jump\t// in\n    tag_111:\n      mload(0x40)\n      dup1\n      swap2\n      sub\n      swap1\n      revert\n    tag_110:\n        /* \"src/contracts/EtherniumTcc.sol\":5011:5139  {... */\n      pop\n        /* \"src/contracts/EtherniumTcc.sol\":5006:5009  i++ */\n      dup1\n      dup1\n      0x01\n      add\n      swap2\n      pop\n      pop\n        /* \"src/contracts/EtherniumTcc.sol\":4966:5139  for (uint i = 0; i < recipients.length; i++) {... */\n      jump(tag_98)\n    tag_99:\n      pop\n        /* \"src/contracts/EtherniumTcc.sol\":5171:5179  testator */\n      dup7\n        /* \"src/contracts/EtherniumTcc.sol\":5154:5201  VaultDistributed(testator, recipients, amounts) */\n      0xffffffffffffffffffffffffffffffffffffffff\n      and\n      0xce42f76f0cf784c9e92d84110f5600137af202cb073bf235196d5c7e6ce9c15e\n        /* \"src/contracts/EtherniumTcc.sol\":5181:5191  recipients */\n      dup8\n      dup8\n        /* \"src/contracts/EtherniumTcc.sol\":5193:5200  amounts */\n      dup8\n      dup8\n        /* \"src/contracts/EtherniumTcc.sol\":5154:5201  VaultDistributed(testator, recipients, amounts) */\n      mload(0x40)\n      tag_112\n      swap5\n      swap4\n      swap3\n      swap2\n      swap1\n      tag_113\n      jump\t// in\n    tag_112:\n      mload(0x40)\n      dup1\n      swap2\n      sub\n      swap1\n      log2\n        /* \"src/contracts/EtherniumTcc.sol\":4041:5208  {... */\n      pop\n      pop\n        /* \"src/contracts/EtherniumTcc.sol\":3900:5208  function distributeVault(... */\n      pop\n      pop\n      pop\n      pop\n      pop\n      jump\t// out\n        /* \"src/contracts/EtherniumTcc.sol\":2827:3103  function vaultBalance(address testator) external view returns (uint256) {... */\n    tag_41:\n        /* \"src/contracts/EtherniumTcc.sol\":2890:2897  uint256 */\n      0x00\n        /* \"src/contracts/EtherniumTcc.sol\":2931:2939  deployer */\n      immutable(\"0x8b953cbb84328003779eb1ef176ef07f7dd0ae3d4a8e408de53d15a36466c86e\")\n        /* \"src/contracts/EtherniumTcc.sol\":2917:2939  msg.sender == deployer */\n      0xffffffffffffffffffffffffffffffffffffffff\n      and\n        /* \"src/contracts/EtherniumTcc.sol\":2917:2927  msg.sender */\n      caller\n        /* \"src/contracts/EtherniumTcc.sol\":2917:2939  msg.sender == deployer */\n      0xffffffffffffffffffffffffffffffffffffffff\n      and\n      eq\n        /* \"src/contracts/EtherniumTcc.sol\":2909:2980  require(msg.sender == deployer, \"Only deployer can call this function\") */\n      tag_115\n      jumpi\n      mload(0x40)\n      0x08c379a000000000000000000000000000000000000000000000000000000000\n      dup2\n      mstore\n      0x04\n      add\n      tag_116\n      swap1\n      tag_54\n      jump\t// in\n    tag_116:\n      mload(0x40)\n      dup1\n      swap2\n      sub\n      swap1\n      revert\n    tag_115:\n        /* \"src/contracts/EtherniumTcc.sol\":2998:3017  vaultCreatedAndPaid */\n      0x01\n        /* \"src/contracts/EtherniumTcc.sol\":2998:3027  vaultCreatedAndPaid[testator] */\n      0x00\n        /* \"src/contracts/EtherniumTcc.sol\":3018:3026  testator */\n      dup4\n        /* \"src/contracts/EtherniumTcc.sol\":2998:3027  vaultCreatedAndPaid[testator] */\n      0xffffffffffffffffffffffffffffffffffffffff\n      and\n      0xffffffffffffffffffffffffffffffffffffffff\n      and\n      dup2\n      mstore\n      0x20\n      add\n      swap1\n      dup2\n      mstore\n      0x20\n      add\n      0x00\n      keccak256\n      0x00\n      swap1\n      sload\n      swap1\n      0x0100\n      exp\n      swap1\n      div\n      0xff\n      and\n        /* \"src/contracts/EtherniumTcc.sol\":2990:3052  require(vaultCreatedAndPaid[testator], \"Vault does not exist\") */\n      tag_117\n      jumpi\n      mload(0x40)\n      0x08c379a000000000000000000000000000000000000000000000000000000000\n      dup2\n      mstore\n      0x04\n      add\n      tag_118\n      swap1\n      tag_81\n      jump\t// in\n    tag_118:\n      mload(0x40)\n      dup1\n      swap2\n      sub\n      swap1\n      revert\n    tag_117:\n        /* \"src/contracts/EtherniumTcc.sol\":3069:3078  testators */\n      0x00\n        /* \"src/contracts/EtherniumTcc.sol\":3069:3088  testators[testator] */\n      0x00\n        /* \"src/contracts/EtherniumTcc.sol\":3079:3087  testator */\n      dup4\n        /* \"src/contracts/EtherniumTcc.sol\":3069:3088  testators[testator] */\n      0xffffffffffffffffffffffffffffffffffffffff\n      and\n      0xffffffffffffffffffffffffffffffffffffffff\n      and\n      dup2\n      mstore\n      0x20\n      add\n      swap1\n      dup2\n      mstore\n      0x20\n      add\n      0x00\n      keccak256\n        /* \"src/contracts/EtherniumTcc.sol\":3069:3096  testators[testator].balance */\n      0x01\n      add\n      sload\n        /* \"src/contracts/EtherniumTcc.sol\":3062:3096  return testators[testator].balance */\n      swap1\n      pop\n        /* \"src/contracts/EtherniumTcc.sol\":2827:3103  function vaultBalance(address testator) external view returns (uint256) {... */\n      swap2\n      swap1\n      pop\n      jump\t// out\n        /* \"src/contracts/EtherniumTcc.sol\":3191:3578  function withdrawETH(uint256 amount) external {... */\n    tag_47:\n        /* \"src/contracts/EtherniumTcc.sol\":3247:3262  Vault storage v */\n      0x00\n        /* \"src/contracts/EtherniumTcc.sol\":3265:3274  testators */\n      0x00\n        /* \"src/contracts/EtherniumTcc.sol\":3265:3286  testators[msg.sender] */\n      0x00\n        /* \"src/contracts/EtherniumTcc.sol\":3275:3285  msg.sender */\n      caller\n        /* \"src/contracts/EtherniumTcc.sol\":3265:3286  testators[msg.sender] */\n      0xffffffffffffffffffffffffffffffffffffffff\n      and\n      0xffffffffffffffffffffffffffffffffffffffff\n      and\n      dup2\n      mstore\n      0x20\n      add\n      swap1\n      dup2\n      mstore\n      0x20\n      add\n      0x00\n      keccak256\n        /* \"src/contracts/EtherniumTcc.sol\":3247:3286  Vault storage v = testators[msg.sender] */\n      swap1\n      pop\n        /* \"src/contracts/EtherniumTcc.sol\":3304:3305  v */\n      dup1\n        /* \"src/contracts/EtherniumTcc.sol\":3304:3311  v.exist */\n      0x00\n      add\n      0x00\n      swap1\n      sload\n      swap1\n      0x0100\n      exp\n      swap1\n      div\n      0xff\n      and\n        /* \"src/contracts/EtherniumTcc.sol\":3296:3336  require(v.exist, \"Vault does not exist\") */\n      tag_120\n      jumpi\n      mload(0x40)\n      0x08c379a000000000000000000000000000000000000000000000000000000000\n      dup2\n      mstore\n      0x04\n      add\n      tag_121\n      swap1\n      tag_81\n      jump\t// in\n    tag_121:\n      mload(0x40)\n      dup1\n      swap2\n      sub\n      swap1\n      revert\n    tag_120:\n        /* \"src/contracts/EtherniumTcc.sol\":3367:3373  amount */\n      dup2\n        /* \"src/contracts/EtherniumTcc.sol\":3354:3355  v */\n      dup2\n        /* \"src/contracts/EtherniumTcc.sol\":3354:3363  v.balance */\n      0x01\n      add\n      sload\n        /* \"src/contracts/EtherniumTcc.sol\":3354:3373  v.balance >= amount */\n      lt\n      iszero\n        /* \"src/contracts/EtherniumTcc.sol\":3346:3394  require(v.balance >= amount, \"Insufficient ETH\") */\n      tag_122\n      jumpi\n      mload(0x40)\n      0x08c379a000000000000000000000000000000000000000000000000000000000\n      dup2\n      mstore\n      0x04\n      add\n      tag_123\n      swap1\n      tag_124\n      jump\t// in\n    tag_123:\n      mload(0x40)\n      dup1\n      swap2\n      sub\n      swap1\n      revert\n    tag_122:\n        /* \"src/contracts/EtherniumTcc.sol\":3418:3424  amount */\n      dup2\n        /* \"src/contracts/EtherniumTcc.sol\":3405:3406  v */\n      dup2\n        /* \"src/contracts/EtherniumTcc.sol\":3405:3414  v.balance */\n      0x01\n      add\n      0x00\n        /* \"src/contracts/EtherniumTcc.sol\":3405:3424  v.balance -= amount */\n      dup3\n      dup3\n      sload\n      tag_125\n      swap2\n      swap1\n      tag_97\n      jump\t// in\n    tag_125:\n      swap3\n      pop\n      pop\n      dup2\n      swap1\n      sstore\n      pop\n        /* \"src/contracts/EtherniumTcc.sol\":3436:3443  bool ok */\n      0x00\n        /* \"src/contracts/EtherniumTcc.sol\":3449:3459  msg.sender */\n      caller\n        /* \"src/contracts/EtherniumTcc.sol\":3449:3464  msg.sender.call */\n      0xffffffffffffffffffffffffffffffffffffffff\n      and\n        /* \"src/contracts/EtherniumTcc.sol\":3472:3478  amount */\n      dup4\n        /* \"src/contracts/EtherniumTcc.sol\":3449:3483  msg.sender.call{value: amount}(\"\") */\n      mload(0x40)\n      tag_126\n      swap1\n      tag_56\n      jump\t// in\n    tag_126:\n      0x00\n      mload(0x40)\n      dup1\n      dup4\n      sub\n      dup2\n      dup6\n      dup8\n      gas\n      call\n      swap3\n      pop\n      pop\n      pop\n      returndatasize\n      dup1\n      0x00\n      dup2\n      eq\n      tag_129\n      jumpi\n      mload(0x40)\n      swap2\n      pop\n      and(add(returndatasize, 0x3f), not(0x1f))\n      dup3\n      add\n      0x40\n      mstore\n      returndatasize\n      dup3\n      mstore\n      returndatasize\n      0x00\n      0x20\n      dup5\n      add\n      returndatacopy\n      jump(tag_128)\n    tag_129:\n      0x60\n      swap2\n      pop\n    tag_128:\n      pop\n        /* \"src/contracts/EtherniumTcc.sol\":3435:3483  (bool ok, ) = msg.sender.call{value: amount}(\"\") */\n      pop\n      swap1\n      pop\n        /* \"src/contracts/EtherniumTcc.sol\":3501:3503  ok */\n      dup1\n        /* \"src/contracts/EtherniumTcc.sol\":3493:3527  require(ok, \"ETH transfer failed\") */\n      tag_130\n      jumpi\n      mload(0x40)\n      0x08c379a000000000000000000000000000000000000000000000000000000000\n      dup2\n      mstore\n      0x04\n      add\n      tag_131\n      swap1\n      tag_62\n      jump\t// in\n    tag_131:\n      mload(0x40)\n      dup1\n      swap2\n      sub\n      swap1\n      revert\n    tag_130:\n        /* \"src/contracts/EtherniumTcc.sol\":3552:3562  msg.sender */\n      caller\n        /* \"src/contracts/EtherniumTcc.sol\":3543:3571  Withdraw(msg.sender, amount) */\n      0xffffffffffffffffffffffffffffffffffffffff\n      and\n      0x884edad9ce6fa2440d8a54cc123490eb96d2768479d49ff9c7366125a9424364\n        /* \"src/contracts/EtherniumTcc.sol\":3564:3570  amount */\n      dup5\n        /* \"src/contracts/EtherniumTcc.sol\":3543:3571  Withdraw(msg.sender, amount) */\n      mload(0x40)\n      tag_132\n      swap2\n      swap1\n      tag_20\n      jump\t// in\n    tag_132:\n      mload(0x40)\n      dup1\n      swap2\n      sub\n      swap1\n      log2\n        /* \"src/contracts/EtherniumTcc.sol\":3237:3578  {... */\n      pop\n      pop\n        /* \"src/contracts/EtherniumTcc.sol\":3191:3578  function withdrawETH(uint256 amount) external {... */\n      pop\n      jump\t// out\n        /* \"src/contracts/EtherniumTcc.sol\":2335:2821  function depositETH() external payable {... */\n    tag_49:\n        /* \"src/contracts/EtherniumTcc.sol\":2392:2411  vaultCreatedAndPaid */\n      0x01\n        /* \"src/contracts/EtherniumTcc.sol\":2392:2423  vaultCreatedAndPaid[msg.sender] */\n      0x00\n        /* \"src/contracts/EtherniumTcc.sol\":2412:2422  msg.sender */\n      caller\n        /* \"src/contracts/EtherniumTcc.sol\":2392:2423  vaultCreatedAndPaid[msg.sender] */\n      0xffffffffffffffffffffffffffffffffffffffff\n      and\n      0xffffffffffffffffffffffffffffffffffffffff\n      and\n      dup2\n      mstore\n      0x20\n      add\n      swap1\n      dup2\n      mstore\n      0x20\n      add\n      0x00\n      keccak256\n      0x00\n      swap1\n      sload\n      swap1\n      0x0100\n      exp\n      swap1\n      div\n      0xff\n      and\n        /* \"src/contracts/EtherniumTcc.sol\":2384:2446  require(vaultCreatedAndPaid[msg.sender], \"Create vault first\") */\n      tag_134\n      jumpi\n      mload(0x40)\n      0x08c379a000000000000000000000000000000000000000000000000000000000\n      dup2\n      mstore\n      0x04\n      add\n      tag_135\n      swap1\n      tag_136\n      jump\t// in\n    tag_135:\n      mload(0x40)\n      dup1\n      swap2\n      sub\n      swap1\n      revert\n    tag_134:\n        /* \"src/contracts/EtherniumTcc.sol\":2476:2477  0 */\n      0x00\n        /* \"src/contracts/EtherniumTcc.sol\":2464:2473  msg.value */\n      callvalue\n        /* \"src/contracts/EtherniumTcc.sol\":2464:2477  msg.value > 0 */\n      gt\n        /* \"src/contracts/EtherniumTcc.sol\":2456:2493  require(msg.value > 0, \"No ETH sent\") */\n      tag_137\n      jumpi\n      mload(0x40)\n      0x08c379a000000000000000000000000000000000000000000000000000000000\n      dup2\n      mstore\n      0x04\n      add\n      tag_138\n      swap1\n      tag_139\n      jump\t// in\n    tag_138:\n      mload(0x40)\n      dup1\n      swap2\n      sub\n      swap1\n      revert\n    tag_137:\n        /* \"src/contracts/EtherniumTcc.sol\":2503:2527  _ensureVault(msg.sender) */\n      tag_140\n        /* \"src/contracts/EtherniumTcc.sol\":2516:2526  msg.sender */\n      caller\n        /* \"src/contracts/EtherniumTcc.sol\":2503:2515  _ensureVault */\n      tag_141\n        /* \"src/contracts/EtherniumTcc.sol\":2503:2527  _ensureVault(msg.sender) */\n      jump\t// in\n    tag_140:\n        /* \"src/contracts/EtherniumTcc.sol\":2538:2549  uint256 fee */\n      0x00\n        /* \"src/contracts/EtherniumTcc.sol\":377:382  10000 */\n      0x2710\n        /* \"src/contracts/EtherniumTcc.sol\":2552:2599  (msg.value * DEPOSIT_FEE_BPS) / BPS_DENOMINATOR */\n      0xffff\n      and\n        /* \"src/contracts/EtherniumTcc.sol\":307:309  50 */\n      0x32\n        /* \"src/contracts/EtherniumTcc.sol\":2553:2580  msg.value * DEPOSIT_FEE_BPS */\n      0xffff\n      and\n        /* \"src/contracts/EtherniumTcc.sol\":2553:2562  msg.value */\n      callvalue\n        /* \"src/contracts/EtherniumTcc.sol\":2553:2580  msg.value * DEPOSIT_FEE_BPS */\n      tag_142\n      swap2\n      swap1\n      tag_143\n      jump\t// in\n    tag_142:\n        /* \"src/contracts/EtherniumTcc.sol\":2552:2599  (msg.value * DEPOSIT_FEE_BPS) / BPS_DENOMINATOR */\n      tag_144\n      swap2\n      swap1\n      tag_145\n      jump\t// in\n    tag_144:\n        /* \"src/contracts/EtherniumTcc.sol\":2538:2599  uint256 fee = (msg.value * DEPOSIT_FEE_BPS) / BPS_DENOMINATOR */\n      swap1\n      pop\n        /* \"src/contracts/EtherniumTcc.sol\":2609:2620  uint256 net */\n      0x00\n        /* \"src/contracts/EtherniumTcc.sol\":2635:2638  fee */\n      dup2\n        /* \"src/contracts/EtherniumTcc.sol\":2623:2632  msg.value */\n      callvalue\n        /* \"src/contracts/EtherniumTcc.sol\":2623:2638  msg.value - fee */\n      tag_146\n      swap2\n      swap1\n      tag_97\n      jump\t// in\n    tag_146:\n        /* \"src/contracts/EtherniumTcc.sol\":2609:2638  uint256 net = msg.value - fee */\n      swap1\n      pop\n        /* \"src/contracts/EtherniumTcc.sol\":2662:2663  0 */\n      0x00\n        /* \"src/contracts/EtherniumTcc.sol\":2656:2659  net */\n      dup2\n        /* \"src/contracts/EtherniumTcc.sol\":2656:2663  net > 0 */\n      gt\n        /* \"src/contracts/EtherniumTcc.sol\":2648:2679  require(net > 0, \"Net is zero\") */\n      tag_147\n      jumpi\n      mload(0x40)\n      0x08c379a000000000000000000000000000000000000000000000000000000000\n      dup2\n      mstore\n      0x04\n      add\n      tag_148\n      swap1\n      tag_149\n      jump\t// in\n    tag_148:\n      mload(0x40)\n      dup1\n      swap2\n      sub\n      swap1\n      revert\n    tag_147:\n        /* \"src/contracts/EtherniumTcc.sol\":2699:2724  _creditContractVault(fee) */\n      tag_150\n        /* \"src/contracts/EtherniumTcc.sol\":2720:2723  fee */\n      dup3\n        /* \"src/contracts/EtherniumTcc.sol\":2699:2719  _creditContractVault */\n      tag_72\n        /* \"src/contracts/EtherniumTcc.sol\":2699:2724  _creditContractVault(fee) */\n      jump\t// in\n    tag_150:\n        /* \"src/contracts/EtherniumTcc.sol\":2735:2759  _credit(msg.sender, net) */\n      tag_151\n        /* \"src/contracts/EtherniumTcc.sol\":2743:2753  msg.sender */\n      caller\n        /* \"src/contracts/EtherniumTcc.sol\":2755:2758  net */\n      dup3\n        /* \"src/contracts/EtherniumTcc.sol\":2735:2742  _credit */\n      tag_152\n        /* \"src/contracts/EtherniumTcc.sol\":2735:2759  _credit(msg.sender, net) */\n      jump\t// in\n    tag_151:\n        /* \"src/contracts/EtherniumTcc.sol\":2782:2792  msg.sender */\n      caller\n        /* \"src/contracts/EtherniumTcc.sol\":2774:2814  Deposit(msg.sender, msg.value, fee, net) */\n      0xffffffffffffffffffffffffffffffffffffffff\n      and\n      0x36af321ec8d3c75236829c5317affd40ddb308863a1236d2d277a4025cccee1e\n        /* \"src/contracts/EtherniumTcc.sol\":2794:2803  msg.value */\n      callvalue\n        /* \"src/contracts/EtherniumTcc.sol\":2805:2808  fee */\n      dup5\n        /* \"src/contracts/EtherniumTcc.sol\":2810:2813  net */\n      dup5\n        /* \"src/contracts/EtherniumTcc.sol\":2774:2814  Deposit(msg.sender, msg.value, fee, net) */\n      mload(0x40)\n      tag_153\n      swap4\n      swap3\n      swap2\n      swap1\n      tag_154\n      jump\t// in\n    tag_153:\n      mload(0x40)\n      dup1\n      swap2\n      sub\n      swap1\n      log2\n        /* \"src/contracts/EtherniumTcc.sol\":2374:2821  {... */\n      pop\n      pop\n        /* \"src/contracts/EtherniumTcc.sol\":2335:2821  function depositETH() external payable {... */\n      jump\t// out\n        /* \"src/contracts/EtherniumTcc.sol\":6125:6301  function _creditContractVault(uint256 amount) internal {... */\n    tag_72:\n        /* \"src/contracts/EtherniumTcc.sol\":6204:6205  0 */\n      0x00\n        /* \"src/contracts/EtherniumTcc.sol\":6194:6200  amount */\n      dup2\n        /* \"src/contracts/EtherniumTcc.sol\":6194:6205  amount == 0 */\n      sub\n        /* \"src/contracts/EtherniumTcc.sol\":6190:6214  if (amount == 0) return; */\n      iszero\n        /* \"src/contracts/EtherniumTcc.sol\":6207:6214  return; */\n      tag_155\n        /* \"src/contracts/EtherniumTcc.sol\":6190:6214  if (amount == 0) return; */\n      jumpi\n        /* \"src/contracts/EtherniumTcc.sol\":6250:6256  amount */\n      dup1\n        /* \"src/contracts/EtherniumTcc.sol\":6223:6238  vaultOfContract */\n      0x02\n        /* \"src/contracts/EtherniumTcc.sol\":6223:6246  vaultOfContract.balance */\n      0x01\n      add\n      0x00\n        /* \"src/contracts/EtherniumTcc.sol\":6223:6256  vaultOfContract.balance += amount */\n      dup3\n      dup3\n      sload\n      tag_157\n      swap2\n      swap1\n      tag_92\n      jump\t// in\n    tag_157:\n      swap3\n      pop\n      pop\n      dup2\n      swap1\n      sstore\n      pop\n        /* \"src/contracts/EtherniumTcc.sol\":6290:6294  true */\n      0x01\n        /* \"src/contracts/EtherniumTcc.sol\":6266:6281  vaultOfContract */\n      0x02\n        /* \"src/contracts/EtherniumTcc.sol\":6266:6287  vaultOfContract.exist */\n      0x00\n      add\n      0x00\n        /* \"src/contracts/EtherniumTcc.sol\":6266:6294  vaultOfContract.exist = true */\n      0x0100\n      exp\n      dup2\n      sload\n      dup2\n      0xff\n      mul\n      not\n      and\n      swap1\n      dup4\n      iszero\n      iszero\n      mul\n      or\n      swap1\n      sstore\n      pop\n        /* \"src/contracts/EtherniumTcc.sol\":6125:6301  function _creditContractVault(uint256 amount) internal {... */\n    tag_155:\n      pop\n      jump\t// out\n        /* \"src/contracts/EtherniumTcc.sol\":5708:5914  function _ensureVault(address testator) internal {... */\n    tag_141:\n        /* \"src/contracts/EtherniumTcc.sol\":5767:5782  Vault storage v */\n      0x00\n        /* \"src/contracts/EtherniumTcc.sol\":5785:5794  testators */\n      0x00\n        /* \"src/contracts/EtherniumTcc.sol\":5785:5804  testators[testator] */\n      0x00\n        /* \"src/contracts/EtherniumTcc.sol\":5795:5803  testator */\n      dup4\n        /* \"src/contracts/EtherniumTcc.sol\":5785:5804  testators[testator] */\n      0xffffffffffffffffffffffffffffffffffffffff\n      and\n      0xffffffffffffffffffffffffffffffffffffffff\n      and\n      dup2\n      mstore\n      0x20\n      add\n      swap1\n      dup2\n      mstore\n      0x20\n      add\n      0x00\n      keccak256\n        /* \"src/contracts/EtherniumTcc.sol\":5767:5804  Vault storage v = testators[testator] */\n      swap1\n      pop\n        /* \"src/contracts/EtherniumTcc.sol\":5819:5820  v */\n      dup1\n        /* \"src/contracts/EtherniumTcc.sol\":5819:5826  v.exist */\n      0x00\n      add\n      0x00\n      swap1\n      sload\n      swap1\n      0x0100\n      exp\n      swap1\n      div\n      0xff\n      and\n        /* \"src/contracts/EtherniumTcc.sol\":5814:5908  if (!v.exist) {... */\n      tag_159\n      jumpi\n        /* \"src/contracts/EtherniumTcc.sol\":5852:5856  true */\n      0x01\n        /* \"src/contracts/EtherniumTcc.sol\":5842:5843  v */\n      dup2\n        /* \"src/contracts/EtherniumTcc.sol\":5842:5849  v.exist */\n      0x00\n      add\n      0x00\n        /* \"src/contracts/EtherniumTcc.sol\":5842:5856  v.exist = true */\n      0x0100\n      exp\n      dup2\n      sload\n      dup2\n      0xff\n      mul\n      not\n      and\n      swap1\n      dup4\n      iszero\n      iszero\n      mul\n      or\n      swap1\n      sstore\n      pop\n        /* \"src/contracts/EtherniumTcc.sol\":5888:5896  testator */\n      dup2\n        /* \"src/contracts/EtherniumTcc.sol\":5875:5897  VaultCreated(testator) */\n      0xffffffffffffffffffffffffffffffffffffffff\n      and\n      0x2e49a5810fda2439a23771848b4acec786b0a64d4de3d124ac57fc8739c38875\n      mload(0x40)\n      mload(0x40)\n      dup1\n      swap2\n      sub\n      swap1\n      log2\n        /* \"src/contracts/EtherniumTcc.sol\":5814:5908  if (!v.exist) {... */\n    tag_159:\n        /* \"src/contracts/EtherniumTcc.sol\":5757:5914  {... */\n      pop\n        /* \"src/contracts/EtherniumTcc.sol\":5708:5914  function _ensureVault(address testator) internal {... */\n      pop\n      jump\t// out\n        /* \"src/contracts/EtherniumTcc.sol\":5975:6119  function _credit(address testator, uint256 amount) internal {... */\n    tag_152:\n        /* \"src/contracts/EtherniumTcc.sol\":6045:6060  Vault storage v */\n      0x00\n        /* \"src/contracts/EtherniumTcc.sol\":6063:6072  testators */\n      0x00\n        /* \"src/contracts/EtherniumTcc.sol\":6063:6082  testators[testator] */\n      0x00\n        /* \"src/contracts/EtherniumTcc.sol\":6073:6081  testator */\n      dup5\n        /* \"src/contracts/EtherniumTcc.sol\":6063:6082  testators[testator] */\n      0xffffffffffffffffffffffffffffffffffffffff\n      and\n      0xffffffffffffffffffffffffffffffffffffffff\n      and\n      dup2\n      mstore\n      0x20\n      add\n      swap1\n      dup2\n      mstore\n      0x20\n      add\n      0x00\n      keccak256\n        /* \"src/contracts/EtherniumTcc.sol\":6045:6082  Vault storage v = testators[testator] */\n      swap1\n      pop\n        /* \"src/contracts/EtherniumTcc.sol\":6106:6112  amount */\n      dup2\n        /* \"src/contracts/EtherniumTcc.sol\":6093:6094  v */\n      dup2\n        /* \"src/contracts/EtherniumTcc.sol\":6093:6102  v.balance */\n      0x01\n      add\n      0x00\n        /* \"src/contracts/EtherniumTcc.sol\":6093:6112  v.balance += amount */\n      dup3\n      dup3\n      sload\n      tag_161\n      swap2\n      swap1\n      tag_92\n      jump\t// in\n    tag_161:\n      swap3\n      pop\n      pop\n      dup2\n      swap1\n      sstore\n      pop\n        /* \"src/contracts/EtherniumTcc.sol\":6035:6119  {... */\n      pop\n        /* \"src/contracts/EtherniumTcc.sol\":5975:6119  function _credit(address testator, uint256 amount) internal {... */\n      pop\n      pop\n      jump\t// out\n    tag_74:\n      mload(0x40)\n      dup1\n      0x20\n      add\n      0x40\n      mstore\n      dup1\n      0x00\n      dup2\n      mstore\n      pop\n      swap1\n      jump\t// out\n        /* \"#utility.yul\":7:176   */\n    tag_162:\n        /* \"#utility.yul\":91:102   */\n      0x00\n        /* \"#utility.yul\":125:131   */\n      dup3\n        /* \"#utility.yul\":120:123   */\n      dup3\n        /* \"#utility.yul\":113:132   */\n      mstore\n        /* \"#utility.yul\":165:169   */\n      0x20\n        /* \"#utility.yul\":160:163   */\n      dup3\n        /* \"#utility.yul\":156:170   */\n      add\n        /* \"#utility.yul\":141:170   */\n      swap1\n      pop\n        /* \"#utility.yul\":7:176   */\n      swap3\n      swap2\n      pop\n      pop\n      jump\t// out\n        /* \"#utility.yul\":182:344   */\n    tag_163:\n        /* \"#utility.yul\":322:336   */\n      0x446f6e277420646f206974210000000000000000000000000000000000000000\n        /* \"#utility.yul\":318:319   */\n      0x00\n        /* \"#utility.yul\":310:316   */\n      dup3\n        /* \"#utility.yul\":306:320   */\n      add\n        /* \"#utility.yul\":299:337   */\n      mstore\n        /* \"#utility.yul\":182:344   */\n      pop\n      jump\t// out\n        /* \"#utility.yul\":350:716   */\n    tag_164:\n        /* \"#utility.yul\":492:495   */\n      0x00\n        /* \"#utility.yul\":513:580   */\n      tag_225\n        /* \"#utility.yul\":577:579   */\n      0x0c\n        /* \"#utility.yul\":572:575   */\n      dup4\n        /* \"#utility.yul\":513:580   */\n      tag_162\n      jump\t// in\n    tag_225:\n        /* \"#utility.yul\":506:580   */\n      swap2\n      pop\n        /* \"#utility.yul\":589:682   */\n      tag_226\n        /* \"#utility.yul\":678:681   */\n      dup3\n        /* \"#utility.yul\":589:682   */\n      tag_163\n      jump\t// in\n    tag_226:\n        /* \"#utility.yul\":707:709   */\n      0x20\n        /* \"#utility.yul\":702:705   */\n      dup3\n        /* \"#utility.yul\":698:710   */\n      add\n        /* \"#utility.yul\":691:710   */\n      swap1\n      pop\n        /* \"#utility.yul\":350:716   */\n      swap2\n      swap1\n      pop\n      jump\t// out\n        /* \"#utility.yul\":722:1141   */\n    tag_15:\n        /* \"#utility.yul\":888:892   */\n      0x00\n        /* \"#utility.yul\":926:928   */\n      0x20\n        /* \"#utility.yul\":915:924   */\n      dup3\n        /* \"#utility.yul\":911:929   */\n      add\n        /* \"#utility.yul\":903:929   */\n      swap1\n      pop\n        /* \"#utility.yul\":975:984   */\n      dup2\n        /* \"#utility.yul\":969:973   */\n      dup2\n        /* \"#utility.yul\":965:985   */\n      sub\n        /* \"#utility.yul\":961:962   */\n      0x00\n        /* \"#utility.yul\":950:959   */\n      dup4\n        /* \"#utility.yul\":946:963   */\n      add\n        /* \"#utility.yul\":939:986   */\n      mstore\n        /* \"#utility.yul\":1003:1134   */\n      tag_228\n        /* \"#utility.yul\":1129:1133   */\n      dup2\n        /* \"#utility.yul\":1003:1134   */\n      tag_164\n      jump\t// in\n    tag_228:\n        /* \"#utility.yul\":995:1134   */\n      swap1\n      pop\n        /* \"#utility.yul\":722:1141   */\n      swap2\n      swap1\n      pop\n      jump\t// out\n        /* \"#utility.yul\":1147:1224   */\n    tag_165:\n        /* \"#utility.yul\":1184:1191   */\n      0x00\n        /* \"#utility.yul\":1213:1218   */\n      dup2\n        /* \"#utility.yul\":1202:1218   */\n      swap1\n      pop\n        /* \"#utility.yul\":1147:1224   */\n      swap2\n      swap1\n      pop\n      jump\t// out\n        /* \"#utility.yul\":1230:1348   */\n    tag_166:\n        /* \"#utility.yul\":1317:1341   */\n      tag_231\n        /* \"#utility.yul\":1335:1340   */\n      dup2\n        /* \"#utility.yul\":1317:1341   */\n      tag_165\n      jump\t// in\n    tag_231:\n        /* \"#utility.yul\":1312:1315   */\n      dup3\n        /* \"#utility.yul\":1305:1342   */\n      mstore\n        /* \"#utility.yul\":1230:1348   */\n      pop\n      pop\n      jump\t// out\n        /* \"#utility.yul\":1354:1576   */\n    tag_20:\n        /* \"#utility.yul\":1447:1451   */\n      0x00\n        /* \"#utility.yul\":1485:1487   */\n      0x20\n        /* \"#utility.yul\":1474:1483   */\n      dup3\n        /* \"#utility.yul\":1470:1488   */\n      add\n        /* \"#utility.yul\":1462:1488   */\n      swap1\n      pop\n        /* \"#utility.yul\":1498:1569   */\n      tag_233\n        /* \"#utility.yul\":1566:1567   */\n      0x00\n        /* \"#utility.yul\":1555:1564   */\n      dup4\n        /* \"#utility.yul\":1551:1568   */\n      add\n        /* \"#utility.yul\":1542:1548   */\n      dup5\n        /* \"#utility.yul\":1498:1569   */\n      tag_166\n      jump\t// in\n    tag_233:\n        /* \"#utility.yul\":1354:1576   */\n      swap3\n      swap2\n      pop\n      pop\n      jump\t// out\n        /* \"#utility.yul\":1663:1780   */\n    tag_168:\n        /* \"#utility.yul\":1772:1773   */\n      0x00\n        /* \"#utility.yul\":1769:1770   */\n      0x00\n        /* \"#utility.yul\":1762:1774   */\n      revert\n        /* \"#utility.yul\":1786:1903   */\n    tag_169:\n        /* \"#utility.yul\":1895:1896   */\n      0x00\n        /* \"#utility.yul\":1892:1893   */\n      0x00\n        /* \"#utility.yul\":1885:1897   */\n      revert\n        /* \"#utility.yul\":1909:2035   */\n    tag_170:\n        /* \"#utility.yul\":1946:1953   */\n      0x00\n        /* \"#utility.yul\":1986:2028   */\n      0xffffffffffffffffffffffffffffffffffffffff\n        /* \"#utility.yul\":1979:1984   */\n      dup3\n        /* \"#utility.yul\":1975:2029   */\n      and\n        /* \"#utility.yul\":1964:2029   */\n      swap1\n      pop\n        /* \"#utility.yul\":1909:2035   */\n      swap2\n      swap1\n      pop\n      jump\t// out\n        /* \"#utility.yul\":2041:2137   */\n    tag_171:\n        /* \"#utility.yul\":2078:2085   */\n      0x00\n        /* \"#utility.yul\":2107:2131   */\n      tag_239\n        /* \"#utility.yul\":2125:2130   */\n      dup3\n        /* \"#utility.yul\":2107:2131   */\n      tag_170\n      jump\t// in\n    tag_239:\n        /* \"#utility.yul\":2096:2131   */\n      swap1\n      pop\n        /* \"#utility.yul\":2041:2137   */\n      swap2\n      swap1\n      pop\n      jump\t// out\n        /* \"#utility.yul\":2143:2265   */\n    tag_172:\n        /* \"#utility.yul\":2216:2240   */\n      tag_241\n        /* \"#utility.yul\":2234:2239   */\n      dup2\n        /* \"#utility.yul\":2216:2240   */\n      tag_171\n      jump\t// in\n    tag_241:\n        /* \"#utility.yul\":2209:2214   */\n      dup2\n        /* \"#utility.yul\":2206:2241   */\n      eq\n        /* \"#utility.yul\":2196:2259   */\n      tag_242\n      jumpi\n        /* \"#utility.yul\":2255:2256   */\n      0x00\n        /* \"#utility.yul\":2252:2253   */\n      0x00\n        /* \"#utility.yul\":2245:2257   */\n      revert\n        /* \"#utility.yul\":2196:2259   */\n    tag_242:\n        /* \"#utility.yul\":2143:2265   */\n      pop\n      jump\t// out\n        /* \"#utility.yul\":2271:2410   */\n    tag_173:\n        /* \"#utility.yul\":2317:2322   */\n      0x00\n        /* \"#utility.yul\":2355:2361   */\n      dup2\n        /* \"#utility.yul\":2342:2362   */\n      calldataload\n        /* \"#utility.yul\":2333:2362   */\n      swap1\n      pop\n        /* \"#utility.yul\":2371:2404   */\n      tag_244\n        /* \"#utility.yul\":2398:2403   */\n      dup2\n        /* \"#utility.yul\":2371:2404   */\n      tag_172\n      jump\t// in\n    tag_244:\n        /* \"#utility.yul\":2271:2410   */\n      swap3\n      swap2\n      pop\n      pop\n      jump\t// out\n        /* \"#utility.yul\":2416:2745   */\n    tag_24:\n        /* \"#utility.yul\":2475:2481   */\n      0x00\n        /* \"#utility.yul\":2524:2526   */\n      0x20\n        /* \"#utility.yul\":2512:2521   */\n      dup3\n        /* \"#utility.yul\":2503:2510   */\n      dup5\n        /* \"#utility.yul\":2499:2522   */\n      sub\n        /* \"#utility.yul\":2495:2527   */\n      slt\n        /* \"#utility.yul\":2492:2611   */\n      iszero\n      tag_246\n      jumpi\n        /* \"#utility.yul\":2530:2609   */\n      tag_247\n      tag_168\n      jump\t// in\n    tag_247:\n        /* \"#utility.yul\":2492:2611   */\n    tag_246:\n        /* \"#utility.yul\":2650:2651   */\n      0x00\n        /* \"#utility.yul\":2675:2728   */\n      tag_248\n        /* \"#utility.yul\":2720:2727   */\n      dup5\n        /* \"#utility.yul\":2711:2717   */\n      dup3\n        /* \"#utility.yul\":2700:2709   */\n      dup6\n        /* \"#utility.yul\":2696:2718   */\n      add\n        /* \"#utility.yul\":2675:2728   */\n      tag_173\n      jump\t// in\n    tag_248:\n        /* \"#utility.yul\":2665:2728   */\n      swap2\n      pop\n        /* \"#utility.yul\":2621:2738   */\n      pop\n        /* \"#utility.yul\":2416:2745   */\n      swap3\n      swap2\n      pop\n      pop\n      jump\t// out\n        /* \"#utility.yul\":2751:2859   */\n    tag_174:\n        /* \"#utility.yul\":2828:2852   */\n      tag_250\n        /* \"#utility.yul\":2846:2851   */\n      dup2\n        /* \"#utility.yul\":2828:2852   */\n      tag_165\n      jump\t// in\n    tag_250:\n        /* \"#utility.yul\":2823:2826   */\n      dup3\n        /* \"#utility.yul\":2816:2853   */\n      mstore\n        /* \"#utility.yul\":2751:2859   */\n      pop\n      pop\n      jump\t// out\n        /* \"#utility.yul\":2933:3270   */\n    tag_175:\n        /* \"#utility.yul\":3080:3084   */\n      0x20\n        /* \"#utility.yul\":3075:3078   */\n      dup3\n        /* \"#utility.yul\":3071:3085   */\n      add\n        /* \"#utility.yul\":3171:3175   */\n      0x00\n        /* \"#utility.yul\":3164:3169   */\n      dup3\n        /* \"#utility.yul\":3160:3176   */\n      add\n        /* \"#utility.yul\":3154:3177   */\n      mload\n        /* \"#utility.yul\":3190:3253   */\n      tag_252\n        /* \"#utility.yul\":3247:3251   */\n      0x00\n        /* \"#utility.yul\":3242:3245   */\n      dup6\n        /* \"#utility.yul\":3238:3252   */\n      add\n        /* \"#utility.yul\":3224:3236   */\n      dup3\n        /* \"#utility.yul\":3190:3253   */\n      tag_174\n      jump\t// in\n    tag_252:\n        /* \"#utility.yul\":3095:3263   */\n      pop\n        /* \"#utility.yul\":3049:3270   */\n      pop\n        /* \"#utility.yul\":2933:3270   */\n      pop\n      pop\n      jump\t// out\n        /* \"#utility.yul\":3276:3598   */\n    tag_32:\n        /* \"#utility.yul\":3419:3423   */\n      0x00\n        /* \"#utility.yul\":3457:3459   */\n      0x20\n        /* \"#utility.yul\":3446:3455   */\n      dup3\n        /* \"#utility.yul\":3442:3460   */\n      add\n        /* \"#utility.yul\":3434:3460   */\n      swap1\n      pop\n        /* \"#utility.yul\":3470:3591   */\n      tag_254\n        /* \"#utility.yul\":3588:3589   */\n      0x00\n        /* \"#utility.yul\":3577:3586   */\n      dup4\n        /* \"#utility.yul\":3573:3590   */\n      add\n        /* \"#utility.yul\":3564:3570   */\n      dup5\n        /* \"#utility.yul\":3470:3591   */\n      tag_175\n      jump\t// in\n    tag_254:\n        /* \"#utility.yul\":3276:3598   */\n      swap3\n      swap2\n      pop\n      pop\n      jump\t// out\n        /* \"#utility.yul\":3604:3721   */\n    tag_176:\n        /* \"#utility.yul\":3713:3714   */\n      0x00\n        /* \"#utility.yul\":3710:3711   */\n      0x00\n        /* \"#utility.yul\":3703:3715   */\n      revert\n        /* \"#utility.yul\":3727:3844   */\n    tag_177:\n        /* \"#utility.yul\":3836:3837   */\n      0x00\n        /* \"#utility.yul\":3833:3834   */\n      0x00\n        /* \"#utility.yul\":3826:3838   */\n      revert\n        /* \"#utility.yul\":3850:3967   */\n    tag_178:\n        /* \"#utility.yul\":3959:3960   */\n      0x00\n        /* \"#utility.yul\":3956:3957   */\n      0x00\n        /* \"#utility.yul\":3949:3961   */\n      revert\n        /* \"#utility.yul\":3990:4558   */\n    tag_179:\n        /* \"#utility.yul\":4063:4071   */\n      0x00\n        /* \"#utility.yul\":4073:4079   */\n      0x00\n        /* \"#utility.yul\":4123:4126   */\n      dup4\n        /* \"#utility.yul\":4116:4120   */\n      0x1f\n        /* \"#utility.yul\":4108:4114   */\n      dup5\n        /* \"#utility.yul\":4104:4121   */\n      add\n        /* \"#utility.yul\":4100:4127   */\n      slt\n        /* \"#utility.yul\":4090:4212   */\n      tag_259\n      jumpi\n        /* \"#utility.yul\":4131:4210   */\n      tag_260\n      tag_176\n      jump\t// in\n    tag_260:\n        /* \"#utility.yul\":4090:4212   */\n    tag_259:\n        /* \"#utility.yul\":4244:4250   */\n      dup3\n        /* \"#utility.yul\":4231:4251   */\n      calldataload\n        /* \"#utility.yul\":4221:4251   */\n      swap1\n      pop\n        /* \"#utility.yul\":4274:4292   */\n      0xffffffffffffffff\n        /* \"#utility.yul\":4266:4272   */\n      dup2\n        /* \"#utility.yul\":4263:4293   */\n      gt\n        /* \"#utility.yul\":4260:4377   */\n      iszero\n      tag_261\n      jumpi\n        /* \"#utility.yul\":4296:4375   */\n      tag_262\n      tag_177\n      jump\t// in\n    tag_262:\n        /* \"#utility.yul\":4260:4377   */\n    tag_261:\n        /* \"#utility.yul\":4410:4414   */\n      0x20\n        /* \"#utility.yul\":4402:4408   */\n      dup4\n        /* \"#utility.yul\":4398:4415   */\n      add\n        /* \"#utility.yul\":4386:4415   */\n      swap2\n      pop\n        /* \"#utility.yul\":4464:4467   */\n      dup4\n        /* \"#utility.yul\":4456:4460   */\n      0x20\n        /* \"#utility.yul\":4448:4454   */\n      dup3\n        /* \"#utility.yul\":4444:4461   */\n      mul\n        /* \"#utility.yul\":4434:4442   */\n      dup4\n        /* \"#utility.yul\":4430:4462   */\n      add\n        /* \"#utility.yul\":4427:4468   */\n      gt\n        /* \"#utility.yul\":4424:4552   */\n      iszero\n      tag_263\n      jumpi\n        /* \"#utility.yul\":4471:4550   */\n      tag_264\n      tag_178\n      jump\t// in\n    tag_264:\n        /* \"#utility.yul\":4424:4552   */\n    tag_263:\n        /* \"#utility.yul\":3990:4558   */\n      swap3\n      pop\n      swap3\n      swap1\n      pop\n      jump\t// out\n        /* \"#utility.yul\":4581:5149   */\n    tag_180:\n        /* \"#utility.yul\":4654:4662   */\n      0x00\n        /* \"#utility.yul\":4664:4670   */\n      0x00\n        /* \"#utility.yul\":4714:4717   */\n      dup4\n        /* \"#utility.yul\":4707:4711   */\n      0x1f\n        /* \"#utility.yul\":4699:4705   */\n      dup5\n        /* \"#utility.yul\":4695:4712   */\n      add\n        /* \"#utility.yul\":4691:4718   */\n      slt\n        /* \"#utility.yul\":4681:4803   */\n      tag_266\n      jumpi\n        /* \"#utility.yul\":4722:4801   */\n      tag_267\n      tag_176\n      jump\t// in\n    tag_267:\n        /* \"#utility.yul\":4681:4803   */\n    tag_266:\n        /* \"#utility.yul\":4835:4841   */\n      dup3\n        /* \"#utility.yul\":4822:4842   */\n      calldataload\n        /* \"#utility.yul\":4812:4842   */\n      swap1\n      pop\n        /* \"#utility.yul\":4865:4883   */\n      0xffffffffffffffff\n        /* \"#utility.yul\":4857:4863   */\n      dup2\n        /* \"#utility.yul\":4854:4884   */\n      gt\n        /* \"#utility.yul\":4851:4968   */\n      iszero\n      tag_268\n      jumpi\n        /* \"#utility.yul\":4887:4966   */\n      tag_269\n      tag_177\n      jump\t// in\n    tag_269:\n        /* \"#utility.yul\":4851:4968   */\n    tag_268:\n        /* \"#utility.yul\":5001:5005   */\n      0x20\n        /* \"#utility.yul\":4993:4999   */\n      dup4\n        /* \"#utility.yul\":4989:5006   */\n      add\n        /* \"#utility.yul\":4977:5006   */\n      swap2\n      pop\n        /* \"#utility.yul\":5055:5058   */\n      dup4\n        /* \"#utility.yul\":5047:5051   */\n      0x20\n        /* \"#utility.yul\":5039:5045   */\n      dup3\n        /* \"#utility.yul\":5035:5052   */\n      mul\n        /* \"#utility.yul\":5025:5033   */\n      dup4\n        /* \"#utility.yul\":5021:5053   */\n      add\n        /* \"#utility.yul\":5018:5059   */\n      gt\n        /* \"#utility.yul\":5015:5143   */\n      iszero\n      tag_270\n      jumpi\n        /* \"#utility.yul\":5062:5141   */\n      tag_271\n      tag_178\n      jump\t// in\n    tag_271:\n        /* \"#utility.yul\":5015:5143   */\n    tag_270:\n        /* \"#utility.yul\":4581:5149   */\n      swap3\n      pop\n      swap3\n      swap1\n      pop\n      jump\t// out\n        /* \"#utility.yul\":5155:6234   */\n    tag_36:\n        /* \"#utility.yul\":5286:5292   */\n      0x00\n        /* \"#utility.yul\":5294:5300   */\n      0x00\n        /* \"#utility.yul\":5302:5308   */\n      0x00\n        /* \"#utility.yul\":5310:5316   */\n      0x00\n        /* \"#utility.yul\":5318:5324   */\n      0x00\n        /* \"#utility.yul\":5367:5369   */\n      0x60\n        /* \"#utility.yul\":5355:5364   */\n      dup7\n        /* \"#utility.yul\":5346:5353   */\n      dup9\n        /* \"#utility.yul\":5342:5365   */\n      sub\n        /* \"#utility.yul\":5338:5370   */\n      slt\n        /* \"#utility.yul\":5335:5454   */\n      iszero\n      tag_273\n      jumpi\n        /* \"#utility.yul\":5373:5452   */\n      tag_274\n      tag_168\n      jump\t// in\n    tag_274:\n        /* \"#utility.yul\":5335:5454   */\n    tag_273:\n        /* \"#utility.yul\":5493:5494   */\n      0x00\n        /* \"#utility.yul\":5518:5571   */\n      tag_275\n        /* \"#utility.yul\":5563:5570   */\n      dup9\n        /* \"#utility.yul\":5554:5560   */\n      dup3\n        /* \"#utility.yul\":5543:5552   */\n      dup10\n        /* \"#utility.yul\":5539:5561   */\n      add\n        /* \"#utility.yul\":5518:5571   */\n      tag_173\n      jump\t// in\n    tag_275:\n        /* \"#utility.yul\":5508:5571   */\n      swap6\n      pop\n        /* \"#utility.yul\":5464:5581   */\n      pop\n        /* \"#utility.yul\":5648:5650   */\n      0x20\n        /* \"#utility.yul\":5637:5646   */\n      dup7\n        /* \"#utility.yul\":5633:5651   */\n      add\n        /* \"#utility.yul\":5620:5652   */\n      calldataload\n        /* \"#utility.yul\":5679:5697   */\n      0xffffffffffffffff\n        /* \"#utility.yul\":5671:5677   */\n      dup2\n        /* \"#utility.yul\":5668:5698   */\n      gt\n        /* \"#utility.yul\":5665:5782   */\n      iszero\n      tag_276\n      jumpi\n        /* \"#utility.yul\":5701:5780   */\n      tag_277\n      tag_169\n      jump\t// in\n    tag_277:\n        /* \"#utility.yul\":5665:5782   */\n    tag_276:\n        /* \"#utility.yul\":5814:5894   */\n      tag_278\n        /* \"#utility.yul\":5886:5893   */\n      dup9\n        /* \"#utility.yul\":5877:5883   */\n      dup3\n        /* \"#utility.yul\":5866:5875   */\n      dup10\n        /* \"#utility.yul\":5862:5884   */\n      add\n        /* \"#utility.yul\":5814:5894   */\n      tag_179\n      jump\t// in\n    tag_278:\n        /* \"#utility.yul\":5796:5894   */\n      swap5\n      pop\n      swap5\n      pop\n        /* \"#utility.yul\":5591:5904   */\n      pop\n        /* \"#utility.yul\":5971:5973   */\n      0x40\n        /* \"#utility.yul\":5960:5969   */\n      dup7\n        /* \"#utility.yul\":5956:5974   */\n      add\n        /* \"#utility.yul\":5943:5975   */\n      calldataload\n        /* \"#utility.yul\":6002:6020   */\n      0xffffffffffffffff\n        /* \"#utility.yul\":5994:6000   */\n      dup2\n        /* \"#utility.yul\":5991:6021   */\n      gt\n        /* \"#utility.yul\":5988:6105   */\n      iszero\n      tag_279\n      jumpi\n        /* \"#utility.yul\":6024:6103   */\n      tag_280\n      tag_169\n      jump\t// in\n    tag_280:\n        /* \"#utility.yul\":5988:6105   */\n    tag_279:\n        /* \"#utility.yul\":6137:6217   */\n      tag_281\n        /* \"#utility.yul\":6209:6216   */\n      dup9\n        /* \"#utility.yul\":6200:6206   */\n      dup3\n        /* \"#utility.yul\":6189:6198   */\n      dup10\n        /* \"#utility.yul\":6185:6207   */\n      add\n        /* \"#utility.yul\":6137:6217   */\n      tag_180\n      jump\t// in\n    tag_281:\n        /* \"#utility.yul\":6119:6217   */\n      swap3\n      pop\n      swap3\n      pop\n        /* \"#utility.yul\":5914:6227   */\n      pop\n        /* \"#utility.yul\":5155:6234   */\n      swap3\n      swap6\n      pop\n      swap3\n      swap6\n      swap1\n      swap4\n      pop\n      jump\t// out\n        /* \"#utility.yul\":6240:6362   */\n    tag_181:\n        /* \"#utility.yul\":6313:6337   */\n      tag_283\n        /* \"#utility.yul\":6331:6336   */\n      dup2\n        /* \"#utility.yul\":6313:6337   */\n      tag_165\n      jump\t// in\n    tag_283:\n        /* \"#utility.yul\":6306:6311   */\n      dup2\n        /* \"#utility.yul\":6303:6338   */\n      eq\n        /* \"#utility.yul\":6293:6356   */\n      tag_284\n      jumpi\n        /* \"#utility.yul\":6352:6353   */\n      0x00\n        /* \"#utility.yul\":6349:6350   */\n      0x00\n        /* \"#utility.yul\":6342:6354   */\n      revert\n        /* \"#utility.yul\":6293:6356   */\n    tag_284:\n        /* \"#utility.yul\":6240:6362   */\n      pop\n      jump\t// out\n        /* \"#utility.yul\":6368:6507   */\n    tag_182:\n        /* \"#utility.yul\":6414:6419   */\n      0x00\n        /* \"#utility.yul\":6452:6458   */\n      dup2\n        /* \"#utility.yul\":6439:6459   */\n      calldataload\n        /* \"#utility.yul\":6430:6459   */\n      swap1\n      pop\n        /* \"#utility.yul\":6468:6501   */\n      tag_286\n        /* \"#utility.yul\":6495:6500   */\n      dup2\n        /* \"#utility.yul\":6468:6501   */\n      tag_181\n      jump\t// in\n    tag_286:\n        /* \"#utility.yul\":6368:6507   */\n      swap3\n      swap2\n      pop\n      pop\n      jump\t// out\n        /* \"#utility.yul\":6513:6842   */\n    tag_46:\n        /* \"#utility.yul\":6572:6578   */\n      0x00\n        /* \"#utility.yul\":6621:6623   */\n      0x20\n        /* \"#utility.yul\":6609:6618   */\n      dup3\n        /* \"#utility.yul\":6600:6607   */\n      dup5\n        /* \"#utility.yul\":6596:6619   */\n      sub\n        /* \"#utility.yul\":6592:6624   */\n      slt\n        /* \"#utility.yul\":6589:6708   */\n      iszero\n      tag_288\n      jumpi\n        /* \"#utility.yul\":6627:6706   */\n      tag_289\n      tag_168\n      jump\t// in\n    tag_289:\n        /* \"#utility.yul\":6589:6708   */\n    tag_288:\n        /* \"#utility.yul\":6747:6748   */\n      0x00\n        /* \"#utility.yul\":6772:6825   */\n      tag_290\n        /* \"#utility.yul\":6817:6824   */\n      dup5\n        /* \"#utility.yul\":6808:6814   */\n      dup3\n        /* \"#utility.yul\":6797:6806   */\n      dup6\n        /* \"#utility.yul\":6793:6815   */\n      add\n        /* \"#utility.yul\":6772:6825   */\n      tag_182\n      jump\t// in\n    tag_290:\n        /* \"#utility.yul\":6762:6825   */\n      swap2\n      pop\n        /* \"#utility.yul\":6718:6835   */\n      pop\n        /* \"#utility.yul\":6513:6842   */\n      swap3\n      swap2\n      pop\n      pop\n      jump\t// out\n        /* \"#utility.yul\":6848:7071   */\n    tag_183:\n        /* \"#utility.yul\":6988:7022   */\n      0x4f6e6c79206465706c6f7965722063616e2063616c6c20746869732066756e63\n        /* \"#utility.yul\":6984:6985   */\n      0x00\n        /* \"#utility.yul\":6976:6982   */\n      dup3\n        /* \"#utility.yul\":6972:6986   */\n      add\n        /* \"#utility.yul\":6965:7023   */\n      mstore\n        /* \"#utility.yul\":7057:7063   */\n      0x74696f6e00000000000000000000000000000000000000000000000000000000\n        /* \"#utility.yul\":7052:7054   */\n      0x20\n        /* \"#utility.yul\":7044:7050   */\n      dup3\n        /* \"#utility.yul\":7040:7055   */\n      add\n        /* \"#utility.yul\":7033:7064   */\n      mstore\n        /* \"#utility.yul\":6848:7071   */\n      pop\n      jump\t// out\n        /* \"#utility.yul\":7077:7443   */\n    tag_184:\n        /* \"#utility.yul\":7219:7222   */\n      0x00\n        /* \"#utility.yul\":7240:7307   */\n      tag_293\n        /* \"#utility.yul\":7304:7306   */\n      0x24\n        /* \"#utility.yul\":7299:7302   */\n      dup4\n        /* \"#utility.yul\":7240:7307   */\n      tag_162\n      jump\t// in\n    tag_293:\n        /* \"#utility.yul\":7233:7307   */\n      swap2\n      pop\n        /* \"#utility.yul\":7316:7409   */\n      tag_294\n        /* \"#utility.yul\":7405:7408   */\n      dup3\n        /* \"#utility.yul\":7316:7409   */\n      tag_183\n      jump\t// in\n    tag_294:\n        /* \"#utility.yul\":7434:7436   */\n      0x40\n        /* \"#utility.yul\":7429:7432   */\n      dup3\n        /* \"#utility.yul\":7425:7437   */\n      add\n        /* \"#utility.yul\":7418:7437   */\n      swap1\n      pop\n        /* \"#utility.yul\":7077:7443   */\n      swap2\n      swap1\n      pop\n      jump\t// out\n        /* \"#utility.yul\":7449:7868   */\n    tag_54:\n        /* \"#utility.yul\":7615:7619   */\n      0x00\n        /* \"#utility.yul\":7653:7655   */\n      0x20\n        /* \"#utility.yul\":7642:7651   */\n      dup3\n        /* \"#utility.yul\":7638:7656   */\n      add\n        /* \"#utility.yul\":7630:7656   */\n      swap1\n      pop\n        /* \"#utility.yul\":7702:7711   */\n      dup2\n        /* \"#utility.yul\":7696:7700   */\n      dup2\n        /* \"#utility.yul\":7692:7712   */\n      sub\n        /* \"#utility.yul\":7688:7689   */\n      0x00\n        /* \"#utility.yul\":7677:7686   */\n      dup4\n        /* \"#utility.yul\":7673:7690   */\n      add\n        /* \"#utility.yul\":7666:7713   */\n      mstore\n        /* \"#utility.yul\":7730:7861   */\n      tag_296\n        /* \"#utility.yul\":7856:7860   */\n      dup2\n        /* \"#utility.yul\":7730:7861   */\n      tag_184\n      jump\t// in\n    tag_296:\n        /* \"#utility.yul\":7722:7861   */\n      swap1\n      pop\n        /* \"#utility.yul\":7449:7868   */\n      swap2\n      swap1\n      pop\n      jump\t// out\n        /* \"#utility.yul\":7874:8021   */\n    tag_185:\n        /* \"#utility.yul\":7975:7986   */\n      0x00\n        /* \"#utility.yul\":8012:8015   */\n      dup2\n        /* \"#utility.yul\":7997:8015   */\n      swap1\n      pop\n        /* \"#utility.yul\":7874:8021   */\n      swap3\n      swap2\n      pop\n      pop\n      jump\t// out\n        /* \"#utility.yul\":8027:8141   */\n    tag_186:\n      pop\n      jump\t// out\n        /* \"#utility.yul\":8147:8545   */\n    tag_187:\n        /* \"#utility.yul\":8306:8309   */\n      0x00\n        /* \"#utility.yul\":8327:8410   */\n      tag_300\n        /* \"#utility.yul\":8408:8409   */\n      0x00\n        /* \"#utility.yul\":8403:8406   */\n      dup4\n        /* \"#utility.yul\":8327:8410   */\n      tag_185\n      jump\t// in\n    tag_300:\n        /* \"#utility.yul\":8320:8410   */\n      swap2\n      pop\n        /* \"#utility.yul\":8419:8512   */\n      tag_301\n        /* \"#utility.yul\":8508:8511   */\n      dup3\n        /* \"#utility.yul\":8419:8512   */\n      tag_186\n      jump\t// in\n    tag_301:\n        /* \"#utility.yul\":8537:8538   */\n      0x00\n        /* \"#utility.yul\":8532:8535   */\n      dup3\n        /* \"#utility.yul\":8528:8539   */\n      add\n        /* \"#utility.yul\":8521:8539   */\n      swap1\n      pop\n        /* \"#utility.yul\":8147:8545   */\n      swap2\n      swap1\n      pop\n      jump\t// out\n        /* \"#utility.yul\":8551:8930   */\n    tag_56:\n        /* \"#utility.yul\":8735:8738   */\n      0x00\n        /* \"#utility.yul\":8757:8904   */\n      tag_303\n        /* \"#utility.yul\":8900:8903   */\n      dup3\n        /* \"#utility.yul\":8757:8904   */\n      tag_187\n      jump\t// in\n    tag_303:\n        /* \"#utility.yul\":8750:8904   */\n      swap2\n      pop\n        /* \"#utility.yul\":8921:8924   */\n      dup2\n        /* \"#utility.yul\":8914:8924   */\n      swap1\n      pop\n        /* \"#utility.yul\":8551:8930   */\n      swap2\n      swap1\n      pop\n      jump\t// out\n        /* \"#utility.yul\":8936:9105   */\n    tag_188:\n        /* \"#utility.yul\":9076:9097   */\n      0x455448207472616e73666572206661696c656400000000000000000000000000\n        /* \"#utility.yul\":9072:9073   */\n      0x00\n        /* \"#utility.yul\":9064:9070   */\n      dup3\n        /* \"#utility.yul\":9060:9074   */\n      add\n        /* \"#utility.yul\":9053:9098   */\n      mstore\n        /* \"#utility.yul\":8936:9105   */\n      pop\n      jump\t// out\n        /* \"#utility.yul\":9111:9477   */\n    tag_189:\n        /* \"#utility.yul\":9253:9256   */\n      0x00\n        /* \"#utility.yul\":9274:9341   */\n      tag_306\n        /* \"#utility.yul\":9338:9340   */\n      0x13\n        /* \"#utility.yul\":9333:9336   */\n      dup4\n        /* \"#utility.yul\":9274:9341   */\n      tag_162\n      jump\t// in\n    tag_306:\n        /* \"#utility.yul\":9267:9341   */\n      swap2\n      pop\n        /* \"#utility.yul\":9350:9443   */\n      tag_307\n        /* \"#utility.yul\":9439:9442   */\n      dup3\n        /* \"#utility.yul\":9350:9443   */\n      tag_188\n      jump\t// in\n    tag_307:\n        /* \"#utility.yul\":9468:9470   */\n      0x20\n        /* \"#utility.yul\":9463:9466   */\n      dup3\n        /* \"#utility.yul\":9459:9471   */\n      add\n        /* \"#utility.yul\":9452:9471   */\n      swap1\n      pop\n        /* \"#utility.yul\":9111:9477   */\n      swap2\n      swap1\n      pop\n      jump\t// out\n        /* \"#utility.yul\":9483:9902   */\n    tag_62:\n        /* \"#utility.yul\":9649:9653   */\n      0x00\n        /* \"#utility.yul\":9687:9689   */\n      0x20\n        /* \"#utility.yul\":9676:9685   */\n      dup3\n        /* \"#utility.yul\":9672:9690   */\n      add\n        /* \"#utility.yul\":9664:9690   */\n      swap1\n      pop\n        /* \"#utility.yul\":9736:9745   */\n      dup2\n        /* \"#utility.yul\":9730:9734   */\n      dup2\n        /* \"#utility.yul\":9726:9746   */\n      sub\n        /* \"#utility.yul\":9722:9723   */\n      0x00\n        /* \"#utility.yul\":9711:9720   */\n      dup4\n        /* \"#utility.yul\":9707:9724   */\n      add\n        /* \"#utility.yul\":9700:9747   */\n      mstore\n        /* \"#utility.yul\":9764:9895   */\n      tag_309\n        /* \"#utility.yul\":9890:9894   */\n      dup2\n        /* \"#utility.yul\":9764:9895   */\n      tag_189\n      jump\t// in\n    tag_309:\n        /* \"#utility.yul\":9756:9895   */\n      swap1\n      pop\n        /* \"#utility.yul\":9483:9902   */\n      swap2\n      swap1\n      pop\n      jump\t// out\n        /* \"#utility.yul\":9908:10079   */\n    tag_190:\n        /* \"#utility.yul\":10048:10071   */\n      0x5661756c7420616c726561647920637265617465640000000000000000000000\n        /* \"#utility.yul\":10044:10045   */\n      0x00\n        /* \"#utility.yul\":10036:10042   */\n      dup3\n        /* \"#utility.yul\":10032:10046   */\n      add\n        /* \"#utility.yul\":10025:10072   */\n      mstore\n        /* \"#utility.yul\":9908:10079   */\n      pop\n      jump\t// out\n        /* \"#utility.yul\":10085:10451   */\n    tag_191:\n        /* \"#utility.yul\":10227:10230   */\n      0x00\n        /* \"#utility.yul\":10248:10315   */\n      tag_312\n        /* \"#utility.yul\":10312:10314   */\n      0x15\n        /* \"#utility.yul\":10307:10310   */\n      dup4\n        /* \"#utility.yul\":10248:10315   */\n      tag_162\n      jump\t// in\n    tag_312:\n        /* \"#utility.yul\":10241:10315   */\n      swap2\n      pop\n        /* \"#utility.yul\":10324:10417   */\n      tag_313\n        /* \"#utility.yul\":10413:10416   */\n      dup3\n        /* \"#utility.yul\":10324:10417   */\n      tag_190\n      jump\t// in\n    tag_313:\n        /* \"#utility.yul\":10442:10444   */\n      0x20\n        /* \"#utility.yul\":10437:10440   */\n      dup3\n        /* \"#utility.yul\":10433:10445   */\n      add\n        /* \"#utility.yul\":10426:10445   */\n      swap1\n      pop\n        /* \"#utility.yul\":10085:10451   */\n      swap2\n      swap1\n      pop\n      jump\t// out\n        /* \"#utility.yul\":10457:10876   */\n    tag_66:\n        /* \"#utility.yul\":10623:10627   */\n      0x00\n        /* \"#utility.yul\":10661:10663   */\n      0x20\n        /* \"#utility.yul\":10650:10659   */\n      dup3\n        /* \"#utility.yul\":10646:10664   */\n      add\n        /* \"#utility.yul\":10638:10664   */\n      swap1\n      pop\n        /* \"#utility.yul\":10710:10719   */\n      dup2\n        /* \"#utility.yul\":10704:10708   */\n      dup2\n        /* \"#utility.yul\":10700:10720   */\n      sub\n        /* \"#utility.yul\":10696:10697   */\n      0x00\n        /* \"#utility.yul\":10685:10694   */\n      dup4\n        /* \"#utility.yul\":10681:10698   */\n      add\n        /* \"#utility.yul\":10674:10721   */\n      mstore\n        /* \"#utility.yul\":10738:10869   */\n      tag_315\n        /* \"#utility.yul\":10864:10868   */\n      dup2\n        /* \"#utility.yul\":10738:10869   */\n      tag_191\n      jump\t// in\n    tag_315:\n        /* \"#utility.yul\":10730:10869   */\n      swap1\n      pop\n        /* \"#utility.yul\":10457:10876   */\n      swap2\n      swap1\n      pop\n      jump\t// out\n        /* \"#utility.yul\":10882:11054   */\n    tag_192:\n        /* \"#utility.yul\":11022:11046   */\n      0x457861637420302e312045544820726571756972656400000000000000000000\n        /* \"#utility.yul\":11018:11019   */\n      0x00\n        /* \"#utility.yul\":11010:11016   */\n      dup3\n        /* \"#utility.yul\":11006:11020   */\n      add\n        /* \"#utility.yul\":10999:11047   */\n      mstore\n        /* \"#utility.yul\":10882:11054   */\n      pop\n      jump\t// out\n        /* \"#utility.yul\":11060:11426   */\n    tag_193:\n        /* \"#utility.yul\":11202:11205   */\n      0x00\n        /* \"#utility.yul\":11223:11290   */\n      tag_318\n        /* \"#utility.yul\":11287:11289   */\n      0x16\n        /* \"#utility.yul\":11282:11285   */\n      dup4\n        /* \"#utility.yul\":11223:11290   */\n      tag_162\n      jump\t// in\n    tag_318:\n        /* \"#utility.yul\":11216:11290   */\n      swap2\n      pop\n        /* \"#utility.yul\":11299:11392   */\n      tag_319\n        /* \"#utility.yul\":11388:11391   */\n      dup3\n        /* \"#utility.yul\":11299:11392   */\n      tag_192\n      jump\t// in\n    tag_319:\n        /* \"#utility.yul\":11417:11419   */\n      0x20\n        /* \"#utility.yul\":11412:11415   */\n      dup3\n        /* \"#utility.yul\":11408:11420   */\n      add\n        /* \"#utility.yul\":11401:11420   */\n      swap1\n      pop\n        /* \"#utility.yul\":11060:11426   */\n      swap2\n      swap1\n      pop\n      jump\t// out\n        /* \"#utility.yul\":11432:11851   */\n    tag_69:\n        /* \"#utility.yul\":11598:11602   */\n      0x00\n        /* \"#utility.yul\":11636:11638   */\n      0x20\n        /* \"#utility.yul\":11625:11634   */\n      dup3\n        /* \"#utility.yul\":11621:11639   */\n      add\n        /* \"#utility.yul\":11613:11639   */\n      swap1\n      pop\n        /* \"#utility.yul\":11685:11694   */\n      dup2\n        /* \"#utility.yul\":11679:11683   */\n      dup2\n        /* \"#utility.yul\":11675:11695   */\n      sub\n        /* \"#utility.yul\":11671:11672   */\n      0x00\n        /* \"#utility.yul\":11660:11669   */\n      dup4\n        /* \"#utility.yul\":11656:11673   */\n      add\n        /* \"#utility.yul\":11649:11696   */\n      mstore\n        /* \"#utility.yul\":11713:11844   */\n      tag_321\n        /* \"#utility.yul\":11839:11843   */\n      dup2\n        /* \"#utility.yul\":11713:11844   */\n      tag_193\n      jump\t// in\n    tag_321:\n        /* \"#utility.yul\":11705:11844   */\n      swap1\n      pop\n        /* \"#utility.yul\":11432:11851   */\n      swap2\n      swap1\n      pop\n      jump\t// out\n        /* \"#utility.yul\":11857:12027   */\n    tag_194:\n        /* \"#utility.yul\":11997:12019   */\n      0x5661756c7420646f6573206e6f74206578697374000000000000000000000000\n        /* \"#utility.yul\":11993:11994   */\n      0x00\n        /* \"#utility.yul\":11985:11991   */\n      dup3\n        /* \"#utility.yul\":11981:11995   */\n      add\n        /* \"#utility.yul\":11974:12020   */\n      mstore\n        /* \"#utility.yul\":11857:12027   */\n      pop\n      jump\t// out\n        /* \"#utility.yul\":12033:12399   */\n    tag_195:\n        /* \"#utility.yul\":12175:12178   */\n      0x00\n        /* \"#utility.yul\":12196:12263   */\n      tag_324\n        /* \"#utility.yul\":12260:12262   */\n      0x14\n        /* \"#utility.yul\":12255:12258   */\n      dup4\n        /* \"#utility.yul\":12196:12263   */\n      tag_162\n      jump\t// in\n    tag_324:\n        /* \"#utility.yul\":12189:12263   */\n      swap2\n      pop\n        /* \"#utility.yul\":12272:12365   */\n      tag_325\n        /* \"#utility.yul\":12361:12364   */\n      dup3\n        /* \"#utility.yul\":12272:12365   */\n      tag_194\n      jump\t// in\n    tag_325:\n        /* \"#utility.yul\":12390:12392   */\n      0x20\n        /* \"#utility.yul\":12385:12388   */\n      dup3\n        /* \"#utility.yul\":12381:12393   */\n      add\n        /* \"#utility.yul\":12374:12393   */\n      swap1\n      pop\n        /* \"#utility.yul\":12033:12399   */\n      swap2\n      swap1\n      pop\n      jump\t// out\n        /* \"#utility.yul\":12405:12824   */\n    tag_81:\n        /* \"#utility.yul\":12571:12575   */\n      0x00\n        /* \"#utility.yul\":12609:12611   */\n      0x20\n        /* \"#utility.yul\":12598:12607   */\n      dup3\n        /* \"#utility.yul\":12594:12612   */\n      add\n        /* \"#utility.yul\":12586:12612   */\n      swap1\n      pop\n        /* \"#utility.yul\":12658:12667   */\n      dup2\n        /* \"#utility.yul\":12652:12656   */\n      dup2\n        /* \"#utility.yul\":12648:12668   */\n      sub\n        /* \"#utility.yul\":12644:12645   */\n      0x00\n        /* \"#utility.yul\":12633:12642   */\n      dup4\n        /* \"#utility.yul\":12629:12646   */\n      add\n        /* \"#utility.yul\":12622:12669   */\n      mstore\n        /* \"#utility.yul\":12686:12817   */\n      tag_327\n        /* \"#utility.yul\":12812:12816   */\n      dup2\n        /* \"#utility.yul\":12686:12817   */\n      tag_195\n      jump\t// in\n    tag_327:\n        /* \"#utility.yul\":12678:12817   */\n      swap1\n      pop\n        /* \"#utility.yul\":12405:12824   */\n      swap2\n      swap1\n      pop\n      jump\t// out\n        /* \"#utility.yul\":12830:13055   */\n    tag_196:\n        /* \"#utility.yul\":12970:13004   */\n      0x526563697069656e747320616e6420616d6f756e7473206c656e677468206d69\n        /* \"#utility.yul\":12966:12967   */\n      0x00\n        /* \"#utility.yul\":12958:12964   */\n      dup3\n        /* \"#utility.yul\":12954:12968   */\n      add\n        /* \"#utility.yul\":12947:13005   */\n      mstore\n        /* \"#utility.yul\":13039:13047   */\n      0x736d617463680000000000000000000000000000000000000000000000000000\n        /* \"#utility.yul\":13034:13036   */\n      0x20\n        /* \"#utility.yul\":13026:13032   */\n      dup3\n        /* \"#utility.yul\":13022:13037   */\n      add\n        /* \"#utility.yul\":13015:13048   */\n      mstore\n        /* \"#utility.yul\":12830:13055   */\n      pop\n      jump\t// out\n        /* \"#utility.yul\":13061:13427   */\n    tag_197:\n        /* \"#utility.yul\":13203:13206   */\n      0x00\n        /* \"#utility.yul\":13224:13291   */\n      tag_330\n        /* \"#utility.yul\":13288:13290   */\n      0x26\n        /* \"#utility.yul\":13283:13286   */\n      dup4\n        /* \"#utility.yul\":13224:13291   */\n      tag_162\n      jump\t// in\n    tag_330:\n        /* \"#utility.yul\":13217:13291   */\n      swap2\n      pop\n        /* \"#utility.yul\":13300:13393   */\n      tag_331\n        /* \"#utility.yul\":13389:13392   */\n      dup3\n        /* \"#utility.yul\":13300:13393   */\n      tag_196\n      jump\t// in\n    tag_331:\n        /* \"#utility.yul\":13418:13420   */\n      0x40\n        /* \"#utility.yul\":13413:13416   */\n      dup3\n        /* \"#utility.yul\":13409:13421   */\n      add\n        /* \"#utility.yul\":13402:13421   */\n      swap1\n      pop\n        /* \"#utility.yul\":13061:13427   */\n      swap2\n      swap1\n      pop\n      jump\t// out\n        /* \"#utility.yul\":13433:13852   */\n    tag_84:\n        /* \"#utility.yul\":13599:13603   */\n      0x00\n        /* \"#utility.yul\":13637:13639   */\n      0x20\n        /* \"#utility.yul\":13626:13635   */\n      dup3\n        /* \"#utility.yul\":13622:13640   */\n      add\n        /* \"#utility.yul\":13614:13640   */\n      swap1\n      pop\n        /* \"#utility.yul\":13686:13695   */\n      dup2\n        /* \"#utility.yul\":13680:13684   */\n      dup2\n        /* \"#utility.yul\":13676:13696   */\n      sub\n        /* \"#utility.yul\":13672:13673   */\n      0x00\n        /* \"#utility.yul\":13661:13670   */\n      dup4\n        /* \"#utility.yul\":13657:13674   */\n      add\n        /* \"#utility.yul\":13650:13697   */\n      mstore\n        /* \"#utility.yul\":13714:13845   */\n      tag_333\n        /* \"#utility.yul\":13840:13844   */\n      dup2\n        /* \"#utility.yul\":13714:13845   */\n      tag_197\n      jump\t// in\n    tag_333:\n        /* \"#utility.yul\":13706:13845   */\n      swap1\n      pop\n        /* \"#utility.yul\":13433:13852   */\n      swap2\n      swap1\n      pop\n      jump\t// out\n        /* \"#utility.yul\":13858:14038   */\n    tag_90:\n        /* \"#utility.yul\":13906:13983   */\n      0x4e487b7100000000000000000000000000000000000000000000000000000000\n        /* \"#utility.yul\":13903:13904   */\n      0x00\n        /* \"#utility.yul\":13896:13984   */\n      mstore\n        /* \"#utility.yul\":14003:14007   */\n      0x32\n        /* \"#utility.yul\":14000:14001   */\n      0x04\n        /* \"#utility.yul\":13993:14008   */\n      mstore\n        /* \"#utility.yul\":14027:14031   */\n      0x24\n        /* \"#utility.yul\":14024:14025   */\n      0x00\n        /* \"#utility.yul\":14017:14032   */\n      revert\n        /* \"#utility.yul\":14044:14224   */\n    tag_198:\n        /* \"#utility.yul\":14092:14169   */\n      0x4e487b7100000000000000000000000000000000000000000000000000000000\n        /* \"#utility.yul\":14089:14090   */\n      0x00\n        /* \"#utility.yul\":14082:14170   */\n      mstore\n        /* \"#utility.yul\":14189:14193   */\n      0x11\n        /* \"#utility.yul\":14186:14187   */\n      0x04\n        /* \"#utility.yul\":14179:14194   */\n      mstore\n        /* \"#utility.yul\":14213:14217   */\n      0x24\n        /* \"#utility.yul\":14210:14211   */\n      0x00\n        /* \"#utility.yul\":14203:14218   */\n      revert\n        /* \"#utility.yul\":14230:14421   */\n    tag_92:\n        /* \"#utility.yul\":14270:14273   */\n      0x00\n        /* \"#utility.yul\":14289:14309   */\n      tag_337\n        /* \"#utility.yul\":14307:14308   */\n      dup3\n        /* \"#utility.yul\":14289:14309   */\n      tag_165\n      jump\t// in\n    tag_337:\n        /* \"#utility.yul\":14284:14309   */\n      swap2\n      pop\n        /* \"#utility.yul\":14323:14343   */\n      tag_338\n        /* \"#utility.yul\":14341:14342   */\n      dup4\n        /* \"#utility.yul\":14323:14343   */\n      tag_165\n      jump\t// in\n    tag_338:\n        /* \"#utility.yul\":14318:14343   */\n      swap3\n      pop\n        /* \"#utility.yul\":14366:14367   */\n      dup3\n        /* \"#utility.yul\":14363:14364   */\n      dup3\n        /* \"#utility.yul\":14359:14368   */\n      add\n        /* \"#utility.yul\":14352:14368   */\n      swap1\n      pop\n        /* \"#utility.yul\":14387:14390   */\n      dup1\n        /* \"#utility.yul\":14384:14385   */\n      dup3\n        /* \"#utility.yul\":14381:14391   */\n      gt\n        /* \"#utility.yul\":14378:14414   */\n      iszero\n      tag_339\n      jumpi\n        /* \"#utility.yul\":14394:14412   */\n      tag_340\n      tag_198\n      jump\t// in\n    tag_340:\n        /* \"#utility.yul\":14378:14414   */\n    tag_339:\n        /* \"#utility.yul\":14230:14421   */\n      swap3\n      swap2\n      pop\n      pop\n      jump\t// out\n        /* \"#utility.yul\":14427:14602   */\n    tag_199:\n        /* \"#utility.yul\":14567:14594   */\n      0x496e73756666696369656e742045544820696e207661756c7400000000000000\n        /* \"#utility.yul\":14563:14564   */\n      0x00\n        /* \"#utility.yul\":14555:14561   */\n      dup3\n        /* \"#utility.yul\":14551:14565   */\n      add\n        /* \"#utility.yul\":14544:14595   */\n      mstore\n        /* \"#utility.yul\":14427:14602   */\n      pop\n      jump\t// out\n        /* \"#utility.yul\":14608:14974   */\n    tag_200:\n        /* \"#utility.yul\":14750:14753   */\n      0x00\n        /* \"#utility.yul\":14771:14838   */\n      tag_343\n        /* \"#utility.yul\":14835:14837   */\n      0x19\n        /* \"#utility.yul\":14830:14833   */\n      dup4\n        /* \"#utility.yul\":14771:14838   */\n      tag_162\n      jump\t// in\n    tag_343:\n        /* \"#utility.yul\":14764:14838   */\n      swap2\n      pop\n        /* \"#utility.yul\":14847:14940   */\n      tag_344\n        /* \"#utility.yul\":14936:14939   */\n      dup3\n        /* \"#utility.yul\":14847:14940   */\n      tag_199\n      jump\t// in\n    tag_344:\n        /* \"#utility.yul\":14965:14967   */\n      0x20\n        /* \"#utility.yul\":14960:14963   */\n      dup3\n        /* \"#utility.yul\":14956:14968   */\n      add\n        /* \"#utility.yul\":14949:14968   */\n      swap1\n      pop\n        /* \"#utility.yul\":14608:14974   */\n      swap2\n      swap1\n      pop\n      jump\t// out\n        /* \"#utility.yul\":14980:15399   */\n    tag_95:\n        /* \"#utility.yul\":15146:15150   */\n      0x00\n        /* \"#utility.yul\":15184:15186   */\n      0x20\n        /* \"#utility.yul\":15173:15182   */\n      dup3\n        /* \"#utility.yul\":15169:15187   */\n      add\n        /* \"#utility.yul\":15161:15187   */\n      swap1\n      pop\n        /* \"#utility.yul\":15233:15242   */\n      dup2\n        /* \"#utility.yul\":15227:15231   */\n      dup2\n        /* \"#utility.yul\":15223:15243   */\n      sub\n        /* \"#utility.yul\":15219:15220   */\n      0x00\n        /* \"#utility.yul\":15208:15217   */\n      dup4\n        /* \"#utility.yul\":15204:15221   */\n      add\n        /* \"#utility.yul\":15197:15244   */\n      mstore\n        /* \"#utility.yul\":15261:15392   */\n      tag_346\n        /* \"#utility.yul\":15387:15391   */\n      dup2\n        /* \"#utility.yul\":15261:15392   */\n      tag_200\n      jump\t// in\n    tag_346:\n        /* \"#utility.yul\":15253:15392   */\n      swap1\n      pop\n        /* \"#utility.yul\":14980:15399   */\n      swap2\n      swap1\n      pop\n      jump\t// out\n        /* \"#utility.yul\":15405:15599   */\n    tag_97:\n        /* \"#utility.yul\":15445:15449   */\n      0x00\n        /* \"#utility.yul\":15465:15485   */\n      tag_348\n        /* \"#utility.yul\":15483:15484   */\n      dup3\n        /* \"#utility.yul\":15465:15485   */\n      tag_165\n      jump\t// in\n    tag_348:\n        /* \"#utility.yul\":15460:15485   */\n      swap2\n      pop\n        /* \"#utility.yul\":15499:15519   */\n      tag_349\n        /* \"#utility.yul\":15517:15518   */\n      dup4\n        /* \"#utility.yul\":15499:15519   */\n      tag_165\n      jump\t// in\n    tag_349:\n        /* \"#utility.yul\":15494:15519   */\n      swap3\n      pop\n        /* \"#utility.yul\":15543:15544   */\n      dup3\n        /* \"#utility.yul\":15540:15541   */\n      dup3\n        /* \"#utility.yul\":15536:15545   */\n      sub\n        /* \"#utility.yul\":15528:15545   */\n      swap1\n      pop\n        /* \"#utility.yul\":15567:15568   */\n      dup2\n        /* \"#utility.yul\":15561:15565   */\n      dup2\n        /* \"#utility.yul\":15558:15569   */\n      gt\n        /* \"#utility.yul\":15555:15592   */\n      iszero\n      tag_350\n      jumpi\n        /* \"#utility.yul\":15572:15590   */\n      tag_351\n      tag_198\n      jump\t// in\n    tag_351:\n        /* \"#utility.yul\":15555:15592   */\n    tag_350:\n        /* \"#utility.yul\":15405:15599   */\n      swap3\n      swap2\n      pop\n      pop\n      jump\t// out\n        /* \"#utility.yul\":15605:15789   */\n    tag_201:\n        /* \"#utility.yul\":15704:15715   */\n      0x00\n        /* \"#utility.yul\":15738:15744   */\n      dup3\n        /* \"#utility.yul\":15733:15736   */\n      dup3\n        /* \"#utility.yul\":15726:15745   */\n      mstore\n        /* \"#utility.yul\":15778:15782   */\n      0x20\n        /* \"#utility.yul\":15773:15776   */\n      dup3\n        /* \"#utility.yul\":15769:15783   */\n      add\n        /* \"#utility.yul\":15754:15783   */\n      swap1\n      pop\n        /* \"#utility.yul\":15605:15789   */\n      swap3\n      swap2\n      pop\n      pop\n      jump\t// out\n        /* \"#utility.yul\":15795:15897   */\n    tag_202:\n        /* \"#utility.yul\":15864:15868   */\n      0x00\n        /* \"#utility.yul\":15887:15890   */\n      dup2\n        /* \"#utility.yul\":15879:15890   */\n      swap1\n      pop\n        /* \"#utility.yul\":15795:15897   */\n      swap2\n      swap1\n      pop\n      jump\t// out\n        /* \"#utility.yul\":15903:16011   */\n    tag_203:\n        /* \"#utility.yul\":15980:16004   */\n      tag_355\n        /* \"#utility.yul\":15998:16003   */\n      dup2\n        /* \"#utility.yul\":15980:16004   */\n      tag_171\n      jump\t// in\n    tag_355:\n        /* \"#utility.yul\":15975:15978   */\n      dup3\n        /* \"#utility.yul\":15968:16005   */\n      mstore\n        /* \"#utility.yul\":15903:16011   */\n      pop\n      pop\n      jump\t// out\n        /* \"#utility.yul\":16017:16196   */\n    tag_204:\n        /* \"#utility.yul\":16086:16096   */\n      0x00\n        /* \"#utility.yul\":16107:16153   */\n      tag_357\n        /* \"#utility.yul\":16149:16152   */\n      dup4\n        /* \"#utility.yul\":16141:16147   */\n      dup4\n        /* \"#utility.yul\":16107:16153   */\n      tag_203\n      jump\t// in\n    tag_357:\n        /* \"#utility.yul\":16185:16189   */\n      0x20\n        /* \"#utility.yul\":16180:16183   */\n      dup4\n        /* \"#utility.yul\":16176:16190   */\n      add\n        /* \"#utility.yul\":16162:16190   */\n      swap1\n      pop\n        /* \"#utility.yul\":16017:16196   */\n      swap3\n      swap2\n      pop\n      pop\n      jump\t// out\n        /* \"#utility.yul\":16202:16324   */\n    tag_205:\n        /* \"#utility.yul\":16254:16259   */\n      0x00\n        /* \"#utility.yul\":16279:16318   */\n      tag_359\n        /* \"#utility.yul\":16314:16316   */\n      0x20\n        /* \"#utility.yul\":16309:16312   */\n      dup5\n        /* \"#utility.yul\":16305:16317   */\n      add\n        /* \"#utility.yul\":16300:16303   */\n      dup5\n        /* \"#utility.yul\":16279:16318   */\n      tag_173\n      jump\t// in\n    tag_359:\n        /* \"#utility.yul\":16270:16318   */\n      swap1\n      pop\n        /* \"#utility.yul\":16202:16324   */\n      swap3\n      swap2\n      pop\n      pop\n      jump\t// out\n        /* \"#utility.yul\":16330:16445   */\n    tag_206:\n        /* \"#utility.yul\":16402:16406   */\n      0x00\n        /* \"#utility.yul\":16434:16438   */\n      0x20\n        /* \"#utility.yul\":16429:16432   */\n      dup3\n        /* \"#utility.yul\":16425:16439   */\n      add\n        /* \"#utility.yul\":16417:16439   */\n      swap1\n      pop\n        /* \"#utility.yul\":16330:16445   */\n      swap2\n      swap1\n      pop\n      jump\t// out\n        /* \"#utility.yul\":16481:17180   */\n    tag_207:\n        /* \"#utility.yul\":16610:16613   */\n      0x00\n        /* \"#utility.yul\":16633:16719   */\n      tag_362\n        /* \"#utility.yul\":16712:16718   */\n      dup4\n        /* \"#utility.yul\":16707:16710   */\n      dup6\n        /* \"#utility.yul\":16633:16719   */\n      tag_201\n      jump\t// in\n    tag_362:\n        /* \"#utility.yul\":16626:16719   */\n      swap4\n      pop\n        /* \"#utility.yul\":16743:16801   */\n      tag_363\n        /* \"#utility.yul\":16795:16800   */\n      dup3\n        /* \"#utility.yul\":16743:16801   */\n      tag_202\n      jump\t// in\n    tag_363:\n        /* \"#utility.yul\":16824:16831   */\n      dup1\n        /* \"#utility.yul\":16855:16856   */\n      0x00\n        /* \"#utility.yul\":16840:17155   */\n    tag_364:\n        /* \"#utility.yul\":16865:16871   */\n      dup6\n        /* \"#utility.yul\":16862:16863   */\n      dup2\n        /* \"#utility.yul\":16859:16872   */\n      lt\n        /* \"#utility.yul\":16840:17155   */\n      iszero\n      tag_366\n      jumpi\n        /* \"#utility.yul\":16935:16977   */\n      tag_367\n        /* \"#utility.yul\":16970:16976   */\n      dup3\n        /* \"#utility.yul\":16961:16968   */\n      dup5\n        /* \"#utility.yul\":16935:16977   */\n      tag_205\n      jump\t// in\n    tag_367:\n        /* \"#utility.yul\":16997:17060   */\n      tag_368\n        /* \"#utility.yul\":17056:17059   */\n      dup9\n        /* \"#utility.yul\":17041:17054   */\n      dup3\n        /* \"#utility.yul\":16997:17060   */\n      tag_204\n      jump\t// in\n    tag_368:\n        /* \"#utility.yul\":16990:17060   */\n      swap8\n      pop\n        /* \"#utility.yul\":17083:17145   */\n      tag_369\n        /* \"#utility.yul\":17138:17144   */\n      dup4\n        /* \"#utility.yul\":17083:17145   */\n      tag_206\n      jump\t// in\n    tag_369:\n        /* \"#utility.yul\":17073:17145   */\n      swap3\n      pop\n        /* \"#utility.yul\":16900:17155   */\n      pop\n        /* \"#utility.yul\":16887:16888   */\n      0x01\n        /* \"#utility.yul\":16884:16885   */\n      dup2\n        /* \"#utility.yul\":16880:16889   */\n      add\n        /* \"#utility.yul\":16875:16889   */\n      swap1\n      pop\n        /* \"#utility.yul\":16840:17155   */\n      jump(tag_364)\n    tag_366:\n        /* \"#utility.yul\":16844:16858   */\n      pop\n        /* \"#utility.yul\":17171:17174   */\n      dup6\n        /* \"#utility.yul\":17164:17174   */\n      swap3\n      pop\n        /* \"#utility.yul\":16615:17180   */\n      pop\n      pop\n        /* \"#utility.yul\":16481:17180   */\n      swap4\n      swap3\n      pop\n      pop\n      pop\n      jump\t// out\n        /* \"#utility.yul\":17186:17370   */\n    tag_208:\n        /* \"#utility.yul\":17285:17296   */\n      0x00\n        /* \"#utility.yul\":17319:17325   */\n      dup3\n        /* \"#utility.yul\":17314:17317   */\n      dup3\n        /* \"#utility.yul\":17307:17326   */\n      mstore\n        /* \"#utility.yul\":17359:17363   */\n      0x20\n        /* \"#utility.yul\":17354:17357   */\n      dup3\n        /* \"#utility.yul\":17350:17364   */\n      add\n        /* \"#utility.yul\":17335:17364   */\n      swap1\n      pop\n        /* \"#utility.yul\":17186:17370   */\n      swap3\n      swap2\n      pop\n      pop\n      jump\t// out\n        /* \"#utility.yul\":17376:17493   */\n    tag_209:\n        /* \"#utility.yul\":17485:17486   */\n      0x00\n        /* \"#utility.yul\":17482:17483   */\n      0x00\n        /* \"#utility.yul\":17475:17487   */\n      revert\n        /* \"#utility.yul\":17499:17598   */\n    tag_210:\n        /* \"#utility.yul\":17584:17590   */\n      dup3\n        /* \"#utility.yul\":17579:17582   */\n      dup2\n        /* \"#utility.yul\":17574:17577   */\n      dup4\n        /* \"#utility.yul\":17561:17591   */\n      calldatacopy\n        /* \"#utility.yul\":17499:17598   */\n      pop\n      pop\n      pop\n      jump\t// out\n        /* \"#utility.yul\":17634:18171   */\n    tag_211:\n        /* \"#utility.yul\":17762:17765   */\n      0x00\n        /* \"#utility.yul\":17783:17869   */\n      tag_374\n        /* \"#utility.yul\":17862:17868   */\n      dup4\n        /* \"#utility.yul\":17857:17860   */\n      dup6\n        /* \"#utility.yul\":17783:17869   */\n      tag_208\n      jump\t// in\n    tag_374:\n        /* \"#utility.yul\":17776:17869   */\n      swap4\n      pop\n        /* \"#utility.yul\":17893:17959   */\n      0x07ffffffffffffffffffffffffffffffffffffffffffffffffffffffffffffff\n        /* \"#utility.yul\":17885:17891   */\n      dup4\n        /* \"#utility.yul\":17882:17960   */\n      gt\n        /* \"#utility.yul\":17879:18044   */\n      iszero\n      tag_375\n      jumpi\n        /* \"#utility.yul\":17963:18042   */\n      tag_376\n      tag_209\n      jump\t// in\n    tag_376:\n        /* \"#utility.yul\":17879:18044   */\n    tag_375:\n        /* \"#utility.yul\":18075:18079   */\n      0x20\n        /* \"#utility.yul\":18067:18073   */\n      dup4\n        /* \"#utility.yul\":18063:18080   */\n      mul\n        /* \"#utility.yul\":18053:18080   */\n      swap3\n      pop\n        /* \"#utility.yul\":18090:18133   */\n      tag_377\n        /* \"#utility.yul\":18126:18132   */\n      dup4\n        /* \"#utility.yul\":18121:18124   */\n      dup6\n        /* \"#utility.yul\":18114:18119   */\n      dup5\n        /* \"#utility.yul\":18090:18133   */\n      tag_210\n      jump\t// in\n    tag_377:\n        /* \"#utility.yul\":18158:18164   */\n      dup3\n        /* \"#utility.yul\":18153:18156   */\n      dup5\n        /* \"#utility.yul\":18149:18165   */\n      add\n        /* \"#utility.yul\":18142:18165   */\n      swap1\n      pop\n        /* \"#utility.yul\":17634:18171   */\n      swap4\n      swap3\n      pop\n      pop\n      pop\n      jump\t// out\n        /* \"#utility.yul\":18177:18851   */\n    tag_113:\n        /* \"#utility.yul\":18418:18422   */\n      0x00\n        /* \"#utility.yul\":18456:18458   */\n      0x40\n        /* \"#utility.yul\":18445:18454   */\n      dup3\n        /* \"#utility.yul\":18441:18459   */\n      add\n        /* \"#utility.yul\":18433:18459   */\n      swap1\n      pop\n        /* \"#utility.yul\":18505:18514   */\n      dup2\n        /* \"#utility.yul\":18499:18503   */\n      dup2\n        /* \"#utility.yul\":18495:18515   */\n      sub\n        /* \"#utility.yul\":18491:18492   */\n      0x00\n        /* \"#utility.yul\":18480:18489   */\n      dup4\n        /* \"#utility.yul\":18476:18493   */\n      add\n        /* \"#utility.yul\":18469:18516   */\n      mstore\n        /* \"#utility.yul\":18533:18651   */\n      tag_379\n        /* \"#utility.yul\":18646:18650   */\n      dup2\n        /* \"#utility.yul\":18637:18643   */\n      dup7\n        /* \"#utility.yul\":18629:18635   */\n      dup9\n        /* \"#utility.yul\":18533:18651   */\n      tag_207\n      jump\t// in\n    tag_379:\n        /* \"#utility.yul\":18525:18651   */\n      swap1\n      pop\n        /* \"#utility.yul\":18698:18707   */\n      dup2\n        /* \"#utility.yul\":18692:18696   */\n      dup2\n        /* \"#utility.yul\":18688:18708   */\n      sub\n        /* \"#utility.yul\":18683:18685   */\n      0x20\n        /* \"#utility.yul\":18672:18681   */\n      dup4\n        /* \"#utility.yul\":18668:18686   */\n      add\n        /* \"#utility.yul\":18661:18709   */\n      mstore\n        /* \"#utility.yul\":18726:18844   */\n      tag_380\n        /* \"#utility.yul\":18839:18843   */\n      dup2\n        /* \"#utility.yul\":18830:18836   */\n      dup5\n        /* \"#utility.yul\":18822:18828   */\n      dup7\n        /* \"#utility.yul\":18726:18844   */\n      tag_211\n      jump\t// in\n    tag_380:\n        /* \"#utility.yul\":18718:18844   */\n      swap1\n      pop\n        /* \"#utility.yul\":18177:18851   */\n      swap6\n      swap5\n      pop\n      pop\n      pop\n      pop\n      pop\n      jump\t// out\n        /* \"#utility.yul\":18857:19023   */\n    tag_212:\n        /* \"#utility.yul\":18997:19015   */\n      0x496e73756666696369656e742045544800000000000000000000000000000000\n        /* \"#utility.yul\":18993:18994   */\n      0x00\n        /* \"#utility.yul\":18985:18991   */\n      dup3\n        /* \"#utility.yul\":18981:18995   */\n      add\n        /* \"#utility.yul\":18974:19016   */\n      mstore\n        /* \"#utility.yul\":18857:19023   */\n      pop\n      jump\t// out\n        /* \"#utility.yul\":19029:19395   */\n    tag_213:\n        /* \"#utility.yul\":19171:19174   */\n      0x00\n        /* \"#utility.yul\":19192:19259   */\n      tag_383\n        /* \"#utility.yul\":19256:19258   */\n      0x10\n        /* \"#utility.yul\":19251:19254   */\n      dup4\n        /* \"#utility.yul\":19192:19259   */\n      tag_162\n      jump\t// in\n    tag_383:\n        /* \"#utility.yul\":19185:19259   */\n      swap2\n      pop\n        /* \"#utility.yul\":19268:19361   */\n      tag_384\n        /* \"#utility.yul\":19357:19360   */\n      dup3\n        /* \"#utility.yul\":19268:19361   */\n      tag_212\n      jump\t// in\n    tag_384:\n        /* \"#utility.yul\":19386:19388   */\n      0x20\n        /* \"#utility.yul\":19381:19384   */\n      dup3\n        /* \"#utility.yul\":19377:19389   */\n      add\n        /* \"#utility.yul\":19370:19389   */\n      swap1\n      pop\n        /* \"#utility.yul\":19029:19395   */\n      swap2\n      swap1\n      pop\n      jump\t// out\n        /* \"#utility.yul\":19401:19820   */\n    tag_124:\n        /* \"#utility.yul\":19567:19571   */\n      0x00\n        /* \"#utility.yul\":19605:19607   */\n      0x20\n        /* \"#utility.yul\":19594:19603   */\n      dup3\n        /* \"#utility.yul\":19590:19608   */\n      add\n        /* \"#utility.yul\":19582:19608   */\n      swap1\n      pop\n        /* \"#utility.yul\":19654:19663   */\n      dup2\n        /* \"#utility.yul\":19648:19652   */\n      dup2\n        /* \"#utility.yul\":19644:19664   */\n      sub\n        /* \"#utility.yul\":19640:19641   */\n      0x00\n        /* \"#utility.yul\":19629:19638   */\n      dup4\n        /* \"#utility.yul\":19625:19642   */\n      add\n        /* \"#utility.yul\":19618:19665   */\n      mstore\n        /* \"#utility.yul\":19682:19813   */\n      tag_386\n        /* \"#utility.yul\":19808:19812   */\n      dup2\n        /* \"#utility.yul\":19682:19813   */\n      tag_213\n      jump\t// in\n    tag_386:\n        /* \"#utility.yul\":19674:19813   */\n      swap1\n      pop\n        /* \"#utility.yul\":19401:19820   */\n      swap2\n      swap1\n      pop\n      jump\t// out\n        /* \"#utility.yul\":19826:19994   */\n    tag_214:\n        /* \"#utility.yul\":19966:19986   */\n      0x437265617465207661756c742066697273740000000000000000000000000000\n        /* \"#utility.yul\":19962:19963   */\n      0x00\n        /* \"#utility.yul\":19954:19960   */\n      dup3\n        /* \"#utility.yul\":19950:19964   */\n      add\n        /* \"#utility.yul\":19943:19987   */\n      mstore\n        /* \"#utility.yul\":19826:19994   */\n      pop\n      jump\t// out\n        /* \"#utility.yul\":20000:20366   */\n    tag_215:\n        /* \"#utility.yul\":20142:20145   */\n      0x00\n        /* \"#utility.yul\":20163:20230   */\n      tag_389\n        /* \"#utility.yul\":20227:20229   */\n      0x12\n        /* \"#utility.yul\":20222:20225   */\n      dup4\n        /* \"#utility.yul\":20163:20230   */\n      tag_162\n      jump\t// in\n    tag_389:\n        /* \"#utility.yul\":20156:20230   */\n      swap2\n      pop\n        /* \"#utility.yul\":20239:20332   */\n      tag_390\n        /* \"#utility.yul\":20328:20331   */\n      dup3\n        /* \"#utility.yul\":20239:20332   */\n      tag_214\n      jump\t// in\n    tag_390:\n        /* \"#utility.yul\":20357:20359   */\n      0x20\n        /* \"#utility.yul\":20352:20355   */\n      dup3\n        /* \"#utility.yul\":20348:20360   */\n      add\n        /* \"#utility.yul\":20341:20360   */\n      swap1\n      pop\n        /* \"#utility.yul\":20000:20366   */\n      swap2\n      swap1\n      pop\n      jump\t// out\n        /* \"#utility.yul\":20372:20791   */\n    tag_136:\n        /* \"#utility.yul\":20538:20542   */\n      0x00\n        /* \"#utility.yul\":20576:20578   */\n      0x20\n        /* \"#utility.yul\":20565:20574   */\n      dup3\n        /* \"#utility.yul\":20561:20579   */\n      add\n        /* \"#utility.yul\":20553:20579   */\n      swap1\n      pop\n        /* \"#utility.yul\":20625:20634   */\n      dup2\n        /* \"#utility.yul\":20619:20623   */\n      dup2\n        /* \"#utility.yul\":20615:20635   */\n      sub\n        /* \"#utility.yul\":20611:20612   */\n      0x00\n        /* \"#utility.yul\":20600:20609   */\n      dup4\n        /* \"#utility.yul\":20596:20613   */\n      add\n        /* \"#utility.yul\":20589:20636   */\n      mstore\n        /* \"#utility.yul\":20653:20784   */\n      tag_392\n        /* \"#utility.yul\":20779:20783   */\n      dup2\n        /* \"#utility.yul\":20653:20784   */\n      tag_215\n      jump\t// in\n    tag_392:\n        /* \"#utility.yul\":20645:20784   */\n      swap1\n      pop\n        /* \"#utility.yul\":20372:20791   */\n      swap2\n      swap1\n      pop\n      jump\t// out\n        /* \"#utility.yul\":20797:20958   */\n    tag_216:\n        /* \"#utility.yul\":20937:20950   */\n      0x4e6f204554482073656e74000000000000000000000000000000000000000000\n        /* \"#utility.yul\":20933:20934   */\n      0x00\n        /* \"#utility.yul\":20925:20931   */\n      dup3\n        /* \"#utility.yul\":20921:20935   */\n      add\n        /* \"#utility.yul\":20914:20951   */\n      mstore\n        /* \"#utility.yul\":20797:20958   */\n      pop\n      jump\t// out\n        /* \"#utility.yul\":20964:21330   */\n    tag_217:\n        /* \"#utility.yul\":21106:21109   */\n      0x00\n        /* \"#utility.yul\":21127:21194   */\n      tag_395\n        /* \"#utility.yul\":21191:21193   */\n      0x0b\n        /* \"#utility.yul\":21186:21189   */\n      dup4\n        /* \"#utility.yul\":21127:21194   */\n      tag_162\n      jump\t// in\n    tag_395:\n        /* \"#utility.yul\":21120:21194   */\n      swap2\n      pop\n        /* \"#utility.yul\":21203:21296   */\n      tag_396\n        /* \"#utility.yul\":21292:21295   */\n      dup3\n        /* \"#utility.yul\":21203:21296   */\n      tag_216\n      jump\t// in\n    tag_396:\n        /* \"#utility.yul\":21321:21323   */\n      0x20\n        /* \"#utility.yul\":21316:21319   */\n      dup3\n        /* \"#utility.yul\":21312:21324   */\n      add\n        /* \"#utility.yul\":21305:21324   */\n      swap1\n      pop\n        /* \"#utility.yul\":20964:21330   */\n      swap2\n      swap1\n      pop\n      jump\t// out\n        /* \"#utility.yul\":21336:21755   */\n    tag_139:\n        /* \"#utility.yul\":21502:21506   */\n      0x00\n        /* \"#utility.yul\":21540:21542   */\n      0x20\n        /* \"#utility.yul\":21529:21538   */\n      dup3\n        /* \"#utility.yul\":21525:21543   */\n      add\n        /* \"#utility.yul\":21517:21543   */\n      swap1\n      pop\n        /* \"#utility.yul\":21589:21598   */\n      dup2\n        /* \"#utility.yul\":21583:21587   */\n      dup2\n        /* \"#utility.yul\":21579:21599   */\n      sub\n        /* \"#utility.yul\":21575:21576   */\n      0x00\n        /* \"#utility.yul\":21564:21573   */\n      dup4\n        /* \"#utility.yul\":21560:21577   */\n      add\n        /* \"#utility.yul\":21553:21600   */\n      mstore\n        /* \"#utility.yul\":21617:21748   */\n      tag_398\n        /* \"#utility.yul\":21743:21747   */\n      dup2\n        /* \"#utility.yul\":21617:21748   */\n      tag_217\n      jump\t// in\n    tag_398:\n        /* \"#utility.yul\":21609:21748   */\n      swap1\n      pop\n        /* \"#utility.yul\":21336:21755   */\n      swap2\n      swap1\n      pop\n      jump\t// out\n        /* \"#utility.yul\":21761:22171   */\n    tag_143:\n        /* \"#utility.yul\":21801:21808   */\n      0x00\n        /* \"#utility.yul\":21824:21844   */\n      tag_400\n        /* \"#utility.yul\":21842:21843   */\n      dup3\n        /* \"#utility.yul\":21824:21844   */\n      tag_165\n      jump\t// in\n    tag_400:\n        /* \"#utility.yul\":21819:21844   */\n      swap2\n      pop\n        /* \"#utility.yul\":21858:21878   */\n      tag_401\n        /* \"#utility.yul\":21876:21877   */\n      dup4\n        /* \"#utility.yul\":21858:21878   */\n      tag_165\n      jump\t// in\n    tag_401:\n        /* \"#utility.yul\":21853:21878   */\n      swap3\n      pop\n        /* \"#utility.yul\":21913:21914   */\n      dup3\n        /* \"#utility.yul\":21910:21911   */\n      dup3\n        /* \"#utility.yul\":21906:21915   */\n      mul\n        /* \"#utility.yul\":21935:21965   */\n      tag_402\n        /* \"#utility.yul\":21953:21964   */\n      dup2\n        /* \"#utility.yul\":21935:21965   */\n      tag_165\n      jump\t// in\n    tag_402:\n        /* \"#utility.yul\":21924:21965   */\n      swap2\n      pop\n        /* \"#utility.yul\":22114:22115   */\n      dup3\n        /* \"#utility.yul\":22105:22112   */\n      dup3\n        /* \"#utility.yul\":22101:22116   */\n      div\n        /* \"#utility.yul\":22098:22099   */\n      dup5\n        /* \"#utility.yul\":22095:22117   */\n      eq\n        /* \"#utility.yul\":22075:22076   */\n      dup4\n        /* \"#utility.yul\":22068:22077   */\n      iszero\n        /* \"#utility.yul\":22048:22131   */\n      or\n        /* \"#utility.yul\":22025:22164   */\n      tag_403\n      jumpi\n        /* \"#utility.yul\":22144:22162   */\n      tag_404\n      tag_198\n      jump\t// in\n    tag_404:\n        /* \"#utility.yul\":22025:22164   */\n    tag_403:\n        /* \"#utility.yul\":21809:22171   */\n      pop\n        /* \"#utility.yul\":21761:22171   */\n      swap3\n      swap2\n      pop\n      pop\n      jump\t// out\n        /* \"#utility.yul\":22177:22357   */\n    tag_218:\n        /* \"#utility.yul\":22225:22302   */\n      0x4e487b7100000000000000000000000000000000000000000000000000000000\n        /* \"#utility.yul\":22222:22223   */\n      0x00\n        /* \"#utility.yul\":22215:22303   */\n      mstore\n        /* \"#utility.yul\":22322:22326   */\n      0x12\n        /* \"#utility.yul\":22319:22320   */\n      0x04\n        /* \"#utility.yul\":22312:22327   */\n      mstore\n        /* \"#utility.yul\":22346:22350   */\n      0x24\n        /* \"#utility.yul\":22343:22344   */\n      0x00\n        /* \"#utility.yul\":22336:22351   */\n      revert\n        /* \"#utility.yul\":22363:22548   */\n    tag_145:\n        /* \"#utility.yul\":22403:22404   */\n      0x00\n        /* \"#utility.yul\":22420:22440   */\n      tag_407\n        /* \"#utility.yul\":22438:22439   */\n      dup3\n        /* \"#utility.yul\":22420:22440   */\n      tag_165\n      jump\t// in\n    tag_407:\n        /* \"#utility.yul\":22415:22440   */\n      swap2\n      pop\n        /* \"#utility.yul\":22454:22474   */\n      tag_408\n        /* \"#utility.yul\":22472:22473   */\n      dup4\n        /* \"#utility.yul\":22454:22474   */\n      tag_165\n      jump\t// in\n    tag_408:\n        /* \"#utility.yul\":22449:22474   */\n      swap3\n      pop\n        /* \"#utility.yul\":22493:22494   */\n      dup3\n        /* \"#utility.yul\":22483:22518   */\n      tag_409\n      jumpi\n        /* \"#utility.yul\":22498:22516   */\n      tag_410\n      tag_218\n      jump\t// in\n    tag_410:\n        /* \"#utility.yul\":22483:22518   */\n    tag_409:\n        /* \"#utility.yul\":22540:22541   */\n      dup3\n        /* \"#utility.yul\":22537:22538   */\n      dup3\n        /* \"#utility.yul\":22533:22542   */\n      div\n        /* \"#utility.yul\":22528:22542   */\n      swap1\n      pop\n        /* \"#utility.yul\":22363:22548   */\n      swap3\n      swap2\n      pop\n      pop\n      jump\t// out\n        /* \"#utility.yul\":22554:22715   */\n    tag_219:\n        /* \"#utility.yul\":22694:22707   */\n      0x4e6574206973207a65726f000000000000000000000000000000000000000000\n        /* \"#utility.yul\":22690:22691   */\n      0x00\n        /* \"#utility.yul\":22682:22688   */\n      dup3\n        /* \"#utility.yul\":22678:22692   */\n      add\n        /* \"#utility.yul\":22671:22708   */\n      mstore\n        /* \"#utility.yul\":22554:22715   */\n      pop\n      jump\t// out\n        /* \"#utility.yul\":22721:23087   */\n    tag_220:\n        /* \"#utility.yul\":22863:22866   */\n      0x00\n        /* \"#utility.yul\":22884:22951   */\n      tag_413\n        /* \"#utility.yul\":22948:22950   */\n      0x0b\n        /* \"#utility.yul\":22943:22946   */\n      dup4\n        /* \"#utility.yul\":22884:22951   */\n      tag_162\n      jump\t// in\n    tag_413:\n        /* \"#utility.yul\":22877:22951   */\n      swap2\n      pop\n        /* \"#utility.yul\":22960:23053   */\n      tag_414\n        /* \"#utility.yul\":23049:23052   */\n      dup3\n        /* \"#utility.yul\":22960:23053   */\n      tag_219\n      jump\t// in\n    tag_414:\n        /* \"#utility.yul\":23078:23080   */\n      0x20\n        /* \"#utility.yul\":23073:23076   */\n      dup3\n        /* \"#utility.yul\":23069:23081   */\n      add\n        /* \"#utility.yul\":23062:23081   */\n      swap1\n      pop\n        /* \"#utility.yul\":22721:23087   */\n      swap2\n      swap1\n      pop\n      jump\t// out\n        /* \"#utility.yul\":23093:23512   */\n    tag_149:\n        /* \"#utility.yul\":23259:23263   */\n      0x00\n        /* \"#utility.yul\":23297:23299   */\n      0x20\n        /* \"#utility.yul\":23286:23295   */\n      dup3\n        /* \"#utility.yul\":23282:23300   */\n      add\n        /* \"#utility.yul\":23274:23300   */\n      swap1\n      pop\n        /* \"#utility.yul\":23346:23355   */\n      dup2\n        /* \"#utility.yul\":23340:23344   */\n      dup2\n        /* \"#utility.yul\":23336:23356   */\n      sub\n        /* \"#utility.yul\":23332:23333   */\n      0x00\n        /* \"#utility.yul\":23321:23330   */\n      dup4\n        /* \"#utility.yul\":23317:23334   */\n      add\n        /* \"#utility.yul\":23310:23357   */\n      mstore\n        /* \"#utility.yul\":23374:23505   */\n      tag_416\n        /* \"#utility.yul\":23500:23504   */\n      dup2\n        /* \"#utility.yul\":23374:23505   */\n      tag_220\n      jump\t// in\n    tag_416:\n        /* \"#utility.yul\":23366:23505   */\n      swap1\n      pop\n        /* \"#utility.yul\":23093:23512   */\n      swap2\n      swap1\n      pop\n      jump\t// out\n        /* \"#utility.yul\":23518:23960   */\n    tag_154:\n        /* \"#utility.yul\":23667:23671   */\n      0x00\n        /* \"#utility.yul\":23705:23707   */\n      0x60\n        /* \"#utility.yul\":23694:23703   */\n      dup3\n        /* \"#utility.yul\":23690:23708   */\n      add\n        /* \"#utility.yul\":23682:23708   */\n      swap1\n      pop\n        /* \"#utility.yul\":23718:23789   */\n      tag_418\n        /* \"#utility.yul\":23786:23787   */\n      0x00\n        /* \"#utility.yul\":23775:23784   */\n      dup4\n        /* \"#utility.yul\":23771:23788   */\n      add\n        /* \"#utility.yul\":23762:23768   */\n      dup7\n        /* \"#utility.yul\":23718:23789   */\n      tag_166\n      jump\t// in\n    tag_418:\n        /* \"#utility.yul\":23799:23871   */\n      tag_419\n        /* \"#utility.yul\":23867:23869   */\n      0x20\n        /* \"#utility.yul\":23856:23865   */\n      dup4\n        /* \"#utility.yul\":23852:23870   */\n      add\n        /* \"#utility.yul\":23843:23849   */\n      dup6\n        /* \"#utility.yul\":23799:23871   */\n      tag_166\n      jump\t// in\n    tag_419:\n        /* \"#utility.yul\":23881:23953   */\n      tag_420\n        /* \"#utility.yul\":23949:23951   */\n      0x40\n        /* \"#utility.yul\":23938:23947   */\n      dup4\n        /* \"#utility.yul\":23934:23952   */\n      add\n        /* \"#utility.yul\":23925:23931   */\n      dup5\n        /* \"#utility.yul\":23881:23953   */\n      tag_166\n      jump\t// in\n    tag_420:\n        /* \"#utility.yul\":23518:23960   */\n      swap5\n      swap4\n      pop\n      pop\n      pop\n      pop\n      jump\t// out\n\n    auxdata: 0xa2646970667358221220c8734aff75f1d35b2a86b5ff3bb492d2bbcc3321c1b0c0b237bc0c48b311dbdb64736f6c634300081e0033\n}\n",
				"bytecode": {
					"linkReferences": {},
					"object": "60a0604052348015600e575f5ffd5b503373ffffffffffffffffffffffffffffffffffffffff1660808173ffffffffffffffffffffffffffffffffffffffff1681525050600160025f015f6101000a81548160ff021916908315150217905550608051611aa76100855f395f81816101ec0152818161058401526108f60152611aa75ff3fe60806040526004361061007e575f3560e01c8063a58b8c3e1161004d578063a58b8c3e14610148578063ed0fe41614610170578063f14210a6146101ac578063f6326fb3146101d4576100be565b806304d8c8e2146100c2578063164e68de146100ec5780635d12928b146101145780639f5f05201461011e576100be565b366100be576040517f08c379a00000000000000000000000000000000000000000000000000000000081526004016100b590610fb2565b60405180910390fd5b5f5ffd5b3480156100cd575f5ffd5b506100d66101de565b6040516100e39190610fe8565b60405180910390f35b3480156100f7575f5ffd5b50610112600480360381019061010d9190611063565b6101ea565b005b61011c610338565b005b348015610129575f5ffd5b50610132610522565b60405161013f91906110b7565b60405180910390f35b348015610153575f5ffd5b5061016e60048036038101906101699190611186565b610582565b005b34801561017b575f5ffd5b5061019660048036038101906101919190611063565b6108f3565b6040516101a39190610fe8565b60405180910390f35b3480156101b7575f5ffd5b506101d260048036038101906101cd9190611241565b610a52565b005b6101dc610c3c565b005b5f600260010154905090565b7f000000000000000000000000000000000000000000000000000000000000000073ffffffffffffffffffffffffffffffffffffffff163373ffffffffffffffffffffffffffffffffffffffff1614610278576040517f08c379a000000000000000000000000000000000000000000000000000000000815260040161026f906112dc565b60405180910390fd5b5f60026001015490505f6002600101819055505f8273ffffffffffffffffffffffffffffffffffffffff16826040516102b090611327565b5f6040518083038185875af1925050503d805f81146102ea576040519150601f19603f3d011682016040523d82523d5f602084013e6102ef565b606091505b5050905080610333576040517f08c379a000000000000000000000000000000000000000000000000000000000815260040161032a90611385565b60405180910390fd5b505050565b60015f3373ffffffffffffffffffffffffffffffffffffffff1673ffffffffffffffffffffffffffffffffffffffff1681526020019081526020015f205f9054906101000a900460ff16156103c2576040517f08c379a00000000000000000000000000000000000000000000000000000000081526004016103b9906113ed565b60405180910390fd5b6509184e72a000341461040a576040517f08c379a000000000000000000000000000000000000000000000000000000000815260040161040190611455565b60405180910390fd5b6001805f3373ffffffffffffffffffffffffffffffffffffffff1673ffffffffffffffffffffffffffffffffffffffff1681526020019081526020015f205f6101000a81548160ff0219169083151502179055505f5f5f3373ffffffffffffffffffffffffffffffffffffffff1673ffffffffffffffffffffffffffffffffffffffff1681526020019081526020015f209050805f015f9054906101000a900460ff1661051f576104c06509184e72a000610def565b6001815f015f6101000a81548160ff0219169083151502179055503373ffffffffffffffffffffffffffffffffffffffff167f2e49a5810fda2439a23771848b4acec786b0a64d4de3d124ac57fc8739c3887560405160405180910390a25b50565b61052a610f46565b5f5f5f3373ffffffffffffffffffffffffffffffffffffffff1673ffffffffffffffffffffffffffffffffffffffff1681526020019081526020015f2090506040518060200160405280826001015481525091505090565b7f000000000000000000000000000000000000000000000000000000000000000073ffffffffffffffffffffffffffffffffffffffff163373ffffffffffffffffffffffffffffffffffffffff1614610610576040517f08c379a0000000000000000000000000000000000000000000000000000000008152600401610607906112dc565b60405180910390fd5b5f5f5f8773ffffffffffffffffffffffffffffffffffffffff1673ffffffffffffffffffffffffffffffffffffffff1681526020019081526020015f209050805f015f9054906101000a900460ff1661069e576040517f08c379a0000000000000000000000000000000000000000000000000000000008152600401610695906114bd565b60405180910390fd5b8282905085859050146106e6576040517f08c379a00000000000000000000000000000000000000000000000000000000081526004016106dd9061154b565b60405180910390fd5b5f5f90505f5f90505b8484905081101561072e5784848281811061070d5761070c611569565b5b905060200201358261071f91906115c3565b915080806001019150506106ef565b5080826001015414610775576040517f08c379a000000000000000000000000000000000000000000000000000000000815260040161076c90611640565b60405180910390fd5b80826001015f828254610788919061165e565b925050819055505f5f90505b86869050811015610895575f8787838181106107b3576107b2611569565b5b90506020020160208101906107c89190611063565b73ffffffffffffffffffffffffffffffffffffffff168686848181106107f1576107f0611569565b5b9050602002013560405161080490611327565b5f6040518083038185875af1925050503d805f811461083e576040519150601f19603f3d011682016040523d82523d5f602084013e610843565b606091505b5050905080610887576040517f08c379a000000000000000000000000000000000000000000000000000000000815260040161087e90611385565b60405180910390fd5b508080600101915050610794565b508673ffffffffffffffffffffffffffffffffffffffff167fce42f76f0cf784c9e92d84110f5600137af202cb073bf235196d5c7e6ce9c15e878787876040516108e294939291906117c5565b60405180910390a250505050505050565b5f7f000000000000000000000000000000000000000000000000000000000000000073ffffffffffffffffffffffffffffffffffffffff163373ffffffffffffffffffffffffffffffffffffffff1614610982576040517f08c379a0000000000000000000000000000000000000000000000000000000008152600401610979906112dc565b60405180910390fd5b60015f8373ffffffffffffffffffffffffffffffffffffffff1673ffffffffffffffffffffffffffffffffffffffff1681526020019081526020015f205f9054906101000a900460ff16610a0b576040517f08c379a0000000000000000000000000000000000000000000000000000000008152600401610a02906114bd565b60405180910390fd5b5f5f8373ffffffffffffffffffffffffffffffffffffffff1673ffffffffffffffffffffffffffffffffffffffff1681526020019081526020015f20600101549050919050565b5f5f5f3373ffffffffffffffffffffffffffffffffffffffff1673ffffffffffffffffffffffffffffffffffffffff1681526020019081526020015f209050805f015f9054906101000a900460ff16610ae0576040517f08c379a0000000000000000000000000000000000000000000000000000000008152600401610ad7906114bd565b60405180910390fd5b8181600101541015610b27576040517f08c379a0000000000000000000000000000000000000000000000000000000008152600401610b1e90611848565b60405180910390fd5b81816001015f828254610b3a919061165e565b925050819055505f3373ffffffffffffffffffffffffffffffffffffffff1683604051610b6690611327565b5f6040518083038185875af1925050503d805f8114610ba0576040519150601f19603f3d011682016040523d82523d5f602084013e610ba5565b606091505b5050905080610be9576040517f08c379a0000000000000000000000000000000000000000000000000000000008152600401610be090611385565b60405180910390fd5b3373ffffffffffffffffffffffffffffffffffffffff167f884edad9ce6fa2440d8a54cc123490eb96d2768479d49ff9c7366125a942436484604051610c2f9190610fe8565b60405180910390a2505050565b60015f3373ffffffffffffffffffffffffffffffffffffffff1673ffffffffffffffffffffffffffffffffffffffff1681526020019081526020015f205f9054906101000a900460ff16610cc5576040517f08c379a0000000000000000000000000000000000000000000000000000000008152600401610cbc906118b0565b60405180910390fd5b5f3411610d07576040517f08c379a0000000000000000000000000000000000000000000000000000000008152600401610cfe90611918565b60405180910390fd5b610d1033610e32565b5f61271061ffff16603261ffff1634610d299190611936565b610d3391906119a4565b90505f8134610d42919061165e565b90505f8111610d86576040517f08c379a0000000000000000000000000000000000000000000000000000000008152600401610d7d90611a1e565b60405180910390fd5b610d8f82610def565b610d993382610ee8565b3373ffffffffffffffffffffffffffffffffffffffff167f36af321ec8d3c75236829c5317affd40ddb308863a1236d2d277a4025cccee1e348484604051610de393929190611a3c565b60405180910390a25050565b5f810315610e2f578060026001015f828254610e0b91906115c3565b92505081905550600160025f015f6101000a81548160ff0219169083151502179055505b50565b5f5f5f8373ffffffffffffffffffffffffffffffffffffffff1673ffffffffffffffffffffffffffffffffffffffff1681526020019081526020015f209050805f015f9054906101000a900460ff16610ee4576001815f015f6101000a81548160ff0219169083151502179055508173ffffffffffffffffffffffffffffffffffffffff167f2e49a5810fda2439a23771848b4acec786b0a64d4de3d124ac57fc8739c3887560405160405180910390a25b5050565b5f5f5f8473ffffffffffffffffffffffffffffffffffffffff1673ffffffffffffffffffffffffffffffffffffffff1681526020019081526020015f20905081816001015f828254610f3a91906115c3565b92505081905550505050565b60405180602001604052805f81525090565b5f82825260208201905092915050565b7f446f6e277420646f2069742100000000000000000000000000000000000000005f82015250565b5f610f9c600c83610f58565b9150610fa782610f68565b602082019050919050565b5f6020820190508181035f830152610fc981610f90565b9050919050565b5f819050919050565b610fe281610fd0565b82525050565b5f602082019050610ffb5f830184610fd9565b92915050565b5f5ffd5b5f5ffd5b5f73ffffffffffffffffffffffffffffffffffffffff82169050919050565b5f61103282611009565b9050919050565b61104281611028565b811461104c575f5ffd5b50565b5f8135905061105d81611039565b92915050565b5f6020828403121561107857611077611001565b5b5f6110858482850161104f565b91505092915050565b61109781610fd0565b82525050565b602082015f8201516110b15f85018261108e565b50505050565b5f6020820190506110ca5f83018461109d565b92915050565b5f5ffd5b5f5ffd5b5f5ffd5b5f5f83601f8401126110f1576110f06110d0565b5b8235905067ffffffffffffffff81111561110e5761110d6110d4565b5b60208301915083602082028301111561112a576111296110d8565b5b9250929050565b5f5f83601f840112611146576111456110d0565b5b8235905067ffffffffffffffff811115611163576111626110d4565b5b60208301915083602082028301111561117f5761117e6110d8565b5b9250929050565b5f5f5f5f5f6060868803121561119f5761119e611001565b5b5f6111ac8882890161104f565b955050602086013567ffffffffffffffff8111156111cd576111cc611005565b5b6111d9888289016110dc565b9450945050604086013567ffffffffffffffff8111156111fc576111fb611005565b5b61120888828901611131565b92509250509295509295909350565b61122081610fd0565b811461122a575f5ffd5b50565b5f8135905061123b81611217565b92915050565b5f6020828403121561125657611255611001565b5b5f6112638482850161122d565b91505092915050565b7f4f6e6c79206465706c6f7965722063616e2063616c6c20746869732066756e635f8201527f74696f6e00000000000000000000000000000000000000000000000000000000602082015250565b5f6112c6602483610f58565b91506112d18261126c565b604082019050919050565b5f6020820190508181035f8301526112f3816112ba565b9050919050565b5f81905092915050565b50565b5f6113125f836112fa565b915061131d82611304565b5f82019050919050565b5f61133182611307565b9150819050919050565b7f455448207472616e73666572206661696c6564000000000000000000000000005f82015250565b5f61136f601383610f58565b915061137a8261133b565b602082019050919050565b5f6020820190508181035f83015261139c81611363565b9050919050565b7f5661756c7420616c7265616479206372656174656400000000000000000000005f82015250565b5f6113d7601583610f58565b91506113e2826113a3565b602082019050919050565b5f6020820190508181035f830152611404816113cb565b9050919050565b7f457861637420302e3120455448207265717569726564000000000000000000005f82015250565b5f61143f601683610f58565b915061144a8261140b565b602082019050919050565b5f6020820190508181035f83015261146c81611433565b9050919050565b7f5661756c7420646f6573206e6f742065786973740000000000000000000000005f82015250565b5f6114a7601483610f58565b91506114b282611473565b602082019050919050565b5f6020820190508181035f8301526114d48161149b565b9050919050565b7f526563697069656e747320616e6420616d6f756e7473206c656e677468206d695f8201527f736d617463680000000000000000000000000000000000000000000000000000602082015250565b5f611535602683610f58565b9150611540826114db565b604082019050919050565b5f6020820190508181035f83015261156281611529565b9050919050565b7f4e487b71000000000000000000000000000000000000000000000000000000005f52603260045260245ffd5b7f4e487b71000000000000000000000000000000000000000000000000000000005f52601160045260245ffd5b5f6115cd82610fd0565b91506115d883610fd0565b92508282019050808211156115f0576115ef611596565b5b92915050565b7f496e73756666696369656e742045544820696e207661756c74000000000000005f82015250565b5f61162a601983610f58565b9150611635826115f6565b602082019050919050565b5f6020820190508181035f8301526116578161161e565b9050919050565b5f61166882610fd0565b915061167383610fd0565b925082820390508181111561168b5761168a611596565b5b92915050565b5f82825260208201905092915050565b5f819050919050565b6116b381611028565b82525050565b5f6116c483836116aa565b60208301905092915050565b5f6116de602084018461104f565b905092915050565b5f602082019050919050565b5f6116fd8385611691565b9350611708826116a1565b805f5b858110156117405761171d82846116d0565b61172788826116b9565b9750611732836116e6565b92505060018101905061170b565b5085925050509392505050565b5f82825260208201905092915050565b5f5ffd5b82818337505050565b5f611775838561174d565b93507f07ffffffffffffffffffffffffffffffffffffffffffffffffffffffffffffff8311156117a8576117a761175d565b5b6020830292506117b9838584611761565b82840190509392505050565b5f6040820190508181035f8301526117de8186886116f2565b905081810360208301526117f381848661176a565b905095945050505050565b7f496e73756666696369656e7420455448000000000000000000000000000000005f82015250565b5f611832601083610f58565b915061183d826117fe565b602082019050919050565b5f6020820190508181035f83015261185f81611826565b9050919050565b7f437265617465207661756c7420666972737400000000000000000000000000005f82015250565b5f61189a601283610f58565b91506118a582611866565b602082019050919050565b5f6020820190508181035f8301526118c78161188e565b9050919050565b7f4e6f204554482073656e740000000000000000000000000000000000000000005f82015250565b5f611902600b83610f58565b915061190d826118ce565b602082019050919050565b5f6020820190508181035f83015261192f816118f6565b9050919050565b5f61194082610fd0565b915061194b83610fd0565b925082820261195981610fd0565b915082820484148315176119705761196f611596565b5b5092915050565b7f4e487b71000000000000000000000000000000000000000000000000000000005f52601260045260245ffd5b5f6119ae82610fd0565b91506119b983610fd0565b9250826119c9576119c8611977565b5b828204905092915050565b7f4e6574206973207a65726f0000000000000000000000000000000000000000005f82015250565b5f611a08600b83610f58565b9150611a13826119d4565b602082019050919050565b5f6020820190508181035f830152611a35816119fc565b9050919050565b5f606082019050611a4f5f830186610fd9565b611a5c6020830185610fd9565b611a696040830184610fd9565b94935050505056fea2646970667358221220c8734aff75f1d35b2a86b5ff3bb492d2bbcc3321c1b0c0b237bc0c48b311dbdb64736f6c634300081e0033",
					"opcodes": "PUSH1 0xA0 PUSH1 0x40 MSTORE CALLVALUE DUP1 ISZERO PUSH1 0xE JUMPI PUSH0 PUSH0 REVERT JUMPDEST POP CALLER PUSH20 0xFFFFFFFFFFFFFFFFFFFFFFFFFFFFFFFFFFFFFFFF AND PUSH1 0x80 DUP2 PUSH20 0xFFFFFFFFFFFFFFFFFFFFFFFFFFFFFFFFFFFFFFFF AND DUP2 MSTORE POP POP PUSH1 0x1 PUSH1 0x2 PUSH0 ADD PUSH0 PUSH2 0x100 EXP DUP2 SLOAD DUP2 PUSH1 0xFF MUL NOT AND SWAP1 DUP4 ISZERO ISZERO MUL OR SWAP1 SSTORE POP PUSH1 0x80 MLOAD PUSH2 0x1AA7 PUSH2 0x85 PUSH0 CODECOPY PUSH0 DUP2 DUP2 PUSH2 0x1EC ADD MSTORE DUP2 DUP2 PUSH2 0x584 ADD MSTORE PUSH2 0x8F6 ADD MSTORE PUSH2 0x1AA7 PUSH0 RETURN INVALID PUSH1 0x80 PUSH1 0x40 MSTORE PUSH1 0x4 CALLDATASIZE LT PUSH2 0x7E JUMPI PUSH0 CALLDATALOAD PUSH1 0xE0 SHR DUP1 PUSH4 0xA58B8C3E GT PUSH2 0x4D JUMPI DUP1 PUSH4 0xA58B8C3E EQ PUSH2 0x148 JUMPI DUP1 PUSH4 0xED0FE416 EQ PUSH2 0x170 JUMPI DUP1 PUSH4 0xF14210A6 EQ PUSH2 0x1AC JUMPI DUP1 PUSH4 0xF6326FB3 EQ PUSH2 0x1D4 JUMPI PUSH2 0xBE JUMP JUMPDEST DUP1 PUSH4 0x4D8C8E2 EQ PUSH2 0xC2 JUMPI DUP1 PUSH4 0x164E68DE EQ PUSH2 0xEC JUMPI DUP1 PUSH4 0x5D12928B EQ PUSH2 0x114 JUMPI DUP1 PUSH4 0x9F5F0520 EQ PUSH2 0x11E JUMPI PUSH2 0xBE JUMP JUMPDEST CALLDATASIZE PUSH2 0xBE JUMPI PUSH1 0x40 MLOAD PUSH32 0x8C379A000000000000000000000000000000000000000000000000000000000 DUP2 MSTORE PUSH1 0x4 ADD PUSH2 0xB5 SWAP1 PUSH2 0xFB2 JUMP JUMPDEST PUSH1 0x40 MLOAD DUP1 SWAP2 SUB SWAP1 REVERT JUMPDEST PUSH0 PUSH0 REVERT JUMPDEST CALLVALUE DUP1 ISZERO PUSH2 0xCD JUMPI PUSH0 PUSH0 REVERT JUMPDEST POP PUSH2 0xD6 PUSH2 0x1DE JUMP JUMPDEST PUSH1 0x40 MLOAD PUSH2 0xE3 SWAP2 SWAP1 PUSH2 0xFE8 JUMP JUMPDEST PUSH1 0x40 MLOAD DUP1 SWAP2 SUB SWAP1 RETURN JUMPDEST CALLVALUE DUP1 ISZERO PUSH2 0xF7 JUMPI PUSH0 PUSH0 REVERT JUMPDEST POP PUSH2 0x112 PUSH1 0x4 DUP1 CALLDATASIZE SUB DUP2 ADD SWAP1 PUSH2 0x10D SWAP2 SWAP1 PUSH2 0x1063 JUMP JUMPDEST PUSH2 0x1EA JUMP JUMPDEST STOP JUMPDEST PUSH2 0x11C PUSH2 0x338 JUMP JUMPDEST STOP JUMPDEST CALLVALUE DUP1 ISZERO PUSH2 0x129 JUMPI PUSH0 PUSH0 REVERT JUMPDEST POP PUSH2 0x132 PUSH2 0x522 JUMP JUMPDEST PUSH1 0x40 MLOAD PUSH2 0x13F SWAP2 SWAP1 PUSH2 0x10B7 JUMP JUMPDEST PUSH1 0x40 MLOAD DUP1 SWAP2 SUB SWAP1 RETURN JUMPDEST CALLVALUE DUP1 ISZERO PUSH2 0x153 JUMPI PUSH0 PUSH0 REVERT JUMPDEST POP PUSH2 0x16E PUSH1 0x4 DUP1 CALLDATASIZE SUB DUP2 ADD SWAP1 PUSH2 0x169 SWAP2 SWAP1 PUSH2 0x1186 JUMP JUMPDEST PUSH2 0x582 JUMP JUMPDEST STOP JUMPDEST CALLVALUE DUP1 ISZERO PUSH2 0x17B JUMPI PUSH0 PUSH0 REVERT JUMPDEST POP PUSH2 0x196 PUSH1 0x4 DUP1 CALLDATASIZE SUB DUP2 ADD SWAP1 PUSH2 0x191 SWAP2 SWAP1 PUSH2 0x1063 JUMP JUMPDEST PUSH2 0x8F3 JUMP JUMPDEST PUSH1 0x40 MLOAD PUSH2 0x1A3 SWAP2 SWAP1 PUSH2 0xFE8 JUMP JUMPDEST PUSH1 0x40 MLOAD DUP1 SWAP2 SUB SWAP1 RETURN JUMPDEST CALLVALUE DUP1 ISZERO PUSH2 0x1B7 JUMPI PUSH0 PUSH0 REVERT JUMPDEST POP PUSH2 0x1D2 PUSH1 0x4 DUP1 CALLDATASIZE SUB DUP2 ADD SWAP1 PUSH2 0x1CD SWAP2 SWAP1 PUSH2 0x1241 JUMP JUMPDEST PUSH2 0xA52 JUMP JUMPDEST STOP JUMPDEST PUSH2 0x1DC PUSH2 0xC3C JUMP JUMPDEST STOP JUMPDEST PUSH0 PUSH1 0x2 PUSH1 0x1 ADD SLOAD SWAP1 POP SWAP1 JUMP JUMPDEST PUSH32 0x0 PUSH20 0xFFFFFFFFFFFFFFFFFFFFFFFFFFFFFFFFFFFFFFFF AND CALLER PUSH20 0xFFFFFFFFFFFFFFFFFFFFFFFFFFFFFFFFFFFFFFFF AND EQ PUSH2 0x278 JUMPI PUSH1 0x40 MLOAD PUSH32 0x8C379A000000000000000000000000000000000000000000000000000000000 DUP2 MSTORE PUSH1 0x4 ADD PUSH2 0x26F SWAP1 PUSH2 0x12DC JUMP JUMPDEST PUSH1 0x40 MLOAD DUP1 SWAP2 SUB SWAP1 REVERT JUMPDEST PUSH0 PUSH1 0x2 PUSH1 0x1 ADD SLOAD SWAP1 POP PUSH0 PUSH1 0x2 PUSH1 0x1 ADD DUP2 SWAP1 SSTORE POP PUSH0 DUP3 PUSH20 0xFFFFFFFFFFFFFFFFFFFFFFFFFFFFFFFFFFFFFFFF AND DUP3 PUSH1 0x40 MLOAD PUSH2 0x2B0 SWAP1 PUSH2 0x1327 JUMP JUMPDEST PUSH0 PUSH1 0x40 MLOAD DUP1 DUP4 SUB DUP2 DUP6 DUP8 GAS CALL SWAP3 POP POP POP RETURNDATASIZE DUP1 PUSH0 DUP2 EQ PUSH2 0x2EA JUMPI PUSH1 0x40 MLOAD SWAP2 POP PUSH1 0x1F NOT PUSH1 0x3F RETURNDATASIZE ADD AND DUP3 ADD PUSH1 0x40 MSTORE RETURNDATASIZE DUP3 MSTORE RETURNDATASIZE PUSH0 PUSH1 0x20 DUP5 ADD RETURNDATACOPY PUSH2 0x2EF JUMP JUMPDEST PUSH1 0x60 SWAP2 POP JUMPDEST POP POP SWAP1 POP DUP1 PUSH2 0x333 JUMPI PUSH1 0x40 MLOAD PUSH32 0x8C379A000000000000000000000000000000000000000000000000000000000 DUP2 MSTORE PUSH1 0x4 ADD PUSH2 0x32A SWAP1 PUSH2 0x1385 JUMP JUMPDEST PUSH1 0x40 MLOAD DUP1 SWAP2 SUB SWAP1 REVERT JUMPDEST POP POP POP JUMP JUMPDEST PUSH1 0x1 PUSH0 CALLER PUSH20 0xFFFFFFFFFFFFFFFFFFFFFFFFFFFFFFFFFFFFFFFF AND PUSH20 0xFFFFFFFFFFFFFFFFFFFFFFFFFFFFFFFFFFFFFFFF AND DUP2 MSTORE PUSH1 0x20 ADD SWAP1 DUP2 MSTORE PUSH1 0x20 ADD PUSH0 KECCAK256 PUSH0 SWAP1 SLOAD SWAP1 PUSH2 0x100 EXP SWAP1 DIV PUSH1 0xFF AND ISZERO PUSH2 0x3C2 JUMPI PUSH1 0x40 MLOAD PUSH32 0x8C379A000000000000000000000000000000000000000000000000000000000 DUP2 MSTORE PUSH1 0x4 ADD PUSH2 0x3B9 SWAP1 PUSH2 0x13ED JUMP JUMPDEST PUSH1 0x40 MLOAD DUP1 SWAP2 SUB SWAP1 REVERT JUMPDEST PUSH6 0x9184E72A000 CALLVALUE EQ PUSH2 0x40A JUMPI PUSH1 0x40 MLOAD PUSH32 0x8C379A000000000000000000000000000000000000000000000000000000000 DUP2 MSTORE PUSH1 0x4 ADD PUSH2 0x401 SWAP1 PUSH2 0x1455 JUMP JUMPDEST PUSH1 0x40 MLOAD DUP1 SWAP2 SUB SWAP1 REVERT JUMPDEST PUSH1 0x1 DUP1 PUSH0 CALLER PUSH20 0xFFFFFFFFFFFFFFFFFFFFFFFFFFFFFFFFFFFFFFFF AND PUSH20 0xFFFFFFFFFFFFFFFFFFFFFFFFFFFFFFFFFFFFFFFF AND DUP2 MSTORE PUSH1 0x20 ADD SWAP1 DUP2 MSTORE PUSH1 0x20 ADD PUSH0 KECCAK256 PUSH0 PUSH2 0x100 EXP DUP2 SLOAD DUP2 PUSH1 0xFF MUL NOT AND SWAP1 DUP4 ISZERO ISZERO MUL OR SWAP1 SSTORE POP PUSH0 PUSH0 PUSH0 CALLER PUSH20 0xFFFFFFFFFFFFFFFFFFFFFFFFFFFFFFFFFFFFFFFF AND PUSH20 0xFFFFFFFFFFFFFFFFFFFFFFFFFFFFFFFFFFFFFFFF AND DUP2 MSTORE PUSH1 0x20 ADD SWAP1 DUP2 MSTORE PUSH1 0x20 ADD PUSH0 KECCAK256 SWAP1 POP DUP1 PUSH0 ADD PUSH0 SWAP1 SLOAD SWAP1 PUSH2 0x100 EXP SWAP1 DIV PUSH1 0xFF AND PUSH2 0x51F JUMPI PUSH2 0x4C0 PUSH6 0x9184E72A000 PUSH2 0xDEF JUMP JUMPDEST PUSH1 0x1 DUP2 PUSH0 ADD PUSH0 PUSH2 0x100 EXP DUP2 SLOAD DUP2 PUSH1 0xFF MUL NOT AND SWAP1 DUP4 ISZERO ISZERO MUL OR SWAP1 SSTORE POP CALLER PUSH20 0xFFFFFFFFFFFFFFFFFFFFFFFFFFFFFFFFFFFFFFFF AND PUSH32 0x2E49A5810FDA2439A23771848B4ACEC786B0A64D4DE3D124AC57FC8739C38875 PUSH1 0x40 MLOAD PUSH1 0x40 MLOAD DUP1 SWAP2 SUB SWAP1 LOG2 JUMPDEST POP JUMP JUMPDEST PUSH2 0x52A PUSH2 0xF46 JUMP JUMPDEST PUSH0 PUSH0 PUSH0 CALLER PUSH20 0xFFFFFFFFFFFFFFFFFFFFFFFFFFFFFFFFFFFFFFFF AND PUSH20 0xFFFFFFFFFFFFFFFFFFFFFFFFFFFFFFFFFFFFFFFF AND DUP2 MSTORE PUSH1 0x20 ADD SWAP1 DUP2 MSTORE PUSH1 0x20 ADD PUSH0 KECCAK256 SWAP1 POP PUSH1 0x40 MLOAD DUP1 PUSH1 0x20 ADD PUSH1 0x40 MSTORE DUP1 DUP3 PUSH1 0x1 ADD SLOAD DUP2 MSTORE POP SWAP2 POP POP SWAP1 JUMP JUMPDEST PUSH32 0x0 PUSH20 0xFFFFFFFFFFFFFFFFFFFFFFFFFFFFFFFFFFFFFFFF AND CALLER PUSH20 0xFFFFFFFFFFFFFFFFFFFFFFFFFFFFFFFFFFFFFFFF AND EQ PUSH2 0x610 JUMPI PUSH1 0x40 MLOAD PUSH32 0x8C379A000000000000000000000000000000000000000000000000000000000 DUP2 MSTORE PUSH1 0x4 ADD PUSH2 0x607 SWAP1 PUSH2 0x12DC JUMP JUMPDEST PUSH1 0x40 MLOAD DUP1 SWAP2 SUB SWAP1 REVERT JUMPDEST PUSH0 PUSH0 PUSH0 DUP8 PUSH20 0xFFFFFFFFFFFFFFFFFFFFFFFFFFFFFFFFFFFFFFFF AND PUSH20 0xFFFFFFFFFFFFFFFFFFFFFFFFFFFFFFFFFFFFFFFF AND DUP2 MSTORE PUSH1 0x20 ADD SWAP1 DUP2 MSTORE PUSH1 0x20 ADD PUSH0 KECCAK256 SWAP1 POP DUP1 PUSH0 ADD PUSH0 SWAP1 SLOAD SWAP1 PUSH2 0x100 EXP SWAP1 DIV PUSH1 0xFF AND PUSH2 0x69E JUMPI PUSH1 0x40 MLOAD PUSH32 0x8C379A000000000000000000000000000000000000000000000000000000000 DUP2 MSTORE PUSH1 0x4 ADD PUSH2 0x695 SWAP1 PUSH2 0x14BD JUMP JUMPDEST PUSH1 0x40 MLOAD DUP1 SWAP2 SUB SWAP1 REVERT JUMPDEST DUP3 DUP3 SWAP1 POP DUP6 DUP6 SWAP1 POP EQ PUSH2 0x6E6 JUMPI PUSH1 0x40 MLOAD PUSH32 0x8C379A000000000000000000000000000000000000000000000000000000000 DUP2 MSTORE PUSH1 0x4 ADD PUSH2 0x6DD SWAP1 PUSH2 0x154B JUMP JUMPDEST PUSH1 0x40 MLOAD DUP1 SWAP2 SUB SWAP1 REVERT JUMPDEST PUSH0 PUSH0 SWAP1 POP PUSH0 PUSH0 SWAP1 POP JUMPDEST DUP5 DUP5 SWAP1 POP DUP2 LT ISZERO PUSH2 0x72E JUMPI DUP5 DUP5 DUP3 DUP2 DUP2 LT PUSH2 0x70D JUMPI PUSH2 0x70C PUSH2 0x1569 JUMP JUMPDEST JUMPDEST SWAP1 POP PUSH1 0x20 MUL ADD CALLDATALOAD DUP3 PUSH2 0x71F SWAP2 SWAP1 PUSH2 0x15C3 JUMP JUMPDEST SWAP2 POP DUP1 DUP1 PUSH1 0x1 ADD SWAP2 POP POP PUSH2 0x6EF JUMP JUMPDEST POP DUP1 DUP3 PUSH1 0x1 ADD SLOAD EQ PUSH2 0x775 JUMPI PUSH1 0x40 MLOAD PUSH32 0x8C379A000000000000000000000000000000000000000000000000000000000 DUP2 MSTORE PUSH1 0x4 ADD PUSH2 0x76C SWAP1 PUSH2 0x1640 JUMP JUMPDEST PUSH1 0x40 MLOAD DUP1 SWAP2 SUB SWAP1 REVERT JUMPDEST DUP1 DUP3 PUSH1 0x1 ADD PUSH0 DUP3 DUP3 SLOAD PUSH2 0x788 SWAP2 SWAP1 PUSH2 0x165E JUMP JUMPDEST SWAP3 POP POP DUP2 SWAP1 SSTORE POP PUSH0 PUSH0 SWAP1 POP JUMPDEST DUP7 DUP7 SWAP1 POP DUP2 LT ISZERO PUSH2 0x895 JUMPI PUSH0 DUP8 DUP8 DUP4 DUP2 DUP2 LT PUSH2 0x7B3 JUMPI PUSH2 0x7B2 PUSH2 0x1569 JUMP JUMPDEST JUMPDEST SWAP1 POP PUSH1 0x20 MUL ADD PUSH1 0x20 DUP2 ADD SWAP1 PUSH2 0x7C8 SWAP2 SWAP1 PUSH2 0x1063 JUMP JUMPDEST PUSH20 0xFFFFFFFFFFFFFFFFFFFFFFFFFFFFFFFFFFFFFFFF AND DUP7 DUP7 DUP5 DUP2 DUP2 LT PUSH2 0x7F1 JUMPI PUSH2 0x7F0 PUSH2 0x1569 JUMP JUMPDEST JUMPDEST SWAP1 POP PUSH1 0x20 MUL ADD CALLDATALOAD PUSH1 0x40 MLOAD PUSH2 0x804 SWAP1 PUSH2 0x1327 JUMP JUMPDEST PUSH0 PUSH1 0x40 MLOAD DUP1 DUP4 SUB DUP2 DUP6 DUP8 GAS CALL SWAP3 POP POP POP RETURNDATASIZE DUP1 PUSH0 DUP2 EQ PUSH2 0x83E JUMPI PUSH1 0x40 MLOAD SWAP2 POP PUSH1 0x1F NOT PUSH1 0x3F RETURNDATASIZE ADD AND DUP3 ADD PUSH1 0x40 MSTORE RETURNDATASIZE DUP3 MSTORE RETURNDATASIZE PUSH0 PUSH1 0x20 DUP5 ADD RETURNDATACOPY PUSH2 0x843 JUMP JUMPDEST PUSH1 0x60 SWAP2 POP JUMPDEST POP POP SWAP1 POP DUP1 PUSH2 0x887 JUMPI PUSH1 0x40 MLOAD PUSH32 0x8C379A000000000000000000000000000000000000000000000000000000000 DUP2 MSTORE PUSH1 0x4 ADD PUSH2 0x87E SWAP1 PUSH2 0x1385 JUMP JUMPDEST PUSH1 0x40 MLOAD DUP1 SWAP2 SUB SWAP1 REVERT JUMPDEST POP DUP1 DUP1 PUSH1 0x1 ADD SWAP2 POP POP PUSH2 0x794 JUMP JUMPDEST POP DUP7 PUSH20 0xFFFFFFFFFFFFFFFFFFFFFFFFFFFFFFFFFFFFFFFF AND PUSH32 0xCE42F76F0CF784C9E92D84110F5600137AF202CB073BF235196D5C7E6CE9C15E DUP8 DUP8 DUP8 DUP8 PUSH1 0x40 MLOAD PUSH2 0x8E2 SWAP5 SWAP4 SWAP3 SWAP2 SWAP1 PUSH2 0x17C5 JUMP JUMPDEST PUSH1 0x40 MLOAD DUP1 SWAP2 SUB SWAP1 LOG2 POP POP POP POP POP POP POP JUMP JUMPDEST PUSH0 PUSH32 0x0 PUSH20 0xFFFFFFFFFFFFFFFFFFFFFFFFFFFFFFFFFFFFFFFF AND CALLER PUSH20 0xFFFFFFFFFFFFFFFFFFFFFFFFFFFFFFFFFFFFFFFF AND EQ PUSH2 0x982 JUMPI PUSH1 0x40 MLOAD PUSH32 0x8C379A000000000000000000000000000000000000000000000000000000000 DUP2 MSTORE PUSH1 0x4 ADD PUSH2 0x979 SWAP1 PUSH2 0x12DC JUMP JUMPDEST PUSH1 0x40 MLOAD DUP1 SWAP2 SUB SWAP1 REVERT JUMPDEST PUSH1 0x1 PUSH0 DUP4 PUSH20 0xFFFFFFFFFFFFFFFFFFFFFFFFFFFFFFFFFFFFFFFF AND PUSH20 0xFFFFFFFFFFFFFFFFFFFFFFFFFFFFFFFFFFFFFFFF AND DUP2 MSTORE PUSH1 0x20 ADD SWAP1 DUP2 MSTORE PUSH1 0x20 ADD PUSH0 KECCAK256 PUSH0 SWAP1 SLOAD SWAP1 PUSH2 0x100 EXP SWAP1 DIV PUSH1 0xFF AND PUSH2 0xA0B JUMPI PUSH1 0x40 MLOAD PUSH32 0x8C379A000000000000000000000000000000000000000000000000000000000 DUP2 MSTORE PUSH1 0x4 ADD PUSH2 0xA02 SWAP1 PUSH2 0x14BD JUMP JUMPDEST PUSH1 0x40 MLOAD DUP1 SWAP2 SUB SWAP1 REVERT JUMPDEST PUSH0 PUSH0 DUP4 PUSH20 0xFFFFFFFFFFFFFFFFFFFFFFFFFFFFFFFFFFFFFFFF AND PUSH20 0xFFFFFFFFFFFFFFFFFFFFFFFFFFFFFFFFFFFFFFFF AND DUP2 MSTORE PUSH1 0x20 ADD SWAP1 DUP2 MSTORE PUSH1 0x20 ADD PUSH0 KECCAK256 PUSH1 0x1 ADD SLOAD SWAP1 POP SWAP2 SWAP1 POP JUMP JUMPDEST PUSH0 PUSH0 PUSH0 CALLER PUSH20 0xFFFFFFFFFFFFFFFFFFFFFFFFFFFFFFFFFFFFFFFF AND PUSH20 0xFFFFFFFFFFFFFFFFFFFFFFFFFFFFFFFFFFFFFFFF AND DUP2 MSTORE PUSH1 0x20 ADD SWAP1 DUP2 MSTORE PUSH1 0x20 ADD PUSH0 KECCAK256 SWAP1 POP DUP1 PUSH0 ADD PUSH0 SWAP1 SLOAD SWAP1 PUSH2 0x100 EXP SWAP1 DIV PUSH1 0xFF AND PUSH2 0xAE0 JUMPI PUSH1 0x40 MLOAD PUSH32 0x8C379A000000000000000000000000000000000000000000000000000000000 DUP2 MSTORE PUSH1 0x4 ADD PUSH2 0xAD7 SWAP1 PUSH2 0x14BD JUMP JUMPDEST PUSH1 0x40 MLOAD DUP1 SWAP2 SUB SWAP1 REVERT JUMPDEST DUP2 DUP2 PUSH1 0x1 ADD SLOAD LT ISZERO PUSH2 0xB27 JUMPI PUSH1 0x40 MLOAD PUSH32 0x8C379A000000000000000000000000000000000000000000000000000000000 DUP2 MSTORE PUSH1 0x4 ADD PUSH2 0xB1E SWAP1 PUSH2 0x1848 JUMP JUMPDEST PUSH1 0x40 MLOAD DUP1 SWAP2 SUB SWAP1 REVERT JUMPDEST DUP2 DUP2 PUSH1 0x1 ADD PUSH0 DUP3 DUP3 SLOAD PUSH2 0xB3A SWAP2 SWAP1 PUSH2 0x165E JUMP JUMPDEST SWAP3 POP POP DUP2 SWAP1 SSTORE POP PUSH0 CALLER PUSH20 0xFFFFFFFFFFFFFFFFFFFFFFFFFFFFFFFFFFFFFFFF AND DUP4 PUSH1 0x40 MLOAD PUSH2 0xB66 SWAP1 PUSH2 0x1327 JUMP JUMPDEST PUSH0 PUSH1 0x40 MLOAD DUP1 DUP4 SUB DUP2 DUP6 DUP8 GAS CALL SWAP3 POP POP POP RETURNDATASIZE DUP1 PUSH0 DUP2 EQ PUSH2 0xBA0 JUMPI PUSH1 0x40 MLOAD SWAP2 POP PUSH1 0x1F NOT PUSH1 0x3F RETURNDATASIZE ADD AND DUP3 ADD PUSH1 0x40 MSTORE RETURNDATASIZE DUP3 MSTORE RETURNDATASIZE PUSH0 PUSH1 0x20 DUP5 ADD RETURNDATACOPY PUSH2 0xBA5 JUMP JUMPDEST PUSH1 0x60 SWAP2 POP JUMPDEST POP POP SWAP1 POP DUP1 PUSH2 0xBE9 JUMPI PUSH1 0x40 MLOAD PUSH32 0x8C379A000000000000000000000000000000000000000000000000000000000 DUP2 MSTORE PUSH1 0x4 ADD PUSH2 0xBE0 SWAP1 PUSH2 0x1385 JUMP JUMPDEST PUSH1 0x40 MLOAD DUP1 SWAP2 SUB SWAP1 REVERT JUMPDEST CALLER PUSH20 0xFFFFFFFFFFFFFFFFFFFFFFFFFFFFFFFFFFFFFFFF AND PUSH32 0x884EDAD9CE6FA2440D8A54CC123490EB96D2768479D49FF9C7366125A9424364 DUP5 PUSH1 0x40 MLOAD PUSH2 0xC2F SWAP2 SWAP1 PUSH2 0xFE8 JUMP JUMPDEST PUSH1 0x40 MLOAD DUP1 SWAP2 SUB SWAP1 LOG2 POP POP POP JUMP JUMPDEST PUSH1 0x1 PUSH0 CALLER PUSH20 0xFFFFFFFFFFFFFFFFFFFFFFFFFFFFFFFFFFFFFFFF AND PUSH20 0xFFFFFFFFFFFFFFFFFFFFFFFFFFFFFFFFFFFFFFFF AND DUP2 MSTORE PUSH1 0x20 ADD SWAP1 DUP2 MSTORE PUSH1 0x20 ADD PUSH0 KECCAK256 PUSH0 SWAP1 SLOAD SWAP1 PUSH2 0x100 EXP SWAP1 DIV PUSH1 0xFF AND PUSH2 0xCC5 JUMPI PUSH1 0x40 MLOAD PUSH32 0x8C379A000000000000000000000000000000000000000000000000000000000 DUP2 MSTORE PUSH1 0x4 ADD PUSH2 0xCBC SWAP1 PUSH2 0x18B0 JUMP JUMPDEST PUSH1 0x40 MLOAD DUP1 SWAP2 SUB SWAP1 REVERT JUMPDEST PUSH0 CALLVALUE GT PUSH2 0xD07 JUMPI PUSH1 0x40 MLOAD PUSH32 0x8C379A000000000000000000000000000000000000000000000000000000000 DUP2 MSTORE PUSH1 0x4 ADD PUSH2 0xCFE SWAP1 PUSH2 0x1918 JUMP JUMPDEST PUSH1 0x40 MLOAD DUP1 SWAP2 SUB SWAP1 REVERT JUMPDEST PUSH2 0xD10 CALLER PUSH2 0xE32 JUMP JUMPDEST PUSH0 PUSH2 0x2710 PUSH2 0xFFFF AND PUSH1 0x32 PUSH2 0xFFFF AND CALLVALUE PUSH2 0xD29 SWAP2 SWAP1 PUSH2 0x1936 JUMP JUMPDEST PUSH2 0xD33 SWAP2 SWAP1 PUSH2 0x19A4 JUMP JUMPDEST SWAP1 POP PUSH0 DUP2 CALLVALUE PUSH2 0xD42 SWAP2 SWAP1 PUSH2 0x165E JUMP JUMPDEST SWAP1 POP PUSH0 DUP2 GT PUSH2 0xD86 JUMPI PUSH1 0x40 MLOAD PUSH32 0x8C379A000000000000000000000000000000000000000000000000000000000 DUP2 MSTORE PUSH1 0x4 ADD PUSH2 0xD7D SWAP1 PUSH2 0x1A1E JUMP JUMPDEST PUSH1 0x40 MLOAD DUP1 SWAP2 SUB SWAP1 REVERT JUMPDEST PUSH2 0xD8F DUP3 PUSH2 0xDEF JUMP JUMPDEST PUSH2 0xD99 CALLER DUP3 PUSH2 0xEE8 JUMP JUMPDEST CALLER PUSH20 0xFFFFFFFFFFFFFFFFFFFFFFFFFFFFFFFFFFFFFFFF AND PUSH32 0x36AF321EC8D3C75236829C5317AFFD40DDB308863A1236D2D277A4025CCCEE1E CALLVALUE DUP5 DUP5 PUSH1 0x40 MLOAD PUSH2 0xDE3 SWAP4 SWAP3 SWAP2 SWAP1 PUSH2 0x1A3C JUMP JUMPDEST PUSH1 0x40 MLOAD DUP1 SWAP2 SUB SWAP1 LOG2 POP POP JUMP JUMPDEST PUSH0 DUP2 SUB ISZERO PUSH2 0xE2F JUMPI DUP1 PUSH1 0x2 PUSH1 0x1 ADD PUSH0 DUP3 DUP3 SLOAD PUSH2 0xE0B SWAP2 SWAP1 PUSH2 0x15C3 JUMP JUMPDEST SWAP3 POP POP DUP2 SWAP1 SSTORE POP PUSH1 0x1 PUSH1 0x2 PUSH0 ADD PUSH0 PUSH2 0x100 EXP DUP2 SLOAD DUP2 PUSH1 0xFF MUL NOT AND SWAP1 DUP4 ISZERO ISZERO MUL OR SWAP1 SSTORE POP JUMPDEST POP JUMP JUMPDEST PUSH0 PUSH0 PUSH0 DUP4 PUSH20 0xFFFFFFFFFFFFFFFFFFFFFFFFFFFFFFFFFFFFFFFF AND PUSH20 0xFFFFFFFFFFFFFFFFFFFFFFFFFFFFFFFFFFFFFFFF AND DUP2 MSTORE PUSH1 0x20 ADD SWAP1 DUP2 MSTORE PUSH1 0x20 ADD PUSH0 KECCAK256 SWAP1 POP DUP1 PUSH0 ADD PUSH0 SWAP1 SLOAD SWAP1 PUSH2 0x100 EXP SWAP1 DIV PUSH1 0xFF AND PUSH2 0xEE4 JUMPI PUSH1 0x1 DUP2 PUSH0 ADD PUSH0 PUSH2 0x100 EXP DUP2 SLOAD DUP2 PUSH1 0xFF MUL NOT AND SWAP1 DUP4 ISZERO ISZERO MUL OR SWAP1 SSTORE POP DUP2 PUSH20 0xFFFFFFFFFFFFFFFFFFFFFFFFFFFFFFFFFFFFFFFF AND PUSH32 0x2E49A5810FDA2439A23771848B4ACEC786B0A64D4DE3D124AC57FC8739C38875 PUSH1 0x40 MLOAD PUSH1 0x40 MLOAD DUP1 SWAP2 SUB SWAP1 LOG2 JUMPDEST POP POP JUMP JUMPDEST PUSH0 PUSH0 PUSH0 DUP5 PUSH20 0xFFFFFFFFFFFFFFFFFFFFFFFFFFFFFFFFFFFFFFFF AND PUSH20 0xFFFFFFFFFFFFFFFFFFFFFFFFFFFFFFFFFFFFFFFF AND DUP2 MSTORE PUSH1 0x20 ADD SWAP1 DUP2 MSTORE PUSH1 0x20 ADD PUSH0 KECCAK256 SWAP1 POP DUP2 DUP2 PUSH1 0x1 ADD PUSH0 DUP3 DUP3 SLOAD PUSH2 0xF3A SWAP2 SWAP1 PUSH2 0x15C3 JUMP JUMPDEST SWAP3 POP POP DUP2 SWAP1 SSTORE POP POP POP POP JUMP JUMPDEST PUSH1 0x40 MLOAD DUP1 PUSH1 0x20 ADD PUSH1 0x40 MSTORE DUP1 PUSH0 DUP2 MSTORE POP SWAP1 JUMP JUMPDEST PUSH0 DUP3 DUP3 MSTORE PUSH1 0x20 DUP3 ADD SWAP1 POP SWAP3 SWAP2 POP POP JUMP JUMPDEST PUSH32 0x446F6E277420646F206974210000000000000000000000000000000000000000 PUSH0 DUP3 ADD MSTORE POP JUMP JUMPDEST PUSH0 PUSH2 0xF9C PUSH1 0xC DUP4 PUSH2 0xF58 JUMP JUMPDEST SWAP2 POP PUSH2 0xFA7 DUP3 PUSH2 0xF68 JUMP JUMPDEST PUSH1 0x20 DUP3 ADD SWAP1 POP SWAP2 SWAP1 POP JUMP JUMPDEST PUSH0 PUSH1 0x20 DUP3 ADD SWAP1 POP DUP2 DUP2 SUB PUSH0 DUP4 ADD MSTORE PUSH2 0xFC9 DUP2 PUSH2 0xF90 JUMP JUMPDEST SWAP1 POP SWAP2 SWAP1 POP JUMP JUMPDEST PUSH0 DUP2 SWAP1 POP SWAP2 SWAP1 POP JUMP JUMPDEST PUSH2 0xFE2 DUP2 PUSH2 0xFD0 JUMP JUMPDEST DUP3 MSTORE POP POP JUMP JUMPDEST PUSH0 PUSH1 0x20 DUP3 ADD SWAP1 POP PUSH2 0xFFB PUSH0 DUP4 ADD DUP5 PUSH2 0xFD9 JUMP JUMPDEST SWAP3 SWAP2 POP POP JUMP JUMPDEST PUSH0 PUSH0 REVERT JUMPDEST PUSH0 PUSH0 REVERT JUMPDEST PUSH0 PUSH20 0xFFFFFFFFFFFFFFFFFFFFFFFFFFFFFFFFFFFFFFFF DUP3 AND SWAP1 POP SWAP2 SWAP1 POP JUMP JUMPDEST PUSH0 PUSH2 0x1032 DUP3 PUSH2 0x1009 JUMP JUMPDEST SWAP1 POP SWAP2 SWAP1 POP JUMP JUMPDEST PUSH2 0x1042 DUP2 PUSH2 0x1028 JUMP JUMPDEST DUP2 EQ PUSH2 0x104C JUMPI PUSH0 PUSH0 REVERT JUMPDEST POP JUMP JUMPDEST PUSH0 DUP2 CALLDATALOAD SWAP1 POP PUSH2 0x105D DUP2 PUSH2 0x1039 JUMP JUMPDEST SWAP3 SWAP2 POP POP JUMP JUMPDEST PUSH0 PUSH1 0x20 DUP3 DUP5 SUB SLT ISZERO PUSH2 0x1078 JUMPI PUSH2 0x1077 PUSH2 0x1001 JUMP JUMPDEST JUMPDEST PUSH0 PUSH2 0x1085 DUP5 DUP3 DUP6 ADD PUSH2 0x104F JUMP JUMPDEST SWAP2 POP POP SWAP3 SWAP2 POP POP JUMP JUMPDEST PUSH2 0x1097 DUP2 PUSH2 0xFD0 JUMP JUMPDEST DUP3 MSTORE POP POP JUMP JUMPDEST PUSH1 0x20 DUP3 ADD PUSH0 DUP3 ADD MLOAD PUSH2 0x10B1 PUSH0 DUP6 ADD DUP3 PUSH2 0x108E JUMP JUMPDEST POP POP POP POP JUMP JUMPDEST PUSH0 PUSH1 0x20 DUP3 ADD SWAP1 POP PUSH2 0x10CA PUSH0 DUP4 ADD DUP5 PUSH2 0x109D JUMP JUMPDEST SWAP3 SWAP2 POP POP JUMP JUMPDEST PUSH0 PUSH0 REVERT JUMPDEST PUSH0 PUSH0 REVERT JUMPDEST PUSH0 PUSH0 REVERT JUMPDEST PUSH0 PUSH0 DUP4 PUSH1 0x1F DUP5 ADD SLT PUSH2 0x10F1 JUMPI PUSH2 0x10F0 PUSH2 0x10D0 JUMP JUMPDEST JUMPDEST DUP3 CALLDATALOAD SWAP1 POP PUSH8 0xFFFFFFFFFFFFFFFF DUP2 GT ISZERO PUSH2 0x110E JUMPI PUSH2 0x110D PUSH2 0x10D4 JUMP JUMPDEST JUMPDEST PUSH1 0x20 DUP4 ADD SWAP2 POP DUP4 PUSH1 0x20 DUP3 MUL DUP4 ADD GT ISZERO PUSH2 0x112A JUMPI PUSH2 0x1129 PUSH2 0x10D8 JUMP JUMPDEST JUMPDEST SWAP3 POP SWAP3 SWAP1 POP JUMP JUMPDEST PUSH0 PUSH0 DUP4 PUSH1 0x1F DUP5 ADD SLT PUSH2 0x1146 JUMPI PUSH2 0x1145 PUSH2 0x10D0 JUMP JUMPDEST JUMPDEST DUP3 CALLDATALOAD SWAP1 POP PUSH8 0xFFFFFFFFFFFFFFFF DUP2 GT ISZERO PUSH2 0x1163 JUMPI PUSH2 0x1162 PUSH2 0x10D4 JUMP JUMPDEST JUMPDEST PUSH1 0x20 DUP4 ADD SWAP2 POP DUP4 PUSH1 0x20 DUP3 MUL DUP4 ADD GT ISZERO PUSH2 0x117F JUMPI PUSH2 0x117E PUSH2 0x10D8 JUMP JUMPDEST JUMPDEST SWAP3 POP SWAP3 SWAP1 POP JUMP JUMPDEST PUSH0 PUSH0 PUSH0 PUSH0 PUSH0 PUSH1 0x60 DUP7 DUP9 SUB SLT ISZERO PUSH2 0x119F JUMPI PUSH2 0x119E PUSH2 0x1001 JUMP JUMPDEST JUMPDEST PUSH0 PUSH2 0x11AC DUP9 DUP3 DUP10 ADD PUSH2 0x104F JUMP JUMPDEST SWAP6 POP POP PUSH1 0x20 DUP7 ADD CALLDATALOAD PUSH8 0xFFFFFFFFFFFFFFFF DUP2 GT ISZERO PUSH2 0x11CD JUMPI PUSH2 0x11CC PUSH2 0x1005 JUMP JUMPDEST JUMPDEST PUSH2 0x11D9 DUP9 DUP3 DUP10 ADD PUSH2 0x10DC JUMP JUMPDEST SWAP5 POP SWAP5 POP POP PUSH1 0x40 DUP7 ADD CALLDATALOAD PUSH8 0xFFFFFFFFFFFFFFFF DUP2 GT ISZERO PUSH2 0x11FC JUMPI PUSH2 0x11FB PUSH2 0x1005 JUMP JUMPDEST JUMPDEST PUSH2 0x1208 DUP9 DUP3 DUP10 ADD PUSH2 0x1131 JUMP JUMPDEST SWAP3 POP SWAP3 POP POP SWAP3 SWAP6 POP SWAP3 SWAP6 SWAP1 SWAP4 POP JUMP JUMPDEST PUSH2 0x1220 DUP2 PUSH2 0xFD0 JUMP JUMPDEST DUP2 EQ PUSH2 0x122A JUMPI PUSH0 PUSH0 REVERT JUMPDEST POP JUMP JUMPDEST PUSH0 DUP2 CALLDATALOAD SWAP1 POP PUSH2 0x123B DUP2 PUSH2 0x1217 JUMP JUMPDEST SWAP3 SWAP2 POP POP JUMP JUMPDEST PUSH0 PUSH1 0x20 DUP3 DUP5 SUB SLT ISZERO PUSH2 0x1256 JUMPI PUSH2 0x1255 PUSH2 0x1001 JUMP JUMPDEST JUMPDEST PUSH0 PUSH2 0x1263 DUP5 DUP3 DUP6 ADD PUSH2 0x122D JUMP JUMPDEST SWAP2 POP POP SWAP3 SWAP2 POP POP JUMP JUMPDEST PUSH32 0x4F6E6C79206465706C6F7965722063616E2063616C6C20746869732066756E63 PUSH0 DUP3 ADD MSTORE PUSH32 0x74696F6E00000000000000000000000000000000000000000000000000000000 PUSH1 0x20 DUP3 ADD MSTORE POP JUMP JUMPDEST PUSH0 PUSH2 0x12C6 PUSH1 0x24 DUP4 PUSH2 0xF58 JUMP JUMPDEST SWAP2 POP PUSH2 0x12D1 DUP3 PUSH2 0x126C JUMP JUMPDEST PUSH1 0x40 DUP3 ADD SWAP1 POP SWAP2 SWAP1 POP JUMP JUMPDEST PUSH0 PUSH1 0x20 DUP3 ADD SWAP1 POP DUP2 DUP2 SUB PUSH0 DUP4 ADD MSTORE PUSH2 0x12F3 DUP2 PUSH2 0x12BA JUMP JUMPDEST SWAP1 POP SWAP2 SWAP1 POP JUMP JUMPDEST PUSH0 DUP2 SWAP1 POP SWAP3 SWAP2 POP POP JUMP JUMPDEST POP JUMP JUMPDEST PUSH0 PUSH2 0x1312 PUSH0 DUP4 PUSH2 0x12FA JUMP JUMPDEST SWAP2 POP PUSH2 0x131D DUP3 PUSH2 0x1304 JUMP JUMPDEST PUSH0 DUP3 ADD SWAP1 POP SWAP2 SWAP1 POP JUMP JUMPDEST PUSH0 PUSH2 0x1331 DUP3 PUSH2 0x1307 JUMP JUMPDEST SWAP2 POP DUP2 SWAP1 POP SWAP2 SWAP1 POP JUMP JUMPDEST PUSH32 0x455448207472616E73666572206661696C656400000000000000000000000000 PUSH0 DUP3 ADD MSTORE POP JUMP JUMPDEST PUSH0 PUSH2 0x136F PUSH1 0x13 DUP4 PUSH2 0xF58 JUMP JUMPDEST SWAP2 POP PUSH2 0x137A DUP3 PUSH2 0x133B JUMP JUMPDEST PUSH1 0x20 DUP3 ADD SWAP1 POP SWAP2 SWAP1 POP JUMP JUMPDEST PUSH0 PUSH1 0x20 DUP3 ADD SWAP1 POP DUP2 DUP2 SUB PUSH0 DUP4 ADD MSTORE PUSH2 0x139C DUP2 PUSH2 0x1363 JUMP JUMPDEST SWAP1 POP SWAP2 SWAP1 POP JUMP JUMPDEST PUSH32 0x5661756C7420616C726561647920637265617465640000000000000000000000 PUSH0 DUP3 ADD MSTORE POP JUMP JUMPDEST PUSH0 PUSH2 0x13D7 PUSH1 0x15 DUP4 PUSH2 0xF58 JUMP JUMPDEST SWAP2 POP PUSH2 0x13E2 DUP3 PUSH2 0x13A3 JUMP JUMPDEST PUSH1 0x20 DUP3 ADD SWAP1 POP SWAP2 SWAP1 POP JUMP JUMPDEST PUSH0 PUSH1 0x20 DUP3 ADD SWAP1 POP DUP2 DUP2 SUB PUSH0 DUP4 ADD MSTORE PUSH2 0x1404 DUP2 PUSH2 0x13CB JUMP JUMPDEST SWAP1 POP SWAP2 SWAP1 POP JUMP JUMPDEST PUSH32 0x457861637420302E312045544820726571756972656400000000000000000000 PUSH0 DUP3 ADD MSTORE POP JUMP JUMPDEST PUSH0 PUSH2 0x143F PUSH1 0x16 DUP4 PUSH2 0xF58 JUMP JUMPDEST SWAP2 POP PUSH2 0x144A DUP3 PUSH2 0x140B JUMP JUMPDEST PUSH1 0x20 DUP3 ADD SWAP1 POP SWAP2 SWAP1 POP JUMP JUMPDEST PUSH0 PUSH1 0x20 DUP3 ADD SWAP1 POP DUP2 DUP2 SUB PUSH0 DUP4 ADD MSTORE PUSH2 0x146C DUP2 PUSH2 0x1433 JUMP JUMPDEST SWAP1 POP SWAP2 SWAP1 POP JUMP JUMPDEST PUSH32 0x5661756C7420646F6573206E6F74206578697374000000000000000000000000 PUSH0 DUP3 ADD MSTORE POP JUMP JUMPDEST PUSH0 PUSH2 0x14A7 PUSH1 0x14 DUP4 PUSH2 0xF58 JUMP JUMPDEST SWAP2 POP PUSH2 0x14B2 DUP3 PUSH2 0x1473 JUMP JUMPDEST PUSH1 0x20 DUP3 ADD SWAP1 POP SWAP2 SWAP1 POP JUMP JUMPDEST PUSH0 PUSH1 0x20 DUP3 ADD SWAP1 POP DUP2 DUP2 SUB PUSH0 DUP4 ADD MSTORE PUSH2 0x14D4 DUP2 PUSH2 0x149B JUMP JUMPDEST SWAP1 POP SWAP2 SWAP1 POP JUMP JUMPDEST PUSH32 0x526563697069656E747320616E6420616D6F756E7473206C656E677468206D69 PUSH0 DUP3 ADD MSTORE PUSH32 0x736D617463680000000000000000000000000000000000000000000000000000 PUSH1 0x20 DUP3 ADD MSTORE POP JUMP JUMPDEST PUSH0 PUSH2 0x1535 PUSH1 0x26 DUP4 PUSH2 0xF58 JUMP JUMPDEST SWAP2 POP PUSH2 0x1540 DUP3 PUSH2 0x14DB JUMP JUMPDEST PUSH1 0x40 DUP3 ADD SWAP1 POP SWAP2 SWAP1 POP JUMP JUMPDEST PUSH0 PUSH1 0x20 DUP3 ADD SWAP1 POP DUP2 DUP2 SUB PUSH0 DUP4 ADD MSTORE PUSH2 0x1562 DUP2 PUSH2 0x1529 JUMP JUMPDEST SWAP1 POP SWAP2 SWAP1 POP JUMP JUMPDEST PUSH32 0x4E487B7100000000000000000000000000000000000000000000000000000000 PUSH0 MSTORE PUSH1 0x32 PUSH1 0x4 MSTORE PUSH1 0x24 PUSH0 REVERT JUMPDEST PUSH32 0x4E487B7100000000000000000000000000000000000000000000000000000000 PUSH0 MSTORE PUSH1 0x11 PUSH1 0x4 MSTORE PUSH1 0x24 PUSH0 REVERT JUMPDEST PUSH0 PUSH2 0x15CD DUP3 PUSH2 0xFD0 JUMP JUMPDEST SWAP2 POP PUSH2 0x15D8 DUP4 PUSH2 0xFD0 JUMP JUMPDEST SWAP3 POP DUP3 DUP3 ADD SWAP1 POP DUP1 DUP3 GT ISZERO PUSH2 0x15F0 JUMPI PUSH2 0x15EF PUSH2 0x1596 JUMP JUMPDEST JUMPDEST SWAP3 SWAP2 POP POP JUMP JUMPDEST PUSH32 0x496E73756666696369656E742045544820696E207661756C7400000000000000 PUSH0 DUP3 ADD MSTORE POP JUMP JUMPDEST PUSH0 PUSH2 0x162A PUSH1 0x19 DUP4 PUSH2 0xF58 JUMP JUMPDEST SWAP2 POP PUSH2 0x1635 DUP3 PUSH2 0x15F6 JUMP JUMPDEST PUSH1 0x20 DUP3 ADD SWAP1 POP SWAP2 SWAP1 POP JUMP JUMPDEST PUSH0 PUSH1 0x20 DUP3 ADD SWAP1 POP DUP2 DUP2 SUB PUSH0 DUP4 ADD MSTORE PUSH2 0x1657 DUP2 PUSH2 0x161E JUMP JUMPDEST SWAP1 POP SWAP2 SWAP1 POP JUMP JUMPDEST PUSH0 PUSH2 0x1668 DUP3 PUSH2 0xFD0 JUMP JUMPDEST SWAP2 POP PUSH2 0x1673 DUP4 PUSH2 0xFD0 JUMP JUMPDEST SWAP3 POP DUP3 DUP3 SUB SWAP1 POP DUP2 DUP2 GT ISZERO PUSH2 0x168B JUMPI PUSH2 0x168A PUSH2 0x1596 JUMP JUMPDEST JUMPDEST SWAP3 SWAP2 POP POP JUMP JUMPDEST PUSH0 DUP3 DUP3 MSTORE PUSH1 0x20 DUP3 ADD SWAP1 POP SWAP3 SWAP2 POP POP JUMP JUMPDEST PUSH0 DUP2 SWAP1 POP SWAP2 SWAP1 POP JUMP JUMPDEST PUSH2 0x16B3 DUP2 PUSH2 0x1028 JUMP JUMPDEST DUP3 MSTORE POP POP JUMP JUMPDEST PUSH0 PUSH2 0x16C4 DUP4 DUP4 PUSH2 0x16AA JUMP JUMPDEST PUSH1 0x20 DUP4 ADD SWAP1 POP SWAP3 SWAP2 POP POP JUMP JUMPDEST PUSH0 PUSH2 0x16DE PUSH1 0x20 DUP5 ADD DUP5 PUSH2 0x104F JUMP JUMPDEST SWAP1 POP SWAP3 SWAP2 POP POP JUMP JUMPDEST PUSH0 PUSH1 0x20 DUP3 ADD SWAP1 POP SWAP2 SWAP1 POP JUMP JUMPDEST PUSH0 PUSH2 0x16FD DUP4 DUP6 PUSH2 0x1691 JUMP JUMPDEST SWAP4 POP PUSH2 0x1708 DUP3 PUSH2 0x16A1 JUMP JUMPDEST DUP1 PUSH0 JUMPDEST DUP6 DUP2 LT ISZERO PUSH2 0x1740 JUMPI PUSH2 0x171D DUP3 DUP5 PUSH2 0x16D0 JUMP JUMPDEST PUSH2 0x1727 DUP9 DUP3 PUSH2 0x16B9 JUMP JUMPDEST SWAP8 POP PUSH2 0x1732 DUP4 PUSH2 0x16E6 JUMP JUMPDEST SWAP3 POP POP PUSH1 0x1 DUP2 ADD SWAP1 POP PUSH2 0x170B JUMP JUMPDEST POP DUP6 SWAP3 POP POP POP SWAP4 SWAP3 POP POP POP JUMP JUMPDEST PUSH0 DUP3 DUP3 MSTORE PUSH1 0x20 DUP3 ADD SWAP1 POP SWAP3 SWAP2 POP POP JUMP JUMPDEST PUSH0 PUSH0 REVERT JUMPDEST DUP3 DUP2 DUP4 CALLDATACOPY POP POP POP JUMP JUMPDEST PUSH0 PUSH2 0x1775 DUP4 DUP6 PUSH2 0x174D JUMP JUMPDEST SWAP4 POP PUSH32 0x7FFFFFFFFFFFFFFFFFFFFFFFFFFFFFFFFFFFFFFFFFFFFFFFFFFFFFFFFFFFFFF DUP4 GT ISZERO PUSH2 0x17A8 JUMPI PUSH2 0x17A7 PUSH2 0x175D JUMP JUMPDEST JUMPDEST PUSH1 0x20 DUP4 MUL SWAP3 POP PUSH2 0x17B9 DUP4 DUP6 DUP5 PUSH2 0x1761 JUMP JUMPDEST DUP3 DUP5 ADD SWAP1 POP SWAP4 SWAP3 POP POP POP JUMP JUMPDEST PUSH0 PUSH1 0x40 DUP3 ADD SWAP1 POP DUP2 DUP2 SUB PUSH0 DUP4 ADD MSTORE PUSH2 0x17DE DUP2 DUP7 DUP9 PUSH2 0x16F2 JUMP JUMPDEST SWAP1 POP DUP2 DUP2 SUB PUSH1 0x20 DUP4 ADD MSTORE PUSH2 0x17F3 DUP2 DUP5 DUP7 PUSH2 0x176A JUMP JUMPDEST SWAP1 POP SWAP6 SWAP5 POP POP POP POP POP JUMP JUMPDEST PUSH32 0x496E73756666696369656E742045544800000000000000000000000000000000 PUSH0 DUP3 ADD MSTORE POP JUMP JUMPDEST PUSH0 PUSH2 0x1832 PUSH1 0x10 DUP4 PUSH2 0xF58 JUMP JUMPDEST SWAP2 POP PUSH2 0x183D DUP3 PUSH2 0x17FE JUMP JUMPDEST PUSH1 0x20 DUP3 ADD SWAP1 POP SWAP2 SWAP1 POP JUMP JUMPDEST PUSH0 PUSH1 0x20 DUP3 ADD SWAP1 POP DUP2 DUP2 SUB PUSH0 DUP4 ADD MSTORE PUSH2 0x185F DUP2 PUSH2 0x1826 JUMP JUMPDEST SWAP1 POP SWAP2 SWAP1 POP JUMP JUMPDEST PUSH32 0x437265617465207661756C742066697273740000000000000000000000000000 PUSH0 DUP3 ADD MSTORE POP JUMP JUMPDEST PUSH0 PUSH2 0x189A PUSH1 0x12 DUP4 PUSH2 0xF58 JUMP JUMPDEST SWAP2 POP PUSH2 0x18A5 DUP3 PUSH2 0x1866 JUMP JUMPDEST PUSH1 0x20 DUP3 ADD SWAP1 POP SWAP2 SWAP1 POP JUMP JUMPDEST PUSH0 PUSH1 0x20 DUP3 ADD SWAP1 POP DUP2 DUP2 SUB PUSH0 DUP4 ADD MSTORE PUSH2 0x18C7 DUP2 PUSH2 0x188E JUMP JUMPDEST SWAP1 POP SWAP2 SWAP1 POP JUMP JUMPDEST PUSH32 0x4E6F204554482073656E74000000000000000000000000000000000000000000 PUSH0 DUP3 ADD MSTORE POP JUMP JUMPDEST PUSH0 PUSH2 0x1902 PUSH1 0xB DUP4 PUSH2 0xF58 JUMP JUMPDEST SWAP2 POP PUSH2 0x190D DUP3 PUSH2 0x18CE JUMP JUMPDEST PUSH1 0x20 DUP3 ADD SWAP1 POP SWAP2 SWAP1 POP JUMP JUMPDEST PUSH0 PUSH1 0x20 DUP3 ADD SWAP1 POP DUP2 DUP2 SUB PUSH0 DUP4 ADD MSTORE PUSH2 0x192F DUP2 PUSH2 0x18F6 JUMP JUMPDEST SWAP1 POP SWAP2 SWAP1 POP JUMP JUMPDEST PUSH0 PUSH2 0x1940 DUP3 PUSH2 0xFD0 JUMP JUMPDEST SWAP2 POP PUSH2 0x194B DUP4 PUSH2 0xFD0 JUMP JUMPDEST SWAP3 POP DUP3 DUP3 MUL PUSH2 0x1959 DUP2 PUSH2 0xFD0 JUMP JUMPDEST SWAP2 POP DUP3 DUP3 DIV DUP5 EQ DUP4 ISZERO OR PUSH2 0x1970 JUMPI PUSH2 0x196F PUSH2 0x1596 JUMP JUMPDEST JUMPDEST POP SWAP3 SWAP2 POP POP JUMP JUMPDEST PUSH32 0x4E487B7100000000000000000000000000000000000000000000000000000000 PUSH0 MSTORE PUSH1 0x12 PUSH1 0x4 MSTORE PUSH1 0x24 PUSH0 REVERT JUMPDEST PUSH0 PUSH2 0x19AE DUP3 PUSH2 0xFD0 JUMP JUMPDEST SWAP2 POP PUSH2 0x19B9 DUP4 PUSH2 0xFD0 JUMP JUMPDEST SWAP3 POP DUP3 PUSH2 0x19C9 JUMPI PUSH2 0x19C8 PUSH2 0x1977 JUMP JUMPDEST JUMPDEST DUP3 DUP3 DIV SWAP1 POP SWAP3 SWAP2 POP POP JUMP JUMPDEST PUSH32 0x4E6574206973207A65726F000000000000000000000000000000000000000000 PUSH0 DUP3 ADD MSTORE POP JUMP JUMPDEST PUSH0 PUSH2 0x1A08 PUSH1 0xB DUP4 PUSH2 0xF58 JUMP JUMPDEST SWAP2 POP PUSH2 0x1A13 DUP3 PUSH2 0x19D4 JUMP JUMPDEST PUSH1 0x20 DUP3 ADD SWAP1 POP SWAP2 SWAP1 POP JUMP JUMPDEST PUSH0 PUSH1 0x20 DUP3 ADD SWAP1 POP DUP2 DUP2 SUB PUSH0 DUP4 ADD MSTORE PUSH2 0x1A35 DUP2 PUSH2 0x19FC JUMP JUMPDEST SWAP1 POP SWAP2 SWAP1 POP JUMP JUMPDEST PUSH0 PUSH1 0x60 DUP3 ADD SWAP1 POP PUSH2 0x1A4F PUSH0 DUP4 ADD DUP7 PUSH2 0xFD9 JUMP JUMPDEST PUSH2 0x1A5C PUSH1 0x20 DUP4 ADD DUP6 PUSH2 0xFD9 JUMP JUMPDEST PUSH2 0x1A69 PUSH1 0x40 DUP4 ADD DUP5 PUSH2 0xFD9 JUMP JUMPDEST SWAP5 SWAP4 POP POP POP POP JUMP INVALID LOG2 PUSH5 0x6970667358 0x22 SLT KECCAK256 0xC8 PUSH20 0x4AFF75F1D35B2A86B5FF3BB492D2BBCC3321C1B0 0xC0 0xB2 CALLDATACOPY 0xBC 0xC BASEFEE 0xB3 GT 0xDB 0xDB PUSH5 0x736F6C6343 STOP ADDMOD 0x1E STOP CALLER "
				},
				"gasEstimates": {
					"creation": {
						"codeDepositCost": "1364600",
						"executionCost": "infinite",
						"totalCost": "infinite"
					},
					"external": {
						"createVault()": "infinite",
						"depositETH()": "infinite",
						"distributeVault(address,address[],uint256[])": "infinite",
						"myVault()": "2763",
						"showFees()": "2439",
						"vaultBalance(address)": "infinite",
						"withdrawETH(uint256)": "infinite",
						"withdrawFees(address)": "infinite"
					},
					"internal": {
						"_credit(address,uint256)": "infinite",
						"_creditContractVault(uint256)": "infinite",
						"_ensureVault(address)": "27708"
					}
				},
				"methodIdentifiers": {
					"createVault()": "5d12928b",
					"depositETH()": "f6326fb3",
					"distributeVault(address,address[],uint256[])": "a58b8c3e",
					"myVault()": "9f5f0520",
					"showFees()": "04d8c8e2",
					"vaultBalance(address)": "ed0fe416",
					"withdrawETH(uint256)": "f14210a6",
					"withdrawFees(address)": "164e68de"
				}
			},
			"storageLayout": {
				"storage": [
					{
						"astId": 23,
						"contract": "src/contracts/EtherniumTcc.sol:EthereumTcc",
						"label": "testators",
						"offset": 0,
						"slot": "0",
						"type": "t_mapping(t_address,t_struct(Vault)15_storage)"
					},
					{
						"astId": 27,
						"contract": "src/contracts/EtherniumTcc.sol:EthereumTcc",
						"label": "vaultCreatedAndPaid",
						"offset": 0,
						"slot": "1",
						"type": "t_mapping(t_address,t_bool)"
					},
					{
						"astId": 30,
						"contract": "src/contracts/EtherniumTcc.sol:EthereumTcc",
						"label": "vaultOfContract",
						"offset": 0,
						"slot": "2",
						"type": "t_struct(Vault)15_storage"
					}
				],
				"types": {
					"t_address": {
						"encoding": "inplace",
						"label": "address",
						"numberOfBytes": "20"
					},
					"t_bool": {
						"encoding": "inplace",
						"label": "bool",
						"numberOfBytes": "1"
					},
					"t_mapping(t_address,t_bool)": {
						"encoding": "mapping",
						"key": "t_address",
						"label": "mapping(address => bool)",
						"numberOfBytes": "32",
						"value": "t_bool"
					},
					"t_mapping(t_address,t_struct(Vault)15_storage)": {
						"encoding": "mapping",
						"key": "t_address",
						"label": "mapping(address => struct EthereumTcc.Vault)",
						"numberOfBytes": "32",
						"value": "t_struct(Vault)15_storage"
					},
					"t_struct(Vault)15_storage": {
						"encoding": "inplace",
						"label": "struct EthereumTcc.Vault",
						"members": [
							{
								"astId": 12,
								"contract": "src/contracts/EtherniumTcc.sol:EthereumTcc",
								"label": "exist",
								"offset": 0,
								"slot": "0",
								"type": "t_bool"
							},
							{
								"astId": 14,
								"contract": "src/contracts/EtherniumTcc.sol:EthereumTcc",
								"label": "balance",
								"offset": 0,
								"slot": "1",
								"type": "t_uint256"
							}
						],
						"numberOfBytes": "64"
					},
					"t_uint256": {
						"encoding": "inplace",
						"label": "uint256",
						"numberOfBytes": "32"
					}
				}
			},
			"userdoc": {
				"kind": "user",
				"methods": {},
				"version": 1
			}
		}
	}
}