{
	"src/contracts/Ethernium.sol": {
		"Ethernium": {
			"abi": [
				{
					"anonymous": false,
					"inputs": [
						{
							"indexed": true,
							"internalType": "address",
							"name": "testator",
							"type": "address"
						},
						{
							"indexed": true,
							"internalType": "address",
							"name": "token",
							"type": "address"
						},
						{
							"indexed": false,
							"internalType": "uint256",
							"name": "grossAmount",
							"type": "uint256"
						},
						{
							"indexed": false,
							"internalType": "uint256",
							"name": "feeAmount",
							"type": "uint256"
						},
						{
							"indexed": false,
							"internalType": "uint256",
							"name": "netAmount",
							"type": "uint256"
						}
					],
					"name": "Deposit",
					"type": "event"
				},
				{
					"anonymous": false,
					"inputs": [
						{
							"indexed": true,
							"internalType": "address",
							"name": "testator",
							"type": "address"
						}
					],
					"name": "VaultCreated",
					"type": "event"
				},
				{
					"anonymous": false,
					"inputs": [
						{
							"indexed": true,
							"internalType": "address",
							"name": "testator",
							"type": "address"
						},
						{
							"indexed": true,
							"internalType": "address",
							"name": "token",
							"type": "address"
						},
						{
							"indexed": false,
							"internalType": "uint256",
							"name": "amount",
							"type": "uint256"
						}
					],
					"name": "Withdraw",
					"type": "event"
				},
				{
					"inputs": [],
					"name": "contractVaultView",
					"outputs": [
						{
							"components": [
								{
									"internalType": "bool",
									"name": "exist",
									"type": "bool"
								},
								{
									"internalType": "address[]",
									"name": "tokens",
									"type": "address[]"
								},
								{
									"internalType": "uint256[]",
									"name": "balances",
									"type": "uint256[]"
								}
							],
							"internalType": "struct Ethernium.VaultView",
							"name": "v",
							"type": "tuple"
						}
					],
					"stateMutability": "view",
					"type": "function"
				},
				{
					"inputs": [],
					"name": "createVault",
					"outputs": [],
					"stateMutability": "payable",
					"type": "function"
				},
				{
					"inputs": [
						{
							"internalType": "address",
							"name": "token",
							"type": "address"
						},
						{
							"internalType": "uint256",
							"name": "amount",
							"type": "uint256"
						}
					],
					"name": "depositERC20",
					"outputs": [],
					"stateMutability": "payable",
					"type": "function"
				},
				{
					"inputs": [],
					"name": "depositETH",
					"outputs": [],
					"stateMutability": "payable",
					"type": "function"
				},
				{
					"inputs": [],
					"name": "getTokens",
					"outputs": [
						{
							"internalType": "address[]",
							"name": "",
							"type": "address[]"
						}
					],
					"stateMutability": "view",
					"type": "function"
				},
				{
					"inputs": [],
					"name": "myVault",
					"outputs": [
						{
							"components": [
								{
									"internalType": "bool",
									"name": "exist",
									"type": "bool"
								},
								{
									"internalType": "address[]",
									"name": "tokens",
									"type": "address[]"
								},
								{
									"internalType": "uint256[]",
									"name": "balances",
									"type": "uint256[]"
								}
							],
							"internalType": "struct Ethernium.VaultView",
							"name": "v",
							"type": "tuple"
						}
					],
					"stateMutability": "view",
					"type": "function"
				},
				{
					"inputs": [
						{
							"internalType": "address",
							"name": "token",
							"type": "address"
						},
						{
							"internalType": "uint256",
							"name": "amount",
							"type": "uint256"
						}
					],
					"name": "withdrawERC20",
					"outputs": [],
					"stateMutability": "nonpayable",
					"type": "function"
				},
				{
					"inputs": [
						{
							"internalType": "uint256",
							"name": "amount",
							"type": "uint256"
						}
					],
					"name": "withdrawETH",
					"outputs": [],
					"stateMutability": "nonpayable",
					"type": "function"
				},
				{
					"stateMutability": "payable",
					"type": "receive"
				}
			],
			"devdoc": {
				"kind": "dev",
				"methods": {},
				"version": 1
			},
			"evm": {
				"assembly": "    /* \"src/contracts/Ethernium.sol\":116:8038  contract Ethernium {... */\n  mstore(0x40, 0x80)\n  callvalue\n  dup1\n  iszero\n  tag_1\n  jumpi\n  revert(0x00, 0x00)\ntag_1:\n  pop\n  dataSize(sub_0)\n  dup1\n  dataOffset(sub_0)\n  0x00\n  codecopy\n  0x00\n  return\nstop\n\nsub_0: assembly {\n        /* \"src/contracts/Ethernium.sol\":116:8038  contract Ethernium {... */\n      mstore(0x40, 0x80)\n      jumpi(tag_1, lt(calldatasize, 0x04))\n      shr(0xe0, calldataload(0x00))\n      dup1\n      0xaa6ca808\n      gt\n      tag_11\n      jumpi\n      dup1\n      0xaa6ca808\n      eq\n      tag_7\n      jumpi\n      dup1\n      0xecb07464\n      eq\n      tag_8\n      jumpi\n      dup1\n      0xf14210a6\n      eq\n      tag_9\n      jumpi\n      dup1\n      0xf6326fb3\n      eq\n      tag_10\n      jumpi\n      jump(tag_2)\n    tag_11:\n      dup1\n      0x5d12928b\n      eq\n      tag_3\n      jumpi\n      dup1\n      0x97feb926\n      eq\n      tag_4\n      jumpi\n      dup1\n      0x9f5f0520\n      eq\n      tag_5\n      jumpi\n      dup1\n      0xa1db9782\n      eq\n      tag_6\n      jumpi\n      jump(tag_2)\n    tag_1:\n      jumpi(tag_2, calldatasize)\n        /* \"src/contracts/Ethernium.sol\":3244:3268  revert(\"Use depositETH\") */\n      mload(0x40)\n      0x08c379a000000000000000000000000000000000000000000000000000000000\n      dup2\n      mstore\n      0x04\n      add\n      tag_14\n      swap1\n      tag_15\n      jump\t// in\n    tag_14:\n      mload(0x40)\n      dup1\n      swap2\n      sub\n      swap1\n      revert\n        /* \"src/contracts/Ethernium.sol\":116:8038  contract Ethernium {... */\n    tag_2:\n      revert(0x00, 0x00)\n        /* \"src/contracts/Ethernium.sol\":1766:2352  function createVault() external payable {... */\n    tag_3:\n      tag_16\n      tag_17\n      jump\t// in\n    tag_16:\n      stop\n        /* \"src/contracts/Ethernium.sol\":3507:4462  function depositERC20(address token, uint256 amount) external payable {... */\n    tag_4:\n      tag_18\n      0x04\n      dup1\n      calldatasize\n      sub\n      dup2\n      add\n      swap1\n      tag_19\n      swap2\n      swap1\n      tag_20\n      jump\t// in\n    tag_19:\n      tag_21\n      jump\t// in\n    tag_18:\n      stop\n        /* \"src/contracts/Ethernium.sol\":4537:5075  function myVault() public view returns (VaultView memory v) {... */\n    tag_5:\n      callvalue\n      dup1\n      iszero\n      tag_22\n      jumpi\n      revert(0x00, 0x00)\n    tag_22:\n      pop\n      tag_23\n      tag_24\n      jump\t// in\n    tag_23:\n      mload(0x40)\n      tag_25\n      swap2\n      swap1\n      tag_26\n      jump\t// in\n    tag_25:\n      mload(0x40)\n      dup1\n      swap2\n      sub\n      swap1\n      return\n        /* \"src/contracts/Ethernium.sol\":5871:6363  function withdrawERC20(address token, uint256 amount) external {... */\n    tag_6:\n      callvalue\n      dup1\n      iszero\n      tag_27\n      jumpi\n      revert(0x00, 0x00)\n    tag_27:\n      pop\n      tag_28\n      0x04\n      dup1\n      calldatasize\n      sub\n      dup2\n      add\n      swap1\n      tag_29\n      swap2\n      swap1\n      tag_20\n      jump\t// in\n    tag_29:\n      tag_30\n      jump\t// in\n    tag_28:\n      stop\n        /* \"src/contracts/Ethernium.sol\":5167:5281  function getTokens() external view returns (address[] memory) {... */\n    tag_7:\n      callvalue\n      dup1\n      iszero\n      tag_31\n      jumpi\n      revert(0x00, 0x00)\n    tag_31:\n      pop\n      tag_32\n      tag_33\n      jump\t// in\n    tag_32:\n      mload(0x40)\n      tag_34\n      swap2\n      swap1\n      tag_35\n      jump\t// in\n    tag_34:\n      mload(0x40)\n      dup1\n      swap2\n      sub\n      swap1\n      return\n        /* \"src/contracts/Ethernium.sol\":7461:8036  function contractVaultView() external view returns (VaultView memory v) {... */\n    tag_8:\n      callvalue\n      dup1\n      iszero\n      tag_36\n      jumpi\n      revert(0x00, 0x00)\n    tag_36:\n      pop\n      tag_37\n      tag_38\n      jump\t// in\n    tag_37:\n      mload(0x40)\n      tag_39\n      swap2\n      swap1\n      tag_26\n      jump\t// in\n    tag_39:\n      mload(0x40)\n      dup1\n      swap2\n      sub\n      swap1\n      return\n        /* \"src/contracts/Ethernium.sol\":5369:5797  function withdrawETH(uint256 amount) external {... */\n    tag_9:\n      callvalue\n      dup1\n      iszero\n      tag_40\n      jumpi\n      revert(0x00, 0x00)\n    tag_40:\n      pop\n      tag_41\n      0x04\n      dup1\n      calldatasize\n      sub\n      dup2\n      add\n      swap1\n      tag_42\n      swap2\n      swap1\n      tag_43\n      jump\t// in\n    tag_42:\n      tag_44\n      jump\t// in\n    tag_41:\n      stop\n        /* \"src/contracts/Ethernium.sol\":2527:3122  function depositETH() external payable {... */\n    tag_10:\n      tag_45\n      tag_46\n      jump\t// in\n    tag_45:\n      stop\n        /* \"src/contracts/Ethernium.sol\":1766:2352  function createVault() external payable {... */\n    tag_17:\n        /* \"src/contracts/Ethernium.sol\":1825:1844  vaultCreatedAndPaid */\n      0x01\n        /* \"src/contracts/Ethernium.sol\":1825:1856  vaultCreatedAndPaid[msg.sender] */\n      0x00\n        /* \"src/contracts/Ethernium.sol\":1845:1855  msg.sender */\n      caller\n        /* \"src/contracts/Ethernium.sol\":1825:1856  vaultCreatedAndPaid[msg.sender] */\n      0xffffffffffffffffffffffffffffffffffffffff\n      and\n      0xffffffffffffffffffffffffffffffffffffffff\n      and\n      dup2\n      mstore\n      0x20\n      add\n      swap1\n      dup2\n      mstore\n      0x20\n      add\n      0x00\n      keccak256\n      0x00\n      swap1\n      sload\n      swap1\n      0x0100\n      exp\n      swap1\n      div\n      0xff\n      and\n        /* \"src/contracts/Ethernium.sol\":1824:1856  !vaultCreatedAndPaid[msg.sender] */\n      iszero\n        /* \"src/contracts/Ethernium.sol\":1816:1882  require(!vaultCreatedAndPaid[msg.sender], \"Vault already created\") */\n      tag_48\n      jumpi\n      mload(0x40)\n      0x08c379a000000000000000000000000000000000000000000000000000000000\n      dup2\n      mstore\n      0x04\n      add\n      tag_49\n      swap1\n      tag_50\n      jump\t// in\n    tag_49:\n      mload(0x40)\n      dup1\n      swap2\n      sub\n      swap1\n      revert\n    tag_48:\n        /* \"src/contracts/Ethernium.sol\":181:196  100000000000000 */\n      0x5af3107a4000\n        /* \"src/contracts/Ethernium.sol\":1900:1909  msg.value */\n      callvalue\n        /* \"src/contracts/Ethernium.sol\":1900:1925  msg.value == CREATION_FEE */\n      eq\n        /* \"src/contracts/Ethernium.sol\":1892:1952  require(msg.value == CREATION_FEE, \"Exact 0.1 ETH required\") */\n      tag_51\n      jumpi\n      mload(0x40)\n      0x08c379a000000000000000000000000000000000000000000000000000000000\n      dup2\n      mstore\n      0x04\n      add\n      tag_52\n      swap1\n      tag_53\n      jump\t// in\n    tag_52:\n      mload(0x40)\n      dup1\n      swap2\n      sub\n      swap1\n      revert\n    tag_51:\n        /* \"src/contracts/Ethernium.sol\":1996:2000  true */\n      0x01\n        /* \"src/contracts/Ethernium.sol\":1962:1981  vaultCreatedAndPaid */\n      dup1\n        /* \"src/contracts/Ethernium.sol\":1962:1993  vaultCreatedAndPaid[msg.sender] */\n      0x00\n        /* \"src/contracts/Ethernium.sol\":1982:1992  msg.sender */\n      caller\n        /* \"src/contracts/Ethernium.sol\":1962:1993  vaultCreatedAndPaid[msg.sender] */\n      0xffffffffffffffffffffffffffffffffffffffff\n      and\n      0xffffffffffffffffffffffffffffffffffffffff\n      and\n      dup2\n      mstore\n      0x20\n      add\n      swap1\n      dup2\n      mstore\n      0x20\n      add\n      0x00\n      keccak256\n      0x00\n        /* \"src/contracts/Ethernium.sol\":1962:2000  vaultCreatedAndPaid[msg.sender] = true */\n      0x0100\n      exp\n      dup2\n      sload\n      dup2\n      0xff\n      mul\n      not\n      and\n      swap1\n      dup4\n      iszero\n      iszero\n      mul\n      or\n      swap1\n      sstore\n      pop\n        /* \"src/contracts/Ethernium.sol\":2011:2026  Vault storage v */\n      0x00\n        /* \"src/contracts/Ethernium.sol\":2029:2038  testators */\n      0x00\n        /* \"src/contracts/Ethernium.sol\":2029:2050  testators[msg.sender] */\n      0x00\n        /* \"src/contracts/Ethernium.sol\":2039:2049  msg.sender */\n      caller\n        /* \"src/contracts/Ethernium.sol\":2029:2050  testators[msg.sender] */\n      0xffffffffffffffffffffffffffffffffffffffff\n      and\n      0xffffffffffffffffffffffffffffffffffffffff\n      and\n      dup2\n      mstore\n      0x20\n      add\n      swap1\n      dup2\n      mstore\n      0x20\n      add\n      0x00\n      keccak256\n        /* \"src/contracts/Ethernium.sol\":2011:2050  Vault storage v = testators[msg.sender] */\n      swap1\n      pop\n        /* \"src/contracts/Ethernium.sol\":2065:2066  v */\n      dup1\n        /* \"src/contracts/Ethernium.sol\":2065:2072  v.exist */\n      0x00\n      add\n      0x00\n      swap1\n      sload\n      swap1\n      0x0100\n      exp\n      swap1\n      div\n      0xff\n      and\n        /* \"src/contracts/Ethernium.sol\":2060:2279  if (!v.exist) {... */\n      tag_54\n      jumpi\n        /* \"src/contracts/Ethernium.sol\":2150:2197  _creditContractVault(ETH_ADDRESS, CREATION_FEE) */\n      tag_55\n        /* \"src/contracts/Ethernium.sol\":501:543  0xEeeeeEeeeEeEeeEeEeEeeEEEeeeeEeeeeeeeEEeE */\n      0xeeeeeeeeeeeeeeeeeeeeeeeeeeeeeeeeeeeeeeee\n        /* \"src/contracts/Ethernium.sol\":181:196  100000000000000 */\n      0x5af3107a4000\n        /* \"src/contracts/Ethernium.sol\":2150:2170  _creditContractVault */\n      tag_56\n        /* \"src/contracts/Ethernium.sol\":2150:2197  _creditContractVault(ETH_ADDRESS, CREATION_FEE) */\n      jump\t// in\n    tag_55:\n        /* \"src/contracts/Ethernium.sol\":2221:2225  true */\n      0x01\n        /* \"src/contracts/Ethernium.sol\":2211:2212  v */\n      dup2\n        /* \"src/contracts/Ethernium.sol\":2211:2218  v.exist */\n      0x00\n      add\n      0x00\n        /* \"src/contracts/Ethernium.sol\":2211:2225  v.exist = true */\n      0x0100\n      exp\n      dup2\n      sload\n      dup2\n      0xff\n      mul\n      not\n      and\n      swap1\n      dup4\n      iszero\n      iszero\n      mul\n      or\n      swap1\n      sstore\n      pop\n        /* \"src/contracts/Ethernium.sol\":2257:2267  msg.sender */\n      caller\n        /* \"src/contracts/Ethernium.sol\":2244:2268  VaultCreated(msg.sender) */\n      0xffffffffffffffffffffffffffffffffffffffff\n      and\n      0x2e49a5810fda2439a23771848b4acec786b0a64d4de3d124ac57fc8739c38875\n      mload(0x40)\n      mload(0x40)\n      dup1\n      swap2\n      sub\n      swap1\n      log2\n        /* \"src/contracts/Ethernium.sol\":2060:2279  if (!v.exist) {... */\n    tag_54:\n        /* \"src/contracts/Ethernium.sol\":1806:2352  {... */\n      pop\n        /* \"src/contracts/Ethernium.sol\":1766:2352  function createVault() external payable {... */\n      jump\t// out\n        /* \"src/contracts/Ethernium.sol\":3507:4462  function depositERC20(address token, uint256 amount) external payable {... */\n    tag_21:\n        /* \"src/contracts/Ethernium.sol\":3595:3614  vaultCreatedAndPaid */\n      0x01\n        /* \"src/contracts/Ethernium.sol\":3595:3626  vaultCreatedAndPaid[msg.sender] */\n      0x00\n        /* \"src/contracts/Ethernium.sol\":3615:3625  msg.sender */\n      caller\n        /* \"src/contracts/Ethernium.sol\":3595:3626  vaultCreatedAndPaid[msg.sender] */\n      0xffffffffffffffffffffffffffffffffffffffff\n      and\n      0xffffffffffffffffffffffffffffffffffffffff\n      and\n      dup2\n      mstore\n      0x20\n      add\n      swap1\n      dup2\n      mstore\n      0x20\n      add\n      0x00\n      keccak256\n      0x00\n      swap1\n      sload\n      swap1\n      0x0100\n      exp\n      swap1\n      div\n      0xff\n      and\n        /* \"src/contracts/Ethernium.sol\":3587:3649  require(vaultCreatedAndPaid[msg.sender], \"Create vault first\") */\n      tag_58\n      jumpi\n      mload(0x40)\n      0x08c379a000000000000000000000000000000000000000000000000000000000\n      dup2\n      mstore\n      0x04\n      add\n      tag_59\n      swap1\n      tag_60\n      jump\t// in\n    tag_59:\n      mload(0x40)\n      dup1\n      swap2\n      sub\n      swap1\n      revert\n    tag_58:\n        /* \"src/contracts/Ethernium.sol\":3684:3685  0 */\n      0x00\n        /* \"src/contracts/Ethernium.sol\":3667:3686  token != address(0) */\n      0xffffffffffffffffffffffffffffffffffffffff\n      and\n        /* \"src/contracts/Ethernium.sol\":3667:3672  token */\n      dup3\n        /* \"src/contracts/Ethernium.sol\":3667:3686  token != address(0) */\n      0xffffffffffffffffffffffffffffffffffffffff\n      and\n      sub\n        /* \"src/contracts/Ethernium.sol\":3659:3704  require(token != address(0), \"Invalid token\") */\n      tag_61\n      jumpi\n      mload(0x40)\n      0x08c379a000000000000000000000000000000000000000000000000000000000\n      dup2\n      mstore\n      0x04\n      add\n      tag_62\n      swap1\n      tag_63\n      jump\t// in\n    tag_62:\n      mload(0x40)\n      dup1\n      swap2\n      sub\n      swap1\n      revert\n    tag_61:\n        /* \"src/contracts/Ethernium.sol\":3731:3732  0 */\n      0x00\n        /* \"src/contracts/Ethernium.sol\":3722:3728  amount */\n      dup2\n        /* \"src/contracts/Ethernium.sol\":3722:3732  amount > 0 */\n      gt\n        /* \"src/contracts/Ethernium.sol\":3714:3755  require(amount > 0, \"Amount must be > 0\") */\n      tag_64\n      jumpi\n      mload(0x40)\n      0x08c379a000000000000000000000000000000000000000000000000000000000\n      dup2\n      mstore\n      0x04\n      add\n      tag_65\n      swap1\n      tag_66\n      jump\t// in\n    tag_65:\n      mload(0x40)\n      dup1\n      swap2\n      sub\n      swap1\n      revert\n    tag_64:\n        /* \"src/contracts/Ethernium.sol\":3765:3789  _ensureVault(msg.sender) */\n      tag_67\n        /* \"src/contracts/Ethernium.sol\":3778:3788  msg.sender */\n      caller\n        /* \"src/contracts/Ethernium.sol\":3765:3777  _ensureVault */\n      tag_68\n        /* \"src/contracts/Ethernium.sol\":3765:3789  _ensureVault(msg.sender) */\n      jump\t// in\n    tag_67:\n        /* \"src/contracts/Ethernium.sol\":3856:3863  bool ok */\n      0x00\n        /* \"src/contracts/Ethernium.sol\":3873:3878  token */\n      dup3\n        /* \"src/contracts/Ethernium.sol\":3866:3892  IERC20(token).transferFrom */\n      0xffffffffffffffffffffffffffffffffffffffff\n      and\n      0x23b872dd\n        /* \"src/contracts/Ethernium.sol\":3893:3903  msg.sender */\n      caller\n        /* \"src/contracts/Ethernium.sol\":3913:3917  this */\n      address\n        /* \"src/contracts/Ethernium.sol\":3920:3926  amount */\n      dup6\n        /* \"src/contracts/Ethernium.sol\":3866:3927  IERC20(token).transferFrom(msg.sender, address(this), amount) */\n      mload(0x40)\n      dup5\n      0xffffffff\n      and\n      0xe0\n      shl\n      dup2\n      mstore\n      0x04\n      add\n      tag_69\n      swap4\n      swap3\n      swap2\n      swap1\n      tag_70\n      jump\t// in\n    tag_69:\n      0x20\n      mload(0x40)\n      dup1\n      dup4\n      sub\n      dup2\n      0x00\n      dup8\n      gas\n      call\n      iszero\n      dup1\n      iszero\n      tag_72\n      jumpi\n      returndatacopy(0x00, 0x00, returndatasize)\n      revert(0x00, returndatasize)\n    tag_72:\n      pop\n      pop\n      pop\n      pop\n      mload(0x40)\n      returndatasize\n      not(0x1f)\n      0x1f\n      dup3\n      add\n      and\n      dup3\n      add\n      dup1\n      0x40\n      mstore\n      pop\n      dup2\n      add\n      swap1\n      tag_73\n      swap2\n      swap1\n      tag_74\n      jump\t// in\n    tag_73:\n        /* \"src/contracts/Ethernium.sol\":3856:3927  bool ok = IERC20(token).transferFrom(msg.sender, address(this), amount) */\n      swap1\n      pop\n        /* \"src/contracts/Ethernium.sol\":3945:3947  ok */\n      dup1\n        /* \"src/contracts/Ethernium.sol\":3937:3971  require(ok, \"transferFrom failed\") */\n      tag_75\n      jumpi\n      mload(0x40)\n      0x08c379a000000000000000000000000000000000000000000000000000000000\n      dup2\n      mstore\n      0x04\n      add\n      tag_76\n      swap1\n      tag_77\n      jump\t// in\n    tag_76:\n      mload(0x40)\n      dup1\n      swap2\n      sub\n      swap1\n      revert\n    tag_75:\n        /* \"src/contracts/Ethernium.sol\":3982:3993  uint256 fee */\n      0x00\n        /* \"src/contracts/Ethernium.sol\":382:387  10000 */\n      0x2710\n        /* \"src/contracts/Ethernium.sol\":3996:4040  (amount * DEPOSIT_FEE_BPS) / BPS_DENOMINATOR */\n      0xffff\n      and\n        /* \"src/contracts/Ethernium.sol\":312:314  50 */\n      0x32\n        /* \"src/contracts/Ethernium.sol\":3997:4021  amount * DEPOSIT_FEE_BPS */\n      0xffff\n      and\n        /* \"src/contracts/Ethernium.sol\":3997:4003  amount */\n      dup5\n        /* \"src/contracts/Ethernium.sol\":3997:4021  amount * DEPOSIT_FEE_BPS */\n      tag_78\n      swap2\n      swap1\n      tag_79\n      jump\t// in\n    tag_78:\n        /* \"src/contracts/Ethernium.sol\":3996:4040  (amount * DEPOSIT_FEE_BPS) / BPS_DENOMINATOR */\n      tag_80\n      swap2\n      swap1\n      tag_81\n      jump\t// in\n    tag_80:\n        /* \"src/contracts/Ethernium.sol\":3982:4040  uint256 fee = (amount * DEPOSIT_FEE_BPS) / BPS_DENOMINATOR */\n      swap1\n      pop\n        /* \"src/contracts/Ethernium.sol\":4050:4061  uint256 net */\n      0x00\n        /* \"src/contracts/Ethernium.sol\":4073:4076  fee */\n      dup2\n        /* \"src/contracts/Ethernium.sol\":4064:4070  amount */\n      dup5\n        /* \"src/contracts/Ethernium.sol\":4064:4076  amount - fee */\n      tag_82\n      swap2\n      swap1\n      tag_83\n      jump\t// in\n    tag_82:\n        /* \"src/contracts/Ethernium.sol\":4050:4076  uint256 net = amount - fee */\n      swap1\n      pop\n        /* \"src/contracts/Ethernium.sol\":4100:4101  0 */\n      0x00\n        /* \"src/contracts/Ethernium.sol\":4094:4097  net */\n      dup2\n        /* \"src/contracts/Ethernium.sol\":4094:4101  net > 0 */\n      gt\n        /* \"src/contracts/Ethernium.sol\":4086:4117  require(net > 0, \"Net is zero\") */\n      tag_84\n      jumpi\n      mload(0x40)\n      0x08c379a000000000000000000000000000000000000000000000000000000000\n      dup2\n      mstore\n      0x04\n      add\n      tag_85\n      swap1\n      tag_86\n      jump\t// in\n    tag_85:\n      mload(0x40)\n      dup1\n      swap2\n      sub\n      swap1\n      revert\n    tag_84:\n        /* \"src/contracts/Ethernium.sol\":4183:4215  _creditContractVault(token, fee) */\n      tag_87\n        /* \"src/contracts/Ethernium.sol\":4204:4209  token */\n      dup6\n        /* \"src/contracts/Ethernium.sol\":4211:4214  fee */\n      dup4\n        /* \"src/contracts/Ethernium.sol\":4183:4203  _creditContractVault */\n      tag_56\n        /* \"src/contracts/Ethernium.sol\":4183:4215  _creditContractVault(token, fee) */\n      jump\t// in\n    tag_87:\n        /* \"src/contracts/Ethernium.sol\":4284:4315  _credit(msg.sender, token, net) */\n      tag_88\n        /* \"src/contracts/Ethernium.sol\":4292:4302  msg.sender */\n      caller\n        /* \"src/contracts/Ethernium.sol\":4304:4309  token */\n      dup7\n        /* \"src/contracts/Ethernium.sol\":4311:4314  net */\n      dup4\n        /* \"src/contracts/Ethernium.sol\":4284:4291  _credit */\n      tag_89\n        /* \"src/contracts/Ethernium.sol\":4284:4315  _credit(msg.sender, token, net) */\n      jump\t// in\n    tag_88:\n        /* \"src/contracts/Ethernium.sol\":4431:4436  token */\n      dup5\n        /* \"src/contracts/Ethernium.sol\":4411:4455  Deposit(msg.sender, token, amount, fee, net) */\n      0xffffffffffffffffffffffffffffffffffffffff\n      and\n        /* \"src/contracts/Ethernium.sol\":4419:4429  msg.sender */\n      caller\n        /* \"src/contracts/Ethernium.sol\":4411:4455  Deposit(msg.sender, token, amount, fee, net) */\n      0xffffffffffffffffffffffffffffffffffffffff\n      and\n      0x4e2ca0515ed1aef1395f66b5303bb5d6f1bf9d61a353fa53f73f8ac9973fa9f6\n        /* \"src/contracts/Ethernium.sol\":4438:4444  amount */\n      dup7\n        /* \"src/contracts/Ethernium.sol\":4446:4449  fee */\n      dup6\n        /* \"src/contracts/Ethernium.sol\":4451:4454  net */\n      dup6\n        /* \"src/contracts/Ethernium.sol\":4411:4455  Deposit(msg.sender, token, amount, fee, net) */\n      mload(0x40)\n      tag_90\n      swap4\n      swap3\n      swap2\n      swap1\n      tag_91\n      jump\t// in\n    tag_90:\n      mload(0x40)\n      dup1\n      swap2\n      sub\n      swap1\n      log3\n        /* \"src/contracts/Ethernium.sol\":3577:4462  {... */\n      pop\n      pop\n      pop\n        /* \"src/contracts/Ethernium.sol\":3507:4462  function depositERC20(address token, uint256 amount) external payable {... */\n      pop\n      pop\n      jump\t// out\n        /* \"src/contracts/Ethernium.sol\":4537:5075  function myVault() public view returns (VaultView memory v) {... */\n    tag_24:\n        /* \"src/contracts/Ethernium.sol\":4577:4595  VaultView memory v */\n      tag_92\n      tag_93\n      jump\t// in\n    tag_92:\n        /* \"src/contracts/Ethernium.sol\":4607:4624  Vault storage src */\n      0x00\n        /* \"src/contracts/Ethernium.sol\":4627:4636  testators */\n      0x00\n        /* \"src/contracts/Ethernium.sol\":4627:4648  testators[msg.sender] */\n      0x00\n        /* \"src/contracts/Ethernium.sol\":4637:4647  msg.sender */\n      caller\n        /* \"src/contracts/Ethernium.sol\":4627:4648  testators[msg.sender] */\n      0xffffffffffffffffffffffffffffffffffffffff\n      and\n      0xffffffffffffffffffffffffffffffffffffffff\n      and\n      dup2\n      mstore\n      0x20\n      add\n      swap1\n      dup2\n      mstore\n      0x20\n      add\n      0x00\n      keccak256\n        /* \"src/contracts/Ethernium.sol\":4607:4648  Vault storage src = testators[msg.sender] */\n      swap1\n      pop\n        /* \"src/contracts/Ethernium.sol\":4659:4670  uint256 len */\n      0x00\n        /* \"src/contracts/Ethernium.sol\":4673:4676  src */\n      dup2\n        /* \"src/contracts/Ethernium.sol\":4673:4683  src.tokens */\n      0x02\n      add\n        /* \"src/contracts/Ethernium.sol\":4673:4690  src.tokens.length */\n      dup1\n      sload\n      swap1\n      pop\n        /* \"src/contracts/Ethernium.sol\":4659:4690  uint256 len = src.tokens.length */\n      swap1\n      pop\n        /* \"src/contracts/Ethernium.sol\":4700:4724  address[] memory tokens_ */\n      0x00\n        /* \"src/contracts/Ethernium.sol\":4741:4744  len */\n      dup2\n        /* \"src/contracts/Ethernium.sol\":4727:4745  new address[](len) */\n      0xffffffffffffffff\n      dup2\n      gt\n      iszero\n      tag_95\n      jumpi\n      tag_96\n      tag_97\n      jump\t// in\n    tag_96:\n    tag_95:\n      mload(0x40)\n      swap1\n      dup1\n      dup3\n      mstore\n      dup1\n      0x20\n      mul\n      0x20\n      add\n      dup3\n      add\n      0x40\n      mstore\n      dup1\n      iszero\n      tag_98\n      jumpi\n      dup2\n      0x20\n      add\n      0x20\n      dup3\n      mul\n      dup1\n      calldatasize\n      dup4\n      calldatacopy\n      dup1\n      dup3\n      add\n      swap2\n      pop\n      pop\n      swap1\n      pop\n    tag_98:\n      pop\n        /* \"src/contracts/Ethernium.sol\":4700:4745  address[] memory tokens_ = new address[](len) */\n      swap1\n      pop\n        /* \"src/contracts/Ethernium.sol\":4755:4781  uint256[] memory balances_ */\n      0x00\n        /* \"src/contracts/Ethernium.sol\":4798:4801  len */\n      dup3\n        /* \"src/contracts/Ethernium.sol\":4784:4802  new uint256[](len) */\n      0xffffffffffffffff\n      dup2\n      gt\n      iszero\n      tag_99\n      jumpi\n      tag_100\n      tag_97\n      jump\t// in\n    tag_100:\n    tag_99:\n      mload(0x40)\n      swap1\n      dup1\n      dup3\n      mstore\n      dup1\n      0x20\n      mul\n      0x20\n      add\n      dup3\n      add\n      0x40\n      mstore\n      dup1\n      iszero\n      tag_101\n      jumpi\n      dup2\n      0x20\n      add\n      0x20\n      dup3\n      mul\n      dup1\n      calldatasize\n      dup4\n      calldatacopy\n      dup1\n      dup3\n      add\n      swap2\n      pop\n      pop\n      swap1\n      pop\n    tag_101:\n      pop\n        /* \"src/contracts/Ethernium.sol\":4755:4802  uint256[] memory balances_ = new uint256[](len) */\n      swap1\n      pop\n        /* \"src/contracts/Ethernium.sol\":4818:4827  uint256 i */\n      0x00\n        /* \"src/contracts/Ethernium.sol\":4830:4831  0 */\n      0x00\n        /* \"src/contracts/Ethernium.sol\":4818:4831  uint256 i = 0 */\n      swap1\n      pop\n        /* \"src/contracts/Ethernium.sol\":4813:4969  for (uint256 i = 0; i < len; i++) {... */\n    tag_102:\n        /* \"src/contracts/Ethernium.sol\":4837:4840  len */\n      dup4\n        /* \"src/contracts/Ethernium.sol\":4833:4834  i */\n      dup2\n        /* \"src/contracts/Ethernium.sol\":4833:4840  i < len */\n      lt\n        /* \"src/contracts/Ethernium.sol\":4813:4969  for (uint256 i = 0; i < len; i++) {... */\n      iszero\n      tag_103\n      jumpi\n        /* \"src/contracts/Ethernium.sol\":4861:4870  address t */\n      0x00\n        /* \"src/contracts/Ethernium.sol\":4873:4876  src */\n      dup6\n        /* \"src/contracts/Ethernium.sol\":4873:4883  src.tokens */\n      0x02\n      add\n        /* \"src/contracts/Ethernium.sol\":4884:4885  i */\n      dup3\n        /* \"src/contracts/Ethernium.sol\":4873:4886  src.tokens[i] */\n      dup2\n      sload\n      dup2\n      lt\n      tag_105\n      jumpi\n      tag_106\n      tag_107\n      jump\t// in\n    tag_106:\n    tag_105:\n      swap1\n      0x00\n      mstore\n      keccak256(0x00, 0x20)\n      add\n      0x00\n      swap1\n      sload\n      swap1\n      0x0100\n      exp\n      swap1\n      div\n      0xffffffffffffffffffffffffffffffffffffffff\n      and\n        /* \"src/contracts/Ethernium.sol\":4861:4886  address t = src.tokens[i] */\n      swap1\n      pop\n        /* \"src/contracts/Ethernium.sol\":4913:4914  t */\n      dup1\n        /* \"src/contracts/Ethernium.sol\":4900:4907  tokens_ */\n      dup5\n        /* \"src/contracts/Ethernium.sol\":4908:4909  i */\n      dup4\n        /* \"src/contracts/Ethernium.sol\":4900:4910  tokens_[i] */\n      dup2\n      mload\n      dup2\n      lt\n      tag_109\n      jumpi\n      tag_110\n      tag_107\n      jump\t// in\n    tag_110:\n    tag_109:\n      0x20\n      mul\n      0x20\n      add\n      add\n        /* \"src/contracts/Ethernium.sol\":4900:4914  tokens_[i] = t */\n      swap1\n      0xffffffffffffffffffffffffffffffffffffffff\n      and\n      swap1\n      dup2\n      0xffffffffffffffffffffffffffffffffffffffff\n      and\n      dup2\n      mstore\n      pop\n      pop\n        /* \"src/contracts/Ethernium.sol\":4943:4946  src */\n      dup6\n        /* \"src/contracts/Ethernium.sol\":4943:4955  src.balances */\n      0x01\n      add\n        /* \"src/contracts/Ethernium.sol\":4943:4958  src.balances[t] */\n      0x00\n        /* \"src/contracts/Ethernium.sol\":4956:4957  t */\n      dup3\n        /* \"src/contracts/Ethernium.sol\":4943:4958  src.balances[t] */\n      0xffffffffffffffffffffffffffffffffffffffff\n      and\n      0xffffffffffffffffffffffffffffffffffffffff\n      and\n      dup2\n      mstore\n      0x20\n      add\n      swap1\n      dup2\n      mstore\n      0x20\n      add\n      0x00\n      keccak256\n      sload\n        /* \"src/contracts/Ethernium.sol\":4928:4937  balances_ */\n      dup4\n        /* \"src/contracts/Ethernium.sol\":4938:4939  i */\n      dup4\n        /* \"src/contracts/Ethernium.sol\":4928:4940  balances_[i] */\n      dup2\n      mload\n      dup2\n      lt\n      tag_111\n      jumpi\n      tag_112\n      tag_107\n      jump\t// in\n    tag_112:\n    tag_111:\n      0x20\n      mul\n      0x20\n      add\n      add\n        /* \"src/contracts/Ethernium.sol\":4928:4958  balances_[i] = src.balances[t] */\n      dup2\n      dup2\n      mstore\n      pop\n      pop\n        /* \"src/contracts/Ethernium.sol\":4847:4969  {... */\n      pop\n        /* \"src/contracts/Ethernium.sol\":4842:4845  i++ */\n      dup1\n      dup1\n      0x01\n      add\n      swap2\n      pop\n      pop\n        /* \"src/contracts/Ethernium.sol\":4813:4969  for (uint256 i = 0; i < len; i++) {... */\n      jump(tag_102)\n    tag_103:\n      pop\n        /* \"src/contracts/Ethernium.sol\":4983:5050  VaultView({exist: src.exist, tokens: tokens_, balances: balances_}) */\n      mload(0x40)\n      dup1\n      0x60\n      add\n      0x40\n      mstore\n      dup1\n        /* \"src/contracts/Ethernium.sol\":5001:5004  src */\n      dup6\n        /* \"src/contracts/Ethernium.sol\":5001:5010  src.exist */\n      0x00\n      add\n      0x00\n      swap1\n      sload\n      swap1\n      0x0100\n      exp\n      swap1\n      div\n      0xff\n      and\n        /* \"src/contracts/Ethernium.sol\":4983:5050  VaultView({exist: src.exist, tokens: tokens_, balances: balances_}) */\n      iszero\n      iszero\n      dup2\n      mstore\n      0x20\n      add\n        /* \"src/contracts/Ethernium.sol\":5020:5027  tokens_ */\n      dup4\n        /* \"src/contracts/Ethernium.sol\":4983:5050  VaultView({exist: src.exist, tokens: tokens_, balances: balances_}) */\n      dup2\n      mstore\n      0x20\n      add\n        /* \"src/contracts/Ethernium.sol\":5039:5048  balances_ */\n      dup3\n        /* \"src/contracts/Ethernium.sol\":4983:5050  VaultView({exist: src.exist, tokens: tokens_, balances: balances_}) */\n      dup2\n      mstore\n      pop\n        /* \"src/contracts/Ethernium.sol\":4979:5050  v = VaultView({exist: src.exist, tokens: tokens_, balances: balances_}) */\n      swap5\n      pop\n        /* \"src/contracts/Ethernium.sol\":5060:5068  return v */\n      pop\n      pop\n      pop\n      pop\n        /* \"src/contracts/Ethernium.sol\":4537:5075  function myVault() public view returns (VaultView memory v) {... */\n      swap1\n      jump\t// out\n        /* \"src/contracts/Ethernium.sol\":5871:6363  function withdrawERC20(address token, uint256 amount) external {... */\n    tag_30:\n        /* \"src/contracts/Ethernium.sol\":5969:5970  0 */\n      0x00\n        /* \"src/contracts/Ethernium.sol\":5952:5971  token != address(0) */\n      0xffffffffffffffffffffffffffffffffffffffff\n      and\n        /* \"src/contracts/Ethernium.sol\":5952:5957  token */\n      dup3\n        /* \"src/contracts/Ethernium.sol\":5952:5971  token != address(0) */\n      0xffffffffffffffffffffffffffffffffffffffff\n      and\n      sub\n        /* \"src/contracts/Ethernium.sol\":5944:5989  require(token != address(0), \"Invalid token\") */\n      tag_114\n      jumpi\n      mload(0x40)\n      0x08c379a000000000000000000000000000000000000000000000000000000000\n      dup2\n      mstore\n      0x04\n      add\n      tag_115\n      swap1\n      tag_63\n      jump\t// in\n    tag_115:\n      mload(0x40)\n      dup1\n      swap2\n      sub\n      swap1\n      revert\n    tag_114:\n        /* \"src/contracts/Ethernium.sol\":5999:6014  Vault storage v */\n      0x00\n        /* \"src/contracts/Ethernium.sol\":6017:6026  testators */\n      0x00\n        /* \"src/contracts/Ethernium.sol\":6017:6038  testators[msg.sender] */\n      0x00\n        /* \"src/contracts/Ethernium.sol\":6027:6037  msg.sender */\n      caller\n        /* \"src/contracts/Ethernium.sol\":6017:6038  testators[msg.sender] */\n      0xffffffffffffffffffffffffffffffffffffffff\n      and\n      0xffffffffffffffffffffffffffffffffffffffff\n      and\n      dup2\n      mstore\n      0x20\n      add\n      swap1\n      dup2\n      mstore\n      0x20\n      add\n      0x00\n      keccak256\n        /* \"src/contracts/Ethernium.sol\":5999:6038  Vault storage v = testators[msg.sender] */\n      swap1\n      pop\n        /* \"src/contracts/Ethernium.sol\":6056:6057  v */\n      dup1\n        /* \"src/contracts/Ethernium.sol\":6056:6063  v.exist */\n      0x00\n      add\n      0x00\n      swap1\n      sload\n      swap1\n      0x0100\n      exp\n      swap1\n      div\n      0xff\n      and\n        /* \"src/contracts/Ethernium.sol\":6048:6088  require(v.exist, \"Vault does not exist\") */\n      tag_116\n      jumpi\n      mload(0x40)\n      0x08c379a000000000000000000000000000000000000000000000000000000000\n      dup2\n      mstore\n      0x04\n      add\n      tag_117\n      swap1\n      tag_118\n      jump\t// in\n    tag_117:\n      mload(0x40)\n      dup1\n      swap2\n      sub\n      swap1\n      revert\n    tag_116:\n        /* \"src/contracts/Ethernium.sol\":6127:6133  amount */\n      dup2\n        /* \"src/contracts/Ethernium.sol\":6106:6107  v */\n      dup2\n        /* \"src/contracts/Ethernium.sol\":6106:6116  v.balances */\n      0x01\n      add\n        /* \"src/contracts/Ethernium.sol\":6106:6123  v.balances[token] */\n      0x00\n        /* \"src/contracts/Ethernium.sol\":6117:6122  token */\n      dup6\n        /* \"src/contracts/Ethernium.sol\":6106:6123  v.balances[token] */\n      0xffffffffffffffffffffffffffffffffffffffff\n      and\n      0xffffffffffffffffffffffffffffffffffffffff\n      and\n      dup2\n      mstore\n      0x20\n      add\n      swap1\n      dup2\n      mstore\n      0x20\n      add\n      0x00\n      keccak256\n      sload\n        /* \"src/contracts/Ethernium.sol\":6106:6133  v.balances[token] >= amount */\n      lt\n      iszero\n        /* \"src/contracts/Ethernium.sol\":6098:6158  require(v.balances[token] >= amount, \"Insufficient balance\") */\n      tag_119\n      jumpi\n      mload(0x40)\n      0x08c379a000000000000000000000000000000000000000000000000000000000\n      dup2\n      mstore\n      0x04\n      add\n      tag_120\n      swap1\n      tag_121\n      jump\t// in\n    tag_120:\n      mload(0x40)\n      dup1\n      swap2\n      sub\n      swap1\n      revert\n    tag_119:\n        /* \"src/contracts/Ethernium.sol\":6190:6196  amount */\n      dup2\n        /* \"src/contracts/Ethernium.sol\":6169:6170  v */\n      dup2\n        /* \"src/contracts/Ethernium.sol\":6169:6179  v.balances */\n      0x01\n      add\n        /* \"src/contracts/Ethernium.sol\":6169:6186  v.balances[token] */\n      0x00\n        /* \"src/contracts/Ethernium.sol\":6180:6185  token */\n      dup6\n        /* \"src/contracts/Ethernium.sol\":6169:6186  v.balances[token] */\n      0xffffffffffffffffffffffffffffffffffffffff\n      and\n      0xffffffffffffffffffffffffffffffffffffffff\n      and\n      dup2\n      mstore\n      0x20\n      add\n      swap1\n      dup2\n      mstore\n      0x20\n      add\n      0x00\n      keccak256\n      0x00\n        /* \"src/contracts/Ethernium.sol\":6169:6196  v.balances[token] -= amount */\n      dup3\n      dup3\n      sload\n      tag_122\n      swap2\n      swap1\n      tag_83\n      jump\t// in\n    tag_122:\n      swap3\n      pop\n      pop\n      dup2\n      swap1\n      sstore\n      pop\n        /* \"src/contracts/Ethernium.sol\":6207:6214  bool ok */\n      0x00\n        /* \"src/contracts/Ethernium.sol\":6224:6229  token */\n      dup4\n        /* \"src/contracts/Ethernium.sol\":6217:6239  IERC20(token).transfer */\n      0xffffffffffffffffffffffffffffffffffffffff\n      and\n      0xa9059cbb\n        /* \"src/contracts/Ethernium.sol\":6240:6250  msg.sender */\n      caller\n        /* \"src/contracts/Ethernium.sol\":6252:6258  amount */\n      dup6\n        /* \"src/contracts/Ethernium.sol\":6217:6259  IERC20(token).transfer(msg.sender, amount) */\n      mload(0x40)\n      dup4\n      0xffffffff\n      and\n      0xe0\n      shl\n      dup2\n      mstore\n      0x04\n      add\n      tag_123\n      swap3\n      swap2\n      swap1\n      tag_124\n      jump\t// in\n    tag_123:\n      0x20\n      mload(0x40)\n      dup1\n      dup4\n      sub\n      dup2\n      0x00\n      dup8\n      gas\n      call\n      iszero\n      dup1\n      iszero\n      tag_126\n      jumpi\n      returndatacopy(0x00, 0x00, returndatasize)\n      revert(0x00, returndatasize)\n    tag_126:\n      pop\n      pop\n      pop\n      pop\n      mload(0x40)\n      returndatasize\n      not(0x1f)\n      0x1f\n      dup3\n      add\n      and\n      dup3\n      add\n      dup1\n      0x40\n      mstore\n      pop\n      dup2\n      add\n      swap1\n      tag_127\n      swap2\n      swap1\n      tag_74\n      jump\t// in\n    tag_127:\n        /* \"src/contracts/Ethernium.sol\":6207:6259  bool ok = IERC20(token).transfer(msg.sender, amount) */\n      swap1\n      pop\n        /* \"src/contracts/Ethernium.sol\":6277:6279  ok */\n      dup1\n        /* \"src/contracts/Ethernium.sol\":6269:6305  require(ok, \"ERC20 transfer failed\") */\n      tag_128\n      jumpi\n      mload(0x40)\n      0x08c379a000000000000000000000000000000000000000000000000000000000\n      dup2\n      mstore\n      0x04\n      add\n      tag_129\n      swap1\n      tag_130\n      jump\t// in\n    tag_129:\n      mload(0x40)\n      dup1\n      swap2\n      sub\n      swap1\n      revert\n    tag_128:\n        /* \"src/contracts/Ethernium.sol\":6342:6347  token */\n      dup4\n        /* \"src/contracts/Ethernium.sol\":6321:6356  Withdraw(msg.sender, token, amount) */\n      0xffffffffffffffffffffffffffffffffffffffff\n      and\n        /* \"src/contracts/Ethernium.sol\":6330:6340  msg.sender */\n      caller\n        /* \"src/contracts/Ethernium.sol\":6321:6356  Withdraw(msg.sender, token, amount) */\n      0xffffffffffffffffffffffffffffffffffffffff\n      and\n      0x9b1bfa7fa9ee420a16e124f794c35ac9f90472acc99140eb2f6447c714cad8eb\n        /* \"src/contracts/Ethernium.sol\":6349:6355  amount */\n      dup6\n        /* \"src/contracts/Ethernium.sol\":6321:6356  Withdraw(msg.sender, token, amount) */\n      mload(0x40)\n      tag_131\n      swap2\n      swap1\n      tag_132\n      jump\t// in\n    tag_131:\n      mload(0x40)\n      dup1\n      swap2\n      sub\n      swap1\n      log3\n        /* \"src/contracts/Ethernium.sol\":5934:6363  {... */\n      pop\n      pop\n        /* \"src/contracts/Ethernium.sol\":5871:6363  function withdrawERC20(address token, uint256 amount) external {... */\n      pop\n      pop\n      jump\t// out\n        /* \"src/contracts/Ethernium.sol\":5167:5281  function getTokens() external view returns (address[] memory) {... */\n    tag_33:\n        /* \"src/contracts/Ethernium.sol\":5211:5227  address[] memory */\n      0x60\n        /* \"src/contracts/Ethernium.sol\":5246:5255  testators */\n      0x00\n        /* \"src/contracts/Ethernium.sol\":5246:5267  testators[msg.sender] */\n      0x00\n        /* \"src/contracts/Ethernium.sol\":5256:5266  msg.sender */\n      caller\n        /* \"src/contracts/Ethernium.sol\":5246:5267  testators[msg.sender] */\n      0xffffffffffffffffffffffffffffffffffffffff\n      and\n      0xffffffffffffffffffffffffffffffffffffffff\n      and\n      dup2\n      mstore\n      0x20\n      add\n      swap1\n      dup2\n      mstore\n      0x20\n      add\n      0x00\n      keccak256\n        /* \"src/contracts/Ethernium.sol\":5246:5274  testators[msg.sender].tokens */\n      0x02\n      add\n        /* \"src/contracts/Ethernium.sol\":5239:5274  return testators[msg.sender].tokens */\n      dup1\n      sload\n      dup1\n      0x20\n      mul\n      0x20\n      add\n      mload(0x40)\n      swap1\n      dup2\n      add\n      0x40\n      mstore\n      dup1\n      swap3\n      swap2\n      swap1\n      dup2\n      dup2\n      mstore\n      0x20\n      add\n      dup3\n      dup1\n      sload\n      dup1\n      iszero\n      tag_134\n      jumpi\n      0x20\n      mul\n      dup3\n      add\n      swap2\n      swap1\n      0x00\n      mstore\n      keccak256(0x00, 0x20)\n      swap1\n    tag_135:\n      dup2\n      0x00\n      swap1\n      sload\n      swap1\n      0x0100\n      exp\n      swap1\n      div\n      0xffffffffffffffffffffffffffffffffffffffff\n      and\n      0xffffffffffffffffffffffffffffffffffffffff\n      and\n      dup2\n      mstore\n      0x20\n      add\n      swap1\n      0x01\n      add\n      swap1\n      dup1\n      dup4\n      gt\n      tag_135\n      jumpi\n    tag_134:\n      pop\n      pop\n      pop\n      pop\n      pop\n      swap1\n      pop\n        /* \"src/contracts/Ethernium.sol\":5167:5281  function getTokens() external view returns (address[] memory) {... */\n      swap1\n      jump\t// out\n        /* \"src/contracts/Ethernium.sol\":7461:8036  function contractVaultView() external view returns (VaultView memory v) {... */\n    tag_38:\n        /* \"src/contracts/Ethernium.sol\":7513:7531  VaultView memory v */\n      tag_136\n      tag_93\n      jump\t// in\n    tag_136:\n        /* \"src/contracts/Ethernium.sol\":7543:7554  uint256 len */\n      0x00\n        /* \"src/contracts/Ethernium.sol\":7557:7572  vaultOfContract */\n      0x02\n        /* \"src/contracts/Ethernium.sol\":7557:7579  vaultOfContract.tokens */\n      dup1\n      add\n        /* \"src/contracts/Ethernium.sol\":7557:7586  vaultOfContract.tokens.length */\n      dup1\n      sload\n      swap1\n      pop\n        /* \"src/contracts/Ethernium.sol\":7543:7586  uint256 len = vaultOfContract.tokens.length */\n      swap1\n      pop\n        /* \"src/contracts/Ethernium.sol\":7597:7621  address[] memory tokens_ */\n      0x00\n        /* \"src/contracts/Ethernium.sol\":7638:7641  len */\n      dup2\n        /* \"src/contracts/Ethernium.sol\":7624:7642  new address[](len) */\n      0xffffffffffffffff\n      dup2\n      gt\n      iszero\n      tag_138\n      jumpi\n      tag_139\n      tag_97\n      jump\t// in\n    tag_139:\n    tag_138:\n      mload(0x40)\n      swap1\n      dup1\n      dup3\n      mstore\n      dup1\n      0x20\n      mul\n      0x20\n      add\n      dup3\n      add\n      0x40\n      mstore\n      dup1\n      iszero\n      tag_140\n      jumpi\n      dup2\n      0x20\n      add\n      0x20\n      dup3\n      mul\n      dup1\n      calldatasize\n      dup4\n      calldatacopy\n      dup1\n      dup3\n      add\n      swap2\n      pop\n      pop\n      swap1\n      pop\n    tag_140:\n      pop\n        /* \"src/contracts/Ethernium.sol\":7597:7642  address[] memory tokens_ = new address[](len) */\n      swap1\n      pop\n        /* \"src/contracts/Ethernium.sol\":7652:7678  uint256[] memory balances_ */\n      0x00\n        /* \"src/contracts/Ethernium.sol\":7695:7698  len */\n      dup3\n        /* \"src/contracts/Ethernium.sol\":7681:7699  new uint256[](len) */\n      0xffffffffffffffff\n      dup2\n      gt\n      iszero\n      tag_141\n      jumpi\n      tag_142\n      tag_97\n      jump\t// in\n    tag_142:\n    tag_141:\n      mload(0x40)\n      swap1\n      dup1\n      dup3\n      mstore\n      dup1\n      0x20\n      mul\n      0x20\n      add\n      dup3\n      add\n      0x40\n      mstore\n      dup1\n      iszero\n      tag_143\n      jumpi\n      dup2\n      0x20\n      add\n      0x20\n      dup3\n      mul\n      dup1\n      calldatasize\n      dup4\n      calldatacopy\n      dup1\n      dup3\n      add\n      swap2\n      pop\n      pop\n      swap1\n      pop\n    tag_143:\n      pop\n        /* \"src/contracts/Ethernium.sol\":7652:7699  uint256[] memory balances_ = new uint256[](len) */\n      swap1\n      pop\n        /* \"src/contracts/Ethernium.sol\":7715:7724  uint256 i */\n      0x00\n        /* \"src/contracts/Ethernium.sol\":7727:7728  0 */\n      0x00\n        /* \"src/contracts/Ethernium.sol\":7715:7728  uint256 i = 0 */\n      swap1\n      pop\n        /* \"src/contracts/Ethernium.sol\":7710:7890  for (uint256 i = 0; i < len; i++) {... */\n    tag_144:\n        /* \"src/contracts/Ethernium.sol\":7734:7737  len */\n      dup4\n        /* \"src/contracts/Ethernium.sol\":7730:7731  i */\n      dup2\n        /* \"src/contracts/Ethernium.sol\":7730:7737  i < len */\n      lt\n        /* \"src/contracts/Ethernium.sol\":7710:7890  for (uint256 i = 0; i < len; i++) {... */\n      iszero\n      tag_145\n      jumpi\n        /* \"src/contracts/Ethernium.sol\":7758:7767  address t */\n      0x00\n        /* \"src/contracts/Ethernium.sol\":7770:7785  vaultOfContract */\n      0x02\n        /* \"src/contracts/Ethernium.sol\":7770:7792  vaultOfContract.tokens */\n      dup1\n      add\n        /* \"src/contracts/Ethernium.sol\":7793:7794  i */\n      dup3\n        /* \"src/contracts/Ethernium.sol\":7770:7795  vaultOfContract.tokens[i] */\n      dup2\n      sload\n      dup2\n      lt\n      tag_147\n      jumpi\n      tag_148\n      tag_107\n      jump\t// in\n    tag_148:\n    tag_147:\n      swap1\n      0x00\n      mstore\n      keccak256(0x00, 0x20)\n      add\n      0x00\n      swap1\n      sload\n      swap1\n      0x0100\n      exp\n      swap1\n      div\n      0xffffffffffffffffffffffffffffffffffffffff\n      and\n        /* \"src/contracts/Ethernium.sol\":7758:7795  address t = vaultOfContract.tokens[i] */\n      swap1\n      pop\n        /* \"src/contracts/Ethernium.sol\":7822:7823  t */\n      dup1\n        /* \"src/contracts/Ethernium.sol\":7809:7816  tokens_ */\n      dup5\n        /* \"src/contracts/Ethernium.sol\":7817:7818  i */\n      dup4\n        /* \"src/contracts/Ethernium.sol\":7809:7819  tokens_[i] */\n      dup2\n      mload\n      dup2\n      lt\n      tag_150\n      jumpi\n      tag_151\n      tag_107\n      jump\t// in\n    tag_151:\n    tag_150:\n      0x20\n      mul\n      0x20\n      add\n      add\n        /* \"src/contracts/Ethernium.sol\":7809:7823  tokens_[i] = t */\n      swap1\n      0xffffffffffffffffffffffffffffffffffffffff\n      and\n      swap1\n      dup2\n      0xffffffffffffffffffffffffffffffffffffffff\n      and\n      dup2\n      mstore\n      pop\n      pop\n        /* \"src/contracts/Ethernium.sol\":7852:7867  vaultOfContract */\n      0x02\n        /* \"src/contracts/Ethernium.sol\":7852:7876  vaultOfContract.balances */\n      0x01\n      add\n        /* \"src/contracts/Ethernium.sol\":7852:7879  vaultOfContract.balances[t] */\n      0x00\n        /* \"src/contracts/Ethernium.sol\":7877:7878  t */\n      dup3\n        /* \"src/contracts/Ethernium.sol\":7852:7879  vaultOfContract.balances[t] */\n      0xffffffffffffffffffffffffffffffffffffffff\n      and\n      0xffffffffffffffffffffffffffffffffffffffff\n      and\n      dup2\n      mstore\n      0x20\n      add\n      swap1\n      dup2\n      mstore\n      0x20\n      add\n      0x00\n      keccak256\n      sload\n        /* \"src/contracts/Ethernium.sol\":7837:7846  balances_ */\n      dup4\n        /* \"src/contracts/Ethernium.sol\":7847:7848  i */\n      dup4\n        /* \"src/contracts/Ethernium.sol\":7837:7849  balances_[i] */\n      dup2\n      mload\n      dup2\n      lt\n      tag_152\n      jumpi\n      tag_153\n      tag_107\n      jump\t// in\n    tag_153:\n    tag_152:\n      0x20\n      mul\n      0x20\n      add\n      add\n        /* \"src/contracts/Ethernium.sol\":7837:7879  balances_[i] = vaultOfContract.balances[t] */\n      dup2\n      dup2\n      mstore\n      pop\n      pop\n        /* \"src/contracts/Ethernium.sol\":7744:7890  {... */\n      pop\n        /* \"src/contracts/Ethernium.sol\":7739:7742  i++ */\n      dup1\n      dup1\n      0x01\n      add\n      swap2\n      pop\n      pop\n        /* \"src/contracts/Ethernium.sol\":7710:7890  for (uint256 i = 0; i < len; i++) {... */\n      jump(tag_144)\n    tag_145:\n      pop\n        /* \"src/contracts/Ethernium.sol\":7904:8029  VaultView({... */\n      mload(0x40)\n      dup1\n      0x60\n      add\n      0x40\n      mstore\n      dup1\n        /* \"src/contracts/Ethernium.sol\":7935:7950  vaultOfContract */\n      0x02\n        /* \"src/contracts/Ethernium.sol\":7935:7956  vaultOfContract.exist */\n      0x00\n      add\n      0x00\n      swap1\n      sload\n      swap1\n      0x0100\n      exp\n      swap1\n      div\n      0xff\n      and\n        /* \"src/contracts/Ethernium.sol\":7904:8029  VaultView({... */\n      iszero\n      iszero\n      dup2\n      mstore\n      0x20\n      add\n        /* \"src/contracts/Ethernium.sol\":7978:7985  tokens_ */\n      dup4\n        /* \"src/contracts/Ethernium.sol\":7904:8029  VaultView({... */\n      dup2\n      mstore\n      0x20\n      add\n        /* \"src/contracts/Ethernium.sol\":8009:8018  balances_ */\n      dup3\n        /* \"src/contracts/Ethernium.sol\":7904:8029  VaultView({... */\n      dup2\n      mstore\n      pop\n        /* \"src/contracts/Ethernium.sol\":7900:8029  v = VaultView({... */\n      swap4\n      pop\n        /* \"src/contracts/Ethernium.sol\":7533:8036  {... */\n      pop\n      pop\n      pop\n        /* \"src/contracts/Ethernium.sol\":7461:8036  function contractVaultView() external view returns (VaultView memory v) {... */\n      swap1\n      jump\t// out\n        /* \"src/contracts/Ethernium.sol\":5369:5797  function withdrawETH(uint256 amount) external {... */\n    tag_44:\n        /* \"src/contracts/Ethernium.sol\":5425:5440  Vault storage v */\n      0x00\n        /* \"src/contracts/Ethernium.sol\":5443:5452  testators */\n      0x00\n        /* \"src/contracts/Ethernium.sol\":5443:5464  testators[msg.sender] */\n      0x00\n        /* \"src/contracts/Ethernium.sol\":5453:5463  msg.sender */\n      caller\n        /* \"src/contracts/Ethernium.sol\":5443:5464  testators[msg.sender] */\n      0xffffffffffffffffffffffffffffffffffffffff\n      and\n      0xffffffffffffffffffffffffffffffffffffffff\n      and\n      dup2\n      mstore\n      0x20\n      add\n      swap1\n      dup2\n      mstore\n      0x20\n      add\n      0x00\n      keccak256\n        /* \"src/contracts/Ethernium.sol\":5425:5464  Vault storage v = testators[msg.sender] */\n      swap1\n      pop\n        /* \"src/contracts/Ethernium.sol\":5482:5483  v */\n      dup1\n        /* \"src/contracts/Ethernium.sol\":5482:5489  v.exist */\n      0x00\n      add\n      0x00\n      swap1\n      sload\n      swap1\n      0x0100\n      exp\n      swap1\n      div\n      0xff\n      and\n        /* \"src/contracts/Ethernium.sol\":5474:5514  require(v.exist, \"Vault does not exist\") */\n      tag_155\n      jumpi\n      mload(0x40)\n      0x08c379a000000000000000000000000000000000000000000000000000000000\n      dup2\n      mstore\n      0x04\n      add\n      tag_156\n      swap1\n      tag_118\n      jump\t// in\n    tag_156:\n      mload(0x40)\n      dup1\n      swap2\n      sub\n      swap1\n      revert\n    tag_155:\n        /* \"src/contracts/Ethernium.sol\":5559:5565  amount */\n      dup2\n        /* \"src/contracts/Ethernium.sol\":5532:5533  v */\n      dup2\n        /* \"src/contracts/Ethernium.sol\":5532:5542  v.balances */\n      0x01\n      add\n        /* \"src/contracts/Ethernium.sol\":5532:5555  v.balances[ETH_ADDRESS] */\n      0x00\n        /* \"src/contracts/Ethernium.sol\":501:543  0xEeeeeEeeeEeEeeEeEeEeeEEEeeeeEeeeeeeeEEeE */\n      0xeeeeeeeeeeeeeeeeeeeeeeeeeeeeeeeeeeeeeeee\n        /* \"src/contracts/Ethernium.sol\":5532:5555  v.balances[ETH_ADDRESS] */\n      0xffffffffffffffffffffffffffffffffffffffff\n      and\n      0xffffffffffffffffffffffffffffffffffffffff\n      and\n      dup2\n      mstore\n      0x20\n      add\n      swap1\n      dup2\n      mstore\n      0x20\n      add\n      0x00\n      keccak256\n      sload\n        /* \"src/contracts/Ethernium.sol\":5532:5565  v.balances[ETH_ADDRESS] >= amount */\n      lt\n      iszero\n        /* \"src/contracts/Ethernium.sol\":5524:5586  require(v.balances[ETH_ADDRESS] >= amount, \"Insufficient ETH\") */\n      tag_157\n      jumpi\n      mload(0x40)\n      0x08c379a000000000000000000000000000000000000000000000000000000000\n      dup2\n      mstore\n      0x04\n      add\n      tag_158\n      swap1\n      tag_159\n      jump\t// in\n    tag_158:\n      mload(0x40)\n      dup1\n      swap2\n      sub\n      swap1\n      revert\n    tag_157:\n        /* \"src/contracts/Ethernium.sol\":5624:5630  amount */\n      dup2\n        /* \"src/contracts/Ethernium.sol\":5597:5598  v */\n      dup2\n        /* \"src/contracts/Ethernium.sol\":5597:5607  v.balances */\n      0x01\n      add\n        /* \"src/contracts/Ethernium.sol\":5597:5620  v.balances[ETH_ADDRESS] */\n      0x00\n        /* \"src/contracts/Ethernium.sol\":501:543  0xEeeeeEeeeEeEeeEeEeEeeEEEeeeeEeeeeeeeEEeE */\n      0xeeeeeeeeeeeeeeeeeeeeeeeeeeeeeeeeeeeeeeee\n        /* \"src/contracts/Ethernium.sol\":5597:5620  v.balances[ETH_ADDRESS] */\n      0xffffffffffffffffffffffffffffffffffffffff\n      and\n      0xffffffffffffffffffffffffffffffffffffffff\n      and\n      dup2\n      mstore\n      0x20\n      add\n      swap1\n      dup2\n      mstore\n      0x20\n      add\n      0x00\n      keccak256\n      0x00\n        /* \"src/contracts/Ethernium.sol\":5597:5630  v.balances[ETH_ADDRESS] -= amount */\n      dup3\n      dup3\n      sload\n      tag_160\n      swap2\n      swap1\n      tag_83\n      jump\t// in\n    tag_160:\n      swap3\n      pop\n      pop\n      dup2\n      swap1\n      sstore\n      pop\n        /* \"src/contracts/Ethernium.sol\":5642:5649  bool ok */\n      0x00\n        /* \"src/contracts/Ethernium.sol\":5655:5665  msg.sender */\n      caller\n        /* \"src/contracts/Ethernium.sol\":5655:5670  msg.sender.call */\n      0xffffffffffffffffffffffffffffffffffffffff\n      and\n        /* \"src/contracts/Ethernium.sol\":5678:5684  amount */\n      dup4\n        /* \"src/contracts/Ethernium.sol\":5655:5689  msg.sender.call{value: amount}(\"\") */\n      mload(0x40)\n      tag_161\n      swap1\n      tag_162\n      jump\t// in\n    tag_161:\n      0x00\n      mload(0x40)\n      dup1\n      dup4\n      sub\n      dup2\n      dup6\n      dup8\n      gas\n      call\n      swap3\n      pop\n      pop\n      pop\n      returndatasize\n      dup1\n      0x00\n      dup2\n      eq\n      tag_165\n      jumpi\n      mload(0x40)\n      swap2\n      pop\n      and(add(returndatasize, 0x3f), not(0x1f))\n      dup3\n      add\n      0x40\n      mstore\n      returndatasize\n      dup3\n      mstore\n      returndatasize\n      0x00\n      0x20\n      dup5\n      add\n      returndatacopy\n      jump(tag_164)\n    tag_165:\n      0x60\n      swap2\n      pop\n    tag_164:\n      pop\n        /* \"src/contracts/Ethernium.sol\":5641:5689  (bool ok, ) = msg.sender.call{value: amount}(\"\") */\n      pop\n      swap1\n      pop\n        /* \"src/contracts/Ethernium.sol\":5707:5709  ok */\n      dup1\n        /* \"src/contracts/Ethernium.sol\":5699:5733  require(ok, \"ETH transfer failed\") */\n      tag_166\n      jumpi\n      mload(0x40)\n      0x08c379a000000000000000000000000000000000000000000000000000000000\n      dup2\n      mstore\n      0x04\n      add\n      tag_167\n      swap1\n      tag_168\n      jump\t// in\n    tag_167:\n      mload(0x40)\n      dup1\n      swap2\n      sub\n      swap1\n      revert\n    tag_166:\n        /* \"src/contracts/Ethernium.sol\":501:543  0xEeeeeEeeeEeEeeEeEeEeeEEEeeeeEeeeeeeeEEeE */\n      0xeeeeeeeeeeeeeeeeeeeeeeeeeeeeeeeeeeeeeeee\n        /* \"src/contracts/Ethernium.sol\":5749:5790  Withdraw(msg.sender, ETH_ADDRESS, amount) */\n      0xffffffffffffffffffffffffffffffffffffffff\n      and\n        /* \"src/contracts/Ethernium.sol\":5758:5768  msg.sender */\n      caller\n        /* \"src/contracts/Ethernium.sol\":5749:5790  Withdraw(msg.sender, ETH_ADDRESS, amount) */\n      0xffffffffffffffffffffffffffffffffffffffff\n      and\n      0x9b1bfa7fa9ee420a16e124f794c35ac9f90472acc99140eb2f6447c714cad8eb\n        /* \"src/contracts/Ethernium.sol\":5783:5789  amount */\n      dup6\n        /* \"src/contracts/Ethernium.sol\":5749:5790  Withdraw(msg.sender, ETH_ADDRESS, amount) */\n      mload(0x40)\n      tag_169\n      swap2\n      swap1\n      tag_132\n      jump\t// in\n    tag_169:\n      mload(0x40)\n      dup1\n      swap2\n      sub\n      swap1\n      log3\n        /* \"src/contracts/Ethernium.sol\":5415:5797  {... */\n      pop\n      pop\n        /* \"src/contracts/Ethernium.sol\":5369:5797  function withdrawETH(uint256 amount) external {... */\n      pop\n      jump\t// out\n        /* \"src/contracts/Ethernium.sol\":2527:3122  function depositETH() external payable {... */\n    tag_46:\n        /* \"src/contracts/Ethernium.sol\":2584:2603  vaultCreatedAndPaid */\n      0x01\n        /* \"src/contracts/Ethernium.sol\":2584:2615  vaultCreatedAndPaid[msg.sender] */\n      0x00\n        /* \"src/contracts/Ethernium.sol\":2604:2614  msg.sender */\n      caller\n        /* \"src/contracts/Ethernium.sol\":2584:2615  vaultCreatedAndPaid[msg.sender] */\n      0xffffffffffffffffffffffffffffffffffffffff\n      and\n      0xffffffffffffffffffffffffffffffffffffffff\n      and\n      dup2\n      mstore\n      0x20\n      add\n      swap1\n      dup2\n      mstore\n      0x20\n      add\n      0x00\n      keccak256\n      0x00\n      swap1\n      sload\n      swap1\n      0x0100\n      exp\n      swap1\n      div\n      0xff\n      and\n        /* \"src/contracts/Ethernium.sol\":2576:2638  require(vaultCreatedAndPaid[msg.sender], \"Create vault first\") */\n      tag_171\n      jumpi\n      mload(0x40)\n      0x08c379a000000000000000000000000000000000000000000000000000000000\n      dup2\n      mstore\n      0x04\n      add\n      tag_172\n      swap1\n      tag_60\n      jump\t// in\n    tag_172:\n      mload(0x40)\n      dup1\n      swap2\n      sub\n      swap1\n      revert\n    tag_171:\n        /* \"src/contracts/Ethernium.sol\":2668:2669  0 */\n      0x00\n        /* \"src/contracts/Ethernium.sol\":2656:2665  msg.value */\n      callvalue\n        /* \"src/contracts/Ethernium.sol\":2656:2669  msg.value > 0 */\n      gt\n        /* \"src/contracts/Ethernium.sol\":2648:2685  require(msg.value > 0, \"No ETH sent\") */\n      tag_173\n      jumpi\n      mload(0x40)\n      0x08c379a000000000000000000000000000000000000000000000000000000000\n      dup2\n      mstore\n      0x04\n      add\n      tag_174\n      swap1\n      tag_175\n      jump\t// in\n    tag_174:\n      mload(0x40)\n      dup1\n      swap2\n      sub\n      swap1\n      revert\n    tag_173:\n        /* \"src/contracts/Ethernium.sol\":2695:2719  _ensureVault(msg.sender) */\n      tag_176\n        /* \"src/contracts/Ethernium.sol\":2708:2718  msg.sender */\n      caller\n        /* \"src/contracts/Ethernium.sol\":2695:2707  _ensureVault */\n      tag_68\n        /* \"src/contracts/Ethernium.sol\":2695:2719  _ensureVault(msg.sender) */\n      jump\t// in\n    tag_176:\n        /* \"src/contracts/Ethernium.sol\":2730:2741  uint256 fee */\n      0x00\n        /* \"src/contracts/Ethernium.sol\":382:387  10000 */\n      0x2710\n        /* \"src/contracts/Ethernium.sol\":2744:2791  (msg.value * DEPOSIT_FEE_BPS) / BPS_DENOMINATOR */\n      0xffff\n      and\n        /* \"src/contracts/Ethernium.sol\":312:314  50 */\n      0x32\n        /* \"src/contracts/Ethernium.sol\":2745:2772  msg.value * DEPOSIT_FEE_BPS */\n      0xffff\n      and\n        /* \"src/contracts/Ethernium.sol\":2745:2754  msg.value */\n      callvalue\n        /* \"src/contracts/Ethernium.sol\":2745:2772  msg.value * DEPOSIT_FEE_BPS */\n      tag_177\n      swap2\n      swap1\n      tag_79\n      jump\t// in\n    tag_177:\n        /* \"src/contracts/Ethernium.sol\":2744:2791  (msg.value * DEPOSIT_FEE_BPS) / BPS_DENOMINATOR */\n      tag_178\n      swap2\n      swap1\n      tag_81\n      jump\t// in\n    tag_178:\n        /* \"src/contracts/Ethernium.sol\":2730:2791  uint256 fee = (msg.value * DEPOSIT_FEE_BPS) / BPS_DENOMINATOR */\n      swap1\n      pop\n        /* \"src/contracts/Ethernium.sol\":2801:2812  uint256 net */\n      0x00\n        /* \"src/contracts/Ethernium.sol\":2827:2830  fee */\n      dup2\n        /* \"src/contracts/Ethernium.sol\":2815:2824  msg.value */\n      callvalue\n        /* \"src/contracts/Ethernium.sol\":2815:2830  msg.value - fee */\n      tag_179\n      swap2\n      swap1\n      tag_83\n      jump\t// in\n    tag_179:\n        /* \"src/contracts/Ethernium.sol\":2801:2830  uint256 net = msg.value - fee */\n      swap1\n      pop\n        /* \"src/contracts/Ethernium.sol\":2854:2855  0 */\n      0x00\n        /* \"src/contracts/Ethernium.sol\":2848:2851  net */\n      dup2\n        /* \"src/contracts/Ethernium.sol\":2848:2855  net > 0 */\n      gt\n        /* \"src/contracts/Ethernium.sol\":2840:2871  require(net > 0, \"Net is zero\") */\n      tag_180\n      jumpi\n      mload(0x40)\n      0x08c379a000000000000000000000000000000000000000000000000000000000\n      dup2\n      mstore\n      0x04\n      add\n      tag_181\n      swap1\n      tag_86\n      jump\t// in\n    tag_181:\n      mload(0x40)\n      dup1\n      swap2\n      sub\n      swap1\n      revert\n    tag_180:\n        /* \"src/contracts/Ethernium.sol\":2961:2999  _creditContractVault(ETH_ADDRESS, fee) */\n      tag_182\n        /* \"src/contracts/Ethernium.sol\":501:543  0xEeeeeEeeeEeEeeEeEeEeeEEEeeeeEeeeeeeeEEeE */\n      0xeeeeeeeeeeeeeeeeeeeeeeeeeeeeeeeeeeeeeeee\n        /* \"src/contracts/Ethernium.sol\":2995:2998  fee */\n      dup4\n        /* \"src/contracts/Ethernium.sol\":2961:2981  _creditContractVault */\n      tag_56\n        /* \"src/contracts/Ethernium.sol\":2961:2999  _creditContractVault(ETH_ADDRESS, fee) */\n      jump\t// in\n    tag_182:\n        /* \"src/contracts/Ethernium.sol\":3010:3047  _credit(msg.sender, ETH_ADDRESS, net) */\n      tag_183\n        /* \"src/contracts/Ethernium.sol\":3018:3028  msg.sender */\n      caller\n        /* \"src/contracts/Ethernium.sol\":501:543  0xEeeeeEeeeEeEeeEeEeEeeEEEeeeeEeeeeeeeEEeE */\n      0xeeeeeeeeeeeeeeeeeeeeeeeeeeeeeeeeeeeeeeee\n        /* \"src/contracts/Ethernium.sol\":3043:3046  net */\n      dup4\n        /* \"src/contracts/Ethernium.sol\":3010:3017  _credit */\n      tag_89\n        /* \"src/contracts/Ethernium.sol\":3010:3047  _credit(msg.sender, ETH_ADDRESS, net) */\n      jump\t// in\n    tag_183:\n        /* \"src/contracts/Ethernium.sol\":501:543  0xEeeeeEeeeEeEeeEeEeEeeEEEeeeeEeeeeeeeEEeE */\n      0xeeeeeeeeeeeeeeeeeeeeeeeeeeeeeeeeeeeeeeee\n        /* \"src/contracts/Ethernium.sol\":3062:3115  Deposit(msg.sender, ETH_ADDRESS, msg.value, fee, net) */\n      0xffffffffffffffffffffffffffffffffffffffff\n      and\n        /* \"src/contracts/Ethernium.sol\":3070:3080  msg.sender */\n      caller\n        /* \"src/contracts/Ethernium.sol\":3062:3115  Deposit(msg.sender, ETH_ADDRESS, msg.value, fee, net) */\n      0xffffffffffffffffffffffffffffffffffffffff\n      and\n      0x4e2ca0515ed1aef1395f66b5303bb5d6f1bf9d61a353fa53f73f8ac9973fa9f6\n        /* \"src/contracts/Ethernium.sol\":3095:3104  msg.value */\n      callvalue\n        /* \"src/contracts/Ethernium.sol\":3106:3109  fee */\n      dup6\n        /* \"src/contracts/Ethernium.sol\":3111:3114  net */\n      dup6\n        /* \"src/contracts/Ethernium.sol\":3062:3115  Deposit(msg.sender, ETH_ADDRESS, msg.value, fee, net) */\n      mload(0x40)\n      tag_184\n      swap4\n      swap3\n      swap2\n      swap1\n      tag_91\n      jump\t// in\n    tag_184:\n      mload(0x40)\n      dup1\n      swap2\n      sub\n      swap1\n      log3\n        /* \"src/contracts/Ethernium.sol\":2566:3122  {... */\n      pop\n      pop\n        /* \"src/contracts/Ethernium.sol\":2527:3122  function depositETH() external payable {... */\n      jump\t// out\n        /* \"src/contracts/Ethernium.sol\":7017:7376  function _creditContractVault(address token, uint256 amount) internal {... */\n    tag_56:\n        /* \"src/contracts/Ethernium.sol\":7111:7112  0 */\n      0x00\n        /* \"src/contracts/Ethernium.sol\":7101:7107  amount */\n      dup2\n        /* \"src/contracts/Ethernium.sol\":7101:7112  amount == 0 */\n      sub\n        /* \"src/contracts/Ethernium.sol\":7097:7121  if (amount == 0) return; */\n      iszero\n        /* \"src/contracts/Ethernium.sol\":7114:7121  return; */\n      tag_185\n        /* \"src/contracts/Ethernium.sol\":7097:7121  if (amount == 0) return; */\n      jumpi\n        /* \"src/contracts/Ethernium.sol\":7135:7150  vaultOfContract */\n      0x02\n        /* \"src/contracts/Ethernium.sol\":7135:7160  vaultOfContract.tokenSeen */\n      0x03\n      add\n        /* \"src/contracts/Ethernium.sol\":7135:7167  vaultOfContract.tokenSeen[token] */\n      0x00\n        /* \"src/contracts/Ethernium.sol\":7161:7166  token */\n      dup4\n        /* \"src/contracts/Ethernium.sol\":7135:7167  vaultOfContract.tokenSeen[token] */\n      0xffffffffffffffffffffffffffffffffffffffff\n      and\n      0xffffffffffffffffffffffffffffffffffffffff\n      and\n      dup2\n      mstore\n      0x20\n      add\n      swap1\n      dup2\n      mstore\n      0x20\n      add\n      0x00\n      keccak256\n      0x00\n      swap1\n      sload\n      swap1\n      0x0100\n      exp\n      swap1\n      div\n      0xff\n      and\n        /* \"src/contracts/Ethernium.sol\":7130:7281  if (!vaultOfContract.tokenSeen[token]) {... */\n      tag_187\n      jumpi\n        /* \"src/contracts/Ethernium.sol\":7218:7222  true */\n      0x01\n        /* \"src/contracts/Ethernium.sol\":7183:7198  vaultOfContract */\n      0x02\n        /* \"src/contracts/Ethernium.sol\":7183:7208  vaultOfContract.tokenSeen */\n      0x03\n      add\n        /* \"src/contracts/Ethernium.sol\":7183:7215  vaultOfContract.tokenSeen[token] */\n      0x00\n        /* \"src/contracts/Ethernium.sol\":7209:7214  token */\n      dup5\n        /* \"src/contracts/Ethernium.sol\":7183:7215  vaultOfContract.tokenSeen[token] */\n      0xffffffffffffffffffffffffffffffffffffffff\n      and\n      0xffffffffffffffffffffffffffffffffffffffff\n      and\n      dup2\n      mstore\n      0x20\n      add\n      swap1\n      dup2\n      mstore\n      0x20\n      add\n      0x00\n      keccak256\n      0x00\n        /* \"src/contracts/Ethernium.sol\":7183:7222  vaultOfContract.tokenSeen[token] = true */\n      0x0100\n      exp\n      dup2\n      sload\n      dup2\n      0xff\n      mul\n      not\n      and\n      swap1\n      dup4\n      iszero\n      iszero\n      mul\n      or\n      swap1\n      sstore\n      pop\n        /* \"src/contracts/Ethernium.sol\":7236:7251  vaultOfContract */\n      0x02\n        /* \"src/contracts/Ethernium.sol\":7236:7258  vaultOfContract.tokens */\n      dup1\n      add\n        /* \"src/contracts/Ethernium.sol\":7264:7269  token */\n      dup3\n        /* \"src/contracts/Ethernium.sol\":7236:7270  vaultOfContract.tokens.push(token) */\n      swap1\n      dup1\n      0x01\n      dup2\n      sload\n      add\n      dup1\n      dup3\n      sstore\n      dup1\n      swap2\n      pop\n      pop\n      0x01\n      swap1\n      sub\n      swap1\n      0x00\n      mstore\n      keccak256(0x00, 0x20)\n      add\n      0x00\n      swap1\n      swap2\n      swap1\n      swap2\n      swap1\n      swap2\n      0x0100\n      exp\n      dup2\n      sload\n      dup2\n      0xffffffffffffffffffffffffffffffffffffffff\n      mul\n      not\n      and\n      swap1\n      dup4\n      0xffffffffffffffffffffffffffffffffffffffff\n      and\n      mul\n      or\n      swap1\n      sstore\n      pop\n        /* \"src/contracts/Ethernium.sol\":7130:7281  if (!vaultOfContract.tokenSeen[token]) {... */\n    tag_187:\n        /* \"src/contracts/Ethernium.sol\":7325:7331  amount */\n      dup1\n        /* \"src/contracts/Ethernium.sol\":7290:7305  vaultOfContract */\n      0x02\n        /* \"src/contracts/Ethernium.sol\":7290:7314  vaultOfContract.balances */\n      0x01\n      add\n        /* \"src/contracts/Ethernium.sol\":7290:7321  vaultOfContract.balances[token] */\n      0x00\n        /* \"src/contracts/Ethernium.sol\":7315:7320  token */\n      dup5\n        /* \"src/contracts/Ethernium.sol\":7290:7321  vaultOfContract.balances[token] */\n      0xffffffffffffffffffffffffffffffffffffffff\n      and\n      0xffffffffffffffffffffffffffffffffffffffff\n      and\n      dup2\n      mstore\n      0x20\n      add\n      swap1\n      dup2\n      mstore\n      0x20\n      add\n      0x00\n      keccak256\n      0x00\n        /* \"src/contracts/Ethernium.sol\":7290:7331  vaultOfContract.balances[token] += amount */\n      dup3\n      dup3\n      sload\n      tag_189\n      swap2\n      swap1\n      tag_190\n      jump\t// in\n    tag_189:\n      swap3\n      pop\n      pop\n      dup2\n      swap1\n      sstore\n      pop\n        /* \"src/contracts/Ethernium.sol\":7365:7369  true */\n      0x01\n        /* \"src/contracts/Ethernium.sol\":7341:7356  vaultOfContract */\n      0x02\n        /* \"src/contracts/Ethernium.sol\":7341:7362  vaultOfContract.exist */\n      0x00\n      add\n      0x00\n        /* \"src/contracts/Ethernium.sol\":7341:7369  vaultOfContract.exist = true */\n      0x0100\n      exp\n      dup2\n      sload\n      dup2\n      0xff\n      mul\n      not\n      and\n      swap1\n      dup4\n      iszero\n      iszero\n      mul\n      or\n      swap1\n      sstore\n      pop\n        /* \"src/contracts/Ethernium.sol\":7017:7376  function _creditContractVault(address token, uint256 amount) internal {... */\n    tag_185:\n      pop\n      pop\n      jump\t// out\n        /* \"src/contracts/Ethernium.sol\":6428:6634  function _ensureVault(address testator) internal {... */\n    tag_68:\n        /* \"src/contracts/Ethernium.sol\":6487:6502  Vault storage v */\n      0x00\n        /* \"src/contracts/Ethernium.sol\":6505:6514  testators */\n      0x00\n        /* \"src/contracts/Ethernium.sol\":6505:6524  testators[testator] */\n      0x00\n        /* \"src/contracts/Ethernium.sol\":6515:6523  testator */\n      dup4\n        /* \"src/contracts/Ethernium.sol\":6505:6524  testators[testator] */\n      0xffffffffffffffffffffffffffffffffffffffff\n      and\n      0xffffffffffffffffffffffffffffffffffffffff\n      and\n      dup2\n      mstore\n      0x20\n      add\n      swap1\n      dup2\n      mstore\n      0x20\n      add\n      0x00\n      keccak256\n        /* \"src/contracts/Ethernium.sol\":6487:6524  Vault storage v = testators[testator] */\n      swap1\n      pop\n        /* \"src/contracts/Ethernium.sol\":6539:6540  v */\n      dup1\n        /* \"src/contracts/Ethernium.sol\":6539:6546  v.exist */\n      0x00\n      add\n      0x00\n      swap1\n      sload\n      swap1\n      0x0100\n      exp\n      swap1\n      div\n      0xff\n      and\n        /* \"src/contracts/Ethernium.sol\":6534:6628  if (!v.exist) {... */\n      tag_192\n      jumpi\n        /* \"src/contracts/Ethernium.sol\":6572:6576  true */\n      0x01\n        /* \"src/contracts/Ethernium.sol\":6562:6563  v */\n      dup2\n        /* \"src/contracts/Ethernium.sol\":6562:6569  v.exist */\n      0x00\n      add\n      0x00\n        /* \"src/contracts/Ethernium.sol\":6562:6576  v.exist = true */\n      0x0100\n      exp\n      dup2\n      sload\n      dup2\n      0xff\n      mul\n      not\n      and\n      swap1\n      dup4\n      iszero\n      iszero\n      mul\n      or\n      swap1\n      sstore\n      pop\n        /* \"src/contracts/Ethernium.sol\":6608:6616  testator */\n      dup2\n        /* \"src/contracts/Ethernium.sol\":6595:6617  VaultCreated(testator) */\n      0xffffffffffffffffffffffffffffffffffffffff\n      and\n      0x2e49a5810fda2439a23771848b4acec786b0a64d4de3d124ac57fc8739c38875\n      mload(0x40)\n      mload(0x40)\n      dup1\n      swap2\n      sub\n      swap1\n      log2\n        /* \"src/contracts/Ethernium.sol\":6534:6628  if (!v.exist) {... */\n    tag_192:\n        /* \"src/contracts/Ethernium.sol\":6477:6634  {... */\n      pop\n        /* \"src/contracts/Ethernium.sol\":6428:6634  function _ensureVault(address testator) internal {... */\n      pop\n      jump\t// out\n        /* \"src/contracts/Ethernium.sol\":6695:7011  function _credit(... */\n    tag_89:\n        /* \"src/contracts/Ethernium.sol\":6810:6825  Vault storage v */\n      0x00\n        /* \"src/contracts/Ethernium.sol\":6828:6837  testators */\n      0x00\n        /* \"src/contracts/Ethernium.sol\":6828:6847  testators[testator] */\n      0x00\n        /* \"src/contracts/Ethernium.sol\":6838:6846  testator */\n      dup6\n        /* \"src/contracts/Ethernium.sol\":6828:6847  testators[testator] */\n      0xffffffffffffffffffffffffffffffffffffffff\n      and\n      0xffffffffffffffffffffffffffffffffffffffff\n      and\n      dup2\n      mstore\n      0x20\n      add\n      swap1\n      dup2\n      mstore\n      0x20\n      add\n      0x00\n      keccak256\n        /* \"src/contracts/Ethernium.sol\":6810:6847  Vault storage v = testators[testator] */\n      swap1\n      pop\n        /* \"src/contracts/Ethernium.sol\":6863:6864  v */\n      dup1\n        /* \"src/contracts/Ethernium.sol\":6863:6874  v.tokenSeen */\n      0x03\n      add\n        /* \"src/contracts/Ethernium.sol\":6863:6881  v.tokenSeen[token] */\n      0x00\n        /* \"src/contracts/Ethernium.sol\":6875:6880  token */\n      dup5\n        /* \"src/contracts/Ethernium.sol\":6863:6881  v.tokenSeen[token] */\n      0xffffffffffffffffffffffffffffffffffffffff\n      and\n      0xffffffffffffffffffffffffffffffffffffffff\n      and\n      dup2\n      mstore\n      0x20\n      add\n      swap1\n      dup2\n      mstore\n      0x20\n      add\n      0x00\n      keccak256\n      0x00\n      swap1\n      sload\n      swap1\n      0x0100\n      exp\n      swap1\n      div\n      0xff\n      and\n        /* \"src/contracts/Ethernium.sol\":6858:6967  if (!v.tokenSeen[token]) {... */\n      tag_194\n      jumpi\n        /* \"src/contracts/Ethernium.sol\":6918:6922  true */\n      0x01\n        /* \"src/contracts/Ethernium.sol\":6897:6898  v */\n      dup2\n        /* \"src/contracts/Ethernium.sol\":6897:6908  v.tokenSeen */\n      0x03\n      add\n        /* \"src/contracts/Ethernium.sol\":6897:6915  v.tokenSeen[token] */\n      0x00\n        /* \"src/contracts/Ethernium.sol\":6909:6914  token */\n      dup6\n        /* \"src/contracts/Ethernium.sol\":6897:6915  v.tokenSeen[token] */\n      0xffffffffffffffffffffffffffffffffffffffff\n      and\n      0xffffffffffffffffffffffffffffffffffffffff\n      and\n      dup2\n      mstore\n      0x20\n      add\n      swap1\n      dup2\n      mstore\n      0x20\n      add\n      0x00\n      keccak256\n      0x00\n        /* \"src/contracts/Ethernium.sol\":6897:6922  v.tokenSeen[token] = true */\n      0x0100\n      exp\n      dup2\n      sload\n      dup2\n      0xff\n      mul\n      not\n      and\n      swap1\n      dup4\n      iszero\n      iszero\n      mul\n      or\n      swap1\n      sstore\n      pop\n        /* \"src/contracts/Ethernium.sol\":6936:6937  v */\n      dup1\n        /* \"src/contracts/Ethernium.sol\":6936:6944  v.tokens */\n      0x02\n      add\n        /* \"src/contracts/Ethernium.sol\":6950:6955  token */\n      dup4\n        /* \"src/contracts/Ethernium.sol\":6936:6956  v.tokens.push(token) */\n      swap1\n      dup1\n      0x01\n      dup2\n      sload\n      add\n      dup1\n      dup3\n      sstore\n      dup1\n      swap2\n      pop\n      pop\n      0x01\n      swap1\n      sub\n      swap1\n      0x00\n      mstore\n      keccak256(0x00, 0x20)\n      add\n      0x00\n      swap1\n      swap2\n      swap1\n      swap2\n      swap1\n      swap2\n      0x0100\n      exp\n      dup2\n      sload\n      dup2\n      0xffffffffffffffffffffffffffffffffffffffff\n      mul\n      not\n      and\n      swap1\n      dup4\n      0xffffffffffffffffffffffffffffffffffffffff\n      and\n      mul\n      or\n      swap1\n      sstore\n      pop\n        /* \"src/contracts/Ethernium.sol\":6858:6967  if (!v.tokenSeen[token]) {... */\n    tag_194:\n        /* \"src/contracts/Ethernium.sol\":6998:7004  amount */\n      dup2\n        /* \"src/contracts/Ethernium.sol\":6977:6978  v */\n      dup2\n        /* \"src/contracts/Ethernium.sol\":6977:6987  v.balances */\n      0x01\n      add\n        /* \"src/contracts/Ethernium.sol\":6977:6994  v.balances[token] */\n      0x00\n        /* \"src/contracts/Ethernium.sol\":6988:6993  token */\n      dup6\n        /* \"src/contracts/Ethernium.sol\":6977:6994  v.balances[token] */\n      0xffffffffffffffffffffffffffffffffffffffff\n      and\n      0xffffffffffffffffffffffffffffffffffffffff\n      and\n      dup2\n      mstore\n      0x20\n      add\n      swap1\n      dup2\n      mstore\n      0x20\n      add\n      0x00\n      keccak256\n      0x00\n        /* \"src/contracts/Ethernium.sol\":6977:7004  v.balances[token] += amount */\n      dup3\n      dup3\n      sload\n      tag_196\n      swap2\n      swap1\n      tag_190\n      jump\t// in\n    tag_196:\n      swap3\n      pop\n      pop\n      dup2\n      swap1\n      sstore\n      pop\n        /* \"src/contracts/Ethernium.sol\":6800:7011  {... */\n      pop\n        /* \"src/contracts/Ethernium.sol\":6695:7011  function _credit(... */\n      pop\n      pop\n      pop\n      jump\t// out\n    tag_93:\n      mload(0x40)\n      dup1\n      0x60\n      add\n      0x40\n      mstore\n      dup1\n      iszero(iszero(0x00))\n      dup2\n      mstore\n      0x20\n      add\n      0x60\n      dup2\n      mstore\n      0x20\n      add\n      0x60\n      dup2\n      mstore\n      pop\n      swap1\n      jump\t// out\n        /* \"#utility.yul\":7:176   */\n    tag_197:\n        /* \"#utility.yul\":91:102   */\n      0x00\n        /* \"#utility.yul\":125:131   */\n      dup3\n        /* \"#utility.yul\":120:123   */\n      dup3\n        /* \"#utility.yul\":113:132   */\n      mstore\n        /* \"#utility.yul\":165:169   */\n      0x20\n        /* \"#utility.yul\":160:163   */\n      dup3\n        /* \"#utility.yul\":156:170   */\n      add\n        /* \"#utility.yul\":141:170   */\n      swap1\n      pop\n        /* \"#utility.yul\":7:176   */\n      swap3\n      swap2\n      pop\n      pop\n      jump\t// out\n        /* \"#utility.yul\":182:346   */\n    tag_198:\n        /* \"#utility.yul\":322:338   */\n      0x557365206465706f736974455448000000000000000000000000000000000000\n        /* \"#utility.yul\":318:319   */\n      0x00\n        /* \"#utility.yul\":310:316   */\n      dup3\n        /* \"#utility.yul\":306:320   */\n      add\n        /* \"#utility.yul\":299:339   */\n      mstore\n        /* \"#utility.yul\":182:346   */\n      pop\n      jump\t// out\n        /* \"#utility.yul\":352:718   */\n    tag_199:\n        /* \"#utility.yul\":494:497   */\n      0x00\n        /* \"#utility.yul\":515:582   */\n      tag_268\n        /* \"#utility.yul\":579:581   */\n      0x0e\n        /* \"#utility.yul\":574:577   */\n      dup4\n        /* \"#utility.yul\":515:582   */\n      tag_197\n      jump\t// in\n    tag_268:\n        /* \"#utility.yul\":508:582   */\n      swap2\n      pop\n        /* \"#utility.yul\":591:684   */\n      tag_269\n        /* \"#utility.yul\":680:683   */\n      dup3\n        /* \"#utility.yul\":591:684   */\n      tag_198\n      jump\t// in\n    tag_269:\n        /* \"#utility.yul\":709:711   */\n      0x20\n        /* \"#utility.yul\":704:707   */\n      dup3\n        /* \"#utility.yul\":700:712   */\n      add\n        /* \"#utility.yul\":693:712   */\n      swap1\n      pop\n        /* \"#utility.yul\":352:718   */\n      swap2\n      swap1\n      pop\n      jump\t// out\n        /* \"#utility.yul\":724:1143   */\n    tag_15:\n        /* \"#utility.yul\":890:894   */\n      0x00\n        /* \"#utility.yul\":928:930   */\n      0x20\n        /* \"#utility.yul\":917:926   */\n      dup3\n        /* \"#utility.yul\":913:931   */\n      add\n        /* \"#utility.yul\":905:931   */\n      swap1\n      pop\n        /* \"#utility.yul\":977:986   */\n      dup2\n        /* \"#utility.yul\":971:975   */\n      dup2\n        /* \"#utility.yul\":967:987   */\n      sub\n        /* \"#utility.yul\":963:964   */\n      0x00\n        /* \"#utility.yul\":952:961   */\n      dup4\n        /* \"#utility.yul\":948:965   */\n      add\n        /* \"#utility.yul\":941:988   */\n      mstore\n        /* \"#utility.yul\":1005:1136   */\n      tag_271\n        /* \"#utility.yul\":1131:1135   */\n      dup2\n        /* \"#utility.yul\":1005:1136   */\n      tag_199\n      jump\t// in\n    tag_271:\n        /* \"#utility.yul\":997:1136   */\n      swap1\n      pop\n        /* \"#utility.yul\":724:1143   */\n      swap2\n      swap1\n      pop\n      jump\t// out\n        /* \"#utility.yul\":1230:1347   */\n    tag_201:\n        /* \"#utility.yul\":1339:1340   */\n      0x00\n        /* \"#utility.yul\":1336:1337   */\n      0x00\n        /* \"#utility.yul\":1329:1341   */\n      revert\n        /* \"#utility.yul\":1476:1602   */\n    tag_203:\n        /* \"#utility.yul\":1513:1520   */\n      0x00\n        /* \"#utility.yul\":1553:1595   */\n      0xffffffffffffffffffffffffffffffffffffffff\n        /* \"#utility.yul\":1546:1551   */\n      dup3\n        /* \"#utility.yul\":1542:1596   */\n      and\n        /* \"#utility.yul\":1531:1596   */\n      swap1\n      pop\n        /* \"#utility.yul\":1476:1602   */\n      swap2\n      swap1\n      pop\n      jump\t// out\n        /* \"#utility.yul\":1608:1704   */\n    tag_204:\n        /* \"#utility.yul\":1645:1652   */\n      0x00\n        /* \"#utility.yul\":1674:1698   */\n      tag_277\n        /* \"#utility.yul\":1692:1697   */\n      dup3\n        /* \"#utility.yul\":1674:1698   */\n      tag_203\n      jump\t// in\n    tag_277:\n        /* \"#utility.yul\":1663:1698   */\n      swap1\n      pop\n        /* \"#utility.yul\":1608:1704   */\n      swap2\n      swap1\n      pop\n      jump\t// out\n        /* \"#utility.yul\":1710:1832   */\n    tag_205:\n        /* \"#utility.yul\":1783:1807   */\n      tag_279\n        /* \"#utility.yul\":1801:1806   */\n      dup2\n        /* \"#utility.yul\":1783:1807   */\n      tag_204\n      jump\t// in\n    tag_279:\n        /* \"#utility.yul\":1776:1781   */\n      dup2\n        /* \"#utility.yul\":1773:1808   */\n      eq\n        /* \"#utility.yul\":1763:1826   */\n      tag_280\n      jumpi\n        /* \"#utility.yul\":1822:1823   */\n      0x00\n        /* \"#utility.yul\":1819:1820   */\n      0x00\n        /* \"#utility.yul\":1812:1824   */\n      revert\n        /* \"#utility.yul\":1763:1826   */\n    tag_280:\n        /* \"#utility.yul\":1710:1832   */\n      pop\n      jump\t// out\n        /* \"#utility.yul\":1838:1977   */\n    tag_206:\n        /* \"#utility.yul\":1884:1889   */\n      0x00\n        /* \"#utility.yul\":1922:1928   */\n      dup2\n        /* \"#utility.yul\":1909:1929   */\n      calldataload\n        /* \"#utility.yul\":1900:1929   */\n      swap1\n      pop\n        /* \"#utility.yul\":1938:1971   */\n      tag_282\n        /* \"#utility.yul\":1965:1970   */\n      dup2\n        /* \"#utility.yul\":1938:1971   */\n      tag_205\n      jump\t// in\n    tag_282:\n        /* \"#utility.yul\":1838:1977   */\n      swap3\n      swap2\n      pop\n      pop\n      jump\t// out\n        /* \"#utility.yul\":1983:2060   */\n    tag_207:\n        /* \"#utility.yul\":2020:2027   */\n      0x00\n        /* \"#utility.yul\":2049:2054   */\n      dup2\n        /* \"#utility.yul\":2038:2054   */\n      swap1\n      pop\n        /* \"#utility.yul\":1983:2060   */\n      swap2\n      swap1\n      pop\n      jump\t// out\n        /* \"#utility.yul\":2066:2188   */\n    tag_208:\n        /* \"#utility.yul\":2139:2163   */\n      tag_285\n        /* \"#utility.yul\":2157:2162   */\n      dup2\n        /* \"#utility.yul\":2139:2163   */\n      tag_207\n      jump\t// in\n    tag_285:\n        /* \"#utility.yul\":2132:2137   */\n      dup2\n        /* \"#utility.yul\":2129:2164   */\n      eq\n        /* \"#utility.yul\":2119:2182   */\n      tag_286\n      jumpi\n        /* \"#utility.yul\":2178:2179   */\n      0x00\n        /* \"#utility.yul\":2175:2176   */\n      0x00\n        /* \"#utility.yul\":2168:2180   */\n      revert\n        /* \"#utility.yul\":2119:2182   */\n    tag_286:\n        /* \"#utility.yul\":2066:2188   */\n      pop\n      jump\t// out\n        /* \"#utility.yul\":2194:2333   */\n    tag_209:\n        /* \"#utility.yul\":2240:2245   */\n      0x00\n        /* \"#utility.yul\":2278:2284   */\n      dup2\n        /* \"#utility.yul\":2265:2285   */\n      calldataload\n        /* \"#utility.yul\":2256:2285   */\n      swap1\n      pop\n        /* \"#utility.yul\":2294:2327   */\n      tag_288\n        /* \"#utility.yul\":2321:2326   */\n      dup2\n        /* \"#utility.yul\":2294:2327   */\n      tag_208\n      jump\t// in\n    tag_288:\n        /* \"#utility.yul\":2194:2333   */\n      swap3\n      swap2\n      pop\n      pop\n      jump\t// out\n        /* \"#utility.yul\":2339:2813   */\n    tag_20:\n        /* \"#utility.yul\":2407:2413   */\n      0x00\n        /* \"#utility.yul\":2415:2421   */\n      0x00\n        /* \"#utility.yul\":2464:2466   */\n      0x40\n        /* \"#utility.yul\":2452:2461   */\n      dup4\n        /* \"#utility.yul\":2443:2450   */\n      dup6\n        /* \"#utility.yul\":2439:2462   */\n      sub\n        /* \"#utility.yul\":2435:2467   */\n      slt\n        /* \"#utility.yul\":2432:2551   */\n      iszero\n      tag_290\n      jumpi\n        /* \"#utility.yul\":2470:2549   */\n      tag_291\n      tag_201\n      jump\t// in\n    tag_291:\n        /* \"#utility.yul\":2432:2551   */\n    tag_290:\n        /* \"#utility.yul\":2590:2591   */\n      0x00\n        /* \"#utility.yul\":2615:2668   */\n      tag_292\n        /* \"#utility.yul\":2660:2667   */\n      dup6\n        /* \"#utility.yul\":2651:2657   */\n      dup3\n        /* \"#utility.yul\":2640:2649   */\n      dup7\n        /* \"#utility.yul\":2636:2658   */\n      add\n        /* \"#utility.yul\":2615:2668   */\n      tag_206\n      jump\t// in\n    tag_292:\n        /* \"#utility.yul\":2605:2668   */\n      swap3\n      pop\n        /* \"#utility.yul\":2561:2678   */\n      pop\n        /* \"#utility.yul\":2717:2719   */\n      0x20\n        /* \"#utility.yul\":2743:2796   */\n      tag_293\n        /* \"#utility.yul\":2788:2795   */\n      dup6\n        /* \"#utility.yul\":2779:2785   */\n      dup3\n        /* \"#utility.yul\":2768:2777   */\n      dup7\n        /* \"#utility.yul\":2764:2786   */\n      add\n        /* \"#utility.yul\":2743:2796   */\n      tag_209\n      jump\t// in\n    tag_293:\n        /* \"#utility.yul\":2733:2796   */\n      swap2\n      pop\n        /* \"#utility.yul\":2688:2806   */\n      pop\n        /* \"#utility.yul\":2339:2813   */\n      swap3\n      pop\n      swap3\n      swap1\n      pop\n      jump\t// out\n        /* \"#utility.yul\":2819:2909   */\n    tag_210:\n        /* \"#utility.yul\":2853:2860   */\n      0x00\n        /* \"#utility.yul\":2896:2901   */\n      dup2\n        /* \"#utility.yul\":2889:2902   */\n      iszero\n        /* \"#utility.yul\":2882:2903   */\n      iszero\n        /* \"#utility.yul\":2871:2903   */\n      swap1\n      pop\n        /* \"#utility.yul\":2819:2909   */\n      swap2\n      swap1\n      pop\n      jump\t// out\n        /* \"#utility.yul\":2915:3014   */\n    tag_211:\n        /* \"#utility.yul\":2986:3007   */\n      tag_296\n        /* \"#utility.yul\":3001:3006   */\n      dup2\n        /* \"#utility.yul\":2986:3007   */\n      tag_210\n      jump\t// in\n    tag_296:\n        /* \"#utility.yul\":2981:2984   */\n      dup3\n        /* \"#utility.yul\":2974:3008   */\n      mstore\n        /* \"#utility.yul\":2915:3014   */\n      pop\n      pop\n      jump\t// out\n        /* \"#utility.yul\":3020:3134   */\n    tag_212:\n        /* \"#utility.yul\":3087:3093   */\n      0x00\n        /* \"#utility.yul\":3121:3126   */\n      dup2\n        /* \"#utility.yul\":3115:3127   */\n      mload\n        /* \"#utility.yul\":3105:3127   */\n      swap1\n      pop\n        /* \"#utility.yul\":3020:3134   */\n      swap2\n      swap1\n      pop\n      jump\t// out\n        /* \"#utility.yul\":3140:3314   */\n    tag_213:\n        /* \"#utility.yul\":3229:3240   */\n      0x00\n        /* \"#utility.yul\":3263:3269   */\n      dup3\n        /* \"#utility.yul\":3258:3261   */\n      dup3\n        /* \"#utility.yul\":3251:3270   */\n      mstore\n        /* \"#utility.yul\":3303:3307   */\n      0x20\n        /* \"#utility.yul\":3298:3301   */\n      dup3\n        /* \"#utility.yul\":3294:3308   */\n      add\n        /* \"#utility.yul\":3279:3308   */\n      swap1\n      pop\n        /* \"#utility.yul\":3140:3314   */\n      swap3\n      swap2\n      pop\n      pop\n      jump\t// out\n        /* \"#utility.yul\":3320:3452   */\n    tag_214:\n        /* \"#utility.yul\":3387:3391   */\n      0x00\n        /* \"#utility.yul\":3410:3413   */\n      dup2\n        /* \"#utility.yul\":3402:3413   */\n      swap1\n      pop\n        /* \"#utility.yul\":3440:3444   */\n      0x20\n        /* \"#utility.yul\":3435:3438   */\n      dup3\n        /* \"#utility.yul\":3431:3445   */\n      add\n        /* \"#utility.yul\":3423:3445   */\n      swap1\n      pop\n        /* \"#utility.yul\":3320:3452   */\n      swap2\n      swap1\n      pop\n      jump\t// out\n        /* \"#utility.yul\":3458:3566   */\n    tag_215:\n        /* \"#utility.yul\":3535:3559   */\n      tag_301\n        /* \"#utility.yul\":3553:3558   */\n      dup2\n        /* \"#utility.yul\":3535:3559   */\n      tag_204\n      jump\t// in\n    tag_301:\n        /* \"#utility.yul\":3530:3533   */\n      dup3\n        /* \"#utility.yul\":3523:3560   */\n      mstore\n        /* \"#utility.yul\":3458:3566   */\n      pop\n      pop\n      jump\t// out\n        /* \"#utility.yul\":3572:3751   */\n    tag_216:\n        /* \"#utility.yul\":3641:3651   */\n      0x00\n        /* \"#utility.yul\":3662:3708   */\n      tag_303\n        /* \"#utility.yul\":3704:3707   */\n      dup4\n        /* \"#utility.yul\":3696:3702   */\n      dup4\n        /* \"#utility.yul\":3662:3708   */\n      tag_215\n      jump\t// in\n    tag_303:\n        /* \"#utility.yul\":3740:3744   */\n      0x20\n        /* \"#utility.yul\":3735:3738   */\n      dup4\n        /* \"#utility.yul\":3731:3745   */\n      add\n        /* \"#utility.yul\":3717:3745   */\n      swap1\n      pop\n        /* \"#utility.yul\":3572:3751   */\n      swap3\n      swap2\n      pop\n      pop\n      jump\t// out\n        /* \"#utility.yul\":3757:3870   */\n    tag_217:\n        /* \"#utility.yul\":3827:3831   */\n      0x00\n        /* \"#utility.yul\":3859:3863   */\n      0x20\n        /* \"#utility.yul\":3854:3857   */\n      dup3\n        /* \"#utility.yul\":3850:3864   */\n      add\n        /* \"#utility.yul\":3842:3864   */\n      swap1\n      pop\n        /* \"#utility.yul\":3757:3870   */\n      swap2\n      swap1\n      pop\n      jump\t// out\n        /* \"#utility.yul\":3906:4618   */\n    tag_218:\n        /* \"#utility.yul\":4015:4018   */\n      0x00\n        /* \"#utility.yul\":4044:4098   */\n      tag_306\n        /* \"#utility.yul\":4092:4097   */\n      dup3\n        /* \"#utility.yul\":4044:4098   */\n      tag_212\n      jump\t// in\n    tag_306:\n        /* \"#utility.yul\":4114:4190   */\n      tag_307\n        /* \"#utility.yul\":4183:4189   */\n      dup2\n        /* \"#utility.yul\":4178:4181   */\n      dup6\n        /* \"#utility.yul\":4114:4190   */\n      tag_213\n      jump\t// in\n    tag_307:\n        /* \"#utility.yul\":4107:4190   */\n      swap4\n      pop\n        /* \"#utility.yul\":4214:4270   */\n      tag_308\n        /* \"#utility.yul\":4264:4269   */\n      dup4\n        /* \"#utility.yul\":4214:4270   */\n      tag_214\n      jump\t// in\n    tag_308:\n        /* \"#utility.yul\":4293:4300   */\n      dup1\n        /* \"#utility.yul\":4324:4325   */\n      0x00\n        /* \"#utility.yul\":4309:4593   */\n    tag_309:\n        /* \"#utility.yul\":4334:4340   */\n      dup4\n        /* \"#utility.yul\":4331:4332   */\n      dup2\n        /* \"#utility.yul\":4328:4341   */\n      lt\n        /* \"#utility.yul\":4309:4593   */\n      iszero\n      tag_311\n      jumpi\n        /* \"#utility.yul\":4410:4416   */\n      dup2\n        /* \"#utility.yul\":4404:4417   */\n      mload\n        /* \"#utility.yul\":4437:4500   */\n      tag_312\n        /* \"#utility.yul\":4496:4499   */\n      dup9\n        /* \"#utility.yul\":4481:4494   */\n      dup3\n        /* \"#utility.yul\":4437:4500   */\n      tag_216\n      jump\t// in\n    tag_312:\n        /* \"#utility.yul\":4430:4500   */\n      swap8\n      pop\n        /* \"#utility.yul\":4523:4583   */\n      tag_313\n        /* \"#utility.yul\":4576:4582   */\n      dup4\n        /* \"#utility.yul\":4523:4583   */\n      tag_217\n      jump\t// in\n    tag_313:\n        /* \"#utility.yul\":4513:4583   */\n      swap3\n      pop\n        /* \"#utility.yul\":4369:4593   */\n      pop\n        /* \"#utility.yul\":4356:4357   */\n      0x01\n        /* \"#utility.yul\":4353:4354   */\n      dup2\n        /* \"#utility.yul\":4349:4358   */\n      add\n        /* \"#utility.yul\":4344:4358   */\n      swap1\n      pop\n        /* \"#utility.yul\":4309:4593   */\n      jump(tag_309)\n    tag_311:\n        /* \"#utility.yul\":4313:4327   */\n      pop\n        /* \"#utility.yul\":4609:4612   */\n      dup6\n        /* \"#utility.yul\":4602:4612   */\n      swap4\n      pop\n        /* \"#utility.yul\":4020:4618   */\n      pop\n      pop\n      pop\n        /* \"#utility.yul\":3906:4618   */\n      swap3\n      swap2\n      pop\n      pop\n      jump\t// out\n        /* \"#utility.yul\":4624:4738   */\n    tag_219:\n        /* \"#utility.yul\":4691:4697   */\n      0x00\n        /* \"#utility.yul\":4725:4730   */\n      dup2\n        /* \"#utility.yul\":4719:4731   */\n      mload\n        /* \"#utility.yul\":4709:4731   */\n      swap1\n      pop\n        /* \"#utility.yul\":4624:4738   */\n      swap2\n      swap1\n      pop\n      jump\t// out\n        /* \"#utility.yul\":4744:4918   */\n    tag_220:\n        /* \"#utility.yul\":4833:4844   */\n      0x00\n        /* \"#utility.yul\":4867:4873   */\n      dup3\n        /* \"#utility.yul\":4862:4865   */\n      dup3\n        /* \"#utility.yul\":4855:4874   */\n      mstore\n        /* \"#utility.yul\":4907:4911   */\n      0x20\n        /* \"#utility.yul\":4902:4905   */\n      dup3\n        /* \"#utility.yul\":4898:4912   */\n      add\n        /* \"#utility.yul\":4883:4912   */\n      swap1\n      pop\n        /* \"#utility.yul\":4744:4918   */\n      swap3\n      swap2\n      pop\n      pop\n      jump\t// out\n        /* \"#utility.yul\":4924:5056   */\n    tag_221:\n        /* \"#utility.yul\":4991:4995   */\n      0x00\n        /* \"#utility.yul\":5014:5017   */\n      dup2\n        /* \"#utility.yul\":5006:5017   */\n      swap1\n      pop\n        /* \"#utility.yul\":5044:5048   */\n      0x20\n        /* \"#utility.yul\":5039:5042   */\n      dup3\n        /* \"#utility.yul\":5035:5049   */\n      add\n        /* \"#utility.yul\":5027:5049   */\n      swap1\n      pop\n        /* \"#utility.yul\":4924:5056   */\n      swap2\n      swap1\n      pop\n      jump\t// out\n        /* \"#utility.yul\":5062:5170   */\n    tag_222:\n        /* \"#utility.yul\":5139:5163   */\n      tag_318\n        /* \"#utility.yul\":5157:5162   */\n      dup2\n        /* \"#utility.yul\":5139:5163   */\n      tag_207\n      jump\t// in\n    tag_318:\n        /* \"#utility.yul\":5134:5137   */\n      dup3\n        /* \"#utility.yul\":5127:5164   */\n      mstore\n        /* \"#utility.yul\":5062:5170   */\n      pop\n      pop\n      jump\t// out\n        /* \"#utility.yul\":5176:5355   */\n    tag_223:\n        /* \"#utility.yul\":5245:5255   */\n      0x00\n        /* \"#utility.yul\":5266:5312   */\n      tag_320\n        /* \"#utility.yul\":5308:5311   */\n      dup4\n        /* \"#utility.yul\":5300:5306   */\n      dup4\n        /* \"#utility.yul\":5266:5312   */\n      tag_222\n      jump\t// in\n    tag_320:\n        /* \"#utility.yul\":5344:5348   */\n      0x20\n        /* \"#utility.yul\":5339:5342   */\n      dup4\n        /* \"#utility.yul\":5335:5349   */\n      add\n        /* \"#utility.yul\":5321:5349   */\n      swap1\n      pop\n        /* \"#utility.yul\":5176:5355   */\n      swap3\n      swap2\n      pop\n      pop\n      jump\t// out\n        /* \"#utility.yul\":5361:5474   */\n    tag_224:\n        /* \"#utility.yul\":5431:5435   */\n      0x00\n        /* \"#utility.yul\":5463:5467   */\n      0x20\n        /* \"#utility.yul\":5458:5461   */\n      dup3\n        /* \"#utility.yul\":5454:5468   */\n      add\n        /* \"#utility.yul\":5446:5468   */\n      swap1\n      pop\n        /* \"#utility.yul\":5361:5474   */\n      swap2\n      swap1\n      pop\n      jump\t// out\n        /* \"#utility.yul\":5510:6222   */\n    tag_225:\n        /* \"#utility.yul\":5619:5622   */\n      0x00\n        /* \"#utility.yul\":5648:5702   */\n      tag_323\n        /* \"#utility.yul\":5696:5701   */\n      dup3\n        /* \"#utility.yul\":5648:5702   */\n      tag_219\n      jump\t// in\n    tag_323:\n        /* \"#utility.yul\":5718:5794   */\n      tag_324\n        /* \"#utility.yul\":5787:5793   */\n      dup2\n        /* \"#utility.yul\":5782:5785   */\n      dup6\n        /* \"#utility.yul\":5718:5794   */\n      tag_220\n      jump\t// in\n    tag_324:\n        /* \"#utility.yul\":5711:5794   */\n      swap4\n      pop\n        /* \"#utility.yul\":5818:5874   */\n      tag_325\n        /* \"#utility.yul\":5868:5873   */\n      dup4\n        /* \"#utility.yul\":5818:5874   */\n      tag_221\n      jump\t// in\n    tag_325:\n        /* \"#utility.yul\":5897:5904   */\n      dup1\n        /* \"#utility.yul\":5928:5929   */\n      0x00\n        /* \"#utility.yul\":5913:6197   */\n    tag_326:\n        /* \"#utility.yul\":5938:5944   */\n      dup4\n        /* \"#utility.yul\":5935:5936   */\n      dup2\n        /* \"#utility.yul\":5932:5945   */\n      lt\n        /* \"#utility.yul\":5913:6197   */\n      iszero\n      tag_328\n      jumpi\n        /* \"#utility.yul\":6014:6020   */\n      dup2\n        /* \"#utility.yul\":6008:6021   */\n      mload\n        /* \"#utility.yul\":6041:6104   */\n      tag_329\n        /* \"#utility.yul\":6100:6103   */\n      dup9\n        /* \"#utility.yul\":6085:6098   */\n      dup3\n        /* \"#utility.yul\":6041:6104   */\n      tag_223\n      jump\t// in\n    tag_329:\n        /* \"#utility.yul\":6034:6104   */\n      swap8\n      pop\n        /* \"#utility.yul\":6127:6187   */\n      tag_330\n        /* \"#utility.yul\":6180:6186   */\n      dup4\n        /* \"#utility.yul\":6127:6187   */\n      tag_224\n      jump\t// in\n    tag_330:\n        /* \"#utility.yul\":6117:6187   */\n      swap3\n      pop\n        /* \"#utility.yul\":5973:6197   */\n      pop\n        /* \"#utility.yul\":5960:5961   */\n      0x01\n        /* \"#utility.yul\":5957:5958   */\n      dup2\n        /* \"#utility.yul\":5953:5962   */\n      add\n        /* \"#utility.yul\":5948:5962   */\n      swap1\n      pop\n        /* \"#utility.yul\":5913:6197   */\n      jump(tag_326)\n    tag_328:\n        /* \"#utility.yul\":5917:5931   */\n      pop\n        /* \"#utility.yul\":6213:6216   */\n      dup6\n        /* \"#utility.yul\":6206:6216   */\n      swap4\n      pop\n        /* \"#utility.yul\":5624:6222   */\n      pop\n      pop\n      pop\n        /* \"#utility.yul\":5510:6222   */\n      swap3\n      swap2\n      pop\n      pop\n      jump\t// out\n        /* \"#utility.yul\":6292:7206   */\n    tag_226:\n        /* \"#utility.yul\":6413:6416   */\n      0x00\n        /* \"#utility.yul\":6449:6453   */\n      0x60\n        /* \"#utility.yul\":6444:6447   */\n      dup4\n        /* \"#utility.yul\":6440:6454   */\n      add\n        /* \"#utility.yul\":6537:6541   */\n      0x00\n        /* \"#utility.yul\":6530:6535   */\n      dup4\n        /* \"#utility.yul\":6526:6542   */\n      add\n        /* \"#utility.yul\":6520:6543   */\n      mload\n        /* \"#utility.yul\":6556:6613   */\n      tag_332\n        /* \"#utility.yul\":6607:6611   */\n      0x00\n        /* \"#utility.yul\":6602:6605   */\n      dup7\n        /* \"#utility.yul\":6598:6612   */\n      add\n        /* \"#utility.yul\":6584:6596   */\n      dup3\n        /* \"#utility.yul\":6556:6613   */\n      tag_211\n      jump\t// in\n    tag_332:\n        /* \"#utility.yul\":6464:6623   */\n      pop\n        /* \"#utility.yul\":6707:6711   */\n      0x20\n        /* \"#utility.yul\":6700:6705   */\n      dup4\n        /* \"#utility.yul\":6696:6712   */\n      add\n        /* \"#utility.yul\":6690:6713   */\n      mload\n        /* \"#utility.yul\":6760:6763   */\n      dup5\n        /* \"#utility.yul\":6754:6758   */\n      dup3\n        /* \"#utility.yul\":6750:6764   */\n      sub\n        /* \"#utility.yul\":6743:6747   */\n      0x20\n        /* \"#utility.yul\":6738:6741   */\n      dup7\n        /* \"#utility.yul\":6734:6748   */\n      add\n        /* \"#utility.yul\":6727:6765   */\n      mstore\n        /* \"#utility.yul\":6786:6889   */\n      tag_333\n        /* \"#utility.yul\":6884:6888   */\n      dup3\n        /* \"#utility.yul\":6870:6882   */\n      dup3\n        /* \"#utility.yul\":6786:6889   */\n      tag_218\n      jump\t// in\n    tag_333:\n        /* \"#utility.yul\":6778:6889   */\n      swap2\n      pop\n        /* \"#utility.yul\":6633:6900   */\n      pop\n        /* \"#utility.yul\":6986:6990   */\n      0x40\n        /* \"#utility.yul\":6979:6984   */\n      dup4\n        /* \"#utility.yul\":6975:6991   */\n      add\n        /* \"#utility.yul\":6969:6992   */\n      mload\n        /* \"#utility.yul\":7039:7042   */\n      dup5\n        /* \"#utility.yul\":7033:7037   */\n      dup3\n        /* \"#utility.yul\":7029:7043   */\n      sub\n        /* \"#utility.yul\":7022:7026   */\n      0x40\n        /* \"#utility.yul\":7017:7020   */\n      dup7\n        /* \"#utility.yul\":7013:7027   */\n      add\n        /* \"#utility.yul\":7006:7044   */\n      mstore\n        /* \"#utility.yul\":7065:7168   */\n      tag_334\n        /* \"#utility.yul\":7163:7167   */\n      dup3\n        /* \"#utility.yul\":7149:7161   */\n      dup3\n        /* \"#utility.yul\":7065:7168   */\n      tag_225\n      jump\t// in\n    tag_334:\n        /* \"#utility.yul\":7057:7168   */\n      swap2\n      pop\n        /* \"#utility.yul\":6910:7179   */\n      pop\n        /* \"#utility.yul\":7196:7200   */\n      dup1\n        /* \"#utility.yul\":7189:7200   */\n      swap2\n      pop\n        /* \"#utility.yul\":6418:7206   */\n      pop\n        /* \"#utility.yul\":6292:7206   */\n      swap3\n      swap2\n      pop\n      pop\n      jump\t// out\n        /* \"#utility.yul\":7212:7589   */\n    tag_26:\n        /* \"#utility.yul\":7357:7361   */\n      0x00\n        /* \"#utility.yul\":7395:7397   */\n      0x20\n        /* \"#utility.yul\":7384:7393   */\n      dup3\n        /* \"#utility.yul\":7380:7398   */\n      add\n        /* \"#utility.yul\":7372:7398   */\n      swap1\n      pop\n        /* \"#utility.yul\":7444:7453   */\n      dup2\n        /* \"#utility.yul\":7438:7442   */\n      dup2\n        /* \"#utility.yul\":7434:7454   */\n      sub\n        /* \"#utility.yul\":7430:7431   */\n      0x00\n        /* \"#utility.yul\":7419:7428   */\n      dup4\n        /* \"#utility.yul\":7415:7432   */\n      add\n        /* \"#utility.yul\":7408:7455   */\n      mstore\n        /* \"#utility.yul\":7472:7582   */\n      tag_336\n        /* \"#utility.yul\":7577:7581   */\n      dup2\n        /* \"#utility.yul\":7568:7574   */\n      dup5\n        /* \"#utility.yul\":7472:7582   */\n      tag_226\n      jump\t// in\n    tag_336:\n        /* \"#utility.yul\":7464:7582   */\n      swap1\n      pop\n        /* \"#utility.yul\":7212:7589   */\n      swap3\n      swap2\n      pop\n      pop\n      jump\t// out\n        /* \"#utility.yul\":7595:7779   */\n    tag_227:\n        /* \"#utility.yul\":7694:7705   */\n      0x00\n        /* \"#utility.yul\":7728:7734   */\n      dup3\n        /* \"#utility.yul\":7723:7726   */\n      dup3\n        /* \"#utility.yul\":7716:7735   */\n      mstore\n        /* \"#utility.yul\":7768:7772   */\n      0x20\n        /* \"#utility.yul\":7763:7766   */\n      dup3\n        /* \"#utility.yul\":7759:7773   */\n      add\n        /* \"#utility.yul\":7744:7773   */\n      swap1\n      pop\n        /* \"#utility.yul\":7595:7779   */\n      swap3\n      swap2\n      pop\n      pop\n      jump\t// out\n        /* \"#utility.yul\":7815:8547   */\n    tag_228:\n        /* \"#utility.yul\":7934:7937   */\n      0x00\n        /* \"#utility.yul\":7963:8017   */\n      tag_339\n        /* \"#utility.yul\":8011:8016   */\n      dup3\n        /* \"#utility.yul\":7963:8017   */\n      tag_212\n      jump\t// in\n    tag_339:\n        /* \"#utility.yul\":8033:8119   */\n      tag_340\n        /* \"#utility.yul\":8112:8118   */\n      dup2\n        /* \"#utility.yul\":8107:8110   */\n      dup6\n        /* \"#utility.yul\":8033:8119   */\n      tag_227\n      jump\t// in\n    tag_340:\n        /* \"#utility.yul\":8026:8119   */\n      swap4\n      pop\n        /* \"#utility.yul\":8143:8199   */\n      tag_341\n        /* \"#utility.yul\":8193:8198   */\n      dup4\n        /* \"#utility.yul\":8143:8199   */\n      tag_214\n      jump\t// in\n    tag_341:\n        /* \"#utility.yul\":8222:8229   */\n      dup1\n        /* \"#utility.yul\":8253:8254   */\n      0x00\n        /* \"#utility.yul\":8238:8522   */\n    tag_342:\n        /* \"#utility.yul\":8263:8269   */\n      dup4\n        /* \"#utility.yul\":8260:8261   */\n      dup2\n        /* \"#utility.yul\":8257:8270   */\n      lt\n        /* \"#utility.yul\":8238:8522   */\n      iszero\n      tag_344\n      jumpi\n        /* \"#utility.yul\":8339:8345   */\n      dup2\n        /* \"#utility.yul\":8333:8346   */\n      mload\n        /* \"#utility.yul\":8366:8429   */\n      tag_345\n        /* \"#utility.yul\":8425:8428   */\n      dup9\n        /* \"#utility.yul\":8410:8423   */\n      dup3\n        /* \"#utility.yul\":8366:8429   */\n      tag_216\n      jump\t// in\n    tag_345:\n        /* \"#utility.yul\":8359:8429   */\n      swap8\n      pop\n        /* \"#utility.yul\":8452:8512   */\n      tag_346\n        /* \"#utility.yul\":8505:8511   */\n      dup4\n        /* \"#utility.yul\":8452:8512   */\n      tag_217\n      jump\t// in\n    tag_346:\n        /* \"#utility.yul\":8442:8512   */\n      swap3\n      pop\n        /* \"#utility.yul\":8298:8522   */\n      pop\n        /* \"#utility.yul\":8285:8286   */\n      0x01\n        /* \"#utility.yul\":8282:8283   */\n      dup2\n        /* \"#utility.yul\":8278:8287   */\n      add\n        /* \"#utility.yul\":8273:8287   */\n      swap1\n      pop\n        /* \"#utility.yul\":8238:8522   */\n      jump(tag_342)\n    tag_344:\n        /* \"#utility.yul\":8242:8256   */\n      pop\n        /* \"#utility.yul\":8538:8541   */\n      dup6\n        /* \"#utility.yul\":8531:8541   */\n      swap4\n      pop\n        /* \"#utility.yul\":7939:8547   */\n      pop\n      pop\n      pop\n        /* \"#utility.yul\":7815:8547   */\n      swap3\n      swap2\n      pop\n      pop\n      jump\t// out\n        /* \"#utility.yul\":8553:8926   */\n    tag_35:\n        /* \"#utility.yul\":8696:8700   */\n      0x00\n        /* \"#utility.yul\":8734:8736   */\n      0x20\n        /* \"#utility.yul\":8723:8732   */\n      dup3\n        /* \"#utility.yul\":8719:8737   */\n      add\n        /* \"#utility.yul\":8711:8737   */\n      swap1\n      pop\n        /* \"#utility.yul\":8783:8792   */\n      dup2\n        /* \"#utility.yul\":8777:8781   */\n      dup2\n        /* \"#utility.yul\":8773:8793   */\n      sub\n        /* \"#utility.yul\":8769:8770   */\n      0x00\n        /* \"#utility.yul\":8758:8767   */\n      dup4\n        /* \"#utility.yul\":8754:8771   */\n      add\n        /* \"#utility.yul\":8747:8794   */\n      mstore\n        /* \"#utility.yul\":8811:8919   */\n      tag_348\n        /* \"#utility.yul\":8914:8918   */\n      dup2\n        /* \"#utility.yul\":8905:8911   */\n      dup5\n        /* \"#utility.yul\":8811:8919   */\n      tag_228\n      jump\t// in\n    tag_348:\n        /* \"#utility.yul\":8803:8919   */\n      swap1\n      pop\n        /* \"#utility.yul\":8553:8926   */\n      swap3\n      swap2\n      pop\n      pop\n      jump\t// out\n        /* \"#utility.yul\":8932:9261   */\n    tag_43:\n        /* \"#utility.yul\":8991:8997   */\n      0x00\n        /* \"#utility.yul\":9040:9042   */\n      0x20\n        /* \"#utility.yul\":9028:9037   */\n      dup3\n        /* \"#utility.yul\":9019:9026   */\n      dup5\n        /* \"#utility.yul\":9015:9038   */\n      sub\n        /* \"#utility.yul\":9011:9043   */\n      slt\n        /* \"#utility.yul\":9008:9127   */\n      iszero\n      tag_350\n      jumpi\n        /* \"#utility.yul\":9046:9125   */\n      tag_351\n      tag_201\n      jump\t// in\n    tag_351:\n        /* \"#utility.yul\":9008:9127   */\n    tag_350:\n        /* \"#utility.yul\":9166:9167   */\n      0x00\n        /* \"#utility.yul\":9191:9244   */\n      tag_352\n        /* \"#utility.yul\":9236:9243   */\n      dup5\n        /* \"#utility.yul\":9227:9233   */\n      dup3\n        /* \"#utility.yul\":9216:9225   */\n      dup6\n        /* \"#utility.yul\":9212:9234   */\n      add\n        /* \"#utility.yul\":9191:9244   */\n      tag_209\n      jump\t// in\n    tag_352:\n        /* \"#utility.yul\":9181:9244   */\n      swap2\n      pop\n        /* \"#utility.yul\":9137:9254   */\n      pop\n        /* \"#utility.yul\":8932:9261   */\n      swap3\n      swap2\n      pop\n      pop\n      jump\t// out\n        /* \"#utility.yul\":9267:9438   */\n    tag_229:\n        /* \"#utility.yul\":9407:9430   */\n      0x5661756c7420616c726561647920637265617465640000000000000000000000\n        /* \"#utility.yul\":9403:9404   */\n      0x00\n        /* \"#utility.yul\":9395:9401   */\n      dup3\n        /* \"#utility.yul\":9391:9405   */\n      add\n        /* \"#utility.yul\":9384:9431   */\n      mstore\n        /* \"#utility.yul\":9267:9438   */\n      pop\n      jump\t// out\n        /* \"#utility.yul\":9444:9810   */\n    tag_230:\n        /* \"#utility.yul\":9586:9589   */\n      0x00\n        /* \"#utility.yul\":9607:9674   */\n      tag_355\n        /* \"#utility.yul\":9671:9673   */\n      0x15\n        /* \"#utility.yul\":9666:9669   */\n      dup4\n        /* \"#utility.yul\":9607:9674   */\n      tag_197\n      jump\t// in\n    tag_355:\n        /* \"#utility.yul\":9600:9674   */\n      swap2\n      pop\n        /* \"#utility.yul\":9683:9776   */\n      tag_356\n        /* \"#utility.yul\":9772:9775   */\n      dup3\n        /* \"#utility.yul\":9683:9776   */\n      tag_229\n      jump\t// in\n    tag_356:\n        /* \"#utility.yul\":9801:9803   */\n      0x20\n        /* \"#utility.yul\":9796:9799   */\n      dup3\n        /* \"#utility.yul\":9792:9804   */\n      add\n        /* \"#utility.yul\":9785:9804   */\n      swap1\n      pop\n        /* \"#utility.yul\":9444:9810   */\n      swap2\n      swap1\n      pop\n      jump\t// out\n        /* \"#utility.yul\":9816:10235   */\n    tag_50:\n        /* \"#utility.yul\":9982:9986   */\n      0x00\n        /* \"#utility.yul\":10020:10022   */\n      0x20\n        /* \"#utility.yul\":10009:10018   */\n      dup3\n        /* \"#utility.yul\":10005:10023   */\n      add\n        /* \"#utility.yul\":9997:10023   */\n      swap1\n      pop\n        /* \"#utility.yul\":10069:10078   */\n      dup2\n        /* \"#utility.yul\":10063:10067   */\n      dup2\n        /* \"#utility.yul\":10059:10079   */\n      sub\n        /* \"#utility.yul\":10055:10056   */\n      0x00\n        /* \"#utility.yul\":10044:10053   */\n      dup4\n        /* \"#utility.yul\":10040:10057   */\n      add\n        /* \"#utility.yul\":10033:10080   */\n      mstore\n        /* \"#utility.yul\":10097:10228   */\n      tag_358\n        /* \"#utility.yul\":10223:10227   */\n      dup2\n        /* \"#utility.yul\":10097:10228   */\n      tag_230\n      jump\t// in\n    tag_358:\n        /* \"#utility.yul\":10089:10228   */\n      swap1\n      pop\n        /* \"#utility.yul\":9816:10235   */\n      swap2\n      swap1\n      pop\n      jump\t// out\n        /* \"#utility.yul\":10241:10413   */\n    tag_231:\n        /* \"#utility.yul\":10381:10405   */\n      0x457861637420302e312045544820726571756972656400000000000000000000\n        /* \"#utility.yul\":10377:10378   */\n      0x00\n        /* \"#utility.yul\":10369:10375   */\n      dup3\n        /* \"#utility.yul\":10365:10379   */\n      add\n        /* \"#utility.yul\":10358:10406   */\n      mstore\n        /* \"#utility.yul\":10241:10413   */\n      pop\n      jump\t// out\n        /* \"#utility.yul\":10419:10785   */\n    tag_232:\n        /* \"#utility.yul\":10561:10564   */\n      0x00\n        /* \"#utility.yul\":10582:10649   */\n      tag_361\n        /* \"#utility.yul\":10646:10648   */\n      0x16\n        /* \"#utility.yul\":10641:10644   */\n      dup4\n        /* \"#utility.yul\":10582:10649   */\n      tag_197\n      jump\t// in\n    tag_361:\n        /* \"#utility.yul\":10575:10649   */\n      swap2\n      pop\n        /* \"#utility.yul\":10658:10751   */\n      tag_362\n        /* \"#utility.yul\":10747:10750   */\n      dup3\n        /* \"#utility.yul\":10658:10751   */\n      tag_231\n      jump\t// in\n    tag_362:\n        /* \"#utility.yul\":10776:10778   */\n      0x20\n        /* \"#utility.yul\":10771:10774   */\n      dup3\n        /* \"#utility.yul\":10767:10779   */\n      add\n        /* \"#utility.yul\":10760:10779   */\n      swap1\n      pop\n        /* \"#utility.yul\":10419:10785   */\n      swap2\n      swap1\n      pop\n      jump\t// out\n        /* \"#utility.yul\":10791:11210   */\n    tag_53:\n        /* \"#utility.yul\":10957:10961   */\n      0x00\n        /* \"#utility.yul\":10995:10997   */\n      0x20\n        /* \"#utility.yul\":10984:10993   */\n      dup3\n        /* \"#utility.yul\":10980:10998   */\n      add\n        /* \"#utility.yul\":10972:10998   */\n      swap1\n      pop\n        /* \"#utility.yul\":11044:11053   */\n      dup2\n        /* \"#utility.yul\":11038:11042   */\n      dup2\n        /* \"#utility.yul\":11034:11054   */\n      sub\n        /* \"#utility.yul\":11030:11031   */\n      0x00\n        /* \"#utility.yul\":11019:11028   */\n      dup4\n        /* \"#utility.yul\":11015:11032   */\n      add\n        /* \"#utility.yul\":11008:11055   */\n      mstore\n        /* \"#utility.yul\":11072:11203   */\n      tag_364\n        /* \"#utility.yul\":11198:11202   */\n      dup2\n        /* \"#utility.yul\":11072:11203   */\n      tag_232\n      jump\t// in\n    tag_364:\n        /* \"#utility.yul\":11064:11203   */\n      swap1\n      pop\n        /* \"#utility.yul\":10791:11210   */\n      swap2\n      swap1\n      pop\n      jump\t// out\n        /* \"#utility.yul\":11216:11384   */\n    tag_233:\n        /* \"#utility.yul\":11356:11376   */\n      0x437265617465207661756c742066697273740000000000000000000000000000\n        /* \"#utility.yul\":11352:11353   */\n      0x00\n        /* \"#utility.yul\":11344:11350   */\n      dup3\n        /* \"#utility.yul\":11340:11354   */\n      add\n        /* \"#utility.yul\":11333:11377   */\n      mstore\n        /* \"#utility.yul\":11216:11384   */\n      pop\n      jump\t// out\n        /* \"#utility.yul\":11390:11756   */\n    tag_234:\n        /* \"#utility.yul\":11532:11535   */\n      0x00\n        /* \"#utility.yul\":11553:11620   */\n      tag_367\n        /* \"#utility.yul\":11617:11619   */\n      0x12\n        /* \"#utility.yul\":11612:11615   */\n      dup4\n        /* \"#utility.yul\":11553:11620   */\n      tag_197\n      jump\t// in\n    tag_367:\n        /* \"#utility.yul\":11546:11620   */\n      swap2\n      pop\n        /* \"#utility.yul\":11629:11722   */\n      tag_368\n        /* \"#utility.yul\":11718:11721   */\n      dup3\n        /* \"#utility.yul\":11629:11722   */\n      tag_233\n      jump\t// in\n    tag_368:\n        /* \"#utility.yul\":11747:11749   */\n      0x20\n        /* \"#utility.yul\":11742:11745   */\n      dup3\n        /* \"#utility.yul\":11738:11750   */\n      add\n        /* \"#utility.yul\":11731:11750   */\n      swap1\n      pop\n        /* \"#utility.yul\":11390:11756   */\n      swap2\n      swap1\n      pop\n      jump\t// out\n        /* \"#utility.yul\":11762:12181   */\n    tag_60:\n        /* \"#utility.yul\":11928:11932   */\n      0x00\n        /* \"#utility.yul\":11966:11968   */\n      0x20\n        /* \"#utility.yul\":11955:11964   */\n      dup3\n        /* \"#utility.yul\":11951:11969   */\n      add\n        /* \"#utility.yul\":11943:11969   */\n      swap1\n      pop\n        /* \"#utility.yul\":12015:12024   */\n      dup2\n        /* \"#utility.yul\":12009:12013   */\n      dup2\n        /* \"#utility.yul\":12005:12025   */\n      sub\n        /* \"#utility.yul\":12001:12002   */\n      0x00\n        /* \"#utility.yul\":11990:11999   */\n      dup4\n        /* \"#utility.yul\":11986:12003   */\n      add\n        /* \"#utility.yul\":11979:12026   */\n      mstore\n        /* \"#utility.yul\":12043:12174   */\n      tag_370\n        /* \"#utility.yul\":12169:12173   */\n      dup2\n        /* \"#utility.yul\":12043:12174   */\n      tag_234\n      jump\t// in\n    tag_370:\n        /* \"#utility.yul\":12035:12174   */\n      swap1\n      pop\n        /* \"#utility.yul\":11762:12181   */\n      swap2\n      swap1\n      pop\n      jump\t// out\n        /* \"#utility.yul\":12187:12350   */\n    tag_235:\n        /* \"#utility.yul\":12327:12342   */\n      0x496e76616c696420746f6b656e00000000000000000000000000000000000000\n        /* \"#utility.yul\":12323:12324   */\n      0x00\n        /* \"#utility.yul\":12315:12321   */\n      dup3\n        /* \"#utility.yul\":12311:12325   */\n      add\n        /* \"#utility.yul\":12304:12343   */\n      mstore\n        /* \"#utility.yul\":12187:12350   */\n      pop\n      jump\t// out\n        /* \"#utility.yul\":12356:12722   */\n    tag_236:\n        /* \"#utility.yul\":12498:12501   */\n      0x00\n        /* \"#utility.yul\":12519:12586   */\n      tag_373\n        /* \"#utility.yul\":12583:12585   */\n      0x0d\n        /* \"#utility.yul\":12578:12581   */\n      dup4\n        /* \"#utility.yul\":12519:12586   */\n      tag_197\n      jump\t// in\n    tag_373:\n        /* \"#utility.yul\":12512:12586   */\n      swap2\n      pop\n        /* \"#utility.yul\":12595:12688   */\n      tag_374\n        /* \"#utility.yul\":12684:12687   */\n      dup3\n        /* \"#utility.yul\":12595:12688   */\n      tag_235\n      jump\t// in\n    tag_374:\n        /* \"#utility.yul\":12713:12715   */\n      0x20\n        /* \"#utility.yul\":12708:12711   */\n      dup3\n        /* \"#utility.yul\":12704:12716   */\n      add\n        /* \"#utility.yul\":12697:12716   */\n      swap1\n      pop\n        /* \"#utility.yul\":12356:12722   */\n      swap2\n      swap1\n      pop\n      jump\t// out\n        /* \"#utility.yul\":12728:13147   */\n    tag_63:\n        /* \"#utility.yul\":12894:12898   */\n      0x00\n        /* \"#utility.yul\":12932:12934   */\n      0x20\n        /* \"#utility.yul\":12921:12930   */\n      dup3\n        /* \"#utility.yul\":12917:12935   */\n      add\n        /* \"#utility.yul\":12909:12935   */\n      swap1\n      pop\n        /* \"#utility.yul\":12981:12990   */\n      dup2\n        /* \"#utility.yul\":12975:12979   */\n      dup2\n        /* \"#utility.yul\":12971:12991   */\n      sub\n        /* \"#utility.yul\":12967:12968   */\n      0x00\n        /* \"#utility.yul\":12956:12965   */\n      dup4\n        /* \"#utility.yul\":12952:12969   */\n      add\n        /* \"#utility.yul\":12945:12992   */\n      mstore\n        /* \"#utility.yul\":13009:13140   */\n      tag_376\n        /* \"#utility.yul\":13135:13139   */\n      dup2\n        /* \"#utility.yul\":13009:13140   */\n      tag_236\n      jump\t// in\n    tag_376:\n        /* \"#utility.yul\":13001:13140   */\n      swap1\n      pop\n        /* \"#utility.yul\":12728:13147   */\n      swap2\n      swap1\n      pop\n      jump\t// out\n        /* \"#utility.yul\":13153:13321   */\n    tag_237:\n        /* \"#utility.yul\":13293:13313   */\n      0x416d6f756e74206d757374206265203e20300000000000000000000000000000\n        /* \"#utility.yul\":13289:13290   */\n      0x00\n        /* \"#utility.yul\":13281:13287   */\n      dup3\n        /* \"#utility.yul\":13277:13291   */\n      add\n        /* \"#utility.yul\":13270:13314   */\n      mstore\n        /* \"#utility.yul\":13153:13321   */\n      pop\n      jump\t// out\n        /* \"#utility.yul\":13327:13693   */\n    tag_238:\n        /* \"#utility.yul\":13469:13472   */\n      0x00\n        /* \"#utility.yul\":13490:13557   */\n      tag_379\n        /* \"#utility.yul\":13554:13556   */\n      0x12\n        /* \"#utility.yul\":13549:13552   */\n      dup4\n        /* \"#utility.yul\":13490:13557   */\n      tag_197\n      jump\t// in\n    tag_379:\n        /* \"#utility.yul\":13483:13557   */\n      swap2\n      pop\n        /* \"#utility.yul\":13566:13659   */\n      tag_380\n        /* \"#utility.yul\":13655:13658   */\n      dup3\n        /* \"#utility.yul\":13566:13659   */\n      tag_237\n      jump\t// in\n    tag_380:\n        /* \"#utility.yul\":13684:13686   */\n      0x20\n        /* \"#utility.yul\":13679:13682   */\n      dup3\n        /* \"#utility.yul\":13675:13687   */\n      add\n        /* \"#utility.yul\":13668:13687   */\n      swap1\n      pop\n        /* \"#utility.yul\":13327:13693   */\n      swap2\n      swap1\n      pop\n      jump\t// out\n        /* \"#utility.yul\":13699:14118   */\n    tag_66:\n        /* \"#utility.yul\":13865:13869   */\n      0x00\n        /* \"#utility.yul\":13903:13905   */\n      0x20\n        /* \"#utility.yul\":13892:13901   */\n      dup3\n        /* \"#utility.yul\":13888:13906   */\n      add\n        /* \"#utility.yul\":13880:13906   */\n      swap1\n      pop\n        /* \"#utility.yul\":13952:13961   */\n      dup2\n        /* \"#utility.yul\":13946:13950   */\n      dup2\n        /* \"#utility.yul\":13942:13962   */\n      sub\n        /* \"#utility.yul\":13938:13939   */\n      0x00\n        /* \"#utility.yul\":13927:13936   */\n      dup4\n        /* \"#utility.yul\":13923:13940   */\n      add\n        /* \"#utility.yul\":13916:13963   */\n      mstore\n        /* \"#utility.yul\":13980:14111   */\n      tag_382\n        /* \"#utility.yul\":14106:14110   */\n      dup2\n        /* \"#utility.yul\":13980:14111   */\n      tag_238\n      jump\t// in\n    tag_382:\n        /* \"#utility.yul\":13972:14111   */\n      swap1\n      pop\n        /* \"#utility.yul\":13699:14118   */\n      swap2\n      swap1\n      pop\n      jump\t// out\n        /* \"#utility.yul\":14124:14242   */\n    tag_239:\n        /* \"#utility.yul\":14211:14235   */\n      tag_384\n        /* \"#utility.yul\":14229:14234   */\n      dup2\n        /* \"#utility.yul\":14211:14235   */\n      tag_204\n      jump\t// in\n    tag_384:\n        /* \"#utility.yul\":14206:14209   */\n      dup3\n        /* \"#utility.yul\":14199:14236   */\n      mstore\n        /* \"#utility.yul\":14124:14242   */\n      pop\n      pop\n      jump\t// out\n        /* \"#utility.yul\":14248:14366   */\n    tag_240:\n        /* \"#utility.yul\":14335:14359   */\n      tag_386\n        /* \"#utility.yul\":14353:14358   */\n      dup2\n        /* \"#utility.yul\":14335:14359   */\n      tag_207\n      jump\t// in\n    tag_386:\n        /* \"#utility.yul\":14330:14333   */\n      dup3\n        /* \"#utility.yul\":14323:14360   */\n      mstore\n        /* \"#utility.yul\":14248:14366   */\n      pop\n      pop\n      jump\t// out\n        /* \"#utility.yul\":14372:14814   */\n    tag_70:\n        /* \"#utility.yul\":14521:14525   */\n      0x00\n        /* \"#utility.yul\":14559:14561   */\n      0x60\n        /* \"#utility.yul\":14548:14557   */\n      dup3\n        /* \"#utility.yul\":14544:14562   */\n      add\n        /* \"#utility.yul\":14536:14562   */\n      swap1\n      pop\n        /* \"#utility.yul\":14572:14643   */\n      tag_388\n        /* \"#utility.yul\":14640:14641   */\n      0x00\n        /* \"#utility.yul\":14629:14638   */\n      dup4\n        /* \"#utility.yul\":14625:14642   */\n      add\n        /* \"#utility.yul\":14616:14622   */\n      dup7\n        /* \"#utility.yul\":14572:14643   */\n      tag_239\n      jump\t// in\n    tag_388:\n        /* \"#utility.yul\":14653:14725   */\n      tag_389\n        /* \"#utility.yul\":14721:14723   */\n      0x20\n        /* \"#utility.yul\":14710:14719   */\n      dup4\n        /* \"#utility.yul\":14706:14724   */\n      add\n        /* \"#utility.yul\":14697:14703   */\n      dup6\n        /* \"#utility.yul\":14653:14725   */\n      tag_239\n      jump\t// in\n    tag_389:\n        /* \"#utility.yul\":14735:14807   */\n      tag_390\n        /* \"#utility.yul\":14803:14805   */\n      0x40\n        /* \"#utility.yul\":14792:14801   */\n      dup4\n        /* \"#utility.yul\":14788:14806   */\n      add\n        /* \"#utility.yul\":14779:14785   */\n      dup5\n        /* \"#utility.yul\":14735:14807   */\n      tag_240\n      jump\t// in\n    tag_390:\n        /* \"#utility.yul\":14372:14814   */\n      swap5\n      swap4\n      pop\n      pop\n      pop\n      pop\n      jump\t// out\n        /* \"#utility.yul\":14820:14936   */\n    tag_241:\n        /* \"#utility.yul\":14890:14911   */\n      tag_392\n        /* \"#utility.yul\":14905:14910   */\n      dup2\n        /* \"#utility.yul\":14890:14911   */\n      tag_210\n      jump\t// in\n    tag_392:\n        /* \"#utility.yul\":14883:14888   */\n      dup2\n        /* \"#utility.yul\":14880:14912   */\n      eq\n        /* \"#utility.yul\":14870:14930   */\n      tag_393\n      jumpi\n        /* \"#utility.yul\":14926:14927   */\n      0x00\n        /* \"#utility.yul\":14923:14924   */\n      0x00\n        /* \"#utility.yul\":14916:14928   */\n      revert\n        /* \"#utility.yul\":14870:14930   */\n    tag_393:\n        /* \"#utility.yul\":14820:14936   */\n      pop\n      jump\t// out\n        /* \"#utility.yul\":14942:15079   */\n    tag_242:\n        /* \"#utility.yul\":14996:15001   */\n      0x00\n        /* \"#utility.yul\":15027:15033   */\n      dup2\n        /* \"#utility.yul\":15021:15034   */\n      mload\n        /* \"#utility.yul\":15012:15034   */\n      swap1\n      pop\n        /* \"#utility.yul\":15043:15073   */\n      tag_395\n        /* \"#utility.yul\":15067:15072   */\n      dup2\n        /* \"#utility.yul\":15043:15073   */\n      tag_241\n      jump\t// in\n    tag_395:\n        /* \"#utility.yul\":14942:15079   */\n      swap3\n      swap2\n      pop\n      pop\n      jump\t// out\n        /* \"#utility.yul\":15085:15430   */\n    tag_74:\n        /* \"#utility.yul\":15152:15158   */\n      0x00\n        /* \"#utility.yul\":15201:15203   */\n      0x20\n        /* \"#utility.yul\":15189:15198   */\n      dup3\n        /* \"#utility.yul\":15180:15187   */\n      dup5\n        /* \"#utility.yul\":15176:15199   */\n      sub\n        /* \"#utility.yul\":15172:15204   */\n      slt\n        /* \"#utility.yul\":15169:15288   */\n      iszero\n      tag_397\n      jumpi\n        /* \"#utility.yul\":15207:15286   */\n      tag_398\n      tag_201\n      jump\t// in\n    tag_398:\n        /* \"#utility.yul\":15169:15288   */\n    tag_397:\n        /* \"#utility.yul\":15327:15328   */\n      0x00\n        /* \"#utility.yul\":15352:15413   */\n      tag_399\n        /* \"#utility.yul\":15405:15412   */\n      dup5\n        /* \"#utility.yul\":15396:15402   */\n      dup3\n        /* \"#utility.yul\":15385:15394   */\n      dup6\n        /* \"#utility.yul\":15381:15403   */\n      add\n        /* \"#utility.yul\":15352:15413   */\n      tag_242\n      jump\t// in\n    tag_399:\n        /* \"#utility.yul\":15342:15413   */\n      swap2\n      pop\n        /* \"#utility.yul\":15298:15423   */\n      pop\n        /* \"#utility.yul\":15085:15430   */\n      swap3\n      swap2\n      pop\n      pop\n      jump\t// out\n        /* \"#utility.yul\":15436:15605   */\n    tag_243:\n        /* \"#utility.yul\":15576:15597   */\n      0x7472616e7366657246726f6d206661696c656400000000000000000000000000\n        /* \"#utility.yul\":15572:15573   */\n      0x00\n        /* \"#utility.yul\":15564:15570   */\n      dup3\n        /* \"#utility.yul\":15560:15574   */\n      add\n        /* \"#utility.yul\":15553:15598   */\n      mstore\n        /* \"#utility.yul\":15436:15605   */\n      pop\n      jump\t// out\n        /* \"#utility.yul\":15611:15977   */\n    tag_244:\n        /* \"#utility.yul\":15753:15756   */\n      0x00\n        /* \"#utility.yul\":15774:15841   */\n      tag_402\n        /* \"#utility.yul\":15838:15840   */\n      0x13\n        /* \"#utility.yul\":15833:15836   */\n      dup4\n        /* \"#utility.yul\":15774:15841   */\n      tag_197\n      jump\t// in\n    tag_402:\n        /* \"#utility.yul\":15767:15841   */\n      swap2\n      pop\n        /* \"#utility.yul\":15850:15943   */\n      tag_403\n        /* \"#utility.yul\":15939:15942   */\n      dup3\n        /* \"#utility.yul\":15850:15943   */\n      tag_243\n      jump\t// in\n    tag_403:\n        /* \"#utility.yul\":15968:15970   */\n      0x20\n        /* \"#utility.yul\":15963:15966   */\n      dup3\n        /* \"#utility.yul\":15959:15971   */\n      add\n        /* \"#utility.yul\":15952:15971   */\n      swap1\n      pop\n        /* \"#utility.yul\":15611:15977   */\n      swap2\n      swap1\n      pop\n      jump\t// out\n        /* \"#utility.yul\":15983:16402   */\n    tag_77:\n        /* \"#utility.yul\":16149:16153   */\n      0x00\n        /* \"#utility.yul\":16187:16189   */\n      0x20\n        /* \"#utility.yul\":16176:16185   */\n      dup3\n        /* \"#utility.yul\":16172:16190   */\n      add\n        /* \"#utility.yul\":16164:16190   */\n      swap1\n      pop\n        /* \"#utility.yul\":16236:16245   */\n      dup2\n        /* \"#utility.yul\":16230:16234   */\n      dup2\n        /* \"#utility.yul\":16226:16246   */\n      sub\n        /* \"#utility.yul\":16222:16223   */\n      0x00\n        /* \"#utility.yul\":16211:16220   */\n      dup4\n        /* \"#utility.yul\":16207:16224   */\n      add\n        /* \"#utility.yul\":16200:16247   */\n      mstore\n        /* \"#utility.yul\":16264:16395   */\n      tag_405\n        /* \"#utility.yul\":16390:16394   */\n      dup2\n        /* \"#utility.yul\":16264:16395   */\n      tag_244\n      jump\t// in\n    tag_405:\n        /* \"#utility.yul\":16256:16395   */\n      swap1\n      pop\n        /* \"#utility.yul\":15983:16402   */\n      swap2\n      swap1\n      pop\n      jump\t// out\n        /* \"#utility.yul\":16408:16588   */\n    tag_245:\n        /* \"#utility.yul\":16456:16533   */\n      0x4e487b7100000000000000000000000000000000000000000000000000000000\n        /* \"#utility.yul\":16453:16454   */\n      0x00\n        /* \"#utility.yul\":16446:16534   */\n      mstore\n        /* \"#utility.yul\":16553:16557   */\n      0x11\n        /* \"#utility.yul\":16550:16551   */\n      0x04\n        /* \"#utility.yul\":16543:16558   */\n      mstore\n        /* \"#utility.yul\":16577:16581   */\n      0x24\n        /* \"#utility.yul\":16574:16575   */\n      0x00\n        /* \"#utility.yul\":16567:16582   */\n      revert\n        /* \"#utility.yul\":16594:17004   */\n    tag_79:\n        /* \"#utility.yul\":16634:16641   */\n      0x00\n        /* \"#utility.yul\":16657:16677   */\n      tag_408\n        /* \"#utility.yul\":16675:16676   */\n      dup3\n        /* \"#utility.yul\":16657:16677   */\n      tag_207\n      jump\t// in\n    tag_408:\n        /* \"#utility.yul\":16652:16677   */\n      swap2\n      pop\n        /* \"#utility.yul\":16691:16711   */\n      tag_409\n        /* \"#utility.yul\":16709:16710   */\n      dup4\n        /* \"#utility.yul\":16691:16711   */\n      tag_207\n      jump\t// in\n    tag_409:\n        /* \"#utility.yul\":16686:16711   */\n      swap3\n      pop\n        /* \"#utility.yul\":16746:16747   */\n      dup3\n        /* \"#utility.yul\":16743:16744   */\n      dup3\n        /* \"#utility.yul\":16739:16748   */\n      mul\n        /* \"#utility.yul\":16768:16798   */\n      tag_410\n        /* \"#utility.yul\":16786:16797   */\n      dup2\n        /* \"#utility.yul\":16768:16798   */\n      tag_207\n      jump\t// in\n    tag_410:\n        /* \"#utility.yul\":16757:16798   */\n      swap2\n      pop\n        /* \"#utility.yul\":16947:16948   */\n      dup3\n        /* \"#utility.yul\":16938:16945   */\n      dup3\n        /* \"#utility.yul\":16934:16949   */\n      div\n        /* \"#utility.yul\":16931:16932   */\n      dup5\n        /* \"#utility.yul\":16928:16950   */\n      eq\n        /* \"#utility.yul\":16908:16909   */\n      dup4\n        /* \"#utility.yul\":16901:16910   */\n      iszero\n        /* \"#utility.yul\":16881:16964   */\n      or\n        /* \"#utility.yul\":16858:16997   */\n      tag_411\n      jumpi\n        /* \"#utility.yul\":16977:16995   */\n      tag_412\n      tag_245\n      jump\t// in\n    tag_412:\n        /* \"#utility.yul\":16858:16997   */\n    tag_411:\n        /* \"#utility.yul\":16642:17004   */\n      pop\n        /* \"#utility.yul\":16594:17004   */\n      swap3\n      swap2\n      pop\n      pop\n      jump\t// out\n        /* \"#utility.yul\":17010:17190   */\n    tag_246:\n        /* \"#utility.yul\":17058:17135   */\n      0x4e487b7100000000000000000000000000000000000000000000000000000000\n        /* \"#utility.yul\":17055:17056   */\n      0x00\n        /* \"#utility.yul\":17048:17136   */\n      mstore\n        /* \"#utility.yul\":17155:17159   */\n      0x12\n        /* \"#utility.yul\":17152:17153   */\n      0x04\n        /* \"#utility.yul\":17145:17160   */\n      mstore\n        /* \"#utility.yul\":17179:17183   */\n      0x24\n        /* \"#utility.yul\":17176:17177   */\n      0x00\n        /* \"#utility.yul\":17169:17184   */\n      revert\n        /* \"#utility.yul\":17196:17381   */\n    tag_81:\n        /* \"#utility.yul\":17236:17237   */\n      0x00\n        /* \"#utility.yul\":17253:17273   */\n      tag_415\n        /* \"#utility.yul\":17271:17272   */\n      dup3\n        /* \"#utility.yul\":17253:17273   */\n      tag_207\n      jump\t// in\n    tag_415:\n        /* \"#utility.yul\":17248:17273   */\n      swap2\n      pop\n        /* \"#utility.yul\":17287:17307   */\n      tag_416\n        /* \"#utility.yul\":17305:17306   */\n      dup4\n        /* \"#utility.yul\":17287:17307   */\n      tag_207\n      jump\t// in\n    tag_416:\n        /* \"#utility.yul\":17282:17307   */\n      swap3\n      pop\n        /* \"#utility.yul\":17326:17327   */\n      dup3\n        /* \"#utility.yul\":17316:17351   */\n      tag_417\n      jumpi\n        /* \"#utility.yul\":17331:17349   */\n      tag_418\n      tag_246\n      jump\t// in\n    tag_418:\n        /* \"#utility.yul\":17316:17351   */\n    tag_417:\n        /* \"#utility.yul\":17373:17374   */\n      dup3\n        /* \"#utility.yul\":17370:17371   */\n      dup3\n        /* \"#utility.yul\":17366:17375   */\n      div\n        /* \"#utility.yul\":17361:17375   */\n      swap1\n      pop\n        /* \"#utility.yul\":17196:17381   */\n      swap3\n      swap2\n      pop\n      pop\n      jump\t// out\n        /* \"#utility.yul\":17387:17581   */\n    tag_83:\n        /* \"#utility.yul\":17427:17431   */\n      0x00\n        /* \"#utility.yul\":17447:17467   */\n      tag_420\n        /* \"#utility.yul\":17465:17466   */\n      dup3\n        /* \"#utility.yul\":17447:17467   */\n      tag_207\n      jump\t// in\n    tag_420:\n        /* \"#utility.yul\":17442:17467   */\n      swap2\n      pop\n        /* \"#utility.yul\":17481:17501   */\n      tag_421\n        /* \"#utility.yul\":17499:17500   */\n      dup4\n        /* \"#utility.yul\":17481:17501   */\n      tag_207\n      jump\t// in\n    tag_421:\n        /* \"#utility.yul\":17476:17501   */\n      swap3\n      pop\n        /* \"#utility.yul\":17525:17526   */\n      dup3\n        /* \"#utility.yul\":17522:17523   */\n      dup3\n        /* \"#utility.yul\":17518:17527   */\n      sub\n        /* \"#utility.yul\":17510:17527   */\n      swap1\n      pop\n        /* \"#utility.yul\":17549:17550   */\n      dup2\n        /* \"#utility.yul\":17543:17547   */\n      dup2\n        /* \"#utility.yul\":17540:17551   */\n      gt\n        /* \"#utility.yul\":17537:17574   */\n      iszero\n      tag_422\n      jumpi\n        /* \"#utility.yul\":17554:17572   */\n      tag_423\n      tag_245\n      jump\t// in\n    tag_423:\n        /* \"#utility.yul\":17537:17574   */\n    tag_422:\n        /* \"#utility.yul\":17387:17581   */\n      swap3\n      swap2\n      pop\n      pop\n      jump\t// out\n        /* \"#utility.yul\":17587:17748   */\n    tag_247:\n        /* \"#utility.yul\":17727:17740   */\n      0x4e6574206973207a65726f000000000000000000000000000000000000000000\n        /* \"#utility.yul\":17723:17724   */\n      0x00\n        /* \"#utility.yul\":17715:17721   */\n      dup3\n        /* \"#utility.yul\":17711:17725   */\n      add\n        /* \"#utility.yul\":17704:17741   */\n      mstore\n        /* \"#utility.yul\":17587:17748   */\n      pop\n      jump\t// out\n        /* \"#utility.yul\":17754:18120   */\n    tag_248:\n        /* \"#utility.yul\":17896:17899   */\n      0x00\n        /* \"#utility.yul\":17917:17984   */\n      tag_426\n        /* \"#utility.yul\":17981:17983   */\n      0x0b\n        /* \"#utility.yul\":17976:17979   */\n      dup4\n        /* \"#utility.yul\":17917:17984   */\n      tag_197\n      jump\t// in\n    tag_426:\n        /* \"#utility.yul\":17910:17984   */\n      swap2\n      pop\n        /* \"#utility.yul\":17993:18086   */\n      tag_427\n        /* \"#utility.yul\":18082:18085   */\n      dup3\n        /* \"#utility.yul\":17993:18086   */\n      tag_247\n      jump\t// in\n    tag_427:\n        /* \"#utility.yul\":18111:18113   */\n      0x20\n        /* \"#utility.yul\":18106:18109   */\n      dup3\n        /* \"#utility.yul\":18102:18114   */\n      add\n        /* \"#utility.yul\":18095:18114   */\n      swap1\n      pop\n        /* \"#utility.yul\":17754:18120   */\n      swap2\n      swap1\n      pop\n      jump\t// out\n        /* \"#utility.yul\":18126:18545   */\n    tag_86:\n        /* \"#utility.yul\":18292:18296   */\n      0x00\n        /* \"#utility.yul\":18330:18332   */\n      0x20\n        /* \"#utility.yul\":18319:18328   */\n      dup3\n        /* \"#utility.yul\":18315:18333   */\n      add\n        /* \"#utility.yul\":18307:18333   */\n      swap1\n      pop\n        /* \"#utility.yul\":18379:18388   */\n      dup2\n        /* \"#utility.yul\":18373:18377   */\n      dup2\n        /* \"#utility.yul\":18369:18389   */\n      sub\n        /* \"#utility.yul\":18365:18366   */\n      0x00\n        /* \"#utility.yul\":18354:18363   */\n      dup4\n        /* \"#utility.yul\":18350:18367   */\n      add\n        /* \"#utility.yul\":18343:18390   */\n      mstore\n        /* \"#utility.yul\":18407:18538   */\n      tag_429\n        /* \"#utility.yul\":18533:18537   */\n      dup2\n        /* \"#utility.yul\":18407:18538   */\n      tag_248\n      jump\t// in\n    tag_429:\n        /* \"#utility.yul\":18399:18538   */\n      swap1\n      pop\n        /* \"#utility.yul\":18126:18545   */\n      swap2\n      swap1\n      pop\n      jump\t// out\n        /* \"#utility.yul\":18551:18993   */\n    tag_91:\n        /* \"#utility.yul\":18700:18704   */\n      0x00\n        /* \"#utility.yul\":18738:18740   */\n      0x60\n        /* \"#utility.yul\":18727:18736   */\n      dup3\n        /* \"#utility.yul\":18723:18741   */\n      add\n        /* \"#utility.yul\":18715:18741   */\n      swap1\n      pop\n        /* \"#utility.yul\":18751:18822   */\n      tag_431\n        /* \"#utility.yul\":18819:18820   */\n      0x00\n        /* \"#utility.yul\":18808:18817   */\n      dup4\n        /* \"#utility.yul\":18804:18821   */\n      add\n        /* \"#utility.yul\":18795:18801   */\n      dup7\n        /* \"#utility.yul\":18751:18822   */\n      tag_240\n      jump\t// in\n    tag_431:\n        /* \"#utility.yul\":18832:18904   */\n      tag_432\n        /* \"#utility.yul\":18900:18902   */\n      0x20\n        /* \"#utility.yul\":18889:18898   */\n      dup4\n        /* \"#utility.yul\":18885:18903   */\n      add\n        /* \"#utility.yul\":18876:18882   */\n      dup6\n        /* \"#utility.yul\":18832:18904   */\n      tag_240\n      jump\t// in\n    tag_432:\n        /* \"#utility.yul\":18914:18986   */\n      tag_433\n        /* \"#utility.yul\":18982:18984   */\n      0x40\n        /* \"#utility.yul\":18971:18980   */\n      dup4\n        /* \"#utility.yul\":18967:18985   */\n      add\n        /* \"#utility.yul\":18958:18964   */\n      dup5\n        /* \"#utility.yul\":18914:18986   */\n      tag_240\n      jump\t// in\n    tag_433:\n        /* \"#utility.yul\":18551:18993   */\n      swap5\n      swap4\n      pop\n      pop\n      pop\n      pop\n      jump\t// out\n        /* \"#utility.yul\":18999:19179   */\n    tag_97:\n        /* \"#utility.yul\":19047:19124   */\n      0x4e487b7100000000000000000000000000000000000000000000000000000000\n        /* \"#utility.yul\":19044:19045   */\n      0x00\n        /* \"#utility.yul\":19037:19125   */\n      mstore\n        /* \"#utility.yul\":19144:19148   */\n      0x41\n        /* \"#utility.yul\":19141:19142   */\n      0x04\n        /* \"#utility.yul\":19134:19149   */\n      mstore\n        /* \"#utility.yul\":19168:19172   */\n      0x24\n        /* \"#utility.yul\":19165:19166   */\n      0x00\n        /* \"#utility.yul\":19158:19173   */\n      revert\n        /* \"#utility.yul\":19185:19365   */\n    tag_107:\n        /* \"#utility.yul\":19233:19310   */\n      0x4e487b7100000000000000000000000000000000000000000000000000000000\n        /* \"#utility.yul\":19230:19231   */\n      0x00\n        /* \"#utility.yul\":19223:19311   */\n      mstore\n        /* \"#utility.yul\":19330:19334   */\n      0x32\n        /* \"#utility.yul\":19327:19328   */\n      0x04\n        /* \"#utility.yul\":19320:19335   */\n      mstore\n        /* \"#utility.yul\":19354:19358   */\n      0x24\n        /* \"#utility.yul\":19351:19352   */\n      0x00\n        /* \"#utility.yul\":19344:19359   */\n      revert\n        /* \"#utility.yul\":19371:19541   */\n    tag_249:\n        /* \"#utility.yul\":19511:19533   */\n      0x5661756c7420646f6573206e6f74206578697374000000000000000000000000\n        /* \"#utility.yul\":19507:19508   */\n      0x00\n        /* \"#utility.yul\":19499:19505   */\n      dup3\n        /* \"#utility.yul\":19495:19509   */\n      add\n        /* \"#utility.yul\":19488:19534   */\n      mstore\n        /* \"#utility.yul\":19371:19541   */\n      pop\n      jump\t// out\n        /* \"#utility.yul\":19547:19913   */\n    tag_250:\n        /* \"#utility.yul\":19689:19692   */\n      0x00\n        /* \"#utility.yul\":19710:19777   */\n      tag_438\n        /* \"#utility.yul\":19774:19776   */\n      0x14\n        /* \"#utility.yul\":19769:19772   */\n      dup4\n        /* \"#utility.yul\":19710:19777   */\n      tag_197\n      jump\t// in\n    tag_438:\n        /* \"#utility.yul\":19703:19777   */\n      swap2\n      pop\n        /* \"#utility.yul\":19786:19879   */\n      tag_439\n        /* \"#utility.yul\":19875:19878   */\n      dup3\n        /* \"#utility.yul\":19786:19879   */\n      tag_249\n      jump\t// in\n    tag_439:\n        /* \"#utility.yul\":19904:19906   */\n      0x20\n        /* \"#utility.yul\":19899:19902   */\n      dup3\n        /* \"#utility.yul\":19895:19907   */\n      add\n        /* \"#utility.yul\":19888:19907   */\n      swap1\n      pop\n        /* \"#utility.yul\":19547:19913   */\n      swap2\n      swap1\n      pop\n      jump\t// out\n        /* \"#utility.yul\":19919:20338   */\n    tag_118:\n        /* \"#utility.yul\":20085:20089   */\n      0x00\n        /* \"#utility.yul\":20123:20125   */\n      0x20\n        /* \"#utility.yul\":20112:20121   */\n      dup3\n        /* \"#utility.yul\":20108:20126   */\n      add\n        /* \"#utility.yul\":20100:20126   */\n      swap1\n      pop\n        /* \"#utility.yul\":20172:20181   */\n      dup2\n        /* \"#utility.yul\":20166:20170   */\n      dup2\n        /* \"#utility.yul\":20162:20182   */\n      sub\n        /* \"#utility.yul\":20158:20159   */\n      0x00\n        /* \"#utility.yul\":20147:20156   */\n      dup4\n        /* \"#utility.yul\":20143:20160   */\n      add\n        /* \"#utility.yul\":20136:20183   */\n      mstore\n        /* \"#utility.yul\":20200:20331   */\n      tag_441\n        /* \"#utility.yul\":20326:20330   */\n      dup2\n        /* \"#utility.yul\":20200:20331   */\n      tag_250\n      jump\t// in\n    tag_441:\n        /* \"#utility.yul\":20192:20331   */\n      swap1\n      pop\n        /* \"#utility.yul\":19919:20338   */\n      swap2\n      swap1\n      pop\n      jump\t// out\n        /* \"#utility.yul\":20344:20514   */\n    tag_251:\n        /* \"#utility.yul\":20484:20506   */\n      0x496e73756666696369656e742062616c616e6365000000000000000000000000\n        /* \"#utility.yul\":20480:20481   */\n      0x00\n        /* \"#utility.yul\":20472:20478   */\n      dup3\n        /* \"#utility.yul\":20468:20482   */\n      add\n        /* \"#utility.yul\":20461:20507   */\n      mstore\n        /* \"#utility.yul\":20344:20514   */\n      pop\n      jump\t// out\n        /* \"#utility.yul\":20520:20886   */\n    tag_252:\n        /* \"#utility.yul\":20662:20665   */\n      0x00\n        /* \"#utility.yul\":20683:20750   */\n      tag_444\n        /* \"#utility.yul\":20747:20749   */\n      0x14\n        /* \"#utility.yul\":20742:20745   */\n      dup4\n        /* \"#utility.yul\":20683:20750   */\n      tag_197\n      jump\t// in\n    tag_444:\n        /* \"#utility.yul\":20676:20750   */\n      swap2\n      pop\n        /* \"#utility.yul\":20759:20852   */\n      tag_445\n        /* \"#utility.yul\":20848:20851   */\n      dup3\n        /* \"#utility.yul\":20759:20852   */\n      tag_251\n      jump\t// in\n    tag_445:\n        /* \"#utility.yul\":20877:20879   */\n      0x20\n        /* \"#utility.yul\":20872:20875   */\n      dup3\n        /* \"#utility.yul\":20868:20880   */\n      add\n        /* \"#utility.yul\":20861:20880   */\n      swap1\n      pop\n        /* \"#utility.yul\":20520:20886   */\n      swap2\n      swap1\n      pop\n      jump\t// out\n        /* \"#utility.yul\":20892:21311   */\n    tag_121:\n        /* \"#utility.yul\":21058:21062   */\n      0x00\n        /* \"#utility.yul\":21096:21098   */\n      0x20\n        /* \"#utility.yul\":21085:21094   */\n      dup3\n        /* \"#utility.yul\":21081:21099   */\n      add\n        /* \"#utility.yul\":21073:21099   */\n      swap1\n      pop\n        /* \"#utility.yul\":21145:21154   */\n      dup2\n        /* \"#utility.yul\":21139:21143   */\n      dup2\n        /* \"#utility.yul\":21135:21155   */\n      sub\n        /* \"#utility.yul\":21131:21132   */\n      0x00\n        /* \"#utility.yul\":21120:21129   */\n      dup4\n        /* \"#utility.yul\":21116:21133   */\n      add\n        /* \"#utility.yul\":21109:21156   */\n      mstore\n        /* \"#utility.yul\":21173:21304   */\n      tag_447\n        /* \"#utility.yul\":21299:21303   */\n      dup2\n        /* \"#utility.yul\":21173:21304   */\n      tag_252\n      jump\t// in\n    tag_447:\n        /* \"#utility.yul\":21165:21304   */\n      swap1\n      pop\n        /* \"#utility.yul\":20892:21311   */\n      swap2\n      swap1\n      pop\n      jump\t// out\n        /* \"#utility.yul\":21317:21649   */\n    tag_124:\n        /* \"#utility.yul\":21438:21442   */\n      0x00\n        /* \"#utility.yul\":21476:21478   */\n      0x40\n        /* \"#utility.yul\":21465:21474   */\n      dup3\n        /* \"#utility.yul\":21461:21479   */\n      add\n        /* \"#utility.yul\":21453:21479   */\n      swap1\n      pop\n        /* \"#utility.yul\":21489:21560   */\n      tag_449\n        /* \"#utility.yul\":21557:21558   */\n      0x00\n        /* \"#utility.yul\":21546:21555   */\n      dup4\n        /* \"#utility.yul\":21542:21559   */\n      add\n        /* \"#utility.yul\":21533:21539   */\n      dup6\n        /* \"#utility.yul\":21489:21560   */\n      tag_239\n      jump\t// in\n    tag_449:\n        /* \"#utility.yul\":21570:21642   */\n      tag_450\n        /* \"#utility.yul\":21638:21640   */\n      0x20\n        /* \"#utility.yul\":21627:21636   */\n      dup4\n        /* \"#utility.yul\":21623:21641   */\n      add\n        /* \"#utility.yul\":21614:21620   */\n      dup5\n        /* \"#utility.yul\":21570:21642   */\n      tag_240\n      jump\t// in\n    tag_450:\n        /* \"#utility.yul\":21317:21649   */\n      swap4\n      swap3\n      pop\n      pop\n      pop\n      jump\t// out\n        /* \"#utility.yul\":21655:21826   */\n    tag_253:\n        /* \"#utility.yul\":21795:21818   */\n      0x4552433230207472616e73666572206661696c65640000000000000000000000\n        /* \"#utility.yul\":21791:21792   */\n      0x00\n        /* \"#utility.yul\":21783:21789   */\n      dup3\n        /* \"#utility.yul\":21779:21793   */\n      add\n        /* \"#utility.yul\":21772:21819   */\n      mstore\n        /* \"#utility.yul\":21655:21826   */\n      pop\n      jump\t// out\n        /* \"#utility.yul\":21832:22198   */\n    tag_254:\n        /* \"#utility.yul\":21974:21977   */\n      0x00\n        /* \"#utility.yul\":21995:22062   */\n      tag_453\n        /* \"#utility.yul\":22059:22061   */\n      0x15\n        /* \"#utility.yul\":22054:22057   */\n      dup4\n        /* \"#utility.yul\":21995:22062   */\n      tag_197\n      jump\t// in\n    tag_453:\n        /* \"#utility.yul\":21988:22062   */\n      swap2\n      pop\n        /* \"#utility.yul\":22071:22164   */\n      tag_454\n        /* \"#utility.yul\":22160:22163   */\n      dup3\n        /* \"#utility.yul\":22071:22164   */\n      tag_253\n      jump\t// in\n    tag_454:\n        /* \"#utility.yul\":22189:22191   */\n      0x20\n        /* \"#utility.yul\":22184:22187   */\n      dup3\n        /* \"#utility.yul\":22180:22192   */\n      add\n        /* \"#utility.yul\":22173:22192   */\n      swap1\n      pop\n        /* \"#utility.yul\":21832:22198   */\n      swap2\n      swap1\n      pop\n      jump\t// out\n        /* \"#utility.yul\":22204:22623   */\n    tag_130:\n        /* \"#utility.yul\":22370:22374   */\n      0x00\n        /* \"#utility.yul\":22408:22410   */\n      0x20\n        /* \"#utility.yul\":22397:22406   */\n      dup3\n        /* \"#utility.yul\":22393:22411   */\n      add\n        /* \"#utility.yul\":22385:22411   */\n      swap1\n      pop\n        /* \"#utility.yul\":22457:22466   */\n      dup2\n        /* \"#utility.yul\":22451:22455   */\n      dup2\n        /* \"#utility.yul\":22447:22467   */\n      sub\n        /* \"#utility.yul\":22443:22444   */\n      0x00\n        /* \"#utility.yul\":22432:22441   */\n      dup4\n        /* \"#utility.yul\":22428:22445   */\n      add\n        /* \"#utility.yul\":22421:22468   */\n      mstore\n        /* \"#utility.yul\":22485:22616   */\n      tag_456\n        /* \"#utility.yul\":22611:22615   */\n      dup2\n        /* \"#utility.yul\":22485:22616   */\n      tag_254\n      jump\t// in\n    tag_456:\n        /* \"#utility.yul\":22477:22616   */\n      swap1\n      pop\n        /* \"#utility.yul\":22204:22623   */\n      swap2\n      swap1\n      pop\n      jump\t// out\n        /* \"#utility.yul\":22629:22851   */\n    tag_132:\n        /* \"#utility.yul\":22722:22726   */\n      0x00\n        /* \"#utility.yul\":22760:22762   */\n      0x20\n        /* \"#utility.yul\":22749:22758   */\n      dup3\n        /* \"#utility.yul\":22745:22763   */\n      add\n        /* \"#utility.yul\":22737:22763   */\n      swap1\n      pop\n        /* \"#utility.yul\":22773:22844   */\n      tag_458\n        /* \"#utility.yul\":22841:22842   */\n      0x00\n        /* \"#utility.yul\":22830:22839   */\n      dup4\n        /* \"#utility.yul\":22826:22843   */\n      add\n        /* \"#utility.yul\":22817:22823   */\n      dup5\n        /* \"#utility.yul\":22773:22844   */\n      tag_240\n      jump\t// in\n    tag_458:\n        /* \"#utility.yul\":22629:22851   */\n      swap3\n      swap2\n      pop\n      pop\n      jump\t// out\n        /* \"#utility.yul\":22857:23023   */\n    tag_255:\n        /* \"#utility.yul\":22997:23015   */\n      0x496e73756666696369656e742045544800000000000000000000000000000000\n        /* \"#utility.yul\":22993:22994   */\n      0x00\n        /* \"#utility.yul\":22985:22991   */\n      dup3\n        /* \"#utility.yul\":22981:22995   */\n      add\n        /* \"#utility.yul\":22974:23016   */\n      mstore\n        /* \"#utility.yul\":22857:23023   */\n      pop\n      jump\t// out\n        /* \"#utility.yul\":23029:23395   */\n    tag_256:\n        /* \"#utility.yul\":23171:23174   */\n      0x00\n        /* \"#utility.yul\":23192:23259   */\n      tag_461\n        /* \"#utility.yul\":23256:23258   */\n      0x10\n        /* \"#utility.yul\":23251:23254   */\n      dup4\n        /* \"#utility.yul\":23192:23259   */\n      tag_197\n      jump\t// in\n    tag_461:\n        /* \"#utility.yul\":23185:23259   */\n      swap2\n      pop\n        /* \"#utility.yul\":23268:23361   */\n      tag_462\n        /* \"#utility.yul\":23357:23360   */\n      dup3\n        /* \"#utility.yul\":23268:23361   */\n      tag_255\n      jump\t// in\n    tag_462:\n        /* \"#utility.yul\":23386:23388   */\n      0x20\n        /* \"#utility.yul\":23381:23384   */\n      dup3\n        /* \"#utility.yul\":23377:23389   */\n      add\n        /* \"#utility.yul\":23370:23389   */\n      swap1\n      pop\n        /* \"#utility.yul\":23029:23395   */\n      swap2\n      swap1\n      pop\n      jump\t// out\n        /* \"#utility.yul\":23401:23820   */\n    tag_159:\n        /* \"#utility.yul\":23567:23571   */\n      0x00\n        /* \"#utility.yul\":23605:23607   */\n      0x20\n        /* \"#utility.yul\":23594:23603   */\n      dup3\n        /* \"#utility.yul\":23590:23608   */\n      add\n        /* \"#utility.yul\":23582:23608   */\n      swap1\n      pop\n        /* \"#utility.yul\":23654:23663   */\n      dup2\n        /* \"#utility.yul\":23648:23652   */\n      dup2\n        /* \"#utility.yul\":23644:23664   */\n      sub\n        /* \"#utility.yul\":23640:23641   */\n      0x00\n        /* \"#utility.yul\":23629:23638   */\n      dup4\n        /* \"#utility.yul\":23625:23642   */\n      add\n        /* \"#utility.yul\":23618:23665   */\n      mstore\n        /* \"#utility.yul\":23682:23813   */\n      tag_464\n        /* \"#utility.yul\":23808:23812   */\n      dup2\n        /* \"#utility.yul\":23682:23813   */\n      tag_256\n      jump\t// in\n    tag_464:\n        /* \"#utility.yul\":23674:23813   */\n      swap1\n      pop\n        /* \"#utility.yul\":23401:23820   */\n      swap2\n      swap1\n      pop\n      jump\t// out\n        /* \"#utility.yul\":23826:23973   */\n    tag_257:\n        /* \"#utility.yul\":23927:23938   */\n      0x00\n        /* \"#utility.yul\":23964:23967   */\n      dup2\n        /* \"#utility.yul\":23949:23967   */\n      swap1\n      pop\n        /* \"#utility.yul\":23826:23973   */\n      swap3\n      swap2\n      pop\n      pop\n      jump\t// out\n        /* \"#utility.yul\":23979:24093   */\n    tag_258:\n      pop\n      jump\t// out\n        /* \"#utility.yul\":24099:24497   */\n    tag_259:\n        /* \"#utility.yul\":24258:24261   */\n      0x00\n        /* \"#utility.yul\":24279:24362   */\n      tag_468\n        /* \"#utility.yul\":24360:24361   */\n      0x00\n        /* \"#utility.yul\":24355:24358   */\n      dup4\n        /* \"#utility.yul\":24279:24362   */\n      tag_257\n      jump\t// in\n    tag_468:\n        /* \"#utility.yul\":24272:24362   */\n      swap2\n      pop\n        /* \"#utility.yul\":24371:24464   */\n      tag_469\n        /* \"#utility.yul\":24460:24463   */\n      dup3\n        /* \"#utility.yul\":24371:24464   */\n      tag_258\n      jump\t// in\n    tag_469:\n        /* \"#utility.yul\":24489:24490   */\n      0x00\n        /* \"#utility.yul\":24484:24487   */\n      dup3\n        /* \"#utility.yul\":24480:24491   */\n      add\n        /* \"#utility.yul\":24473:24491   */\n      swap1\n      pop\n        /* \"#utility.yul\":24099:24497   */\n      swap2\n      swap1\n      pop\n      jump\t// out\n        /* \"#utility.yul\":24503:24882   */\n    tag_162:\n        /* \"#utility.yul\":24687:24690   */\n      0x00\n        /* \"#utility.yul\":24709:24856   */\n      tag_471\n        /* \"#utility.yul\":24852:24855   */\n      dup3\n        /* \"#utility.yul\":24709:24856   */\n      tag_259\n      jump\t// in\n    tag_471:\n        /* \"#utility.yul\":24702:24856   */\n      swap2\n      pop\n        /* \"#utility.yul\":24873:24876   */\n      dup2\n        /* \"#utility.yul\":24866:24876   */\n      swap1\n      pop\n        /* \"#utility.yul\":24503:24882   */\n      swap2\n      swap1\n      pop\n      jump\t// out\n        /* \"#utility.yul\":24888:25057   */\n    tag_260:\n        /* \"#utility.yul\":25028:25049   */\n      0x455448207472616e73666572206661696c656400000000000000000000000000\n        /* \"#utility.yul\":25024:25025   */\n      0x00\n        /* \"#utility.yul\":25016:25022   */\n      dup3\n        /* \"#utility.yul\":25012:25026   */\n      add\n        /* \"#utility.yul\":25005:25050   */\n      mstore\n        /* \"#utility.yul\":24888:25057   */\n      pop\n      jump\t// out\n        /* \"#utility.yul\":25063:25429   */\n    tag_261:\n        /* \"#utility.yul\":25205:25208   */\n      0x00\n        /* \"#utility.yul\":25226:25293   */\n      tag_474\n        /* \"#utility.yul\":25290:25292   */\n      0x13\n        /* \"#utility.yul\":25285:25288   */\n      dup4\n        /* \"#utility.yul\":25226:25293   */\n      tag_197\n      jump\t// in\n    tag_474:\n        /* \"#utility.yul\":25219:25293   */\n      swap2\n      pop\n        /* \"#utility.yul\":25302:25395   */\n      tag_475\n        /* \"#utility.yul\":25391:25394   */\n      dup3\n        /* \"#utility.yul\":25302:25395   */\n      tag_260\n      jump\t// in\n    tag_475:\n        /* \"#utility.yul\":25420:25422   */\n      0x20\n        /* \"#utility.yul\":25415:25418   */\n      dup3\n        /* \"#utility.yul\":25411:25423   */\n      add\n        /* \"#utility.yul\":25404:25423   */\n      swap1\n      pop\n        /* \"#utility.yul\":25063:25429   */\n      swap2\n      swap1\n      pop\n      jump\t// out\n        /* \"#utility.yul\":25435:25854   */\n    tag_168:\n        /* \"#utility.yul\":25601:25605   */\n      0x00\n        /* \"#utility.yul\":25639:25641   */\n      0x20\n        /* \"#utility.yul\":25628:25637   */\n      dup3\n        /* \"#utility.yul\":25624:25642   */\n      add\n        /* \"#utility.yul\":25616:25642   */\n      swap1\n      pop\n        /* \"#utility.yul\":25688:25697   */\n      dup2\n        /* \"#utility.yul\":25682:25686   */\n      dup2\n        /* \"#utility.yul\":25678:25698   */\n      sub\n        /* \"#utility.yul\":25674:25675   */\n      0x00\n        /* \"#utility.yul\":25663:25672   */\n      dup4\n        /* \"#utility.yul\":25659:25676   */\n      add\n        /* \"#utility.yul\":25652:25699   */\n      mstore\n        /* \"#utility.yul\":25716:25847   */\n      tag_477\n        /* \"#utility.yul\":25842:25846   */\n      dup2\n        /* \"#utility.yul\":25716:25847   */\n      tag_261\n      jump\t// in\n    tag_477:\n        /* \"#utility.yul\":25708:25847   */\n      swap1\n      pop\n        /* \"#utility.yul\":25435:25854   */\n      swap2\n      swap1\n      pop\n      jump\t// out\n        /* \"#utility.yul\":25860:26021   */\n    tag_262:\n        /* \"#utility.yul\":26000:26013   */\n      0x4e6f204554482073656e74000000000000000000000000000000000000000000\n        /* \"#utility.yul\":25996:25997   */\n      0x00\n        /* \"#utility.yul\":25988:25994   */\n      dup3\n        /* \"#utility.yul\":25984:25998   */\n      add\n        /* \"#utility.yul\":25977:26014   */\n      mstore\n        /* \"#utility.yul\":25860:26021   */\n      pop\n      jump\t// out\n        /* \"#utility.yul\":26027:26393   */\n    tag_263:\n        /* \"#utility.yul\":26169:26172   */\n      0x00\n        /* \"#utility.yul\":26190:26257   */\n      tag_480\n        /* \"#utility.yul\":26254:26256   */\n      0x0b\n        /* \"#utility.yul\":26249:26252   */\n      dup4\n        /* \"#utility.yul\":26190:26257   */\n      tag_197\n      jump\t// in\n    tag_480:\n        /* \"#utility.yul\":26183:26257   */\n      swap2\n      pop\n        /* \"#utility.yul\":26266:26359   */\n      tag_481\n        /* \"#utility.yul\":26355:26358   */\n      dup3\n        /* \"#utility.yul\":26266:26359   */\n      tag_262\n      jump\t// in\n    tag_481:\n        /* \"#utility.yul\":26384:26386   */\n      0x20\n        /* \"#utility.yul\":26379:26382   */\n      dup3\n        /* \"#utility.yul\":26375:26387   */\n      add\n        /* \"#utility.yul\":26368:26387   */\n      swap1\n      pop\n        /* \"#utility.yul\":26027:26393   */\n      swap2\n      swap1\n      pop\n      jump\t// out\n        /* \"#utility.yul\":26399:26818   */\n    tag_175:\n        /* \"#utility.yul\":26565:26569   */\n      0x00\n        /* \"#utility.yul\":26603:26605   */\n      0x20\n        /* \"#utility.yul\":26592:26601   */\n      dup3\n        /* \"#utility.yul\":26588:26606   */\n      add\n        /* \"#utility.yul\":26580:26606   */\n      swap1\n      pop\n        /* \"#utility.yul\":26652:26661   */\n      dup2\n        /* \"#utility.yul\":26646:26650   */\n      dup2\n        /* \"#utility.yul\":26642:26662   */\n      sub\n        /* \"#utility.yul\":26638:26639   */\n      0x00\n        /* \"#utility.yul\":26627:26636   */\n      dup4\n        /* \"#utility.yul\":26623:26640   */\n      add\n        /* \"#utility.yul\":26616:26663   */\n      mstore\n        /* \"#utility.yul\":26680:26811   */\n      tag_483\n        /* \"#utility.yul\":26806:26810   */\n      dup2\n        /* \"#utility.yul\":26680:26811   */\n      tag_263\n      jump\t// in\n    tag_483:\n        /* \"#utility.yul\":26672:26811   */\n      swap1\n      pop\n        /* \"#utility.yul\":26399:26818   */\n      swap2\n      swap1\n      pop\n      jump\t// out\n        /* \"#utility.yul\":26824:27015   */\n    tag_190:\n        /* \"#utility.yul\":26864:26867   */\n      0x00\n        /* \"#utility.yul\":26883:26903   */\n      tag_485\n        /* \"#utility.yul\":26901:26902   */\n      dup3\n        /* \"#utility.yul\":26883:26903   */\n      tag_207\n      jump\t// in\n    tag_485:\n        /* \"#utility.yul\":26878:26903   */\n      swap2\n      pop\n        /* \"#utility.yul\":26917:26937   */\n      tag_486\n        /* \"#utility.yul\":26935:26936   */\n      dup4\n        /* \"#utility.yul\":26917:26937   */\n      tag_207\n      jump\t// in\n    tag_486:\n        /* \"#utility.yul\":26912:26937   */\n      swap3\n      pop\n        /* \"#utility.yul\":26960:26961   */\n      dup3\n        /* \"#utility.yul\":26957:26958   */\n      dup3\n        /* \"#utility.yul\":26953:26962   */\n      add\n        /* \"#utility.yul\":26946:26962   */\n      swap1\n      pop\n        /* \"#utility.yul\":26981:26984   */\n      dup1\n        /* \"#utility.yul\":26978:26979   */\n      dup3\n        /* \"#utility.yul\":26975:26985   */\n      gt\n        /* \"#utility.yul\":26972:27008   */\n      iszero\n      tag_487\n      jumpi\n        /* \"#utility.yul\":26988:27006   */\n      tag_488\n      tag_245\n      jump\t// in\n    tag_488:\n        /* \"#utility.yul\":26972:27008   */\n    tag_487:\n        /* \"#utility.yul\":26824:27015   */\n      swap3\n      swap2\n      pop\n      pop\n      jump\t// out\n\n    auxdata: 0xa2646970667358221220f794c0dac0447e868205afac6fdabf64bc540056a6bbd0ad85d6914ca238129f64736f6c634300081e0033\n}\n",
				"bytecode": {
					"linkReferences": {},
					"object": "6080604052348015600e575f5ffd5b506123b78061001c5f395ff3fe60806040526004361061007e575f3560e01c8063aa6ca8081161004d578063aa6ca8081461013a578063ecb0746414610164578063f14210a61461018e578063f6326fb3146101b6576100be565b80635d12928b146100c257806397feb926146100cc5780639f5f0520146100e8578063a1db978214610112576100be565b366100be576040517f08c379a00000000000000000000000000000000000000000000000000000000081526004016100b5906117b0565b60405180910390fd5b5f5ffd5b6100ca6101c0565b005b6100e660048036038101906100e1919061185f565b6103bf565b005b3480156100f3575f5ffd5b506100fc6106bc565b6040516101099190611a79565b60405180910390f35b34801561011d575f5ffd5b506101386004803603810190610133919061185f565b6108e5565b005b348015610145575f5ffd5b5061014e610be1565b60405161015b9190611b05565b60405180910390f35b34801561016f575f5ffd5b50610178610ca9565b6040516101859190611a79565b60405180910390f35b348015610199575f5ffd5b506101b460048036038101906101af9190611b25565b610e94565b005b6101be611147565b005b60015f3373ffffffffffffffffffffffffffffffffffffffff1673ffffffffffffffffffffffffffffffffffffffff1681526020019081526020015f205f9054906101000a900460ff161561024a576040517f08c379a000000000000000000000000000000000000000000000000000000000815260040161024190611b9a565b60405180910390fd5b655af3107a40003414610292576040517f08c379a000000000000000000000000000000000000000000000000000000000815260040161028990611c02565b60405180910390fd5b6001805f3373ffffffffffffffffffffffffffffffffffffffff1673ffffffffffffffffffffffffffffffffffffffff1681526020019081526020015f205f6101000a81548160ff0219169083151502179055505f5f5f3373ffffffffffffffffffffffffffffffffffffffff1673ffffffffffffffffffffffffffffffffffffffff1681526020019081526020015f209050805f015f9054906101000a900460ff166103bc5761035d73eeeeeeeeeeeeeeeeeeeeeeeeeeeeeeeeeeeeeeee655af3107a400061134f565b6001815f015f6101000a81548160ff0219169083151502179055503373ffffffffffffffffffffffffffffffffffffffff167f2e49a5810fda2439a23771848b4acec786b0a64d4de3d124ac57fc8739c3887560405160405180910390a25b50565b60015f3373ffffffffffffffffffffffffffffffffffffffff1673ffffffffffffffffffffffffffffffffffffffff1681526020019081526020015f205f9054906101000a900460ff16610448576040517f08c379a000000000000000000000000000000000000000000000000000000000815260040161043f90611c6a565b60405180910390fd5b5f73ffffffffffffffffffffffffffffffffffffffff168273ffffffffffffffffffffffffffffffffffffffff16036104b6576040517f08c379a00000000000000000000000000000000000000000000000000000000081526004016104ad90611cd2565b60405180910390fd5b5f81116104f8576040517f08c379a00000000000000000000000000000000000000000000000000000000081526004016104ef90611d3a565b60405180910390fd5b610501336114da565b5f8273ffffffffffffffffffffffffffffffffffffffff166323b872dd3330856040518463ffffffff1660e01b815260040161053f93929190611d76565b6020604051808303815f875af115801561055b573d5f5f3e3d5ffd5b505050506040513d601f19601f8201168201806040525081019061057f9190611dd5565b9050806105c1576040517f08c379a00000000000000000000000000000000000000000000000000000000081526004016105b890611e4a565b60405180910390fd5b5f61271061ffff16603261ffff16846105da9190611e95565b6105e49190611f03565b90505f81846105f39190611f33565b90505f8111610637576040517f08c379a000000000000000000000000000000000000000000000000000000000815260040161062e90611fb0565b60405180910390fd5b610641858361134f565b61064c338683611590565b8473ffffffffffffffffffffffffffffffffffffffff163373ffffffffffffffffffffffffffffffffffffffff167f4e2ca0515ed1aef1395f66b5303bb5d6f1bf9d61a353fa53f73f8ac9973fa9f68685856040516106ad93929190611fce565b60405180910390a35050505050565b6106c4611734565b5f5f5f3373ffffffffffffffffffffffffffffffffffffffff1673ffffffffffffffffffffffffffffffffffffffff1681526020019081526020015f2090505f816002018054905090505f8167ffffffffffffffff81111561072957610728612003565b5b6040519080825280602002602001820160405280156107575781602001602082028036833780820191505090505b5090505f8267ffffffffffffffff81111561077557610774612003565b5b6040519080825280602002602001820160405280156107a35781602001602082028036833780820191505090505b5090505f5f90505b838110156108af575f8560020182815481106107ca576107c9612030565b5b905f5260205f20015f9054906101000a900473ffffffffffffffffffffffffffffffffffffffff1690508084838151811061080857610807612030565b5b602002602001019073ffffffffffffffffffffffffffffffffffffffff16908173ffffffffffffffffffffffffffffffffffffffff1681525050856001015f8273ffffffffffffffffffffffffffffffffffffffff1673ffffffffffffffffffffffffffffffffffffffff1681526020019081526020015f205483838151811061089557610894612030565b5b6020026020010181815250505080806001019150506107ab565b506040518060600160405280855f015f9054906101000a900460ff16151581526020018381526020018281525094505050505090565b5f73ffffffffffffffffffffffffffffffffffffffff168273ffffffffffffffffffffffffffffffffffffffff1603610953576040517f08c379a000000000000000000000000000000000000000000000000000000000815260040161094a90611cd2565b60405180910390fd5b5f5f5f3373ffffffffffffffffffffffffffffffffffffffff1673ffffffffffffffffffffffffffffffffffffffff1681526020019081526020015f209050805f015f9054906101000a900460ff166109e1576040517f08c379a00000000000000000000000000000000000000000000000000000000081526004016109d8906120a7565b60405180910390fd5b81816001015f8573ffffffffffffffffffffffffffffffffffffffff1673ffffffffffffffffffffffffffffffffffffffff1681526020019081526020015f20541015610a63576040517f08c379a0000000000000000000000000000000000000000000000000000000008152600401610a5a9061210f565b60405180910390fd5b81816001015f8573ffffffffffffffffffffffffffffffffffffffff1673ffffffffffffffffffffffffffffffffffffffff1681526020019081526020015f205f828254610ab19190611f33565b925050819055505f8373ffffffffffffffffffffffffffffffffffffffff1663a9059cbb33856040518363ffffffff1660e01b8152600401610af492919061212d565b6020604051808303815f875af1158015610b10573d5f5f3e3d5ffd5b505050506040513d601f19601f82011682018060405250810190610b349190611dd5565b905080610b76576040517f08c379a0000000000000000000000000000000000000000000000000000000008152600401610b6d9061219e565b60405180910390fd5b8373ffffffffffffffffffffffffffffffffffffffff163373ffffffffffffffffffffffffffffffffffffffff167f9b1bfa7fa9ee420a16e124f794c35ac9f90472acc99140eb2f6447c714cad8eb85604051610bd391906121bc565b60405180910390a350505050565b60605f5f3373ffffffffffffffffffffffffffffffffffffffff1673ffffffffffffffffffffffffffffffffffffffff1681526020019081526020015f20600201805480602002602001604051908101604052809291908181526020018280548015610c9f57602002820191905f5260205f20905b815f9054906101000a900473ffffffffffffffffffffffffffffffffffffffff1673ffffffffffffffffffffffffffffffffffffffff1681526020019060010190808311610c56575b5050505050905090565b610cb1611734565b5f600280018054905090505f8167ffffffffffffffff811115610cd757610cd6612003565b5b604051908082528060200260200182016040528015610d055781602001602082028036833780820191505090505b5090505f8267ffffffffffffffff811115610d2357610d22612003565b5b604051908082528060200260200182016040528015610d515781602001602082028036833780820191505090505b5090505f5f90505b83811015610e5e575f600280018281548110610d7857610d77612030565b5b905f5260205f20015f9054906101000a900473ffffffffffffffffffffffffffffffffffffffff16905080848381518110610db657610db5612030565b5b602002602001019073ffffffffffffffffffffffffffffffffffffffff16908173ffffffffffffffffffffffffffffffffffffffff168152505060026001015f8273ffffffffffffffffffffffffffffffffffffffff1673ffffffffffffffffffffffffffffffffffffffff1681526020019081526020015f2054838381518110610e4457610e43612030565b5b602002602001018181525050508080600101915050610d59565b50604051806060016040528060025f015f9054906101000a900460ff161515815260200183815260200182815250935050505090565b5f5f5f3373ffffffffffffffffffffffffffffffffffffffff1673ffffffffffffffffffffffffffffffffffffffff1681526020019081526020015f209050805f015f9054906101000a900460ff16610f22576040517f08c379a0000000000000000000000000000000000000000000000000000000008152600401610f19906120a7565b60405180910390fd5b81816001015f73eeeeeeeeeeeeeeeeeeeeeeeeeeeeeeeeeeeeeeee73ffffffffffffffffffffffffffffffffffffffff1673ffffffffffffffffffffffffffffffffffffffff1681526020019081526020015f20541015610fb8576040517f08c379a0000000000000000000000000000000000000000000000000000000008152600401610faf9061221f565b60405180910390fd5b81816001015f73eeeeeeeeeeeeeeeeeeeeeeeeeeeeeeeeeeeeeeee73ffffffffffffffffffffffffffffffffffffffff1673ffffffffffffffffffffffffffffffffffffffff1681526020019081526020015f205f82825461101a9190611f33565b925050819055505f3373ffffffffffffffffffffffffffffffffffffffff16836040516110469061226a565b5f6040518083038185875af1925050503d805f8114611080576040519150601f19603f3d011682016040523d82523d5f602084013e611085565b606091505b50509050806110c9576040517f08c379a00000000000000000000000000000000000000000000000000000000081526004016110c0906122c8565b60405180910390fd5b73eeeeeeeeeeeeeeeeeeeeeeeeeeeeeeeeeeeeeeee73ffffffffffffffffffffffffffffffffffffffff163373ffffffffffffffffffffffffffffffffffffffff167f9b1bfa7fa9ee420a16e124f794c35ac9f90472acc99140eb2f6447c714cad8eb8560405161113a91906121bc565b60405180910390a3505050565b60015f3373ffffffffffffffffffffffffffffffffffffffff1673ffffffffffffffffffffffffffffffffffffffff1681526020019081526020015f205f9054906101000a900460ff166111d0576040517f08c379a00000000000000000000000000000000000000000000000000000000081526004016111c790611c6a565b60405180910390fd5b5f3411611212576040517f08c379a000000000000000000000000000000000000000000000000000000000815260040161120990612330565b60405180910390fd5b61121b336114da565b5f61271061ffff16603261ffff16346112349190611e95565b61123e9190611f03565b90505f813461124d9190611f33565b90505f8111611291576040517f08c379a000000000000000000000000000000000000000000000000000000000815260040161128890611fb0565b60405180910390fd5b6112af73eeeeeeeeeeeeeeeeeeeeeeeeeeeeeeeeeeeeeeee8361134f565b6112ce3373eeeeeeeeeeeeeeeeeeeeeeeeeeeeeeeeeeeeeeee83611590565b73eeeeeeeeeeeeeeeeeeeeeeeeeeeeeeeeeeeeeeee73ffffffffffffffffffffffffffffffffffffffff163373ffffffffffffffffffffffffffffffffffffffff167f4e2ca0515ed1aef1395f66b5303bb5d6f1bf9d61a353fa53f73f8ac9973fa9f634858560405161134393929190611fce565b60405180910390a35050565b5f8103156114d65760026003015f8373ffffffffffffffffffffffffffffffffffffffff1673ffffffffffffffffffffffffffffffffffffffff1681526020019081526020015f205f9054906101000a900460ff1661146357600160026003015f8473ffffffffffffffffffffffffffffffffffffffff1673ffffffffffffffffffffffffffffffffffffffff1681526020019081526020015f205f6101000a81548160ff0219169083151502179055506002800182908060018154018082558091505060019003905f5260205f20015f9091909190916101000a81548173ffffffffffffffffffffffffffffffffffffffff021916908373ffffffffffffffffffffffffffffffffffffffff1602179055505b8060026001015f8473ffffffffffffffffffffffffffffffffffffffff1673ffffffffffffffffffffffffffffffffffffffff1681526020019081526020015f205f8282546114b2919061234e565b92505081905550600160025f015f6101000a81548160ff0219169083151502179055505b5050565b5f5f5f8373ffffffffffffffffffffffffffffffffffffffff1673ffffffffffffffffffffffffffffffffffffffff1681526020019081526020015f209050805f015f9054906101000a900460ff1661158c576001815f015f6101000a81548160ff0219169083151502179055508173ffffffffffffffffffffffffffffffffffffffff167f2e49a5810fda2439a23771848b4acec786b0a64d4de3d124ac57fc8739c3887560405160405180910390a25b5050565b5f5f5f8573ffffffffffffffffffffffffffffffffffffffff1673ffffffffffffffffffffffffffffffffffffffff1681526020019081526020015f209050806003015f8473ffffffffffffffffffffffffffffffffffffffff1673ffffffffffffffffffffffffffffffffffffffff1681526020019081526020015f205f9054906101000a900460ff166116d9576001816003015f8573ffffffffffffffffffffffffffffffffffffffff1673ffffffffffffffffffffffffffffffffffffffff1681526020019081526020015f205f6101000a81548160ff0219169083151502179055508060020183908060018154018082558091505060019003905f5260205f20015f9091909190916101000a81548173ffffffffffffffffffffffffffffffffffffffff021916908373ffffffffffffffffffffffffffffffffffffffff1602179055505b81816001015f8573ffffffffffffffffffffffffffffffffffffffff1673ffffffffffffffffffffffffffffffffffffffff1681526020019081526020015f205f828254611727919061234e565b9250508190555050505050565b60405180606001604052805f1515815260200160608152602001606081525090565b5f82825260208201905092915050565b7f557365206465706f7369744554480000000000000000000000000000000000005f82015250565b5f61179a600e83611756565b91506117a582611766565b602082019050919050565b5f6020820190508181035f8301526117c78161178e565b9050919050565b5f5ffd5b5f73ffffffffffffffffffffffffffffffffffffffff82169050919050565b5f6117fb826117d2565b9050919050565b61180b816117f1565b8114611815575f5ffd5b50565b5f8135905061182681611802565b92915050565b5f819050919050565b61183e8161182c565b8114611848575f5ffd5b50565b5f8135905061185981611835565b92915050565b5f5f60408385031215611875576118746117ce565b5b5f61188285828601611818565b92505060206118938582860161184b565b9150509250929050565b5f8115159050919050565b6118b18161189d565b82525050565b5f81519050919050565b5f82825260208201905092915050565b5f819050602082019050919050565b6118e9816117f1565b82525050565b5f6118fa83836118e0565b60208301905092915050565b5f602082019050919050565b5f61191c826118b7565b61192681856118c1565b9350611931836118d1565b805f5b8381101561196157815161194888826118ef565b975061195383611906565b925050600181019050611934565b5085935050505092915050565b5f81519050919050565b5f82825260208201905092915050565b5f819050602082019050919050565b6119a08161182c565b82525050565b5f6119b18383611997565b60208301905092915050565b5f602082019050919050565b5f6119d38261196e565b6119dd8185611978565b93506119e883611988565b805f5b83811015611a185781516119ff88826119a6565b9750611a0a836119bd565b9250506001810190506119eb565b5085935050505092915050565b5f606083015f830151611a3a5f8601826118a8565b5060208301518482036020860152611a528282611912565b91505060408301518482036040860152611a6c82826119c9565b9150508091505092915050565b5f6020820190508181035f830152611a918184611a25565b905092915050565b5f82825260208201905092915050565b5f611ab3826118b7565b611abd8185611a99565b9350611ac8836118d1565b805f5b83811015611af8578151611adf88826118ef565b9750611aea83611906565b925050600181019050611acb565b5085935050505092915050565b5f6020820190508181035f830152611b1d8184611aa9565b905092915050565b5f60208284031215611b3a57611b396117ce565b5b5f611b478482850161184b565b91505092915050565b7f5661756c7420616c7265616479206372656174656400000000000000000000005f82015250565b5f611b84601583611756565b9150611b8f82611b50565b602082019050919050565b5f6020820190508181035f830152611bb181611b78565b9050919050565b7f457861637420302e3120455448207265717569726564000000000000000000005f82015250565b5f611bec601683611756565b9150611bf782611bb8565b602082019050919050565b5f6020820190508181035f830152611c1981611be0565b9050919050565b7f437265617465207661756c7420666972737400000000000000000000000000005f82015250565b5f611c54601283611756565b9150611c5f82611c20565b602082019050919050565b5f6020820190508181035f830152611c8181611c48565b9050919050565b7f496e76616c696420746f6b656e000000000000000000000000000000000000005f82015250565b5f611cbc600d83611756565b9150611cc782611c88565b602082019050919050565b5f6020820190508181035f830152611ce981611cb0565b9050919050565b7f416d6f756e74206d757374206265203e203000000000000000000000000000005f82015250565b5f611d24601283611756565b9150611d2f82611cf0565b602082019050919050565b5f6020820190508181035f830152611d5181611d18565b9050919050565b611d61816117f1565b82525050565b611d708161182c565b82525050565b5f606082019050611d895f830186611d58565b611d966020830185611d58565b611da36040830184611d67565b949350505050565b611db48161189d565b8114611dbe575f5ffd5b50565b5f81519050611dcf81611dab565b92915050565b5f60208284031215611dea57611de96117ce565b5b5f611df784828501611dc1565b91505092915050565b7f7472616e7366657246726f6d206661696c6564000000000000000000000000005f82015250565b5f611e34601383611756565b9150611e3f82611e00565b602082019050919050565b5f6020820190508181035f830152611e6181611e28565b9050919050565b7f4e487b71000000000000000000000000000000000000000000000000000000005f52601160045260245ffd5b5f611e9f8261182c565b9150611eaa8361182c565b9250828202611eb88161182c565b91508282048414831517611ecf57611ece611e68565b5b5092915050565b7f4e487b71000000000000000000000000000000000000000000000000000000005f52601260045260245ffd5b5f611f0d8261182c565b9150611f188361182c565b925082611f2857611f27611ed6565b5b828204905092915050565b5f611f3d8261182c565b9150611f488361182c565b9250828203905081811115611f6057611f5f611e68565b5b92915050565b7f4e6574206973207a65726f0000000000000000000000000000000000000000005f82015250565b5f611f9a600b83611756565b9150611fa582611f66565b602082019050919050565b5f6020820190508181035f830152611fc781611f8e565b9050919050565b5f606082019050611fe15f830186611d67565b611fee6020830185611d67565b611ffb6040830184611d67565b949350505050565b7f4e487b71000000000000000000000000000000000000000000000000000000005f52604160045260245ffd5b7f4e487b71000000000000000000000000000000000000000000000000000000005f52603260045260245ffd5b7f5661756c7420646f6573206e6f742065786973740000000000000000000000005f82015250565b5f612091601483611756565b915061209c8261205d565b602082019050919050565b5f6020820190508181035f8301526120be81612085565b9050919050565b7f496e73756666696369656e742062616c616e63650000000000000000000000005f82015250565b5f6120f9601483611756565b9150612104826120c5565b602082019050919050565b5f6020820190508181035f830152612126816120ed565b9050919050565b5f6040820190506121405f830185611d58565b61214d6020830184611d67565b9392505050565b7f4552433230207472616e73666572206661696c656400000000000000000000005f82015250565b5f612188601583611756565b915061219382612154565b602082019050919050565b5f6020820190508181035f8301526121b58161217c565b9050919050565b5f6020820190506121cf5f830184611d67565b92915050565b7f496e73756666696369656e7420455448000000000000000000000000000000005f82015250565b5f612209601083611756565b9150612214826121d5565b602082019050919050565b5f6020820190508181035f830152612236816121fd565b9050919050565b5f81905092915050565b50565b5f6122555f8361223d565b915061226082612247565b5f82019050919050565b5f6122748261224a565b9150819050919050565b7f455448207472616e73666572206661696c6564000000000000000000000000005f82015250565b5f6122b2601383611756565b91506122bd8261227e565b602082019050919050565b5f6020820190508181035f8301526122df816122a6565b9050919050565b7f4e6f204554482073656e740000000000000000000000000000000000000000005f82015250565b5f61231a600b83611756565b9150612325826122e6565b602082019050919050565b5f6020820190508181035f8301526123478161230e565b9050919050565b5f6123588261182c565b91506123638361182c565b925082820190508082111561237b5761237a611e68565b5b9291505056fea2646970667358221220f794c0dac0447e868205afac6fdabf64bc540056a6bbd0ad85d6914ca238129f64736f6c634300081e0033",
					"opcodes": "PUSH1 0x80 PUSH1 0x40 MSTORE CALLVALUE DUP1 ISZERO PUSH1 0xE JUMPI PUSH0 PUSH0 REVERT JUMPDEST POP PUSH2 0x23B7 DUP1 PUSH2 0x1C PUSH0 CODECOPY PUSH0 RETURN INVALID PUSH1 0x80 PUSH1 0x40 MSTORE PUSH1 0x4 CALLDATASIZE LT PUSH2 0x7E JUMPI PUSH0 CALLDATALOAD PUSH1 0xE0 SHR DUP1 PUSH4 0xAA6CA808 GT PUSH2 0x4D JUMPI DUP1 PUSH4 0xAA6CA808 EQ PUSH2 0x13A JUMPI DUP1 PUSH4 0xECB07464 EQ PUSH2 0x164 JUMPI DUP1 PUSH4 0xF14210A6 EQ PUSH2 0x18E JUMPI DUP1 PUSH4 0xF6326FB3 EQ PUSH2 0x1B6 JUMPI PUSH2 0xBE JUMP JUMPDEST DUP1 PUSH4 0x5D12928B EQ PUSH2 0xC2 JUMPI DUP1 PUSH4 0x97FEB926 EQ PUSH2 0xCC JUMPI DUP1 PUSH4 0x9F5F0520 EQ PUSH2 0xE8 JUMPI DUP1 PUSH4 0xA1DB9782 EQ PUSH2 0x112 JUMPI PUSH2 0xBE JUMP JUMPDEST CALLDATASIZE PUSH2 0xBE JUMPI PUSH1 0x40 MLOAD PUSH32 0x8C379A000000000000000000000000000000000000000000000000000000000 DUP2 MSTORE PUSH1 0x4 ADD PUSH2 0xB5 SWAP1 PUSH2 0x17B0 JUMP JUMPDEST PUSH1 0x40 MLOAD DUP1 SWAP2 SUB SWAP1 REVERT JUMPDEST PUSH0 PUSH0 REVERT JUMPDEST PUSH2 0xCA PUSH2 0x1C0 JUMP JUMPDEST STOP JUMPDEST PUSH2 0xE6 PUSH1 0x4 DUP1 CALLDATASIZE SUB DUP2 ADD SWAP1 PUSH2 0xE1 SWAP2 SWAP1 PUSH2 0x185F JUMP JUMPDEST PUSH2 0x3BF JUMP JUMPDEST STOP JUMPDEST CALLVALUE DUP1 ISZERO PUSH2 0xF3 JUMPI PUSH0 PUSH0 REVERT JUMPDEST POP PUSH2 0xFC PUSH2 0x6BC JUMP JUMPDEST PUSH1 0x40 MLOAD PUSH2 0x109 SWAP2 SWAP1 PUSH2 0x1A79 JUMP JUMPDEST PUSH1 0x40 MLOAD DUP1 SWAP2 SUB SWAP1 RETURN JUMPDEST CALLVALUE DUP1 ISZERO PUSH2 0x11D JUMPI PUSH0 PUSH0 REVERT JUMPDEST POP PUSH2 0x138 PUSH1 0x4 DUP1 CALLDATASIZE SUB DUP2 ADD SWAP1 PUSH2 0x133 SWAP2 SWAP1 PUSH2 0x185F JUMP JUMPDEST PUSH2 0x8E5 JUMP JUMPDEST STOP JUMPDEST CALLVALUE DUP1 ISZERO PUSH2 0x145 JUMPI PUSH0 PUSH0 REVERT JUMPDEST POP PUSH2 0x14E PUSH2 0xBE1 JUMP JUMPDEST PUSH1 0x40 MLOAD PUSH2 0x15B SWAP2 SWAP1 PUSH2 0x1B05 JUMP JUMPDEST PUSH1 0x40 MLOAD DUP1 SWAP2 SUB SWAP1 RETURN JUMPDEST CALLVALUE DUP1 ISZERO PUSH2 0x16F JUMPI PUSH0 PUSH0 REVERT JUMPDEST POP PUSH2 0x178 PUSH2 0xCA9 JUMP JUMPDEST PUSH1 0x40 MLOAD PUSH2 0x185 SWAP2 SWAP1 PUSH2 0x1A79 JUMP JUMPDEST PUSH1 0x40 MLOAD DUP1 SWAP2 SUB SWAP1 RETURN JUMPDEST CALLVALUE DUP1 ISZERO PUSH2 0x199 JUMPI PUSH0 PUSH0 REVERT JUMPDEST POP PUSH2 0x1B4 PUSH1 0x4 DUP1 CALLDATASIZE SUB DUP2 ADD SWAP1 PUSH2 0x1AF SWAP2 SWAP1 PUSH2 0x1B25 JUMP JUMPDEST PUSH2 0xE94 JUMP JUMPDEST STOP JUMPDEST PUSH2 0x1BE PUSH2 0x1147 JUMP JUMPDEST STOP JUMPDEST PUSH1 0x1 PUSH0 CALLER PUSH20 0xFFFFFFFFFFFFFFFFFFFFFFFFFFFFFFFFFFFFFFFF AND PUSH20 0xFFFFFFFFFFFFFFFFFFFFFFFFFFFFFFFFFFFFFFFF AND DUP2 MSTORE PUSH1 0x20 ADD SWAP1 DUP2 MSTORE PUSH1 0x20 ADD PUSH0 KECCAK256 PUSH0 SWAP1 SLOAD SWAP1 PUSH2 0x100 EXP SWAP1 DIV PUSH1 0xFF AND ISZERO PUSH2 0x24A JUMPI PUSH1 0x40 MLOAD PUSH32 0x8C379A000000000000000000000000000000000000000000000000000000000 DUP2 MSTORE PUSH1 0x4 ADD PUSH2 0x241 SWAP1 PUSH2 0x1B9A JUMP JUMPDEST PUSH1 0x40 MLOAD DUP1 SWAP2 SUB SWAP1 REVERT JUMPDEST PUSH6 0x5AF3107A4000 CALLVALUE EQ PUSH2 0x292 JUMPI PUSH1 0x40 MLOAD PUSH32 0x8C379A000000000000000000000000000000000000000000000000000000000 DUP2 MSTORE PUSH1 0x4 ADD PUSH2 0x289 SWAP1 PUSH2 0x1C02 JUMP JUMPDEST PUSH1 0x40 MLOAD DUP1 SWAP2 SUB SWAP1 REVERT JUMPDEST PUSH1 0x1 DUP1 PUSH0 CALLER PUSH20 0xFFFFFFFFFFFFFFFFFFFFFFFFFFFFFFFFFFFFFFFF AND PUSH20 0xFFFFFFFFFFFFFFFFFFFFFFFFFFFFFFFFFFFFFFFF AND DUP2 MSTORE PUSH1 0x20 ADD SWAP1 DUP2 MSTORE PUSH1 0x20 ADD PUSH0 KECCAK256 PUSH0 PUSH2 0x100 EXP DUP2 SLOAD DUP2 PUSH1 0xFF MUL NOT AND SWAP1 DUP4 ISZERO ISZERO MUL OR SWAP1 SSTORE POP PUSH0 PUSH0 PUSH0 CALLER PUSH20 0xFFFFFFFFFFFFFFFFFFFFFFFFFFFFFFFFFFFFFFFF AND PUSH20 0xFFFFFFFFFFFFFFFFFFFFFFFFFFFFFFFFFFFFFFFF AND DUP2 MSTORE PUSH1 0x20 ADD SWAP1 DUP2 MSTORE PUSH1 0x20 ADD PUSH0 KECCAK256 SWAP1 POP DUP1 PUSH0 ADD PUSH0 SWAP1 SLOAD SWAP1 PUSH2 0x100 EXP SWAP1 DIV PUSH1 0xFF AND PUSH2 0x3BC JUMPI PUSH2 0x35D PUSH20 0xEEEEEEEEEEEEEEEEEEEEEEEEEEEEEEEEEEEEEEEE PUSH6 0x5AF3107A4000 PUSH2 0x134F JUMP JUMPDEST PUSH1 0x1 DUP2 PUSH0 ADD PUSH0 PUSH2 0x100 EXP DUP2 SLOAD DUP2 PUSH1 0xFF MUL NOT AND SWAP1 DUP4 ISZERO ISZERO MUL OR SWAP1 SSTORE POP CALLER PUSH20 0xFFFFFFFFFFFFFFFFFFFFFFFFFFFFFFFFFFFFFFFF AND PUSH32 0x2E49A5810FDA2439A23771848B4ACEC786B0A64D4DE3D124AC57FC8739C38875 PUSH1 0x40 MLOAD PUSH1 0x40 MLOAD DUP1 SWAP2 SUB SWAP1 LOG2 JUMPDEST POP JUMP JUMPDEST PUSH1 0x1 PUSH0 CALLER PUSH20 0xFFFFFFFFFFFFFFFFFFFFFFFFFFFFFFFFFFFFFFFF AND PUSH20 0xFFFFFFFFFFFFFFFFFFFFFFFFFFFFFFFFFFFFFFFF AND DUP2 MSTORE PUSH1 0x20 ADD SWAP1 DUP2 MSTORE PUSH1 0x20 ADD PUSH0 KECCAK256 PUSH0 SWAP1 SLOAD SWAP1 PUSH2 0x100 EXP SWAP1 DIV PUSH1 0xFF AND PUSH2 0x448 JUMPI PUSH1 0x40 MLOAD PUSH32 0x8C379A000000000000000000000000000000000000000000000000000000000 DUP2 MSTORE PUSH1 0x4 ADD PUSH2 0x43F SWAP1 PUSH2 0x1C6A JUMP JUMPDEST PUSH1 0x40 MLOAD DUP1 SWAP2 SUB SWAP1 REVERT JUMPDEST PUSH0 PUSH20 0xFFFFFFFFFFFFFFFFFFFFFFFFFFFFFFFFFFFFFFFF AND DUP3 PUSH20 0xFFFFFFFFFFFFFFFFFFFFFFFFFFFFFFFFFFFFFFFF AND SUB PUSH2 0x4B6 JUMPI PUSH1 0x40 MLOAD PUSH32 0x8C379A000000000000000000000000000000000000000000000000000000000 DUP2 MSTORE PUSH1 0x4 ADD PUSH2 0x4AD SWAP1 PUSH2 0x1CD2 JUMP JUMPDEST PUSH1 0x40 MLOAD DUP1 SWAP2 SUB SWAP1 REVERT JUMPDEST PUSH0 DUP2 GT PUSH2 0x4F8 JUMPI PUSH1 0x40 MLOAD PUSH32 0x8C379A000000000000000000000000000000000000000000000000000000000 DUP2 MSTORE PUSH1 0x4 ADD PUSH2 0x4EF SWAP1 PUSH2 0x1D3A JUMP JUMPDEST PUSH1 0x40 MLOAD DUP1 SWAP2 SUB SWAP1 REVERT JUMPDEST PUSH2 0x501 CALLER PUSH2 0x14DA JUMP JUMPDEST PUSH0 DUP3 PUSH20 0xFFFFFFFFFFFFFFFFFFFFFFFFFFFFFFFFFFFFFFFF AND PUSH4 0x23B872DD CALLER ADDRESS DUP6 PUSH1 0x40 MLOAD DUP5 PUSH4 0xFFFFFFFF AND PUSH1 0xE0 SHL DUP2 MSTORE PUSH1 0x4 ADD PUSH2 0x53F SWAP4 SWAP3 SWAP2 SWAP1 PUSH2 0x1D76 JUMP JUMPDEST PUSH1 0x20 PUSH1 0x40 MLOAD DUP1 DUP4 SUB DUP2 PUSH0 DUP8 GAS CALL ISZERO DUP1 ISZERO PUSH2 0x55B JUMPI RETURNDATASIZE PUSH0 PUSH0 RETURNDATACOPY RETURNDATASIZE PUSH0 REVERT JUMPDEST POP POP POP POP PUSH1 0x40 MLOAD RETURNDATASIZE PUSH1 0x1F NOT PUSH1 0x1F DUP3 ADD AND DUP3 ADD DUP1 PUSH1 0x40 MSTORE POP DUP2 ADD SWAP1 PUSH2 0x57F SWAP2 SWAP1 PUSH2 0x1DD5 JUMP JUMPDEST SWAP1 POP DUP1 PUSH2 0x5C1 JUMPI PUSH1 0x40 MLOAD PUSH32 0x8C379A000000000000000000000000000000000000000000000000000000000 DUP2 MSTORE PUSH1 0x4 ADD PUSH2 0x5B8 SWAP1 PUSH2 0x1E4A JUMP JUMPDEST PUSH1 0x40 MLOAD DUP1 SWAP2 SUB SWAP1 REVERT JUMPDEST PUSH0 PUSH2 0x2710 PUSH2 0xFFFF AND PUSH1 0x32 PUSH2 0xFFFF AND DUP5 PUSH2 0x5DA SWAP2 SWAP1 PUSH2 0x1E95 JUMP JUMPDEST PUSH2 0x5E4 SWAP2 SWAP1 PUSH2 0x1F03 JUMP JUMPDEST SWAP1 POP PUSH0 DUP2 DUP5 PUSH2 0x5F3 SWAP2 SWAP1 PUSH2 0x1F33 JUMP JUMPDEST SWAP1 POP PUSH0 DUP2 GT PUSH2 0x637 JUMPI PUSH1 0x40 MLOAD PUSH32 0x8C379A000000000000000000000000000000000000000000000000000000000 DUP2 MSTORE PUSH1 0x4 ADD PUSH2 0x62E SWAP1 PUSH2 0x1FB0 JUMP JUMPDEST PUSH1 0x40 MLOAD DUP1 SWAP2 SUB SWAP1 REVERT JUMPDEST PUSH2 0x641 DUP6 DUP4 PUSH2 0x134F JUMP JUMPDEST PUSH2 0x64C CALLER DUP7 DUP4 PUSH2 0x1590 JUMP JUMPDEST DUP5 PUSH20 0xFFFFFFFFFFFFFFFFFFFFFFFFFFFFFFFFFFFFFFFF AND CALLER PUSH20 0xFFFFFFFFFFFFFFFFFFFFFFFFFFFFFFFFFFFFFFFF AND PUSH32 0x4E2CA0515ED1AEF1395F66B5303BB5D6F1BF9D61A353FA53F73F8AC9973FA9F6 DUP7 DUP6 DUP6 PUSH1 0x40 MLOAD PUSH2 0x6AD SWAP4 SWAP3 SWAP2 SWAP1 PUSH2 0x1FCE JUMP JUMPDEST PUSH1 0x40 MLOAD DUP1 SWAP2 SUB SWAP1 LOG3 POP POP POP POP POP JUMP JUMPDEST PUSH2 0x6C4 PUSH2 0x1734 JUMP JUMPDEST PUSH0 PUSH0 PUSH0 CALLER PUSH20 0xFFFFFFFFFFFFFFFFFFFFFFFFFFFFFFFFFFFFFFFF AND PUSH20 0xFFFFFFFFFFFFFFFFFFFFFFFFFFFFFFFFFFFFFFFF AND DUP2 MSTORE PUSH1 0x20 ADD SWAP1 DUP2 MSTORE PUSH1 0x20 ADD PUSH0 KECCAK256 SWAP1 POP PUSH0 DUP2 PUSH1 0x2 ADD DUP1 SLOAD SWAP1 POP SWAP1 POP PUSH0 DUP2 PUSH8 0xFFFFFFFFFFFFFFFF DUP2 GT ISZERO PUSH2 0x729 JUMPI PUSH2 0x728 PUSH2 0x2003 JUMP JUMPDEST JUMPDEST PUSH1 0x40 MLOAD SWAP1 DUP1 DUP3 MSTORE DUP1 PUSH1 0x20 MUL PUSH1 0x20 ADD DUP3 ADD PUSH1 0x40 MSTORE DUP1 ISZERO PUSH2 0x757 JUMPI DUP2 PUSH1 0x20 ADD PUSH1 0x20 DUP3 MUL DUP1 CALLDATASIZE DUP4 CALLDATACOPY DUP1 DUP3 ADD SWAP2 POP POP SWAP1 POP JUMPDEST POP SWAP1 POP PUSH0 DUP3 PUSH8 0xFFFFFFFFFFFFFFFF DUP2 GT ISZERO PUSH2 0x775 JUMPI PUSH2 0x774 PUSH2 0x2003 JUMP JUMPDEST JUMPDEST PUSH1 0x40 MLOAD SWAP1 DUP1 DUP3 MSTORE DUP1 PUSH1 0x20 MUL PUSH1 0x20 ADD DUP3 ADD PUSH1 0x40 MSTORE DUP1 ISZERO PUSH2 0x7A3 JUMPI DUP2 PUSH1 0x20 ADD PUSH1 0x20 DUP3 MUL DUP1 CALLDATASIZE DUP4 CALLDATACOPY DUP1 DUP3 ADD SWAP2 POP POP SWAP1 POP JUMPDEST POP SWAP1 POP PUSH0 PUSH0 SWAP1 POP JUMPDEST DUP4 DUP2 LT ISZERO PUSH2 0x8AF JUMPI PUSH0 DUP6 PUSH1 0x2 ADD DUP3 DUP2 SLOAD DUP2 LT PUSH2 0x7CA JUMPI PUSH2 0x7C9 PUSH2 0x2030 JUMP JUMPDEST JUMPDEST SWAP1 PUSH0 MSTORE PUSH1 0x20 PUSH0 KECCAK256 ADD PUSH0 SWAP1 SLOAD SWAP1 PUSH2 0x100 EXP SWAP1 DIV PUSH20 0xFFFFFFFFFFFFFFFFFFFFFFFFFFFFFFFFFFFFFFFF AND SWAP1 POP DUP1 DUP5 DUP4 DUP2 MLOAD DUP2 LT PUSH2 0x808 JUMPI PUSH2 0x807 PUSH2 0x2030 JUMP JUMPDEST JUMPDEST PUSH1 0x20 MUL PUSH1 0x20 ADD ADD SWAP1 PUSH20 0xFFFFFFFFFFFFFFFFFFFFFFFFFFFFFFFFFFFFFFFF AND SWAP1 DUP2 PUSH20 0xFFFFFFFFFFFFFFFFFFFFFFFFFFFFFFFFFFFFFFFF AND DUP2 MSTORE POP POP DUP6 PUSH1 0x1 ADD PUSH0 DUP3 PUSH20 0xFFFFFFFFFFFFFFFFFFFFFFFFFFFFFFFFFFFFFFFF AND PUSH20 0xFFFFFFFFFFFFFFFFFFFFFFFFFFFFFFFFFFFFFFFF AND DUP2 MSTORE PUSH1 0x20 ADD SWAP1 DUP2 MSTORE PUSH1 0x20 ADD PUSH0 KECCAK256 SLOAD DUP4 DUP4 DUP2 MLOAD DUP2 LT PUSH2 0x895 JUMPI PUSH2 0x894 PUSH2 0x2030 JUMP JUMPDEST JUMPDEST PUSH1 0x20 MUL PUSH1 0x20 ADD ADD DUP2 DUP2 MSTORE POP POP POP DUP1 DUP1 PUSH1 0x1 ADD SWAP2 POP POP PUSH2 0x7AB JUMP JUMPDEST POP PUSH1 0x40 MLOAD DUP1 PUSH1 0x60 ADD PUSH1 0x40 MSTORE DUP1 DUP6 PUSH0 ADD PUSH0 SWAP1 SLOAD SWAP1 PUSH2 0x100 EXP SWAP1 DIV PUSH1 0xFF AND ISZERO ISZERO DUP2 MSTORE PUSH1 0x20 ADD DUP4 DUP2 MSTORE PUSH1 0x20 ADD DUP3 DUP2 MSTORE POP SWAP5 POP POP POP POP POP SWAP1 JUMP JUMPDEST PUSH0 PUSH20 0xFFFFFFFFFFFFFFFFFFFFFFFFFFFFFFFFFFFFFFFF AND DUP3 PUSH20 0xFFFFFFFFFFFFFFFFFFFFFFFFFFFFFFFFFFFFFFFF AND SUB PUSH2 0x953 JUMPI PUSH1 0x40 MLOAD PUSH32 0x8C379A000000000000000000000000000000000000000000000000000000000 DUP2 MSTORE PUSH1 0x4 ADD PUSH2 0x94A SWAP1 PUSH2 0x1CD2 JUMP JUMPDEST PUSH1 0x40 MLOAD DUP1 SWAP2 SUB SWAP1 REVERT JUMPDEST PUSH0 PUSH0 PUSH0 CALLER PUSH20 0xFFFFFFFFFFFFFFFFFFFFFFFFFFFFFFFFFFFFFFFF AND PUSH20 0xFFFFFFFFFFFFFFFFFFFFFFFFFFFFFFFFFFFFFFFF AND DUP2 MSTORE PUSH1 0x20 ADD SWAP1 DUP2 MSTORE PUSH1 0x20 ADD PUSH0 KECCAK256 SWAP1 POP DUP1 PUSH0 ADD PUSH0 SWAP1 SLOAD SWAP1 PUSH2 0x100 EXP SWAP1 DIV PUSH1 0xFF AND PUSH2 0x9E1 JUMPI PUSH1 0x40 MLOAD PUSH32 0x8C379A000000000000000000000000000000000000000000000000000000000 DUP2 MSTORE PUSH1 0x4 ADD PUSH2 0x9D8 SWAP1 PUSH2 0x20A7 JUMP JUMPDEST PUSH1 0x40 MLOAD DUP1 SWAP2 SUB SWAP1 REVERT JUMPDEST DUP2 DUP2 PUSH1 0x1 ADD PUSH0 DUP6 PUSH20 0xFFFFFFFFFFFFFFFFFFFFFFFFFFFFFFFFFFFFFFFF AND PUSH20 0xFFFFFFFFFFFFFFFFFFFFFFFFFFFFFFFFFFFFFFFF AND DUP2 MSTORE PUSH1 0x20 ADD SWAP1 DUP2 MSTORE PUSH1 0x20 ADD PUSH0 KECCAK256 SLOAD LT ISZERO PUSH2 0xA63 JUMPI PUSH1 0x40 MLOAD PUSH32 0x8C379A000000000000000000000000000000000000000000000000000000000 DUP2 MSTORE PUSH1 0x4 ADD PUSH2 0xA5A SWAP1 PUSH2 0x210F JUMP JUMPDEST PUSH1 0x40 MLOAD DUP1 SWAP2 SUB SWAP1 REVERT JUMPDEST DUP2 DUP2 PUSH1 0x1 ADD PUSH0 DUP6 PUSH20 0xFFFFFFFFFFFFFFFFFFFFFFFFFFFFFFFFFFFFFFFF AND PUSH20 0xFFFFFFFFFFFFFFFFFFFFFFFFFFFFFFFFFFFFFFFF AND DUP2 MSTORE PUSH1 0x20 ADD SWAP1 DUP2 MSTORE PUSH1 0x20 ADD PUSH0 KECCAK256 PUSH0 DUP3 DUP3 SLOAD PUSH2 0xAB1 SWAP2 SWAP1 PUSH2 0x1F33 JUMP JUMPDEST SWAP3 POP POP DUP2 SWAP1 SSTORE POP PUSH0 DUP4 PUSH20 0xFFFFFFFFFFFFFFFFFFFFFFFFFFFFFFFFFFFFFFFF AND PUSH4 0xA9059CBB CALLER DUP6 PUSH1 0x40 MLOAD DUP4 PUSH4 0xFFFFFFFF AND PUSH1 0xE0 SHL DUP2 MSTORE PUSH1 0x4 ADD PUSH2 0xAF4 SWAP3 SWAP2 SWAP1 PUSH2 0x212D JUMP JUMPDEST PUSH1 0x20 PUSH1 0x40 MLOAD DUP1 DUP4 SUB DUP2 PUSH0 DUP8 GAS CALL ISZERO DUP1 ISZERO PUSH2 0xB10 JUMPI RETURNDATASIZE PUSH0 PUSH0 RETURNDATACOPY RETURNDATASIZE PUSH0 REVERT JUMPDEST POP POP POP POP PUSH1 0x40 MLOAD RETURNDATASIZE PUSH1 0x1F NOT PUSH1 0x1F DUP3 ADD AND DUP3 ADD DUP1 PUSH1 0x40 MSTORE POP DUP2 ADD SWAP1 PUSH2 0xB34 SWAP2 SWAP1 PUSH2 0x1DD5 JUMP JUMPDEST SWAP1 POP DUP1 PUSH2 0xB76 JUMPI PUSH1 0x40 MLOAD PUSH32 0x8C379A000000000000000000000000000000000000000000000000000000000 DUP2 MSTORE PUSH1 0x4 ADD PUSH2 0xB6D SWAP1 PUSH2 0x219E JUMP JUMPDEST PUSH1 0x40 MLOAD DUP1 SWAP2 SUB SWAP1 REVERT JUMPDEST DUP4 PUSH20 0xFFFFFFFFFFFFFFFFFFFFFFFFFFFFFFFFFFFFFFFF AND CALLER PUSH20 0xFFFFFFFFFFFFFFFFFFFFFFFFFFFFFFFFFFFFFFFF AND PUSH32 0x9B1BFA7FA9EE420A16E124F794C35AC9F90472ACC99140EB2F6447C714CAD8EB DUP6 PUSH1 0x40 MLOAD PUSH2 0xBD3 SWAP2 SWAP1 PUSH2 0x21BC JUMP JUMPDEST PUSH1 0x40 MLOAD DUP1 SWAP2 SUB SWAP1 LOG3 POP POP POP POP JUMP JUMPDEST PUSH1 0x60 PUSH0 PUSH0 CALLER PUSH20 0xFFFFFFFFFFFFFFFFFFFFFFFFFFFFFFFFFFFFFFFF AND PUSH20 0xFFFFFFFFFFFFFFFFFFFFFFFFFFFFFFFFFFFFFFFF AND DUP2 MSTORE PUSH1 0x20 ADD SWAP1 DUP2 MSTORE PUSH1 0x20 ADD PUSH0 KECCAK256 PUSH1 0x2 ADD DUP1 SLOAD DUP1 PUSH1 0x20 MUL PUSH1 0x20 ADD PUSH1 0x40 MLOAD SWAP1 DUP2 ADD PUSH1 0x40 MSTORE DUP1 SWAP3 SWAP2 SWAP1 DUP2 DUP2 MSTORE PUSH1 0x20 ADD DUP3 DUP1 SLOAD DUP1 ISZERO PUSH2 0xC9F JUMPI PUSH1 0x20 MUL DUP3 ADD SWAP2 SWAP1 PUSH0 MSTORE PUSH1 0x20 PUSH0 KECCAK256 SWAP1 JUMPDEST DUP2 PUSH0 SWAP1 SLOAD SWAP1 PUSH2 0x100 EXP SWAP1 DIV PUSH20 0xFFFFFFFFFFFFFFFFFFFFFFFFFFFFFFFFFFFFFFFF AND PUSH20 0xFFFFFFFFFFFFFFFFFFFFFFFFFFFFFFFFFFFFFFFF AND DUP2 MSTORE PUSH1 0x20 ADD SWAP1 PUSH1 0x1 ADD SWAP1 DUP1 DUP4 GT PUSH2 0xC56 JUMPI JUMPDEST POP POP POP POP POP SWAP1 POP SWAP1 JUMP JUMPDEST PUSH2 0xCB1 PUSH2 0x1734 JUMP JUMPDEST PUSH0 PUSH1 0x2 DUP1 ADD DUP1 SLOAD SWAP1 POP SWAP1 POP PUSH0 DUP2 PUSH8 0xFFFFFFFFFFFFFFFF DUP2 GT ISZERO PUSH2 0xCD7 JUMPI PUSH2 0xCD6 PUSH2 0x2003 JUMP JUMPDEST JUMPDEST PUSH1 0x40 MLOAD SWAP1 DUP1 DUP3 MSTORE DUP1 PUSH1 0x20 MUL PUSH1 0x20 ADD DUP3 ADD PUSH1 0x40 MSTORE DUP1 ISZERO PUSH2 0xD05 JUMPI DUP2 PUSH1 0x20 ADD PUSH1 0x20 DUP3 MUL DUP1 CALLDATASIZE DUP4 CALLDATACOPY DUP1 DUP3 ADD SWAP2 POP POP SWAP1 POP JUMPDEST POP SWAP1 POP PUSH0 DUP3 PUSH8 0xFFFFFFFFFFFFFFFF DUP2 GT ISZERO PUSH2 0xD23 JUMPI PUSH2 0xD22 PUSH2 0x2003 JUMP JUMPDEST JUMPDEST PUSH1 0x40 MLOAD SWAP1 DUP1 DUP3 MSTORE DUP1 PUSH1 0x20 MUL PUSH1 0x20 ADD DUP3 ADD PUSH1 0x40 MSTORE DUP1 ISZERO PUSH2 0xD51 JUMPI DUP2 PUSH1 0x20 ADD PUSH1 0x20 DUP3 MUL DUP1 CALLDATASIZE DUP4 CALLDATACOPY DUP1 DUP3 ADD SWAP2 POP POP SWAP1 POP JUMPDEST POP SWAP1 POP PUSH0 PUSH0 SWAP1 POP JUMPDEST DUP4 DUP2 LT ISZERO PUSH2 0xE5E JUMPI PUSH0 PUSH1 0x2 DUP1 ADD DUP3 DUP2 SLOAD DUP2 LT PUSH2 0xD78 JUMPI PUSH2 0xD77 PUSH2 0x2030 JUMP JUMPDEST JUMPDEST SWAP1 PUSH0 MSTORE PUSH1 0x20 PUSH0 KECCAK256 ADD PUSH0 SWAP1 SLOAD SWAP1 PUSH2 0x100 EXP SWAP1 DIV PUSH20 0xFFFFFFFFFFFFFFFFFFFFFFFFFFFFFFFFFFFFFFFF AND SWAP1 POP DUP1 DUP5 DUP4 DUP2 MLOAD DUP2 LT PUSH2 0xDB6 JUMPI PUSH2 0xDB5 PUSH2 0x2030 JUMP JUMPDEST JUMPDEST PUSH1 0x20 MUL PUSH1 0x20 ADD ADD SWAP1 PUSH20 0xFFFFFFFFFFFFFFFFFFFFFFFFFFFFFFFFFFFFFFFF AND SWAP1 DUP2 PUSH20 0xFFFFFFFFFFFFFFFFFFFFFFFFFFFFFFFFFFFFFFFF AND DUP2 MSTORE POP POP PUSH1 0x2 PUSH1 0x1 ADD PUSH0 DUP3 PUSH20 0xFFFFFFFFFFFFFFFFFFFFFFFFFFFFFFFFFFFFFFFF AND PUSH20 0xFFFFFFFFFFFFFFFFFFFFFFFFFFFFFFFFFFFFFFFF AND DUP2 MSTORE PUSH1 0x20 ADD SWAP1 DUP2 MSTORE PUSH1 0x20 ADD PUSH0 KECCAK256 SLOAD DUP4 DUP4 DUP2 MLOAD DUP2 LT PUSH2 0xE44 JUMPI PUSH2 0xE43 PUSH2 0x2030 JUMP JUMPDEST JUMPDEST PUSH1 0x20 MUL PUSH1 0x20 ADD ADD DUP2 DUP2 MSTORE POP POP POP DUP1 DUP1 PUSH1 0x1 ADD SWAP2 POP POP PUSH2 0xD59 JUMP JUMPDEST POP PUSH1 0x40 MLOAD DUP1 PUSH1 0x60 ADD PUSH1 0x40 MSTORE DUP1 PUSH1 0x2 PUSH0 ADD PUSH0 SWAP1 SLOAD SWAP1 PUSH2 0x100 EXP SWAP1 DIV PUSH1 0xFF AND ISZERO ISZERO DUP2 MSTORE PUSH1 0x20 ADD DUP4 DUP2 MSTORE PUSH1 0x20 ADD DUP3 DUP2 MSTORE POP SWAP4 POP POP POP POP SWAP1 JUMP JUMPDEST PUSH0 PUSH0 PUSH0 CALLER PUSH20 0xFFFFFFFFFFFFFFFFFFFFFFFFFFFFFFFFFFFFFFFF AND PUSH20 0xFFFFFFFFFFFFFFFFFFFFFFFFFFFFFFFFFFFFFFFF AND DUP2 MSTORE PUSH1 0x20 ADD SWAP1 DUP2 MSTORE PUSH1 0x20 ADD PUSH0 KECCAK256 SWAP1 POP DUP1 PUSH0 ADD PUSH0 SWAP1 SLOAD SWAP1 PUSH2 0x100 EXP SWAP1 DIV PUSH1 0xFF AND PUSH2 0xF22 JUMPI PUSH1 0x40 MLOAD PUSH32 0x8C379A000000000000000000000000000000000000000000000000000000000 DUP2 MSTORE PUSH1 0x4 ADD PUSH2 0xF19 SWAP1 PUSH2 0x20A7 JUMP JUMPDEST PUSH1 0x40 MLOAD DUP1 SWAP2 SUB SWAP1 REVERT JUMPDEST DUP2 DUP2 PUSH1 0x1 ADD PUSH0 PUSH20 0xEEEEEEEEEEEEEEEEEEEEEEEEEEEEEEEEEEEEEEEE PUSH20 0xFFFFFFFFFFFFFFFFFFFFFFFFFFFFFFFFFFFFFFFF AND PUSH20 0xFFFFFFFFFFFFFFFFFFFFFFFFFFFFFFFFFFFFFFFF AND DUP2 MSTORE PUSH1 0x20 ADD SWAP1 DUP2 MSTORE PUSH1 0x20 ADD PUSH0 KECCAK256 SLOAD LT ISZERO PUSH2 0xFB8 JUMPI PUSH1 0x40 MLOAD PUSH32 0x8C379A000000000000000000000000000000000000000000000000000000000 DUP2 MSTORE PUSH1 0x4 ADD PUSH2 0xFAF SWAP1 PUSH2 0x221F JUMP JUMPDEST PUSH1 0x40 MLOAD DUP1 SWAP2 SUB SWAP1 REVERT JUMPDEST DUP2 DUP2 PUSH1 0x1 ADD PUSH0 PUSH20 0xEEEEEEEEEEEEEEEEEEEEEEEEEEEEEEEEEEEEEEEE PUSH20 0xFFFFFFFFFFFFFFFFFFFFFFFFFFFFFFFFFFFFFFFF AND PUSH20 0xFFFFFFFFFFFFFFFFFFFFFFFFFFFFFFFFFFFFFFFF AND DUP2 MSTORE PUSH1 0x20 ADD SWAP1 DUP2 MSTORE PUSH1 0x20 ADD PUSH0 KECCAK256 PUSH0 DUP3 DUP3 SLOAD PUSH2 0x101A SWAP2 SWAP1 PUSH2 0x1F33 JUMP JUMPDEST SWAP3 POP POP DUP2 SWAP1 SSTORE POP PUSH0 CALLER PUSH20 0xFFFFFFFFFFFFFFFFFFFFFFFFFFFFFFFFFFFFFFFF AND DUP4 PUSH1 0x40 MLOAD PUSH2 0x1046 SWAP1 PUSH2 0x226A JUMP JUMPDEST PUSH0 PUSH1 0x40 MLOAD DUP1 DUP4 SUB DUP2 DUP6 DUP8 GAS CALL SWAP3 POP POP POP RETURNDATASIZE DUP1 PUSH0 DUP2 EQ PUSH2 0x1080 JUMPI PUSH1 0x40 MLOAD SWAP2 POP PUSH1 0x1F NOT PUSH1 0x3F RETURNDATASIZE ADD AND DUP3 ADD PUSH1 0x40 MSTORE RETURNDATASIZE DUP3 MSTORE RETURNDATASIZE PUSH0 PUSH1 0x20 DUP5 ADD RETURNDATACOPY PUSH2 0x1085 JUMP JUMPDEST PUSH1 0x60 SWAP2 POP JUMPDEST POP POP SWAP1 POP DUP1 PUSH2 0x10C9 JUMPI PUSH1 0x40 MLOAD PUSH32 0x8C379A000000000000000000000000000000000000000000000000000000000 DUP2 MSTORE PUSH1 0x4 ADD PUSH2 0x10C0 SWAP1 PUSH2 0x22C8 JUMP JUMPDEST PUSH1 0x40 MLOAD DUP1 SWAP2 SUB SWAP1 REVERT JUMPDEST PUSH20 0xEEEEEEEEEEEEEEEEEEEEEEEEEEEEEEEEEEEEEEEE PUSH20 0xFFFFFFFFFFFFFFFFFFFFFFFFFFFFFFFFFFFFFFFF AND CALLER PUSH20 0xFFFFFFFFFFFFFFFFFFFFFFFFFFFFFFFFFFFFFFFF AND PUSH32 0x9B1BFA7FA9EE420A16E124F794C35AC9F90472ACC99140EB2F6447C714CAD8EB DUP6 PUSH1 0x40 MLOAD PUSH2 0x113A SWAP2 SWAP1 PUSH2 0x21BC JUMP JUMPDEST PUSH1 0x40 MLOAD DUP1 SWAP2 SUB SWAP1 LOG3 POP POP POP JUMP JUMPDEST PUSH1 0x1 PUSH0 CALLER PUSH20 0xFFFFFFFFFFFFFFFFFFFFFFFFFFFFFFFFFFFFFFFF AND PUSH20 0xFFFFFFFFFFFFFFFFFFFFFFFFFFFFFFFFFFFFFFFF AND DUP2 MSTORE PUSH1 0x20 ADD SWAP1 DUP2 MSTORE PUSH1 0x20 ADD PUSH0 KECCAK256 PUSH0 SWAP1 SLOAD SWAP1 PUSH2 0x100 EXP SWAP1 DIV PUSH1 0xFF AND PUSH2 0x11D0 JUMPI PUSH1 0x40 MLOAD PUSH32 0x8C379A000000000000000000000000000000000000000000000000000000000 DUP2 MSTORE PUSH1 0x4 ADD PUSH2 0x11C7 SWAP1 PUSH2 0x1C6A JUMP JUMPDEST PUSH1 0x40 MLOAD DUP1 SWAP2 SUB SWAP1 REVERT JUMPDEST PUSH0 CALLVALUE GT PUSH2 0x1212 JUMPI PUSH1 0x40 MLOAD PUSH32 0x8C379A000000000000000000000000000000000000000000000000000000000 DUP2 MSTORE PUSH1 0x4 ADD PUSH2 0x1209 SWAP1 PUSH2 0x2330 JUMP JUMPDEST PUSH1 0x40 MLOAD DUP1 SWAP2 SUB SWAP1 REVERT JUMPDEST PUSH2 0x121B CALLER PUSH2 0x14DA JUMP JUMPDEST PUSH0 PUSH2 0x2710 PUSH2 0xFFFF AND PUSH1 0x32 PUSH2 0xFFFF AND CALLVALUE PUSH2 0x1234 SWAP2 SWAP1 PUSH2 0x1E95 JUMP JUMPDEST PUSH2 0x123E SWAP2 SWAP1 PUSH2 0x1F03 JUMP JUMPDEST SWAP1 POP PUSH0 DUP2 CALLVALUE PUSH2 0x124D SWAP2 SWAP1 PUSH2 0x1F33 JUMP JUMPDEST SWAP1 POP PUSH0 DUP2 GT PUSH2 0x1291 JUMPI PUSH1 0x40 MLOAD PUSH32 0x8C379A000000000000000000000000000000000000000000000000000000000 DUP2 MSTORE PUSH1 0x4 ADD PUSH2 0x1288 SWAP1 PUSH2 0x1FB0 JUMP JUMPDEST PUSH1 0x40 MLOAD DUP1 SWAP2 SUB SWAP1 REVERT JUMPDEST PUSH2 0x12AF PUSH20 0xEEEEEEEEEEEEEEEEEEEEEEEEEEEEEEEEEEEEEEEE DUP4 PUSH2 0x134F JUMP JUMPDEST PUSH2 0x12CE CALLER PUSH20 0xEEEEEEEEEEEEEEEEEEEEEEEEEEEEEEEEEEEEEEEE DUP4 PUSH2 0x1590 JUMP JUMPDEST PUSH20 0xEEEEEEEEEEEEEEEEEEEEEEEEEEEEEEEEEEEEEEEE PUSH20 0xFFFFFFFFFFFFFFFFFFFFFFFFFFFFFFFFFFFFFFFF AND CALLER PUSH20 0xFFFFFFFFFFFFFFFFFFFFFFFFFFFFFFFFFFFFFFFF AND PUSH32 0x4E2CA0515ED1AEF1395F66B5303BB5D6F1BF9D61A353FA53F73F8AC9973FA9F6 CALLVALUE DUP6 DUP6 PUSH1 0x40 MLOAD PUSH2 0x1343 SWAP4 SWAP3 SWAP2 SWAP1 PUSH2 0x1FCE JUMP JUMPDEST PUSH1 0x40 MLOAD DUP1 SWAP2 SUB SWAP1 LOG3 POP POP JUMP JUMPDEST PUSH0 DUP2 SUB ISZERO PUSH2 0x14D6 JUMPI PUSH1 0x2 PUSH1 0x3 ADD PUSH0 DUP4 PUSH20 0xFFFFFFFFFFFFFFFFFFFFFFFFFFFFFFFFFFFFFFFF AND PUSH20 0xFFFFFFFFFFFFFFFFFFFFFFFFFFFFFFFFFFFFFFFF AND DUP2 MSTORE PUSH1 0x20 ADD SWAP1 DUP2 MSTORE PUSH1 0x20 ADD PUSH0 KECCAK256 PUSH0 SWAP1 SLOAD SWAP1 PUSH2 0x100 EXP SWAP1 DIV PUSH1 0xFF AND PUSH2 0x1463 JUMPI PUSH1 0x1 PUSH1 0x2 PUSH1 0x3 ADD PUSH0 DUP5 PUSH20 0xFFFFFFFFFFFFFFFFFFFFFFFFFFFFFFFFFFFFFFFF AND PUSH20 0xFFFFFFFFFFFFFFFFFFFFFFFFFFFFFFFFFFFFFFFF AND DUP2 MSTORE PUSH1 0x20 ADD SWAP1 DUP2 MSTORE PUSH1 0x20 ADD PUSH0 KECCAK256 PUSH0 PUSH2 0x100 EXP DUP2 SLOAD DUP2 PUSH1 0xFF MUL NOT AND SWAP1 DUP4 ISZERO ISZERO MUL OR SWAP1 SSTORE POP PUSH1 0x2 DUP1 ADD DUP3 SWAP1 DUP1 PUSH1 0x1 DUP2 SLOAD ADD DUP1 DUP3 SSTORE DUP1 SWAP2 POP POP PUSH1 0x1 SWAP1 SUB SWAP1 PUSH0 MSTORE PUSH1 0x20 PUSH0 KECCAK256 ADD PUSH0 SWAP1 SWAP2 SWAP1 SWAP2 SWAP1 SWAP2 PUSH2 0x100 EXP DUP2 SLOAD DUP2 PUSH20 0xFFFFFFFFFFFFFFFFFFFFFFFFFFFFFFFFFFFFFFFF MUL NOT AND SWAP1 DUP4 PUSH20 0xFFFFFFFFFFFFFFFFFFFFFFFFFFFFFFFFFFFFFFFF AND MUL OR SWAP1 SSTORE POP JUMPDEST DUP1 PUSH1 0x2 PUSH1 0x1 ADD PUSH0 DUP5 PUSH20 0xFFFFFFFFFFFFFFFFFFFFFFFFFFFFFFFFFFFFFFFF AND PUSH20 0xFFFFFFFFFFFFFFFFFFFFFFFFFFFFFFFFFFFFFFFF AND DUP2 MSTORE PUSH1 0x20 ADD SWAP1 DUP2 MSTORE PUSH1 0x20 ADD PUSH0 KECCAK256 PUSH0 DUP3 DUP3 SLOAD PUSH2 0x14B2 SWAP2 SWAP1 PUSH2 0x234E JUMP JUMPDEST SWAP3 POP POP DUP2 SWAP1 SSTORE POP PUSH1 0x1 PUSH1 0x2 PUSH0 ADD PUSH0 PUSH2 0x100 EXP DUP2 SLOAD DUP2 PUSH1 0xFF MUL NOT AND SWAP1 DUP4 ISZERO ISZERO MUL OR SWAP1 SSTORE POP JUMPDEST POP POP JUMP JUMPDEST PUSH0 PUSH0 PUSH0 DUP4 PUSH20 0xFFFFFFFFFFFFFFFFFFFFFFFFFFFFFFFFFFFFFFFF AND PUSH20 0xFFFFFFFFFFFFFFFFFFFFFFFFFFFFFFFFFFFFFFFF AND DUP2 MSTORE PUSH1 0x20 ADD SWAP1 DUP2 MSTORE PUSH1 0x20 ADD PUSH0 KECCAK256 SWAP1 POP DUP1 PUSH0 ADD PUSH0 SWAP1 SLOAD SWAP1 PUSH2 0x100 EXP SWAP1 DIV PUSH1 0xFF AND PUSH2 0x158C JUMPI PUSH1 0x1 DUP2 PUSH0 ADD PUSH0 PUSH2 0x100 EXP DUP2 SLOAD DUP2 PUSH1 0xFF MUL NOT AND SWAP1 DUP4 ISZERO ISZERO MUL OR SWAP1 SSTORE POP DUP2 PUSH20 0xFFFFFFFFFFFFFFFFFFFFFFFFFFFFFFFFFFFFFFFF AND PUSH32 0x2E49A5810FDA2439A23771848B4ACEC786B0A64D4DE3D124AC57FC8739C38875 PUSH1 0x40 MLOAD PUSH1 0x40 MLOAD DUP1 SWAP2 SUB SWAP1 LOG2 JUMPDEST POP POP JUMP JUMPDEST PUSH0 PUSH0 PUSH0 DUP6 PUSH20 0xFFFFFFFFFFFFFFFFFFFFFFFFFFFFFFFFFFFFFFFF AND PUSH20 0xFFFFFFFFFFFFFFFFFFFFFFFFFFFFFFFFFFFFFFFF AND DUP2 MSTORE PUSH1 0x20 ADD SWAP1 DUP2 MSTORE PUSH1 0x20 ADD PUSH0 KECCAK256 SWAP1 POP DUP1 PUSH1 0x3 ADD PUSH0 DUP5 PUSH20 0xFFFFFFFFFFFFFFFFFFFFFFFFFFFFFFFFFFFFFFFF AND PUSH20 0xFFFFFFFFFFFFFFFFFFFFFFFFFFFFFFFFFFFFFFFF AND DUP2 MSTORE PUSH1 0x20 ADD SWAP1 DUP2 MSTORE PUSH1 0x20 ADD PUSH0 KECCAK256 PUSH0 SWAP1 SLOAD SWAP1 PUSH2 0x100 EXP SWAP1 DIV PUSH1 0xFF AND PUSH2 0x16D9 JUMPI PUSH1 0x1 DUP2 PUSH1 0x3 ADD PUSH0 DUP6 PUSH20 0xFFFFFFFFFFFFFFFFFFFFFFFFFFFFFFFFFFFFFFFF AND PUSH20 0xFFFFFFFFFFFFFFFFFFFFFFFFFFFFFFFFFFFFFFFF AND DUP2 MSTORE PUSH1 0x20 ADD SWAP1 DUP2 MSTORE PUSH1 0x20 ADD PUSH0 KECCAK256 PUSH0 PUSH2 0x100 EXP DUP2 SLOAD DUP2 PUSH1 0xFF MUL NOT AND SWAP1 DUP4 ISZERO ISZERO MUL OR SWAP1 SSTORE POP DUP1 PUSH1 0x2 ADD DUP4 SWAP1 DUP1 PUSH1 0x1 DUP2 SLOAD ADD DUP1 DUP3 SSTORE DUP1 SWAP2 POP POP PUSH1 0x1 SWAP1 SUB SWAP1 PUSH0 MSTORE PUSH1 0x20 PUSH0 KECCAK256 ADD PUSH0 SWAP1 SWAP2 SWAP1 SWAP2 SWAP1 SWAP2 PUSH2 0x100 EXP DUP2 SLOAD DUP2 PUSH20 0xFFFFFFFFFFFFFFFFFFFFFFFFFFFFFFFFFFFFFFFF MUL NOT AND SWAP1 DUP4 PUSH20 0xFFFFFFFFFFFFFFFFFFFFFFFFFFFFFFFFFFFFFFFF AND MUL OR SWAP1 SSTORE POP JUMPDEST DUP2 DUP2 PUSH1 0x1 ADD PUSH0 DUP6 PUSH20 0xFFFFFFFFFFFFFFFFFFFFFFFFFFFFFFFFFFFFFFFF AND PUSH20 0xFFFFFFFFFFFFFFFFFFFFFFFFFFFFFFFFFFFFFFFF AND DUP2 MSTORE PUSH1 0x20 ADD SWAP1 DUP2 MSTORE PUSH1 0x20 ADD PUSH0 KECCAK256 PUSH0 DUP3 DUP3 SLOAD PUSH2 0x1727 SWAP2 SWAP1 PUSH2 0x234E JUMP JUMPDEST SWAP3 POP POP DUP2 SWAP1 SSTORE POP POP POP POP POP JUMP JUMPDEST PUSH1 0x40 MLOAD DUP1 PUSH1 0x60 ADD PUSH1 0x40 MSTORE DUP1 PUSH0 ISZERO ISZERO DUP2 MSTORE PUSH1 0x20 ADD PUSH1 0x60 DUP2 MSTORE PUSH1 0x20 ADD PUSH1 0x60 DUP2 MSTORE POP SWAP1 JUMP JUMPDEST PUSH0 DUP3 DUP3 MSTORE PUSH1 0x20 DUP3 ADD SWAP1 POP SWAP3 SWAP2 POP POP JUMP JUMPDEST PUSH32 0x557365206465706F736974455448000000000000000000000000000000000000 PUSH0 DUP3 ADD MSTORE POP JUMP JUMPDEST PUSH0 PUSH2 0x179A PUSH1 0xE DUP4 PUSH2 0x1756 JUMP JUMPDEST SWAP2 POP PUSH2 0x17A5 DUP3 PUSH2 0x1766 JUMP JUMPDEST PUSH1 0x20 DUP3 ADD SWAP1 POP SWAP2 SWAP1 POP JUMP JUMPDEST PUSH0 PUSH1 0x20 DUP3 ADD SWAP1 POP DUP2 DUP2 SUB PUSH0 DUP4 ADD MSTORE PUSH2 0x17C7 DUP2 PUSH2 0x178E JUMP JUMPDEST SWAP1 POP SWAP2 SWAP1 POP JUMP JUMPDEST PUSH0 PUSH0 REVERT JUMPDEST PUSH0 PUSH20 0xFFFFFFFFFFFFFFFFFFFFFFFFFFFFFFFFFFFFFFFF DUP3 AND SWAP1 POP SWAP2 SWAP1 POP JUMP JUMPDEST PUSH0 PUSH2 0x17FB DUP3 PUSH2 0x17D2 JUMP JUMPDEST SWAP1 POP SWAP2 SWAP1 POP JUMP JUMPDEST PUSH2 0x180B DUP2 PUSH2 0x17F1 JUMP JUMPDEST DUP2 EQ PUSH2 0x1815 JUMPI PUSH0 PUSH0 REVERT JUMPDEST POP JUMP JUMPDEST PUSH0 DUP2 CALLDATALOAD SWAP1 POP PUSH2 0x1826 DUP2 PUSH2 0x1802 JUMP JUMPDEST SWAP3 SWAP2 POP POP JUMP JUMPDEST PUSH0 DUP2 SWAP1 POP SWAP2 SWAP1 POP JUMP JUMPDEST PUSH2 0x183E DUP2 PUSH2 0x182C JUMP JUMPDEST DUP2 EQ PUSH2 0x1848 JUMPI PUSH0 PUSH0 REVERT JUMPDEST POP JUMP JUMPDEST PUSH0 DUP2 CALLDATALOAD SWAP1 POP PUSH2 0x1859 DUP2 PUSH2 0x1835 JUMP JUMPDEST SWAP3 SWAP2 POP POP JUMP JUMPDEST PUSH0 PUSH0 PUSH1 0x40 DUP4 DUP6 SUB SLT ISZERO PUSH2 0x1875 JUMPI PUSH2 0x1874 PUSH2 0x17CE JUMP JUMPDEST JUMPDEST PUSH0 PUSH2 0x1882 DUP6 DUP3 DUP7 ADD PUSH2 0x1818 JUMP JUMPDEST SWAP3 POP POP PUSH1 0x20 PUSH2 0x1893 DUP6 DUP3 DUP7 ADD PUSH2 0x184B JUMP JUMPDEST SWAP2 POP POP SWAP3 POP SWAP3 SWAP1 POP JUMP JUMPDEST PUSH0 DUP2 ISZERO ISZERO SWAP1 POP SWAP2 SWAP1 POP JUMP JUMPDEST PUSH2 0x18B1 DUP2 PUSH2 0x189D JUMP JUMPDEST DUP3 MSTORE POP POP JUMP JUMPDEST PUSH0 DUP2 MLOAD SWAP1 POP SWAP2 SWAP1 POP JUMP JUMPDEST PUSH0 DUP3 DUP3 MSTORE PUSH1 0x20 DUP3 ADD SWAP1 POP SWAP3 SWAP2 POP POP JUMP JUMPDEST PUSH0 DUP2 SWAP1 POP PUSH1 0x20 DUP3 ADD SWAP1 POP SWAP2 SWAP1 POP JUMP JUMPDEST PUSH2 0x18E9 DUP2 PUSH2 0x17F1 JUMP JUMPDEST DUP3 MSTORE POP POP JUMP JUMPDEST PUSH0 PUSH2 0x18FA DUP4 DUP4 PUSH2 0x18E0 JUMP JUMPDEST PUSH1 0x20 DUP4 ADD SWAP1 POP SWAP3 SWAP2 POP POP JUMP JUMPDEST PUSH0 PUSH1 0x20 DUP3 ADD SWAP1 POP SWAP2 SWAP1 POP JUMP JUMPDEST PUSH0 PUSH2 0x191C DUP3 PUSH2 0x18B7 JUMP JUMPDEST PUSH2 0x1926 DUP2 DUP6 PUSH2 0x18C1 JUMP JUMPDEST SWAP4 POP PUSH2 0x1931 DUP4 PUSH2 0x18D1 JUMP JUMPDEST DUP1 PUSH0 JUMPDEST DUP4 DUP2 LT ISZERO PUSH2 0x1961 JUMPI DUP2 MLOAD PUSH2 0x1948 DUP9 DUP3 PUSH2 0x18EF JUMP JUMPDEST SWAP8 POP PUSH2 0x1953 DUP4 PUSH2 0x1906 JUMP JUMPDEST SWAP3 POP POP PUSH1 0x1 DUP2 ADD SWAP1 POP PUSH2 0x1934 JUMP JUMPDEST POP DUP6 SWAP4 POP POP POP POP SWAP3 SWAP2 POP POP JUMP JUMPDEST PUSH0 DUP2 MLOAD SWAP1 POP SWAP2 SWAP1 POP JUMP JUMPDEST PUSH0 DUP3 DUP3 MSTORE PUSH1 0x20 DUP3 ADD SWAP1 POP SWAP3 SWAP2 POP POP JUMP JUMPDEST PUSH0 DUP2 SWAP1 POP PUSH1 0x20 DUP3 ADD SWAP1 POP SWAP2 SWAP1 POP JUMP JUMPDEST PUSH2 0x19A0 DUP2 PUSH2 0x182C JUMP JUMPDEST DUP3 MSTORE POP POP JUMP JUMPDEST PUSH0 PUSH2 0x19B1 DUP4 DUP4 PUSH2 0x1997 JUMP JUMPDEST PUSH1 0x20 DUP4 ADD SWAP1 POP SWAP3 SWAP2 POP POP JUMP JUMPDEST PUSH0 PUSH1 0x20 DUP3 ADD SWAP1 POP SWAP2 SWAP1 POP JUMP JUMPDEST PUSH0 PUSH2 0x19D3 DUP3 PUSH2 0x196E JUMP JUMPDEST PUSH2 0x19DD DUP2 DUP6 PUSH2 0x1978 JUMP JUMPDEST SWAP4 POP PUSH2 0x19E8 DUP4 PUSH2 0x1988 JUMP JUMPDEST DUP1 PUSH0 JUMPDEST DUP4 DUP2 LT ISZERO PUSH2 0x1A18 JUMPI DUP2 MLOAD PUSH2 0x19FF DUP9 DUP3 PUSH2 0x19A6 JUMP JUMPDEST SWAP8 POP PUSH2 0x1A0A DUP4 PUSH2 0x19BD JUMP JUMPDEST SWAP3 POP POP PUSH1 0x1 DUP2 ADD SWAP1 POP PUSH2 0x19EB JUMP JUMPDEST POP DUP6 SWAP4 POP POP POP POP SWAP3 SWAP2 POP POP JUMP JUMPDEST PUSH0 PUSH1 0x60 DUP4 ADD PUSH0 DUP4 ADD MLOAD PUSH2 0x1A3A PUSH0 DUP7 ADD DUP3 PUSH2 0x18A8 JUMP JUMPDEST POP PUSH1 0x20 DUP4 ADD MLOAD DUP5 DUP3 SUB PUSH1 0x20 DUP7 ADD MSTORE PUSH2 0x1A52 DUP3 DUP3 PUSH2 0x1912 JUMP JUMPDEST SWAP2 POP POP PUSH1 0x40 DUP4 ADD MLOAD DUP5 DUP3 SUB PUSH1 0x40 DUP7 ADD MSTORE PUSH2 0x1A6C DUP3 DUP3 PUSH2 0x19C9 JUMP JUMPDEST SWAP2 POP POP DUP1 SWAP2 POP POP SWAP3 SWAP2 POP POP JUMP JUMPDEST PUSH0 PUSH1 0x20 DUP3 ADD SWAP1 POP DUP2 DUP2 SUB PUSH0 DUP4 ADD MSTORE PUSH2 0x1A91 DUP2 DUP5 PUSH2 0x1A25 JUMP JUMPDEST SWAP1 POP SWAP3 SWAP2 POP POP JUMP JUMPDEST PUSH0 DUP3 DUP3 MSTORE PUSH1 0x20 DUP3 ADD SWAP1 POP SWAP3 SWAP2 POP POP JUMP JUMPDEST PUSH0 PUSH2 0x1AB3 DUP3 PUSH2 0x18B7 JUMP JUMPDEST PUSH2 0x1ABD DUP2 DUP6 PUSH2 0x1A99 JUMP JUMPDEST SWAP4 POP PUSH2 0x1AC8 DUP4 PUSH2 0x18D1 JUMP JUMPDEST DUP1 PUSH0 JUMPDEST DUP4 DUP2 LT ISZERO PUSH2 0x1AF8 JUMPI DUP2 MLOAD PUSH2 0x1ADF DUP9 DUP3 PUSH2 0x18EF JUMP JUMPDEST SWAP8 POP PUSH2 0x1AEA DUP4 PUSH2 0x1906 JUMP JUMPDEST SWAP3 POP POP PUSH1 0x1 DUP2 ADD SWAP1 POP PUSH2 0x1ACB JUMP JUMPDEST POP DUP6 SWAP4 POP POP POP POP SWAP3 SWAP2 POP POP JUMP JUMPDEST PUSH0 PUSH1 0x20 DUP3 ADD SWAP1 POP DUP2 DUP2 SUB PUSH0 DUP4 ADD MSTORE PUSH2 0x1B1D DUP2 DUP5 PUSH2 0x1AA9 JUMP JUMPDEST SWAP1 POP SWAP3 SWAP2 POP POP JUMP JUMPDEST PUSH0 PUSH1 0x20 DUP3 DUP5 SUB SLT ISZERO PUSH2 0x1B3A JUMPI PUSH2 0x1B39 PUSH2 0x17CE JUMP JUMPDEST JUMPDEST PUSH0 PUSH2 0x1B47 DUP5 DUP3 DUP6 ADD PUSH2 0x184B JUMP JUMPDEST SWAP2 POP POP SWAP3 SWAP2 POP POP JUMP JUMPDEST PUSH32 0x5661756C7420616C726561647920637265617465640000000000000000000000 PUSH0 DUP3 ADD MSTORE POP JUMP JUMPDEST PUSH0 PUSH2 0x1B84 PUSH1 0x15 DUP4 PUSH2 0x1756 JUMP JUMPDEST SWAP2 POP PUSH2 0x1B8F DUP3 PUSH2 0x1B50 JUMP JUMPDEST PUSH1 0x20 DUP3 ADD SWAP1 POP SWAP2 SWAP1 POP JUMP JUMPDEST PUSH0 PUSH1 0x20 DUP3 ADD SWAP1 POP DUP2 DUP2 SUB PUSH0 DUP4 ADD MSTORE PUSH2 0x1BB1 DUP2 PUSH2 0x1B78 JUMP JUMPDEST SWAP1 POP SWAP2 SWAP1 POP JUMP JUMPDEST PUSH32 0x457861637420302E312045544820726571756972656400000000000000000000 PUSH0 DUP3 ADD MSTORE POP JUMP JUMPDEST PUSH0 PUSH2 0x1BEC PUSH1 0x16 DUP4 PUSH2 0x1756 JUMP JUMPDEST SWAP2 POP PUSH2 0x1BF7 DUP3 PUSH2 0x1BB8 JUMP JUMPDEST PUSH1 0x20 DUP3 ADD SWAP1 POP SWAP2 SWAP1 POP JUMP JUMPDEST PUSH0 PUSH1 0x20 DUP3 ADD SWAP1 POP DUP2 DUP2 SUB PUSH0 DUP4 ADD MSTORE PUSH2 0x1C19 DUP2 PUSH2 0x1BE0 JUMP JUMPDEST SWAP1 POP SWAP2 SWAP1 POP JUMP JUMPDEST PUSH32 0x437265617465207661756C742066697273740000000000000000000000000000 PUSH0 DUP3 ADD MSTORE POP JUMP JUMPDEST PUSH0 PUSH2 0x1C54 PUSH1 0x12 DUP4 PUSH2 0x1756 JUMP JUMPDEST SWAP2 POP PUSH2 0x1C5F DUP3 PUSH2 0x1C20 JUMP JUMPDEST PUSH1 0x20 DUP3 ADD SWAP1 POP SWAP2 SWAP1 POP JUMP JUMPDEST PUSH0 PUSH1 0x20 DUP3 ADD SWAP1 POP DUP2 DUP2 SUB PUSH0 DUP4 ADD MSTORE PUSH2 0x1C81 DUP2 PUSH2 0x1C48 JUMP JUMPDEST SWAP1 POP SWAP2 SWAP1 POP JUMP JUMPDEST PUSH32 0x496E76616C696420746F6B656E00000000000000000000000000000000000000 PUSH0 DUP3 ADD MSTORE POP JUMP JUMPDEST PUSH0 PUSH2 0x1CBC PUSH1 0xD DUP4 PUSH2 0x1756 JUMP JUMPDEST SWAP2 POP PUSH2 0x1CC7 DUP3 PUSH2 0x1C88 JUMP JUMPDEST PUSH1 0x20 DUP3 ADD SWAP1 POP SWAP2 SWAP1 POP JUMP JUMPDEST PUSH0 PUSH1 0x20 DUP3 ADD SWAP1 POP DUP2 DUP2 SUB PUSH0 DUP4 ADD MSTORE PUSH2 0x1CE9 DUP2 PUSH2 0x1CB0 JUMP JUMPDEST SWAP1 POP SWAP2 SWAP1 POP JUMP JUMPDEST PUSH32 0x416D6F756E74206D757374206265203E20300000000000000000000000000000 PUSH0 DUP3 ADD MSTORE POP JUMP JUMPDEST PUSH0 PUSH2 0x1D24 PUSH1 0x12 DUP4 PUSH2 0x1756 JUMP JUMPDEST SWAP2 POP PUSH2 0x1D2F DUP3 PUSH2 0x1CF0 JUMP JUMPDEST PUSH1 0x20 DUP3 ADD SWAP1 POP SWAP2 SWAP1 POP JUMP JUMPDEST PUSH0 PUSH1 0x20 DUP3 ADD SWAP1 POP DUP2 DUP2 SUB PUSH0 DUP4 ADD MSTORE PUSH2 0x1D51 DUP2 PUSH2 0x1D18 JUMP JUMPDEST SWAP1 POP SWAP2 SWAP1 POP JUMP JUMPDEST PUSH2 0x1D61 DUP2 PUSH2 0x17F1 JUMP JUMPDEST DUP3 MSTORE POP POP JUMP JUMPDEST PUSH2 0x1D70 DUP2 PUSH2 0x182C JUMP JUMPDEST DUP3 MSTORE POP POP JUMP JUMPDEST PUSH0 PUSH1 0x60 DUP3 ADD SWAP1 POP PUSH2 0x1D89 PUSH0 DUP4 ADD DUP7 PUSH2 0x1D58 JUMP JUMPDEST PUSH2 0x1D96 PUSH1 0x20 DUP4 ADD DUP6 PUSH2 0x1D58 JUMP JUMPDEST PUSH2 0x1DA3 PUSH1 0x40 DUP4 ADD DUP5 PUSH2 0x1D67 JUMP JUMPDEST SWAP5 SWAP4 POP POP POP POP JUMP JUMPDEST PUSH2 0x1DB4 DUP2 PUSH2 0x189D JUMP JUMPDEST DUP2 EQ PUSH2 0x1DBE JUMPI PUSH0 PUSH0 REVERT JUMPDEST POP JUMP JUMPDEST PUSH0 DUP2 MLOAD SWAP1 POP PUSH2 0x1DCF DUP2 PUSH2 0x1DAB JUMP JUMPDEST SWAP3 SWAP2 POP POP JUMP JUMPDEST PUSH0 PUSH1 0x20 DUP3 DUP5 SUB SLT ISZERO PUSH2 0x1DEA JUMPI PUSH2 0x1DE9 PUSH2 0x17CE JUMP JUMPDEST JUMPDEST PUSH0 PUSH2 0x1DF7 DUP5 DUP3 DUP6 ADD PUSH2 0x1DC1 JUMP JUMPDEST SWAP2 POP POP SWAP3 SWAP2 POP POP JUMP JUMPDEST PUSH32 0x7472616E7366657246726F6D206661696C656400000000000000000000000000 PUSH0 DUP3 ADD MSTORE POP JUMP JUMPDEST PUSH0 PUSH2 0x1E34 PUSH1 0x13 DUP4 PUSH2 0x1756 JUMP JUMPDEST SWAP2 POP PUSH2 0x1E3F DUP3 PUSH2 0x1E00 JUMP JUMPDEST PUSH1 0x20 DUP3 ADD SWAP1 POP SWAP2 SWAP1 POP JUMP JUMPDEST PUSH0 PUSH1 0x20 DUP3 ADD SWAP1 POP DUP2 DUP2 SUB PUSH0 DUP4 ADD MSTORE PUSH2 0x1E61 DUP2 PUSH2 0x1E28 JUMP JUMPDEST SWAP1 POP SWAP2 SWAP1 POP JUMP JUMPDEST PUSH32 0x4E487B7100000000000000000000000000000000000000000000000000000000 PUSH0 MSTORE PUSH1 0x11 PUSH1 0x4 MSTORE PUSH1 0x24 PUSH0 REVERT JUMPDEST PUSH0 PUSH2 0x1E9F DUP3 PUSH2 0x182C JUMP JUMPDEST SWAP2 POP PUSH2 0x1EAA DUP4 PUSH2 0x182C JUMP JUMPDEST SWAP3 POP DUP3 DUP3 MUL PUSH2 0x1EB8 DUP2 PUSH2 0x182C JUMP JUMPDEST SWAP2 POP DUP3 DUP3 DIV DUP5 EQ DUP4 ISZERO OR PUSH2 0x1ECF JUMPI PUSH2 0x1ECE PUSH2 0x1E68 JUMP JUMPDEST JUMPDEST POP SWAP3 SWAP2 POP POP JUMP JUMPDEST PUSH32 0x4E487B7100000000000000000000000000000000000000000000000000000000 PUSH0 MSTORE PUSH1 0x12 PUSH1 0x4 MSTORE PUSH1 0x24 PUSH0 REVERT JUMPDEST PUSH0 PUSH2 0x1F0D DUP3 PUSH2 0x182C JUMP JUMPDEST SWAP2 POP PUSH2 0x1F18 DUP4 PUSH2 0x182C JUMP JUMPDEST SWAP3 POP DUP3 PUSH2 0x1F28 JUMPI PUSH2 0x1F27 PUSH2 0x1ED6 JUMP JUMPDEST JUMPDEST DUP3 DUP3 DIV SWAP1 POP SWAP3 SWAP2 POP POP JUMP JUMPDEST PUSH0 PUSH2 0x1F3D DUP3 PUSH2 0x182C JUMP JUMPDEST SWAP2 POP PUSH2 0x1F48 DUP4 PUSH2 0x182C JUMP JUMPDEST SWAP3 POP DUP3 DUP3 SUB SWAP1 POP DUP2 DUP2 GT ISZERO PUSH2 0x1F60 JUMPI PUSH2 0x1F5F PUSH2 0x1E68 JUMP JUMPDEST JUMPDEST SWAP3 SWAP2 POP POP JUMP JUMPDEST PUSH32 0x4E6574206973207A65726F000000000000000000000000000000000000000000 PUSH0 DUP3 ADD MSTORE POP JUMP JUMPDEST PUSH0 PUSH2 0x1F9A PUSH1 0xB DUP4 PUSH2 0x1756 JUMP JUMPDEST SWAP2 POP PUSH2 0x1FA5 DUP3 PUSH2 0x1F66 JUMP JUMPDEST PUSH1 0x20 DUP3 ADD SWAP1 POP SWAP2 SWAP1 POP JUMP JUMPDEST PUSH0 PUSH1 0x20 DUP3 ADD SWAP1 POP DUP2 DUP2 SUB PUSH0 DUP4 ADD MSTORE PUSH2 0x1FC7 DUP2 PUSH2 0x1F8E JUMP JUMPDEST SWAP1 POP SWAP2 SWAP1 POP JUMP JUMPDEST PUSH0 PUSH1 0x60 DUP3 ADD SWAP1 POP PUSH2 0x1FE1 PUSH0 DUP4 ADD DUP7 PUSH2 0x1D67 JUMP JUMPDEST PUSH2 0x1FEE PUSH1 0x20 DUP4 ADD DUP6 PUSH2 0x1D67 JUMP JUMPDEST PUSH2 0x1FFB PUSH1 0x40 DUP4 ADD DUP5 PUSH2 0x1D67 JUMP JUMPDEST SWAP5 SWAP4 POP POP POP POP JUMP JUMPDEST PUSH32 0x4E487B7100000000000000000000000000000000000000000000000000000000 PUSH0 MSTORE PUSH1 0x41 PUSH1 0x4 MSTORE PUSH1 0x24 PUSH0 REVERT JUMPDEST PUSH32 0x4E487B7100000000000000000000000000000000000000000000000000000000 PUSH0 MSTORE PUSH1 0x32 PUSH1 0x4 MSTORE PUSH1 0x24 PUSH0 REVERT JUMPDEST PUSH32 0x5661756C7420646F6573206E6F74206578697374000000000000000000000000 PUSH0 DUP3 ADD MSTORE POP JUMP JUMPDEST PUSH0 PUSH2 0x2091 PUSH1 0x14 DUP4 PUSH2 0x1756 JUMP JUMPDEST SWAP2 POP PUSH2 0x209C DUP3 PUSH2 0x205D JUMP JUMPDEST PUSH1 0x20 DUP3 ADD SWAP1 POP SWAP2 SWAP1 POP JUMP JUMPDEST PUSH0 PUSH1 0x20 DUP3 ADD SWAP1 POP DUP2 DUP2 SUB PUSH0 DUP4 ADD MSTORE PUSH2 0x20BE DUP2 PUSH2 0x2085 JUMP JUMPDEST SWAP1 POP SWAP2 SWAP1 POP JUMP JUMPDEST PUSH32 0x496E73756666696369656E742062616C616E6365000000000000000000000000 PUSH0 DUP3 ADD MSTORE POP JUMP JUMPDEST PUSH0 PUSH2 0x20F9 PUSH1 0x14 DUP4 PUSH2 0x1756 JUMP JUMPDEST SWAP2 POP PUSH2 0x2104 DUP3 PUSH2 0x20C5 JUMP JUMPDEST PUSH1 0x20 DUP3 ADD SWAP1 POP SWAP2 SWAP1 POP JUMP JUMPDEST PUSH0 PUSH1 0x20 DUP3 ADD SWAP1 POP DUP2 DUP2 SUB PUSH0 DUP4 ADD MSTORE PUSH2 0x2126 DUP2 PUSH2 0x20ED JUMP JUMPDEST SWAP1 POP SWAP2 SWAP1 POP JUMP JUMPDEST PUSH0 PUSH1 0x40 DUP3 ADD SWAP1 POP PUSH2 0x2140 PUSH0 DUP4 ADD DUP6 PUSH2 0x1D58 JUMP JUMPDEST PUSH2 0x214D PUSH1 0x20 DUP4 ADD DUP5 PUSH2 0x1D67 JUMP JUMPDEST SWAP4 SWAP3 POP POP POP JUMP JUMPDEST PUSH32 0x4552433230207472616E73666572206661696C65640000000000000000000000 PUSH0 DUP3 ADD MSTORE POP JUMP JUMPDEST PUSH0 PUSH2 0x2188 PUSH1 0x15 DUP4 PUSH2 0x1756 JUMP JUMPDEST SWAP2 POP PUSH2 0x2193 DUP3 PUSH2 0x2154 JUMP JUMPDEST PUSH1 0x20 DUP3 ADD SWAP1 POP SWAP2 SWAP1 POP JUMP JUMPDEST PUSH0 PUSH1 0x20 DUP3 ADD SWAP1 POP DUP2 DUP2 SUB PUSH0 DUP4 ADD MSTORE PUSH2 0x21B5 DUP2 PUSH2 0x217C JUMP JUMPDEST SWAP1 POP SWAP2 SWAP1 POP JUMP JUMPDEST PUSH0 PUSH1 0x20 DUP3 ADD SWAP1 POP PUSH2 0x21CF PUSH0 DUP4 ADD DUP5 PUSH2 0x1D67 JUMP JUMPDEST SWAP3 SWAP2 POP POP JUMP JUMPDEST PUSH32 0x496E73756666696369656E742045544800000000000000000000000000000000 PUSH0 DUP3 ADD MSTORE POP JUMP JUMPDEST PUSH0 PUSH2 0x2209 PUSH1 0x10 DUP4 PUSH2 0x1756 JUMP JUMPDEST SWAP2 POP PUSH2 0x2214 DUP3 PUSH2 0x21D5 JUMP JUMPDEST PUSH1 0x20 DUP3 ADD SWAP1 POP SWAP2 SWAP1 POP JUMP JUMPDEST PUSH0 PUSH1 0x20 DUP3 ADD SWAP1 POP DUP2 DUP2 SUB PUSH0 DUP4 ADD MSTORE PUSH2 0x2236 DUP2 PUSH2 0x21FD JUMP JUMPDEST SWAP1 POP SWAP2 SWAP1 POP JUMP JUMPDEST PUSH0 DUP2 SWAP1 POP SWAP3 SWAP2 POP POP JUMP JUMPDEST POP JUMP JUMPDEST PUSH0 PUSH2 0x2255 PUSH0 DUP4 PUSH2 0x223D JUMP JUMPDEST SWAP2 POP PUSH2 0x2260 DUP3 PUSH2 0x2247 JUMP JUMPDEST PUSH0 DUP3 ADD SWAP1 POP SWAP2 SWAP1 POP JUMP JUMPDEST PUSH0 PUSH2 0x2274 DUP3 PUSH2 0x224A JUMP JUMPDEST SWAP2 POP DUP2 SWAP1 POP SWAP2 SWAP1 POP JUMP JUMPDEST PUSH32 0x455448207472616E73666572206661696C656400000000000000000000000000 PUSH0 DUP3 ADD MSTORE POP JUMP JUMPDEST PUSH0 PUSH2 0x22B2 PUSH1 0x13 DUP4 PUSH2 0x1756 JUMP JUMPDEST SWAP2 POP PUSH2 0x22BD DUP3 PUSH2 0x227E JUMP JUMPDEST PUSH1 0x20 DUP3 ADD SWAP1 POP SWAP2 SWAP1 POP JUMP JUMPDEST PUSH0 PUSH1 0x20 DUP3 ADD SWAP1 POP DUP2 DUP2 SUB PUSH0 DUP4 ADD MSTORE PUSH2 0x22DF DUP2 PUSH2 0x22A6 JUMP JUMPDEST SWAP1 POP SWAP2 SWAP1 POP JUMP JUMPDEST PUSH32 0x4E6F204554482073656E74000000000000000000000000000000000000000000 PUSH0 DUP3 ADD MSTORE POP JUMP JUMPDEST PUSH0 PUSH2 0x231A PUSH1 0xB DUP4 PUSH2 0x1756 JUMP JUMPDEST SWAP2 POP PUSH2 0x2325 DUP3 PUSH2 0x22E6 JUMP JUMPDEST PUSH1 0x20 DUP3 ADD SWAP1 POP SWAP2 SWAP1 POP JUMP JUMPDEST PUSH0 PUSH1 0x20 DUP3 ADD SWAP1 POP DUP2 DUP2 SUB PUSH0 DUP4 ADD MSTORE PUSH2 0x2347 DUP2 PUSH2 0x230E JUMP JUMPDEST SWAP1 POP SWAP2 SWAP1 POP JUMP JUMPDEST PUSH0 PUSH2 0x2358 DUP3 PUSH2 0x182C JUMP JUMPDEST SWAP2 POP PUSH2 0x2363 DUP4 PUSH2 0x182C JUMP JUMPDEST SWAP3 POP DUP3 DUP3 ADD SWAP1 POP DUP1 DUP3 GT ISZERO PUSH2 0x237B JUMPI PUSH2 0x237A PUSH2 0x1E68 JUMP JUMPDEST JUMPDEST SWAP3 SWAP2 POP POP JUMP INVALID LOG2 PUSH5 0x6970667358 0x22 SLT KECCAK256 0xF7 SWAP5 0xC0 0xDA 0xC0 PREVRANDAO PUSH31 0x868205AFAC6FDABF64BC540056A6BBD0AD85D6914CA238129F64736F6C6343 STOP ADDMOD 0x1E STOP CALLER "
				},
				"gasEstimates": {
					"creation": {
						"codeDepositCost": "1828600",
						"executionCost": "1924",
						"totalCost": "1830524"
					},
					"external": {
						"contractVaultView()": "infinite",
						"createVault()": "infinite",
						"depositERC20(address,uint256)": "infinite",
						"depositETH()": "infinite",
						"getTokens()": "infinite",
						"myVault()": "infinite",
						"withdrawERC20(address,uint256)": "infinite",
						"withdrawETH(uint256)": "infinite"
					},
					"internal": {
						"_credit(address,address,uint256)": "infinite",
						"_creditContractVault(address,uint256)": "infinite",
						"_ensureVault(address)": "27708"
					}
				},
				"methodIdentifiers": {
					"contractVaultView()": "ecb07464",
					"createVault()": "5d12928b",
					"depositERC20(address,uint256)": "97feb926",
					"depositETH()": "f6326fb3",
					"getTokens()": "aa6ca808",
					"myVault()": "9f5f0520",
					"withdrawERC20(address,uint256)": "a1db9782",
					"withdrawETH(uint256)": "f14210a6"
				}
			},
			"storageLayout": {
				"storage": [
					{
						"astId": 120,
						"contract": "src/contracts/Ethernium.sol:Ethernium",
						"label": "testators",
						"offset": 0,
						"slot": "0",
						"type": "t_mapping(t_address,t_struct(Vault)106_storage)"
					},
					{
						"astId": 124,
						"contract": "src/contracts/Ethernium.sol:Ethernium",
						"label": "vaultCreatedAndPaid",
						"offset": 0,
						"slot": "1",
						"type": "t_mapping(t_address,t_bool)"
					},
					{
						"astId": 127,
						"contract": "src/contracts/Ethernium.sol:Ethernium",
						"label": "vaultOfContract",
						"offset": 0,
						"slot": "2",
						"type": "t_struct(Vault)106_storage"
					}
				],
				"types": {
					"t_address": {
						"encoding": "inplace",
						"label": "address",
						"numberOfBytes": "20"
					},
					"t_array(t_address)dyn_storage": {
						"base": "t_address",
						"encoding": "dynamic_array",
						"label": "address[]",
						"numberOfBytes": "32"
					},
					"t_bool": {
						"encoding": "inplace",
						"label": "bool",
						"numberOfBytes": "1"
					},
					"t_mapping(t_address,t_bool)": {
						"encoding": "mapping",
						"key": "t_address",
						"label": "mapping(address => bool)",
						"numberOfBytes": "32",
						"value": "t_bool"
					},
					"t_mapping(t_address,t_struct(Vault)106_storage)": {
						"encoding": "mapping",
						"key": "t_address",
						"label": "mapping(address => struct Ethernium.Vault)",
						"numberOfBytes": "32",
						"value": "t_struct(Vault)106_storage"
					},
					"t_mapping(t_address,t_uint256)": {
						"encoding": "mapping",
						"key": "t_address",
						"label": "mapping(address => uint256)",
						"numberOfBytes": "32",
						"value": "t_uint256"
					},
					"t_struct(Vault)106_storage": {
						"encoding": "inplace",
						"label": "struct Ethernium.Vault",
						"members": [
							{
								"astId": 94,
								"contract": "src/contracts/Ethernium.sol:Ethernium",
								"label": "exist",
								"offset": 0,
								"slot": "0",
								"type": "t_bool"
							},
							{
								"astId": 98,
								"contract": "src/contracts/Ethernium.sol:Ethernium",
								"label": "balances",
								"offset": 0,
								"slot": "1",
								"type": "t_mapping(t_address,t_uint256)"
							},
							{
								"astId": 101,
								"contract": "src/contracts/Ethernium.sol:Ethernium",
								"label": "tokens",
								"offset": 0,
								"slot": "2",
								"type": "t_array(t_address)dyn_storage"
							},
							{
								"astId": 105,
								"contract": "src/contracts/Ethernium.sol:Ethernium",
								"label": "tokenSeen",
								"offset": 0,
								"slot": "3",
								"type": "t_mapping(t_address,t_bool)"
							}
						],
						"numberOfBytes": "128"
					},
					"t_uint256": {
						"encoding": "inplace",
						"label": "uint256",
						"numberOfBytes": "32"
					}
				}
			},
			"userdoc": {
				"kind": "user",
				"methods": {},
				"version": 1
			}
		}
	}
}