{
	"src/contracts/SmartBank.sol": {
		"SmartBank": {
			"abi": [
				{
					"inputs": [],
					"stateMutability": "nonpayable",
					"type": "constructor"
				},
				{
					"anonymous": false,
					"inputs": [
						{
							"indexed": false,
							"internalType": "address",
							"name": "from",
							"type": "address"
						},
						{
							"indexed": false,
							"internalType": "uint256",
							"name": "amount",
							"type": "uint256"
						}
					],
					"name": "Deposit",
					"type": "event"
				},
				{
					"anonymous": false,
					"inputs": [
						{
							"indexed": false,
							"internalType": "address",
							"name": "from",
							"type": "address"
						},
						{
							"indexed": false,
							"internalType": "address",
							"name": "to",
							"type": "address"
						},
						{
							"indexed": false,
							"internalType": "uint256",
							"name": "amount",
							"type": "uint256"
						}
					],
					"name": "ExternalTransfer",
					"type": "event"
				},
				{
					"anonymous": false,
					"inputs": [
						{
							"indexed": false,
							"internalType": "address",
							"name": "from",
							"type": "address"
						},
						{
							"indexed": false,
							"internalType": "address",
							"name": "to",
							"type": "address"
						},
						{
							"indexed": false,
							"internalType": "uint256",
							"name": "amount",
							"type": "uint256"
						}
					],
					"name": "InternalTransfer",
					"type": "event"
				},
				{
					"anonymous": false,
					"inputs": [
						{
							"indexed": false,
							"internalType": "address",
							"name": "from",
							"type": "address"
						},
						{
							"indexed": false,
							"internalType": "uint256",
							"name": "amount",
							"type": "uint256"
						}
					],
					"name": "Withdraw",
					"type": "event"
				},
				{
					"inputs": [
						{
							"internalType": "address",
							"name": "",
							"type": "address"
						}
					],
					"name": "accounts",
					"outputs": [
						{
							"internalType": "uint256",
							"name": "balance",
							"type": "uint256"
						}
					],
					"stateMutability": "view",
					"type": "function"
				},
				{
					"inputs": [],
					"name": "deposit",
					"outputs": [],
					"stateMutability": "payable",
					"type": "function"
				},
				{
					"inputs": [
						{
							"internalType": "address payable",
							"name": "to",
							"type": "address"
						},
						{
							"internalType": "uint256",
							"name": "value",
							"type": "uint256"
						}
					],
					"name": "externalTransferTo",
					"outputs": [],
					"stateMutability": "nonpayable",
					"type": "function"
				},
				{
					"inputs": [],
					"name": "getBalance",
					"outputs": [
						{
							"internalType": "uint256",
							"name": "",
							"type": "uint256"
						}
					],
					"stateMutability": "view",
					"type": "function"
				},
				{
					"inputs": [],
					"name": "getBalanceOfBank",
					"outputs": [
						{
							"internalType": "uint256",
							"name": "",
							"type": "uint256"
						}
					],
					"stateMutability": "view",
					"type": "function"
				},
				{
					"inputs": [
						{
							"internalType": "address",
							"name": "account",
							"type": "address"
						},
						{
							"internalType": "uint256",
							"name": "value",
							"type": "uint256"
						}
					],
					"name": "internalTransferToAccount",
					"outputs": [],
					"stateMutability": "nonpayable",
					"type": "function"
				},
				{
					"inputs": [
						{
							"internalType": "uint32",
							"name": "percentage",
							"type": "uint32"
						}
					],
					"name": "setFee",
					"outputs": [],
					"stateMutability": "nonpayable",
					"type": "function"
				},
				{
					"inputs": [
						{
							"internalType": "uint256",
							"name": "value",
							"type": "uint256"
						}
					],
					"name": "withdraw",
					"outputs": [],
					"stateMutability": "nonpayable",
					"type": "function"
				},
				{
					"inputs": [],
					"name": "withdrawAll",
					"outputs": [],
					"stateMutability": "nonpayable",
					"type": "function"
				},
				{
					"inputs": [
						{
							"internalType": "uint256",
							"name": "value",
							"type": "uint256"
						}
					],
					"name": "withdrawFees",
					"outputs": [],
					"stateMutability": "nonpayable",
					"type": "function"
				}
			],
			"devdoc": {
				"kind": "dev",
				"methods": {},
				"version": 1
			},
			"evm": {
				"assembly": "    /* \"src/contracts/SmartBank.sol\":57:2498  contract SmartBank {... */\n  mstore(0x40, 0x80)\n    /* \"src/contracts/SmartBank.sol\":198:247  constructor() {... */\n  callvalue\n  dup1\n  iszero\n  tag_1\n  jumpi\n  revert(0x00, 0x00)\ntag_1:\n  pop\n    /* \"src/contracts/SmartBank.sol\":230:240  msg.sender */\n  caller\n    /* \"src/contracts/SmartBank.sol\":222:227  onwer */\n  0x00\n  0x00\n    /* \"src/contracts/SmartBank.sol\":222:240  onwer = msg.sender */\n  0x0100\n  exp\n  dup2\n  sload\n  dup2\n  0xffffffffffffffffffffffffffffffffffffffff\n  mul\n  not\n  and\n  swap1\n  dup4\n  0xffffffffffffffffffffffffffffffffffffffff\n  and\n  mul\n  or\n  swap1\n  sstore\n  pop\n    /* \"src/contracts/SmartBank.sol\":57:2498  contract SmartBank {... */\n  dataSize(sub_0)\n  dup1\n  dataOffset(sub_0)\n  0x00\n  codecopy\n  0x00\n  return\nstop\n\nsub_0: assembly {\n        /* \"src/contracts/SmartBank.sol\":57:2498  contract SmartBank {... */\n      mstore(0x40, 0x80)\n      jumpi(tag_1, lt(calldatasize, 0x04))\n      shr(0xe0, calldataload(0x00))\n      dup1\n      0x5e318e07\n      gt\n      tag_12\n      jumpi\n      dup1\n      0x5e318e07\n      eq\n      tag_7\n      jumpi\n      dup1\n      0x5e5c06e2\n      eq\n      tag_8\n      jumpi\n      dup1\n      0x77e604c0\n      eq\n      tag_9\n      jumpi\n      dup1\n      0x853828b6\n      eq\n      tag_10\n      jumpi\n      dup1\n      0xd0e30db0\n      eq\n      tag_11\n      jumpi\n      jump(tag_1)\n    tag_12:\n      dup1\n      0x12065fe0\n      eq\n      tag_2\n      jumpi\n      dup1\n      0x1ab971ab\n      eq\n      tag_3\n      jumpi\n      dup1\n      0x2e1a7d4d\n      eq\n      tag_4\n      jumpi\n      dup1\n      0x3e15ef3d\n      eq\n      tag_5\n      jumpi\n      dup1\n      0x430bd098\n      eq\n      tag_6\n      jumpi\n    tag_1:\n      revert(0x00, 0x00)\n        /* \"src/contracts/SmartBank.sol\":646:750  function getBalance() public view returns (uint256) {... */\n    tag_2:\n      callvalue\n      dup1\n      iszero\n      tag_13\n      jumpi\n      revert(0x00, 0x00)\n    tag_13:\n      pop\n      tag_14\n      tag_15\n      jump\t// in\n    tag_14:\n      mload(0x40)\n      tag_16\n      swap2\n      swap1\n      tag_17\n      jump\t// in\n    tag_16:\n      mload(0x40)\n      dup1\n      swap2\n      sub\n      swap1\n      return\n        /* \"src/contracts/SmartBank.sol\":2095:2256  function setFee(uint32 percentage) public onlyOwner {... */\n    tag_3:\n      callvalue\n      dup1\n      iszero\n      tag_18\n      jumpi\n      revert(0x00, 0x00)\n    tag_18:\n      pop\n      tag_19\n      0x04\n      dup1\n      calldatasize\n      sub\n      dup2\n      add\n      swap1\n      tag_20\n      swap2\n      swap1\n      tag_21\n      jump\t// in\n    tag_20:\n      tag_22\n      jump\t// in\n    tag_19:\n      stop\n        /* \"src/contracts/SmartBank.sol\":1048:1477  function withdraw(uint256 value) public {... */\n    tag_4:\n      callvalue\n      dup1\n      iszero\n      tag_23\n      jumpi\n      revert(0x00, 0x00)\n    tag_23:\n      pop\n      tag_24\n      0x04\n      dup1\n      calldatasize\n      sub\n      dup2\n      add\n      swap1\n      tag_25\n      swap2\n      swap1\n      tag_26\n      jump\t// in\n    tag_25:\n      tag_27\n      jump\t// in\n    tag_24:\n      stop\n        /* \"src/contracts/SmartBank.sol\":2262:2357  function getBalanceOfBank() public view returns (uint256) {... */\n    tag_5:\n      callvalue\n      dup1\n      iszero\n      tag_28\n      jumpi\n      revert(0x00, 0x00)\n    tag_28:\n      pop\n      tag_29\n      tag_30\n      jump\t// in\n    tag_29:\n      mload(0x40)\n      tag_31\n      swap2\n      swap1\n      tag_17\n      jump\t// in\n    tag_31:\n      mload(0x40)\n      dup1\n      swap2\n      sub\n      swap1\n      return\n        /* \"src/contracts/SmartBank.sol\":1483:1770  function externalTransferTo(address payable to, uint256 value) public {... */\n    tag_6:\n      callvalue\n      dup1\n      iszero\n      tag_32\n      jumpi\n      revert(0x00, 0x00)\n    tag_32:\n      pop\n      tag_33\n      0x04\n      dup1\n      calldatasize\n      sub\n      dup2\n      add\n      swap1\n      tag_34\n      swap2\n      swap1\n      tag_35\n      jump\t// in\n    tag_34:\n      tag_36\n      jump\t// in\n    tag_33:\n      stop\n        /* \"src/contracts/SmartBank.sol\":2363:2496  function withdrawFees(uint256 value) public onlyOwner {... */\n    tag_7:\n      callvalue\n      dup1\n      iszero\n      tag_37\n      jumpi\n      revert(0x00, 0x00)\n    tag_37:\n      pop\n      tag_38\n      0x04\n      dup1\n      calldatasize\n      sub\n      dup2\n      add\n      swap1\n      tag_39\n      swap2\n      swap1\n      tag_26\n      jump\t// in\n    tag_39:\n      tag_40\n      jump\t// in\n    tag_38:\n      stop\n        /* \"src/contracts/SmartBank.sol\":148:191  mapping(address => Account) public accounts */\n    tag_8:\n      callvalue\n      dup1\n      iszero\n      tag_41\n      jumpi\n      revert(0x00, 0x00)\n    tag_41:\n      pop\n      tag_42\n      0x04\n      dup1\n      calldatasize\n      sub\n      dup2\n      add\n      swap1\n      tag_43\n      swap2\n      swap1\n      tag_44\n      jump\t// in\n    tag_43:\n      tag_45\n      jump\t// in\n    tag_42:\n      mload(0x40)\n      tag_46\n      swap2\n      swap1\n      tag_17\n      jump\t// in\n    tag_46:\n      mload(0x40)\n      dup1\n      swap2\n      sub\n      swap1\n      return\n        /* \"src/contracts/SmartBank.sol\":1776:2089  function internalTransferToAccount(address account, uint256 value) public {... */\n    tag_9:\n      callvalue\n      dup1\n      iszero\n      tag_47\n      jumpi\n      revert(0x00, 0x00)\n    tag_47:\n      pop\n      tag_48\n      0x04\n      dup1\n      calldatasize\n      sub\n      dup2\n      add\n      swap1\n      tag_49\n      swap2\n      swap1\n      tag_50\n      jump\t// in\n    tag_49:\n      tag_51\n      jump\t// in\n    tag_48:\n      stop\n        /* \"src/contracts/SmartBank.sol\":957:1042  function withdrawAll() public {... */\n    tag_10:\n      callvalue\n      dup1\n      iszero\n      tag_52\n      jumpi\n      revert(0x00, 0x00)\n    tag_52:\n      pop\n      tag_53\n      tag_54\n      jump\t// in\n    tag_53:\n      stop\n        /* \"src/contracts/SmartBank.sol\":756:951  function deposit() public payable {... */\n    tag_11:\n      tag_55\n      tag_56\n      jump\t// in\n    tag_55:\n      stop\n        /* \"src/contracts/SmartBank.sol\":646:750  function getBalance() public view returns (uint256) {... */\n    tag_15:\n        /* \"src/contracts/SmartBank.sol\":689:696  uint256 */\n      0x00\n        /* \"src/contracts/SmartBank.sol\":715:723  accounts */\n      0x03\n        /* \"src/contracts/SmartBank.sol\":715:735  accounts[msg.sender] */\n      0x00\n        /* \"src/contracts/SmartBank.sol\":724:734  msg.sender */\n      caller\n        /* \"src/contracts/SmartBank.sol\":715:735  accounts[msg.sender] */\n      0xffffffffffffffffffffffffffffffffffffffff\n      and\n      0xffffffffffffffffffffffffffffffffffffffff\n      and\n      dup2\n      mstore\n      0x20\n      add\n      swap1\n      dup2\n      mstore\n      0x20\n      add\n      0x00\n      keccak256\n        /* \"src/contracts/SmartBank.sol\":715:743  accounts[msg.sender].balance */\n      0x00\n      add\n      sload\n        /* \"src/contracts/SmartBank.sol\":708:743  return accounts[msg.sender].balance */\n      swap1\n      pop\n        /* \"src/contracts/SmartBank.sol\":646:750  function getBalance() public view returns (uint256) {... */\n      swap1\n      jump\t// out\n        /* \"src/contracts/SmartBank.sol\":2095:2256  function setFee(uint32 percentage) public onlyOwner {... */\n    tag_22:\n        /* \"src/contracts/SmartBank.sol\":306:311  onwer */\n      0x00\n      0x00\n      swap1\n      sload\n      swap1\n      0x0100\n      exp\n      swap1\n      div\n      0xffffffffffffffffffffffffffffffffffffffff\n      and\n        /* \"src/contracts/SmartBank.sol\":292:311  msg.sender == onwer */\n      0xffffffffffffffffffffffffffffffffffffffff\n      and\n        /* \"src/contracts/SmartBank.sol\":292:302  msg.sender */\n      caller\n        /* \"src/contracts/SmartBank.sol\":292:311  msg.sender == onwer */\n      0xffffffffffffffffffffffffffffffffffffffff\n      and\n      eq\n        /* \"src/contracts/SmartBank.sol\":284:329  require(msg.sender == onwer, \"not the owner\") */\n      tag_59\n      jumpi\n      mload(0x40)\n      0x08c379a000000000000000000000000000000000000000000000000000000000\n      dup2\n      mstore\n      0x04\n      add\n      tag_60\n      swap1\n      tag_61\n      jump\t// in\n    tag_60:\n      mload(0x40)\n      dup1\n      swap2\n      sub\n      swap1\n      revert\n    tag_59:\n        /* \"src/contracts/SmartBank.sol\":2179:2180  0 */\n      0x00\n        /* \"src/contracts/SmartBank.sol\":2165:2175  percentage */\n      dup2\n        /* \"src/contracts/SmartBank.sol\":2165:2180  percentage >= 0 */\n      0xffffffff\n      and\n      lt\n      iszero\n        /* \"src/contracts/SmartBank.sol\":2165:2203  percentage >= 0 && percentage <= 10000 */\n      dup1\n      iszero\n      tag_63\n      jumpi\n      pop\n        /* \"src/contracts/SmartBank.sol\":2198:2203  10000 */\n      0x2710\n        /* \"src/contracts/SmartBank.sol\":2184:2194  percentage */\n      dup2\n        /* \"src/contracts/SmartBank.sol\":2184:2203  percentage <= 10000 */\n      0xffffffff\n      and\n      gt\n      iszero\n        /* \"src/contracts/SmartBank.sol\":2165:2203  percentage >= 0 && percentage <= 10000 */\n    tag_63:\n        /* \"src/contracts/SmartBank.sol\":2157:2220  require(percentage >= 0 && percentage <= 10000, \"out of range\") */\n      tag_64\n      jumpi\n      mload(0x40)\n      0x08c379a000000000000000000000000000000000000000000000000000000000\n      dup2\n      mstore\n      0x04\n      add\n      tag_65\n      swap1\n      tag_66\n      jump\t// in\n    tag_65:\n      mload(0x40)\n      dup1\n      swap2\n      sub\n      swap1\n      revert\n    tag_64:\n        /* \"src/contracts/SmartBank.sol\":2239:2249  percentage */\n      dup1\n        /* \"src/contracts/SmartBank.sol\":2230:2236  feeTax */\n      0x02\n      0x00\n        /* \"src/contracts/SmartBank.sol\":2230:2249  feeTax = percentage */\n      0x0100\n      exp\n      dup2\n      sload\n      dup2\n      0xffffffff\n      mul\n      not\n      and\n      swap1\n      dup4\n      0xffffffff\n      and\n      mul\n      or\n      swap1\n      sstore\n      pop\n        /* \"src/contracts/SmartBank.sol\":2095:2256  function setFee(uint32 percentage) public onlyOwner {... */\n      pop\n      jump\t// out\n        /* \"src/contracts/SmartBank.sol\":1048:1477  function withdraw(uint256 value) public {... */\n    tag_27:\n        /* \"src/contracts/SmartBank.sol\":1115:1123  accounts */\n      0x03\n        /* \"src/contracts/SmartBank.sol\":1115:1135  accounts[msg.sender] */\n      0x00\n        /* \"src/contracts/SmartBank.sol\":1124:1134  msg.sender */\n      caller\n        /* \"src/contracts/SmartBank.sol\":1115:1135  accounts[msg.sender] */\n      0xffffffffffffffffffffffffffffffffffffffff\n      and\n      0xffffffffffffffffffffffffffffffffffffffff\n      and\n      dup2\n      mstore\n      0x20\n      add\n      swap1\n      dup2\n      mstore\n      0x20\n      add\n      0x00\n      keccak256\n        /* \"src/contracts/SmartBank.sol\":1115:1143  accounts[msg.sender].balance */\n      0x00\n      add\n      sload\n        /* \"src/contracts/SmartBank.sol\":1106:1111  value */\n      dup2\n        /* \"src/contracts/SmartBank.sol\":1106:1143  value <= accounts[msg.sender].balance */\n      gt\n      iszero\n        /* \"src/contracts/SmartBank.sol\":1098:1168  require(value <= accounts[msg.sender].balance, \"insufficient balance\") */\n      tag_68\n      jumpi\n      mload(0x40)\n      0x08c379a000000000000000000000000000000000000000000000000000000000\n      dup2\n      mstore\n      0x04\n      add\n      tag_69\n      swap1\n      tag_70\n      jump\t// in\n    tag_69:\n      mload(0x40)\n      dup1\n      swap2\n      sub\n      swap1\n      revert\n    tag_68:\n        /* \"src/contracts/SmartBank.sol\":1210:1215  value */\n      dup1\n        /* \"src/contracts/SmartBank.sol\":1178:1186  accounts */\n      0x03\n        /* \"src/contracts/SmartBank.sol\":1178:1198  accounts[msg.sender] */\n      0x00\n        /* \"src/contracts/SmartBank.sol\":1187:1197  msg.sender */\n      caller\n        /* \"src/contracts/SmartBank.sol\":1178:1198  accounts[msg.sender] */\n      0xffffffffffffffffffffffffffffffffffffffff\n      and\n      0xffffffffffffffffffffffffffffffffffffffff\n      and\n      dup2\n      mstore\n      0x20\n      add\n      swap1\n      dup2\n      mstore\n      0x20\n      add\n      0x00\n      keccak256\n        /* \"src/contracts/SmartBank.sol\":1178:1206  accounts[msg.sender].balance */\n      0x00\n      add\n      0x00\n        /* \"src/contracts/SmartBank.sol\":1178:1215  accounts[msg.sender].balance -= value */\n      dup3\n      dup3\n      sload\n      tag_71\n      swap2\n      swap1\n      tag_72\n      jump\t// in\n    tag_71:\n      swap3\n      pop\n      pop\n      dup2\n      swap1\n      sstore\n      pop\n        /* \"src/contracts/SmartBank.sol\":1226:1249  uint256 valueToWithdraw */\n      0x00\n        /* \"src/contracts/SmartBank.sol\":1281:1286  10000 */\n      0x2710\n        /* \"src/contracts/SmartBank.sol\":1270:1276  feeTax */\n      0x02\n      0x00\n      swap1\n      sload\n      swap1\n      0x0100\n      exp\n      swap1\n      div\n      0xffffffff\n      and\n        /* \"src/contracts/SmartBank.sol\":1262:1267  10000 */\n      0x2710\n        /* \"src/contracts/SmartBank.sol\":1262:1276  10000 - feeTax */\n      tag_73\n      swap2\n      swap1\n      tag_74\n      jump\t// in\n    tag_73:\n        /* \"src/contracts/SmartBank.sol\":1253:1277  value * (10000 - feeTax) */\n      0xffffffff\n      and\n        /* \"src/contracts/SmartBank.sol\":1253:1258  value */\n      dup4\n        /* \"src/contracts/SmartBank.sol\":1253:1277  value * (10000 - feeTax) */\n      tag_75\n      swap2\n      swap1\n      tag_76\n      jump\t// in\n    tag_75:\n        /* \"src/contracts/SmartBank.sol\":1252:1286  (value * (10000 - feeTax)) / 10000 */\n      tag_77\n      swap2\n      swap1\n      tag_78\n      jump\t// in\n    tag_77:\n        /* \"src/contracts/SmartBank.sol\":1226:1286  uint256 valueToWithdraw = (value * (10000 - feeTax)) / 10000 */\n      swap1\n      pop\n        /* \"src/contracts/SmartBank.sol\":1296:1314  uint256 valueToTax */\n      0x00\n        /* \"src/contracts/SmartBank.sol\":1325:1340  valueToWithdraw */\n      dup2\n        /* \"src/contracts/SmartBank.sol\":1317:1322  value */\n      dup4\n        /* \"src/contracts/SmartBank.sol\":1317:1340  value - valueToWithdraw */\n      tag_79\n      swap2\n      swap1\n      tag_72\n      jump\t// in\n    tag_79:\n        /* \"src/contracts/SmartBank.sol\":1296:1340  uint256 valueToTax = value - valueToWithdraw */\n      swap1\n      pop\n        /* \"src/contracts/SmartBank.sol\":1367:1377  valueToTax */\n      dup1\n        /* \"src/contracts/SmartBank.sol\":1350:1363  balanceOfBank */\n      0x01\n      0x00\n        /* \"src/contracts/SmartBank.sol\":1350:1377  balanceOfBank += valueToTax */\n      dup3\n      dup3\n      sload\n      tag_80\n      swap2\n      swap1\n      tag_81\n      jump\t// in\n    tag_80:\n      swap3\n      pop\n      pop\n      dup2\n      swap1\n      sstore\n      pop\n        /* \"src/contracts/SmartBank.sol\":1396:1401  onwer */\n      0x00\n      0x00\n      swap1\n      sload\n      swap1\n      0x0100\n      exp\n      swap1\n      div\n      0xffffffffffffffffffffffffffffffffffffffff\n      and\n        /* \"src/contracts/SmartBank.sol\":1388:1411  payable(onwer).transfer */\n      0xffffffffffffffffffffffffffffffffffffffff\n      and\n        /* \"src/contracts/SmartBank.sol\":1388:1428  payable(onwer).transfer(valueToWithdraw) */\n      0x08fc\n        /* \"src/contracts/SmartBank.sol\":1412:1427  valueToWithdraw */\n      dup4\n        /* \"src/contracts/SmartBank.sol\":1388:1428  payable(onwer).transfer(valueToWithdraw) */\n      swap1\n      dup2\n      iszero\n      mul\n      swap1\n      mload(0x40)\n      0x00\n      mload(0x40)\n      dup1\n      dup4\n      sub\n      dup2\n      dup6\n      dup9\n      dup9\n      call\n      swap4\n      pop\n      pop\n      pop\n      pop\n      iszero\n      dup1\n      iszero\n      tag_83\n      jumpi\n      returndatacopy(0x00, 0x00, returndatasize)\n      revert(0x00, returndatasize)\n    tag_83:\n      pop\n        /* \"src/contracts/SmartBank.sol\":1443:1470  Withdraw(msg.sender, value) */\n      0x884edad9ce6fa2440d8a54cc123490eb96d2768479d49ff9c7366125a9424364\n        /* \"src/contracts/SmartBank.sol\":1452:1462  msg.sender */\n      caller\n        /* \"src/contracts/SmartBank.sol\":1464:1469  value */\n      dup5\n        /* \"src/contracts/SmartBank.sol\":1443:1470  Withdraw(msg.sender, value) */\n      mload(0x40)\n      tag_84\n      swap3\n      swap2\n      swap1\n      tag_85\n      jump\t// in\n    tag_84:\n      mload(0x40)\n      dup1\n      swap2\n      sub\n      swap1\n      log1\n        /* \"src/contracts/SmartBank.sol\":1088:1477  {... */\n      pop\n      pop\n        /* \"src/contracts/SmartBank.sol\":1048:1477  function withdraw(uint256 value) public {... */\n      pop\n      jump\t// out\n        /* \"src/contracts/SmartBank.sol\":2262:2357  function getBalanceOfBank() public view returns (uint256) {... */\n    tag_30:\n        /* \"src/contracts/SmartBank.sol\":2311:2318  uint256 */\n      0x00\n        /* \"src/contracts/SmartBank.sol\":2337:2350  balanceOfBank */\n      sload(0x01)\n        /* \"src/contracts/SmartBank.sol\":2330:2350  return balanceOfBank */\n      swap1\n      pop\n        /* \"src/contracts/SmartBank.sol\":2262:2357  function getBalanceOfBank() public view returns (uint256) {... */\n      swap1\n      jump\t// out\n        /* \"src/contracts/SmartBank.sol\":1483:1770  function externalTransferTo(address payable to, uint256 value) public {... */\n    tag_36:\n        /* \"src/contracts/SmartBank.sol\":1580:1588  accounts */\n      0x03\n        /* \"src/contracts/SmartBank.sol\":1580:1600  accounts[msg.sender] */\n      0x00\n        /* \"src/contracts/SmartBank.sol\":1589:1599  msg.sender */\n      caller\n        /* \"src/contracts/SmartBank.sol\":1580:1600  accounts[msg.sender] */\n      0xffffffffffffffffffffffffffffffffffffffff\n      and\n      0xffffffffffffffffffffffffffffffffffffffff\n      and\n      dup2\n      mstore\n      0x20\n      add\n      swap1\n      dup2\n      mstore\n      0x20\n      add\n      0x00\n      keccak256\n        /* \"src/contracts/SmartBank.sol\":1580:1608  accounts[msg.sender].balance */\n      0x00\n      add\n      sload\n        /* \"src/contracts/SmartBank.sol\":1571:1576  value */\n      dup2\n        /* \"src/contracts/SmartBank.sol\":1571:1608  value <= accounts[msg.sender].balance */\n      gt\n      iszero\n        /* \"src/contracts/SmartBank.sol\":1563:1633  require(value <= accounts[msg.sender].balance, \"insufficient balance\") */\n      tag_88\n      jumpi\n      mload(0x40)\n      0x08c379a000000000000000000000000000000000000000000000000000000000\n      dup2\n      mstore\n      0x04\n      add\n      tag_89\n      swap1\n      tag_70\n      jump\t// in\n    tag_89:\n      mload(0x40)\n      dup1\n      swap2\n      sub\n      swap1\n      revert\n    tag_88:\n        /* \"src/contracts/SmartBank.sol\":1675:1680  value */\n      dup1\n        /* \"src/contracts/SmartBank.sol\":1643:1651  accounts */\n      0x03\n        /* \"src/contracts/SmartBank.sol\":1643:1663  accounts[msg.sender] */\n      0x00\n        /* \"src/contracts/SmartBank.sol\":1652:1662  msg.sender */\n      caller\n        /* \"src/contracts/SmartBank.sol\":1643:1663  accounts[msg.sender] */\n      0xffffffffffffffffffffffffffffffffffffffff\n      and\n      0xffffffffffffffffffffffffffffffffffffffff\n      and\n      dup2\n      mstore\n      0x20\n      add\n      swap1\n      dup2\n      mstore\n      0x20\n      add\n      0x00\n      keccak256\n        /* \"src/contracts/SmartBank.sol\":1643:1671  accounts[msg.sender].balance */\n      0x00\n      add\n      0x00\n        /* \"src/contracts/SmartBank.sol\":1643:1680  accounts[msg.sender].balance -= value */\n      dup3\n      dup3\n      sload\n      tag_90\n      swap2\n      swap1\n      tag_72\n      jump\t// in\n    tag_90:\n      swap3\n      pop\n      pop\n      dup2\n      swap1\n      sstore\n      pop\n        /* \"src/contracts/SmartBank.sol\":1691:1693  to */\n      dup2\n        /* \"src/contracts/SmartBank.sol\":1691:1702  to.transfer */\n      0xffffffffffffffffffffffffffffffffffffffff\n      and\n        /* \"src/contracts/SmartBank.sol\":1691:1709  to.transfer(value) */\n      0x08fc\n        /* \"src/contracts/SmartBank.sol\":1703:1708  value */\n      dup3\n        /* \"src/contracts/SmartBank.sol\":1691:1709  to.transfer(value) */\n      swap1\n      dup2\n      iszero\n      mul\n      swap1\n      mload(0x40)\n      0x00\n      mload(0x40)\n      dup1\n      dup4\n      sub\n      dup2\n      dup6\n      dup9\n      dup9\n      call\n      swap4\n      pop\n      pop\n      pop\n      pop\n      iszero\n      dup1\n      iszero\n      tag_92\n      jumpi\n      returndatacopy(0x00, 0x00, returndatasize)\n      revert(0x00, returndatasize)\n    tag_92:\n      pop\n        /* \"src/contracts/SmartBank.sol\":1724:1763  ExternalTransfer(msg.sender, to, value) */\n      0xcf0ee562475620bbcd2f1b0675c8163317513271e4fdbbe9722436f247bd6d99\n        /* \"src/contracts/SmartBank.sol\":1741:1751  msg.sender */\n      caller\n        /* \"src/contracts/SmartBank.sol\":1753:1755  to */\n      dup4\n        /* \"src/contracts/SmartBank.sol\":1757:1762  value */\n      dup4\n        /* \"src/contracts/SmartBank.sol\":1724:1763  ExternalTransfer(msg.sender, to, value) */\n      mload(0x40)\n      tag_93\n      swap4\n      swap3\n      swap2\n      swap1\n      tag_94\n      jump\t// in\n    tag_93:\n      mload(0x40)\n      dup1\n      swap2\n      sub\n      swap1\n      log1\n        /* \"src/contracts/SmartBank.sol\":1483:1770  function externalTransferTo(address payable to, uint256 value) public {... */\n      pop\n      pop\n      jump\t// out\n        /* \"src/contracts/SmartBank.sol\":2363:2496  function withdrawFees(uint256 value) public onlyOwner {... */\n    tag_40:\n        /* \"src/contracts/SmartBank.sol\":306:311  onwer */\n      0x00\n      0x00\n      swap1\n      sload\n      swap1\n      0x0100\n      exp\n      swap1\n      div\n      0xffffffffffffffffffffffffffffffffffffffff\n      and\n        /* \"src/contracts/SmartBank.sol\":292:311  msg.sender == onwer */\n      0xffffffffffffffffffffffffffffffffffffffff\n      and\n        /* \"src/contracts/SmartBank.sol\":292:302  msg.sender */\n      caller\n        /* \"src/contracts/SmartBank.sol\":292:311  msg.sender == onwer */\n      0xffffffffffffffffffffffffffffffffffffffff\n      and\n      eq\n        /* \"src/contracts/SmartBank.sol\":284:329  require(msg.sender == onwer, \"not the owner\") */\n      tag_96\n      jumpi\n      mload(0x40)\n      0x08c379a000000000000000000000000000000000000000000000000000000000\n      dup2\n      mstore\n      0x04\n      add\n      tag_97\n      swap1\n      tag_61\n      jump\t// in\n    tag_97:\n      mload(0x40)\n      dup1\n      swap2\n      sub\n      swap1\n      revert\n    tag_96:\n        /* \"src/contracts/SmartBank.sol\":2444:2449  value */\n      dup1\n        /* \"src/contracts/SmartBank.sol\":2427:2440  balanceOfBank */\n      0x01\n      0x00\n        /* \"src/contracts/SmartBank.sol\":2427:2449  balanceOfBank -= value */\n      dup3\n      dup3\n      sload\n      tag_99\n      swap2\n      swap1\n      tag_72\n      jump\t// in\n    tag_99:\n      swap3\n      pop\n      pop\n      dup2\n      swap1\n      sstore\n      pop\n        /* \"src/contracts/SmartBank.sol\":2467:2472  onwer */\n      0x00\n      0x00\n      swap1\n      sload\n      swap1\n      0x0100\n      exp\n      swap1\n      div\n      0xffffffffffffffffffffffffffffffffffffffff\n      and\n        /* \"src/contracts/SmartBank.sol\":2459:2482  payable(onwer).transfer */\n      0xffffffffffffffffffffffffffffffffffffffff\n      and\n        /* \"src/contracts/SmartBank.sol\":2459:2489  payable(onwer).transfer(value) */\n      0x08fc\n        /* \"src/contracts/SmartBank.sol\":2483:2488  value */\n      dup3\n        /* \"src/contracts/SmartBank.sol\":2459:2489  payable(onwer).transfer(value) */\n      swap1\n      dup2\n      iszero\n      mul\n      swap1\n      mload(0x40)\n      0x00\n      mload(0x40)\n      dup1\n      dup4\n      sub\n      dup2\n      dup6\n      dup9\n      dup9\n      call\n      swap4\n      pop\n      pop\n      pop\n      pop\n      iszero\n      dup1\n      iszero\n      tag_101\n      jumpi\n      returndatacopy(0x00, 0x00, returndatasize)\n      revert(0x00, returndatasize)\n    tag_101:\n      pop\n        /* \"src/contracts/SmartBank.sol\":2363:2496  function withdrawFees(uint256 value) public onlyOwner {... */\n      pop\n      jump\t// out\n        /* \"src/contracts/SmartBank.sol\":148:191  mapping(address => Account) public accounts */\n    tag_45:\n      mstore(0x20, 0x03)\n      dup1\n      0x00\n      mstore\n      keccak256(0x00, 0x40)\n      0x00\n      swap2\n      pop\n      swap1\n      pop\n      dup1\n      0x00\n      add\n      sload\n      swap1\n      pop\n      dup2\n      jump\t// out\n        /* \"src/contracts/SmartBank.sol\":1776:2089  function internalTransferToAccount(address account, uint256 value) public {... */\n    tag_51:\n        /* \"src/contracts/SmartBank.sol\":1877:1885  accounts */\n      0x03\n        /* \"src/contracts/SmartBank.sol\":1877:1897  accounts[msg.sender] */\n      0x00\n        /* \"src/contracts/SmartBank.sol\":1886:1896  msg.sender */\n      caller\n        /* \"src/contracts/SmartBank.sol\":1877:1897  accounts[msg.sender] */\n      0xffffffffffffffffffffffffffffffffffffffff\n      and\n      0xffffffffffffffffffffffffffffffffffffffff\n      and\n      dup2\n      mstore\n      0x20\n      add\n      swap1\n      dup2\n      mstore\n      0x20\n      add\n      0x00\n      keccak256\n        /* \"src/contracts/SmartBank.sol\":1877:1905  accounts[msg.sender].balance */\n      0x00\n      add\n      sload\n        /* \"src/contracts/SmartBank.sol\":1868:1873  value */\n      dup2\n        /* \"src/contracts/SmartBank.sol\":1868:1905  value <= accounts[msg.sender].balance */\n      gt\n      iszero\n        /* \"src/contracts/SmartBank.sol\":1860:1930  require(value <= accounts[msg.sender].balance, \"insufficient balance\") */\n      tag_103\n      jumpi\n      mload(0x40)\n      0x08c379a000000000000000000000000000000000000000000000000000000000\n      dup2\n      mstore\n      0x04\n      add\n      tag_104\n      swap1\n      tag_70\n      jump\t// in\n    tag_104:\n      mload(0x40)\n      dup1\n      swap2\n      sub\n      swap1\n      revert\n    tag_103:\n        /* \"src/contracts/SmartBank.sol\":1973:1978  value */\n      dup1\n        /* \"src/contracts/SmartBank.sol\":1941:1949  accounts */\n      0x03\n        /* \"src/contracts/SmartBank.sol\":1941:1961  accounts[msg.sender] */\n      0x00\n        /* \"src/contracts/SmartBank.sol\":1950:1960  msg.sender */\n      caller\n        /* \"src/contracts/SmartBank.sol\":1941:1961  accounts[msg.sender] */\n      0xffffffffffffffffffffffffffffffffffffffff\n      and\n      0xffffffffffffffffffffffffffffffffffffffff\n      and\n      dup2\n      mstore\n      0x20\n      add\n      swap1\n      dup2\n      mstore\n      0x20\n      add\n      0x00\n      keccak256\n        /* \"src/contracts/SmartBank.sol\":1941:1969  accounts[msg.sender].balance */\n      0x00\n      add\n      0x00\n        /* \"src/contracts/SmartBank.sol\":1941:1978  accounts[msg.sender].balance -= value */\n      dup3\n      dup3\n      sload\n      tag_105\n      swap2\n      swap1\n      tag_72\n      jump\t// in\n    tag_105:\n      swap3\n      pop\n      pop\n      dup2\n      swap1\n      sstore\n      pop\n        /* \"src/contracts/SmartBank.sol\":2017:2022  value */\n      dup1\n        /* \"src/contracts/SmartBank.sol\":1988:1996  accounts */\n      0x03\n        /* \"src/contracts/SmartBank.sol\":1988:2005  accounts[account] */\n      0x00\n        /* \"src/contracts/SmartBank.sol\":1997:2004  account */\n      dup5\n        /* \"src/contracts/SmartBank.sol\":1988:2005  accounts[account] */\n      0xffffffffffffffffffffffffffffffffffffffff\n      and\n      0xffffffffffffffffffffffffffffffffffffffff\n      and\n      dup2\n      mstore\n      0x20\n      add\n      swap1\n      dup2\n      mstore\n      0x20\n      add\n      0x00\n      keccak256\n        /* \"src/contracts/SmartBank.sol\":1988:2013  accounts[account].balance */\n      0x00\n      add\n      0x00\n        /* \"src/contracts/SmartBank.sol\":1988:2022  accounts[account].balance += value */\n      dup3\n      dup3\n      sload\n      tag_106\n      swap2\n      swap1\n      tag_81\n      jump\t// in\n    tag_106:\n      swap3\n      pop\n      pop\n      dup2\n      swap1\n      sstore\n      pop\n        /* \"src/contracts/SmartBank.sol\":2038:2082  InternalTransfer(msg.sender, account, value) */\n      0xe2080c8fc8d86c864d8dc081fadaebf2be7191086615e786f954420f13ed122a\n        /* \"src/contracts/SmartBank.sol\":2055:2065  msg.sender */\n      caller\n        /* \"src/contracts/SmartBank.sol\":2067:2074  account */\n      dup4\n        /* \"src/contracts/SmartBank.sol\":2076:2081  value */\n      dup4\n        /* \"src/contracts/SmartBank.sol\":2038:2082  InternalTransfer(msg.sender, account, value) */\n      mload(0x40)\n      tag_107\n      swap4\n      swap3\n      swap2\n      swap1\n      tag_108\n      jump\t// in\n    tag_107:\n      mload(0x40)\n      dup1\n      swap2\n      sub\n      swap1\n      log1\n        /* \"src/contracts/SmartBank.sol\":1776:2089  function internalTransferToAccount(address account, uint256 value) public {... */\n      pop\n      pop\n      jump\t// out\n        /* \"src/contracts/SmartBank.sol\":957:1042  function withdrawAll() public {... */\n    tag_54:\n        /* \"src/contracts/SmartBank.sol\":997:1035  withdraw(accounts[msg.sender].balance) */\n      tag_110\n        /* \"src/contracts/SmartBank.sol\":1006:1014  accounts */\n      0x03\n        /* \"src/contracts/SmartBank.sol\":1006:1026  accounts[msg.sender] */\n      0x00\n        /* \"src/contracts/SmartBank.sol\":1015:1025  msg.sender */\n      caller\n        /* \"src/contracts/SmartBank.sol\":1006:1026  accounts[msg.sender] */\n      0xffffffffffffffffffffffffffffffffffffffff\n      and\n      0xffffffffffffffffffffffffffffffffffffffff\n      and\n      dup2\n      mstore\n      0x20\n      add\n      swap1\n      dup2\n      mstore\n      0x20\n      add\n      0x00\n      keccak256\n        /* \"src/contracts/SmartBank.sol\":1006:1034  accounts[msg.sender].balance */\n      0x00\n      add\n      sload\n        /* \"src/contracts/SmartBank.sol\":997:1005  withdraw */\n      tag_27\n        /* \"src/contracts/SmartBank.sol\":997:1035  withdraw(accounts[msg.sender].balance) */\n      jump\t// in\n    tag_110:\n        /* \"src/contracts/SmartBank.sol\":957:1042  function withdrawAll() public {... */\n      jump\t// out\n        /* \"src/contracts/SmartBank.sol\":756:951  function deposit() public payable {... */\n    tag_56:\n        /* \"src/contracts/SmartBank.sol\":821:822  0 */\n      0x00\n        /* \"src/contracts/SmartBank.sol\":808:817  msg.value */\n      callvalue\n        /* \"src/contracts/SmartBank.sol\":808:822  msg.value != 0 */\n      sub\n        /* \"src/contracts/SmartBank.sol\":800:848  require(msg.value != 0, \"value can not be zero\") */\n      tag_112\n      jumpi\n      mload(0x40)\n      0x08c379a000000000000000000000000000000000000000000000000000000000\n      dup2\n      mstore\n      0x04\n      add\n      tag_113\n      swap1\n      tag_114\n      jump\t// in\n    tag_113:\n      mload(0x40)\n      dup1\n      swap2\n      sub\n      swap1\n      revert\n    tag_112:\n        /* \"src/contracts/SmartBank.sol\":890:899  msg.value */\n      callvalue\n        /* \"src/contracts/SmartBank.sol\":858:866  accounts */\n      0x03\n        /* \"src/contracts/SmartBank.sol\":858:878  accounts[msg.sender] */\n      0x00\n        /* \"src/contracts/SmartBank.sol\":867:877  msg.sender */\n      caller\n        /* \"src/contracts/SmartBank.sol\":858:878  accounts[msg.sender] */\n      0xffffffffffffffffffffffffffffffffffffffff\n      and\n      0xffffffffffffffffffffffffffffffffffffffff\n      and\n      dup2\n      mstore\n      0x20\n      add\n      swap1\n      dup2\n      mstore\n      0x20\n      add\n      0x00\n      keccak256\n        /* \"src/contracts/SmartBank.sol\":858:886  accounts[msg.sender].balance */\n      0x00\n      add\n      0x00\n        /* \"src/contracts/SmartBank.sol\":858:899  accounts[msg.sender].balance += msg.value */\n      dup3\n      dup3\n      sload\n      tag_115\n      swap2\n      swap1\n      tag_81\n      jump\t// in\n    tag_115:\n      swap3\n      pop\n      pop\n      dup2\n      swap1\n      sstore\n      pop\n        /* \"src/contracts/SmartBank.sol\":914:944  Deposit(msg.sender, msg.value) */\n      0xe1fffcc4923d04b559f4d29a8bfc6cda04eb5b0d3c460751c2402c5c5cc9109c\n        /* \"src/contracts/SmartBank.sol\":922:932  msg.sender */\n      caller\n        /* \"src/contracts/SmartBank.sol\":934:943  msg.value */\n      callvalue\n        /* \"src/contracts/SmartBank.sol\":914:944  Deposit(msg.sender, msg.value) */\n      mload(0x40)\n      tag_116\n      swap3\n      swap2\n      swap1\n      tag_85\n      jump\t// in\n    tag_116:\n      mload(0x40)\n      dup1\n      swap2\n      sub\n      swap1\n      log1\n        /* \"src/contracts/SmartBank.sol\":756:951  function deposit() public payable {... */\n      jump\t// out\n        /* \"#utility.yul\":7:84   */\n    tag_117:\n        /* \"#utility.yul\":44:51   */\n      0x00\n        /* \"#utility.yul\":73:78   */\n      dup2\n        /* \"#utility.yul\":62:78   */\n      swap1\n      pop\n        /* \"#utility.yul\":7:84   */\n      swap2\n      swap1\n      pop\n      jump\t// out\n        /* \"#utility.yul\":90:208   */\n    tag_118:\n        /* \"#utility.yul\":177:201   */\n      tag_154\n        /* \"#utility.yul\":195:200   */\n      dup2\n        /* \"#utility.yul\":177:201   */\n      tag_117\n      jump\t// in\n    tag_154:\n        /* \"#utility.yul\":172:175   */\n      dup3\n        /* \"#utility.yul\":165:202   */\n      mstore\n        /* \"#utility.yul\":90:208   */\n      pop\n      pop\n      jump\t// out\n        /* \"#utility.yul\":214:436   */\n    tag_17:\n        /* \"#utility.yul\":307:311   */\n      0x00\n        /* \"#utility.yul\":345:347   */\n      0x20\n        /* \"#utility.yul\":334:343   */\n      dup3\n        /* \"#utility.yul\":330:348   */\n      add\n        /* \"#utility.yul\":322:348   */\n      swap1\n      pop\n        /* \"#utility.yul\":358:429   */\n      tag_156\n        /* \"#utility.yul\":426:427   */\n      0x00\n        /* \"#utility.yul\":415:424   */\n      dup4\n        /* \"#utility.yul\":411:428   */\n      add\n        /* \"#utility.yul\":402:408   */\n      dup5\n        /* \"#utility.yul\":358:429   */\n      tag_118\n      jump\t// in\n    tag_156:\n        /* \"#utility.yul\":214:436   */\n      swap3\n      swap2\n      pop\n      pop\n      jump\t// out\n        /* \"#utility.yul\":523:640   */\n    tag_120:\n        /* \"#utility.yul\":632:633   */\n      0x00\n        /* \"#utility.yul\":629:630   */\n      0x00\n        /* \"#utility.yul\":622:634   */\n      revert\n        /* \"#utility.yul\":769:862   */\n    tag_122:\n        /* \"#utility.yul\":805:812   */\n      0x00\n        /* \"#utility.yul\":845:855   */\n      0xffffffff\n        /* \"#utility.yul\":838:843   */\n      dup3\n        /* \"#utility.yul\":834:856   */\n      and\n        /* \"#utility.yul\":823:856   */\n      swap1\n      pop\n        /* \"#utility.yul\":769:862   */\n      swap2\n      swap1\n      pop\n      jump\t// out\n        /* \"#utility.yul\":868:988   */\n    tag_123:\n        /* \"#utility.yul\":940:963   */\n      tag_162\n        /* \"#utility.yul\":957:962   */\n      dup2\n        /* \"#utility.yul\":940:963   */\n      tag_122\n      jump\t// in\n    tag_162:\n        /* \"#utility.yul\":933:938   */\n      dup2\n        /* \"#utility.yul\":930:964   */\n      eq\n        /* \"#utility.yul\":920:982   */\n      tag_163\n      jumpi\n        /* \"#utility.yul\":978:979   */\n      0x00\n        /* \"#utility.yul\":975:976   */\n      0x00\n        /* \"#utility.yul\":968:980   */\n      revert\n        /* \"#utility.yul\":920:982   */\n    tag_163:\n        /* \"#utility.yul\":868:988   */\n      pop\n      jump\t// out\n        /* \"#utility.yul\":994:1131   */\n    tag_124:\n        /* \"#utility.yul\":1039:1044   */\n      0x00\n        /* \"#utility.yul\":1077:1083   */\n      dup2\n        /* \"#utility.yul\":1064:1084   */\n      calldataload\n        /* \"#utility.yul\":1055:1084   */\n      swap1\n      pop\n        /* \"#utility.yul\":1093:1125   */\n      tag_165\n        /* \"#utility.yul\":1119:1124   */\n      dup2\n        /* \"#utility.yul\":1093:1125   */\n      tag_123\n      jump\t// in\n    tag_165:\n        /* \"#utility.yul\":994:1131   */\n      swap3\n      swap2\n      pop\n      pop\n      jump\t// out\n        /* \"#utility.yul\":1137:1464   */\n    tag_21:\n        /* \"#utility.yul\":1195:1201   */\n      0x00\n        /* \"#utility.yul\":1244:1246   */\n      0x20\n        /* \"#utility.yul\":1232:1241   */\n      dup3\n        /* \"#utility.yul\":1223:1230   */\n      dup5\n        /* \"#utility.yul\":1219:1242   */\n      sub\n        /* \"#utility.yul\":1215:1247   */\n      slt\n        /* \"#utility.yul\":1212:1331   */\n      iszero\n      tag_167\n      jumpi\n        /* \"#utility.yul\":1250:1329   */\n      tag_168\n      tag_120\n      jump\t// in\n    tag_168:\n        /* \"#utility.yul\":1212:1331   */\n    tag_167:\n        /* \"#utility.yul\":1370:1371   */\n      0x00\n        /* \"#utility.yul\":1395:1447   */\n      tag_169\n        /* \"#utility.yul\":1439:1446   */\n      dup5\n        /* \"#utility.yul\":1430:1436   */\n      dup3\n        /* \"#utility.yul\":1419:1428   */\n      dup6\n        /* \"#utility.yul\":1415:1437   */\n      add\n        /* \"#utility.yul\":1395:1447   */\n      tag_124\n      jump\t// in\n    tag_169:\n        /* \"#utility.yul\":1385:1447   */\n      swap2\n      pop\n        /* \"#utility.yul\":1341:1457   */\n      pop\n        /* \"#utility.yul\":1137:1464   */\n      swap3\n      swap2\n      pop\n      pop\n      jump\t// out\n        /* \"#utility.yul\":1470:1592   */\n    tag_125:\n        /* \"#utility.yul\":1543:1567   */\n      tag_171\n        /* \"#utility.yul\":1561:1566   */\n      dup2\n        /* \"#utility.yul\":1543:1567   */\n      tag_117\n      jump\t// in\n    tag_171:\n        /* \"#utility.yul\":1536:1541   */\n      dup2\n        /* \"#utility.yul\":1533:1568   */\n      eq\n        /* \"#utility.yul\":1523:1586   */\n      tag_172\n      jumpi\n        /* \"#utility.yul\":1582:1583   */\n      0x00\n        /* \"#utility.yul\":1579:1580   */\n      0x00\n        /* \"#utility.yul\":1572:1584   */\n      revert\n        /* \"#utility.yul\":1523:1586   */\n    tag_172:\n        /* \"#utility.yul\":1470:1592   */\n      pop\n      jump\t// out\n        /* \"#utility.yul\":1598:1737   */\n    tag_126:\n        /* \"#utility.yul\":1644:1649   */\n      0x00\n        /* \"#utility.yul\":1682:1688   */\n      dup2\n        /* \"#utility.yul\":1669:1689   */\n      calldataload\n        /* \"#utility.yul\":1660:1689   */\n      swap1\n      pop\n        /* \"#utility.yul\":1698:1731   */\n      tag_174\n        /* \"#utility.yul\":1725:1730   */\n      dup2\n        /* \"#utility.yul\":1698:1731   */\n      tag_125\n      jump\t// in\n    tag_174:\n        /* \"#utility.yul\":1598:1737   */\n      swap3\n      swap2\n      pop\n      pop\n      jump\t// out\n        /* \"#utility.yul\":1743:2072   */\n    tag_26:\n        /* \"#utility.yul\":1802:1808   */\n      0x00\n        /* \"#utility.yul\":1851:1853   */\n      0x20\n        /* \"#utility.yul\":1839:1848   */\n      dup3\n        /* \"#utility.yul\":1830:1837   */\n      dup5\n        /* \"#utility.yul\":1826:1849   */\n      sub\n        /* \"#utility.yul\":1822:1854   */\n      slt\n        /* \"#utility.yul\":1819:1938   */\n      iszero\n      tag_176\n      jumpi\n        /* \"#utility.yul\":1857:1936   */\n      tag_177\n      tag_120\n      jump\t// in\n    tag_177:\n        /* \"#utility.yul\":1819:1938   */\n    tag_176:\n        /* \"#utility.yul\":1977:1978   */\n      0x00\n        /* \"#utility.yul\":2002:2055   */\n      tag_178\n        /* \"#utility.yul\":2047:2054   */\n      dup5\n        /* \"#utility.yul\":2038:2044   */\n      dup3\n        /* \"#utility.yul\":2027:2036   */\n      dup6\n        /* \"#utility.yul\":2023:2045   */\n      add\n        /* \"#utility.yul\":2002:2055   */\n      tag_126\n      jump\t// in\n    tag_178:\n        /* \"#utility.yul\":1992:2055   */\n      swap2\n      pop\n        /* \"#utility.yul\":1948:2065   */\n      pop\n        /* \"#utility.yul\":1743:2072   */\n      swap3\n      swap2\n      pop\n      pop\n      jump\t// out\n        /* \"#utility.yul\":2078:2204   */\n    tag_127:\n        /* \"#utility.yul\":2115:2122   */\n      0x00\n        /* \"#utility.yul\":2155:2197   */\n      0xffffffffffffffffffffffffffffffffffffffff\n        /* \"#utility.yul\":2148:2153   */\n      dup3\n        /* \"#utility.yul\":2144:2198   */\n      and\n        /* \"#utility.yul\":2133:2198   */\n      swap1\n      pop\n        /* \"#utility.yul\":2078:2204   */\n      swap2\n      swap1\n      pop\n      jump\t// out\n        /* \"#utility.yul\":2210:2314   */\n    tag_128:\n        /* \"#utility.yul\":2255:2262   */\n      0x00\n        /* \"#utility.yul\":2284:2308   */\n      tag_181\n        /* \"#utility.yul\":2302:2307   */\n      dup3\n        /* \"#utility.yul\":2284:2308   */\n      tag_127\n      jump\t// in\n    tag_181:\n        /* \"#utility.yul\":2273:2308   */\n      swap1\n      pop\n        /* \"#utility.yul\":2210:2314   */\n      swap2\n      swap1\n      pop\n      jump\t// out\n        /* \"#utility.yul\":2320:2458   */\n    tag_129:\n        /* \"#utility.yul\":2401:2433   */\n      tag_183\n        /* \"#utility.yul\":2427:2432   */\n      dup2\n        /* \"#utility.yul\":2401:2433   */\n      tag_128\n      jump\t// in\n    tag_183:\n        /* \"#utility.yul\":2394:2399   */\n      dup2\n        /* \"#utility.yul\":2391:2434   */\n      eq\n        /* \"#utility.yul\":2381:2452   */\n      tag_184\n      jumpi\n        /* \"#utility.yul\":2448:2449   */\n      0x00\n        /* \"#utility.yul\":2445:2446   */\n      0x00\n        /* \"#utility.yul\":2438:2450   */\n      revert\n        /* \"#utility.yul\":2381:2452   */\n    tag_184:\n        /* \"#utility.yul\":2320:2458   */\n      pop\n      jump\t// out\n        /* \"#utility.yul\":2464:2619   */\n    tag_130:\n        /* \"#utility.yul\":2518:2523   */\n      0x00\n        /* \"#utility.yul\":2556:2562   */\n      dup2\n        /* \"#utility.yul\":2543:2563   */\n      calldataload\n        /* \"#utility.yul\":2534:2563   */\n      swap1\n      pop\n        /* \"#utility.yul\":2572:2613   */\n      tag_186\n        /* \"#utility.yul\":2607:2612   */\n      dup2\n        /* \"#utility.yul\":2572:2613   */\n      tag_129\n      jump\t// in\n    tag_186:\n        /* \"#utility.yul\":2464:2619   */\n      swap3\n      swap2\n      pop\n      pop\n      jump\t// out\n        /* \"#utility.yul\":2625:3115   */\n    tag_35:\n        /* \"#utility.yul\":2701:2707   */\n      0x00\n        /* \"#utility.yul\":2709:2715   */\n      0x00\n        /* \"#utility.yul\":2758:2760   */\n      0x40\n        /* \"#utility.yul\":2746:2755   */\n      dup4\n        /* \"#utility.yul\":2737:2744   */\n      dup6\n        /* \"#utility.yul\":2733:2756   */\n      sub\n        /* \"#utility.yul\":2729:2761   */\n      slt\n        /* \"#utility.yul\":2726:2845   */\n      iszero\n      tag_188\n      jumpi\n        /* \"#utility.yul\":2764:2843   */\n      tag_189\n      tag_120\n      jump\t// in\n    tag_189:\n        /* \"#utility.yul\":2726:2845   */\n    tag_188:\n        /* \"#utility.yul\":2884:2885   */\n      0x00\n        /* \"#utility.yul\":2909:2970   */\n      tag_190\n        /* \"#utility.yul\":2962:2969   */\n      dup6\n        /* \"#utility.yul\":2953:2959   */\n      dup3\n        /* \"#utility.yul\":2942:2951   */\n      dup7\n        /* \"#utility.yul\":2938:2960   */\n      add\n        /* \"#utility.yul\":2909:2970   */\n      tag_130\n      jump\t// in\n    tag_190:\n        /* \"#utility.yul\":2899:2970   */\n      swap3\n      pop\n        /* \"#utility.yul\":2855:2980   */\n      pop\n        /* \"#utility.yul\":3019:3021   */\n      0x20\n        /* \"#utility.yul\":3045:3098   */\n      tag_191\n        /* \"#utility.yul\":3090:3097   */\n      dup6\n        /* \"#utility.yul\":3081:3087   */\n      dup3\n        /* \"#utility.yul\":3070:3079   */\n      dup7\n        /* \"#utility.yul\":3066:3088   */\n      add\n        /* \"#utility.yul\":3045:3098   */\n      tag_126\n      jump\t// in\n    tag_191:\n        /* \"#utility.yul\":3035:3098   */\n      swap2\n      pop\n        /* \"#utility.yul\":2990:3108   */\n      pop\n        /* \"#utility.yul\":2625:3115   */\n      swap3\n      pop\n      swap3\n      swap1\n      pop\n      jump\t// out\n        /* \"#utility.yul\":3121:3217   */\n    tag_131:\n        /* \"#utility.yul\":3158:3165   */\n      0x00\n        /* \"#utility.yul\":3187:3211   */\n      tag_193\n        /* \"#utility.yul\":3205:3210   */\n      dup3\n        /* \"#utility.yul\":3187:3211   */\n      tag_127\n      jump\t// in\n    tag_193:\n        /* \"#utility.yul\":3176:3211   */\n      swap1\n      pop\n        /* \"#utility.yul\":3121:3217   */\n      swap2\n      swap1\n      pop\n      jump\t// out\n        /* \"#utility.yul\":3223:3345   */\n    tag_132:\n        /* \"#utility.yul\":3296:3320   */\n      tag_195\n        /* \"#utility.yul\":3314:3319   */\n      dup2\n        /* \"#utility.yul\":3296:3320   */\n      tag_131\n      jump\t// in\n    tag_195:\n        /* \"#utility.yul\":3289:3294   */\n      dup2\n        /* \"#utility.yul\":3286:3321   */\n      eq\n        /* \"#utility.yul\":3276:3339   */\n      tag_196\n      jumpi\n        /* \"#utility.yul\":3335:3336   */\n      0x00\n        /* \"#utility.yul\":3332:3333   */\n      0x00\n        /* \"#utility.yul\":3325:3337   */\n      revert\n        /* \"#utility.yul\":3276:3339   */\n    tag_196:\n        /* \"#utility.yul\":3223:3345   */\n      pop\n      jump\t// out\n        /* \"#utility.yul\":3351:3490   */\n    tag_133:\n        /* \"#utility.yul\":3397:3402   */\n      0x00\n        /* \"#utility.yul\":3435:3441   */\n      dup2\n        /* \"#utility.yul\":3422:3442   */\n      calldataload\n        /* \"#utility.yul\":3413:3442   */\n      swap1\n      pop\n        /* \"#utility.yul\":3451:3484   */\n      tag_198\n        /* \"#utility.yul\":3478:3483   */\n      dup2\n        /* \"#utility.yul\":3451:3484   */\n      tag_132\n      jump\t// in\n    tag_198:\n        /* \"#utility.yul\":3351:3490   */\n      swap3\n      swap2\n      pop\n      pop\n      jump\t// out\n        /* \"#utility.yul\":3496:3825   */\n    tag_44:\n        /* \"#utility.yul\":3555:3561   */\n      0x00\n        /* \"#utility.yul\":3604:3606   */\n      0x20\n        /* \"#utility.yul\":3592:3601   */\n      dup3\n        /* \"#utility.yul\":3583:3590   */\n      dup5\n        /* \"#utility.yul\":3579:3602   */\n      sub\n        /* \"#utility.yul\":3575:3607   */\n      slt\n        /* \"#utility.yul\":3572:3691   */\n      iszero\n      tag_200\n      jumpi\n        /* \"#utility.yul\":3610:3689   */\n      tag_201\n      tag_120\n      jump\t// in\n    tag_201:\n        /* \"#utility.yul\":3572:3691   */\n    tag_200:\n        /* \"#utility.yul\":3730:3731   */\n      0x00\n        /* \"#utility.yul\":3755:3808   */\n      tag_202\n        /* \"#utility.yul\":3800:3807   */\n      dup5\n        /* \"#utility.yul\":3791:3797   */\n      dup3\n        /* \"#utility.yul\":3780:3789   */\n      dup6\n        /* \"#utility.yul\":3776:3798   */\n      add\n        /* \"#utility.yul\":3755:3808   */\n      tag_133\n      jump\t// in\n    tag_202:\n        /* \"#utility.yul\":3745:3808   */\n      swap2\n      pop\n        /* \"#utility.yul\":3701:3818   */\n      pop\n        /* \"#utility.yul\":3496:3825   */\n      swap3\n      swap2\n      pop\n      pop\n      jump\t// out\n        /* \"#utility.yul\":3831:4305   */\n    tag_50:\n        /* \"#utility.yul\":3899:3905   */\n      0x00\n        /* \"#utility.yul\":3907:3913   */\n      0x00\n        /* \"#utility.yul\":3956:3958   */\n      0x40\n        /* \"#utility.yul\":3944:3953   */\n      dup4\n        /* \"#utility.yul\":3935:3942   */\n      dup6\n        /* \"#utility.yul\":3931:3954   */\n      sub\n        /* \"#utility.yul\":3927:3959   */\n      slt\n        /* \"#utility.yul\":3924:4043   */\n      iszero\n      tag_204\n      jumpi\n        /* \"#utility.yul\":3962:4041   */\n      tag_205\n      tag_120\n      jump\t// in\n    tag_205:\n        /* \"#utility.yul\":3924:4043   */\n    tag_204:\n        /* \"#utility.yul\":4082:4083   */\n      0x00\n        /* \"#utility.yul\":4107:4160   */\n      tag_206\n        /* \"#utility.yul\":4152:4159   */\n      dup6\n        /* \"#utility.yul\":4143:4149   */\n      dup3\n        /* \"#utility.yul\":4132:4141   */\n      dup7\n        /* \"#utility.yul\":4128:4150   */\n      add\n        /* \"#utility.yul\":4107:4160   */\n      tag_133\n      jump\t// in\n    tag_206:\n        /* \"#utility.yul\":4097:4160   */\n      swap3\n      pop\n        /* \"#utility.yul\":4053:4170   */\n      pop\n        /* \"#utility.yul\":4209:4211   */\n      0x20\n        /* \"#utility.yul\":4235:4288   */\n      tag_207\n        /* \"#utility.yul\":4280:4287   */\n      dup6\n        /* \"#utility.yul\":4271:4277   */\n      dup3\n        /* \"#utility.yul\":4260:4269   */\n      dup7\n        /* \"#utility.yul\":4256:4278   */\n      add\n        /* \"#utility.yul\":4235:4288   */\n      tag_126\n      jump\t// in\n    tag_207:\n        /* \"#utility.yul\":4225:4288   */\n      swap2\n      pop\n        /* \"#utility.yul\":4180:4298   */\n      pop\n        /* \"#utility.yul\":3831:4305   */\n      swap3\n      pop\n      swap3\n      swap1\n      pop\n      jump\t// out\n        /* \"#utility.yul\":4311:4480   */\n    tag_134:\n        /* \"#utility.yul\":4395:4406   */\n      0x00\n        /* \"#utility.yul\":4429:4435   */\n      dup3\n        /* \"#utility.yul\":4424:4427   */\n      dup3\n        /* \"#utility.yul\":4417:4436   */\n      mstore\n        /* \"#utility.yul\":4469:4473   */\n      0x20\n        /* \"#utility.yul\":4464:4467   */\n      dup3\n        /* \"#utility.yul\":4460:4474   */\n      add\n        /* \"#utility.yul\":4445:4474   */\n      swap1\n      pop\n        /* \"#utility.yul\":4311:4480   */\n      swap3\n      swap2\n      pop\n      pop\n      jump\t// out\n        /* \"#utility.yul\":4486:4649   */\n    tag_135:\n        /* \"#utility.yul\":4626:4641   */\n      0x6e6f7420746865206f776e657200000000000000000000000000000000000000\n        /* \"#utility.yul\":4622:4623   */\n      0x00\n        /* \"#utility.yul\":4614:4620   */\n      dup3\n        /* \"#utility.yul\":4610:4624   */\n      add\n        /* \"#utility.yul\":4603:4642   */\n      mstore\n        /* \"#utility.yul\":4486:4649   */\n      pop\n      jump\t// out\n        /* \"#utility.yul\":4655:5021   */\n    tag_136:\n        /* \"#utility.yul\":4797:4800   */\n      0x00\n        /* \"#utility.yul\":4818:4885   */\n      tag_211\n        /* \"#utility.yul\":4882:4884   */\n      0x0d\n        /* \"#utility.yul\":4877:4880   */\n      dup4\n        /* \"#utility.yul\":4818:4885   */\n      tag_134\n      jump\t// in\n    tag_211:\n        /* \"#utility.yul\":4811:4885   */\n      swap2\n      pop\n        /* \"#utility.yul\":4894:4987   */\n      tag_212\n        /* \"#utility.yul\":4983:4986   */\n      dup3\n        /* \"#utility.yul\":4894:4987   */\n      tag_135\n      jump\t// in\n    tag_212:\n        /* \"#utility.yul\":5012:5014   */\n      0x20\n        /* \"#utility.yul\":5007:5010   */\n      dup3\n        /* \"#utility.yul\":5003:5015   */\n      add\n        /* \"#utility.yul\":4996:5015   */\n      swap1\n      pop\n        /* \"#utility.yul\":4655:5021   */\n      swap2\n      swap1\n      pop\n      jump\t// out\n        /* \"#utility.yul\":5027:5446   */\n    tag_61:\n        /* \"#utility.yul\":5193:5197   */\n      0x00\n        /* \"#utility.yul\":5231:5233   */\n      0x20\n        /* \"#utility.yul\":5220:5229   */\n      dup3\n        /* \"#utility.yul\":5216:5234   */\n      add\n        /* \"#utility.yul\":5208:5234   */\n      swap1\n      pop\n        /* \"#utility.yul\":5280:5289   */\n      dup2\n        /* \"#utility.yul\":5274:5278   */\n      dup2\n        /* \"#utility.yul\":5270:5290   */\n      sub\n        /* \"#utility.yul\":5266:5267   */\n      0x00\n        /* \"#utility.yul\":5255:5264   */\n      dup4\n        /* \"#utility.yul\":5251:5268   */\n      add\n        /* \"#utility.yul\":5244:5291   */\n      mstore\n        /* \"#utility.yul\":5308:5439   */\n      tag_214\n        /* \"#utility.yul\":5434:5438   */\n      dup2\n        /* \"#utility.yul\":5308:5439   */\n      tag_136\n      jump\t// in\n    tag_214:\n        /* \"#utility.yul\":5300:5439   */\n      swap1\n      pop\n        /* \"#utility.yul\":5027:5446   */\n      swap2\n      swap1\n      pop\n      jump\t// out\n        /* \"#utility.yul\":5452:5614   */\n    tag_137:\n        /* \"#utility.yul\":5592:5606   */\n      0x6f7574206f662072616e67650000000000000000000000000000000000000000\n        /* \"#utility.yul\":5588:5589   */\n      0x00\n        /* \"#utility.yul\":5580:5586   */\n      dup3\n        /* \"#utility.yul\":5576:5590   */\n      add\n        /* \"#utility.yul\":5569:5607   */\n      mstore\n        /* \"#utility.yul\":5452:5614   */\n      pop\n      jump\t// out\n        /* \"#utility.yul\":5620:5986   */\n    tag_138:\n        /* \"#utility.yul\":5762:5765   */\n      0x00\n        /* \"#utility.yul\":5783:5850   */\n      tag_217\n        /* \"#utility.yul\":5847:5849   */\n      0x0c\n        /* \"#utility.yul\":5842:5845   */\n      dup4\n        /* \"#utility.yul\":5783:5850   */\n      tag_134\n      jump\t// in\n    tag_217:\n        /* \"#utility.yul\":5776:5850   */\n      swap2\n      pop\n        /* \"#utility.yul\":5859:5952   */\n      tag_218\n        /* \"#utility.yul\":5948:5951   */\n      dup3\n        /* \"#utility.yul\":5859:5952   */\n      tag_137\n      jump\t// in\n    tag_218:\n        /* \"#utility.yul\":5977:5979   */\n      0x20\n        /* \"#utility.yul\":5972:5975   */\n      dup3\n        /* \"#utility.yul\":5968:5980   */\n      add\n        /* \"#utility.yul\":5961:5980   */\n      swap1\n      pop\n        /* \"#utility.yul\":5620:5986   */\n      swap2\n      swap1\n      pop\n      jump\t// out\n        /* \"#utility.yul\":5992:6411   */\n    tag_66:\n        /* \"#utility.yul\":6158:6162   */\n      0x00\n        /* \"#utility.yul\":6196:6198   */\n      0x20\n        /* \"#utility.yul\":6185:6194   */\n      dup3\n        /* \"#utility.yul\":6181:6199   */\n      add\n        /* \"#utility.yul\":6173:6199   */\n      swap1\n      pop\n        /* \"#utility.yul\":6245:6254   */\n      dup2\n        /* \"#utility.yul\":6239:6243   */\n      dup2\n        /* \"#utility.yul\":6235:6255   */\n      sub\n        /* \"#utility.yul\":6231:6232   */\n      0x00\n        /* \"#utility.yul\":6220:6229   */\n      dup4\n        /* \"#utility.yul\":6216:6233   */\n      add\n        /* \"#utility.yul\":6209:6256   */\n      mstore\n        /* \"#utility.yul\":6273:6404   */\n      tag_220\n        /* \"#utility.yul\":6399:6403   */\n      dup2\n        /* \"#utility.yul\":6273:6404   */\n      tag_138\n      jump\t// in\n    tag_220:\n        /* \"#utility.yul\":6265:6404   */\n      swap1\n      pop\n        /* \"#utility.yul\":5992:6411   */\n      swap2\n      swap1\n      pop\n      jump\t// out\n        /* \"#utility.yul\":6417:6587   */\n    tag_139:\n        /* \"#utility.yul\":6557:6579   */\n      0x696e73756666696369656e742062616c616e6365000000000000000000000000\n        /* \"#utility.yul\":6553:6554   */\n      0x00\n        /* \"#utility.yul\":6545:6551   */\n      dup3\n        /* \"#utility.yul\":6541:6555   */\n      add\n        /* \"#utility.yul\":6534:6580   */\n      mstore\n        /* \"#utility.yul\":6417:6587   */\n      pop\n      jump\t// out\n        /* \"#utility.yul\":6593:6959   */\n    tag_140:\n        /* \"#utility.yul\":6735:6738   */\n      0x00\n        /* \"#utility.yul\":6756:6823   */\n      tag_223\n        /* \"#utility.yul\":6820:6822   */\n      0x14\n        /* \"#utility.yul\":6815:6818   */\n      dup4\n        /* \"#utility.yul\":6756:6823   */\n      tag_134\n      jump\t// in\n    tag_223:\n        /* \"#utility.yul\":6749:6823   */\n      swap2\n      pop\n        /* \"#utility.yul\":6832:6925   */\n      tag_224\n        /* \"#utility.yul\":6921:6924   */\n      dup3\n        /* \"#utility.yul\":6832:6925   */\n      tag_139\n      jump\t// in\n    tag_224:\n        /* \"#utility.yul\":6950:6952   */\n      0x20\n        /* \"#utility.yul\":6945:6948   */\n      dup3\n        /* \"#utility.yul\":6941:6953   */\n      add\n        /* \"#utility.yul\":6934:6953   */\n      swap1\n      pop\n        /* \"#utility.yul\":6593:6959   */\n      swap2\n      swap1\n      pop\n      jump\t// out\n        /* \"#utility.yul\":6965:7384   */\n    tag_70:\n        /* \"#utility.yul\":7131:7135   */\n      0x00\n        /* \"#utility.yul\":7169:7171   */\n      0x20\n        /* \"#utility.yul\":7158:7167   */\n      dup3\n        /* \"#utility.yul\":7154:7172   */\n      add\n        /* \"#utility.yul\":7146:7172   */\n      swap1\n      pop\n        /* \"#utility.yul\":7218:7227   */\n      dup2\n        /* \"#utility.yul\":7212:7216   */\n      dup2\n        /* \"#utility.yul\":7208:7228   */\n      sub\n        /* \"#utility.yul\":7204:7205   */\n      0x00\n        /* \"#utility.yul\":7193:7202   */\n      dup4\n        /* \"#utility.yul\":7189:7206   */\n      add\n        /* \"#utility.yul\":7182:7229   */\n      mstore\n        /* \"#utility.yul\":7246:7377   */\n      tag_226\n        /* \"#utility.yul\":7372:7376   */\n      dup2\n        /* \"#utility.yul\":7246:7377   */\n      tag_140\n      jump\t// in\n    tag_226:\n        /* \"#utility.yul\":7238:7377   */\n      swap1\n      pop\n        /* \"#utility.yul\":6965:7384   */\n      swap2\n      swap1\n      pop\n      jump\t// out\n        /* \"#utility.yul\":7390:7570   */\n    tag_141:\n        /* \"#utility.yul\":7438:7515   */\n      0x4e487b7100000000000000000000000000000000000000000000000000000000\n        /* \"#utility.yul\":7435:7436   */\n      0x00\n        /* \"#utility.yul\":7428:7516   */\n      mstore\n        /* \"#utility.yul\":7535:7539   */\n      0x11\n        /* \"#utility.yul\":7532:7533   */\n      0x04\n        /* \"#utility.yul\":7525:7540   */\n      mstore\n        /* \"#utility.yul\":7559:7563   */\n      0x24\n        /* \"#utility.yul\":7556:7557   */\n      0x00\n        /* \"#utility.yul\":7549:7564   */\n      revert\n        /* \"#utility.yul\":7576:7770   */\n    tag_72:\n        /* \"#utility.yul\":7616:7620   */\n      0x00\n        /* \"#utility.yul\":7636:7656   */\n      tag_229\n        /* \"#utility.yul\":7654:7655   */\n      dup3\n        /* \"#utility.yul\":7636:7656   */\n      tag_117\n      jump\t// in\n    tag_229:\n        /* \"#utility.yul\":7631:7656   */\n      swap2\n      pop\n        /* \"#utility.yul\":7670:7690   */\n      tag_230\n        /* \"#utility.yul\":7688:7689   */\n      dup4\n        /* \"#utility.yul\":7670:7690   */\n      tag_117\n      jump\t// in\n    tag_230:\n        /* \"#utility.yul\":7665:7690   */\n      swap3\n      pop\n        /* \"#utility.yul\":7714:7715   */\n      dup3\n        /* \"#utility.yul\":7711:7712   */\n      dup3\n        /* \"#utility.yul\":7707:7716   */\n      sub\n        /* \"#utility.yul\":7699:7716   */\n      swap1\n      pop\n        /* \"#utility.yul\":7738:7739   */\n      dup2\n        /* \"#utility.yul\":7732:7736   */\n      dup2\n        /* \"#utility.yul\":7729:7740   */\n      gt\n        /* \"#utility.yul\":7726:7763   */\n      iszero\n      tag_231\n      jumpi\n        /* \"#utility.yul\":7743:7761   */\n      tag_232\n      tag_141\n      jump\t// in\n    tag_232:\n        /* \"#utility.yul\":7726:7763   */\n    tag_231:\n        /* \"#utility.yul\":7576:7770   */\n      swap3\n      swap2\n      pop\n      pop\n      jump\t// out\n        /* \"#utility.yul\":7776:7976   */\n    tag_74:\n        /* \"#utility.yul\":7815:7819   */\n      0x00\n        /* \"#utility.yul\":7835:7854   */\n      tag_234\n        /* \"#utility.yul\":7852:7853   */\n      dup3\n        /* \"#utility.yul\":7835:7854   */\n      tag_122\n      jump\t// in\n    tag_234:\n        /* \"#utility.yul\":7830:7854   */\n      swap2\n      pop\n        /* \"#utility.yul\":7868:7887   */\n      tag_235\n        /* \"#utility.yul\":7885:7886   */\n      dup4\n        /* \"#utility.yul\":7868:7887   */\n      tag_122\n      jump\t// in\n    tag_235:\n        /* \"#utility.yul\":7863:7887   */\n      swap3\n      pop\n        /* \"#utility.yul\":7911:7912   */\n      dup3\n        /* \"#utility.yul\":7908:7909   */\n      dup3\n        /* \"#utility.yul\":7904:7913   */\n      sub\n        /* \"#utility.yul\":7896:7913   */\n      swap1\n      pop\n        /* \"#utility.yul\":7935:7945   */\n      0xffffffff\n        /* \"#utility.yul\":7929:7933   */\n      dup2\n        /* \"#utility.yul\":7926:7946   */\n      gt\n        /* \"#utility.yul\":7923:7969   */\n      iszero\n      tag_236\n      jumpi\n        /* \"#utility.yul\":7949:7967   */\n      tag_237\n      tag_141\n      jump\t// in\n    tag_237:\n        /* \"#utility.yul\":7923:7969   */\n    tag_236:\n        /* \"#utility.yul\":7776:7976   */\n      swap3\n      swap2\n      pop\n      pop\n      jump\t// out\n        /* \"#utility.yul\":7982:8392   */\n    tag_76:\n        /* \"#utility.yul\":8022:8029   */\n      0x00\n        /* \"#utility.yul\":8045:8065   */\n      tag_239\n        /* \"#utility.yul\":8063:8064   */\n      dup3\n        /* \"#utility.yul\":8045:8065   */\n      tag_117\n      jump\t// in\n    tag_239:\n        /* \"#utility.yul\":8040:8065   */\n      swap2\n      pop\n        /* \"#utility.yul\":8079:8099   */\n      tag_240\n        /* \"#utility.yul\":8097:8098   */\n      dup4\n        /* \"#utility.yul\":8079:8099   */\n      tag_117\n      jump\t// in\n    tag_240:\n        /* \"#utility.yul\":8074:8099   */\n      swap3\n      pop\n        /* \"#utility.yul\":8134:8135   */\n      dup3\n        /* \"#utility.yul\":8131:8132   */\n      dup3\n        /* \"#utility.yul\":8127:8136   */\n      mul\n        /* \"#utility.yul\":8156:8186   */\n      tag_241\n        /* \"#utility.yul\":8174:8185   */\n      dup2\n        /* \"#utility.yul\":8156:8186   */\n      tag_117\n      jump\t// in\n    tag_241:\n        /* \"#utility.yul\":8145:8186   */\n      swap2\n      pop\n        /* \"#utility.yul\":8335:8336   */\n      dup3\n        /* \"#utility.yul\":8326:8333   */\n      dup3\n        /* \"#utility.yul\":8322:8337   */\n      div\n        /* \"#utility.yul\":8319:8320   */\n      dup5\n        /* \"#utility.yul\":8316:8338   */\n      eq\n        /* \"#utility.yul\":8296:8297   */\n      dup4\n        /* \"#utility.yul\":8289:8298   */\n      iszero\n        /* \"#utility.yul\":8269:8352   */\n      or\n        /* \"#utility.yul\":8246:8385   */\n      tag_242\n      jumpi\n        /* \"#utility.yul\":8365:8383   */\n      tag_243\n      tag_141\n      jump\t// in\n    tag_243:\n        /* \"#utility.yul\":8246:8385   */\n    tag_242:\n        /* \"#utility.yul\":8030:8392   */\n      pop\n        /* \"#utility.yul\":7982:8392   */\n      swap3\n      swap2\n      pop\n      pop\n      jump\t// out\n        /* \"#utility.yul\":8398:8578   */\n    tag_142:\n        /* \"#utility.yul\":8446:8523   */\n      0x4e487b7100000000000000000000000000000000000000000000000000000000\n        /* \"#utility.yul\":8443:8444   */\n      0x00\n        /* \"#utility.yul\":8436:8524   */\n      mstore\n        /* \"#utility.yul\":8543:8547   */\n      0x12\n        /* \"#utility.yul\":8540:8541   */\n      0x04\n        /* \"#utility.yul\":8533:8548   */\n      mstore\n        /* \"#utility.yul\":8567:8571   */\n      0x24\n        /* \"#utility.yul\":8564:8565   */\n      0x00\n        /* \"#utility.yul\":8557:8572   */\n      revert\n        /* \"#utility.yul\":8584:8769   */\n    tag_78:\n        /* \"#utility.yul\":8624:8625   */\n      0x00\n        /* \"#utility.yul\":8641:8661   */\n      tag_246\n        /* \"#utility.yul\":8659:8660   */\n      dup3\n        /* \"#utility.yul\":8641:8661   */\n      tag_117\n      jump\t// in\n    tag_246:\n        /* \"#utility.yul\":8636:8661   */\n      swap2\n      pop\n        /* \"#utility.yul\":8675:8695   */\n      tag_247\n        /* \"#utility.yul\":8693:8694   */\n      dup4\n        /* \"#utility.yul\":8675:8695   */\n      tag_117\n      jump\t// in\n    tag_247:\n        /* \"#utility.yul\":8670:8695   */\n      swap3\n      pop\n        /* \"#utility.yul\":8714:8715   */\n      dup3\n        /* \"#utility.yul\":8704:8739   */\n      tag_248\n      jumpi\n        /* \"#utility.yul\":8719:8737   */\n      tag_249\n      tag_142\n      jump\t// in\n    tag_249:\n        /* \"#utility.yul\":8704:8739   */\n    tag_248:\n        /* \"#utility.yul\":8761:8762   */\n      dup3\n        /* \"#utility.yul\":8758:8759   */\n      dup3\n        /* \"#utility.yul\":8754:8763   */\n      div\n        /* \"#utility.yul\":8749:8763   */\n      swap1\n      pop\n        /* \"#utility.yul\":8584:8769   */\n      swap3\n      swap2\n      pop\n      pop\n      jump\t// out\n        /* \"#utility.yul\":8775:8966   */\n    tag_81:\n        /* \"#utility.yul\":8815:8818   */\n      0x00\n        /* \"#utility.yul\":8834:8854   */\n      tag_251\n        /* \"#utility.yul\":8852:8853   */\n      dup3\n        /* \"#utility.yul\":8834:8854   */\n      tag_117\n      jump\t// in\n    tag_251:\n        /* \"#utility.yul\":8829:8854   */\n      swap2\n      pop\n        /* \"#utility.yul\":8868:8888   */\n      tag_252\n        /* \"#utility.yul\":8886:8887   */\n      dup4\n        /* \"#utility.yul\":8868:8888   */\n      tag_117\n      jump\t// in\n    tag_252:\n        /* \"#utility.yul\":8863:8888   */\n      swap3\n      pop\n        /* \"#utility.yul\":8911:8912   */\n      dup3\n        /* \"#utility.yul\":8908:8909   */\n      dup3\n        /* \"#utility.yul\":8904:8913   */\n      add\n        /* \"#utility.yul\":8897:8913   */\n      swap1\n      pop\n        /* \"#utility.yul\":8932:8935   */\n      dup1\n        /* \"#utility.yul\":8929:8930   */\n      dup3\n        /* \"#utility.yul\":8926:8936   */\n      gt\n        /* \"#utility.yul\":8923:8959   */\n      iszero\n      tag_253\n      jumpi\n        /* \"#utility.yul\":8939:8957   */\n      tag_254\n      tag_141\n      jump\t// in\n    tag_254:\n        /* \"#utility.yul\":8923:8959   */\n    tag_253:\n        /* \"#utility.yul\":8775:8966   */\n      swap3\n      swap2\n      pop\n      pop\n      jump\t// out\n        /* \"#utility.yul\":8972:9090   */\n    tag_143:\n        /* \"#utility.yul\":9059:9083   */\n      tag_256\n        /* \"#utility.yul\":9077:9082   */\n      dup2\n        /* \"#utility.yul\":9059:9083   */\n      tag_131\n      jump\t// in\n    tag_256:\n        /* \"#utility.yul\":9054:9057   */\n      dup3\n        /* \"#utility.yul\":9047:9084   */\n      mstore\n        /* \"#utility.yul\":8972:9090   */\n      pop\n      pop\n      jump\t// out\n        /* \"#utility.yul\":9096:9428   */\n    tag_85:\n        /* \"#utility.yul\":9217:9221   */\n      0x00\n        /* \"#utility.yul\":9255:9257   */\n      0x40\n        /* \"#utility.yul\":9244:9253   */\n      dup3\n        /* \"#utility.yul\":9240:9258   */\n      add\n        /* \"#utility.yul\":9232:9258   */\n      swap1\n      pop\n        /* \"#utility.yul\":9268:9339   */\n      tag_258\n        /* \"#utility.yul\":9336:9337   */\n      0x00\n        /* \"#utility.yul\":9325:9334   */\n      dup4\n        /* \"#utility.yul\":9321:9338   */\n      add\n        /* \"#utility.yul\":9312:9318   */\n      dup6\n        /* \"#utility.yul\":9268:9339   */\n      tag_143\n      jump\t// in\n    tag_258:\n        /* \"#utility.yul\":9349:9421   */\n      tag_259\n        /* \"#utility.yul\":9417:9419   */\n      0x20\n        /* \"#utility.yul\":9406:9415   */\n      dup4\n        /* \"#utility.yul\":9402:9420   */\n      add\n        /* \"#utility.yul\":9393:9399   */\n      dup5\n        /* \"#utility.yul\":9349:9421   */\n      tag_118\n      jump\t// in\n    tag_259:\n        /* \"#utility.yul\":9096:9428   */\n      swap4\n      swap3\n      pop\n      pop\n      pop\n      jump\t// out\n        /* \"#utility.yul\":9434:9494   */\n    tag_144:\n        /* \"#utility.yul\":9462:9465   */\n      0x00\n        /* \"#utility.yul\":9483:9488   */\n      dup2\n        /* \"#utility.yul\":9476:9488   */\n      swap1\n      pop\n        /* \"#utility.yul\":9434:9494   */\n      swap2\n      swap1\n      pop\n      jump\t// out\n        /* \"#utility.yul\":9500:9642   */\n    tag_145:\n        /* \"#utility.yul\":9550:9559   */\n      0x00\n        /* \"#utility.yul\":9583:9636   */\n      tag_262\n        /* \"#utility.yul\":9601:9635   */\n      tag_263\n        /* \"#utility.yul\":9610:9634   */\n      tag_264\n        /* \"#utility.yul\":9628:9633   */\n      dup5\n        /* \"#utility.yul\":9610:9634   */\n      tag_127\n      jump\t// in\n    tag_264:\n        /* \"#utility.yul\":9601:9635   */\n      tag_144\n      jump\t// in\n    tag_263:\n        /* \"#utility.yul\":9583:9636   */\n      tag_127\n      jump\t// in\n    tag_262:\n        /* \"#utility.yul\":9570:9636   */\n      swap1\n      pop\n        /* \"#utility.yul\":9500:9642   */\n      swap2\n      swap1\n      pop\n      jump\t// out\n        /* \"#utility.yul\":9648:9774   */\n    tag_146:\n        /* \"#utility.yul\":9698:9707   */\n      0x00\n        /* \"#utility.yul\":9731:9768   */\n      tag_266\n        /* \"#utility.yul\":9762:9767   */\n      dup3\n        /* \"#utility.yul\":9731:9768   */\n      tag_145\n      jump\t// in\n    tag_266:\n        /* \"#utility.yul\":9718:9768   */\n      swap1\n      pop\n        /* \"#utility.yul\":9648:9774   */\n      swap2\n      swap1\n      pop\n      jump\t// out\n        /* \"#utility.yul\":9780:9914   */\n    tag_147:\n        /* \"#utility.yul\":9838:9847   */\n      0x00\n        /* \"#utility.yul\":9871:9908   */\n      tag_268\n        /* \"#utility.yul\":9902:9907   */\n      dup3\n        /* \"#utility.yul\":9871:9908   */\n      tag_146\n      jump\t// in\n    tag_268:\n        /* \"#utility.yul\":9858:9908   */\n      swap1\n      pop\n        /* \"#utility.yul\":9780:9914   */\n      swap2\n      swap1\n      pop\n      jump\t// out\n        /* \"#utility.yul\":9920:10067   */\n    tag_148:\n        /* \"#utility.yul\":10015:10060   */\n      tag_270\n        /* \"#utility.yul\":10054:10059   */\n      dup2\n        /* \"#utility.yul\":10015:10060   */\n      tag_147\n      jump\t// in\n    tag_270:\n        /* \"#utility.yul\":10010:10013   */\n      dup3\n        /* \"#utility.yul\":10003:10061   */\n      mstore\n        /* \"#utility.yul\":9920:10067   */\n      pop\n      pop\n      jump\t// out\n        /* \"#utility.yul\":10073:10531   */\n    tag_94:\n        /* \"#utility.yul\":10230:10234   */\n      0x00\n        /* \"#utility.yul\":10268:10270   */\n      0x60\n        /* \"#utility.yul\":10257:10266   */\n      dup3\n        /* \"#utility.yul\":10253:10271   */\n      add\n        /* \"#utility.yul\":10245:10271   */\n      swap1\n      pop\n        /* \"#utility.yul\":10281:10352   */\n      tag_272\n        /* \"#utility.yul\":10349:10350   */\n      0x00\n        /* \"#utility.yul\":10338:10347   */\n      dup4\n        /* \"#utility.yul\":10334:10351   */\n      add\n        /* \"#utility.yul\":10325:10331   */\n      dup7\n        /* \"#utility.yul\":10281:10352   */\n      tag_143\n      jump\t// in\n    tag_272:\n        /* \"#utility.yul\":10362:10442   */\n      tag_273\n        /* \"#utility.yul\":10438:10440   */\n      0x20\n        /* \"#utility.yul\":10427:10436   */\n      dup4\n        /* \"#utility.yul\":10423:10441   */\n      add\n        /* \"#utility.yul\":10414:10420   */\n      dup6\n        /* \"#utility.yul\":10362:10442   */\n      tag_148\n      jump\t// in\n    tag_273:\n        /* \"#utility.yul\":10452:10524   */\n      tag_274\n        /* \"#utility.yul\":10520:10522   */\n      0x40\n        /* \"#utility.yul\":10509:10518   */\n      dup4\n        /* \"#utility.yul\":10505:10523   */\n      add\n        /* \"#utility.yul\":10496:10502   */\n      dup5\n        /* \"#utility.yul\":10452:10524   */\n      tag_118\n      jump\t// in\n    tag_274:\n        /* \"#utility.yul\":10073:10531   */\n      swap5\n      swap4\n      pop\n      pop\n      pop\n      pop\n      jump\t// out\n        /* \"#utility.yul\":10537:10979   */\n    tag_108:\n        /* \"#utility.yul\":10686:10690   */\n      0x00\n        /* \"#utility.yul\":10724:10726   */\n      0x60\n        /* \"#utility.yul\":10713:10722   */\n      dup3\n        /* \"#utility.yul\":10709:10727   */\n      add\n        /* \"#utility.yul\":10701:10727   */\n      swap1\n      pop\n        /* \"#utility.yul\":10737:10808   */\n      tag_276\n        /* \"#utility.yul\":10805:10806   */\n      0x00\n        /* \"#utility.yul\":10794:10803   */\n      dup4\n        /* \"#utility.yul\":10790:10807   */\n      add\n        /* \"#utility.yul\":10781:10787   */\n      dup7\n        /* \"#utility.yul\":10737:10808   */\n      tag_143\n      jump\t// in\n    tag_276:\n        /* \"#utility.yul\":10818:10890   */\n      tag_277\n        /* \"#utility.yul\":10886:10888   */\n      0x20\n        /* \"#utility.yul\":10875:10884   */\n      dup4\n        /* \"#utility.yul\":10871:10889   */\n      add\n        /* \"#utility.yul\":10862:10868   */\n      dup6\n        /* \"#utility.yul\":10818:10890   */\n      tag_143\n      jump\t// in\n    tag_277:\n        /* \"#utility.yul\":10900:10972   */\n      tag_278\n        /* \"#utility.yul\":10968:10970   */\n      0x40\n        /* \"#utility.yul\":10957:10966   */\n      dup4\n        /* \"#utility.yul\":10953:10971   */\n      add\n        /* \"#utility.yul\":10944:10950   */\n      dup5\n        /* \"#utility.yul\":10900:10972   */\n      tag_118\n      jump\t// in\n    tag_278:\n        /* \"#utility.yul\":10537:10979   */\n      swap5\n      swap4\n      pop\n      pop\n      pop\n      pop\n      jump\t// out\n        /* \"#utility.yul\":10985:11156   */\n    tag_149:\n        /* \"#utility.yul\":11125:11148   */\n      0x76616c75652063616e206e6f74206265207a65726f0000000000000000000000\n        /* \"#utility.yul\":11121:11122   */\n      0x00\n        /* \"#utility.yul\":11113:11119   */\n      dup3\n        /* \"#utility.yul\":11109:11123   */\n      add\n        /* \"#utility.yul\":11102:11149   */\n      mstore\n        /* \"#utility.yul\":10985:11156   */\n      pop\n      jump\t// out\n        /* \"#utility.yul\":11162:11528   */\n    tag_150:\n        /* \"#utility.yul\":11304:11307   */\n      0x00\n        /* \"#utility.yul\":11325:11392   */\n      tag_281\n        /* \"#utility.yul\":11389:11391   */\n      0x15\n        /* \"#utility.yul\":11384:11387   */\n      dup4\n        /* \"#utility.yul\":11325:11392   */\n      tag_134\n      jump\t// in\n    tag_281:\n        /* \"#utility.yul\":11318:11392   */\n      swap2\n      pop\n        /* \"#utility.yul\":11401:11494   */\n      tag_282\n        /* \"#utility.yul\":11490:11493   */\n      dup3\n        /* \"#utility.yul\":11401:11494   */\n      tag_149\n      jump\t// in\n    tag_282:\n        /* \"#utility.yul\":11519:11521   */\n      0x20\n        /* \"#utility.yul\":11514:11517   */\n      dup3\n        /* \"#utility.yul\":11510:11522   */\n      add\n        /* \"#utility.yul\":11503:11522   */\n      swap1\n      pop\n        /* \"#utility.yul\":11162:11528   */\n      swap2\n      swap1\n      pop\n      jump\t// out\n        /* \"#utility.yul\":11534:11953   */\n    tag_114:\n        /* \"#utility.yul\":11700:11704   */\n      0x00\n        /* \"#utility.yul\":11738:11740   */\n      0x20\n        /* \"#utility.yul\":11727:11736   */\n      dup3\n        /* \"#utility.yul\":11723:11741   */\n      add\n        /* \"#utility.yul\":11715:11741   */\n      swap1\n      pop\n        /* \"#utility.yul\":11787:11796   */\n      dup2\n        /* \"#utility.yul\":11781:11785   */\n      dup2\n        /* \"#utility.yul\":11777:11797   */\n      sub\n        /* \"#utility.yul\":11773:11774   */\n      0x00\n        /* \"#utility.yul\":11762:11771   */\n      dup4\n        /* \"#utility.yul\":11758:11775   */\n      add\n        /* \"#utility.yul\":11751:11798   */\n      mstore\n        /* \"#utility.yul\":11815:11946   */\n      tag_284\n        /* \"#utility.yul\":11941:11945   */\n      dup2\n        /* \"#utility.yul\":11815:11946   */\n      tag_150\n      jump\t// in\n    tag_284:\n        /* \"#utility.yul\":11807:11946   */\n      swap1\n      pop\n        /* \"#utility.yul\":11534:11953   */\n      swap2\n      swap1\n      pop\n      jump\t// out\n\n    auxdata: 0xa264697066735822122014c8cdce1613550e9a3febb205a9435a3106213067d39244e137315f885ef98d64736f6c634300081e0033\n}\n",
				"bytecode": {
					"linkReferences": {},
					"object": "6080604052348015600e575f5ffd5b50335f5f6101000a81548173ffffffffffffffffffffffffffffffffffffffff021916908373ffffffffffffffffffffffffffffffffffffffff1602179055506110c48061005b5f395ff3fe608060405260043610610090575f3560e01c80635e318e07116100585780635e318e07146101605780635e5c06e21461018857806377e604c0146101c4578063853828b6146101ec578063d0e30db01461020257610090565b806312065fe0146100945780631ab971ab146100be5780632e1a7d4d146100e65780633e15ef3d1461010e578063430bd09814610138575b5f5ffd5b34801561009f575f5ffd5b506100a861020c565b6040516100b59190610a69565b60405180910390f35b3480156100c9575f5ffd5b506100e460048036038101906100df9190610abf565b610252565b005b3480156100f1575f5ffd5b5061010c60048036038101906101079190610b14565b610360565b005b348015610119575f5ffd5b50610122610540565b60405161012f9190610a69565b60405180910390f35b348015610143575f5ffd5b5061015e60048036038101906101599190610b99565b610549565b005b34801561016b575f5ffd5b5061018660048036038101906101819190610b14565b6106a3565b005b348015610193575f5ffd5b506101ae60048036038101906101a99190610c12565b6107b0565b6040516101bb9190610a69565b60405180910390f35b3480156101cf575f5ffd5b506101ea60048036038101906101e59190610c3d565b6107ca565b005b3480156101f7575f5ffd5b50610200610935565b005b61020a61097f565b005b5f60035f3373ffffffffffffffffffffffffffffffffffffffff1673ffffffffffffffffffffffffffffffffffffffff1681526020019081526020015f205f0154905090565b5f5f9054906101000a900473ffffffffffffffffffffffffffffffffffffffff1673ffffffffffffffffffffffffffffffffffffffff163373ffffffffffffffffffffffffffffffffffffffff16146102e0576040517f08c379a00000000000000000000000000000000000000000000000000000000081526004016102d790610cd5565b60405180910390fd5b5f8163ffffffff16101580156102fe57506127108163ffffffff1611155b61033d576040517f08c379a000000000000000000000000000000000000000000000000000000000815260040161033490610d3d565b60405180910390fd5b8060025f6101000a81548163ffffffff021916908363ffffffff16021790555050565b60035f3373ffffffffffffffffffffffffffffffffffffffff1673ffffffffffffffffffffffffffffffffffffffff1681526020019081526020015f205f01548111156103e2576040517f08c379a00000000000000000000000000000000000000000000000000000000081526004016103d990610da5565b60405180910390fd5b8060035f3373ffffffffffffffffffffffffffffffffffffffff1673ffffffffffffffffffffffffffffffffffffffff1681526020019081526020015f205f015f8282546104309190610df0565b925050819055505f61271060025f9054906101000a900463ffffffff1661271061045a9190610e23565b63ffffffff168361046b9190610e5a565b6104759190610ec8565b90505f81836104849190610df0565b90508060015f8282546104979190610ef8565b925050819055505f5f9054906101000a900473ffffffffffffffffffffffffffffffffffffffff1673ffffffffffffffffffffffffffffffffffffffff166108fc8390811502906040515f60405180830381858888f19350505050158015610501573d5f5f3e3d5ffd5b507f884edad9ce6fa2440d8a54cc123490eb96d2768479d49ff9c7366125a94243643384604051610533929190610f3a565b60405180910390a1505050565b5f600154905090565b60035f3373ffffffffffffffffffffffffffffffffffffffff1673ffffffffffffffffffffffffffffffffffffffff1681526020019081526020015f205f01548111156105cb576040517f08c379a00000000000000000000000000000000000000000000000000000000081526004016105c290610da5565b60405180910390fd5b8060035f3373ffffffffffffffffffffffffffffffffffffffff1673ffffffffffffffffffffffffffffffffffffffff1681526020019081526020015f205f015f8282546106199190610df0565b925050819055508173ffffffffffffffffffffffffffffffffffffffff166108fc8290811502906040515f60405180830381858888f19350505050158015610663573d5f5f3e3d5ffd5b507fcf0ee562475620bbcd2f1b0675c8163317513271e4fdbbe9722436f247bd6d9933838360405161069793929190610fbc565b60405180910390a15050565b5f5f9054906101000a900473ffffffffffffffffffffffffffffffffffffffff1673ffffffffffffffffffffffffffffffffffffffff163373ffffffffffffffffffffffffffffffffffffffff1614610731576040517f08c379a000000000000000000000000000000000000000000000000000000000815260040161072890610cd5565b60405180910390fd5b8060015f8282546107429190610df0565b925050819055505f5f9054906101000a900473ffffffffffffffffffffffffffffffffffffffff1673ffffffffffffffffffffffffffffffffffffffff166108fc8290811502906040515f60405180830381858888f193505050501580156107ac573d5f5f3e3d5ffd5b5050565b6003602052805f5260405f205f91509050805f0154905081565b60035f3373ffffffffffffffffffffffffffffffffffffffff1673ffffffffffffffffffffffffffffffffffffffff1681526020019081526020015f205f015481111561084c576040517f08c379a000000000000000000000000000000000000000000000000000000000815260040161084390610da5565b60405180910390fd5b8060035f3373ffffffffffffffffffffffffffffffffffffffff1673ffffffffffffffffffffffffffffffffffffffff1681526020019081526020015f205f015f82825461089a9190610df0565b925050819055508060035f8473ffffffffffffffffffffffffffffffffffffffff1673ffffffffffffffffffffffffffffffffffffffff1681526020019081526020015f205f015f8282546108ef9190610ef8565b925050819055507fe2080c8fc8d86c864d8dc081fadaebf2be7191086615e786f954420f13ed122a33838360405161092993929190610ff1565b60405180910390a15050565b61097d60035f3373ffffffffffffffffffffffffffffffffffffffff1673ffffffffffffffffffffffffffffffffffffffff1681526020019081526020015f205f0154610360565b565b5f34036109c1576040517f08c379a00000000000000000000000000000000000000000000000000000000081526004016109b890611070565b60405180910390fd5b3460035f3373ffffffffffffffffffffffffffffffffffffffff1673ffffffffffffffffffffffffffffffffffffffff1681526020019081526020015f205f015f828254610a0f9190610ef8565b925050819055507fe1fffcc4923d04b559f4d29a8bfc6cda04eb5b0d3c460751c2402c5c5cc9109c3334604051610a47929190610f3a565b60405180910390a1565b5f819050919050565b610a6381610a51565b82525050565b5f602082019050610a7c5f830184610a5a565b92915050565b5f5ffd5b5f63ffffffff82169050919050565b610a9e81610a86565b8114610aa8575f5ffd5b50565b5f81359050610ab981610a95565b92915050565b5f60208284031215610ad457610ad3610a82565b5b5f610ae184828501610aab565b91505092915050565b610af381610a51565b8114610afd575f5ffd5b50565b5f81359050610b0e81610aea565b92915050565b5f60208284031215610b2957610b28610a82565b5b5f610b3684828501610b00565b91505092915050565b5f73ffffffffffffffffffffffffffffffffffffffff82169050919050565b5f610b6882610b3f565b9050919050565b610b7881610b5e565b8114610b82575f5ffd5b50565b5f81359050610b9381610b6f565b92915050565b5f5f60408385031215610baf57610bae610a82565b5b5f610bbc85828601610b85565b9250506020610bcd85828601610b00565b9150509250929050565b5f610be182610b3f565b9050919050565b610bf181610bd7565b8114610bfb575f5ffd5b50565b5f81359050610c0c81610be8565b92915050565b5f60208284031215610c2757610c26610a82565b5b5f610c3484828501610bfe565b91505092915050565b5f5f60408385031215610c5357610c52610a82565b5b5f610c6085828601610bfe565b9250506020610c7185828601610b00565b9150509250929050565b5f82825260208201905092915050565b7f6e6f7420746865206f776e6572000000000000000000000000000000000000005f82015250565b5f610cbf600d83610c7b565b9150610cca82610c8b565b602082019050919050565b5f6020820190508181035f830152610cec81610cb3565b9050919050565b7f6f7574206f662072616e676500000000000000000000000000000000000000005f82015250565b5f610d27600c83610c7b565b9150610d3282610cf3565b602082019050919050565b5f6020820190508181035f830152610d5481610d1b565b9050919050565b7f696e73756666696369656e742062616c616e63650000000000000000000000005f82015250565b5f610d8f601483610c7b565b9150610d9a82610d5b565b602082019050919050565b5f6020820190508181035f830152610dbc81610d83565b9050919050565b7f4e487b71000000000000000000000000000000000000000000000000000000005f52601160045260245ffd5b5f610dfa82610a51565b9150610e0583610a51565b9250828203905081811115610e1d57610e1c610dc3565b5b92915050565b5f610e2d82610a86565b9150610e3883610a86565b9250828203905063ffffffff811115610e5457610e53610dc3565b5b92915050565b5f610e6482610a51565b9150610e6f83610a51565b9250828202610e7d81610a51565b91508282048414831517610e9457610e93610dc3565b5b5092915050565b7f4e487b71000000000000000000000000000000000000000000000000000000005f52601260045260245ffd5b5f610ed282610a51565b9150610edd83610a51565b925082610eed57610eec610e9b565b5b828204905092915050565b5f610f0282610a51565b9150610f0d83610a51565b9250828201905080821115610f2557610f24610dc3565b5b92915050565b610f3481610bd7565b82525050565b5f604082019050610f4d5f830185610f2b565b610f5a6020830184610a5a565b9392505050565b5f819050919050565b5f610f84610f7f610f7a84610b3f565b610f61565b610b3f565b9050919050565b5f610f9582610f6a565b9050919050565b5f610fa682610f8b565b9050919050565b610fb681610f9c565b82525050565b5f606082019050610fcf5f830186610f2b565b610fdc6020830185610fad565b610fe96040830184610a5a565b949350505050565b5f6060820190506110045f830186610f2b565b6110116020830185610f2b565b61101e6040830184610a5a565b949350505050565b7f76616c75652063616e206e6f74206265207a65726f00000000000000000000005f82015250565b5f61105a601583610c7b565b915061106582611026565b602082019050919050565b5f6020820190508181035f8301526110878161104e565b905091905056fea264697066735822122014c8cdce1613550e9a3febb205a9435a3106213067d39244e137315f885ef98d64736f6c634300081e0033",
					"opcodes": "PUSH1 0x80 PUSH1 0x40 MSTORE CALLVALUE DUP1 ISZERO PUSH1 0xE JUMPI PUSH0 PUSH0 REVERT JUMPDEST POP CALLER PUSH0 PUSH0 PUSH2 0x100 EXP DUP2 SLOAD DUP2 PUSH20 0xFFFFFFFFFFFFFFFFFFFFFFFFFFFFFFFFFFFFFFFF MUL NOT AND SWAP1 DUP4 PUSH20 0xFFFFFFFFFFFFFFFFFFFFFFFFFFFFFFFFFFFFFFFF AND MUL OR SWAP1 SSTORE POP PUSH2 0x10C4 DUP1 PUSH2 0x5B PUSH0 CODECOPY PUSH0 RETURN INVALID PUSH1 0x80 PUSH1 0x40 MSTORE PUSH1 0x4 CALLDATASIZE LT PUSH2 0x90 JUMPI PUSH0 CALLDATALOAD PUSH1 0xE0 SHR DUP1 PUSH4 0x5E318E07 GT PUSH2 0x58 JUMPI DUP1 PUSH4 0x5E318E07 EQ PUSH2 0x160 JUMPI DUP1 PUSH4 0x5E5C06E2 EQ PUSH2 0x188 JUMPI DUP1 PUSH4 0x77E604C0 EQ PUSH2 0x1C4 JUMPI DUP1 PUSH4 0x853828B6 EQ PUSH2 0x1EC JUMPI DUP1 PUSH4 0xD0E30DB0 EQ PUSH2 0x202 JUMPI PUSH2 0x90 JUMP JUMPDEST DUP1 PUSH4 0x12065FE0 EQ PUSH2 0x94 JUMPI DUP1 PUSH4 0x1AB971AB EQ PUSH2 0xBE JUMPI DUP1 PUSH4 0x2E1A7D4D EQ PUSH2 0xE6 JUMPI DUP1 PUSH4 0x3E15EF3D EQ PUSH2 0x10E JUMPI DUP1 PUSH4 0x430BD098 EQ PUSH2 0x138 JUMPI JUMPDEST PUSH0 PUSH0 REVERT JUMPDEST CALLVALUE DUP1 ISZERO PUSH2 0x9F JUMPI PUSH0 PUSH0 REVERT JUMPDEST POP PUSH2 0xA8 PUSH2 0x20C JUMP JUMPDEST PUSH1 0x40 MLOAD PUSH2 0xB5 SWAP2 SWAP1 PUSH2 0xA69 JUMP JUMPDEST PUSH1 0x40 MLOAD DUP1 SWAP2 SUB SWAP1 RETURN JUMPDEST CALLVALUE DUP1 ISZERO PUSH2 0xC9 JUMPI PUSH0 PUSH0 REVERT JUMPDEST POP PUSH2 0xE4 PUSH1 0x4 DUP1 CALLDATASIZE SUB DUP2 ADD SWAP1 PUSH2 0xDF SWAP2 SWAP1 PUSH2 0xABF JUMP JUMPDEST PUSH2 0x252 JUMP JUMPDEST STOP JUMPDEST CALLVALUE DUP1 ISZERO PUSH2 0xF1 JUMPI PUSH0 PUSH0 REVERT JUMPDEST POP PUSH2 0x10C PUSH1 0x4 DUP1 CALLDATASIZE SUB DUP2 ADD SWAP1 PUSH2 0x107 SWAP2 SWAP1 PUSH2 0xB14 JUMP JUMPDEST PUSH2 0x360 JUMP JUMPDEST STOP JUMPDEST CALLVALUE DUP1 ISZERO PUSH2 0x119 JUMPI PUSH0 PUSH0 REVERT JUMPDEST POP PUSH2 0x122 PUSH2 0x540 JUMP JUMPDEST PUSH1 0x40 MLOAD PUSH2 0x12F SWAP2 SWAP1 PUSH2 0xA69 JUMP JUMPDEST PUSH1 0x40 MLOAD DUP1 SWAP2 SUB SWAP1 RETURN JUMPDEST CALLVALUE DUP1 ISZERO PUSH2 0x143 JUMPI PUSH0 PUSH0 REVERT JUMPDEST POP PUSH2 0x15E PUSH1 0x4 DUP1 CALLDATASIZE SUB DUP2 ADD SWAP1 PUSH2 0x159 SWAP2 SWAP1 PUSH2 0xB99 JUMP JUMPDEST PUSH2 0x549 JUMP JUMPDEST STOP JUMPDEST CALLVALUE DUP1 ISZERO PUSH2 0x16B JUMPI PUSH0 PUSH0 REVERT JUMPDEST POP PUSH2 0x186 PUSH1 0x4 DUP1 CALLDATASIZE SUB DUP2 ADD SWAP1 PUSH2 0x181 SWAP2 SWAP1 PUSH2 0xB14 JUMP JUMPDEST PUSH2 0x6A3 JUMP JUMPDEST STOP JUMPDEST CALLVALUE DUP1 ISZERO PUSH2 0x193 JUMPI PUSH0 PUSH0 REVERT JUMPDEST POP PUSH2 0x1AE PUSH1 0x4 DUP1 CALLDATASIZE SUB DUP2 ADD SWAP1 PUSH2 0x1A9 SWAP2 SWAP1 PUSH2 0xC12 JUMP JUMPDEST PUSH2 0x7B0 JUMP JUMPDEST PUSH1 0x40 MLOAD PUSH2 0x1BB SWAP2 SWAP1 PUSH2 0xA69 JUMP JUMPDEST PUSH1 0x40 MLOAD DUP1 SWAP2 SUB SWAP1 RETURN JUMPDEST CALLVALUE DUP1 ISZERO PUSH2 0x1CF JUMPI PUSH0 PUSH0 REVERT JUMPDEST POP PUSH2 0x1EA PUSH1 0x4 DUP1 CALLDATASIZE SUB DUP2 ADD SWAP1 PUSH2 0x1E5 SWAP2 SWAP1 PUSH2 0xC3D JUMP JUMPDEST PUSH2 0x7CA JUMP JUMPDEST STOP JUMPDEST CALLVALUE DUP1 ISZERO PUSH2 0x1F7 JUMPI PUSH0 PUSH0 REVERT JUMPDEST POP PUSH2 0x200 PUSH2 0x935 JUMP JUMPDEST STOP JUMPDEST PUSH2 0x20A PUSH2 0x97F JUMP JUMPDEST STOP JUMPDEST PUSH0 PUSH1 0x3 PUSH0 CALLER PUSH20 0xFFFFFFFFFFFFFFFFFFFFFFFFFFFFFFFFFFFFFFFF AND PUSH20 0xFFFFFFFFFFFFFFFFFFFFFFFFFFFFFFFFFFFFFFFF AND DUP2 MSTORE PUSH1 0x20 ADD SWAP1 DUP2 MSTORE PUSH1 0x20 ADD PUSH0 KECCAK256 PUSH0 ADD SLOAD SWAP1 POP SWAP1 JUMP JUMPDEST PUSH0 PUSH0 SWAP1 SLOAD SWAP1 PUSH2 0x100 EXP SWAP1 DIV PUSH20 0xFFFFFFFFFFFFFFFFFFFFFFFFFFFFFFFFFFFFFFFF AND PUSH20 0xFFFFFFFFFFFFFFFFFFFFFFFFFFFFFFFFFFFFFFFF AND CALLER PUSH20 0xFFFFFFFFFFFFFFFFFFFFFFFFFFFFFFFFFFFFFFFF AND EQ PUSH2 0x2E0 JUMPI PUSH1 0x40 MLOAD PUSH32 0x8C379A000000000000000000000000000000000000000000000000000000000 DUP2 MSTORE PUSH1 0x4 ADD PUSH2 0x2D7 SWAP1 PUSH2 0xCD5 JUMP JUMPDEST PUSH1 0x40 MLOAD DUP1 SWAP2 SUB SWAP1 REVERT JUMPDEST PUSH0 DUP2 PUSH4 0xFFFFFFFF AND LT ISZERO DUP1 ISZERO PUSH2 0x2FE JUMPI POP PUSH2 0x2710 DUP2 PUSH4 0xFFFFFFFF AND GT ISZERO JUMPDEST PUSH2 0x33D JUMPI PUSH1 0x40 MLOAD PUSH32 0x8C379A000000000000000000000000000000000000000000000000000000000 DUP2 MSTORE PUSH1 0x4 ADD PUSH2 0x334 SWAP1 PUSH2 0xD3D JUMP JUMPDEST PUSH1 0x40 MLOAD DUP1 SWAP2 SUB SWAP1 REVERT JUMPDEST DUP1 PUSH1 0x2 PUSH0 PUSH2 0x100 EXP DUP2 SLOAD DUP2 PUSH4 0xFFFFFFFF MUL NOT AND SWAP1 DUP4 PUSH4 0xFFFFFFFF AND MUL OR SWAP1 SSTORE POP POP JUMP JUMPDEST PUSH1 0x3 PUSH0 CALLER PUSH20 0xFFFFFFFFFFFFFFFFFFFFFFFFFFFFFFFFFFFFFFFF AND PUSH20 0xFFFFFFFFFFFFFFFFFFFFFFFFFFFFFFFFFFFFFFFF AND DUP2 MSTORE PUSH1 0x20 ADD SWAP1 DUP2 MSTORE PUSH1 0x20 ADD PUSH0 KECCAK256 PUSH0 ADD SLOAD DUP2 GT ISZERO PUSH2 0x3E2 JUMPI PUSH1 0x40 MLOAD PUSH32 0x8C379A000000000000000000000000000000000000000000000000000000000 DUP2 MSTORE PUSH1 0x4 ADD PUSH2 0x3D9 SWAP1 PUSH2 0xDA5 JUMP JUMPDEST PUSH1 0x40 MLOAD DUP1 SWAP2 SUB SWAP1 REVERT JUMPDEST DUP1 PUSH1 0x3 PUSH0 CALLER PUSH20 0xFFFFFFFFFFFFFFFFFFFFFFFFFFFFFFFFFFFFFFFF AND PUSH20 0xFFFFFFFFFFFFFFFFFFFFFFFFFFFFFFFFFFFFFFFF AND DUP2 MSTORE PUSH1 0x20 ADD SWAP1 DUP2 MSTORE PUSH1 0x20 ADD PUSH0 KECCAK256 PUSH0 ADD PUSH0 DUP3 DUP3 SLOAD PUSH2 0x430 SWAP2 SWAP1 PUSH2 0xDF0 JUMP JUMPDEST SWAP3 POP POP DUP2 SWAP1 SSTORE POP PUSH0 PUSH2 0x2710 PUSH1 0x2 PUSH0 SWAP1 SLOAD SWAP1 PUSH2 0x100 EXP SWAP1 DIV PUSH4 0xFFFFFFFF AND PUSH2 0x2710 PUSH2 0x45A SWAP2 SWAP1 PUSH2 0xE23 JUMP JUMPDEST PUSH4 0xFFFFFFFF AND DUP4 PUSH2 0x46B SWAP2 SWAP1 PUSH2 0xE5A JUMP JUMPDEST PUSH2 0x475 SWAP2 SWAP1 PUSH2 0xEC8 JUMP JUMPDEST SWAP1 POP PUSH0 DUP2 DUP4 PUSH2 0x484 SWAP2 SWAP1 PUSH2 0xDF0 JUMP JUMPDEST SWAP1 POP DUP1 PUSH1 0x1 PUSH0 DUP3 DUP3 SLOAD PUSH2 0x497 SWAP2 SWAP1 PUSH2 0xEF8 JUMP JUMPDEST SWAP3 POP POP DUP2 SWAP1 SSTORE POP PUSH0 PUSH0 SWAP1 SLOAD SWAP1 PUSH2 0x100 EXP SWAP1 DIV PUSH20 0xFFFFFFFFFFFFFFFFFFFFFFFFFFFFFFFFFFFFFFFF AND PUSH20 0xFFFFFFFFFFFFFFFFFFFFFFFFFFFFFFFFFFFFFFFF AND PUSH2 0x8FC DUP4 SWAP1 DUP2 ISZERO MUL SWAP1 PUSH1 0x40 MLOAD PUSH0 PUSH1 0x40 MLOAD DUP1 DUP4 SUB DUP2 DUP6 DUP9 DUP9 CALL SWAP4 POP POP POP POP ISZERO DUP1 ISZERO PUSH2 0x501 JUMPI RETURNDATASIZE PUSH0 PUSH0 RETURNDATACOPY RETURNDATASIZE PUSH0 REVERT JUMPDEST POP PUSH32 0x884EDAD9CE6FA2440D8A54CC123490EB96D2768479D49FF9C7366125A9424364 CALLER DUP5 PUSH1 0x40 MLOAD PUSH2 0x533 SWAP3 SWAP2 SWAP1 PUSH2 0xF3A JUMP JUMPDEST PUSH1 0x40 MLOAD DUP1 SWAP2 SUB SWAP1 LOG1 POP POP POP JUMP JUMPDEST PUSH0 PUSH1 0x1 SLOAD SWAP1 POP SWAP1 JUMP JUMPDEST PUSH1 0x3 PUSH0 CALLER PUSH20 0xFFFFFFFFFFFFFFFFFFFFFFFFFFFFFFFFFFFFFFFF AND PUSH20 0xFFFFFFFFFFFFFFFFFFFFFFFFFFFFFFFFFFFFFFFF AND DUP2 MSTORE PUSH1 0x20 ADD SWAP1 DUP2 MSTORE PUSH1 0x20 ADD PUSH0 KECCAK256 PUSH0 ADD SLOAD DUP2 GT ISZERO PUSH2 0x5CB JUMPI PUSH1 0x40 MLOAD PUSH32 0x8C379A000000000000000000000000000000000000000000000000000000000 DUP2 MSTORE PUSH1 0x4 ADD PUSH2 0x5C2 SWAP1 PUSH2 0xDA5 JUMP JUMPDEST PUSH1 0x40 MLOAD DUP1 SWAP2 SUB SWAP1 REVERT JUMPDEST DUP1 PUSH1 0x3 PUSH0 CALLER PUSH20 0xFFFFFFFFFFFFFFFFFFFFFFFFFFFFFFFFFFFFFFFF AND PUSH20 0xFFFFFFFFFFFFFFFFFFFFFFFFFFFFFFFFFFFFFFFF AND DUP2 MSTORE PUSH1 0x20 ADD SWAP1 DUP2 MSTORE PUSH1 0x20 ADD PUSH0 KECCAK256 PUSH0 ADD PUSH0 DUP3 DUP3 SLOAD PUSH2 0x619 SWAP2 SWAP1 PUSH2 0xDF0 JUMP JUMPDEST SWAP3 POP POP DUP2 SWAP1 SSTORE POP DUP2 PUSH20 0xFFFFFFFFFFFFFFFFFFFFFFFFFFFFFFFFFFFFFFFF AND PUSH2 0x8FC DUP3 SWAP1 DUP2 ISZERO MUL SWAP1 PUSH1 0x40 MLOAD PUSH0 PUSH1 0x40 MLOAD DUP1 DUP4 SUB DUP2 DUP6 DUP9 DUP9 CALL SWAP4 POP POP POP POP ISZERO DUP1 ISZERO PUSH2 0x663 JUMPI RETURNDATASIZE PUSH0 PUSH0 RETURNDATACOPY RETURNDATASIZE PUSH0 REVERT JUMPDEST POP PUSH32 0xCF0EE562475620BBCD2F1B0675C8163317513271E4FDBBE9722436F247BD6D99 CALLER DUP4 DUP4 PUSH1 0x40 MLOAD PUSH2 0x697 SWAP4 SWAP3 SWAP2 SWAP1 PUSH2 0xFBC JUMP JUMPDEST PUSH1 0x40 MLOAD DUP1 SWAP2 SUB SWAP1 LOG1 POP POP JUMP JUMPDEST PUSH0 PUSH0 SWAP1 SLOAD SWAP1 PUSH2 0x100 EXP SWAP1 DIV PUSH20 0xFFFFFFFFFFFFFFFFFFFFFFFFFFFFFFFFFFFFFFFF AND PUSH20 0xFFFFFFFFFFFFFFFFFFFFFFFFFFFFFFFFFFFFFFFF AND CALLER PUSH20 0xFFFFFFFFFFFFFFFFFFFFFFFFFFFFFFFFFFFFFFFF AND EQ PUSH2 0x731 JUMPI PUSH1 0x40 MLOAD PUSH32 0x8C379A000000000000000000000000000000000000000000000000000000000 DUP2 MSTORE PUSH1 0x4 ADD PUSH2 0x728 SWAP1 PUSH2 0xCD5 JUMP JUMPDEST PUSH1 0x40 MLOAD DUP1 SWAP2 SUB SWAP1 REVERT JUMPDEST DUP1 PUSH1 0x1 PUSH0 DUP3 DUP3 SLOAD PUSH2 0x742 SWAP2 SWAP1 PUSH2 0xDF0 JUMP JUMPDEST SWAP3 POP POP DUP2 SWAP1 SSTORE POP PUSH0 PUSH0 SWAP1 SLOAD SWAP1 PUSH2 0x100 EXP SWAP1 DIV PUSH20 0xFFFFFFFFFFFFFFFFFFFFFFFFFFFFFFFFFFFFFFFF AND PUSH20 0xFFFFFFFFFFFFFFFFFFFFFFFFFFFFFFFFFFFFFFFF AND PUSH2 0x8FC DUP3 SWAP1 DUP2 ISZERO MUL SWAP1 PUSH1 0x40 MLOAD PUSH0 PUSH1 0x40 MLOAD DUP1 DUP4 SUB DUP2 DUP6 DUP9 DUP9 CALL SWAP4 POP POP POP POP ISZERO DUP1 ISZERO PUSH2 0x7AC JUMPI RETURNDATASIZE PUSH0 PUSH0 RETURNDATACOPY RETURNDATASIZE PUSH0 REVERT JUMPDEST POP POP JUMP JUMPDEST PUSH1 0x3 PUSH1 0x20 MSTORE DUP1 PUSH0 MSTORE PUSH1 0x40 PUSH0 KECCAK256 PUSH0 SWAP2 POP SWAP1 POP DUP1 PUSH0 ADD SLOAD SWAP1 POP DUP2 JUMP JUMPDEST PUSH1 0x3 PUSH0 CALLER PUSH20 0xFFFFFFFFFFFFFFFFFFFFFFFFFFFFFFFFFFFFFFFF AND PUSH20 0xFFFFFFFFFFFFFFFFFFFFFFFFFFFFFFFFFFFFFFFF AND DUP2 MSTORE PUSH1 0x20 ADD SWAP1 DUP2 MSTORE PUSH1 0x20 ADD PUSH0 KECCAK256 PUSH0 ADD SLOAD DUP2 GT ISZERO PUSH2 0x84C JUMPI PUSH1 0x40 MLOAD PUSH32 0x8C379A000000000000000000000000000000000000000000000000000000000 DUP2 MSTORE PUSH1 0x4 ADD PUSH2 0x843 SWAP1 PUSH2 0xDA5 JUMP JUMPDEST PUSH1 0x40 MLOAD DUP1 SWAP2 SUB SWAP1 REVERT JUMPDEST DUP1 PUSH1 0x3 PUSH0 CALLER PUSH20 0xFFFFFFFFFFFFFFFFFFFFFFFFFFFFFFFFFFFFFFFF AND PUSH20 0xFFFFFFFFFFFFFFFFFFFFFFFFFFFFFFFFFFFFFFFF AND DUP2 MSTORE PUSH1 0x20 ADD SWAP1 DUP2 MSTORE PUSH1 0x20 ADD PUSH0 KECCAK256 PUSH0 ADD PUSH0 DUP3 DUP3 SLOAD PUSH2 0x89A SWAP2 SWAP1 PUSH2 0xDF0 JUMP JUMPDEST SWAP3 POP POP DUP2 SWAP1 SSTORE POP DUP1 PUSH1 0x3 PUSH0 DUP5 PUSH20 0xFFFFFFFFFFFFFFFFFFFFFFFFFFFFFFFFFFFFFFFF AND PUSH20 0xFFFFFFFFFFFFFFFFFFFFFFFFFFFFFFFFFFFFFFFF AND DUP2 MSTORE PUSH1 0x20 ADD SWAP1 DUP2 MSTORE PUSH1 0x20 ADD PUSH0 KECCAK256 PUSH0 ADD PUSH0 DUP3 DUP3 SLOAD PUSH2 0x8EF SWAP2 SWAP1 PUSH2 0xEF8 JUMP JUMPDEST SWAP3 POP POP DUP2 SWAP1 SSTORE POP PUSH32 0xE2080C8FC8D86C864D8DC081FADAEBF2BE7191086615E786F954420F13ED122A CALLER DUP4 DUP4 PUSH1 0x40 MLOAD PUSH2 0x929 SWAP4 SWAP3 SWAP2 SWAP1 PUSH2 0xFF1 JUMP JUMPDEST PUSH1 0x40 MLOAD DUP1 SWAP2 SUB SWAP1 LOG1 POP POP JUMP JUMPDEST PUSH2 0x97D PUSH1 0x3 PUSH0 CALLER PUSH20 0xFFFFFFFFFFFFFFFFFFFFFFFFFFFFFFFFFFFFFFFF AND PUSH20 0xFFFFFFFFFFFFFFFFFFFFFFFFFFFFFFFFFFFFFFFF AND DUP2 MSTORE PUSH1 0x20 ADD SWAP1 DUP2 MSTORE PUSH1 0x20 ADD PUSH0 KECCAK256 PUSH0 ADD SLOAD PUSH2 0x360 JUMP JUMPDEST JUMP JUMPDEST PUSH0 CALLVALUE SUB PUSH2 0x9C1 JUMPI PUSH1 0x40 MLOAD PUSH32 0x8C379A000000000000000000000000000000000000000000000000000000000 DUP2 MSTORE PUSH1 0x4 ADD PUSH2 0x9B8 SWAP1 PUSH2 0x1070 JUMP JUMPDEST PUSH1 0x40 MLOAD DUP1 SWAP2 SUB SWAP1 REVERT JUMPDEST CALLVALUE PUSH1 0x3 PUSH0 CALLER PUSH20 0xFFFFFFFFFFFFFFFFFFFFFFFFFFFFFFFFFFFFFFFF AND PUSH20 0xFFFFFFFFFFFFFFFFFFFFFFFFFFFFFFFFFFFFFFFF AND DUP2 MSTORE PUSH1 0x20 ADD SWAP1 DUP2 MSTORE PUSH1 0x20 ADD PUSH0 KECCAK256 PUSH0 ADD PUSH0 DUP3 DUP3 SLOAD PUSH2 0xA0F SWAP2 SWAP1 PUSH2 0xEF8 JUMP JUMPDEST SWAP3 POP POP DUP2 SWAP1 SSTORE POP PUSH32 0xE1FFFCC4923D04B559F4D29A8BFC6CDA04EB5B0D3C460751C2402C5C5CC9109C CALLER CALLVALUE PUSH1 0x40 MLOAD PUSH2 0xA47 SWAP3 SWAP2 SWAP1 PUSH2 0xF3A JUMP JUMPDEST PUSH1 0x40 MLOAD DUP1 SWAP2 SUB SWAP1 LOG1 JUMP JUMPDEST PUSH0 DUP2 SWAP1 POP SWAP2 SWAP1 POP JUMP JUMPDEST PUSH2 0xA63 DUP2 PUSH2 0xA51 JUMP JUMPDEST DUP3 MSTORE POP POP JUMP JUMPDEST PUSH0 PUSH1 0x20 DUP3 ADD SWAP1 POP PUSH2 0xA7C PUSH0 DUP4 ADD DUP5 PUSH2 0xA5A JUMP JUMPDEST SWAP3 SWAP2 POP POP JUMP JUMPDEST PUSH0 PUSH0 REVERT JUMPDEST PUSH0 PUSH4 0xFFFFFFFF DUP3 AND SWAP1 POP SWAP2 SWAP1 POP JUMP JUMPDEST PUSH2 0xA9E DUP2 PUSH2 0xA86 JUMP JUMPDEST DUP2 EQ PUSH2 0xAA8 JUMPI PUSH0 PUSH0 REVERT JUMPDEST POP JUMP JUMPDEST PUSH0 DUP2 CALLDATALOAD SWAP1 POP PUSH2 0xAB9 DUP2 PUSH2 0xA95 JUMP JUMPDEST SWAP3 SWAP2 POP POP JUMP JUMPDEST PUSH0 PUSH1 0x20 DUP3 DUP5 SUB SLT ISZERO PUSH2 0xAD4 JUMPI PUSH2 0xAD3 PUSH2 0xA82 JUMP JUMPDEST JUMPDEST PUSH0 PUSH2 0xAE1 DUP5 DUP3 DUP6 ADD PUSH2 0xAAB JUMP JUMPDEST SWAP2 POP POP SWAP3 SWAP2 POP POP JUMP JUMPDEST PUSH2 0xAF3 DUP2 PUSH2 0xA51 JUMP JUMPDEST DUP2 EQ PUSH2 0xAFD JUMPI PUSH0 PUSH0 REVERT JUMPDEST POP JUMP JUMPDEST PUSH0 DUP2 CALLDATALOAD SWAP1 POP PUSH2 0xB0E DUP2 PUSH2 0xAEA JUMP JUMPDEST SWAP3 SWAP2 POP POP JUMP JUMPDEST PUSH0 PUSH1 0x20 DUP3 DUP5 SUB SLT ISZERO PUSH2 0xB29 JUMPI PUSH2 0xB28 PUSH2 0xA82 JUMP JUMPDEST JUMPDEST PUSH0 PUSH2 0xB36 DUP5 DUP3 DUP6 ADD PUSH2 0xB00 JUMP JUMPDEST SWAP2 POP POP SWAP3 SWAP2 POP POP JUMP JUMPDEST PUSH0 PUSH20 0xFFFFFFFFFFFFFFFFFFFFFFFFFFFFFFFFFFFFFFFF DUP3 AND SWAP1 POP SWAP2 SWAP1 POP JUMP JUMPDEST PUSH0 PUSH2 0xB68 DUP3 PUSH2 0xB3F JUMP JUMPDEST SWAP1 POP SWAP2 SWAP1 POP JUMP JUMPDEST PUSH2 0xB78 DUP2 PUSH2 0xB5E JUMP JUMPDEST DUP2 EQ PUSH2 0xB82 JUMPI PUSH0 PUSH0 REVERT JUMPDEST POP JUMP JUMPDEST PUSH0 DUP2 CALLDATALOAD SWAP1 POP PUSH2 0xB93 DUP2 PUSH2 0xB6F JUMP JUMPDEST SWAP3 SWAP2 POP POP JUMP JUMPDEST PUSH0 PUSH0 PUSH1 0x40 DUP4 DUP6 SUB SLT ISZERO PUSH2 0xBAF JUMPI PUSH2 0xBAE PUSH2 0xA82 JUMP JUMPDEST JUMPDEST PUSH0 PUSH2 0xBBC DUP6 DUP3 DUP7 ADD PUSH2 0xB85 JUMP JUMPDEST SWAP3 POP POP PUSH1 0x20 PUSH2 0xBCD DUP6 DUP3 DUP7 ADD PUSH2 0xB00 JUMP JUMPDEST SWAP2 POP POP SWAP3 POP SWAP3 SWAP1 POP JUMP JUMPDEST PUSH0 PUSH2 0xBE1 DUP3 PUSH2 0xB3F JUMP JUMPDEST SWAP1 POP SWAP2 SWAP1 POP JUMP JUMPDEST PUSH2 0xBF1 DUP2 PUSH2 0xBD7 JUMP JUMPDEST DUP2 EQ PUSH2 0xBFB JUMPI PUSH0 PUSH0 REVERT JUMPDEST POP JUMP JUMPDEST PUSH0 DUP2 CALLDATALOAD SWAP1 POP PUSH2 0xC0C DUP2 PUSH2 0xBE8 JUMP JUMPDEST SWAP3 SWAP2 POP POP JUMP JUMPDEST PUSH0 PUSH1 0x20 DUP3 DUP5 SUB SLT ISZERO PUSH2 0xC27 JUMPI PUSH2 0xC26 PUSH2 0xA82 JUMP JUMPDEST JUMPDEST PUSH0 PUSH2 0xC34 DUP5 DUP3 DUP6 ADD PUSH2 0xBFE JUMP JUMPDEST SWAP2 POP POP SWAP3 SWAP2 POP POP JUMP JUMPDEST PUSH0 PUSH0 PUSH1 0x40 DUP4 DUP6 SUB SLT ISZERO PUSH2 0xC53 JUMPI PUSH2 0xC52 PUSH2 0xA82 JUMP JUMPDEST JUMPDEST PUSH0 PUSH2 0xC60 DUP6 DUP3 DUP7 ADD PUSH2 0xBFE JUMP JUMPDEST SWAP3 POP POP PUSH1 0x20 PUSH2 0xC71 DUP6 DUP3 DUP7 ADD PUSH2 0xB00 JUMP JUMPDEST SWAP2 POP POP SWAP3 POP SWAP3 SWAP1 POP JUMP JUMPDEST PUSH0 DUP3 DUP3 MSTORE PUSH1 0x20 DUP3 ADD SWAP1 POP SWAP3 SWAP2 POP POP JUMP JUMPDEST PUSH32 0x6E6F7420746865206F776E657200000000000000000000000000000000000000 PUSH0 DUP3 ADD MSTORE POP JUMP JUMPDEST PUSH0 PUSH2 0xCBF PUSH1 0xD DUP4 PUSH2 0xC7B JUMP JUMPDEST SWAP2 POP PUSH2 0xCCA DUP3 PUSH2 0xC8B JUMP JUMPDEST PUSH1 0x20 DUP3 ADD SWAP1 POP SWAP2 SWAP1 POP JUMP JUMPDEST PUSH0 PUSH1 0x20 DUP3 ADD SWAP1 POP DUP2 DUP2 SUB PUSH0 DUP4 ADD MSTORE PUSH2 0xCEC DUP2 PUSH2 0xCB3 JUMP JUMPDEST SWAP1 POP SWAP2 SWAP1 POP JUMP JUMPDEST PUSH32 0x6F7574206F662072616E67650000000000000000000000000000000000000000 PUSH0 DUP3 ADD MSTORE POP JUMP JUMPDEST PUSH0 PUSH2 0xD27 PUSH1 0xC DUP4 PUSH2 0xC7B JUMP JUMPDEST SWAP2 POP PUSH2 0xD32 DUP3 PUSH2 0xCF3 JUMP JUMPDEST PUSH1 0x20 DUP3 ADD SWAP1 POP SWAP2 SWAP1 POP JUMP JUMPDEST PUSH0 PUSH1 0x20 DUP3 ADD SWAP1 POP DUP2 DUP2 SUB PUSH0 DUP4 ADD MSTORE PUSH2 0xD54 DUP2 PUSH2 0xD1B JUMP JUMPDEST SWAP1 POP SWAP2 SWAP1 POP JUMP JUMPDEST PUSH32 0x696E73756666696369656E742062616C616E6365000000000000000000000000 PUSH0 DUP3 ADD MSTORE POP JUMP JUMPDEST PUSH0 PUSH2 0xD8F PUSH1 0x14 DUP4 PUSH2 0xC7B JUMP JUMPDEST SWAP2 POP PUSH2 0xD9A DUP3 PUSH2 0xD5B JUMP JUMPDEST PUSH1 0x20 DUP3 ADD SWAP1 POP SWAP2 SWAP1 POP JUMP JUMPDEST PUSH0 PUSH1 0x20 DUP3 ADD SWAP1 POP DUP2 DUP2 SUB PUSH0 DUP4 ADD MSTORE PUSH2 0xDBC DUP2 PUSH2 0xD83 JUMP JUMPDEST SWAP1 POP SWAP2 SWAP1 POP JUMP JUMPDEST PUSH32 0x4E487B7100000000000000000000000000000000000000000000000000000000 PUSH0 MSTORE PUSH1 0x11 PUSH1 0x4 MSTORE PUSH1 0x24 PUSH0 REVERT JUMPDEST PUSH0 PUSH2 0xDFA DUP3 PUSH2 0xA51 JUMP JUMPDEST SWAP2 POP PUSH2 0xE05 DUP4 PUSH2 0xA51 JUMP JUMPDEST SWAP3 POP DUP3 DUP3 SUB SWAP1 POP DUP2 DUP2 GT ISZERO PUSH2 0xE1D JUMPI PUSH2 0xE1C PUSH2 0xDC3 JUMP JUMPDEST JUMPDEST SWAP3 SWAP2 POP POP JUMP JUMPDEST PUSH0 PUSH2 0xE2D DUP3 PUSH2 0xA86 JUMP JUMPDEST SWAP2 POP PUSH2 0xE38 DUP4 PUSH2 0xA86 JUMP JUMPDEST SWAP3 POP DUP3 DUP3 SUB SWAP1 POP PUSH4 0xFFFFFFFF DUP2 GT ISZERO PUSH2 0xE54 JUMPI PUSH2 0xE53 PUSH2 0xDC3 JUMP JUMPDEST JUMPDEST SWAP3 SWAP2 POP POP JUMP JUMPDEST PUSH0 PUSH2 0xE64 DUP3 PUSH2 0xA51 JUMP JUMPDEST SWAP2 POP PUSH2 0xE6F DUP4 PUSH2 0xA51 JUMP JUMPDEST SWAP3 POP DUP3 DUP3 MUL PUSH2 0xE7D DUP2 PUSH2 0xA51 JUMP JUMPDEST SWAP2 POP DUP3 DUP3 DIV DUP5 EQ DUP4 ISZERO OR PUSH2 0xE94 JUMPI PUSH2 0xE93 PUSH2 0xDC3 JUMP JUMPDEST JUMPDEST POP SWAP3 SWAP2 POP POP JUMP JUMPDEST PUSH32 0x4E487B7100000000000000000000000000000000000000000000000000000000 PUSH0 MSTORE PUSH1 0x12 PUSH1 0x4 MSTORE PUSH1 0x24 PUSH0 REVERT JUMPDEST PUSH0 PUSH2 0xED2 DUP3 PUSH2 0xA51 JUMP JUMPDEST SWAP2 POP PUSH2 0xEDD DUP4 PUSH2 0xA51 JUMP JUMPDEST SWAP3 POP DUP3 PUSH2 0xEED JUMPI PUSH2 0xEEC PUSH2 0xE9B JUMP JUMPDEST JUMPDEST DUP3 DUP3 DIV SWAP1 POP SWAP3 SWAP2 POP POP JUMP JUMPDEST PUSH0 PUSH2 0xF02 DUP3 PUSH2 0xA51 JUMP JUMPDEST SWAP2 POP PUSH2 0xF0D DUP4 PUSH2 0xA51 JUMP JUMPDEST SWAP3 POP DUP3 DUP3 ADD SWAP1 POP DUP1 DUP3 GT ISZERO PUSH2 0xF25 JUMPI PUSH2 0xF24 PUSH2 0xDC3 JUMP JUMPDEST JUMPDEST SWAP3 SWAP2 POP POP JUMP JUMPDEST PUSH2 0xF34 DUP2 PUSH2 0xBD7 JUMP JUMPDEST DUP3 MSTORE POP POP JUMP JUMPDEST PUSH0 PUSH1 0x40 DUP3 ADD SWAP1 POP PUSH2 0xF4D PUSH0 DUP4 ADD DUP6 PUSH2 0xF2B JUMP JUMPDEST PUSH2 0xF5A PUSH1 0x20 DUP4 ADD DUP5 PUSH2 0xA5A JUMP JUMPDEST SWAP4 SWAP3 POP POP POP JUMP JUMPDEST PUSH0 DUP2 SWAP1 POP SWAP2 SWAP1 POP JUMP JUMPDEST PUSH0 PUSH2 0xF84 PUSH2 0xF7F PUSH2 0xF7A DUP5 PUSH2 0xB3F JUMP JUMPDEST PUSH2 0xF61 JUMP JUMPDEST PUSH2 0xB3F JUMP JUMPDEST SWAP1 POP SWAP2 SWAP1 POP JUMP JUMPDEST PUSH0 PUSH2 0xF95 DUP3 PUSH2 0xF6A JUMP JUMPDEST SWAP1 POP SWAP2 SWAP1 POP JUMP JUMPDEST PUSH0 PUSH2 0xFA6 DUP3 PUSH2 0xF8B JUMP JUMPDEST SWAP1 POP SWAP2 SWAP1 POP JUMP JUMPDEST PUSH2 0xFB6 DUP2 PUSH2 0xF9C JUMP JUMPDEST DUP3 MSTORE POP POP JUMP JUMPDEST PUSH0 PUSH1 0x60 DUP3 ADD SWAP1 POP PUSH2 0xFCF PUSH0 DUP4 ADD DUP7 PUSH2 0xF2B JUMP JUMPDEST PUSH2 0xFDC PUSH1 0x20 DUP4 ADD DUP6 PUSH2 0xFAD JUMP JUMPDEST PUSH2 0xFE9 PUSH1 0x40 DUP4 ADD DUP5 PUSH2 0xA5A JUMP JUMPDEST SWAP5 SWAP4 POP POP POP POP JUMP JUMPDEST PUSH0 PUSH1 0x60 DUP3 ADD SWAP1 POP PUSH2 0x1004 PUSH0 DUP4 ADD DUP7 PUSH2 0xF2B JUMP JUMPDEST PUSH2 0x1011 PUSH1 0x20 DUP4 ADD DUP6 PUSH2 0xF2B JUMP JUMPDEST PUSH2 0x101E PUSH1 0x40 DUP4 ADD DUP5 PUSH2 0xA5A JUMP JUMPDEST SWAP5 SWAP4 POP POP POP POP JUMP JUMPDEST PUSH32 0x76616C75652063616E206E6F74206265207A65726F0000000000000000000000 PUSH0 DUP3 ADD MSTORE POP JUMP JUMPDEST PUSH0 PUSH2 0x105A PUSH1 0x15 DUP4 PUSH2 0xC7B JUMP JUMPDEST SWAP2 POP PUSH2 0x1065 DUP3 PUSH2 0x1026 JUMP JUMPDEST PUSH1 0x20 DUP3 ADD SWAP1 POP SWAP2 SWAP1 POP JUMP JUMPDEST PUSH0 PUSH1 0x20 DUP3 ADD SWAP1 POP DUP2 DUP2 SUB PUSH0 DUP4 ADD MSTORE PUSH2 0x1087 DUP2 PUSH2 0x104E JUMP JUMPDEST SWAP1 POP SWAP2 SWAP1 POP JUMP INVALID LOG2 PUSH5 0x6970667358 0x22 SLT KECCAK256 EQ 0xC8 0xCD 0xCE AND SGT SSTORE 0xE SWAP11 EXTCODEHASH 0xEB 0xB2 SDIV 0xA9 NUMBER GAS BALANCE MOD 0x21 ADDRESS PUSH8 0xD39244E137315F88 MCOPY EXTDELEGATECALL DUP14 PUSH5 0x736F6C6343 STOP ADDMOD 0x1E STOP CALLER "
				},
				"gasEstimates": {
					"creation": {
						"codeDepositCost": "858400",
						"executionCost": "25158",
						"totalCost": "883558"
					},
					"external": {
						"accounts(address)": "2837",
						"deposit()": "infinite",
						"externalTransferTo(address,uint256)": "infinite",
						"getBalance()": "2525",
						"getBalanceOfBank()": "2499",
						"internalTransferToAccount(address,uint256)": "infinite",
						"setFee(uint32)": "26935",
						"withdraw(uint256)": "infinite",
						"withdrawAll()": "infinite",
						"withdrawFees(uint256)": "infinite"
					}
				},
				"methodIdentifiers": {
					"accounts(address)": "5e5c06e2",
					"deposit()": "d0e30db0",
					"externalTransferTo(address,uint256)": "430bd098",
					"getBalance()": "12065fe0",
					"getBalanceOfBank()": "3e15ef3d",
					"internalTransferToAccount(address,uint256)": "77e604c0",
					"setFee(uint32)": "1ab971ab",
					"withdraw(uint256)": "2e1a7d4d",
					"withdrawAll()": "853828b6",
					"withdrawFees(uint256)": "5e318e07"
				}
			},
			"storageLayout": {
				"storage": [
					{
						"astId": 3,
						"contract": "src/contracts/SmartBank.sol:SmartBank",
						"label": "onwer",
						"offset": 0,
						"slot": "0",
						"type": "t_address"
					},
					{
						"astId": 5,
						"contract": "src/contracts/SmartBank.sol:SmartBank",
						"label": "balanceOfBank",
						"offset": 0,
						"slot": "1",
						"type": "t_uint256"
					},
					{
						"astId": 7,
						"contract": "src/contracts/SmartBank.sol:SmartBank",
						"label": "feeTax",
						"offset": 0,
						"slot": "2",
						"type": "t_uint32"
					},
					{
						"astId": 12,
						"contract": "src/contracts/SmartBank.sol:SmartBank",
						"label": "accounts",
						"offset": 0,
						"slot": "3",
						"type": "t_mapping(t_address,t_struct(Account)64_storage)"
					}
				],
				"types": {
					"t_address": {
						"encoding": "inplace",
						"label": "address",
						"numberOfBytes": "20"
					},
					"t_mapping(t_address,t_struct(Account)64_storage)": {
						"encoding": "mapping",
						"key": "t_address",
						"label": "mapping(address => struct SmartBank.Account)",
						"numberOfBytes": "32",
						"value": "t_struct(Account)64_storage"
					},
					"t_struct(Account)64_storage": {
						"encoding": "inplace",
						"label": "struct SmartBank.Account",
						"members": [
							{
								"astId": 63,
								"contract": "src/contracts/SmartBank.sol:SmartBank",
								"label": "balance",
								"offset": 0,
								"slot": "0",
								"type": "t_uint256"
							}
						],
						"numberOfBytes": "32"
					},
					"t_uint256": {
						"encoding": "inplace",
						"label": "uint256",
						"numberOfBytes": "32"
					},
					"t_uint32": {
						"encoding": "inplace",
						"label": "uint32",
						"numberOfBytes": "4"
					}
				}
			},
			"userdoc": {
				"kind": "user",
				"methods": {},
				"version": 1
			}
		}
	}
}