{
	"src/contracts/SmartBank.sol": {
		"SmartBank": {
			"abi": [
				{
					"anonymous": false,
					"inputs": [
						{
							"indexed": false,
							"internalType": "address",
							"name": "from",
							"type": "address"
						},
						{
							"indexed": false,
							"internalType": "uint256",
							"name": "amount",
							"type": "uint256"
						}
					],
					"name": "Deposit",
					"type": "event"
				},
				{
					"anonymous": false,
					"inputs": [
						{
							"indexed": false,
							"internalType": "address",
							"name": "from",
							"type": "address"
						},
						{
							"indexed": false,
							"internalType": "address",
							"name": "to",
							"type": "address"
						},
						{
							"indexed": false,
							"internalType": "uint256",
							"name": "amount",
							"type": "uint256"
						}
					],
					"name": "ExternalTransfer",
					"type": "event"
				},
				{
					"anonymous": false,
					"inputs": [
						{
							"indexed": false,
							"internalType": "address",
							"name": "from",
							"type": "address"
						},
						{
							"indexed": false,
							"internalType": "address",
							"name": "to",
							"type": "address"
						},
						{
							"indexed": false,
							"internalType": "uint256",
							"name": "amount",
							"type": "uint256"
						}
					],
					"name": "InternalTransfer",
					"type": "event"
				},
				{
					"anonymous": false,
					"inputs": [
						{
							"indexed": false,
							"internalType": "address",
							"name": "from",
							"type": "address"
						},
						{
							"indexed": false,
							"internalType": "uint256",
							"name": "amount",
							"type": "uint256"
						}
					],
					"name": "Withdraw",
					"type": "event"
				},
				{
					"inputs": [
						{
							"internalType": "address",
							"name": "",
							"type": "address"
						}
					],
					"name": "accounts",
					"outputs": [
						{
							"internalType": "uint256",
							"name": "balance",
							"type": "uint256"
						}
					],
					"stateMutability": "view",
					"type": "function"
				},
				{
					"inputs": [],
					"name": "deposit",
					"outputs": [],
					"stateMutability": "payable",
					"type": "function"
				},
				{
					"inputs": [
						{
							"internalType": "address payable",
							"name": "to",
							"type": "address"
						},
						{
							"internalType": "uint256",
							"name": "value",
							"type": "uint256"
						}
					],
					"name": "externalTransferTo",
					"outputs": [],
					"stateMutability": "nonpayable",
					"type": "function"
				},
				{
					"inputs": [],
					"name": "getBalance",
					"outputs": [
						{
							"internalType": "uint256",
							"name": "",
							"type": "uint256"
						}
					],
					"stateMutability": "view",
					"type": "function"
				},
				{
					"inputs": [
						{
							"internalType": "address",
							"name": "account",
							"type": "address"
						},
						{
							"internalType": "uint256",
							"name": "value",
							"type": "uint256"
						}
					],
					"name": "internalTransferToAccount",
					"outputs": [],
					"stateMutability": "nonpayable",
					"type": "function"
				},
				{
					"inputs": [
						{
							"internalType": "uint256",
							"name": "value",
							"type": "uint256"
						}
					],
					"name": "withdraw",
					"outputs": [],
					"stateMutability": "nonpayable",
					"type": "function"
				},
				{
					"inputs": [],
					"name": "withdrawAll",
					"outputs": [],
					"stateMutability": "nonpayable",
					"type": "function"
				}
			],
			"devdoc": {
				"kind": "dev",
				"methods": {},
				"version": 1
			},
			"evm": {
				"assembly": "    /* \"src/contracts/SmartBank.sol\":57:1715  contract SmartBank {... */\n  mstore(0x40, 0x80)\n  callvalue\n  dup1\n  iszero\n  tag_1\n  jumpi\n  revert(0x00, 0x00)\ntag_1:\n  pop\n  dataSize(sub_0)\n  dup1\n  dataOffset(sub_0)\n  0x00\n  codecopy\n  0x00\n  return\nstop\n\nsub_0: assembly {\n        /* \"src/contracts/SmartBank.sol\":57:1715  contract SmartBank {... */\n      mstore(0x40, 0x80)\n      jumpi(tag_1, lt(calldatasize, 0x04))\n      shr(0xe0, calldataload(0x00))\n      dup1\n      0x5e5c06e2\n      gt\n      tag_9\n      jumpi\n      dup1\n      0x5e5c06e2\n      eq\n      tag_5\n      jumpi\n      dup1\n      0x77e604c0\n      eq\n      tag_6\n      jumpi\n      dup1\n      0x853828b6\n      eq\n      tag_7\n      jumpi\n      dup1\n      0xd0e30db0\n      eq\n      tag_8\n      jumpi\n      jump(tag_1)\n    tag_9:\n      dup1\n      0x12065fe0\n      eq\n      tag_2\n      jumpi\n      dup1\n      0x2e1a7d4d\n      eq\n      tag_3\n      jumpi\n      dup1\n      0x430bd098\n      eq\n      tag_4\n      jumpi\n    tag_1:\n      revert(0x00, 0x00)\n        /* \"src/contracts/SmartBank.sol\":425:529  function getBalance() public view returns (uint256) {... */\n    tag_2:\n      callvalue\n      dup1\n      iszero\n      tag_10\n      jumpi\n      revert(0x00, 0x00)\n    tag_10:\n      pop\n      tag_11\n      tag_12\n      jump\t// in\n    tag_11:\n      mload(0x40)\n      tag_13\n      swap2\n      swap1\n      tag_14\n      jump\t// in\n    tag_13:\n      mload(0x40)\n      dup1\n      swap2\n      sub\n      swap1\n      return\n        /* \"src/contracts/SmartBank.sol\":827:1089  function withdraw(uint256 value) public {... */\n    tag_3:\n      callvalue\n      dup1\n      iszero\n      tag_15\n      jumpi\n      revert(0x00, 0x00)\n    tag_15:\n      pop\n      tag_16\n      0x04\n      dup1\n      calldatasize\n      sub\n      dup2\n      add\n      swap1\n      tag_17\n      swap2\n      swap1\n      tag_18\n      jump\t// in\n    tag_17:\n      tag_19\n      jump\t// in\n    tag_16:\n      stop\n        /* \"src/contracts/SmartBank.sol\":1095:1394  function externalTransferTo(address payable to, uint256 value)... */\n    tag_4:\n      callvalue\n      dup1\n      iszero\n      tag_20\n      jumpi\n      revert(0x00, 0x00)\n    tag_20:\n      pop\n      tag_21\n      0x04\n      dup1\n      calldatasize\n      sub\n      dup2\n      add\n      swap1\n      tag_22\n      swap2\n      swap1\n      tag_23\n      jump\t// in\n    tag_22:\n      tag_24\n      jump\t// in\n    tag_21:\n      stop\n        /* \"src/contracts/SmartBank.sol\":375:418  mapping(address => Account) public accounts */\n    tag_5:\n      callvalue\n      dup1\n      iszero\n      tag_25\n      jumpi\n      revert(0x00, 0x00)\n    tag_25:\n      pop\n      tag_26\n      0x04\n      dup1\n      calldatasize\n      sub\n      dup2\n      add\n      swap1\n      tag_27\n      swap2\n      swap1\n      tag_28\n      jump\t// in\n    tag_27:\n      tag_29\n      jump\t// in\n    tag_26:\n      mload(0x40)\n      tag_30\n      swap2\n      swap1\n      tag_14\n      jump\t// in\n    tag_30:\n      mload(0x40)\n      dup1\n      swap2\n      sub\n      swap1\n      return\n        /* \"src/contracts/SmartBank.sol\":1400:1713  function internalTransferToAccount(address account, uint256 value) public {... */\n    tag_6:\n      callvalue\n      dup1\n      iszero\n      tag_31\n      jumpi\n      revert(0x00, 0x00)\n    tag_31:\n      pop\n      tag_32\n      0x04\n      dup1\n      calldatasize\n      sub\n      dup2\n      add\n      swap1\n      tag_33\n      swap2\n      swap1\n      tag_34\n      jump\t// in\n    tag_33:\n      tag_35\n      jump\t// in\n    tag_32:\n      stop\n        /* \"src/contracts/SmartBank.sol\":736:821  function withdrawAll() public {... */\n    tag_7:\n      callvalue\n      dup1\n      iszero\n      tag_36\n      jumpi\n      revert(0x00, 0x00)\n    tag_36:\n      pop\n      tag_37\n      tag_38\n      jump\t// in\n    tag_37:\n      stop\n        /* \"src/contracts/SmartBank.sol\":535:730  function deposit() public payable {... */\n    tag_8:\n      tag_39\n      tag_40\n      jump\t// in\n    tag_39:\n      stop\n        /* \"src/contracts/SmartBank.sol\":425:529  function getBalance() public view returns (uint256) {... */\n    tag_12:\n        /* \"src/contracts/SmartBank.sol\":468:475  uint256 */\n      0x00\n        /* \"src/contracts/SmartBank.sol\":494:502  accounts */\n      0x00\n        /* \"src/contracts/SmartBank.sol\":494:514  accounts[msg.sender] */\n      0x00\n        /* \"src/contracts/SmartBank.sol\":503:513  msg.sender */\n      caller\n        /* \"src/contracts/SmartBank.sol\":494:514  accounts[msg.sender] */\n      0xffffffffffffffffffffffffffffffffffffffff\n      and\n      0xffffffffffffffffffffffffffffffffffffffff\n      and\n      dup2\n      mstore\n      0x20\n      add\n      swap1\n      dup2\n      mstore\n      0x20\n      add\n      0x00\n      keccak256\n        /* \"src/contracts/SmartBank.sol\":494:522  accounts[msg.sender].balance */\n      0x00\n      add\n      sload\n        /* \"src/contracts/SmartBank.sol\":487:522  return accounts[msg.sender].balance */\n      swap1\n      pop\n        /* \"src/contracts/SmartBank.sol\":425:529  function getBalance() public view returns (uint256) {... */\n      swap1\n      jump\t// out\n        /* \"src/contracts/SmartBank.sol\":827:1089  function withdraw(uint256 value) public {... */\n    tag_19:\n        /* \"src/contracts/SmartBank.sol\":894:902  accounts */\n      0x00\n        /* \"src/contracts/SmartBank.sol\":894:914  accounts[msg.sender] */\n      0x00\n        /* \"src/contracts/SmartBank.sol\":903:913  msg.sender */\n      caller\n        /* \"src/contracts/SmartBank.sol\":894:914  accounts[msg.sender] */\n      0xffffffffffffffffffffffffffffffffffffffff\n      and\n      0xffffffffffffffffffffffffffffffffffffffff\n      and\n      dup2\n      mstore\n      0x20\n      add\n      swap1\n      dup2\n      mstore\n      0x20\n      add\n      0x00\n      keccak256\n        /* \"src/contracts/SmartBank.sol\":894:922  accounts[msg.sender].balance */\n      0x00\n      add\n      sload\n        /* \"src/contracts/SmartBank.sol\":885:890  value */\n      dup2\n        /* \"src/contracts/SmartBank.sol\":885:922  value <= accounts[msg.sender].balance */\n      gt\n      iszero\n        /* \"src/contracts/SmartBank.sol\":877:947  require(value <= accounts[msg.sender].balance, \"insufficient balance\") */\n      tag_43\n      jumpi\n      mload(0x40)\n      0x08c379a000000000000000000000000000000000000000000000000000000000\n      dup2\n      mstore\n      0x04\n      add\n      tag_44\n      swap1\n      tag_45\n      jump\t// in\n    tag_44:\n      mload(0x40)\n      dup1\n      swap2\n      sub\n      swap1\n      revert\n    tag_43:\n        /* \"src/contracts/SmartBank.sol\":989:994  value */\n      dup1\n        /* \"src/contracts/SmartBank.sol\":957:965  accounts */\n      0x00\n        /* \"src/contracts/SmartBank.sol\":957:977  accounts[msg.sender] */\n      0x00\n        /* \"src/contracts/SmartBank.sol\":966:976  msg.sender */\n      caller\n        /* \"src/contracts/SmartBank.sol\":957:977  accounts[msg.sender] */\n      0xffffffffffffffffffffffffffffffffffffffff\n      and\n      0xffffffffffffffffffffffffffffffffffffffff\n      and\n      dup2\n      mstore\n      0x20\n      add\n      swap1\n      dup2\n      mstore\n      0x20\n      add\n      0x00\n      keccak256\n        /* \"src/contracts/SmartBank.sol\":957:985  accounts[msg.sender].balance */\n      0x00\n      add\n      0x00\n        /* \"src/contracts/SmartBank.sol\":957:994  accounts[msg.sender].balance -= value */\n      dup3\n      dup3\n      sload\n      tag_46\n      swap2\n      swap1\n      tag_47\n      jump\t// in\n    tag_46:\n      swap3\n      pop\n      pop\n      dup2\n      swap1\n      sstore\n      pop\n        /* \"src/contracts/SmartBank.sol\":1013:1023  msg.sender */\n      caller\n        /* \"src/contracts/SmartBank.sol\":1005:1033  payable(msg.sender).transfer */\n      0xffffffffffffffffffffffffffffffffffffffff\n      and\n        /* \"src/contracts/SmartBank.sol\":1005:1040  payable(msg.sender).transfer(value) */\n      0x08fc\n        /* \"src/contracts/SmartBank.sol\":1034:1039  value */\n      dup3\n        /* \"src/contracts/SmartBank.sol\":1005:1040  payable(msg.sender).transfer(value) */\n      swap1\n      dup2\n      iszero\n      mul\n      swap1\n      mload(0x40)\n      0x00\n      mload(0x40)\n      dup1\n      dup4\n      sub\n      dup2\n      dup6\n      dup9\n      dup9\n      call\n      swap4\n      pop\n      pop\n      pop\n      pop\n      iszero\n      dup1\n      iszero\n      tag_49\n      jumpi\n      returndatacopy(0x00, 0x00, returndatasize)\n      revert(0x00, returndatasize)\n    tag_49:\n      pop\n        /* \"src/contracts/SmartBank.sol\":1055:1082  Withdraw(msg.sender, value) */\n      0x884edad9ce6fa2440d8a54cc123490eb96d2768479d49ff9c7366125a9424364\n        /* \"src/contracts/SmartBank.sol\":1064:1074  msg.sender */\n      caller\n        /* \"src/contracts/SmartBank.sol\":1076:1081  value */\n      dup3\n        /* \"src/contracts/SmartBank.sol\":1055:1082  Withdraw(msg.sender, value) */\n      mload(0x40)\n      tag_50\n      swap3\n      swap2\n      swap1\n      tag_51\n      jump\t// in\n    tag_50:\n      mload(0x40)\n      dup1\n      swap2\n      sub\n      swap1\n      log1\n        /* \"src/contracts/SmartBank.sol\":827:1089  function withdraw(uint256 value) public {... */\n      pop\n      jump\t// out\n        /* \"src/contracts/SmartBank.sol\":1095:1394  function externalTransferTo(address payable to, uint256 value)... */\n    tag_24:\n        /* \"src/contracts/SmartBank.sol\":1204:1212  accounts */\n      0x00\n        /* \"src/contracts/SmartBank.sol\":1204:1224  accounts[msg.sender] */\n      0x00\n        /* \"src/contracts/SmartBank.sol\":1213:1223  msg.sender */\n      caller\n        /* \"src/contracts/SmartBank.sol\":1204:1224  accounts[msg.sender] */\n      0xffffffffffffffffffffffffffffffffffffffff\n      and\n      0xffffffffffffffffffffffffffffffffffffffff\n      and\n      dup2\n      mstore\n      0x20\n      add\n      swap1\n      dup2\n      mstore\n      0x20\n      add\n      0x00\n      keccak256\n        /* \"src/contracts/SmartBank.sol\":1204:1232  accounts[msg.sender].balance */\n      0x00\n      add\n      sload\n        /* \"src/contracts/SmartBank.sol\":1195:1200  value */\n      dup2\n        /* \"src/contracts/SmartBank.sol\":1195:1232  value <= accounts[msg.sender].balance */\n      gt\n      iszero\n        /* \"src/contracts/SmartBank.sol\":1187:1257  require(value <= accounts[msg.sender].balance, \"insufficient balance\") */\n      tag_53\n      jumpi\n      mload(0x40)\n      0x08c379a000000000000000000000000000000000000000000000000000000000\n      dup2\n      mstore\n      0x04\n      add\n      tag_54\n      swap1\n      tag_45\n      jump\t// in\n    tag_54:\n      mload(0x40)\n      dup1\n      swap2\n      sub\n      swap1\n      revert\n    tag_53:\n        /* \"src/contracts/SmartBank.sol\":1299:1304  value */\n      dup1\n        /* \"src/contracts/SmartBank.sol\":1267:1275  accounts */\n      0x00\n        /* \"src/contracts/SmartBank.sol\":1267:1287  accounts[msg.sender] */\n      0x00\n        /* \"src/contracts/SmartBank.sol\":1276:1286  msg.sender */\n      caller\n        /* \"src/contracts/SmartBank.sol\":1267:1287  accounts[msg.sender] */\n      0xffffffffffffffffffffffffffffffffffffffff\n      and\n      0xffffffffffffffffffffffffffffffffffffffff\n      and\n      dup2\n      mstore\n      0x20\n      add\n      swap1\n      dup2\n      mstore\n      0x20\n      add\n      0x00\n      keccak256\n        /* \"src/contracts/SmartBank.sol\":1267:1295  accounts[msg.sender].balance */\n      0x00\n      add\n      0x00\n        /* \"src/contracts/SmartBank.sol\":1267:1304  accounts[msg.sender].balance -= value */\n      dup3\n      dup3\n      sload\n      tag_55\n      swap2\n      swap1\n      tag_47\n      jump\t// in\n    tag_55:\n      swap3\n      pop\n      pop\n      dup2\n      swap1\n      sstore\n      pop\n        /* \"src/contracts/SmartBank.sol\":1315:1317  to */\n      dup2\n        /* \"src/contracts/SmartBank.sol\":1315:1326  to.transfer */\n      0xffffffffffffffffffffffffffffffffffffffff\n      and\n        /* \"src/contracts/SmartBank.sol\":1315:1333  to.transfer(value) */\n      0x08fc\n        /* \"src/contracts/SmartBank.sol\":1327:1332  value */\n      dup3\n        /* \"src/contracts/SmartBank.sol\":1315:1333  to.transfer(value) */\n      swap1\n      dup2\n      iszero\n      mul\n      swap1\n      mload(0x40)\n      0x00\n      mload(0x40)\n      dup1\n      dup4\n      sub\n      dup2\n      dup6\n      dup9\n      dup9\n      call\n      swap4\n      pop\n      pop\n      pop\n      pop\n      iszero\n      dup1\n      iszero\n      tag_57\n      jumpi\n      returndatacopy(0x00, 0x00, returndatasize)\n      revert(0x00, returndatasize)\n    tag_57:\n      pop\n        /* \"src/contracts/SmartBank.sol\":1348:1387  ExternalTransfer(msg.sender, to, value) */\n      0xcf0ee562475620bbcd2f1b0675c8163317513271e4fdbbe9722436f247bd6d99\n        /* \"src/contracts/SmartBank.sol\":1365:1375  msg.sender */\n      caller\n        /* \"src/contracts/SmartBank.sol\":1377:1379  to */\n      dup4\n        /* \"src/contracts/SmartBank.sol\":1381:1386  value */\n      dup4\n        /* \"src/contracts/SmartBank.sol\":1348:1387  ExternalTransfer(msg.sender, to, value) */\n      mload(0x40)\n      tag_58\n      swap4\n      swap3\n      swap2\n      swap1\n      tag_59\n      jump\t// in\n    tag_58:\n      mload(0x40)\n      dup1\n      swap2\n      sub\n      swap1\n      log1\n        /* \"src/contracts/SmartBank.sol\":1095:1394  function externalTransferTo(address payable to, uint256 value)... */\n      pop\n      pop\n      jump\t// out\n        /* \"src/contracts/SmartBank.sol\":375:418  mapping(address => Account) public accounts */\n    tag_29:\n      mstore(0x20, 0x00)\n      dup1\n      0x00\n      mstore\n      keccak256(0x00, 0x40)\n      0x00\n      swap2\n      pop\n      swap1\n      pop\n      dup1\n      0x00\n      add\n      sload\n      swap1\n      pop\n      dup2\n      jump\t// out\n        /* \"src/contracts/SmartBank.sol\":1400:1713  function internalTransferToAccount(address account, uint256 value) public {... */\n    tag_35:\n        /* \"src/contracts/SmartBank.sol\":1501:1509  accounts */\n      0x00\n        /* \"src/contracts/SmartBank.sol\":1501:1521  accounts[msg.sender] */\n      0x00\n        /* \"src/contracts/SmartBank.sol\":1510:1520  msg.sender */\n      caller\n        /* \"src/contracts/SmartBank.sol\":1501:1521  accounts[msg.sender] */\n      0xffffffffffffffffffffffffffffffffffffffff\n      and\n      0xffffffffffffffffffffffffffffffffffffffff\n      and\n      dup2\n      mstore\n      0x20\n      add\n      swap1\n      dup2\n      mstore\n      0x20\n      add\n      0x00\n      keccak256\n        /* \"src/contracts/SmartBank.sol\":1501:1529  accounts[msg.sender].balance */\n      0x00\n      add\n      sload\n        /* \"src/contracts/SmartBank.sol\":1492:1497  value */\n      dup2\n        /* \"src/contracts/SmartBank.sol\":1492:1529  value <= accounts[msg.sender].balance */\n      gt\n      iszero\n        /* \"src/contracts/SmartBank.sol\":1484:1554  require(value <= accounts[msg.sender].balance, \"insufficient balance\") */\n      tag_61\n      jumpi\n      mload(0x40)\n      0x08c379a000000000000000000000000000000000000000000000000000000000\n      dup2\n      mstore\n      0x04\n      add\n      tag_62\n      swap1\n      tag_45\n      jump\t// in\n    tag_62:\n      mload(0x40)\n      dup1\n      swap2\n      sub\n      swap1\n      revert\n    tag_61:\n        /* \"src/contracts/SmartBank.sol\":1597:1602  value */\n      dup1\n        /* \"src/contracts/SmartBank.sol\":1565:1573  accounts */\n      0x00\n        /* \"src/contracts/SmartBank.sol\":1565:1585  accounts[msg.sender] */\n      0x00\n        /* \"src/contracts/SmartBank.sol\":1574:1584  msg.sender */\n      caller\n        /* \"src/contracts/SmartBank.sol\":1565:1585  accounts[msg.sender] */\n      0xffffffffffffffffffffffffffffffffffffffff\n      and\n      0xffffffffffffffffffffffffffffffffffffffff\n      and\n      dup2\n      mstore\n      0x20\n      add\n      swap1\n      dup2\n      mstore\n      0x20\n      add\n      0x00\n      keccak256\n        /* \"src/contracts/SmartBank.sol\":1565:1593  accounts[msg.sender].balance */\n      0x00\n      add\n      0x00\n        /* \"src/contracts/SmartBank.sol\":1565:1602  accounts[msg.sender].balance -= value */\n      dup3\n      dup3\n      sload\n      tag_63\n      swap2\n      swap1\n      tag_47\n      jump\t// in\n    tag_63:\n      swap3\n      pop\n      pop\n      dup2\n      swap1\n      sstore\n      pop\n        /* \"src/contracts/SmartBank.sol\":1641:1646  value */\n      dup1\n        /* \"src/contracts/SmartBank.sol\":1612:1620  accounts */\n      0x00\n        /* \"src/contracts/SmartBank.sol\":1612:1629  accounts[account] */\n      0x00\n        /* \"src/contracts/SmartBank.sol\":1621:1628  account */\n      dup5\n        /* \"src/contracts/SmartBank.sol\":1612:1629  accounts[account] */\n      0xffffffffffffffffffffffffffffffffffffffff\n      and\n      0xffffffffffffffffffffffffffffffffffffffff\n      and\n      dup2\n      mstore\n      0x20\n      add\n      swap1\n      dup2\n      mstore\n      0x20\n      add\n      0x00\n      keccak256\n        /* \"src/contracts/SmartBank.sol\":1612:1637  accounts[account].balance */\n      0x00\n      add\n      0x00\n        /* \"src/contracts/SmartBank.sol\":1612:1646  accounts[account].balance += value */\n      dup3\n      dup3\n      sload\n      tag_64\n      swap2\n      swap1\n      tag_65\n      jump\t// in\n    tag_64:\n      swap3\n      pop\n      pop\n      dup2\n      swap1\n      sstore\n      pop\n        /* \"src/contracts/SmartBank.sol\":1662:1706  InternalTransfer(msg.sender, account, value) */\n      0xe2080c8fc8d86c864d8dc081fadaebf2be7191086615e786f954420f13ed122a\n        /* \"src/contracts/SmartBank.sol\":1679:1689  msg.sender */\n      caller\n        /* \"src/contracts/SmartBank.sol\":1691:1698  account */\n      dup4\n        /* \"src/contracts/SmartBank.sol\":1700:1705  value */\n      dup4\n        /* \"src/contracts/SmartBank.sol\":1662:1706  InternalTransfer(msg.sender, account, value) */\n      mload(0x40)\n      tag_66\n      swap4\n      swap3\n      swap2\n      swap1\n      tag_67\n      jump\t// in\n    tag_66:\n      mload(0x40)\n      dup1\n      swap2\n      sub\n      swap1\n      log1\n        /* \"src/contracts/SmartBank.sol\":1400:1713  function internalTransferToAccount(address account, uint256 value) public {... */\n      pop\n      pop\n      jump\t// out\n        /* \"src/contracts/SmartBank.sol\":736:821  function withdrawAll() public {... */\n    tag_38:\n        /* \"src/contracts/SmartBank.sol\":776:814  withdraw(accounts[msg.sender].balance) */\n      tag_69\n        /* \"src/contracts/SmartBank.sol\":785:793  accounts */\n      0x00\n        /* \"src/contracts/SmartBank.sol\":785:805  accounts[msg.sender] */\n      0x00\n        /* \"src/contracts/SmartBank.sol\":794:804  msg.sender */\n      caller\n        /* \"src/contracts/SmartBank.sol\":785:805  accounts[msg.sender] */\n      0xffffffffffffffffffffffffffffffffffffffff\n      and\n      0xffffffffffffffffffffffffffffffffffffffff\n      and\n      dup2\n      mstore\n      0x20\n      add\n      swap1\n      dup2\n      mstore\n      0x20\n      add\n      0x00\n      keccak256\n        /* \"src/contracts/SmartBank.sol\":785:813  accounts[msg.sender].balance */\n      0x00\n      add\n      sload\n        /* \"src/contracts/SmartBank.sol\":776:784  withdraw */\n      tag_19\n        /* \"src/contracts/SmartBank.sol\":776:814  withdraw(accounts[msg.sender].balance) */\n      jump\t// in\n    tag_69:\n        /* \"src/contracts/SmartBank.sol\":736:821  function withdrawAll() public {... */\n      jump\t// out\n        /* \"src/contracts/SmartBank.sol\":535:730  function deposit() public payable {... */\n    tag_40:\n        /* \"src/contracts/SmartBank.sol\":600:601  0 */\n      0x00\n        /* \"src/contracts/SmartBank.sol\":587:596  msg.value */\n      callvalue\n        /* \"src/contracts/SmartBank.sol\":587:601  msg.value != 0 */\n      sub\n        /* \"src/contracts/SmartBank.sol\":579:627  require(msg.value != 0, \"value can not be zero\") */\n      tag_71\n      jumpi\n      mload(0x40)\n      0x08c379a000000000000000000000000000000000000000000000000000000000\n      dup2\n      mstore\n      0x04\n      add\n      tag_72\n      swap1\n      tag_73\n      jump\t// in\n    tag_72:\n      mload(0x40)\n      dup1\n      swap2\n      sub\n      swap1\n      revert\n    tag_71:\n        /* \"src/contracts/SmartBank.sol\":669:678  msg.value */\n      callvalue\n        /* \"src/contracts/SmartBank.sol\":637:645  accounts */\n      0x00\n        /* \"src/contracts/SmartBank.sol\":637:657  accounts[msg.sender] */\n      0x00\n        /* \"src/contracts/SmartBank.sol\":646:656  msg.sender */\n      caller\n        /* \"src/contracts/SmartBank.sol\":637:657  accounts[msg.sender] */\n      0xffffffffffffffffffffffffffffffffffffffff\n      and\n      0xffffffffffffffffffffffffffffffffffffffff\n      and\n      dup2\n      mstore\n      0x20\n      add\n      swap1\n      dup2\n      mstore\n      0x20\n      add\n      0x00\n      keccak256\n        /* \"src/contracts/SmartBank.sol\":637:665  accounts[msg.sender].balance */\n      0x00\n      add\n      0x00\n        /* \"src/contracts/SmartBank.sol\":637:678  accounts[msg.sender].balance += msg.value */\n      dup3\n      dup3\n      sload\n      tag_74\n      swap2\n      swap1\n      tag_65\n      jump\t// in\n    tag_74:\n      swap3\n      pop\n      pop\n      dup2\n      swap1\n      sstore\n      pop\n        /* \"src/contracts/SmartBank.sol\":693:723  Deposit(msg.sender, msg.value) */\n      0xe1fffcc4923d04b559f4d29a8bfc6cda04eb5b0d3c460751c2402c5c5cc9109c\n        /* \"src/contracts/SmartBank.sol\":701:711  msg.sender */\n      caller\n        /* \"src/contracts/SmartBank.sol\":713:722  msg.value */\n      callvalue\n        /* \"src/contracts/SmartBank.sol\":693:723  Deposit(msg.sender, msg.value) */\n      mload(0x40)\n      tag_75\n      swap3\n      swap2\n      swap1\n      tag_51\n      jump\t// in\n    tag_75:\n      mload(0x40)\n      dup1\n      swap2\n      sub\n      swap1\n      log1\n        /* \"src/contracts/SmartBank.sol\":535:730  function deposit() public payable {... */\n      jump\t// out\n        /* \"#utility.yul\":7:84   */\n    tag_76:\n        /* \"#utility.yul\":44:51   */\n      0x00\n        /* \"#utility.yul\":73:78   */\n      dup2\n        /* \"#utility.yul\":62:78   */\n      swap1\n      pop\n        /* \"#utility.yul\":7:84   */\n      swap2\n      swap1\n      pop\n      jump\t// out\n        /* \"#utility.yul\":90:208   */\n    tag_77:\n        /* \"#utility.yul\":177:201   */\n      tag_105\n        /* \"#utility.yul\":195:200   */\n      dup2\n        /* \"#utility.yul\":177:201   */\n      tag_76\n      jump\t// in\n    tag_105:\n        /* \"#utility.yul\":172:175   */\n      dup3\n        /* \"#utility.yul\":165:202   */\n      mstore\n        /* \"#utility.yul\":90:208   */\n      pop\n      pop\n      jump\t// out\n        /* \"#utility.yul\":214:436   */\n    tag_14:\n        /* \"#utility.yul\":307:311   */\n      0x00\n        /* \"#utility.yul\":345:347   */\n      0x20\n        /* \"#utility.yul\":334:343   */\n      dup3\n        /* \"#utility.yul\":330:348   */\n      add\n        /* \"#utility.yul\":322:348   */\n      swap1\n      pop\n        /* \"#utility.yul\":358:429   */\n      tag_107\n        /* \"#utility.yul\":426:427   */\n      0x00\n        /* \"#utility.yul\":415:424   */\n      dup4\n        /* \"#utility.yul\":411:428   */\n      add\n        /* \"#utility.yul\":402:408   */\n      dup5\n        /* \"#utility.yul\":358:429   */\n      tag_77\n      jump\t// in\n    tag_107:\n        /* \"#utility.yul\":214:436   */\n      swap3\n      swap2\n      pop\n      pop\n      jump\t// out\n        /* \"#utility.yul\":523:640   */\n    tag_79:\n        /* \"#utility.yul\":632:633   */\n      0x00\n        /* \"#utility.yul\":629:630   */\n      0x00\n        /* \"#utility.yul\":622:634   */\n      revert\n        /* \"#utility.yul\":769:891   */\n    tag_81:\n        /* \"#utility.yul\":842:866   */\n      tag_112\n        /* \"#utility.yul\":860:865   */\n      dup2\n        /* \"#utility.yul\":842:866   */\n      tag_76\n      jump\t// in\n    tag_112:\n        /* \"#utility.yul\":835:840   */\n      dup2\n        /* \"#utility.yul\":832:867   */\n      eq\n        /* \"#utility.yul\":822:885   */\n      tag_113\n      jumpi\n        /* \"#utility.yul\":881:882   */\n      0x00\n        /* \"#utility.yul\":878:879   */\n      0x00\n        /* \"#utility.yul\":871:883   */\n      revert\n        /* \"#utility.yul\":822:885   */\n    tag_113:\n        /* \"#utility.yul\":769:891   */\n      pop\n      jump\t// out\n        /* \"#utility.yul\":897:1036   */\n    tag_82:\n        /* \"#utility.yul\":943:948   */\n      0x00\n        /* \"#utility.yul\":981:987   */\n      dup2\n        /* \"#utility.yul\":968:988   */\n      calldataload\n        /* \"#utility.yul\":959:988   */\n      swap1\n      pop\n        /* \"#utility.yul\":997:1030   */\n      tag_115\n        /* \"#utility.yul\":1024:1029   */\n      dup2\n        /* \"#utility.yul\":997:1030   */\n      tag_81\n      jump\t// in\n    tag_115:\n        /* \"#utility.yul\":897:1036   */\n      swap3\n      swap2\n      pop\n      pop\n      jump\t// out\n        /* \"#utility.yul\":1042:1371   */\n    tag_18:\n        /* \"#utility.yul\":1101:1107   */\n      0x00\n        /* \"#utility.yul\":1150:1152   */\n      0x20\n        /* \"#utility.yul\":1138:1147   */\n      dup3\n        /* \"#utility.yul\":1129:1136   */\n      dup5\n        /* \"#utility.yul\":1125:1148   */\n      sub\n        /* \"#utility.yul\":1121:1153   */\n      slt\n        /* \"#utility.yul\":1118:1237   */\n      iszero\n      tag_117\n      jumpi\n        /* \"#utility.yul\":1156:1235   */\n      tag_118\n      tag_79\n      jump\t// in\n    tag_118:\n        /* \"#utility.yul\":1118:1237   */\n    tag_117:\n        /* \"#utility.yul\":1276:1277   */\n      0x00\n        /* \"#utility.yul\":1301:1354   */\n      tag_119\n        /* \"#utility.yul\":1346:1353   */\n      dup5\n        /* \"#utility.yul\":1337:1343   */\n      dup3\n        /* \"#utility.yul\":1326:1335   */\n      dup6\n        /* \"#utility.yul\":1322:1344   */\n      add\n        /* \"#utility.yul\":1301:1354   */\n      tag_82\n      jump\t// in\n    tag_119:\n        /* \"#utility.yul\":1291:1354   */\n      swap2\n      pop\n        /* \"#utility.yul\":1247:1364   */\n      pop\n        /* \"#utility.yul\":1042:1371   */\n      swap3\n      swap2\n      pop\n      pop\n      jump\t// out\n        /* \"#utility.yul\":1377:1503   */\n    tag_83:\n        /* \"#utility.yul\":1414:1421   */\n      0x00\n        /* \"#utility.yul\":1454:1496   */\n      0xffffffffffffffffffffffffffffffffffffffff\n        /* \"#utility.yul\":1447:1452   */\n      dup3\n        /* \"#utility.yul\":1443:1497   */\n      and\n        /* \"#utility.yul\":1432:1497   */\n      swap1\n      pop\n        /* \"#utility.yul\":1377:1503   */\n      swap2\n      swap1\n      pop\n      jump\t// out\n        /* \"#utility.yul\":1509:1613   */\n    tag_84:\n        /* \"#utility.yul\":1554:1561   */\n      0x00\n        /* \"#utility.yul\":1583:1607   */\n      tag_122\n        /* \"#utility.yul\":1601:1606   */\n      dup3\n        /* \"#utility.yul\":1583:1607   */\n      tag_83\n      jump\t// in\n    tag_122:\n        /* \"#utility.yul\":1572:1607   */\n      swap1\n      pop\n        /* \"#utility.yul\":1509:1613   */\n      swap2\n      swap1\n      pop\n      jump\t// out\n        /* \"#utility.yul\":1619:1757   */\n    tag_85:\n        /* \"#utility.yul\":1700:1732   */\n      tag_124\n        /* \"#utility.yul\":1726:1731   */\n      dup2\n        /* \"#utility.yul\":1700:1732   */\n      tag_84\n      jump\t// in\n    tag_124:\n        /* \"#utility.yul\":1693:1698   */\n      dup2\n        /* \"#utility.yul\":1690:1733   */\n      eq\n        /* \"#utility.yul\":1680:1751   */\n      tag_125\n      jumpi\n        /* \"#utility.yul\":1747:1748   */\n      0x00\n        /* \"#utility.yul\":1744:1745   */\n      0x00\n        /* \"#utility.yul\":1737:1749   */\n      revert\n        /* \"#utility.yul\":1680:1751   */\n    tag_125:\n        /* \"#utility.yul\":1619:1757   */\n      pop\n      jump\t// out\n        /* \"#utility.yul\":1763:1918   */\n    tag_86:\n        /* \"#utility.yul\":1817:1822   */\n      0x00\n        /* \"#utility.yul\":1855:1861   */\n      dup2\n        /* \"#utility.yul\":1842:1862   */\n      calldataload\n        /* \"#utility.yul\":1833:1862   */\n      swap1\n      pop\n        /* \"#utility.yul\":1871:1912   */\n      tag_127\n        /* \"#utility.yul\":1906:1911   */\n      dup2\n        /* \"#utility.yul\":1871:1912   */\n      tag_85\n      jump\t// in\n    tag_127:\n        /* \"#utility.yul\":1763:1918   */\n      swap3\n      swap2\n      pop\n      pop\n      jump\t// out\n        /* \"#utility.yul\":1924:2414   */\n    tag_23:\n        /* \"#utility.yul\":2000:2006   */\n      0x00\n        /* \"#utility.yul\":2008:2014   */\n      0x00\n        /* \"#utility.yul\":2057:2059   */\n      0x40\n        /* \"#utility.yul\":2045:2054   */\n      dup4\n        /* \"#utility.yul\":2036:2043   */\n      dup6\n        /* \"#utility.yul\":2032:2055   */\n      sub\n        /* \"#utility.yul\":2028:2060   */\n      slt\n        /* \"#utility.yul\":2025:2144   */\n      iszero\n      tag_129\n      jumpi\n        /* \"#utility.yul\":2063:2142   */\n      tag_130\n      tag_79\n      jump\t// in\n    tag_130:\n        /* \"#utility.yul\":2025:2144   */\n    tag_129:\n        /* \"#utility.yul\":2183:2184   */\n      0x00\n        /* \"#utility.yul\":2208:2269   */\n      tag_131\n        /* \"#utility.yul\":2261:2268   */\n      dup6\n        /* \"#utility.yul\":2252:2258   */\n      dup3\n        /* \"#utility.yul\":2241:2250   */\n      dup7\n        /* \"#utility.yul\":2237:2259   */\n      add\n        /* \"#utility.yul\":2208:2269   */\n      tag_86\n      jump\t// in\n    tag_131:\n        /* \"#utility.yul\":2198:2269   */\n      swap3\n      pop\n        /* \"#utility.yul\":2154:2279   */\n      pop\n        /* \"#utility.yul\":2318:2320   */\n      0x20\n        /* \"#utility.yul\":2344:2397   */\n      tag_132\n        /* \"#utility.yul\":2389:2396   */\n      dup6\n        /* \"#utility.yul\":2380:2386   */\n      dup3\n        /* \"#utility.yul\":2369:2378   */\n      dup7\n        /* \"#utility.yul\":2365:2387   */\n      add\n        /* \"#utility.yul\":2344:2397   */\n      tag_82\n      jump\t// in\n    tag_132:\n        /* \"#utility.yul\":2334:2397   */\n      swap2\n      pop\n        /* \"#utility.yul\":2289:2407   */\n      pop\n        /* \"#utility.yul\":1924:2414   */\n      swap3\n      pop\n      swap3\n      swap1\n      pop\n      jump\t// out\n        /* \"#utility.yul\":2420:2516   */\n    tag_87:\n        /* \"#utility.yul\":2457:2464   */\n      0x00\n        /* \"#utility.yul\":2486:2510   */\n      tag_134\n        /* \"#utility.yul\":2504:2509   */\n      dup3\n        /* \"#utility.yul\":2486:2510   */\n      tag_83\n      jump\t// in\n    tag_134:\n        /* \"#utility.yul\":2475:2510   */\n      swap1\n      pop\n        /* \"#utility.yul\":2420:2516   */\n      swap2\n      swap1\n      pop\n      jump\t// out\n        /* \"#utility.yul\":2522:2644   */\n    tag_88:\n        /* \"#utility.yul\":2595:2619   */\n      tag_136\n        /* \"#utility.yul\":2613:2618   */\n      dup2\n        /* \"#utility.yul\":2595:2619   */\n      tag_87\n      jump\t// in\n    tag_136:\n        /* \"#utility.yul\":2588:2593   */\n      dup2\n        /* \"#utility.yul\":2585:2620   */\n      eq\n        /* \"#utility.yul\":2575:2638   */\n      tag_137\n      jumpi\n        /* \"#utility.yul\":2634:2635   */\n      0x00\n        /* \"#utility.yul\":2631:2632   */\n      0x00\n        /* \"#utility.yul\":2624:2636   */\n      revert\n        /* \"#utility.yul\":2575:2638   */\n    tag_137:\n        /* \"#utility.yul\":2522:2644   */\n      pop\n      jump\t// out\n        /* \"#utility.yul\":2650:2789   */\n    tag_89:\n        /* \"#utility.yul\":2696:2701   */\n      0x00\n        /* \"#utility.yul\":2734:2740   */\n      dup2\n        /* \"#utility.yul\":2721:2741   */\n      calldataload\n        /* \"#utility.yul\":2712:2741   */\n      swap1\n      pop\n        /* \"#utility.yul\":2750:2783   */\n      tag_139\n        /* \"#utility.yul\":2777:2782   */\n      dup2\n        /* \"#utility.yul\":2750:2783   */\n      tag_88\n      jump\t// in\n    tag_139:\n        /* \"#utility.yul\":2650:2789   */\n      swap3\n      swap2\n      pop\n      pop\n      jump\t// out\n        /* \"#utility.yul\":2795:3124   */\n    tag_28:\n        /* \"#utility.yul\":2854:2860   */\n      0x00\n        /* \"#utility.yul\":2903:2905   */\n      0x20\n        /* \"#utility.yul\":2891:2900   */\n      dup3\n        /* \"#utility.yul\":2882:2889   */\n      dup5\n        /* \"#utility.yul\":2878:2901   */\n      sub\n        /* \"#utility.yul\":2874:2906   */\n      slt\n        /* \"#utility.yul\":2871:2990   */\n      iszero\n      tag_141\n      jumpi\n        /* \"#utility.yul\":2909:2988   */\n      tag_142\n      tag_79\n      jump\t// in\n    tag_142:\n        /* \"#utility.yul\":2871:2990   */\n    tag_141:\n        /* \"#utility.yul\":3029:3030   */\n      0x00\n        /* \"#utility.yul\":3054:3107   */\n      tag_143\n        /* \"#utility.yul\":3099:3106   */\n      dup5\n        /* \"#utility.yul\":3090:3096   */\n      dup3\n        /* \"#utility.yul\":3079:3088   */\n      dup6\n        /* \"#utility.yul\":3075:3097   */\n      add\n        /* \"#utility.yul\":3054:3107   */\n      tag_89\n      jump\t// in\n    tag_143:\n        /* \"#utility.yul\":3044:3107   */\n      swap2\n      pop\n        /* \"#utility.yul\":3000:3117   */\n      pop\n        /* \"#utility.yul\":2795:3124   */\n      swap3\n      swap2\n      pop\n      pop\n      jump\t// out\n        /* \"#utility.yul\":3130:3604   */\n    tag_34:\n        /* \"#utility.yul\":3198:3204   */\n      0x00\n        /* \"#utility.yul\":3206:3212   */\n      0x00\n        /* \"#utility.yul\":3255:3257   */\n      0x40\n        /* \"#utility.yul\":3243:3252   */\n      dup4\n        /* \"#utility.yul\":3234:3241   */\n      dup6\n        /* \"#utility.yul\":3230:3253   */\n      sub\n        /* \"#utility.yul\":3226:3258   */\n      slt\n        /* \"#utility.yul\":3223:3342   */\n      iszero\n      tag_145\n      jumpi\n        /* \"#utility.yul\":3261:3340   */\n      tag_146\n      tag_79\n      jump\t// in\n    tag_146:\n        /* \"#utility.yul\":3223:3342   */\n    tag_145:\n        /* \"#utility.yul\":3381:3382   */\n      0x00\n        /* \"#utility.yul\":3406:3459   */\n      tag_147\n        /* \"#utility.yul\":3451:3458   */\n      dup6\n        /* \"#utility.yul\":3442:3448   */\n      dup3\n        /* \"#utility.yul\":3431:3440   */\n      dup7\n        /* \"#utility.yul\":3427:3449   */\n      add\n        /* \"#utility.yul\":3406:3459   */\n      tag_89\n      jump\t// in\n    tag_147:\n        /* \"#utility.yul\":3396:3459   */\n      swap3\n      pop\n        /* \"#utility.yul\":3352:3469   */\n      pop\n        /* \"#utility.yul\":3508:3510   */\n      0x20\n        /* \"#utility.yul\":3534:3587   */\n      tag_148\n        /* \"#utility.yul\":3579:3586   */\n      dup6\n        /* \"#utility.yul\":3570:3576   */\n      dup3\n        /* \"#utility.yul\":3559:3568   */\n      dup7\n        /* \"#utility.yul\":3555:3577   */\n      add\n        /* \"#utility.yul\":3534:3587   */\n      tag_82\n      jump\t// in\n    tag_148:\n        /* \"#utility.yul\":3524:3587   */\n      swap2\n      pop\n        /* \"#utility.yul\":3479:3597   */\n      pop\n        /* \"#utility.yul\":3130:3604   */\n      swap3\n      pop\n      swap3\n      swap1\n      pop\n      jump\t// out\n        /* \"#utility.yul\":3610:3779   */\n    tag_90:\n        /* \"#utility.yul\":3694:3705   */\n      0x00\n        /* \"#utility.yul\":3728:3734   */\n      dup3\n        /* \"#utility.yul\":3723:3726   */\n      dup3\n        /* \"#utility.yul\":3716:3735   */\n      mstore\n        /* \"#utility.yul\":3768:3772   */\n      0x20\n        /* \"#utility.yul\":3763:3766   */\n      dup3\n        /* \"#utility.yul\":3759:3773   */\n      add\n        /* \"#utility.yul\":3744:3773   */\n      swap1\n      pop\n        /* \"#utility.yul\":3610:3779   */\n      swap3\n      swap2\n      pop\n      pop\n      jump\t// out\n        /* \"#utility.yul\":3785:3955   */\n    tag_91:\n        /* \"#utility.yul\":3925:3947   */\n      0x696e73756666696369656e742062616c616e6365000000000000000000000000\n        /* \"#utility.yul\":3921:3922   */\n      0x00\n        /* \"#utility.yul\":3913:3919   */\n      dup3\n        /* \"#utility.yul\":3909:3923   */\n      add\n        /* \"#utility.yul\":3902:3948   */\n      mstore\n        /* \"#utility.yul\":3785:3955   */\n      pop\n      jump\t// out\n        /* \"#utility.yul\":3961:4327   */\n    tag_92:\n        /* \"#utility.yul\":4103:4106   */\n      0x00\n        /* \"#utility.yul\":4124:4191   */\n      tag_152\n        /* \"#utility.yul\":4188:4190   */\n      0x14\n        /* \"#utility.yul\":4183:4186   */\n      dup4\n        /* \"#utility.yul\":4124:4191   */\n      tag_90\n      jump\t// in\n    tag_152:\n        /* \"#utility.yul\":4117:4191   */\n      swap2\n      pop\n        /* \"#utility.yul\":4200:4293   */\n      tag_153\n        /* \"#utility.yul\":4289:4292   */\n      dup3\n        /* \"#utility.yul\":4200:4293   */\n      tag_91\n      jump\t// in\n    tag_153:\n        /* \"#utility.yul\":4318:4320   */\n      0x20\n        /* \"#utility.yul\":4313:4316   */\n      dup3\n        /* \"#utility.yul\":4309:4321   */\n      add\n        /* \"#utility.yul\":4302:4321   */\n      swap1\n      pop\n        /* \"#utility.yul\":3961:4327   */\n      swap2\n      swap1\n      pop\n      jump\t// out\n        /* \"#utility.yul\":4333:4752   */\n    tag_45:\n        /* \"#utility.yul\":4499:4503   */\n      0x00\n        /* \"#utility.yul\":4537:4539   */\n      0x20\n        /* \"#utility.yul\":4526:4535   */\n      dup3\n        /* \"#utility.yul\":4522:4540   */\n      add\n        /* \"#utility.yul\":4514:4540   */\n      swap1\n      pop\n        /* \"#utility.yul\":4586:4595   */\n      dup2\n        /* \"#utility.yul\":4580:4584   */\n      dup2\n        /* \"#utility.yul\":4576:4596   */\n      sub\n        /* \"#utility.yul\":4572:4573   */\n      0x00\n        /* \"#utility.yul\":4561:4570   */\n      dup4\n        /* \"#utility.yul\":4557:4574   */\n      add\n        /* \"#utility.yul\":4550:4597   */\n      mstore\n        /* \"#utility.yul\":4614:4745   */\n      tag_155\n        /* \"#utility.yul\":4740:4744   */\n      dup2\n        /* \"#utility.yul\":4614:4745   */\n      tag_92\n      jump\t// in\n    tag_155:\n        /* \"#utility.yul\":4606:4745   */\n      swap1\n      pop\n        /* \"#utility.yul\":4333:4752   */\n      swap2\n      swap1\n      pop\n      jump\t// out\n        /* \"#utility.yul\":4758:4938   */\n    tag_93:\n        /* \"#utility.yul\":4806:4883   */\n      0x4e487b7100000000000000000000000000000000000000000000000000000000\n        /* \"#utility.yul\":4803:4804   */\n      0x00\n        /* \"#utility.yul\":4796:4884   */\n      mstore\n        /* \"#utility.yul\":4903:4907   */\n      0x11\n        /* \"#utility.yul\":4900:4901   */\n      0x04\n        /* \"#utility.yul\":4893:4908   */\n      mstore\n        /* \"#utility.yul\":4927:4931   */\n      0x24\n        /* \"#utility.yul\":4924:4925   */\n      0x00\n        /* \"#utility.yul\":4917:4932   */\n      revert\n        /* \"#utility.yul\":4944:5138   */\n    tag_47:\n        /* \"#utility.yul\":4984:4988   */\n      0x00\n        /* \"#utility.yul\":5004:5024   */\n      tag_158\n        /* \"#utility.yul\":5022:5023   */\n      dup3\n        /* \"#utility.yul\":5004:5024   */\n      tag_76\n      jump\t// in\n    tag_158:\n        /* \"#utility.yul\":4999:5024   */\n      swap2\n      pop\n        /* \"#utility.yul\":5038:5058   */\n      tag_159\n        /* \"#utility.yul\":5056:5057   */\n      dup4\n        /* \"#utility.yul\":5038:5058   */\n      tag_76\n      jump\t// in\n    tag_159:\n        /* \"#utility.yul\":5033:5058   */\n      swap3\n      pop\n        /* \"#utility.yul\":5082:5083   */\n      dup3\n        /* \"#utility.yul\":5079:5080   */\n      dup3\n        /* \"#utility.yul\":5075:5084   */\n      sub\n        /* \"#utility.yul\":5067:5084   */\n      swap1\n      pop\n        /* \"#utility.yul\":5106:5107   */\n      dup2\n        /* \"#utility.yul\":5100:5104   */\n      dup2\n        /* \"#utility.yul\":5097:5108   */\n      gt\n        /* \"#utility.yul\":5094:5131   */\n      iszero\n      tag_160\n      jumpi\n        /* \"#utility.yul\":5111:5129   */\n      tag_161\n      tag_93\n      jump\t// in\n    tag_161:\n        /* \"#utility.yul\":5094:5131   */\n    tag_160:\n        /* \"#utility.yul\":4944:5138   */\n      swap3\n      swap2\n      pop\n      pop\n      jump\t// out\n        /* \"#utility.yul\":5144:5262   */\n    tag_94:\n        /* \"#utility.yul\":5231:5255   */\n      tag_163\n        /* \"#utility.yul\":5249:5254   */\n      dup2\n        /* \"#utility.yul\":5231:5255   */\n      tag_87\n      jump\t// in\n    tag_163:\n        /* \"#utility.yul\":5226:5229   */\n      dup3\n        /* \"#utility.yul\":5219:5256   */\n      mstore\n        /* \"#utility.yul\":5144:5262   */\n      pop\n      pop\n      jump\t// out\n        /* \"#utility.yul\":5268:5600   */\n    tag_51:\n        /* \"#utility.yul\":5389:5393   */\n      0x00\n        /* \"#utility.yul\":5427:5429   */\n      0x40\n        /* \"#utility.yul\":5416:5425   */\n      dup3\n        /* \"#utility.yul\":5412:5430   */\n      add\n        /* \"#utility.yul\":5404:5430   */\n      swap1\n      pop\n        /* \"#utility.yul\":5440:5511   */\n      tag_165\n        /* \"#utility.yul\":5508:5509   */\n      0x00\n        /* \"#utility.yul\":5497:5506   */\n      dup4\n        /* \"#utility.yul\":5493:5510   */\n      add\n        /* \"#utility.yul\":5484:5490   */\n      dup6\n        /* \"#utility.yul\":5440:5511   */\n      tag_94\n      jump\t// in\n    tag_165:\n        /* \"#utility.yul\":5521:5593   */\n      tag_166\n        /* \"#utility.yul\":5589:5591   */\n      0x20\n        /* \"#utility.yul\":5578:5587   */\n      dup4\n        /* \"#utility.yul\":5574:5592   */\n      add\n        /* \"#utility.yul\":5565:5571   */\n      dup5\n        /* \"#utility.yul\":5521:5593   */\n      tag_77\n      jump\t// in\n    tag_166:\n        /* \"#utility.yul\":5268:5600   */\n      swap4\n      swap3\n      pop\n      pop\n      pop\n      jump\t// out\n        /* \"#utility.yul\":5606:5666   */\n    tag_95:\n        /* \"#utility.yul\":5634:5637   */\n      0x00\n        /* \"#utility.yul\":5655:5660   */\n      dup2\n        /* \"#utility.yul\":5648:5660   */\n      swap1\n      pop\n        /* \"#utility.yul\":5606:5666   */\n      swap2\n      swap1\n      pop\n      jump\t// out\n        /* \"#utility.yul\":5672:5814   */\n    tag_96:\n        /* \"#utility.yul\":5722:5731   */\n      0x00\n        /* \"#utility.yul\":5755:5808   */\n      tag_169\n        /* \"#utility.yul\":5773:5807   */\n      tag_170\n        /* \"#utility.yul\":5782:5806   */\n      tag_171\n        /* \"#utility.yul\":5800:5805   */\n      dup5\n        /* \"#utility.yul\":5782:5806   */\n      tag_83\n      jump\t// in\n    tag_171:\n        /* \"#utility.yul\":5773:5807   */\n      tag_95\n      jump\t// in\n    tag_170:\n        /* \"#utility.yul\":5755:5808   */\n      tag_83\n      jump\t// in\n    tag_169:\n        /* \"#utility.yul\":5742:5808   */\n      swap1\n      pop\n        /* \"#utility.yul\":5672:5814   */\n      swap2\n      swap1\n      pop\n      jump\t// out\n        /* \"#utility.yul\":5820:5946   */\n    tag_97:\n        /* \"#utility.yul\":5870:5879   */\n      0x00\n        /* \"#utility.yul\":5903:5940   */\n      tag_173\n        /* \"#utility.yul\":5934:5939   */\n      dup3\n        /* \"#utility.yul\":5903:5940   */\n      tag_96\n      jump\t// in\n    tag_173:\n        /* \"#utility.yul\":5890:5940   */\n      swap1\n      pop\n        /* \"#utility.yul\":5820:5946   */\n      swap2\n      swap1\n      pop\n      jump\t// out\n        /* \"#utility.yul\":5952:6086   */\n    tag_98:\n        /* \"#utility.yul\":6010:6019   */\n      0x00\n        /* \"#utility.yul\":6043:6080   */\n      tag_175\n        /* \"#utility.yul\":6074:6079   */\n      dup3\n        /* \"#utility.yul\":6043:6080   */\n      tag_97\n      jump\t// in\n    tag_175:\n        /* \"#utility.yul\":6030:6080   */\n      swap1\n      pop\n        /* \"#utility.yul\":5952:6086   */\n      swap2\n      swap1\n      pop\n      jump\t// out\n        /* \"#utility.yul\":6092:6239   */\n    tag_99:\n        /* \"#utility.yul\":6187:6232   */\n      tag_177\n        /* \"#utility.yul\":6226:6231   */\n      dup2\n        /* \"#utility.yul\":6187:6232   */\n      tag_98\n      jump\t// in\n    tag_177:\n        /* \"#utility.yul\":6182:6185   */\n      dup3\n        /* \"#utility.yul\":6175:6233   */\n      mstore\n        /* \"#utility.yul\":6092:6239   */\n      pop\n      pop\n      jump\t// out\n        /* \"#utility.yul\":6245:6703   */\n    tag_59:\n        /* \"#utility.yul\":6402:6406   */\n      0x00\n        /* \"#utility.yul\":6440:6442   */\n      0x60\n        /* \"#utility.yul\":6429:6438   */\n      dup3\n        /* \"#utility.yul\":6425:6443   */\n      add\n        /* \"#utility.yul\":6417:6443   */\n      swap1\n      pop\n        /* \"#utility.yul\":6453:6524   */\n      tag_179\n        /* \"#utility.yul\":6521:6522   */\n      0x00\n        /* \"#utility.yul\":6510:6519   */\n      dup4\n        /* \"#utility.yul\":6506:6523   */\n      add\n        /* \"#utility.yul\":6497:6503   */\n      dup7\n        /* \"#utility.yul\":6453:6524   */\n      tag_94\n      jump\t// in\n    tag_179:\n        /* \"#utility.yul\":6534:6614   */\n      tag_180\n        /* \"#utility.yul\":6610:6612   */\n      0x20\n        /* \"#utility.yul\":6599:6608   */\n      dup4\n        /* \"#utility.yul\":6595:6613   */\n      add\n        /* \"#utility.yul\":6586:6592   */\n      dup6\n        /* \"#utility.yul\":6534:6614   */\n      tag_99\n      jump\t// in\n    tag_180:\n        /* \"#utility.yul\":6624:6696   */\n      tag_181\n        /* \"#utility.yul\":6692:6694   */\n      0x40\n        /* \"#utility.yul\":6681:6690   */\n      dup4\n        /* \"#utility.yul\":6677:6695   */\n      add\n        /* \"#utility.yul\":6668:6674   */\n      dup5\n        /* \"#utility.yul\":6624:6696   */\n      tag_77\n      jump\t// in\n    tag_181:\n        /* \"#utility.yul\":6245:6703   */\n      swap5\n      swap4\n      pop\n      pop\n      pop\n      pop\n      jump\t// out\n        /* \"#utility.yul\":6709:6900   */\n    tag_65:\n        /* \"#utility.yul\":6749:6752   */\n      0x00\n        /* \"#utility.yul\":6768:6788   */\n      tag_183\n        /* \"#utility.yul\":6786:6787   */\n      dup3\n        /* \"#utility.yul\":6768:6788   */\n      tag_76\n      jump\t// in\n    tag_183:\n        /* \"#utility.yul\":6763:6788   */\n      swap2\n      pop\n        /* \"#utility.yul\":6802:6822   */\n      tag_184\n        /* \"#utility.yul\":6820:6821   */\n      dup4\n        /* \"#utility.yul\":6802:6822   */\n      tag_76\n      jump\t// in\n    tag_184:\n        /* \"#utility.yul\":6797:6822   */\n      swap3\n      pop\n        /* \"#utility.yul\":6845:6846   */\n      dup3\n        /* \"#utility.yul\":6842:6843   */\n      dup3\n        /* \"#utility.yul\":6838:6847   */\n      add\n        /* \"#utility.yul\":6831:6847   */\n      swap1\n      pop\n        /* \"#utility.yul\":6866:6869   */\n      dup1\n        /* \"#utility.yul\":6863:6864   */\n      dup3\n        /* \"#utility.yul\":6860:6870   */\n      gt\n        /* \"#utility.yul\":6857:6893   */\n      iszero\n      tag_185\n      jumpi\n        /* \"#utility.yul\":6873:6891   */\n      tag_186\n      tag_93\n      jump\t// in\n    tag_186:\n        /* \"#utility.yul\":6857:6893   */\n    tag_185:\n        /* \"#utility.yul\":6709:6900   */\n      swap3\n      swap2\n      pop\n      pop\n      jump\t// out\n        /* \"#utility.yul\":6906:7348   */\n    tag_67:\n        /* \"#utility.yul\":7055:7059   */\n      0x00\n        /* \"#utility.yul\":7093:7095   */\n      0x60\n        /* \"#utility.yul\":7082:7091   */\n      dup3\n        /* \"#utility.yul\":7078:7096   */\n      add\n        /* \"#utility.yul\":7070:7096   */\n      swap1\n      pop\n        /* \"#utility.yul\":7106:7177   */\n      tag_188\n        /* \"#utility.yul\":7174:7175   */\n      0x00\n        /* \"#utility.yul\":7163:7172   */\n      dup4\n        /* \"#utility.yul\":7159:7176   */\n      add\n        /* \"#utility.yul\":7150:7156   */\n      dup7\n        /* \"#utility.yul\":7106:7177   */\n      tag_94\n      jump\t// in\n    tag_188:\n        /* \"#utility.yul\":7187:7259   */\n      tag_189\n        /* \"#utility.yul\":7255:7257   */\n      0x20\n        /* \"#utility.yul\":7244:7253   */\n      dup4\n        /* \"#utility.yul\":7240:7258   */\n      add\n        /* \"#utility.yul\":7231:7237   */\n      dup6\n        /* \"#utility.yul\":7187:7259   */\n      tag_94\n      jump\t// in\n    tag_189:\n        /* \"#utility.yul\":7269:7341   */\n      tag_190\n        /* \"#utility.yul\":7337:7339   */\n      0x40\n        /* \"#utility.yul\":7326:7335   */\n      dup4\n        /* \"#utility.yul\":7322:7340   */\n      add\n        /* \"#utility.yul\":7313:7319   */\n      dup5\n        /* \"#utility.yul\":7269:7341   */\n      tag_77\n      jump\t// in\n    tag_190:\n        /* \"#utility.yul\":6906:7348   */\n      swap5\n      swap4\n      pop\n      pop\n      pop\n      pop\n      jump\t// out\n        /* \"#utility.yul\":7354:7525   */\n    tag_100:\n        /* \"#utility.yul\":7494:7517   */\n      0x76616c75652063616e206e6f74206265207a65726f0000000000000000000000\n        /* \"#utility.yul\":7490:7491   */\n      0x00\n        /* \"#utility.yul\":7482:7488   */\n      dup3\n        /* \"#utility.yul\":7478:7492   */\n      add\n        /* \"#utility.yul\":7471:7518   */\n      mstore\n        /* \"#utility.yul\":7354:7525   */\n      pop\n      jump\t// out\n        /* \"#utility.yul\":7531:7897   */\n    tag_101:\n        /* \"#utility.yul\":7673:7676   */\n      0x00\n        /* \"#utility.yul\":7694:7761   */\n      tag_193\n        /* \"#utility.yul\":7758:7760   */\n      0x15\n        /* \"#utility.yul\":7753:7756   */\n      dup4\n        /* \"#utility.yul\":7694:7761   */\n      tag_90\n      jump\t// in\n    tag_193:\n        /* \"#utility.yul\":7687:7761   */\n      swap2\n      pop\n        /* \"#utility.yul\":7770:7863   */\n      tag_194\n        /* \"#utility.yul\":7859:7862   */\n      dup3\n        /* \"#utility.yul\":7770:7863   */\n      tag_100\n      jump\t// in\n    tag_194:\n        /* \"#utility.yul\":7888:7890   */\n      0x20\n        /* \"#utility.yul\":7883:7886   */\n      dup3\n        /* \"#utility.yul\":7879:7891   */\n      add\n        /* \"#utility.yul\":7872:7891   */\n      swap1\n      pop\n        /* \"#utility.yul\":7531:7897   */\n      swap2\n      swap1\n      pop\n      jump\t// out\n        /* \"#utility.yul\":7903:8322   */\n    tag_73:\n        /* \"#utility.yul\":8069:8073   */\n      0x00\n        /* \"#utility.yul\":8107:8109   */\n      0x20\n        /* \"#utility.yul\":8096:8105   */\n      dup3\n        /* \"#utility.yul\":8092:8110   */\n      add\n        /* \"#utility.yul\":8084:8110   */\n      swap1\n      pop\n        /* \"#utility.yul\":8156:8165   */\n      dup2\n        /* \"#utility.yul\":8150:8154   */\n      dup2\n        /* \"#utility.yul\":8146:8166   */\n      sub\n        /* \"#utility.yul\":8142:8143   */\n      0x00\n        /* \"#utility.yul\":8131:8140   */\n      dup4\n        /* \"#utility.yul\":8127:8144   */\n      add\n        /* \"#utility.yul\":8120:8167   */\n      mstore\n        /* \"#utility.yul\":8184:8315   */\n      tag_196\n        /* \"#utility.yul\":8310:8314   */\n      dup2\n        /* \"#utility.yul\":8184:8315   */\n      tag_101\n      jump\t// in\n    tag_196:\n        /* \"#utility.yul\":8176:8315   */\n      swap1\n      pop\n        /* \"#utility.yul\":7903:8322   */\n      swap2\n      swap1\n      pop\n      jump\t// out\n\n    auxdata: 0xa264697066735822122026cf89a2ac7b9ef4689fdc1975227558dedd8e4434fa10bd9d9935efa80cde5464736f6c634300081e0033\n}\n",
				"bytecode": {
					"linkReferences": {},
					"object": "6080604052348015600e575f5ffd5b50610b688061001c5f395ff3fe60806040526004361061006f575f3560e01c80635e5c06e21161004d5780635e5c06e2146100ed57806377e604c014610129578063853828b614610151578063d0e30db0146101675761006f565b806312065fe0146100735780632e1a7d4d1461009d578063430bd098146100c5575b5f5ffd5b34801561007e575f5ffd5b50610087610171565b6040516100949190610716565b60405180910390f35b3480156100a8575f5ffd5b506100c360048036038101906100be919061075d565b6101b6565b005b3480156100d0575f5ffd5b506100eb60048036038101906100e691906107e2565b61030b565b005b3480156100f8575f5ffd5b50610113600480360381019061010e919061085b565b610463565b6040516101209190610716565b60405180910390f35b348015610134575f5ffd5b5061014f600480360381019061014a9190610886565b61047c565b005b34801561015c575f5ffd5b506101656105e4565b005b61016f61062d565b005b5f5f5f3373ffffffffffffffffffffffffffffffffffffffff1673ffffffffffffffffffffffffffffffffffffffff1681526020019081526020015f205f0154905090565b5f5f3373ffffffffffffffffffffffffffffffffffffffff1673ffffffffffffffffffffffffffffffffffffffff1681526020019081526020015f205f0154811115610237576040517f08c379a000000000000000000000000000000000000000000000000000000000815260040161022e9061091e565b60405180910390fd5b805f5f3373ffffffffffffffffffffffffffffffffffffffff1673ffffffffffffffffffffffffffffffffffffffff1681526020019081526020015f205f015f8282546102849190610969565b925050819055503373ffffffffffffffffffffffffffffffffffffffff166108fc8290811502906040515f60405180830381858888f193505050501580156102ce573d5f5f3e3d5ffd5b507f884edad9ce6fa2440d8a54cc123490eb96d2768479d49ff9c7366125a942436433826040516103009291906109ab565b60405180910390a150565b5f5f3373ffffffffffffffffffffffffffffffffffffffff1673ffffffffffffffffffffffffffffffffffffffff1681526020019081526020015f205f015481111561038c576040517f08c379a00000000000000000000000000000000000000000000000000000000081526004016103839061091e565b60405180910390fd5b805f5f3373ffffffffffffffffffffffffffffffffffffffff1673ffffffffffffffffffffffffffffffffffffffff1681526020019081526020015f205f015f8282546103d99190610969565b925050819055508173ffffffffffffffffffffffffffffffffffffffff166108fc8290811502906040515f60405180830381858888f19350505050158015610423573d5f5f3e3d5ffd5b507fcf0ee562475620bbcd2f1b0675c8163317513271e4fdbbe9722436f247bd6d9933838360405161045793929190610a2d565b60405180910390a15050565b5f602052805f5260405f205f91509050805f0154905081565b5f5f3373ffffffffffffffffffffffffffffffffffffffff1673ffffffffffffffffffffffffffffffffffffffff1681526020019081526020015f205f01548111156104fd576040517f08c379a00000000000000000000000000000000000000000000000000000000081526004016104f49061091e565b60405180910390fd5b805f5f3373ffffffffffffffffffffffffffffffffffffffff1673ffffffffffffffffffffffffffffffffffffffff1681526020019081526020015f205f015f82825461054a9190610969565b92505081905550805f5f8473ffffffffffffffffffffffffffffffffffffffff1673ffffffffffffffffffffffffffffffffffffffff1681526020019081526020015f205f015f82825461059e9190610a62565b925050819055507fe2080c8fc8d86c864d8dc081fadaebf2be7191086615e786f954420f13ed122a3383836040516105d893929190610a95565b60405180910390a15050565b61062b5f5f3373ffffffffffffffffffffffffffffffffffffffff1673ffffffffffffffffffffffffffffffffffffffff1681526020019081526020015f205f01546101b6565b565b5f340361066f576040517f08c379a000000000000000000000000000000000000000000000000000000000815260040161066690610b14565b60405180910390fd5b345f5f3373ffffffffffffffffffffffffffffffffffffffff1673ffffffffffffffffffffffffffffffffffffffff1681526020019081526020015f205f015f8282546106bc9190610a62565b925050819055507fe1fffcc4923d04b559f4d29a8bfc6cda04eb5b0d3c460751c2402c5c5cc9109c33346040516106f49291906109ab565b60405180910390a1565b5f819050919050565b610710816106fe565b82525050565b5f6020820190506107295f830184610707565b92915050565b5f5ffd5b61073c816106fe565b8114610746575f5ffd5b50565b5f8135905061075781610733565b92915050565b5f602082840312156107725761077161072f565b5b5f61077f84828501610749565b91505092915050565b5f73ffffffffffffffffffffffffffffffffffffffff82169050919050565b5f6107b182610788565b9050919050565b6107c1816107a7565b81146107cb575f5ffd5b50565b5f813590506107dc816107b8565b92915050565b5f5f604083850312156107f8576107f761072f565b5b5f610805858286016107ce565b925050602061081685828601610749565b9150509250929050565b5f61082a82610788565b9050919050565b61083a81610820565b8114610844575f5ffd5b50565b5f8135905061085581610831565b92915050565b5f602082840312156108705761086f61072f565b5b5f61087d84828501610847565b91505092915050565b5f5f6040838503121561089c5761089b61072f565b5b5f6108a985828601610847565b92505060206108ba85828601610749565b9150509250929050565b5f82825260208201905092915050565b7f696e73756666696369656e742062616c616e63650000000000000000000000005f82015250565b5f6109086014836108c4565b9150610913826108d4565b602082019050919050565b5f6020820190508181035f830152610935816108fc565b9050919050565b7f4e487b71000000000000000000000000000000000000000000000000000000005f52601160045260245ffd5b5f610973826106fe565b915061097e836106fe565b92508282039050818111156109965761099561093c565b5b92915050565b6109a581610820565b82525050565b5f6040820190506109be5f83018561099c565b6109cb6020830184610707565b9392505050565b5f819050919050565b5f6109f56109f06109eb84610788565b6109d2565b610788565b9050919050565b5f610a06826109db565b9050919050565b5f610a17826109fc565b9050919050565b610a2781610a0d565b82525050565b5f606082019050610a405f83018661099c565b610a4d6020830185610a1e565b610a5a6040830184610707565b949350505050565b5f610a6c826106fe565b9150610a77836106fe565b9250828201905080821115610a8f57610a8e61093c565b5b92915050565b5f606082019050610aa85f83018661099c565b610ab5602083018561099c565b610ac26040830184610707565b949350505050565b7f76616c75652063616e206e6f74206265207a65726f00000000000000000000005f82015250565b5f610afe6015836108c4565b9150610b0982610aca565b602082019050919050565b5f6020820190508181035f830152610b2b81610af2565b905091905056fea264697066735822122026cf89a2ac7b9ef4689fdc1975227558dedd8e4434fa10bd9d9935efa80cde5464736f6c634300081e0033",
					"opcodes": "PUSH1 0x80 PUSH1 0x40 MSTORE CALLVALUE DUP1 ISZERO PUSH1 0xE JUMPI PUSH0 PUSH0 REVERT JUMPDEST POP PUSH2 0xB68 DUP1 PUSH2 0x1C PUSH0 CODECOPY PUSH0 RETURN INVALID PUSH1 0x80 PUSH1 0x40 MSTORE PUSH1 0x4 CALLDATASIZE LT PUSH2 0x6F JUMPI PUSH0 CALLDATALOAD PUSH1 0xE0 SHR DUP1 PUSH4 0x5E5C06E2 GT PUSH2 0x4D JUMPI DUP1 PUSH4 0x5E5C06E2 EQ PUSH2 0xED JUMPI DUP1 PUSH4 0x77E604C0 EQ PUSH2 0x129 JUMPI DUP1 PUSH4 0x853828B6 EQ PUSH2 0x151 JUMPI DUP1 PUSH4 0xD0E30DB0 EQ PUSH2 0x167 JUMPI PUSH2 0x6F JUMP JUMPDEST DUP1 PUSH4 0x12065FE0 EQ PUSH2 0x73 JUMPI DUP1 PUSH4 0x2E1A7D4D EQ PUSH2 0x9D JUMPI DUP1 PUSH4 0x430BD098 EQ PUSH2 0xC5 JUMPI JUMPDEST PUSH0 PUSH0 REVERT JUMPDEST CALLVALUE DUP1 ISZERO PUSH2 0x7E JUMPI PUSH0 PUSH0 REVERT JUMPDEST POP PUSH2 0x87 PUSH2 0x171 JUMP JUMPDEST PUSH1 0x40 MLOAD PUSH2 0x94 SWAP2 SWAP1 PUSH2 0x716 JUMP JUMPDEST PUSH1 0x40 MLOAD DUP1 SWAP2 SUB SWAP1 RETURN JUMPDEST CALLVALUE DUP1 ISZERO PUSH2 0xA8 JUMPI PUSH0 PUSH0 REVERT JUMPDEST POP PUSH2 0xC3 PUSH1 0x4 DUP1 CALLDATASIZE SUB DUP2 ADD SWAP1 PUSH2 0xBE SWAP2 SWAP1 PUSH2 0x75D JUMP JUMPDEST PUSH2 0x1B6 JUMP JUMPDEST STOP JUMPDEST CALLVALUE DUP1 ISZERO PUSH2 0xD0 JUMPI PUSH0 PUSH0 REVERT JUMPDEST POP PUSH2 0xEB PUSH1 0x4 DUP1 CALLDATASIZE SUB DUP2 ADD SWAP1 PUSH2 0xE6 SWAP2 SWAP1 PUSH2 0x7E2 JUMP JUMPDEST PUSH2 0x30B JUMP JUMPDEST STOP JUMPDEST CALLVALUE DUP1 ISZERO PUSH2 0xF8 JUMPI PUSH0 PUSH0 REVERT JUMPDEST POP PUSH2 0x113 PUSH1 0x4 DUP1 CALLDATASIZE SUB DUP2 ADD SWAP1 PUSH2 0x10E SWAP2 SWAP1 PUSH2 0x85B JUMP JUMPDEST PUSH2 0x463 JUMP JUMPDEST PUSH1 0x40 MLOAD PUSH2 0x120 SWAP2 SWAP1 PUSH2 0x716 JUMP JUMPDEST PUSH1 0x40 MLOAD DUP1 SWAP2 SUB SWAP1 RETURN JUMPDEST CALLVALUE DUP1 ISZERO PUSH2 0x134 JUMPI PUSH0 PUSH0 REVERT JUMPDEST POP PUSH2 0x14F PUSH1 0x4 DUP1 CALLDATASIZE SUB DUP2 ADD SWAP1 PUSH2 0x14A SWAP2 SWAP1 PUSH2 0x886 JUMP JUMPDEST PUSH2 0x47C JUMP JUMPDEST STOP JUMPDEST CALLVALUE DUP1 ISZERO PUSH2 0x15C JUMPI PUSH0 PUSH0 REVERT JUMPDEST POP PUSH2 0x165 PUSH2 0x5E4 JUMP JUMPDEST STOP JUMPDEST PUSH2 0x16F PUSH2 0x62D JUMP JUMPDEST STOP JUMPDEST PUSH0 PUSH0 PUSH0 CALLER PUSH20 0xFFFFFFFFFFFFFFFFFFFFFFFFFFFFFFFFFFFFFFFF AND PUSH20 0xFFFFFFFFFFFFFFFFFFFFFFFFFFFFFFFFFFFFFFFF AND DUP2 MSTORE PUSH1 0x20 ADD SWAP1 DUP2 MSTORE PUSH1 0x20 ADD PUSH0 KECCAK256 PUSH0 ADD SLOAD SWAP1 POP SWAP1 JUMP JUMPDEST PUSH0 PUSH0 CALLER PUSH20 0xFFFFFFFFFFFFFFFFFFFFFFFFFFFFFFFFFFFFFFFF AND PUSH20 0xFFFFFFFFFFFFFFFFFFFFFFFFFFFFFFFFFFFFFFFF AND DUP2 MSTORE PUSH1 0x20 ADD SWAP1 DUP2 MSTORE PUSH1 0x20 ADD PUSH0 KECCAK256 PUSH0 ADD SLOAD DUP2 GT ISZERO PUSH2 0x237 JUMPI PUSH1 0x40 MLOAD PUSH32 0x8C379A000000000000000000000000000000000000000000000000000000000 DUP2 MSTORE PUSH1 0x4 ADD PUSH2 0x22E SWAP1 PUSH2 0x91E JUMP JUMPDEST PUSH1 0x40 MLOAD DUP1 SWAP2 SUB SWAP1 REVERT JUMPDEST DUP1 PUSH0 PUSH0 CALLER PUSH20 0xFFFFFFFFFFFFFFFFFFFFFFFFFFFFFFFFFFFFFFFF AND PUSH20 0xFFFFFFFFFFFFFFFFFFFFFFFFFFFFFFFFFFFFFFFF AND DUP2 MSTORE PUSH1 0x20 ADD SWAP1 DUP2 MSTORE PUSH1 0x20 ADD PUSH0 KECCAK256 PUSH0 ADD PUSH0 DUP3 DUP3 SLOAD PUSH2 0x284 SWAP2 SWAP1 PUSH2 0x969 JUMP JUMPDEST SWAP3 POP POP DUP2 SWAP1 SSTORE POP CALLER PUSH20 0xFFFFFFFFFFFFFFFFFFFFFFFFFFFFFFFFFFFFFFFF AND PUSH2 0x8FC DUP3 SWAP1 DUP2 ISZERO MUL SWAP1 PUSH1 0x40 MLOAD PUSH0 PUSH1 0x40 MLOAD DUP1 DUP4 SUB DUP2 DUP6 DUP9 DUP9 CALL SWAP4 POP POP POP POP ISZERO DUP1 ISZERO PUSH2 0x2CE JUMPI RETURNDATASIZE PUSH0 PUSH0 RETURNDATACOPY RETURNDATASIZE PUSH0 REVERT JUMPDEST POP PUSH32 0x884EDAD9CE6FA2440D8A54CC123490EB96D2768479D49FF9C7366125A9424364 CALLER DUP3 PUSH1 0x40 MLOAD PUSH2 0x300 SWAP3 SWAP2 SWAP1 PUSH2 0x9AB JUMP JUMPDEST PUSH1 0x40 MLOAD DUP1 SWAP2 SUB SWAP1 LOG1 POP JUMP JUMPDEST PUSH0 PUSH0 CALLER PUSH20 0xFFFFFFFFFFFFFFFFFFFFFFFFFFFFFFFFFFFFFFFF AND PUSH20 0xFFFFFFFFFFFFFFFFFFFFFFFFFFFFFFFFFFFFFFFF AND DUP2 MSTORE PUSH1 0x20 ADD SWAP1 DUP2 MSTORE PUSH1 0x20 ADD PUSH0 KECCAK256 PUSH0 ADD SLOAD DUP2 GT ISZERO PUSH2 0x38C JUMPI PUSH1 0x40 MLOAD PUSH32 0x8C379A000000000000000000000000000000000000000000000000000000000 DUP2 MSTORE PUSH1 0x4 ADD PUSH2 0x383 SWAP1 PUSH2 0x91E JUMP JUMPDEST PUSH1 0x40 MLOAD DUP1 SWAP2 SUB SWAP1 REVERT JUMPDEST DUP1 PUSH0 PUSH0 CALLER PUSH20 0xFFFFFFFFFFFFFFFFFFFFFFFFFFFFFFFFFFFFFFFF AND PUSH20 0xFFFFFFFFFFFFFFFFFFFFFFFFFFFFFFFFFFFFFFFF AND DUP2 MSTORE PUSH1 0x20 ADD SWAP1 DUP2 MSTORE PUSH1 0x20 ADD PUSH0 KECCAK256 PUSH0 ADD PUSH0 DUP3 DUP3 SLOAD PUSH2 0x3D9 SWAP2 SWAP1 PUSH2 0x969 JUMP JUMPDEST SWAP3 POP POP DUP2 SWAP1 SSTORE POP DUP2 PUSH20 0xFFFFFFFFFFFFFFFFFFFFFFFFFFFFFFFFFFFFFFFF AND PUSH2 0x8FC DUP3 SWAP1 DUP2 ISZERO MUL SWAP1 PUSH1 0x40 MLOAD PUSH0 PUSH1 0x40 MLOAD DUP1 DUP4 SUB DUP2 DUP6 DUP9 DUP9 CALL SWAP4 POP POP POP POP ISZERO DUP1 ISZERO PUSH2 0x423 JUMPI RETURNDATASIZE PUSH0 PUSH0 RETURNDATACOPY RETURNDATASIZE PUSH0 REVERT JUMPDEST POP PUSH32 0xCF0EE562475620BBCD2F1B0675C8163317513271E4FDBBE9722436F247BD6D99 CALLER DUP4 DUP4 PUSH1 0x40 MLOAD PUSH2 0x457 SWAP4 SWAP3 SWAP2 SWAP1 PUSH2 0xA2D JUMP JUMPDEST PUSH1 0x40 MLOAD DUP1 SWAP2 SUB SWAP1 LOG1 POP POP JUMP JUMPDEST PUSH0 PUSH1 0x20 MSTORE DUP1 PUSH0 MSTORE PUSH1 0x40 PUSH0 KECCAK256 PUSH0 SWAP2 POP SWAP1 POP DUP1 PUSH0 ADD SLOAD SWAP1 POP DUP2 JUMP JUMPDEST PUSH0 PUSH0 CALLER PUSH20 0xFFFFFFFFFFFFFFFFFFFFFFFFFFFFFFFFFFFFFFFF AND PUSH20 0xFFFFFFFFFFFFFFFFFFFFFFFFFFFFFFFFFFFFFFFF AND DUP2 MSTORE PUSH1 0x20 ADD SWAP1 DUP2 MSTORE PUSH1 0x20 ADD PUSH0 KECCAK256 PUSH0 ADD SLOAD DUP2 GT ISZERO PUSH2 0x4FD JUMPI PUSH1 0x40 MLOAD PUSH32 0x8C379A000000000000000000000000000000000000000000000000000000000 DUP2 MSTORE PUSH1 0x4 ADD PUSH2 0x4F4 SWAP1 PUSH2 0x91E JUMP JUMPDEST PUSH1 0x40 MLOAD DUP1 SWAP2 SUB SWAP1 REVERT JUMPDEST DUP1 PUSH0 PUSH0 CALLER PUSH20 0xFFFFFFFFFFFFFFFFFFFFFFFFFFFFFFFFFFFFFFFF AND PUSH20 0xFFFFFFFFFFFFFFFFFFFFFFFFFFFFFFFFFFFFFFFF AND DUP2 MSTORE PUSH1 0x20 ADD SWAP1 DUP2 MSTORE PUSH1 0x20 ADD PUSH0 KECCAK256 PUSH0 ADD PUSH0 DUP3 DUP3 SLOAD PUSH2 0x54A SWAP2 SWAP1 PUSH2 0x969 JUMP JUMPDEST SWAP3 POP POP DUP2 SWAP1 SSTORE POP DUP1 PUSH0 PUSH0 DUP5 PUSH20 0xFFFFFFFFFFFFFFFFFFFFFFFFFFFFFFFFFFFFFFFF AND PUSH20 0xFFFFFFFFFFFFFFFFFFFFFFFFFFFFFFFFFFFFFFFF AND DUP2 MSTORE PUSH1 0x20 ADD SWAP1 DUP2 MSTORE PUSH1 0x20 ADD PUSH0 KECCAK256 PUSH0 ADD PUSH0 DUP3 DUP3 SLOAD PUSH2 0x59E SWAP2 SWAP1 PUSH2 0xA62 JUMP JUMPDEST SWAP3 POP POP DUP2 SWAP1 SSTORE POP PUSH32 0xE2080C8FC8D86C864D8DC081FADAEBF2BE7191086615E786F954420F13ED122A CALLER DUP4 DUP4 PUSH1 0x40 MLOAD PUSH2 0x5D8 SWAP4 SWAP3 SWAP2 SWAP1 PUSH2 0xA95 JUMP JUMPDEST PUSH1 0x40 MLOAD DUP1 SWAP2 SUB SWAP1 LOG1 POP POP JUMP JUMPDEST PUSH2 0x62B PUSH0 PUSH0 CALLER PUSH20 0xFFFFFFFFFFFFFFFFFFFFFFFFFFFFFFFFFFFFFFFF AND PUSH20 0xFFFFFFFFFFFFFFFFFFFFFFFFFFFFFFFFFFFFFFFF AND DUP2 MSTORE PUSH1 0x20 ADD SWAP1 DUP2 MSTORE PUSH1 0x20 ADD PUSH0 KECCAK256 PUSH0 ADD SLOAD PUSH2 0x1B6 JUMP JUMPDEST JUMP JUMPDEST PUSH0 CALLVALUE SUB PUSH2 0x66F JUMPI PUSH1 0x40 MLOAD PUSH32 0x8C379A000000000000000000000000000000000000000000000000000000000 DUP2 MSTORE PUSH1 0x4 ADD PUSH2 0x666 SWAP1 PUSH2 0xB14 JUMP JUMPDEST PUSH1 0x40 MLOAD DUP1 SWAP2 SUB SWAP1 REVERT JUMPDEST CALLVALUE PUSH0 PUSH0 CALLER PUSH20 0xFFFFFFFFFFFFFFFFFFFFFFFFFFFFFFFFFFFFFFFF AND PUSH20 0xFFFFFFFFFFFFFFFFFFFFFFFFFFFFFFFFFFFFFFFF AND DUP2 MSTORE PUSH1 0x20 ADD SWAP1 DUP2 MSTORE PUSH1 0x20 ADD PUSH0 KECCAK256 PUSH0 ADD PUSH0 DUP3 DUP3 SLOAD PUSH2 0x6BC SWAP2 SWAP1 PUSH2 0xA62 JUMP JUMPDEST SWAP3 POP POP DUP2 SWAP1 SSTORE POP PUSH32 0xE1FFFCC4923D04B559F4D29A8BFC6CDA04EB5B0D3C460751C2402C5C5CC9109C CALLER CALLVALUE PUSH1 0x40 MLOAD PUSH2 0x6F4 SWAP3 SWAP2 SWAP1 PUSH2 0x9AB JUMP JUMPDEST PUSH1 0x40 MLOAD DUP1 SWAP2 SUB SWAP1 LOG1 JUMP JUMPDEST PUSH0 DUP2 SWAP1 POP SWAP2 SWAP1 POP JUMP JUMPDEST PUSH2 0x710 DUP2 PUSH2 0x6FE JUMP JUMPDEST DUP3 MSTORE POP POP JUMP JUMPDEST PUSH0 PUSH1 0x20 DUP3 ADD SWAP1 POP PUSH2 0x729 PUSH0 DUP4 ADD DUP5 PUSH2 0x707 JUMP JUMPDEST SWAP3 SWAP2 POP POP JUMP JUMPDEST PUSH0 PUSH0 REVERT JUMPDEST PUSH2 0x73C DUP2 PUSH2 0x6FE JUMP JUMPDEST DUP2 EQ PUSH2 0x746 JUMPI PUSH0 PUSH0 REVERT JUMPDEST POP JUMP JUMPDEST PUSH0 DUP2 CALLDATALOAD SWAP1 POP PUSH2 0x757 DUP2 PUSH2 0x733 JUMP JUMPDEST SWAP3 SWAP2 POP POP JUMP JUMPDEST PUSH0 PUSH1 0x20 DUP3 DUP5 SUB SLT ISZERO PUSH2 0x772 JUMPI PUSH2 0x771 PUSH2 0x72F JUMP JUMPDEST JUMPDEST PUSH0 PUSH2 0x77F DUP5 DUP3 DUP6 ADD PUSH2 0x749 JUMP JUMPDEST SWAP2 POP POP SWAP3 SWAP2 POP POP JUMP JUMPDEST PUSH0 PUSH20 0xFFFFFFFFFFFFFFFFFFFFFFFFFFFFFFFFFFFFFFFF DUP3 AND SWAP1 POP SWAP2 SWAP1 POP JUMP JUMPDEST PUSH0 PUSH2 0x7B1 DUP3 PUSH2 0x788 JUMP JUMPDEST SWAP1 POP SWAP2 SWAP1 POP JUMP JUMPDEST PUSH2 0x7C1 DUP2 PUSH2 0x7A7 JUMP JUMPDEST DUP2 EQ PUSH2 0x7CB JUMPI PUSH0 PUSH0 REVERT JUMPDEST POP JUMP JUMPDEST PUSH0 DUP2 CALLDATALOAD SWAP1 POP PUSH2 0x7DC DUP2 PUSH2 0x7B8 JUMP JUMPDEST SWAP3 SWAP2 POP POP JUMP JUMPDEST PUSH0 PUSH0 PUSH1 0x40 DUP4 DUP6 SUB SLT ISZERO PUSH2 0x7F8 JUMPI PUSH2 0x7F7 PUSH2 0x72F JUMP JUMPDEST JUMPDEST PUSH0 PUSH2 0x805 DUP6 DUP3 DUP7 ADD PUSH2 0x7CE JUMP JUMPDEST SWAP3 POP POP PUSH1 0x20 PUSH2 0x816 DUP6 DUP3 DUP7 ADD PUSH2 0x749 JUMP JUMPDEST SWAP2 POP POP SWAP3 POP SWAP3 SWAP1 POP JUMP JUMPDEST PUSH0 PUSH2 0x82A DUP3 PUSH2 0x788 JUMP JUMPDEST SWAP1 POP SWAP2 SWAP1 POP JUMP JUMPDEST PUSH2 0x83A DUP2 PUSH2 0x820 JUMP JUMPDEST DUP2 EQ PUSH2 0x844 JUMPI PUSH0 PUSH0 REVERT JUMPDEST POP JUMP JUMPDEST PUSH0 DUP2 CALLDATALOAD SWAP1 POP PUSH2 0x855 DUP2 PUSH2 0x831 JUMP JUMPDEST SWAP3 SWAP2 POP POP JUMP JUMPDEST PUSH0 PUSH1 0x20 DUP3 DUP5 SUB SLT ISZERO PUSH2 0x870 JUMPI PUSH2 0x86F PUSH2 0x72F JUMP JUMPDEST JUMPDEST PUSH0 PUSH2 0x87D DUP5 DUP3 DUP6 ADD PUSH2 0x847 JUMP JUMPDEST SWAP2 POP POP SWAP3 SWAP2 POP POP JUMP JUMPDEST PUSH0 PUSH0 PUSH1 0x40 DUP4 DUP6 SUB SLT ISZERO PUSH2 0x89C JUMPI PUSH2 0x89B PUSH2 0x72F JUMP JUMPDEST JUMPDEST PUSH0 PUSH2 0x8A9 DUP6 DUP3 DUP7 ADD PUSH2 0x847 JUMP JUMPDEST SWAP3 POP POP PUSH1 0x20 PUSH2 0x8BA DUP6 DUP3 DUP7 ADD PUSH2 0x749 JUMP JUMPDEST SWAP2 POP POP SWAP3 POP SWAP3 SWAP1 POP JUMP JUMPDEST PUSH0 DUP3 DUP3 MSTORE PUSH1 0x20 DUP3 ADD SWAP1 POP SWAP3 SWAP2 POP POP JUMP JUMPDEST PUSH32 0x696E73756666696369656E742062616C616E6365000000000000000000000000 PUSH0 DUP3 ADD MSTORE POP JUMP JUMPDEST PUSH0 PUSH2 0x908 PUSH1 0x14 DUP4 PUSH2 0x8C4 JUMP JUMPDEST SWAP2 POP PUSH2 0x913 DUP3 PUSH2 0x8D4 JUMP JUMPDEST PUSH1 0x20 DUP3 ADD SWAP1 POP SWAP2 SWAP1 POP JUMP JUMPDEST PUSH0 PUSH1 0x20 DUP3 ADD SWAP1 POP DUP2 DUP2 SUB PUSH0 DUP4 ADD MSTORE PUSH2 0x935 DUP2 PUSH2 0x8FC JUMP JUMPDEST SWAP1 POP SWAP2 SWAP1 POP JUMP JUMPDEST PUSH32 0x4E487B7100000000000000000000000000000000000000000000000000000000 PUSH0 MSTORE PUSH1 0x11 PUSH1 0x4 MSTORE PUSH1 0x24 PUSH0 REVERT JUMPDEST PUSH0 PUSH2 0x973 DUP3 PUSH2 0x6FE JUMP JUMPDEST SWAP2 POP PUSH2 0x97E DUP4 PUSH2 0x6FE JUMP JUMPDEST SWAP3 POP DUP3 DUP3 SUB SWAP1 POP DUP2 DUP2 GT ISZERO PUSH2 0x996 JUMPI PUSH2 0x995 PUSH2 0x93C JUMP JUMPDEST JUMPDEST SWAP3 SWAP2 POP POP JUMP JUMPDEST PUSH2 0x9A5 DUP2 PUSH2 0x820 JUMP JUMPDEST DUP3 MSTORE POP POP JUMP JUMPDEST PUSH0 PUSH1 0x40 DUP3 ADD SWAP1 POP PUSH2 0x9BE PUSH0 DUP4 ADD DUP6 PUSH2 0x99C JUMP JUMPDEST PUSH2 0x9CB PUSH1 0x20 DUP4 ADD DUP5 PUSH2 0x707 JUMP JUMPDEST SWAP4 SWAP3 POP POP POP JUMP JUMPDEST PUSH0 DUP2 SWAP1 POP SWAP2 SWAP1 POP JUMP JUMPDEST PUSH0 PUSH2 0x9F5 PUSH2 0x9F0 PUSH2 0x9EB DUP5 PUSH2 0x788 JUMP JUMPDEST PUSH2 0x9D2 JUMP JUMPDEST PUSH2 0x788 JUMP JUMPDEST SWAP1 POP SWAP2 SWAP1 POP JUMP JUMPDEST PUSH0 PUSH2 0xA06 DUP3 PUSH2 0x9DB JUMP JUMPDEST SWAP1 POP SWAP2 SWAP1 POP JUMP JUMPDEST PUSH0 PUSH2 0xA17 DUP3 PUSH2 0x9FC JUMP JUMPDEST SWAP1 POP SWAP2 SWAP1 POP JUMP JUMPDEST PUSH2 0xA27 DUP2 PUSH2 0xA0D JUMP JUMPDEST DUP3 MSTORE POP POP JUMP JUMPDEST PUSH0 PUSH1 0x60 DUP3 ADD SWAP1 POP PUSH2 0xA40 PUSH0 DUP4 ADD DUP7 PUSH2 0x99C JUMP JUMPDEST PUSH2 0xA4D PUSH1 0x20 DUP4 ADD DUP6 PUSH2 0xA1E JUMP JUMPDEST PUSH2 0xA5A PUSH1 0x40 DUP4 ADD DUP5 PUSH2 0x707 JUMP JUMPDEST SWAP5 SWAP4 POP POP POP POP JUMP JUMPDEST PUSH0 PUSH2 0xA6C DUP3 PUSH2 0x6FE JUMP JUMPDEST SWAP2 POP PUSH2 0xA77 DUP4 PUSH2 0x6FE JUMP JUMPDEST SWAP3 POP DUP3 DUP3 ADD SWAP1 POP DUP1 DUP3 GT ISZERO PUSH2 0xA8F JUMPI PUSH2 0xA8E PUSH2 0x93C JUMP JUMPDEST JUMPDEST SWAP3 SWAP2 POP POP JUMP JUMPDEST PUSH0 PUSH1 0x60 DUP3 ADD SWAP1 POP PUSH2 0xAA8 PUSH0 DUP4 ADD DUP7 PUSH2 0x99C JUMP JUMPDEST PUSH2 0xAB5 PUSH1 0x20 DUP4 ADD DUP6 PUSH2 0x99C JUMP JUMPDEST PUSH2 0xAC2 PUSH1 0x40 DUP4 ADD DUP5 PUSH2 0x707 JUMP JUMPDEST SWAP5 SWAP4 POP POP POP POP JUMP JUMPDEST PUSH32 0x76616C75652063616E206E6F74206265207A65726F0000000000000000000000 PUSH0 DUP3 ADD MSTORE POP JUMP JUMPDEST PUSH0 PUSH2 0xAFE PUSH1 0x15 DUP4 PUSH2 0x8C4 JUMP JUMPDEST SWAP2 POP PUSH2 0xB09 DUP3 PUSH2 0xACA JUMP JUMPDEST PUSH1 0x20 DUP3 ADD SWAP1 POP SWAP2 SWAP1 POP JUMP JUMPDEST PUSH0 PUSH1 0x20 DUP3 ADD SWAP1 POP DUP2 DUP2 SUB PUSH0 DUP4 ADD MSTORE PUSH2 0xB2B DUP2 PUSH2 0xAF2 JUMP JUMPDEST SWAP1 POP SWAP2 SWAP1 POP JUMP INVALID LOG2 PUSH5 0x6970667358 0x22 SLT KECCAK256 0x26 0xCF DUP10 LOG2 0xAC PUSH28 0x9EF4689FDC1975227558DEDD8E4434FA10BD9D9935EFA80CDE546473 PUSH16 0x6C634300081E00330000000000000000 "
				},
				"gasEstimates": {
					"creation": {
						"codeDepositCost": "584000",
						"executionCost": "617",
						"totalCost": "584617"
					},
					"external": {
						"accounts(address)": "2814",
						"deposit()": "infinite",
						"externalTransferTo(address,uint256)": "infinite",
						"getBalance()": "2524",
						"internalTransferToAccount(address,uint256)": "infinite",
						"withdraw(uint256)": "infinite",
						"withdrawAll()": "infinite"
					}
				},
				"methodIdentifiers": {
					"accounts(address)": "5e5c06e2",
					"deposit()": "d0e30db0",
					"externalTransferTo(address,uint256)": "430bd098",
					"getBalance()": "12065fe0",
					"internalTransferToAccount(address,uint256)": "77e604c0",
					"withdraw(uint256)": "2e1a7d4d",
					"withdrawAll()": "853828b6"
				}
			},
			"storageLayout": {
				"storage": [
					{
						"astId": 37,
						"contract": "src/contracts/SmartBank.sol:SmartBank",
						"label": "accounts",
						"offset": 0,
						"slot": "0",
						"type": "t_mapping(t_address,t_struct(Account)32_storage)"
					}
				],
				"types": {
					"t_address": {
						"encoding": "inplace",
						"label": "address",
						"numberOfBytes": "20"
					},
					"t_mapping(t_address,t_struct(Account)32_storage)": {
						"encoding": "mapping",
						"key": "t_address",
						"label": "mapping(address => struct SmartBank.Account)",
						"numberOfBytes": "32",
						"value": "t_struct(Account)32_storage"
					},
					"t_struct(Account)32_storage": {
						"encoding": "inplace",
						"label": "struct SmartBank.Account",
						"members": [
							{
								"astId": 31,
								"contract": "src/contracts/SmartBank.sol:SmartBank",
								"label": "balance",
								"offset": 0,
								"slot": "0",
								"type": "t_uint256"
							}
						],
						"numberOfBytes": "32"
					},
					"t_uint256": {
						"encoding": "inplace",
						"label": "uint256",
						"numberOfBytes": "32"
					}
				}
			},
			"userdoc": {
				"kind": "user",
				"methods": {},
				"version": 1
			}
		}
	}
}